:020000040800F2
:10000000104700203D020008692000086120000818
:1000100065200008B7120008F72C00080000000057
:10002000000000000000000000000000752400082F
:10003000CD1E000800000000530200085502000811
:10004000570200085702000857020008570200082C
:10005000570200085702000857020008570200081C
:10006000570200085702000857020008570200080C
:1000700057020008570200085702000857020008FC
:1000800057020008570200085702000857020008EC
:10009000BD12000857020008570200085702000866
:1000A00057020008C125000857020008570200083F
:1000B000DD250008392600085526000857020008EB
:1000C00057020008570200085702000857020008AC
:1000D0005702000865290008570200088D2900080A
:1000E000570200085702000857020008570200088C
:1000F0008D26000857020008570200085702000822
:10010000570200085702000871260008570200082D
:100110005702000845290008570200085702000846
:10012000570200085702000857020008570200084B
:10013000570200085702000857020008570200083B
:10014000570200085702000857020008570200082B
:10015000570200085702000857020008570200081B
:10016000570200085702000857020008570200080B
:1001700057020008570200085702000857020008FB
:10018000570200085702000800F002F800F047F894
:100190000AA090E8000C82448344AAF10107DA45E2
:1001A00001D100F03CF8AFF2090EBAE80F0013F0ED
:1001B000010F18BFFB1A43F001031847904D0000D0
:1001C000B04D0000103A24BF78C878C1FAD8520761
:1001D00024BF30C830C144BF04680C6070470000C1
:1001E0000023002400250026103A28BF78C1FBD840
:1001F000520728BF30C148BF0B607047662904F022
:10020000BB84002070471FB500F014FB04000020E1
:10021000002103F0D5FDE0601FBD10B510BD00F05A
:100220000DFC1146FFF7EFFF03F042FC00F02BFC42
:1002300003B4FFF7F2FF03BC00F06EFC09488047EF
:1002400009480047FEE7FEE7FEE7FEE7FEE7FEE7B8
:10025000FEE7FEE7FEE7FEE704480549054A064BD0
:100260007047000065250008890100081001002082
:100270001047002010430020104300200FB41CB58D
:10028000074B06AA7B4469460090059800F0B9FA2E
:100290000020694600F0C8FA1CBC5DF814FB0000A1
:1002A000A10500002DE9F0410E4604460020206221
:1002B0002046E168884730B3252805D0D4E90121DC
:1002C0009047206A401CF2E7E168204600278847F3
:1002D000050018D0A5F14100192802D820354FF4A7
:1002E00000673246294620462760FFF787FF40B166
:1002F000012804D0F61D26F007060836D8E7361D7B
:10030000D6E72846DAE7206ABDE8F08110B5203A42
:10031000C0F00B80B1E81850203AA0E81850B1E8BE
:100320001850A0E81850BFF4F5AF5FEA027C24BF74
:10033000B1E81850A0E8185044BF18C918C0BDE86B
:1003400010405FEA827C24BF51F8043B40F8043B34
:1003500008BF7047D20728BF31F8023B48BF11F8E9
:10036000012B28BF20F8023B48BF00F8012B704743
:100370004FF0000200B5134694469646203922BF3E
:10038000A0E80C50A0E80C50B1F12001BFF4F7AF89
:10039000090728BFA0E80C5048BF0CC05DF804EB6B
:1003A000890028BF40F8042B08BF704748BF20F8D9
:1003B000022B11F0804F18BF00F8012B70477047D7
:1003C0007047704710B500F039FA006810BD10B5DD
:1003D000044600F033FA046010BD70472DE9FF4F6A
:1003E0000C461E464FF0FF378BB0D2E90001DDF816
:1003F00060800A908A46C1F30A5505B93D4600213E
:1004000008464FF00000BAF1000F00F4400005DA92
:1004100000EB80004FF4400101EA50004FEA905990
:10042000B9F1010F00DDB9460A9850EA4A000ED032
:1004300044F61050A5F2FF3545432F14B8F1000FD4
:100440001ED07542291E1EDDC9F100021CE0B8F164
:10045000010F4FF0000001D0302103E0F24305E02E
:100460002154401CB042FBDB3046002200212154C5
:100470000B99C1F80880C1E900200FB0BDE8F08FEA
:10048000BD1B6D1CDEE74A4600DA694206A800F093
:100490005FFA06AB93E8070003AB83E8070050461A
:1004A0000A9900F040FB8DE80700A0F500501F38C6
:1004B00000900398002D0ADD42F21F014A460844CD
:1004C000002303A90390684600F0A9FD09E0A0F508
:1004D00000504A461F38002303A90390684600F0E5
:1004E000B3FD8DE807000004000C03D04FF0FF308F
:1004F000410800E01046B8F1000F03D0002200923E
:1005000015461EE0751E05D400F09CF93032625588
:100510006D1EF9D5B3460122084302D000227F1C8C
:1005200004E02078302801D100227F1E002A09979C
:1005300084D01DE0112D07DA00F084F930326255C5
:100540006D1C50EA0102F5D1084302D00098C8B1F1
:100550000EE00021681E05E0235C625C63542254B7
:10056000401E491C8142F7DBAB46A81B401E099088
:10057000002004F80B000B98099AC0F80880C0E925
:10058000002B7AE711264FF0000857E72DE9F04FCE
:1005900088460446D21D22F0070191B0D1E900013E
:1005A000CDE90A0102F00AFC02460B98C00F01D007
:1005B0002D2007E02068810701D52B2002E02021B3
:1005C00001EAC000032A099001D0072A05DB03468F
:1005D0004146204600F07CF90BE12078800601D5E9
:1005E000E06900E00620B8F1650F814606D0B8F159
:1005F000660F18D0B8F1670F70D131E00020B9F163
:10060000110F009001DB112301E009F101030AAA97
:1006100001A90CA8FFF7E2FEDDE90C70002609F144
:100620000105834647E001204B4600904FF000470C
:100630000AAA01A90CA8FFF7D1FEDDE90DB00C99BB
:100640005D46002610B909F101000D18B9EB05004F
:1006500003D4C0F1FF3609F10105A5EB09002BE039
:10066000B9F1010F01DA4FF001090020B9F1110FC2
:100670000090484601DD112300E003460AAA01A9C3
:100680000CA8FFF7ABFEDDE90C704D460026834653
:10069000207800070AD4AB4500DA5D4601A8012D99
:1006A00004DD411911F8011C302907D04F4502DA49
:1006B00017F1040F04DA012082460FE06D1EEEE709
:1006C000002F02DCED1B3E4403E0781CA84200DD55
:1006D0007D1CB81B00F1010A4FF00047207800078D
:1006E00003D4AA4501DB4FF0FF3A0021B7F1004FD8
:1006F0000DF143088DF8431024D002202B23002F46
:1007000001DA7F422D230A21021EA0F1010000DC44
:100710005FB197FBF1FC97FBF1F201FB1C7C1746E4
:100720000CF1300C08F801CDEEE7A8F101000370E0
:100730002188090501D5452100E06521A0F10108C6
:1007400000F8011C09980FA9A1EB0807FF1D00B1D3
:100750000120411901EBEA70A1693844081A401ED2
:10076000A0612078C00602D42046AFF3008009982B
:1007700028B1D4E901219047206A401C20622078EA
:10078000C00622D52046AFF300801EE0002E04DB19
:10079000B34502DD01A8805D00E03020D4E90121ED
:1007A0009047206A401C2062761CAAF101005FEA93
:1007B000000A0AD100F03EF8C0680168405CD4E944
:1007C00001219047206A401C2062281EA5F10105E6
:1007D000DCDC07E0D4E9012118F8010B9047206A1E
:1007E000401C2062381EA7F10107F3DC2046AFF35E
:1007F0000080032011B041E601694A1C02610878BB
:10080000704700B58FB0CDE9013100210591054950
:100810007944CDE9031011466846FFF743FD0FB058
:1008200000BD0000E5FFFFFF0A6802F8010B0A6047
:100830007047000000487047CC0000200048704717
:10084000AC00002030B5B0F10A024FEA900E71F111
:1008500000034EEA817EB0EB0E0061EB91014FEA9E
:10086000101E4EEA017E10EB0E0041EB11114FEA13
:10087000102E4EEA016E10EB0E0041EB11214FEAF3
:10088000104E4EEA014E10EB0E0041EB11414018A4
:1008900041F100014FEAD00040EA41704FEAD10136
:1008A00010EB80054FEA810444EA907444EB0104A4
:1008B0006D1944EB0404521BA3414FF0000348BFE1
:1008C0000A3200D530BD401C41F1000130BD0000AE
:1008D0002DE9F0411F46044603260168072A01F46A
:1008E000006004DB08B116A505E016A503E008B119
:1008F00015A500E015A521F010002060A069C01E1C
:10090000A0610FB1401EA0612046AFF300804FB13F
:10091000D4E9012138469047206A401C2062C01C5F
:10092000206206E0206AFAE7D4E9012115F8010BFC
:100930009047761EF8D22046AFF30080BDE8F081E4
:100940004E414E006E616E00494E4600696E660073
:100950002DE9F047814616468AB0354878440DC8DF
:100960008DE80D0032487844801C03AC0DC884E843
:100970000D0041F69B300844372190FBF1F290FBCB
:10098000F1F5A5F1800501FB12041B3C02D5644280
:10099000012000E00020DFF898A080460027FA44FC
:1009A000AAF1BE0A0EE0E0070AD03246684607EB1D
:1009B000470101230AEB810100F046FB8DE80700A7
:1009C00064107F1C002CEED1194F7F44AE3F19E01C
:1009D000E80715D007EB04100DF1180A90E80E0097
:1009E0008AE80E00C068F04201D19819089032469A
:1009F000012306A903A800F027FB03AB83E8070047
:100A00006D10641C002DE3D14FF00103324669469E
:100A1000B8F1000F03A802D000F001FB01E000F0E4
:100A200013FBC9E90001C9F808200AB0BDE8F08746
:100A3000D445000000487047AC0000207546FFF721
:100A4000F9FFAE4605006946534620F0070085468B
:100A500018B020B5FFF700FCBDE820404FF00006BD
:100A60004FF000074FF000084FF0000B21F0070196
:100A7000AC46ACE8C009ACE8C009ACE8C009ACE8D9
:100A8000C0098D46704710B50446AFF3008020467C
:100A9000BDE81040FFF7CCBB4FF0013C50F8042BF1
:100AA00051F8043B9A4221D1A2EB0C03934313EA81
:100AB000CC1317D150F8042B51F8043B9A4215D1AE
:100AC000A2EB0C03934313EACC130BD150F8042B85
:100AD00051F8043B9A4209D1A2EB0C03934313EA69
:100AE000CC13DBD04FF00000704700BFD01A01BA22
:100AF000B1FA81F101F0180122FA01F0CB40C1F105
:100B00002001DBB2C0B2C01A2CFA01F3D11A914312
:100B100011EAC311E6D1704701491820ABBEFEE7C8
:100B20002600020070475FEA400C08BF91F0000FFA
:100B30004FEA8C234FEAC12243EA51514FEA1C503D
:100B400018BF00F5F0404FEA300018BF41F00041F7
:100B50005FEA6C5C00F02980BCF1FF3F08BF40F009
:100B600080407047130C06BF12044FF0100C4FF07A
:100B7000000C130E04BF12020CF1080C130F04BF7B
:100B800012010CF1040C930F04BF92000CF1020C43
:100B9000D30F04BF52000CF1010C11464FF00002BC
:100BA000A0F11F00A0EB0C00704711F0004F08BF30
:100BB000704731F000413FF4D5AF0B0C06BF09047C
:100BC0004FF0100C4FF0000C0B0E04BF09020CF19B
:100BD000080C0B0F04BF09010CF1040C8B0F04BFB0
:100BE00089000CF1020CCB0F04BF49000CF1010C81
:100BF000CCF12003A0EB0C0022FA03F302FA0CF272
:100C000041EA030100F10100704720F07F4C80EAC7
:100C1000030023F07F47ACEB070303F57C5300F0A0
:100C2000004003F1FF032DE980494FEA154B09B459
:100C30004FEA144325EA0B4E24EA03480FF2042638
:100C400006EB132749083E785FEA320203FB06678A
:100C5000C7F5000707FB06F64FEA54374FEAD646BA
:100C600006F1020607FB066CCCF1005C4FEA1C475C
:100C70002CEA074C07FB06F40CFB06F504EB1546C3
:100C80004FEA961634BF00204FF000404FEAD137AC
:100C900006FB07FC4FEA1C4C0CFB0BF7D21B03FBBB
:100CA0000CF761EB07010CFB0EF7B0EB074072EBA2
:100CB00017420CFB08F734BFA2EB0742B2EB074226
:100CC00061EB17414FEA0C444FEA910706FB07FC22
:100CD0004FEA1C4C0CFB0BF7B0EBC74072EB5732E2
:100CE00003FB0CF734BFA2EBC742B2EBC74261EB88
:100CF00057310CFB0EF7B0EBC70072EB57720CFBD1
:100D000008F734BFA2EBC702B2EBC70261EB577121
:100D1000039F4FEA816141EA921104EBCC044FEA50
:100D2000D1374FEA826206FB07FC42EA90124FEA93
:100D300080604FEA1C4C0CFB0BF7D21B03FB0CF73B
:100D400061EB07010CFB0EF7B0EB074072EB1742AB
:100D50000CFB08F734BFA2EB0742B2EB074261EB92
:100D600017414FEA8C554FEA910704EB9C2406FB90
:100D700007FC4FEA1C4C0CFB0BF7B0EBC74072EBC7
:100D8000573203FB0CF734BFA2EBC742B2EBC742AA
:100D900061EB57310CFB0EF7B0EBC70072EB5772EB
:100DA0000CFB08F734BFA2EBC702B2EBC70261EB42
:100DB000577115EB4C254FEA816141EA92114FEAD8
:100DC00082624FEAD13742EA901206FB07FC44F1F7
:100DD00000044FEA80604FEA1C4C0CFB0BF7D21B5F
:100DE00003FB0CF761EB07010CFB0EF7B0EB0740C0
:100DF00072EB17420CFB08F734BFA2EB0742B2EBD1
:100E0000074261EB174115EB1C154FEA813141EAAE
:100E100092414FEA823242EA90424FEA80304FEAF2
:100E20000C7644F1000448EA03434EEA0B484FF0C5
:100E3000000EB2EB080C71EB030724BF6246394683
:100E40004EEB0E0E4FF0000B0018524149414BEB98
:100E50000B0BB2EB080C71EB03077BF1000B24BF0B
:100E6000624639464EEB0E0E4FF0000B0018524111
:100E700049414BEB0B0BB2EB080C71EB03077BF119
:100E8000000B24BF624639464EEB0E0E51EA0207B4
:100E900018BF46F0010616EB0E7655F1000254F12C
:100EA000000103D5BDE88901BDE80088BDE88901DE
:100EB000BDE80048B619524141EB0101A3F101031D
:100EC000704780807F7E7D7C7B7A797877767675B7
:100ED0007473727171706F6E6E6D6C6C6B6A6A692F
:100EE0006868676666656464636362616160605FC9
:100EF0005F5E5E5D5D5C5C5B5B5A5A595958585742
:100F000057565655555554545353525252515150A9
:100F100050504F4F4F4E4E4D4D4D4C4C4C4B4B4BFC
:100F20004A4A4A4949494848484747474746464642
:100F3000454545444444444343434342424242417D
:100F40004141002B9C4630D477002BD01CB54FEA92
:100F5000370703B44FF010004FF01001BAF1000F43
:100F600006D0BCF1000FDCBF40F0080040F00801E3
:100F70004FF000000FBCBDE810400BF1010BBBF1BE
:100F8000010F08BF5FEA170722BF12F1010211F13A
:100F900001014FF0004143F1000300F0004043EA3B
:100FA00000007047F9D35708D0E746EA064613F128
:100FB000400F4FEA16461FDD13F1200FDFBF164327
:100FC0000A46002120335B42BED0C3F1200746EA27
:100FD000064602FA07F74FEA164646EA0706C3F145
:100FE000200722FA03F201FA07F721FA03F14FF082
:100FF000000342EA0702A7E746EA020646EA064677
:101000004FEA164646EA0106BCBF46EA0646360CDB
:101010004FF000034FF000024FF0000194E72DE97C
:10102000804C9A46934670B491E8380007C831EA7C
:10103000400C48BF34EA430C03D5FFF7E6FDFFF749
:1010400080FFF0BCBDE8008C2DE9804C9A469346A9
:1010500070B491E8380007C810F0804F08BF13F053
:10106000804F03D100F005F8FFF76BFFF0BCBDE83F
:10107000008C20F07F4780EA030023F07F4C07EBD1
:101080000C03A3F57C5300F00040A3F1FE0392F0A3
:10109000000F00F0B38095F0000F00F077802DE98D
:1010A00001494FEA11404FEA144621EA004800FB8B
:1010B00006FC24EA064708FB06F607FB08F800FBD7
:1010C00007F718EB06484CEB164C4FEA124B18EB9F
:1010D00007484FEA15464CEB174022EA0B4E0BFB34
:1010E00006FC25EA06470EFB06F607FB0EFE0BFB89
:1010F00007F71EEB064E4CEB164C4FF000061EEBAE
:10110000074E4CEB174B18EB0B0840F1000018EBA7
:101110000E0B58EB000840F100008F1A4FF0000151
:101120003CBFC943661B14BFB5EB040C00213CBF98
:10113000C943F61B4FEA17444EEA8E0E27EA0445D0
:101140004FEA1C4704FB07622CEA074C05FB07F734
:101150000CFB05F604FB0CFC16EB074642EB1742B2
:1011600016EB0C4642EB1C421BEB060658EB020248
:10117000414146EA9E0601D5BDE80189B6195241B2
:1011800041EB0101A3F10103BDE801894FEA1445D8
:101190004FEA114724EA054621EA074C05FB07F40C
:1011A00006FB07F70CFB06F105FB0CFC11EB0741F6
:1011B00044EB17444FEA124711EB0C4144EB1C443B
:1011C00022EA074C05FB07F206FB07F70CFB06F6C5
:1011D00005FB0CFC16EB074642EB174216EB0C46E0
:1011E00042EB1C456A1854F1000148BF7047B6191C
:1011F000524141EB0101A3F10103704795F0000F4B
:1012000037D04FEA11424FEA144721EA024624EA56
:10121000074C02FB07F106FB07F70CFB06F402FB89
:101220000CFC14EB074441EB17414FEA154714EB54
:101230000C4441EB1C4125EA074C02FB07F506FB79
:1012400007F70CFB06F602FB0CFC16EB074645EB1A
:10125000174516EB0C4645EB1C42121951F10001E3
:1012600048BF7047B619524141EB0101A3F1010398
:1012700070474FEA14454FEA114724EA054621EA30
:10128000074C05FB07F106FB07F70CFB06F24FF0D6
:10129000000605FB0CFC12EB074241EB174112EB79
:1012A0000C4251EB1C4148BF7047921841EB0101C1
:1012B000A3F10103704700BFFEE700001CB508233F
:1012C0007E4A7F497F4800F0CDFC7D4800681628A3
:1012D00015D17A4800787C49087078484078487081
:1012E00008460088794908807448807878490870F1
:1012F0007248C0784870084600887649088070486F
:101300000068182815D16D4800786F4908706B483F
:1013100040784870084600886C49088067488078A3
:101320006B4908706548C0784870084600886A496B
:1013300008806348006840F2812188422CD1002057
:1013400005E05E49095C0DF80010411CC8B2082890
:10135000F7DB6249009888420CD161480078401C54
:101360005F4908705F4901980860084600685E4957
:10137000086076E05949891F0098884271D1584821
:101380000078401C56490870584901980860084682
:1013900000685749086064E04948006840F28221CB
:1013A00088422CD1002005E04449095C0DF800106A
:1013B000411CC8B20828F7DB4849009888420CD184
:1013C00047480078401C4649087046490198086023
:1013D000084600684449886043E04049891F0098F6
:1013E00088423ED13E480078401C3D4908703F4944
:1013F00001980860084600683D49886031E030483F
:10140000006840F2832188422BD1002005E02B495F
:10141000095C0DF80010411CC8B20828F7DB2F4901
:10142000009888420CD12E480078401C2C49087046
:101430002C4901980860084600682B49486010E074
:101440002649891F009888420BD125480078401C06
:101450002349087025490198086008460068244916
:1014600048602449174800F051F82249491C1548A2
:1014700000F04CF81F49C91C124800F047F81E49FB
:10148000104800F043F81D490E4800F03FF81C4991
:101490000C4800F03BF81A4908310A4800F036F8C9
:1014A0001849084800F032F81749064800F02EF8AD
:1014B00015490831034800F029F81CBD160000202A
:1014C0002000002000640040060000200A000020E8
:1014D000080000200E000020100000205658004098
:1014E00004000020240000204000002028000020EC
:1014F0004C0000200100F0107000F03003000012DA
:1015000008000032030000140800003400220C4BD5
:10151000994202D10023836111E0C1F3130201F06B
:1015200000730BB1C2600AE001F080630BB102618D
:1015300005E001F000630BB1826000E0426070479B
:101540007000F0302DE9F04F8BB006460F46144680
:101550001D46DDF850804FF00009CA46CB46B5F570
:10156000807F43D012DC102D34D008DC012D25D033
:10157000022D26D0042D27D0082D4FD127E0202D75
:101580002BD0402D2CD0802D48D12CE0B5F5805F9C
:1015900038D009DCB5F5007F2BD0B5F5806F2BD0A6
:1015A000B5F5006F3AD12AE0B5F5005F2DD0B5F55D
:1015B000804F2DD0B5F5004F30D12CE04FF0000911
:1015C0002DE04FF001092AE04FF0020927E04FF02B
:1015D000030924E04FF0040921E04FF005091EE063
:1015E0004FF006091BE04FF0070918E04FF008091B
:1015F00015E04FF0090912E04FF00A090FE04FF033
:101600000B090CE04FF00C0909E04FF00D0906E062
:101610004FF00E0903E04FF00F0900E000BF00BFDC
:10162000B8F5807F4BD01ADCB8F1100F3BD00CDC42
:10163000B8F1010F2BD0B8F1020F2BD0B8F1040F85
:101640002BD0B8F1080F52D12AE0B8F1200F2DD0DD
:10165000B8F1400F2DD0B8F1800F48D12CE0B8F58B
:10166000805F38D009DCB8F5007F2BD0B8F5806FEB
:101670002BD0B8F5006F3AD12AE0B8F5005F2DD035
:10168000B8F5804F2DD0B8F5004F30D12CE04FF099
:10169000000A2DE04FF0010A2AE04FF0020A27E08D
:1016A0004FF0030A24E04FF0040A21E04FF0050A4E
:1016B0001EE04FF0060A1BE04FF0070A18E04FF05B
:1016C000080A15E04FF0090A12E04FF00A0A0FE08D
:1016D0004FF00B0A0CE04FF00C0A09E04FF00D0A36
:1016E00006E04FF00E0A03E04FF00F0A00E000BFE3
:1016F00000BF7E48304418B1B0F5806F1AD10CE0BD
:101700004FF0090B00208DF8120014208DF8040012
:101710000121480600F000FD0DE04FF0090B0E20FE
:101720008DF8120040208DF804000121000500F022
:10173000F3FC00E000BF00BFC4F3090078BBA012B7
:10174000A0F580108038092834D2DFE800F0050ABF
:101750000F14191E23292E000121084600F0CCFC8D
:1017600029E00121022000F0C7FC24E0012104202F
:1017700000F0C2FC1FE00121082000F0BDFC1AE0CF
:101780000121102000F0B8FC15E00121202000F01C
:10179000B3FC10E00121402000F0AEFC0BE009E0BA
:1017A0000121802000F0A8FC05E00121080200F0E2
:1017B000A3FC00E000BF00BF5A464946204600F0A7
:1017C000CEFB5A465146204600F0C9FB45EA0800C8
:1017D000099002208DF828008DF8290000208DF84E
:1017E0002A0001208DF82B0009A9204600F06FFB8C
:1017F000304600F07DF800208DF81E008DF81F00A7
:101800008DF820008DF821008DF822008DF823003E
:101810008DF81A008DF81B000B208DF81C00072096
:101820008DF81D007D2F22D008DC0A2F0FD0142F39
:1018300011D0322F13D0642F29D114E0FA2F1AD0EF
:10184000B7F5FA7F1BD0B7F57A7F20D11BE0C8200F
:10185000ADF818001CE06420ADF8180018E028204E
:10186000ADF8180014E01420ADF8180010E01020B6
:10187000ADF818000CE00820ADF8180008E00420CE
:10188000ADF8180004E00220ADF8180000E000BF39
:1018900000BF06A9304600F0D4F800208DF81300F0
:1018A00001208DF814000020ADF80800ADF80A0002
:1018B000ADF80C00ADF80E00ADF8100001208DF869
:1018C000150002A800F030F801208DF805008DF811
:1018D00006008DF8070001A800F0C8FB01220221D4
:1018E000304600F0A5F80BB0BDE8F08F009CFFBFBC
:1018F00010B504460B48844209D10121480600F086
:101900001BFC00214FF0007000F016FC08E00121E4
:10191000880600F011FC00214FF0806000F00CFC04
:1019200010BD00000064004010B50021837A012240
:1019300002FA03F13D4A126842F001023B4B1A6081
:101940003A4A1C3212688A43384B1C331A60027BB5
:10195000CAB9364A0C3212688A43344B0C331A60C7
:101960004288C38842EA0343304A4032847A42F8CC
:1019700034300288838842EA03432C4A4032847A16
:1019800002EBC4025360027B012A19D1274A0C32B0
:1019900012680A43254B0C331A604288038842EAD6
:1019A0000343224A4032847A42F83430C288838822
:1019B00042EA03431D4A4032847A02EBC402536078
:1019C000C27A3AB9194A121D12688A43174B1B1D75
:1019D0001A6006E0154A121D12680A43134B1B1DBC
:1019E0001A60028932B9114A143212688A430F4BC5
:1019F00014331A600289012A06D10C4A1432126883
:101A00000A430A4B14331A60427B012A06D1074A63
:101A10001C3212680A43054B1C331A60034A1268D1
:101A200022F00102014B1A6010BD00000066004068
:101A30001AB143690B43436102E043698B4343613D
:101A4000704730B5024600200023146824F00204D9
:101A50001460146844F00104146000E05B1C5468D6
:101A600004F001041CB94FF6FF74A342F6D1546888
:101A700004F001040CB900206CE08C79012C04D135
:101A8000146844F08004146003E0146824F08004B7
:101A90001460CC79012C04D1146844F04004146023
:101AA00003E0146824F0400414600C7A012C04D183
:101AB000146844F02004146003E0146824F0200447
:101AC00014604C7A012C04D1146844F010041460A2
:101AD00003E0146824F0100414608C7A012C04D103
:101AE000146844F00804146003E0146824F0080447
:101AF0001460CC7A012C04D1146844F004041460FE
:101B000003E0146824F0040414608C78A407CD78F2
:101B100044EA05640D7944EA05444D7944EA0554E4
:101B20000D886D1E2C43D461146824F001041460E8
:101B3000002300E05B1C546804F001041CB14FF664
:101B4000FF74A342F6D1546804F001040CB10020E4
:101B500000E0012030BD0246002019B9D36803F02F
:101B6000030006E0012903D1136903F0030000E03C
:101B70000020704710B500F5D87303EB01131B6804
:101B800003F004031372137A53B900F5D87303EB0F
:101B900001131B6840F2FF7404EA5353136009E019
:101BA00000F5D87303EB01131B686FF0604404EA7F
:101BB000D303536000F5D87303EB01131B6803F0E4
:101BC0000203537200F5D87303EB01135B6803F053
:101BD0000F03937200F5D87303EB01135B681B0AC4
:101BE000D37400F5D87303EB01139B68D37200F52F
:101BF000D87303EB01139B681C0A147300F5D873A8
:101C000003EB01139B681C0C547300F5D87303EBB2
:101C100001139B681B0E937300F5D87303EB01133C
:101C2000DB68D37300F5D87303EB0113DB681C0A80
:101C3000147400F5D87303EB0113DB681C0C5474A7
:101C400000F5D87303EB0113DB681B0E937421B905
:101C5000C36843F02003C36003E0036943F020033B
:101C6000036110BD2DE9F04186B080460D46164651
:101C70001F46002400214046FFF76DFF18B90020E1
:101C800006B0BDE8F08101AA00214046FFF772FFCF
:101C9000002405E00DF10F00005D3055601CC4B25A
:101CA000BC42F7DB019828600120E9E710B5024645
:101CB0000020936803F08063B3F1806F00D110E0DF
:101CC000936803F00063B3F1006F01D1012008E0D5
:101CD000936803F08053B3F1805F01D1022000E0EC
:101CE0000420042874D002F5C07303EB00131B68B2
:101CF00003F0010402F5C07303EB00131C600B7AC0
:101D00007BB94B7A0C8843EA445302F5C07404EB68
:101D100000142468234302F5C07404EB001423600C
:101D200010E00B7A4C6843EAC4034C7A234302F573
:101D3000C07404EB00142468234302F5C07404EB60
:101D4000001423608B7A03F00F038B7202F5C073CB
:101D500003EB00135B6823F00F0402F5C07303EB81
:101D600000135C6002F5C07303EB00135B688C7AB0
:101D7000234302F5C07404EB001463608B7B1C06E4
:101D80004B7B44EA03440B7B44EA0323CC7A234392
:101D900002F5C07404EB0014A3608B7C1C064B7C22
:101DA00044EA03440B7C44EA0323CC7B234302F53F
:101DB000C07404EB0014E36002F5C07303EB00137E
:101DC0001B6843F0010402F5C07303EB00131C60B1
:101DD00010BD000010B50246002321B1012907D033
:101DE00002290FD109E090681D4C00EA04030BE0C2
:101DF00090681C4C00EA040306E090681A4C00EA64
:101E0000040301E0002300BF00BF184C181BA342CD
:101E100016D007DC83B16FF08060184470B10228DF
:101E200018D111E0B0F5007F10D0114C204448B11A
:101E3000B0F5003F0ED10BE002230DE000230BE0D4
:101E4000002309E0002307E0012305E0012303E06C
:101E5000012301E0002300BF00BFD8B210BD000085
:101E60000300000400030008000003100001000844
:101E70000001FFF72DE9F04385B081460D469046FD
:101E80001E4600240095019500208DF808008DF86D
:101E900009008DF80A6000BF06E018F804100DF183
:101EA0000B000155601C84B2B442F6DB694648461B
:101EB000FFF7FCFE0746002400BF39464846FFF7FF
:101EC00089FF0128F9D105B0BDE8F0837047F0B56E
:101ED0000A4600210023002400BF3DE0012505FA49
:101EE00001F3156805EA03049C4234D105684F00EC
:101EF0000326BE40B543056015794E00B54006681F
:101F0000354305601579012D02D01579022D16D1C2
:101F100085684F000326BE40B543856055794E0065
:101F2000B540866835438560456801268E40B543D7
:101F30004560456896798E40B6B235434560C568C0
:101F40004F000326BE40B543C560D5794E00B5406D
:101F5000C6683543C560491C1029BFD3F0BDF0B534
:101F6000002300244D07ED0E02FA05F3CE1000F118
:101F7000200555F826504E07F70E0F26BE40B543F4
:101F8000CF1000F1200646F82750CE1000F12005B2
:101F900055F8265045EA0304CE1000F1200545F817
:101FA0002640F0BD004870474C00002010B588B0B6
:101FB00004460121084600F09FF80121102000F09E
:101FC000CBF8072209212448FFF7C9FF07220A217D
:101FD0002148FFF7C4FF4FF4C060069002208DF83F
:101FE0001C008DF81D0000208DF81E0001208DF8CA
:101FF0001F0006A91848FFF76AFF02940020ADF8F9
:102000000C00ADF80E00ADF81000ADF814000C2077
:10201000ADF8120002A9114800F048FD40210F4818
:1020200000F0C4FC25208DF8040000208DF8050088
:1020300001208DF806008DF8070001A800F016F8C1
:10204000012240F22551054800F00BFD0121034813
:1020500000F0C4FC08B010BD0000024000100140B8
:1020600000BFFEE700BFFEE700BFFEE770B500213E
:1020700000230F22C4781CB3174C246804F4E064D6
:10208000C4F5E064C4F30721C1F10404E3B20A41DA
:1020900044789C40E1B28478144021430C07210E1F
:1020A0000E4C05786155047804F01F050124AC40FE
:1020B00005786D11AD0005F1E025C5F8004109E096
:1020C000047804F01F050124AC40054D0678761114
:1020D00045F8264070BD00000CED00E000E400E093
:1020E00080E100E002490143024A116070470000AC
:1020F0000000FA050CED00E029B1064A126802431F
:10210000044B1A6004E0034A12688243014B1A60D0
:10211000704700003038024029B1064A1268024375
:10212000044B1A6004E0034A12688243014B1A60B0
:10213000704700004038024029B1064A1268024345
:10214000044B1A6004E0034A12688243014B1A6090
:10215000704700002038024029B1064A1268024345
:10216000044B1A6004E0034A12688243014B1A6070
:102170007047000044380240F0B5002100220024DE
:10218000022500260223324F3F6807F00C0121B1DF
:10219000042905D0082937D105E02E4F076036E025
:1021A0002D4F076033E02A4F3F1F3F68C7F380562B
:1021B000274F3F1F3F6807F03F036EB1264FB7FB25
:1021C000F3F7DFF88CC0ACF1040CDCF800C0CCF302
:1021D000881C07FB0CF40CE01E4FB7FBF3F7DFF88D
:1021E00070C0ACF1040CDCF800C0CCF3881C07FB19
:1021F0000CF4174F3F1F3F68C7F301477F1C7D005A
:10220000B4FBF5F7076002E0124F076000BF00BFA4
:102210000F4F3F6807F0F0010909104F7A5C07681B
:10222000D74047600A4F3F6807F4E051890A0B4FD7
:102230007A5C4768D7408760054F3F6807F4604184
:10224000490B064F7A5C4768D740C760F0BD000075
:10225000083802400024F40000127A002D0000200B
:1022600030B587B004461F4903C9CDE9050104F51F
:1022700040700090019000208DF808008DF8090052
:1022800008208DF80A000598C0B28DF80B0005985B
:10229000010A8DF80C100598010C8DF80D100598A9
:1022A000000E8DF80E000698C1B28DF80F1006983A
:1022B000010A8DF810100698010C8DF8111006987F
:1022C000000E8DF8120069460748FFF7EFFC05463F
:1022D00000BF29460448FFF77DFD0128F9D107B06A
:1022E00030BD0000884D0008006400402DE9F04F2B
:1022F000A1B0064618211AA8FEF73AF8182114A82A
:10230000FEF736F818210EA8FEF732F8182108A8B3
:10231000FEF72EF84FF0010952E000BFD6E9044560
:10232000B9F1010F09D0B9F1020F0DD0B9F1030FC6
:102330001FD0B9F1040F40D130E000BF1AAA2046E7
:10234000294601F077F838E000224FF08043DDE9BC
:102350001E71384601F038FE824622462B4601F0B7
:1023600077FD04460D4614AA2046294601F062F87E
:1023700023E000224FF08043DDE91871384601F078
:1023800023FE824622462B4601F062FD04460D469E
:102390000EAA2046294601F04DF80EE0DDE9127341
:1023A0003A462046294601F053FD04460D4608AA48
:1023B0002046294601F03EF800BF00BF09F101099F
:1023C000B9F1050FA9DB4FF000094AE00EA800EBB8
:1023D000C900D0E90043224600204FF0804102F0BE
:1023E0005FF8CDE9000114A800EBC900D0E9007343
:1023F0003A4600204FF0804102F052F804460D4664
:102400001AA800EBC901D1E900733A4620462946D3
:1024100001F01EFD8246DDE9002301F019FDCDE942
:10242000020108A800EBC901D1E900432246DDE919
:10243000020101F00DFD4FF055320D4BCDE90401C5
:1024400002F02EF8CDE9060106EBC900D0E9004301
:102450002246069801F0FCFC06EBC90203C209F112
:102460000109B9F1030FB1DB21B0BDE8F08F000025
:102470005555C53F704700000CB5002001900090F5
:102480003448006840F480303249086000BF314869
:10249000006800F4003000900198401C0190009802
:1024A00018B90198B0F5A06FF1D12A48006800F47E
:1024B000003010B10120009001E000200090009851
:1024C000012846D123484030006840F0805021491F
:1024D000403108602048006840F480401E49086090
:1024E0001C48083000681B4908310860084600682D
:1024F00040F4004008600846006840F4A0500860BE
:102500001648091F0860081F006840F08070091F06
:10251000086000BF0F48006800F000700028F9D084
:1025200040F205600E4908600A480830006820F053
:1025300003000849083108600846006840F00200BE
:10254000086000BF03480830006800F00C0008284D
:10255000F8D10CBD0038024000700040085440071C
:10256000003C024010B51248006840F001001049DC
:10257000086000200E49083108600D4800680D49C8
:1025800008400B4908600C48091D0860081F0068D6
:1025900020F48020091F0860002005490C310860E4
:1025A000FFF76AFF4FF000600449086010BD0000AB
:1025B00000380240FFFFF6FE1030002408ED00E076
:1025C00010B50121044800F07EF8012803D1012153
:1025D000014800F069F810BD0000014070B501210C
:1025E000880700F070F801281DD10121800700F054
:1025F0005BF80D480088401C0B490880084600889D
:1026000001F0FFFE04460022084B02F047F80AD80A
:1026100007480078401C06490870002002490880DD
:1026200001200449087070BD120000200000244001
:10263000150000201400002010B50121044800F00E
:1026400042F8012803D10121014800F02DF810BD06
:102650000004004010B50121044800F034F80128BE
:1026600003D10121014800F01FF810BD000800400F
:1026700010B50121044800F026F8012803D10121FA
:10268000014800F011F810BD000C004010B5012108
:10269000044800F018F8012803D10121014800F096
:1026A00003F810BD00040140CA430282704721B103
:1026B000028842F00102028004E002884FF6FE73B5
:1026C0001A400280704730B50246002000230024E3
:1026D000158A05EA0103958905EA010413B10CB1D5
:1026E000012000E0002030BD1AB183890B438381B3
:1026F00002E083898B438381704700002DE9FF410D
:1027000004460D4616461F46DDF828806949601AC2
:102710008C4270D01ADC6849A4EB01008C426CD06A
:102720000ADCB4F1804F4ED064482044002852D0D7
:10273000B0F5806F71D156E0B0F5806F65D0B0F51F
:10274000006F6CD0B0F5406FF4D170E0B0F5923FFF
:1027500021D009DCB0F5806F7AD0B0F5644F0AD093
:10276000B0F5684F7CD10EE0B0F5943F1BD0B0F5CA
:10277000963F75D11FE001210846FFF7EDFC1920B7
:102780008DF800006DE001210220FFF7E5FC2C2010
:102790008DF8000065E001210804FFF7DDFC18203A
:1027A0008DF800005DE001211920FFF7D5FC2C20F9
:1027B0008DF8000055E001218804FFF7CDFC1A20B8
:1027C0008DF800004DE001210846FFF7A5FC1C2014
:1027D0008DF8000045E001210220FFF79DFC1D203F
:1027E0008DF800003DE001210420FFF795FC1E203C
:1027F0008DF8000035E023E0FFE701210820FFF716
:102800008BFC32208DF800002BE001211020FFF717
:1028100083FC36208DF8000023E021E0FFE7012152
:102820002020FFF779FC37208DF8000019E0012106
:102830004020FFF771FC2B208DF8000011E007E02D
:1028400001218020FFF768FC2C208DF8000008E0B3
:1028500001210802FFF760FC2D208DF8000000E048
:1028600000BF00BF0295ADF804600020ADF80C0079
:10287000ADF8060001A9204600F022F8012120460B
:10288000FFF712FF012211462046FFF72DFFF8B295
:102890008DF8010008F0FF008DF8020001208DF88E
:1028A00003006846FFF7E2FB01212046FFF7FFFE29
:1028B000BDE8FF81001C0040000C004000FCFFBF91
:1028C00000220288184B98420ED0184B98420BD029
:1028D000B0F1804F08D0164B984205D0154B984266
:1028E00002D0154B984204D14FF68F731A404B8893
:1028F0001A43124B984207D0114B984204D04FF61E
:10290000FF431A400B891A4302804B68C3620B884D
:102910000385054B984202D0044B984201D18B7A33
:1029200003860123838270470000014000040140B8
:102930000004004000080040000C0040001000406F
:102940000014004010B540F22551054800F05FF832
:10295000012804D140F22551014800F030F810BDA3
:102960000050004010B540F22551074800F04FF8E4
:10297000012805D140F22551034800F020F802E07B
:10298000014800F09DF910BD0010014010B540F263
:102990002551054800F03BF8012804D140F22551AB
:1029A000014800F00CF810BD0048004001F400722E
:1029B000B2F5007F00D100BFCA430280704710B556
:1029C0000022002340F66A14A14200D100BF0A127F
:1029D00001249440A3B2DC43048010BD21B182895C
:1029E00042F40052828104E082894DF6FF731A405E
:1029F0008281704702460020B1F5007F00D100BF00
:102A000013880B400BB1012000E00020704770B527
:102A10000246002400230025002040F66A16B14239
:102A200000D100BFC1F3421501F01F03012606FAD1
:102A300003F3012D02D19689334006E0022D02D125
:102A4000168A334001E0968A33400C12012606FABA
:102A500004F41688344013B10CB1012000E00020CA
:102A600070BDF0B50346002400260025002040F686
:102A70006A17B94200D100BF1846C1F3421401F0F1
:102A80001F06012707FA06F5012C01D10C3004E0DE
:102A9000022C01D1103000E014301AB107682F4326
:102AA000076002E00768AF430760F0BD2DE9FF470C
:102AB00005460E460024A14600BFA046B08900B1DD
:102AC00000BF2C8A24F44054F08804432C82AC8943
:102AD00041F20C608443B08831890843718908430E
:102AE0000443AC81AC8A24F44074B0890443AC82C2
:102AF0006846FFF741FB2048854202D01F488542C7
:102B000002D1DDF80C9001E0DDF80890A88900F40E
:102B1000004040B109EBC90000EB091031684900E1
:102B2000B0FBF1F707E009EBC90000EB09103168D1
:102B30008900B0FBF1F76420B7FBF0F00401200935
:102B4000642101FB1078A88900F4004040B13220D4
:102B500000EBC800B0FBF1F000F00700044308E010
:102B6000322000EB08106421B0FBF1F000F00F0000
:102B700004432C81BDE8FF87001001400014014090
:102B80000FB470B586B006460CA8019073E00B98A0
:102B900000785C281CD10B98401C0B9000786E28A4
:102BA00009D072280FD10D21304600F08EF80B9815
:102BB000401C0B900BE00A21304600F086F80B9881
:102BC000401C0B9003E00B98401C0B9000BF4BE0A7
:102BD0000B980078252840D10B98401C0B9000786A
:102BE000642818D0732833D1019810C801900BE0E5
:102BF0002178304600F069F800BF40213046FFF7E9
:102C0000F9FE0028F9D0641C20780028F0D10B9838
:102C1000401C0B9020E0019820C801900A2202A9D4
:102C2000284600F013FF02AC0BE02178304600F09C
:102C30004CF800BF40213046FFF7DCFE0028F9D0F9
:102C4000641C20780028F0D10B98401C0B9003E006
:102C50000B98401C0B9000BF06E00B9810F8011B6E
:102C60000B90304600F031F800BF40213046FFF7AE
:102C7000C1FE0028F9D00B980078002887D106B053
:102C800070BC5DF814FB000070B586B004461421DA
:102C900001A8FDF76DFB204601F0F8FE05462A4627
:102CA0000B4605A101A8FDF7E9FA01A90348FFF7C2
:102CB00067FF06B070BD00002566090000440040B3
:102CC00001468888C0F30800704730B504460D46B9
:102CD00000BF80212046FFF78DFE0028F9D080211B
:102CE0002046FFF763FE40212046FFF75FFEC5F355
:102CF0000800A08030BD00BFFEE7000010B588B01E
:102D0000044604940020ADF81400ADF81600ADF8A8
:102D10001800ADF81C000C20ADF81A00012108467F
:102D2000FFF7EAF901214804FFF7F6F9072202212B
:102D30002048FFF714F9072203211E48FFF70FF977
:102D400000208DF80A0001208DF80B0002208DF87C
:102D500008000420019002208DF8090001A91548FF
:102D6000FFF7B5F802208DF808000820019001A9AE
:102D70001048FFF7ACF804A90F48FFF797FE26208C
:102D80008DF80C0001208DF80F0000208DF80D004B
:102D90008DF80E0003A8FFF769F9002240F22551D3
:102DA0000548FFF75EFE01210348FFF717FE08B054
:102DB00010BD00000000024000440040490050EAFD
:102DC000C12018BF04204A0D18BF40F0010040F296
:102DD000FF72B2EB515F08BF40F00200012808BF4C
:102DE000052070472DE9F74F144694B00021C4E93F
:102DF00002111599079121F00045C9498D4206DC61
:102E00001599C4E9000117B00020BDE8F08FC5494D
:102E1000DFF814A3A9423CDD0799C44E0029C44F32
:102E2000C44A1599534619DD01F046FD554506D0B3
:102E3000C14AC24B01F040FDC4E900010AE04FF075
:102E4000D352BE4B01F038FD32463B4601F034FD13
:102E5000C4E9000117B00120BDE8F08F00F0F8FFD1
:102E6000554506D0B44AB54B00F0F2FFC4E9000165
:102E70000AE04FF0D352B14B00F0EAFF32463B4636
:102E800000F0E6FFC4E9000117B04FF0FF30BDE8E5
:102E9000F08FAB49A942159978DB21F000418346B8
:102EA0008846A84AA84B01F0FBFA0022A74B00F085
:102EB000CFFF01F0E1F9099001F03BFA06460F4619
:102EC0009C4A534601F0ECFA43465A4601F01CFC7A
:102ED00080468A46984A994B3046394601F0E0FAD6
:102EE0002A0D01250B924246534601F00DFC032D9D
:102EF000C4E9000139D00B98C1F30A51401A05EB1F
:102F000045111139814230DA9148C346784400EBCB
:102F10000510CDF80CA00C90D0E9002330463946BE
:102F200001F0BEFA02460B460491069058460399FA
:102F300001F0C2FC80468A4602460B465846039979
:102F400001F0BAFC049B069A01F0B6FC83460C988B
:102F500003913946D0E90223304601F0A1FA5A46DE
:102F6000039B01F0A9FC6D1CBDE707980028A2BFD8
:102F7000099817B0BDE8F08F616881F00041616089
:102F8000099817B04042BDE8F08FFFE784461598D6
:102F9000C1F31301C0F30A50A0F2F5304FEA6018F4
:102FA00000F01F06C6F12000139000200690079045
:102FB00041F4801E05206D4676B1664A08EB00019B
:102FC0007A4452F8213002EB8101B3404A681399E8
:102FD00022FA01F1194305E05F4908EB0002794448
:102FE00051F82210A1FB0E27A1FB0C131A449A42A0
:102FF00034BF0123002303EB070A05EB8003D3E969
:1030000001B70F448F4234BF0121002193448B4408
:1030100011B1934502D903E0934501D2012100E0AB
:103020000021C3E901B7514445F82010011EA0F169
:103030000100C1DC0298059F00F10050800F129042
:103040000298DDE90356800001F073F983462846B3
:103050000D9101F0D6F96FF01D0201F0C1FDCDE92F
:103060000E01304601F0CDF96FF03D0201F0B8FDE0
:1030700080468A46384601F0C4F96FF05D0201F0DF
:10308000AFFD074642465346119100F0E1FEDDE9EF
:103090000E2300F0DDFE5A460D9B00F0D9FE002500
:1030A0000E465A4628460D9B01F006FCDDE90E232C
:1030B00001F002FC4246534601F0FEFB3A46119BEA
:1030C00001F022FBDFF898A0244A534601F0E8F90A
:1030D00007468846234A244B3146284601F0E0F94A
:1030E0003A46434600F0B4FE074688464FF0A842F1
:1030F00053463146284601F0D3F93A46434600F09C
:10310000A7FE159A12F0004F04D0129A81F00041E8
:1031100052421292C4E90001129817B0BDE8F08F34
:10312000FB21E93F7CD90240FB21F93F7370032E5C
:103130008A19A33B000040543163621A61B4D03D48
:10314000FB21394183C8C96D305FE43F0000E03F97
:10315000B81E0000341E0000161E0000182D445436
:10316000FB21F93D3326A611460B113C2DE9FF4DFD
:1031700021F0004807460C46B8F1795F08DA01F003
:103180007BF8002801BF0020324904B0BDE8F08D73
:103190003A4623461046194601F082F90546024692
:1031A0002D480E460B460621784400F05DF82A466D
:1031B000334601F075F9DDE9022382468B46384635
:1031C000214601F06DF904460F4652465B462846FB
:1031D000314601F065F922463B4601F06DFB07469A
:1031E0008A464FF0FF322846314601F0F9FC1B4A6F
:1031F00090450ADA3A46534601F05EFB04B00022DD
:10320000BDE8F04D134B01F07FBA154A4245A8BF07
:10321000A8F500154FF00004B8BF124D22462B460A
:1032200001F04AFB0646884622462B460020094903
:1032300001F042FB04460D463A46534630464146AD
:1032400001F03AFB04B022462B46BDE8F04D01F0F8
:103250005BBA00000000F03FEC1B00003333D33FAB
:103260000000E93F0000D23F2DE9F0414F1E00EB86
:10327000C7010446D1E9000115461E4637F0060293
:103280000DD02A46334601F00BF97F1E04EBC7032D
:10329000D3E9002300F0DCFD37F00602F1D1022F64
:1032A00025D0042F13D0062F18BFBDE8F0812A4681
:1032B000334601F0F5F8D4E90A2300F0C9FD2A46A7
:1032C000334601F0EDF8D4E9082300F0C1FD2A46A9
:1032D000334601F0E5F8D4E9062300F0B9FD2A46AB
:1032E000334601F0DDF8D4E9042300F0B1FD2A46AD
:1032F000334601F0D5F8D4E9022300F0A9FD2A46AF
:10330000334601F0CDF8D4E90023BDE8F04100F0E8
:103310009FBD00002DE9FF4D054621F0004084B01F
:103320000C46B0F1795F0BDA2846FFF747FD042819
:1033300008BF00F06FF8284608B02146BDE8F08DC0
:103340002A460B46104601F0ABF806460F462A46C1
:10335000234601F0A5F8804626488A4632463B4679
:1033600005217844FFF780FF83461098029160B3EF
:10337000214A224B4046514601F092F8CDE9000126
:103380005A4640465146029B01F08AF882468846DA
:10339000DDE906014FF0FF3201F022FC52464346C0
:1033A00001F08AFA32463B4601F07AF8DDE906235D
:1033B00001F082FADDE9002301F07EFA08B02A4626
:1033C0002346BDE8F04D01F09FB90B465A46304602
:1033D000394601F065F8084A084B00F039FD4246CD
:1033E000534601F05DF808B02A462346BDE8F04D8B
:1033F00000F02EBD2A1B0000495555555555C5BF37
:10340000012201F0EDBB002213461046114600F0E8
:10341000DBBD0000024A0020110701F0E1BB000003
:1034200001FDFFFF0146002901DA484270470846C6
:10343000FCE700002DE9F04FA1B005460E4691468D
:1034400048210EA8FCF794FF2A4633460EA800F048
:10345000B1F9182108A8FCF78BFF002440E02C48A4
:10346000D0E904A304EB4400801C0EA901EBC000CA
:103470005246D0E90071384601F012F8CDE9060154
:103480002348D0E9027304EB4400401C0EA901EB71
:10349000C001D1E900A13A46504601F001F8CDE95A
:1034A00002011B4904EB4400D1E900730EA901EBB2
:1034B000C0003A46D0E900A1504600F0F1FFCDE946
:1034C0000001DDE9022300F0C3FCCDE90401DDE9E0
:1034D000062300F0BDFC08AA02EBC40203C2641C70
:1034E000032CBCDB00240DE008A800EBC401D1E9EB
:1034F0000071084A084B384600F0D2FF09EBC402BD
:1035000003C2641C032CEFDB21B0BDE8F08F000088
:10351000580000207B14AE47E17A843F00B5244B6D
:1035200021F0004287B09A42DCBF0022134629DD19
:10353000204B9A4208D140B94FF00100FCF747FFF9
:10354000FFF761FF07B000BD03DBFFF759FF07B0CE
:1035500000BD02AAFFF746FC10F0030104BF0DF105
:10356000080C9CE80F000DD0012001290ED0022983
:1035700014D00DF1080C00909CE80F00FFF7CAFE74
:1035800007B000BDFFF7F2FD07B000BD0DF1080C5C
:1035900000909CE80F00FFF7BDFE05E00DF1080C60
:1035A0009CE80F00FFF7E2FD07B081F0004100BD8D
:1035B000FB21E93F0000F07F2DE9F04F85B00020AE
:1035C0000290039004903648D0E90263324600200E
:1035D000014600F065FF04460D460020314900F029
:1035E000C9FB064600224FF0804300F0EDFC804608
:1035F0002B48D0E900633246404600F051FF224696
:103600002B46CDE9000100F023FC824600F0EEFBE2
:1036100002902349D1E9004322460020014600F0F0
:103620003FFF8046894600201E4900F0A3FB064666
:1036300000224FF0804300F0C7FC04461848D0E950
:1036400002633246204600F02BFF824642464B463C
:1036500001F032F9CDE9000100F0C8FB03901048F9
:10366000114A124BD0E90461304600F0ADFC8046AF
:1036700000220F4B00F014FF044600F0B7FB04904B
:103680000298FFF701FB0398FFF7FEFA0498FFF793
:10369000FBFA08A10848FFF773FA05B0BDE8F08F00
:1036A00070000020000008407A008BFCFA210940DD
:1036B000008066400D0A00000044004070B588B0EC
:1036C000064600242A4903C9CDE9060106F54070E3
:1036D0000190029000208DF80C008DF80D0008205C
:1036E0008DF80E0000BF3FE006A810F834008DF8FA
:1036F0000F0006A830F83400010A8DF8101006A853
:1037000050F83400010C8DF8111006A850F8340060
:10371000000E8DF8120006A800EBC40001798DF8A8
:10372000131006A800EBC4008088010A8DF814105D
:1037300006A800EBC4004068010C8DF8151006A81F
:1037400000EBC4004068000E8DF8160001A909487E
:10375000FEF7ACFA054600BF29460648FEF73AFBDD
:103760000128F9D1601CC4B2012CBDDB08B070BDCA
:10377000984C0008006400401CB5054903C9CDE918
:10378000000108236A4600210248FEF773FB1CBDB6
:10379000884C00080064004005480078032804D1E4
:1037A000002003490870012070470020FCE700005A
:1037B000040000202DE9F04786B0804614461D46DF
:1037C0002046294600F086FA06464FF05532624BF5
:1037D00000F066FEC8E900012046294600F07AFAAA
:1037E00006464FF055325D4B00F05AFECDE904011C
:1037F00020462946FFF792FE06460F46002058490C
:1038000000F0B8FA81F0004181460022544B00F0EC
:10381000DBFB32463B46CDE9000100F041FECDE93D
:103820000201DDE9042300F013FBC8E90201204690
:10383000294600F04FFA06464FF05532474B00F04C
:103840002FFECDE9040120462946FFF767FE064614
:103850000F460020424900F08DFA81460022404B7D
:1038600000F0B2FB32463B46CDE9000100F018FE05
:10387000CDE90201DDE9042300F0EAFAC8E9040118
:1038800020462946FFF74AFE06464FF05532354B93
:1038900000F006FEC8E9060120462946FFF73EFE75
:1038A00006464FF055322D4B00F0FAFDCDE90401EC
:1038B0002046294600F00EFA06460F460020284909
:1038C00000F058FA81F000410022254BCDE90001BB
:1038D00000F07AFB814632463B4600F0E1FDCDE93F
:1038E0000201DDE9042300F0E7FFC8E908012046F2
:1038F0002946FFF713FE06464FF05532174B00F0EE
:10390000CFFDCDE904012046294600F0E3F98146C8
:103910008A460020124900F02DFA0022104BCDE912
:10392000000100F051FB06464A46534600F0B8FD40
:10393000CDE90201DDE9042300F0BEFFC8E90A0178
:1039400009490A48C8E90C10C8E90E10C8E9101066
:1039500006B0BDE8F08700005555E5BF5555D53F89
:10396000000008405555E53F3B2B69899E98573F1D
:103970002DE9FC5F0F48007800F043FD80460E4AB9
:103980000E4B00F08DFD064600220D4B00F088FD29
:1039900004460D460B48008800F033FD824622465F
:1039A0002B4600F055FACDE9000100F095FCBDE88A
:1039B000FC9F0000150000207B14AE47E17A843F95
:1039C00000408F40120000200548017831B10020EE
:1039D000034A1070034A1070012070470020FCE772
:1039E000140000201500002008B54FF4A060FEF779
:1039F00079FB00200346532240F2E73100904FF05C
:103A00008040FEF77BFE4FF4E130FEF7CFFA4FF433
:103A1000007043100B4A4FF4FA7100900A48FDF70A
:103A200091FDFFF7A9FE0120FFF748FE0220FFF7F6
:103A300045FE0320FFF742FE4FF4E130FFF75EF949
:103A400008BD00000004024000640040F0B50346D9
:103A50000D461646002729460A2E03D0002008707E
:103A60002846F0BD33B9302001F8010B0020087062
:103A70002846F6E7002B03DA2D2001F8010B5B4204
:103A800042F210720DE093FBF2F404B937B104F185
:103A9000300001F8010B04FB123301270A2092FBCE
:103AA000F0F2002AEFDC002008702846D9E7000079
:103AB00010B5FFF799FF0EE009E000F00FF800F0F5
:103AC00001F9FFF779FDFFF753FF03490870FFF78E
:103AD0007BFF0028F1D1EFE7000000202DE9F0473F
:103AE00096B0182110A8FCF743FC18210AA8FCF78F
:103AF0003FFC1822694904A8FCF708FC0120FEF7E6
:103B0000AFFB0220FEF7ACFB0320FEF7A9FB00BFD2
:103B1000FFF742FE0028FBD0002416E0FEF742FA31
:103B200050F82400002110AA02EBC40203C25C4832
:103B3000007848B110A800EBC400D0E90010594A41
:103B400002EBC402C2E90010641C032CE6DB002077
:103B50005349087080468CE010A800EBC800D0E9FB
:103B60000010504A02EBC802D2E90032C91A60EBD9
:103B700002000AAA02EBC802C2E900100AA800EB80
:103B8000C800D0E900204FF00043D21A70F10000C5
:103B90000DDB0AA800EBC800D0E90010091E60F197
:103BA00001000AAA02EBC802C2E9001017E00AA845
:103BB00000EBC8004FF00041D0E90032C817C91A25
:103BC00090410CDB0AA800EBC800D0E90010091CEA
:103BD00040F101000AAA02EBC802C2E90010324912
:103BE00051F82800FFF71EFC02280CDC0AA951F846
:103BF0003800FFF717FC022805DC00200AAA02EBB8
:103C0000C802106050600AA850F83800264941F8F0
:103C100028000AA800EBC800D0E90021104600F0F7
:103C20009FFB06460022214B00F0CEF904460022FD
:103C30004FF0804300F034FC81461D4A1D4B00F0DC
:103C40002FFCCDE9000104A800EBC801D1E9004335
:103C50002246DDE9000100F023FC174A174BCDE9AD
:103C6000020100F0B1F9164A02EBC80203C208F1E2
:103C70000108B8F1030FFFF66FAF002008E010A9AC
:103C800001EBC00206CA074B03EBC00306C3401C8E
:103C90000328F4DB16B0BDE8F0870000704C000884
:103CA0002C00002088000020A00000200000B04070
:103CB0007A008BFCFA2109407B14AE47E17A843FFD
:103CC0005800002010B50248FEF710FB10BD0000A0
:103CD0007000002000B5254B21F0004287B09A42C9
:103CE00003DC0022134600922BE0214B9A4208D1BC
:103CF00040B94FF00100FCF76AFBFFF784FB07B007
:103D000000BD03DBFFF77CFB07B000BD02AAFFF795
:103D100069F810F003014FF001000DD0012914D013
:103D200002291AD00DF1080C9CE80F00FFF71EFACB
:103D300007B081F0004100BD0DF1080C00909CE837
:103D40000F00FFF7E7FA07B000BD0DF1080C9CE883
:103D50000F00FFF70BFA07B000BD0DF1080C009043
:103D60009CE80F00FFF7D6FAE2E70000FB21E93FED
:103D70000000F07F2DE9F04106460F4600F0D0FC30
:103D8000041E0D4618BF0120284320F00040C0F15A
:103D90007F6000F1E040C00F0ED0301C18BF012042
:103DA000384320F00040C0F17F6000F1E040C00FD8
:103DB00004BF0120FCF70BFB20462946BDE8F0813B
:103DC00010B500290AD00878002807D005487844A3
:103DD000FCF762FE002801D0002010BD02487844A4
:103DE00010BD00009E1100009611000021F000425D
:103DF000A2F16052B2F5801F01F0004328BFD2F15A
:103E00007F6C0BD95FEA001C43EAC20242EB5070A0
:103E100018BF704728BF20F001007047B2F5801F1F
:103E2000BCBF184670474FEA410C1CF5001F02D278
:103E3000084600F09CBE70B500F0DCFB0000008975
:103E4000FFF7F6BF4FF00040A0F58000704700007C
:103E500010B591EA030F48BF83F0004300F13485A9
:103E6000841A71EB030C05D2121943EB0C03001BEF
:103E700061EB0C01DFF824E14FEA1154A4EB135C71
:103E80001EEA430F18BF9EEA445F73D023EA0E0375
:103E9000DCF1200E21EA045143F4801332D322FADC
:103EA0000CFE10EB0E0023FA0CFE41EB0E01CCF1E0
:103EB000200E03FA0EFE10EB0E0051F10001B1F5D9
:103EC000801FCCF1200E32D201EB045112FA0EF217
:103ED000BDE8104058BF7047401C38BF5FEA42023F
:103EE00018BF7047002814BF20F0010041F1000105
:103EF0004FEA410313F5001F38BF7047A1F1C041DD
:103F000000F0C6BB012A43EB0302ACF1200CDCF14C
:103F10001F0E32BF4FF0000E23FA0CF310EB03001C
:103F200041EB0451B4EB115FD0D0A1EB045101F58A
:103F3000801149085FEA300001EB04510ED350F1C3
:103F4000000038BF12FA0EFE08D1BDE81040C9E7E4
:103F5000401C38BF5FEA4202CAD1C3E7BDE8104047
:103F60004FEA410313F5001F38BF7047A1F1C0416C
:103F700000F08EBB9EEA445F08D011EA5E0FBDE8F8
:103F8000104004BF01F0004100207047BDE8104020
:103F900070B500F02FFB00BF64FBBE3E0000E0FFE9
:103FA00002494FF0000000F0E9BD00BF0000F87FBB
:103FB000491058BFC1F140415B1058BFC3F14043A5
:103FC0008B42EFF3008070472DE9C04130B4DFF839
:103FD000A0C23CEA111418BF3CEA131400F0EC80B4
:103FE00081EA03051CEA111444EAD57418BF1CEADF
:103FF000131500F0C780A4EB05044FF0004545EA17
:10400000C12145EAC32341EA505143EA525304F126
:104010007F74994204F500344FEAC0204FEAC2226F
:1040200008BF904200F09C804FEA13650FF24016E3
:10403000765D4FEA134506FB05F7C7F1807706FB6F
:1040400007F74FEAD737A7FB03687642C8F58038F1
:10405000A7FB06CE38BFA8F1010807FB08E64FF022
:10406000000EA6FB028CE6FB03CEDCF1000CCEF1C9
:10407000004E38BFAEF1010EA6FB0C584FF0000702
:104080004FF00005E6FB0E87A1FB08C6A0FB07CE9C
:1040900016EB0E0645F10005E1FB076515F1E04E54
:1040A0007EBFA4F580345FEA46066D4116F18007B5
:1040B00045F100054FEA17274FEA066647EA05670C
:1040C000A6F1DE46B6F1805F4FEA15251FD93846C6
:1040D00024F0010C05EBC471BCF1FE6F01EB0C1177
:1040E00002D8F0BCBDE8008124425CBF01F5801E0F
:1040F0009EEAC47F02D4F0BCBDE80081244238D4DB
:10410000F0BCA1F1C041BDE8004100F0C1BA4FEAE6
:10411000D22242EA43524FEAD323A7FB02864FEA58
:10412000D02040EA415007FB03661EEA0E0F4FEA1B
:10413000D12105FB026658BFA6EB0056B6EB005630
:104140004FEA520E4EEAC37E18EB0E0E56EB530E9C
:10415000BDD518EB02085E417F1C55F10005B6E79E
:104160004FF480154FF000074FF000064FF00008A5
:10417000ADE7F0BC4FF0000001F1C04101F000419B
:10418000BDE8008111EA0C1F0CEA131500D00CE009
:1041900013EA0C1F00F025804FF00000F0BC81EA0C
:1041A000030101F00041BDE80081F0BCBDE8004121
:1041B00081EA030100F06CBAF0BCBDE8004170B5C3
:1041C00000F018FA097EFC3E00F007B881EA03010E
:1041D0004FF0000001F00041704781EA030100F058
:1041E00057BAF0BCBDE800414FF0000021497047CC
:1041F000FFFDFBF9F7F5F4F2F0EEEDEBE9E8E6E4AC
:10420000E3E1E0DEDDDBDAD8D7D5D4D3D1D0CFCD32
:10421000CCCBCAC8C7C6C5C4C2C1C0BFBEBDBCBB6B
:10422000BAB9B8B7B6B5B4B3B2B1B0AFAEADACAB66
:10423000AAA9A8A8A7A6A5A4A3A3A2A1A09F9F9E40
:104240009D9C9C9B9A9999989797969595949393F2
:10425000929191908F8F8E8E8D8C8C8B8B8A898989
:10426000888887878685858484838382828181800C
:104270000000FF070000F87F4FEA41034FEA535365
:10428000A3F58063D3F11E03C8BFD3F1210C0CDD6D
:104290004FF0004242EAC12242EA505232FA03FC95
:1042A0008CEAE17CACEBE1707047102BC4BF0020BE
:1042B000704703F5787CBCF1FF3F04D06FF00042FB
:1042C00082EA2100704770B500F094F94992248089
:1042D00000207047F2E700004FEA1153A3F5806316
:1042E000D3F11E03A8BFD3F1200C08DB4FF000422E
:1042F00042EAC12252EA505232FA03F070470942B0
:104300000BD4102BC4BF0020704703F5787CBCF1A0
:10431000FF3F05D04FF0FF3070474FF0000070476F
:1043200070B500F067F900BF499224800020704703
:10433000F0E710F0004248BF4042B0FA80F310FAB4
:1043400003F10AD0C3F11D0303F580634FEA415026
:1043500002EB035202EBD12170474FF0000070478F
:104360007FEAE17202D1101A62EB0101B1FA81F326
:104370000B3B24D3994012D1B0FA80F310FA03F129
:1043800008BF7047C3F11D0303F5406303EBC2236D
:104390004FEAD1224FEA415002EB03517047C3F17B
:1043A000200C20FA0CFC9840C3F1320303F5406363
:1043B00003EBC22341EA0C0101EB0351704710B536
:1043C000C3F1320CC3F10004C4F1200E0CF5406CB3
:1043D0000CEBC22201FA0EFC21FA04F100FA0EF3F2
:1043E000E040BDE8104040EA0C0001EB025138BF4C
:1043F0007047401C41F100015B0008BF20F0010044
:104400007047B0FA80F310FA03F10AD0C3F11D032C
:1044100003F580634FEA41504FEA035202EBD1218A
:1044200070474FF00000704751EA030C17D41CF599
:10443000801F58BFBCF5801F00F10680994218BF4D
:10444000704708BF9042704707D711F5801F58BFCB
:1044500013F5801F19D499427047894270471CF5A3
:10446000801F08D5BCF5801FF7D58B4218BF704759
:1044700008BF824270474FF4001C1CEB410F38BF4D
:104480001CEB430F01D28B42704770B500F0B2F8BD
:10449000922449004FF000514FF08053FFF788BD40
:1044A000DFF848C170B51CEA111E1EBF1CEA1315C7
:1044B0009EEA0C0F95EA0C0F00F06F8081EA03046E
:1044C00023EA4C134EEAD47E21EA4C1141F48011C8
:1044D00043F48013AE44A1FB024CA0FB0365AEF194
:1044E0007F7E361955EB0C05A1FB034C4CF1000304
:1044F000A0FB021C16EB0C06654153F100030942B8
:1045000018BF46F0010613F4007F0BD14FEA0331C8
:104510004FEA0530340341EA155140EA16506FF076
:1045200003020AE04FEAC3214FEAC520F40241EA40
:10453000555140EA56506FF0020202EB2E4201EB59
:10454000025585EACE710AD05FEA440C18BF24F008
:10455000004450F1000041F1000120EAD47040F223
:10456000FE7C624500D270BDA84214BF4FF080446B
:104570004FF04044002E08BF0024BEF1806FA8BF5A
:10458000A1F1C041BDE8704080F282804FF0000090
:1045900001F1C04101F0004170479EEA0C0F0CEAA6
:1045A000131518BF95EA0C0F06D04FF0000081EAF2
:1045B000030E0EF0004170BD00F01CF88900013EB2
:1045C00000F007B800F009B84FEA430C5FEA5C5C02
:1045D00008D081EA030100F05BB84FEA410C5FEAC2
:1045E0005C5CF6D14FF00000014970470000FF0706
:1045F0000000F87F0EF1020E2EF0030E5EF8046B41
:10460000364205D4012A43EB030515F5001F12D8E5
:10461000012841EB010C1CF5001F0CD80ED14FEA0C
:10462000D17C15F5001F0CEB4C0C0CF1020C08BFF3
:104630004CEBD37C04E04FF0080C01E04FEAD37C54
:104640000CEB4C0526FA05F606F00706B6F1040C4D
:1046500006D20EEB860CBDE870404CF0010C6047B2
:10466000DFE80CF0090B02024FF000414FF00000B0
:10467000A1F5002170BD19461046012851EB010437
:1046800018BFD4F5001484BF002001F0004170BDB4
:104690000808A0F500114FEA3101704753EA010CF8
:1046A00017D41CF5801F58BFBCF5801F00F1068091
:1046B0008B4218BF704708BF8242704707D713F577
:1046C000801F58BF11F5801F19D48B4270479B4241
:1046D00070471CF5801F08D5BCF5801FF7D599429F
:1046E00018BF704708BF904270474FF4001C1CEB86
:1046F000430F38BF1CEB410F01D2994270470FB4F2
:104700000CBC03BCFFF7C1BE91EA030F10B581F0EA
:1047100000413FF5A5AB83F0004300F0D5B80000A1
:104720002DE9F04101F5801CBCF5001FC0F2A98005
:104730004FEA115C21EA0C510CF1FD0C41F480119F
:104740005FEA5C0C0CF5C07C01D34000494130A409
:10475000890241EA905187028E0E0A0CA45D04FB87
:1047600004F602FB06F6C6F14046A4FB0662F60D0F
:1047700046EA422606FB06F4A4FB01235242C3F19B
:10478000404338BF5B1EA6FB02420024E6FB032425
:10479000D20B42EA4446A6FB0623A1FB02E2A3FB9E
:1047A00007E4E3FB61426442C2F1404E38BFAEF120
:1047B000010EA6FB04234FF00002E6FB0E32A2FB23
:1047C00003463400E2FB6264A1FB06E6A4FB07E8B3
:1047D000E4FB61687642C8F1405838BFA8F101088F
:1047E000A2FB06E4A3FB08E5E2FB6854A1FB05E697
:1047F000A7FB04E8E1FB648618F1200556F10006EA
:10480000A809A8F11B08B10908F03F08B8F10A0F80
:1048100040EA86601CD901EB0C51BDE8F08100BF75
:10482000FCF5EEE8E2DDD8D3CFCBC7C3C0BDB9B647
:10483000B4B1AEACA9A7A5A3A19F9D9B9A9896954C
:104840009392908F8D8C8B898887868584838281D3
:10485000A0FB006800FB01F208EB4208B8EB8728D8
:1048600007D5341858EB0104D5D5401C51F100018F
:10487000D1E7341A78EB0104CDD4401E71F1000168
:10488000C9E75FEA4C0C5FEA9C5C0DD105D34FF0A1
:10489000000001F00041BDE8F081BDE8F04170B5D5
:1048A000FFF7A8FE6DDBFFBEBDE8F0414FF0000052
:1048B000004970470000F87F10B591EA030F48BF28
:1048C00083F000433FF5CCAA841A71EB030C07D2A6
:1048D00012198CF0004C43EB0C03001B61EB0C0134
:1048E000DFF8A4E14FEA1154A4EB135C1EEA430F76
:1048F00018BF9EEA445F00F0B08023EA6E03524284
:1049000021EA0451C3EB6E0338BF5B1EDCF1200EBD
:1049100025D322FA0CFE10EB0E0043FA0CFE41EBFD
:104920000E01CCF1200E03FA0EFE10EB0E0051F139
:104930000001CCF1200E29D412FA0EF201EB045141
:10494000BDE8104058BF7047401C1CBFB2F1004F7B
:10495000704700280CBF491C20F00100704712EB83
:10496000020E43EB030218BF4FF0010E4EEA420263
:10497000ACF1200CDCF11E0E54D943FA0CFE10EB06
:104980000E0051F1FF31CCF11E0ED5D50EF1010E06
:1049900012FA0EFE404141EB010101EB445C5FEA7B
:1049A0005C5C10D910EBDE7001EB045138BFBEF136
:1049B000004FBDE8104018BF704700280CBF491CCD
:1049C00020F00100704730D24FEAD42C11F50011CD
:1049D00024F400641BD0B1FA81F20B3AA41AA41E8D
:1049E000D2F12003914030FA03F31943904001EBD8
:1049F000CC71002C01EB0451BDE81040A8BF7047FA
:104A000001F1C0414FF0000001F000417047B0FAE1
:104A100080F310FA03F100D110BDE41A173C4805E9
:104A2000C90AE4E701EB045110BD491001EB045140
:104A3000BDE810404FEA300002E04FF0000170473F
:104A40004A0008BF0042F8D0B2F5001F28BF7047E7
:104A500001F000414FF0000070479EEA445F07D02C
:104A600011EA5E0FBDE8104004BF0021002070472E
:104A7000BDE8104070B5FFF7BDFD00BF40DFF63E5A
:104A800083F00041104670470000E0FF43004FEA0A
:104A9000D30C4FEA3C0C43401FBF40070CF1605160
:104AA00013F0FE4F70471CF0006F03D100200CF094
:104AB000004170470CF0004343EA507010B540EAE3
:104AC000CC0000F00EF800BF000000924FEA000199
:104AD000FFF7DEBD4FF000414FF00000A1F50021CF
:104AE00070470EF1020E2EF0030E5EF8044B2442C6
:104AF00004D44FEA4102B2F17F4F11D84FEA40038C
:104B0000B3F17F4F0CD80ED14FEAD07CB2F17F4F7A
:104B10000CEB4C0C0CF1020C08BF4CEBD17C04E00C
:104B20004FF0080C01E04FEAD17C0CEB4C0324FA67
:104B300003F404F00704B4F1040C06D20EEB840C69
:104B4000BDE810404CF0010C6047DFE80CF00708AE
:104B500002024FF00040A0F5800010BD0846420060
:104B600018BFD2F1807288BF00F0004010BDFF2155
:104B700041EAD050C0057047FBF708BD0CF00F03A9
:104B8000092B08BF082000F059800A2B0BD0082BF6
:104B900018BF704708BF1CF0400F0AD04FF000004C
:104BA0004FF0000170471CF0400F18BF4FF000405D
:104BB00070471CF0100F08D020F0704300F07F42C7
:104BC00042EAD3014FEA4370704700F0604021F0A1
:104BD0007F4242EA000201F07F4040EA7270704773
:104BE0004FF0FF0C4CF4E06C1CEA11531CBF9CEA24
:104BF000030C9445C2BFDA4201EB02517047002B0F
:104C00000DD0BCF1000F0FD0002A01F00041A4BF6D
:104C100041F0E04141F07F614FF00000704701F04A
:104C200000414FF00000704750EA01334FF09B0CF9
:104C300018BF4CF0806C7FF4B3A970471CF4801F40
:104C400011D01CF4E02F03D06FEACC31490070473B
:104C50004FF04050EFF3008222F0704242EA00022F
:104C600082F3008870474FF000007047000000009A
:104C70000000000000004940000000000000494022
:104C8000000000000000494001000000000000009A
:104C90004D4F0000010000004D4F000000000000DB
:104CA000554D0000020000005346000000000000C7
:104CB0004D4F0000010000004143000000000000D3
:104CC00044430000000000005648020000000000BD
:104CD000564C0200000000004A5600000000000090
:104CE0004247004000000000554D00000500000054
:104CF0005346000000000000584D01000000000075
:104D0000584D0200000000004D4F0000010000005F
:104D1000414300000000000041430000000000008B
:104D20004143000000000000444300000000000078
:104D30004443000000000000444300000000000065
:104D4000535000000000000053500000000000001D
:104D5000535000000000000056480300000000000F
:104D6000564C03000000000000000000000000009E
:104D70004247004000000000555100400000000084
:104D80004951004000000000505800400000000061
:104D900056580040000000004C5555555555A53F4C
:104DA0007751C1166CC156BF9015CB19A001FA3EC0
:104DB000AD529C804F7E92BEC4B1B4BD9EEE213EEA
:104DC000D43888BEE9FAA8BD00004054FB21F93F61
:104DD0003163621A61B4D03D0000601A61B4D03D05
:104DE0007370032E8A19A33B0000002E8A19A33B7F
:104DF000C14920259A837B39000000000000000093
:104E00006E83F9A22915444ED15727FCC0DD34F535
:104E1000999562DB4190433CAB6351FE61C5BBDEBB
:104E20003A6E24B7E0D24D42EA2E49061C92D109CF
:104E30001CEB1DFE3EA729B1F53582E88444BB2E4C
:104E400026709CE9417E5FB439D69139F439538399
:104E50008B5F849C3B28F9BDFF97F81F0F9805DEF8
:104E60008B112FEF1F6D0A5ACF7E366DB709CB27F6
:104E7000663F464F2DEA5F9EC7BA27757BF1E5EB8B
:104E8000F739073DEA92528AB15FFB6B085D8D1FCF
:104E9000A6F810111111813FD561C119A0012ABFD7
:104EA0007DFEB157E31DC73EEB9C2B8AE6E55ABE5B
:104EB0007CD5CF5A3AD9E53D02400000000000A061
:104EC0000000000005400000000000C800000000D5
:104ED0000C4000000000409C000000001940000051
:104EE0000020BCBE0000000034400000BFC91B8E83
:104EF00000000004B5400000504BCFD06607E2CF61
:104F0000010000006C4100003E8251AADFEEA73490
:104F100001000000D9420000DCB5A0E23A301F9742
:104F2000FFFFFFFFB4450000FD25A0C8E9A3C14F66
:104F3000FFFFFFFFFF3F00000000008000000000B7
:104F4000FF3F00000000008000000000884F0008C4
:104F50000000002040000000C4010008C84F000805
:104F600040000020D0460000E00100081C000000C6
:104F700043000000F8FFFFFF0C0000000E000000DF
:104F80000F0000002E0000000000000000000000E4
:104F90000000000000000000000000000000000011
:104FA0000000000000000000000000000000000001
:104FB00000000000010000000001020304010203E0
:084FC0000406070809000000C7
:040000050800018965
:00000001FF
