:020000040800F2
:100000006846002025020008ED020008E50200080D
:10001000E9020008DF0200083F09000800000000B4
:10002000000000000000000000000000BD03000808
:10003000E3020008000000003B0200083D02000847
:100040003F0200083F0200083F0200083F0200088C
:100050003F0200083F0200083F0200083F0200087C
:100060003F0200083F0200083F0200083F0200086C
:100070003F0200083F0200083F0200083F0200085C
:100080003F0200083F0200083F0200083F0200084C
:100090003F0200083F0200083F0200083F0200083C
:1000A0003F020008090500083F0200083F0200085F
:1000B00025050008610500087D0500083F020008CD
:1000C0003F0200083F0200083F0200083F0200080C
:1000D0003F0200088D0800083F020008AD08000834
:1000E0003F0200083F0200083F0200083F020008EC
:1000F000B50500083F0200083F0200083F02000863
:100100003F0200083F020008990500083F0200086E
:100110003F0200086D0800083F0200083F02000887
:100120003F0200083F0200083F0200083F020008AB
:100130003F0200083F0200083F0200083F0200089B
:100140003F0200083F0200083F0200083F0200088B
:100150003F0200083F0200083F0200083F0200087B
:100160003F0200083F0200083F0200083F0200086B
:100170003F0200083F0200083F0200083F0200085B
:100180003F0200083F02000800F002F800F03AF8D1
:100190000AA090E8000C82448344AAF10107DA45E2
:1001A00001D100F02FF8AFF2090EBAE80F0013F0FA
:1001B000010F18BFFB1A43F001031847D8070000CE
:1001C000F8070000103A24BF78C878C1FAD852075F
:1001D00024BF30C830C144BF04680C6070470000C1
:1001E0000023002400250026103A28BF78C1FBD840
:1001F000520728BF30C148BF0B6070471FB51FBDF5
:1002000010B510BD00F036F81146FFF7F7FF00F00B
:10021000B6FB00F054F803B4FFF7F2FF03BC00F0A4
:1002200057F800000948804709480047FEE7FEE705
:10023000FEE7FEE7FEE7FEE7FEE7FEE7FEE7FEE796
:1002400004480549054A064B70470000AD04000804
:1002500089010008680000206846002068420020EC
:1002600068420020704770477047000000487047A0
:10027000040000207546FFF7F9FFAE460500694609
:10028000534620F00700854618B020B5FFF7D8FF89
:10029000BDE820404FF000064FF000074FF0000887
:1002A0004FF0000B21F00701AC46ACE8C009ACE808
:1002B000C009ACE8C009ACE8C0098D46704710B56C
:1002C0000446AFF300802046BDE81040FFF7A3BF0F
:1002D00001491820ABBEFEE726000200704700BFB0
:1002E000FEE7704700BFFEE700BFFEE700BFFEE786
:1002F00070B5002100230F22C4781CB3174C24686A
:1003000004F4E064C4F5E064C4F30721C1F104041B
:10031000E3B20A4144789C40E1B28478144021431E
:100320000C07210E0E4C05786155047804F01F056A
:100330000124AC4005786D11AD0005F1E025C5F84C
:10034000004109E0047804F01F050124AC40054D8C
:100350000678761145F8264070BD00000CED00E0EF
:1003600000E400E080E100E002490143024A11603C
:10037000704700000000FA050CED00E029B1064AC4
:1003800012680243044B1A6004E0034A1268824375
:10039000014B1A60704700004038024029B1064AFC
:1003A00012680243044B1A6004E0034A1268824355
:1003B000014B1A607047000044380240704700004B
:1003C0000CB50020019000903448006840F4803063
:1003D0003249086000BF3148006800F400300090E6
:1003E0000198401C0190009818B90198B0F5A06FD1
:1003F000F1D12A48006800F4003010B101200090CB
:1004000001E0002000900098012846D123484030A8
:10041000006840F080502149403108602048006861
:1004200040F480401E4908601C48083000681B49A1
:10043000083108600846006840F40040086008463B
:10044000006840F4A05008601648091F0860081FA3
:10045000006840F08070091F086000BF0F48006806
:1004600000F000700028F9D040F205600E490860E5
:100470000A480830006820F0030008490831086085
:100480000846006840F00200086000BF03480830DA
:10049000006800F00C000828F8D10CBD00380240BC
:1004A0000070004008544007003C024010B512485C
:1004B000006840F001001049086000200E49083132
:1004C00008600D4800680D4908400B4908600C4859
:1004D000091D0860081F006820F48020091F0860BB
:1004E000002005490C310860FFF76AFF4FF00060FB
:1004F0000449086010BD000000380240FFFFF6FE0E
:100500001030002408ED00E010B50121044800F08F
:100510006EF8012803D10121014800F059F810BDFF
:100520000000014010B50121880700F060F80128A3
:1005300011D10121800700F04BF807480088401CCA
:100540000549088008460088012804DB002008804F
:1005500001200249087010BD0000002002000020A8
:1005600010B50121044800F042F8012803D101210F
:10057000014800F02DF810BD0004004010B5012125
:10058000044800F034F8012803D10121014800F0AB
:100590001FF810BD0008004010B50121044800F00C
:1005A00026F8012803D10121014800F011F810BDFF
:1005B000000C004010B50121044800F018F8012893
:1005C00003D10121014800F003F810BD00040140EF
:1005D000CA430282704721B1028842F001020280C0
:1005E00004E002884FF6FE731A400280704730B56F
:1005F0000246002000230024158A05EA010395899C
:1006000005EA010413B10CB1012000E0002030BD67
:100610001AB183890B43838102E083898B438381F1
:10062000704700002DE9FF4104460D4616461F465F
:10063000DDF828806949601A8C4270D01ADC68495C
:10064000A4EB01008C426CD00ADCB4F1804F4ED098
:1006500064482044002852D0B0F5806F71D156E034
:10066000B0F5806F65D0B0F5006F6CD0B0F5406F1D
:10067000F4D170E0B0F5923F21D009DCB0F5806F85
:100680007AD0B0F5644F0AD0B0F5684F7CD10EE057
:10069000B0F5943F1BD0B0F5963F75D11FE0012116
:1006A0000846FFF77BFE19208DF800006DE0012160
:1006B0000220FFF773FE2C208DF8000065E0012179
:1006C0000804FFF76BFE18208DF800005DE00121A3
:1006D0001920FFF763FE2C208DF8000055E0012162
:1006E0008804FFF75BFE1A208DF800004DE0012121
:1006F0000846FFF743FE1C208DF8000045E001216D
:100700000220FFF73BFE1D208DF800003DE0012197
:100710000420FFF733FE1E208DF8000035E023E0B3
:10072000FFE701210820FFF729FE32208DF80000A5
:100730002BE001211020FFF721FE36208DF800006C
:1007400023E021E0FFE701212020FFF717FE3720FB
:100750008DF8000019E001214020FFF70FFE2B204B
:100760008DF8000011E007E001218020FFF706FE70
:100770002C208DF8000008E001210802FFF7FEFDA3
:100780002D208DF8000000E000BF00BF0295ADF8FD
:1007900004600020ADF80C00ADF8060001A9204669
:1007A00000F022F801212046FFF712FF0122114636
:1007B0002046FFF72DFFF8B28DF8010008F0FF008A
:1007C0008DF8020001208DF803006846FFF790FDC8
:1007D00001212046FFF7FFFEBDE8FF81001C00401D
:1007E000000C004000FCFFBF00220288184B98421A
:1007F0000ED0184B98420BD0B0F1804F08D0164B5A
:10080000984205D0154B984202D0154B984204D11E
:100810004FF68F731A404B881A43124B984207D0F9
:10082000114B984204D04FF6FF431A400B891A43EC
:1008300002804B68C3620B880385054B984202D047
:10084000044B984201D18B7A03860123838270473F
:100850000000014000040140000400400008004086
:10086000000C0040001000400014004010B540F2A1
:100870002551054800F039F8012804D140F22551EE
:10088000014800F023F810BD0050004010B540F2C0
:100890002551054800F029F8012804D140F22551DE
:1008A000014800F013F810BD0010014010B540F2EF
:1008B0002551054800F019F8012804D140F22551CE
:1008C000014800F003F810BD0048004010B50022B8
:1008D000002340F66A14A14200D100BF0A1201248D
:1008E0009440A3B2DC43048010BD70B502460024DE
:1008F00000230025002040F66A16B14200D100BF57
:10090000C1F3421501F01F03012606FA03F3012D7E
:1009100002D19689334006E0022D02D1168A334077
:1009200001E0968A33400C12012606FA04F4168878
:10093000344013B10CB1012000E0002070BD00BFB5
:10094000FEE700000448017821B10020024A10703F
:10095000012070470020FCE70200002008B54FF49A
:10096000A060FFF701FD0020034640F2473240F24D
:10097000E73100904FF08040FFF754FE08BD10B5FE
:10098000FFF7ECFF04E000BFFFF7DCFF0028FBD11E
:10099000F9E70000B409000800000020040000008E
:1009A000C4010008B80900080400002064460000E3
:0809B000E00100080000000056
:040000050800018965
:00000001FF
