:020000040800F2
:10000000F84600204D020008612B0008592B00081B
:100010005D2B0008491F00087F3A0008000000001F
:10002000000000000000000000000000052E000895
:10003000752A00080000000063020008650200083D
:1000400067020008670200086702000867020008EC
:1000500067020008670200086702000867020008DC
:1000600067020008670200086702000867020008CC
:1000700067020008670200086702000867020008BC
:1000800067020008670200086702000867020008AC
:100090004D1F000867020008670200086702000899
:1000A00067020008752F0008670200086702000851
:1000B000912F0008DD2F0008F92F000867020008C3
:1000C000670200086702000867020008670200086C
:1000D000670200080135000867020008670200088F
:1000E000670200086702000867020008670200084C
:1000F0003130000867020008670200086702000844
:10010000670200086702000815300008670200084F
:1001100067020008E9320008670200086702000869
:10012000670200086702000867020008670200080B
:1001300067020008670200086702000867020008FB
:1001400067020008670200086702000867020008EB
:1001500067020008670200086702000867020008DB
:1001600067020008670200086702000867020008CB
:1001700067020008670200086702000867020008BB
:10018000670200086702000800F002F800F04FF86C
:100190000AA090E8000C82448344AAF10107DA45E2
:1001A00001D100F044F8AFF2090EBAE80F0013F0E5
:1001B000010F18BFFB1A43F001031847284C000039
:1001C000484C0000103A24BF78C878C1FAD85207CA
:1001D00024BF30C830C144BF04680C6070470000C1
:1001E0000023002400250026103A28BF78C1FBD840
:1001F000520728BF30C148BF0B607047662904F022
:100200009E84002070471FB504F08FFC00F08EFB29
:1002100004000020002104F035F8401C606000203C
:10022000002104F019F8E0601FBD10B510BD00F00A
:10023000A5FC1146FFF7E7FF03F058FF00F01EFF93
:1002400003B4FFF7F2FF03BC00F062FF09488047E8
:1002500009480047FEE7FEE7FEE7FEE7FEE7FEE7A8
:10026000FEE7FEE7FEE7FEE704480549054A064BC0
:10027000704700000D2F000889010008F8000020D9
:10028000F8460020F8420020F84200200FB41CB5C8
:10029000074B06AA7B4469460090059800F0DBFAFC
:1002A0000020694600F0EAFA1CBC5DF814FB00006F
:1002B000E50500002DE9F0410E46044600202062CD
:1002C0002046E168884730B3252805D0D4E90121CC
:1002D0009047206A401CF2E7E168204600278847E3
:1002E000050018D0A5F14100192802D820354FF497
:1002F00000673246294620462760FFF77FFF40B15E
:10030000012804D0F61D26F007060836D8E7361D6A
:10031000D6E72846DAE7206ABDE8F08140EA010323
:1003200070B59B072ED14FF00136042A2AD308C896
:1003300010C99D1B9D43121F15EAC61517D0D8B2D0
:10034000E1B2401A50EA056110D198B2A1B2401A48
:1003500050EA05410AD123F07F4024F07F41401A42
:1003600050EA052102D1180EA0EB146070BDA34223
:10037000DBD018BA21BA884201D9012070BD4FF0F4
:10038000FF3070BD0AB9002070BD10F8013B11F8B4
:10039000014B63B1A3420AD1521E08D010F8013BB1
:1003A00011F8014B1BB1A34201D1521EEDD1181B14
:1003B00070BD10B5203AC0F00B80B1E81850203A5B
:1003C000A0E81850B1E81850A0E81850BFF4F5AFF5
:1003D0005FEA027C24BFB1E81850A0E8185044BF7F
:1003E00018C918C0BDE810405FEA827C24BF51F8EC
:1003F000043B40F8043B08BF7047D20728BF31F8E0
:10040000023B48BF11F8012B28BF20F8023B48BF30
:1004100000F8012B704770477047704710B500F027
:1004200089FA006810BD10B5044600F083FA046034
:1004300010BD70472DE9FF4F0C461E464FF0FF37A9
:100440008BB0D2E90001DDF860800A908A46C1F3E2
:100450000A5505B93D46002108464FF00000BAF1A3
:10046000000F00F4400005DA00EB80004FF440017B
:1004700001EA50004FEA9059B9F1010F00DDB94689
:100480000A9850EA4A000ED044F61050A5F2FF3503
:1004900045432F14B8F1000F1ED07542291E1EDDF2
:1004A000C9F100021CE0B8F1010F4FF0000001D0CB
:1004B000302103E0F24305E02154401CB042FBDB55
:1004C00030460022002121540B99C1F80880C1E96F
:1004D00000200FB0BDE8F08FBD1B6D1CDEE74A4663
:1004E00000DA694206A800F0D7FA06AB93E80700E5
:1004F00003AB83E8070050460A9901F05CF88DE8E9
:100500000700A0F500501F3800900398002D09DD6A
:1005100042F21F014A46084403A90390684601F0CD
:10052000E6FA08E0A0F500504A461F3803A90390F8
:10053000684601F004FB8DE807000004000C03D0BE
:100540004FF0FF30410800E01046B8F1000F03D033
:100550000022009215461EE0751E05D400F0EEF94B
:10056000303262556D1EF9D5B3460122084302D0E0
:1005700000227F1C04E02078302801D100227F1E59
:10058000002A099786D01DE0112D07DA00F0D6F970
:10059000303262556D1C50EA0102F5D1084302D099
:1005A0000098C8B10EE00021681E05E0235C625C83
:1005B00063542254401E491C8142F7DBAB46A81B02
:1005C000401E0990002004F80B000B98099AC0F80F
:1005D0000880C0E9002B7CE711264FF0000859E79E
:1005E0002DE9F04F88460446D21D22F0070191B054
:1005F000D1E90001CDE90A0103F010FB02460B9896
:10060000C00F01D02D2007E02068810701D52B20E5
:1006100002E0202101EAC000032A099001D0072A44
:1006200005DB03464146204600F0D6F90BE1207871
:10063000800601D5E06900E00620B8F1650F81462B
:1006400006D0B8F1660F18D0B8F1670F70D131E05D
:100650000020B9F1110F009001DB112301E009F135
:1006600001030AAA01A90CA8FFF7E4FEDDE90C705A
:10067000002609F10105834647E001204B46009022
:100680004FF000470AAA01A90CA8FFF7D3FEDDE945
:100690000DB00C995D46002610B909F101000D1846
:1006A000B9EB050003D4C0F1FF3609F10105A5EB54
:1006B00009002BE0B9F1010F01DA4FF00109002028
:1006C000B9F1110F0090484601DD112300E0034607
:1006D0000AAA01A90CA8FFF7ADFEDDE90C704D4692
:1006E00000268346207800070AD4AB4500DA5D4631
:1006F00001A8012D04DD411911F8011C302907D092
:100700004F4502DA17F1040F04DA012082460FE0A8
:100710006D1EEEE7002F02DCED1B3E4403E0781C6B
:10072000A84200DD7D1CB81B00F1010A4FF0004714
:100730002078000703D4AA4501DB4FF0FF3A0021DF
:10074000B7F1004F0DF143088DF8431024D002207B
:100750002B23002F01DA7F422D230A21021EA0F154
:10076000010000DC5FB197FBF1FC97FBF1F201FBAC
:100770001C7C17460CF1300C08F801CDEEE7A8F10F
:10078000010003702188090501D5452100E065219C
:10079000A0F1010800F8011C09980FA9A1EB0807B6
:1007A000FF1D00B10120411901EBEA70A169384435
:1007B000081A401EA0612078C00602D42046AFF37C
:1007C0000080099828B1D4E901219047206A401C93
:1007D00020622078C00622D52046AFF300801EE0BC
:1007E000002E04DBB34502DD01A8805D00E030206F
:1007F000D4E901219047206A401C2062761CAAF1AE
:1008000001005FEA000A0AD100F090F8C0680168B0
:10081000405CD4E901219047206A401C2062281ED8
:10082000A5F10105DCDC07E0D4E9012118F8010B92
:100830009047206A401C2062381EA7F10107F3DCB4
:100840002046AFF30080032011B043E601694A1C43
:1008500002610878704700B58FB0CDE90131002101
:10086000059105497944CDE9031011466846FFF723
:1008700021FD0FB000BD0000E5FFFFFF0A6802F890
:10088000010B0A60704700000FB4002300B589B067
:100890000CA900910B99CB60214B7B440693214B13
:1008A0007B44079304236FF00042CDE901321E4AD6
:1008B0007A446B4608920246002004F0A2F909B07F
:1008C0005DF814FB70B506464FF0FF3015460C4638
:1008D000324686B00091CDE90101694600200490BE
:1008E00004A8FFF7D1FF02460498211825B108B1EA
:1008F000084600E020462860049800280DD0002A11
:1009000002DD0098884208D03246081B69460094F0
:10091000CDE9010404A8FFF7B7FF06B070BD0000E1
:10092000BB010000D3010000130100000048704724
:10093000B4000020004870479400002030B5B0F1AA
:100940000A024FEA900E71F100034EEA817EB0EB8D
:100950000E0061EB91014FEA101E4EEA017E10EB92
:100960000E0041EB11114FEA102E4EEA016E10EB12
:100970000E0041EB11214FEA104E4EEA014E10EBF2
:100980000E0041EB1141401841F100014FEAD00047
:1009900040EA41704FEAD10110EB80054FEA810433
:1009A00044EA907444EB01046D1944EB0404521BB7
:1009B000A3414FF0000348BF0A3200D530BD401CB0
:1009C00041F1000130BD10B5044600F0FDF80068AB
:1009D000005D00F0010010BD2DE9F0411F46044606
:1009E00003260168072A01F4006004DB08B116A59C
:1009F00005E016A503E008B115A500E015A521F056
:100A000010002060A069C01EA0610FB1401EA0614F
:100A10002046AFF300804FB1D4E90121384690471A
:100A2000206A401C2062C01C206206E0206AFAE7AF
:100A3000D4E9012115F8010B9047761EF8D2204623
:100A4000AFF30080BDE8F0814E414E006E616E0054
:100A5000494E4600696E6600426842B1016811F86D
:100A6000013B23B1521EC0E9001218467047012114
:100A7000C160881E704742685AB1C368016843B9B3
:100A800083688B4205D0491E521CC0E90012002029
:100A900070474FF0FF3070472DE9F047814616460A
:100AA0008AB0334878440DC88DE80D00304878444A
:100AB000801C03AC0DC884E80D0041F69B3008444F
:100AC000372190FBF1F290FBF1F5A5F1800501FBD8
:100AD00012041B3C02D56442012000E00020DFF834
:100AE00090A080460027FA44AAF1BE0A0DE0E00774
:100AF00009D03246684607EB47010AEB810101F055
:100B00001EF88DE8070064107F1C002CEFD1184FF1
:100B10007F44AC3F18E0E80714D007EB04100DF158
:100B2000180A90E80E008AE80E00C068F04201D171
:100B300098190890324606A903A801F000F803AB03
:100B400083E807006D10641C002DE4D1324669462D
:100B5000B8F1000F03A802D000F0C9FF01E000F0D7
:100B6000EEFFC9E90001C9F808200AB0BDE8F08726
:100B70002443000000487047940000207546FFF7AA
:100B8000F9FFAE4605006946534620F0070085464A
:100B900018B020B5FFF768FBBDE820404FF0000615
:100BA0004FF000074FF000084FF0000B21F0070155
:100BB000AC46ACE8C009ACE8C009ACE8C009ACE898
:100BC000C0098D467047000010B5FFF7AFFE001D4D
:100BD00010BD00BFB13600002DE9FF4F064689B0B9
:100BE0000878FF2806D0491C2D2805D000244FF096
:100BF000000908E000200CE00124F8E709EB890374
:100C0000491C00EB43090878FF28F7D114B1C9F15A
:100C100000008146107800252C46AA4629462D283A
:100C200001D02B2804D1521C2D2813D0002082463D
:100C30008B461078FF280FD04FF0000C0A21521C71
:100C4000A5FB017804FB018105FB0C11C5194BEBD9
:100C50000104EEE70120EAE7002108464FF000001A
:100C6000BAF1000F02D000EB80004008C0F38158B9
:100C7000B8F1010F01DD4FF0FF380C9809EB0007C8
:100C800055EA040009D04FF0020917F5FA7F0BDA94
:100C90004FEACA70C6E900B012E04FEACA70C6E96E
:100CA00000B00DB0BDE8F08FB7F5FA7F0DDDF0486C
:100CB0007844D0E90010C6E9001040EACA707060BC
:100CC000FFF738FEC0F80090EBE7391E02DAC8F1F2
:100CD000000200E0424600DA794206A8FFF7DCFE97
:100CE00006AB93E8070003AB83E8070044F23E003D
:100CF0005BEA04010090584604D144F21E012C46E0
:100D00005D460091210C0904014306D10099240499
:100D100044EA15442D041039009104F07F41014349
:100D200006D10099240244EA15642D020839009185
:100D300004F07041014306D10099240144EA15747E
:100D40002D01091F009104F04041014306D1009993
:100D5000A40044EA9574AD00891E009104F000419E
:100D6000084304D100986D196441401E009042462A
:100D70006846002FCDE9014503A902DD00F0F3FE2E
:100D800001E000F0C8FEBAF1000F04460D4601D0A4
:100D900084F0004440F2FF7724F00040284303D061
:100DA000C4F30A50B84212D1FFF7C4FDC0F8009056
:100DB000C4F30A50B8420AD1AE487844D0E90010D2
:100DC000C6E9001004F000410843706069E7C6E915
:100DD000005466E72DE9FF4F1F464FF0000A4FF021
:100DE000FF38454691B0D7E90146CDF83CA0FFF762
:100DF0009DFDC0680168405C1090B96912986D1C37
:100E00008847396A814688470028F6D1B9F1FF3F03
:100E10000AD0002E24F4D06411DDB9F12B0F08D0D4
:100E2000B9F12D0F0BD102E0404615B03AE744F47A
:100E30008064B96912986D1C8847761E81466005EA
:100E400004A901D52D2000E02B20002E01F1010B7B
:100E50000DF130088DF810003FDDB9F1690F08D0B1
:100E6000B9F1490F05D0B9F16E0F02D0B9F14E0FAB
:100E70001CD13B4601A8009580E85002DDE9121222
:100E80006FF0020003F0C1FEC11CCED10EE0B969C3
:100E900012986D1C884781461398761E44F400749E
:100EA00005600F98401C002E0F9016DDB9F1300F31
:100EB000EDD0B9F1780F02D0B9F1580F0DD10F98DC
:100EC00001280AD13B46CDE90054DDE91212001F8A
:100ED000029603F098FEC11CA7D1109989453ED116
:100EE00044F0800406E01399681CAAF1010A44F456
:100EF00000740860B9696D1C1298761E8847302806
:100F00008146F0D02BE01099894505D1200603D405
:100F1000761E44F0800418E0484602F0AFFF08B3A4
:100F2000761E0DF123018B4544F4007408D2A9F11B
:100F300030000BF8010B200607D5AAF1010003E0F1
:100F4000200602D40AF101008246A00502D51399B9
:100F5000681C0860B96912986D1C88478146002E8C
:100F6000D1DC53E0002E51DDB9F1650F02D0B9F1AB
:100F7000450F4BD1A00549D5B9696D1C1298761E55
:100F800024F440748847002E81460CDD2B2804D0C1
:100F9000B9F12D0F07D144F48074B96912986D1C12
:100FA0008847761E8146E00501D52D2100E02B21E2
:100FB00008F8011BCDF8008021E0761E0DF1390103
:100FC000884544F400740CD2A9F1300010F0FF0001
:100FD00088F8000002D10099884509D908F1010874
:100FE00006E0E00501D5244801E042F20F70824698
:100FF000B96912986D1C8847814613980560002EC8
:1010000004DD484602F03AFF0028D6D1F96912986B
:101010008847FF2053468BF8000088F80000002026
:101020000A900B9004AA0CA90AA8FFF7D5FDA00509
:1010300002D46FF00100F8E614F0240F0AD0E007A4
:1010400014D13868DDE90A12031D3B600068C0E96D
:1010500000120BE00AA9684602F0AAFEE00705D1DB
:101060003868009A011D3960006802602846DCE695
:101070005041000046400000F1D8FFFF10B5044683
:10108000AFF300802046BDE81040FFF7D9B800005C
:101090004FF0013C50F8042B51F8043B9A4221D107
:1010A000A2EB0C03934313EACC1317D150F8042B93
:1010B00051F8043B9A4215D1A2EB0C03934313EA77
:1010C000CC130BD150F8042B51F8043B9A4209D1B0
:1010D000A2EB0C03934313EACC13DBD04FF00000D8
:1010E000704700BFD01A01BAB1FA81F101F01801BE
:1010F00022FA01F0CB40C1F12001DBB2C0B2C01A2C
:101100002CFA01F3D11A914311EAC311E6D17047C9
:1011100001491820ABBEFEE7260002007047000020
:101120002DE9FF4F1F464FF03C0987B04FF00042BA
:10113000DDE9141001F10108DDF858A002EA405081
:101140000390002005908346054604460490B96943
:10115000461E08988847AAF1010A0290BAF1000FCA
:101160003BDD02982E2815D0102100F016FA002839
:101170002EDB4FF0010B0599014317D0B9F1000F99
:101180000BDB4A46C11700F0F5F905430C43A9F102
:10119000040905E0012004900BE008B145F00105C9
:1011A00001200590049820B9361D02E0049800B192
:1011B000361FB969089808F101088847BBF1000F8C
:1011C000AAF1010A0290C9D00999C1F80080C5E7C7
:1011D0000298702808D0502806D0F96908988847E6
:1011E000BBF1000F14D04FE0002002900120BBF1B2
:1011F000000F049009D0B969089808F101088847E0
:10120000AAF10109B9F1000F07DCF96908988847CC
:101210006FF001000BB0BDE8F08F2B2804D02D2813
:101220000CD14FF0FF300490B969089808F101081B
:101230008847A9F10109B9F1000FE6DD411CE4D0AE
:101240000A2100F0AAF90028DFDB029908F1010861
:1012500001EB810100EB41000290B96908988847D1
:101260000A2100F09AF9099AA9F10109B9F1000FD0
:10127000C2F8008001DD0028E7DAF969089888479C
:101280000499029800FB016655EA040004D004F0BA
:101290004041090002D006E0039898E0A40044EA27
:1012A0009574AD00B61E04F00041080002D16D191E
:1012B0006441761E159810F0240F03D04FF00B09EF
:1012C0005C4803E04FF028096FF07D0082465645E8
:1012D00007DAAAEB06018944B9F1410F01DD4FF0AD
:1012E000410901200021A9F1010200F043F9024661
:1012F00028400B462140084301D0012100E0002195
:10130000501E029143F1FF3128402140084301D093
:10131000012000E000200299834651EA0B014FD0E2
:10132000002108464FF00000039900F4400039B155
:1013300000EB80004FF4400100EBD07001EA600048
:101340008015012802DD4FF0FF3000E013D0401C73
:1013500036D0029860B3BBF1000F0CD14A46012091
:10136000002100F007F928402140084301D0012066
:1013700000E00020E0B101204A46002100F0FAF828
:10138000034640190A4661412D1A8C4111D3B9F127
:10139000400F09DD159810F0240F02D0AAF1340691
:1013A00003E0AAF1170600E0761C00254FF0004488
:1013B00006E05B1E42F1FF3220EA030521EA020447
:1013C000CAF10100B04206DA1B49039808430190B4
:1013D000002000900EE0039AC4F3D321E80A0A43E8
:1013E000164940EA44500A433146CDE900026846B6
:1013F00002F03AFD159810F0240F0BD01598C00795
:1014000015D13868DDE90012031D3B600068C0E9B2
:1014100000120CE002A8694602F0CAFC1598C00749
:1014200005D13868029A011D3960006802604046A3
:10143000F0E6000002FCFFFF0000F07F0000F03F3C
:101440002DE9FF4F92461D4685B04FF00041DDE982
:10145000124BDDE914727F1E01EA4B50414940F006
:10146000FF4940EA0108002122F0200049280491A8
:1014700002D04E2828D04CE03BA0012607C88DE8BA
:101480000700A9690698641C88477F1E014606D498
:101490001DF8060018B121F0200181420BD0E96946
:1014A00006988847032E34D0082E32D06FF0010002
:1014B00009B0BDE8F08F761C032E01D0082EE0D1D4
:1014C000601CCAF80000DCE7A9690698641C88471C
:1014D0007F1E2AD420F02000412826D1A969069831
:1014E000641C88477F1E20D420F020004E281CD189
:1014F000A9690698641C88477F1E48F4002849F4AF
:101500008009CAF8004001D4282806D0E969069865
:1015100088475FEACB7012D022E0A9690698641C64
:1015200088477F1E01D4002803DAE96906988847B6
:10153000BCE72928F1D1641CCAF80040E9E71BF098
:10154000240F07D028680499031D2B600068C0E9A8
:10155000001805E02868021D2A600068C0F80090A5
:101560002046A5E70000F07F494E46494E495459B0
:1015700000000000B2F120030AD5C2F1200301FAF5
:1015800002F120FA03F300FA02F041EA0301704786
:1015900000FA03F14FF0000070473A2800D23038CB
:1015A00020F02002412A01D3A2F13700884201D362
:1015B0004FF0FF3070475FEA400C08BF91F0000F1A
:1015C0004FEA8C234FEAC12243EA51514FEA1C50A3
:1015D00018BF00F5F0404FEA300018BF41F000415D
:1015E0005FEA6C5C00F02980BCF1FF3F08BF40F06F
:1015F00080407047130C06BF12044FF0100C4FF0E0
:10160000000C130E04BF12020CF1080C130F04BFE0
:1016100012010CF1040C930F04BF92000CF1020CA8
:10162000D30F04BF52000CF1010C11464FF0000221
:10163000A0F11F00A0EB0C00704711F0004F08BF95
:10164000704731F000413FF4D5AF0B0C06BF0904E1
:101650004FF0100C4FF0000C0B0E04BF09020CF100
:10166000080C0B0F04BF09010CF1040C8B0F04BF15
:1016700089000CF1020CCB0F04BF49000CF1010CE6
:10168000CCF12003A0EB0C0022FA03F302FA0CF2D7
:1016900041EA030100F10100704720F07F4C80EA2D
:1016A000030023F07F47ACEB070303F57C5300F006
:1016B000004003F1FF032DE980494FEA154B09B4BF
:1016C0004FEA144325EA0B4E24EA03480FF204269E
:1016D00006EB132749083E785FEA320203FB0667F0
:1016E000C7F5000707FB06F64FEA54374FEAD64620
:1016F00006F1020607FB066CCCF1005C4FEA1C47C2
:101700002CEA074C07FB06F40CFB06F504EB154628
:101710004FEA961634BF00204FF000404FEAD13711
:1017200006FB07FC4FEA1C4C0CFB0BF7D21B03FB20
:101730000CF761EB07010CFB0EF7B0EB074072EB07
:1017400017420CFB08F734BFA2EB0742B2EB07428B
:1017500061EB17414FEA0C444FEA910706FB07FC87
:101760004FEA1C4C0CFB0BF7B0EBC74072EB573247
:1017700003FB0CF734BFA2EBC742B2EBC74261EBED
:1017800057310CFB0EF7B0EBC70072EB57720CFB36
:1017900008F734BFA2EBC702B2EBC70261EB577187
:1017A000039F4FEA816141EA921104EBCC044FEAB6
:1017B000D1374FEA826206FB07FC42EA90124FEAF9
:1017C00080604FEA1C4C0CFB0BF7D21B03FB0CF7A1
:1017D00061EB07010CFB0EF7B0EB074072EB174211
:1017E0000CFB08F734BFA2EB0742B2EB074261EBF8
:1017F00017414FEA8C554FEA910704EB9C2406FBF6
:1018000007FC4FEA1C4C0CFB0BF7B0EBC74072EB2C
:10181000573203FB0CF734BFA2EBC742B2EBC7420F
:1018200061EB57310CFB0EF7B0EBC70072EB577250
:101830000CFB08F734BFA2EBC702B2EBC70261EBA7
:10184000577115EB4C254FEA816141EA92114FEA3D
:1018500082624FEAD13742EA901206FB07FC44F15C
:1018600000044FEA80604FEA1C4C0CFB0BF7D21BC4
:1018700003FB0CF761EB07010CFB0EF7B0EB074025
:1018800072EB17420CFB08F734BFA2EB0742B2EB36
:10189000074261EB174115EB1C154FEA813141EA14
:1018A00092414FEA823242EA90424FEA80304FEA58
:1018B0000C7644F1000448EA03434EEA0B484FF02B
:1018C000000EB2EB080C71EB030724BF62463946E9
:1018D0004EEB0E0E4FF0000B0018524149414BEBFE
:1018E0000B0BB2EB080C71EB03077BF1000B24BF71
:1018F000624639464EEB0E0E4FF0000B0018524177
:1019000049414BEB0B0BB2EB080C71EB03077BF17E
:10191000000B24BF624639464EEB0E0E51EA020719
:1019200018BF46F0010616EB0E7655F1000254F191
:10193000000103D5BDE88901BDE80088BDE8890143
:10194000BDE80048B619524141EB0101A3F1010382
:10195000704780807F7E7D7C7B7A7978777676751C
:101960007473727171706F6E6E6D6C6C6B6A6A6994
:101970006868676666656464636362616160605F2E
:101980005F5E5E5D5D5C5C5B5B5A5A5959585857A7
:10199000575656555555545453535252525151500F
:1019A00050504F4F4F4E4E4D4D4D4C4C4C4B4B4B62
:1019B0004A4A4A49494948484847474747464646A8
:1019C00045454544444444434343434242424241E3
:1019D0004141000046EA0646A3F570534FEA164619
:1019E00046EA42564FEAD22242EA415210B54FEA45
:1019F000D121A3F1010300F017F820F0004000F11D
:101A0000010C00F0004701EB00501146BCF5006FDF
:101A100040EA070000D210BD02484FF0000140EA42
:101A2000070010BD0000F07F002B26D4770021D0E6
:101A30001CB54FEA370703B44FF010004FF0100108
:101A40004FF000000FBCBDE810400BF1010BBBF1E3
:101A5000010F08BF5FEA170722BF12F1010211F15F
:101A600001014FF0004143F1000300F0004043EA60
:101A700000007047F9D35708DAE746EA064613F143
:101A8000400F4FEA16461FDD13F1200FDFBF16434C
:101A90000A46002120335B42C8D0C3F1200746EA42
:101AA000064602FA07F74FEA164646EA0706C3F16A
:101AB000200722FA03F201FA07F721FA03F14FF0A7
:101AC000000342EA0702B1E746EA020646EA064692
:101AD0004FEA164646EA0106BCBF46EA0646360C01
:101AE0004FF000034FF000024FF000019EE72DE998
:101AF000C048934630B491E8380007C831EA400C3A
:101B000048BF34EA430C03D5FFF7C7FDFFF78CFF4E
:101B1000F0BCBDE800882DE9C048934630B491E898
:101B2000380007C831EA400C48BF34EA430C03D5FB
:101B3000FFF7B3FDFFF74EFFF0BCBDE800882DE9CD
:101B4000C048934630B491E8380007C810F0804F81
:101B500008BF13F0804F03D100F019F8FFF764FFBE
:101B6000F0BCBDE800882DE9C048934630B491E848
:101B7000380007C810F0804F08BF13F0804F03D122
:101B800000F005F8FFF726FFF0BCBDE8008820F064
:101B90007F4780EA030023F07F4C07EB0C03A3F59B
:101BA0007C5300F00040A3F1FE0392F0000F00F020
:101BB000B38095F0000F00F077802DE901494FEADE
:101BC00011404FEA144621EA004800FB06FC24EAD3
:101BD000064708FB06F607FB08F800FB07F718EBBB
:101BE00006484CEB164C4FEA124B18EB07484FEAED
:101BF00015464CEB174022EA0B4E0BFB06FC25EA80
:101C000006470EFB06F607FB0EFE0BFB07F71EEB67
:101C1000064E4CEB164C4FF000061EEB074E4CEBFD
:101C2000174B18EB0B0840F1000018EB0E0B58EBAC
:101C3000000840F100008F1A4FF000013CBFC9437B
:101C4000661B14BFB5EB040C00213CBFC943F61B57
:101C50004FEA17444EEA8E0E27EA04454FEA1C4726
:101C600004FB07622CEA074C05FB07F70CFB05F6A3
:101C700004FB0CFC16EB074642EB174216EB0C4636
:101C800042EB1C421BEB060658EB0202414146EABE
:101C90009E0601D5BDE80189B619524141EB01010B
:101CA000A3F10103BDE801894FEA14454FEA11474A
:101CB00024EA054621EA074C05FB07F406FB07F773
:101CC0000CFB06F105FB0CFC11EB074144EB174440
:101CD0004FEA124711EB0C4144EB1C4422EA074C3B
:101CE00005FB07F206FB07F70CFB06F605FB0CFCF1
:101CF00016EB074642EB174216EB0C4642EB1C452F
:101D00006A1854F1000148BF7047B619524141EBBF
:101D10000101A3F10103704795F0000F37D04FEA9E
:101D200011424FEA144721EA024624EA074C02FB1B
:101D300007F106FB07F70CFB06F402FB0CFC14EBA7
:101D4000074441EB17414FEA154714EB0C4441EBB4
:101D50001C4125EA074C02FB07F506FB07F70CFBC5
:101D600006F602FB0CFC16EB074645EB174516EB97
:101D70000C4645EB1C42121951F1000148BF704757
:101D8000B619524141EB0101A3F1010370474FEA3B
:101D900014454FEA114724EA054621EA074C05FBA2
:101DA00007F106FB07F70CFB06F24FF0000605FBF8
:101DB0000CFC12EB074241EB174112EB0C4251EBCA
:101DC0001C4148BF7047921841EB0101A3F1010388
:101DD0007047000070B52DED088B4048006804285E
:101DE0000AD104223EA14048FEF798FA20B93FA14B
:101DF000404801F083FD6CE038480068082855DB56
:101E000008223DA13848FEF789FAE0BB3648083081
:101E100001F01EFFB0EE408AF0EE608A51EC180B24
:101E200002F046FA0446204602F00EFE41EC190B81
:101E3000B0EE490AF0EE690A01F026FFB0EE408AE2
:101E4000F0EE608A9FED2F0B53EC102B51EC180B2A
:101E500002F0C4FD03D29FED2D0A10EE104A204679
:101E600002F0F2FD41EC1B0B9FED290B53EC102B04
:101E700002F0B6FC41EC1A0B9FED270B53EC102B34
:101E800002F0AEFC00E011E041EC190B9FED240BD9
:101E900053EC102B02F052FA41EC180B02F0E2FB6B
:101EA00005462946022001F0EDFD12E00B480068CE
:101EB0000C280AD10C221CA10B48FEF72FFA20B9DE
:101EC0001D4800681D49086003E01DA1094801F094
:101ED00015FD01F0DBFFBDEC088B70BD2400002078
:101EE00041540D0A00000000680000204F4B0D0A0D
:101EF000000000000010014041542B626567696ECC
:101F0000000000000000000000002E400000000063
:101F1000000000000000B040000000000088C34046
:101F2000000000000080764041542B72657374619C
:101F300072740D0A000000000C0000200000002058
:101F40006572726F720D0A0000BFFEE71CB50823B0
:101F5000474A4849484800F059FC46480068162856
:101F600015D1434800784549087041484078487089
:101F700008460088424908803D48807841490870F9
:101F80003B48C0784870084600883F490880394877
:101F90000068182815D13648007838490870344848
:101FA0004078487008460088354908803048807875
:101FB000344908702E48C078487008460088334974
:101FC00008802C48006840F28221884222D10020FB
:101FD00005E02749095C0DF80010411CC8B208282B
:101FE000F7DB45F656010098884207D12849019849
:101FF00008600846006800F00DFF0BE045F6500150
:102000000098884206D12349019808600846006874
:1020100000F0FAFE2049184800F04AF81E49491C11
:10202000154800F045F81C49C91C134800F040F859
:102030001A49114800F03CF819490F4800F038F8E7
:1020400018490D4800F034F8164908310A4800F0E4
:102050002FF81549084800F02BF81449064800F0FD
:1020600027F812490831044800F022F81CBD00008E
:1020700028000020300000200064004010000020F4
:102080001400002012000020180000201A00002078
:1020900034000020380000200100F0107000F03003
:1020A000030000120800003203000014080000348E
:1020B00000220C4B994202D10023836111E0C1F34D
:1020C000130201F000730BB1C2600AE001F08063FB
:1020D0000BB1026105E001F000630BB1826000E02A
:1020E000426070477000F0302DE9F04F8BB006462B
:1020F0000F4614461D46DDF850804FF00009CA46D1
:10210000CB46B5F5807F43D012DC102D34D008DCEF
:10211000012D25D0022D26D0042D27D0082D4FD1FA
:1021200027E0202D2BD0402D2CD0802D48D12CE025
:10213000B5F5805F38D009DCB5F5007F2BD0B5F55B
:10214000806F2BD0B5F5006F3AD12AE0B5F5005F6E
:102150002DD0B5F5804F2DD0B5F5004F30D12CE006
:102160004FF000092DE04FF001092AE04FF002097D
:1021700027E04FF0030924E04FF0040921E04FF07D
:1021800005091EE04FF006091BE04FF0070918E0B3
:102190004FF0080915E04FF0090912E04FF00A0965
:1021A0000FE04FF00B090CE04FF00C0909E04FF085
:1021B0000D0906E04FF00E0903E04FF00F0900E0B3
:1021C00000BF00BFB8F5807F4BD01ADCB8F1100F0C
:1021D0003BD00CDCB8F1010F2BD0B8F1020F2BD0A3
:1021E000B8F1040F2BD0B8F1080F52D12AE0B8F1A2
:1021F000200F2DD0B8F1400F2DD0B8F1800F48D16D
:102200002CE0B8F5805F38D009DCB8F5007F2BD022
:10221000B8F5806F2BD0B8F5006F3AD12AE0B8F549
:10222000005F2DD0B8F5804F2DD0B8F5004F30D1DC
:102230002CE04FF0000A2DE04FF0010A2AE04FF0A9
:10224000020A27E04FF0030A24E04FF0040A21E0DD
:102250004FF0050A1EE04FF0060A1BE04FF0070A98
:1022600018E04FF0080A15E04FF0090A12E04FF0AD
:102270000A0A0FE04FF00B0A0CE04FF00C0A09E0DD
:102280004FF00D0A06E04FF00E0A03E04FF00F0A80
:1022900000E000BF00BF7F48304418B1B0F5806F48
:1022A0001AD10CE04FF0090B00208DF81200142019
:1022B0008DF804000121480600F0AAFC0DE04FF063
:1022C000090B0E208DF8120040208DF8040001212A
:1022D000000500F09DFC00E000BF00BFC4F3090052
:1022E00078BBA012A0F580108038092834D2DFE82E
:1022F00000F0050A0F14191E23292E00012108469B
:1023000000F076FC29E00121022000F071FC24E0BD
:102310000121042000F06CFC1FE00121082000F0E6
:1023200067FC1AE00121102000F062FC15E0012199
:10233000202000F05DFC10E00121402000F058FC5E
:102340000BE009E00121802000F052FC05E00121B2
:10235000080200F04DFC00E000BF00BF5A464946AD
:10236000204600F0D0FB5A465146204600F0CBFBF9
:1023700045EA0800099002208DF828008DF8290010
:1023800000208DF82A0001208DF82B0009A9204695
:1023900000F071FB304600F07FF800208DF81E0041
:1023A0008DF81F008DF820008DF821008DF8220097
:1023B0008DF823008DF81A008DF81B000B208DF886
:1023C0001C0007208DF81D007D2F22D008DC0A2F6D
:1023D0000FD0142F11D0322F13D0642F29D114E035
:1023E000FA2F1AD0B7F5FA7F1BD0B7F57A7F20D134
:1023F0001BE0C820ADF818001CE06420ADF8180000
:1024000018E02820ADF8180014E01420ADF81800EA
:1024100010E01020ADF818000CE00820ADF818000E
:1024200008E00420ADF8180004E00220ADF8180020
:1024300000E000BF00BF06A9304600F0D6F800203B
:102440008DF8130001208DF814000020ADF808006D
:10245000ADF80A00ADF80C00ADF80E00ADF81000B4
:1024600001208DF8150002A800F032F800208DF848
:10247000050003208DF8060001208DF8070001A853
:1024800000F070FB01220221304600F0A5F80BB0ED
:10249000BDE8F08F009CFFBF10B504460B48844296
:1024A00009D10121480600F0C3FB00214FF0007064
:1024B00000F0BEFB08E00121880600F0B9FB002116
:1024C0004FF0806000F0B4FB10BD000000640040DD
:1024D00010B50021837A012202FA03F13D4A126805
:1024E00042F001023B4B1A603A4A1C3212688A439E
:1024F000384B1C331A60027BCAB9364A0C32126858
:102500008A43344B0C331A604288C38842EA03433F
:10251000304A4032847A42F834300288838842EA72
:1025200003432C4A4032847A02EBC4025360027B9C
:10253000012A19D1274A0C3212680A43254B0C3361
:102540001A604288038842EA0343224A4032847A6E
:1025500042F83430C288838842EA03431D4A40323D
:10256000847A02EBC4025360C27A3AB9194A121D46
:1025700012688A43174B1B1D1A6006E0154A121D8C
:1025800012680A43134B1B1D1A60028932B9114AA3
:10259000143212688A430F4B14331A600289012ADD
:1025A00006D10C4A143212680A430A4B14331A60DB
:1025B000427B012A06D1074A1C3212680A43054BA6
:1025C0001C331A60034A126822F00102014B1A60A0
:1025D00010BD0000006600401AB143690B4343611F
:1025E00002E043698B434361704730B502460020E7
:1025F0000023146824F002041460146844F00104F9
:10260000146000E05B1C546804F001041CB94FF630
:10261000FF74A342F6D1546804F001040CB9002001
:102620006CE08C79012C04D1146844F080041460AF
:1026300003E0146824F080041460CC79012C04D1E8
:10264000146844F04004146003E0146824F040046B
:1026500014600C7A012C04D1146844F02004146036
:1026600003E0146824F0200414604C7A012C04D197
:10267000146844F01004146003E0146824F010049B
:1026800014608C7A012C04D1146844F0080414609E
:1026900003E0146824F008041460CC7A012C04D1FF
:1026A000146844F00404146003E0146824F0040483
:1026B00014608C78A407CD7844EA05640D7944EA67
:1026C00005444D7944EA05540D886D1E2C43D461B0
:1026D000146824F001041460002300E05B1C5468BB
:1026E00004F001041CB14FF6FF74A342F6D1546804
:1026F00004F001040CB1002000E0012030BD0246CE
:10270000002019B9D36803F0030006E0012903D1C2
:10271000136903F0030000E00020704710B500F5D6
:10272000D87303EB01131B6803F004031372137ACD
:1027300053B900F5D87303EB01131B6840F2FF7423
:1027400004EA5353136009E000F5D87303EB011357
:102750001B686FF0604404EAD303536000F5D8733C
:1027600003EB01131B6803F00203537200F5D873E7
:1027700003EB01135B6803F00F03937200F5D8734A
:1027800003EB01135B681B0AD37400F5D87303EBEA
:1027900001139B68D37200F5D87303EB01139B6898
:1027A0001C0A147300F5D87303EB01139B681C0C0F
:1027B000547300F5D87303EB01139B681B0E9373DE
:1027C00000F5D87303EB0113DB68D37300F5D873FE
:1027D00003EB0113DB681C0A147400F5D87303EBD8
:1027E0000113DB681C0C547400F5D87303EB011360
:1027F000DB681B0E937421B9C36843F02003C360E8
:1028000003E0036943F02003036110BD2DE9F041AB
:1028100086B080460D4616461F46002400214046DD
:10282000FFF76DFF18B9002006B0BDE8F08101AADE
:1028300000214046FFF772FF002405E00DF10F0074
:10284000005D3055601CC4B2BC42F7DB01982860C3
:102850000120E9E710B502460020936803F0806389
:10286000B3F1806F00D110E0936803F00063B3F11F
:10287000006F01D1012008E0936803F08053B3F1A9
:10288000805F01D1022000E00420042874D002F50A
:10289000C07303EB00131B6803F0010402F5C0735F
:1028A00003EB00131C600B7A7BB94B7A0C8843EA6C
:1028B000445302F5C07404EB00142468234302F56A
:1028C000C07404EB0014236010E00B7A4C6843EAF8
:1028D000C4034C7A234302F5C07404EB001424684B
:1028E000234302F5C07404EB001423608B7A03F0D9
:1028F0000F038B7202F5C07303EB00135B6823F0C8
:102900000F0402F5C07303EB00135C6002F5C073A3
:1029100003EB00135B688C7A234302F5C07404EB6D
:10292000001463608B7B1C064B7B44EA03440B7BE7
:1029300044EA0323CC7A234302F5C07404EB001469
:10294000A3608B7C1C064B7C44EA03440B7C44EA6A
:102950000323CC7B234302F5C07404EB0014E36033
:1029600002F5C07303EB00131B6843F0010402F58A
:10297000C07303EB00131C6010BD000010B50246CD
:10298000002321B1012907D002290FD109E0906865
:102990001D4C00EA04030BE090681C4C00EA0403A1
:1029A00006E090681A4C00EA040301E0002300BF2F
:1029B00000BF184C181BA34216D007DC83B16FF080
:1029C0008060184470B1022818D111E0B0F5007F82
:1029D00010D0114C204448B1B0F5003F0ED10BE0AF
:1029E00002230DE000230BE0002309E0002307E0B1
:1029F000012305E0012303E0012301E0002300BFE0
:102A000000BFD8B210BD000003000004000300089E
:102A100000000310000100080001FFF72DE9F0435A
:102A200085B081460D4690461E46002400950195CE
:102A300000208DF808008DF809008DF80A6000BFAD
:102A400006E018F804100DF10B000155601C84B26B
:102A5000B442F6DB69464846FFF7FCFE0746002411
:102A600000BF39464846FFF789FF0128F9D105B074
:102A7000BDE8F0837047F0B50A460021002300242A
:102A800000BF3DE0012505FA01F3156805EA0304DE
:102A90009C4234D105684F000326BE40B543056013
:102AA00015794E00B5400668354305601579012D4E
:102AB00002D01579022D16D185684F000326BE403D
:102AC000B543856055794E00B540866835438560CD
:102AD000456801268E40B5434560456896798E402D
:102AE000B6B235434560C5684F000326BE40B543C6
:102AF000C560D5794E00B540C6683543C560491CF0
:102B00001029BFD3F0BDF0B5002300244D07ED0E12
:102B100002FA05F3CE1000F1200555F826504E07B5
:102B2000F70E0F26BE40B543CF1000F1200646F841
:102B30002750CE1000F1200555F8265045EA030431
:102B4000CE1000F1200545F82640F0BD0148006890
:102B5000704700000C00002000BFFEE700BFFEE74A
:102B600000BFFEE770B5002100230F22C4781CB31C
:102B7000174C246804F4E064C4F5E064C4F307214E
:102B8000C1F10404E3B20A4144789C40E1B2847884
:102B9000144021430C07210E0E4C05786155047832
:102BA00004F01F050124AC4005786D11AD0005F15E
:102BB000E025C5F8004109E0047804F01F05012470
:102BC000AC40054D0678761145F8264070BD0000F2
:102BD0000CED00E000E400E080E100E00249014388
:102BE000024A1160704700000000FA050CED00E099
:102BF00029B1064A12680243044B1A6004E0034AF2
:102C000012688243014B1A6070470000303802405E
:102C100029B1064A12680243044B1A6004E0034AD1
:102C200012688243014B1A6070470000403802402E
:102C300029B1064A12680243044B1A6004E0034AB1
:102C400012688243014B1A6070470000203802402E
:102C500029B1064A12680243044B1A6004E0034A91
:102C600012688243014B1A607047000044380240EA
:102C700029B1064A12680243044B1A6004E0034A71
:102C800012688243014B1A607047000024380240EA
:102C9000F0B5002100220024022500260223324F35
:102CA0003F6807F00C0121B1042905D0082937D16C
:102CB00005E02E4F076036E02D4F076033E02A4FC6
:102CC0003F1F3F68C7F38056274F3F1F3F6807F0FD
:102CD0003F036EB1264FB7FBF3F7DFF88CC0ACF1C2
:102CE000040CDCF800C0CCF3881C07FB0CF40CE0EF
:102CF0001E4FB7FBF3F7DFF870C0ACF1040CDCF843
:102D000000C0CCF3881C07FB0CF4174F3F1F3F6833
:102D1000C7F301477F1C7D00B4FBF5F7076002E0B5
:102D2000124F076000BF00BF0F4F3F6807F0F00170
:102D30000909104F7A5C0768D74047600A4F3F681F
:102D400007F4E051890A0B4F7A5C4768D7408760E7
:102D5000054F3F6807F46041490B064F7A5C4768AE
:102D6000D740C760F0BD0000083802400024F400DE
:102D700000127A003F00002030B587B004461F499A
:102D800003C9CDE9050104F54070009001900020D1
:102D90008DF808008DF8090008208DF80A000598C4
:102DA000C0B28DF80B000598010A8DF80C1005983B
:102DB000010C8DF80D100598000E8DF80E00069888
:102DC000C1B28DF80F100698010A8DF81010069800
:102DD000010C8DF811100698000E8DF8120069464E
:102DE0000748FFF737FD054600BF29460448FFF7AF
:102DF000C5FD0128F9D107B030BD0000404D0008E5
:102E000000640040704700000149086070470000FE
:102E10000C000020014908607047000008000020F5
:102E20000CB50020019000903448006840F48030D8
:102E30003249086000BF3148006800F4003000905B
:102E40000198401C0190009818B90198B0F5A06F46
:102E5000F1D12A48006800F4003010B10120009040
:102E600001E0002000900098012846D1234840301E
:102E7000006840F0805021494031086020480068D7
:102E800040F480401E4908601C48083000681B4917
:102E9000083108600846006840F4004008600846B1
:102EA000006840F4A05008601648091F0860081F19
:102EB000006840F08070091F086000BF0F4800687C
:102EC00000F000700028F9D040F205600E4908605B
:102ED0000A480830006820F00300084908310860FB
:102EE0000846006840F00200086000BF0348083050
:102EF000006800F00C000828F8D10CBD0038024032
:102F00000070004008544007003C024010B51548CE
:102F1000006840F47000134908601348006840F0EE
:102F200001001149086000200F49083108600E486F
:102F300000680E4908400C4908600D48091D0860EA
:102F4000081F006820F48020091F0860002006493F
:102F50000C310860FFF764FF4FF0006001498039D1
:102F6000086010BD88ED00E000380240FFFFF6FE6B
:102F70001030002410B50121044800F076F8012833
:102F800003D10121014800F061F810BD00000140AB
:102F900010B50121880700F068F8012817D1012138
:102FA000800700F053F80A480088401C0849088050
:102FB0000846008801280ADB06480078401C0549BD
:102FC000087000200249088001200349087010BDE4
:102FD0001C0000201F0000201E00002010B5012151
:102FE000044800F042F8012803D10121014800F013
:102FF0002DF810BD0004004010B50121044800F078
:1030000034F8012803D10121014800F01FF810BD58
:103010000008004010B50121044800F026F80128FE
:1030200003D10121014800F011F810BD000C00404F
:1030300010B50121044800F018F8012803D101213E
:10304000014800F003F810BD00040140CA430282A9
:10305000704721B1028842F00102028004E0028838
:103060004FF6FE731A400280704730B502460020CA
:1030700000230024158A05EA0103958905EA010465
:1030800013B10CB1012000E0002030BD1AB18389DA
:103090000B43838102E083898B4383817047000067
:1030A0002DE9FF4104460D4616461F46DDF82880EF
:1030B0006949601A8C4270D01ADC6849A4EB01009F
:1030C0008C426CD00ADCB4F1804F4ED0644820446E
:1030D000002852D0B0F5806F71D156E0B0F5806F06
:1030E00065D0B0F5006F6CD0B0F5406FF4D170E0F2
:1030F000B0F5923F21D009DCB0F5806F7AD0B0F501
:10310000644F0AD0B0F5684F7CD10EE0B0F5943F23
:103110001BD0B0F5963F75D11FE001210846FFF79F
:1031200097FD19208DF800006DE001210220FFF7C6
:103130008FFD2C208DF8000065E001210804FFF7C9
:1031400087FD18208DF800005DE001211920FFF7B0
:103150007FFD2C208DF8000055E001218804FFF749
:1031600077FD1A208DF800004DE001210846FFF799
:103170004FFD1C208DF8000045E001210220FFF7E3
:1031800047FD1D208DF800003DE001210420FFF7E0
:103190003FFD1E208DF8000035E023E0FFE7012110
:1031A0000820FFF735FD32208DF800002BE00121CB
:1031B0001020FFF72DFD36208DF8000023E021E0E0
:1031C000FFE701212020FFF723FD37208DF80000C5
:1031D00019E001214020FFF71BFD2B208DF8000096
:1031E00011E007E001218020FFF712FD2C208DF86F
:1031F000000008E001210802FFF70AFD2D208DF8EC
:10320000000000E000BF00BF0295ADF804600020A0
:10321000ADF80C00ADF8060001A9204600F022F838
:1032200001212046FFF712FF012211462046FFF739
:103230002DFFF8B28DF8010008F0FF008DF80200B4
:1032400001208DF803006846FFF78CFC0121204621
:10325000FFF7FFFEBDE8FF81001C0040000C0040AE
:1032600000FCFFBF00220288184B98420ED0184B7A
:1032700098420BD0B0F1804F08D0164B984205D041
:10328000154B984202D0154B984204D14FF68F73DC
:103290001A404B881A43124B984207D0114B984260
:1032A00004D04FF6FF431A400B891A4302804B6843
:1032B000C3620B880385054B984202D0044B9842A9
:1032C00001D18B7A0386012383827047000001407D
:1032D000000401400004004000080040000C0040D1
:1032E000001000400014004010B540F225514A483B
:1032F00000F04BFA01287DD140F22551464800F0FC
:10330000B8F9454800F0A0FB4449087044480078EB
:1033100005287BD2DFE800F00311263D4B003F4833
:1033200000780D2805D13E480078401C3C490870C3
:1033300002E000203A4908706CE0384800780A281A
:1033400008D100203749087035480078401C3449BE
:10335000087006E0314800780D2802D0002030497E
:10336000087057E02D4800782F492E4A127888546B
:103370002C480078401C2B49087008460078182813
:1033800006DB0020087026480078401C244908709D
:1033900040E0224800780A2805D121480078401CE6
:1033A0001F49087002E000201D49087032E01B48E8
:1033B00000780D2826D11C4890ED000A1B4880EDAE
:1033C000020A194890ED010A184880ED000A1648D3
:1033D00090ED020A154880ED010A134890ED030AAA
:1033E000124880ED030A104890ED040A0F4880ED62
:1033F000040A01E00FE009E00B4890ED050A0B48D4
:1034000080ED050A00200649087003E00020044909
:10341000087000BF00BF10BD005000403C000020FD
:103420003D0000203E0000207C00002050000020D5
:1034300010B588B0044601940020ADF80800ADF83E
:103440000A00ADF80C00ADF810000C20ADF80E002D
:103450000121FFF7CDFB01210805FFF7D9FB254826
:1034600000F022F908220C212348FFF74CFB082228
:1034700002212248FFF747FB00208DF81A000120A7
:103480008DF81B0002208DF81800C0020590022064
:103490008DF8190005A91848FFF7EDFA02208DF8FC
:1034A00018000420059005A91448FFF7E4FA01A9C3
:1034B000104800F0B9F935208DF81C0001208DF876
:1034C0001F008DF81D0002208DF81E004FF4A06033
:1034D000FFF784FB07A8FFF745FB012240F22551C7
:1034E000044800F07CF90121024800F0D1F808B04E
:1034F00010BD00000050004000080240000C0240D7
:1035000010B540F225511F4800F03FF9012834D191
:1035100040F225511B4800F0ACF81A4800F094FA2C
:10352000C4B22146184800F094FA184818490968AE
:10353000445417480068401C154908600846006854
:1035400001280FDD08460068401E1049085C0A2863
:1035500008D10F480068801E085C0D2802D1FEF7D4
:1035600039FC0EE00948007841280AD000F08EFCB2
:1035700008A1044800F0C2F903E0024800F064FA30
:10358000C4B210BD0010014000500040680000208F
:10359000240000204E4F5420535441525420574988
:1035A0005448202741270D0A0000000010B588B0BC
:1035B000044601210846FFF71BFB01211020FFF7FD
:1035C00047FB072209212448FFF79DFA07220A2119
:1035D0002148FFF798FA4FF4C060069002208DF85A
:1035E0001C008DF81D0000208DF81E0001208DF8B4
:1035F0001F0006A91848FFF73EFA02940020ADF814
:103600000C00ADF80E00ADF81000ADF814000C2061
:10361000ADF8120002A9114800F006F940210F4848
:1036200000F01EF825208DF8040000208DF805001C
:1036300001208DF806008DF8070001A8FFF792FA27
:10364000012240F22551054800F0C9F80121034844
:1036500000F01EF808B010BD00000240001001404C
:1036600001F40072B2F5007F00D100BFCA430280AE
:10367000704710B50022002340F66A14A14200D121
:1036800000BF0A1201249440A3B2DC43048010BDA1
:1036900021B1828942F40052828104E082894DF690
:1036A000FF731A408281704710B504462548844252
:1036B00008D101211020FFF7DBFA00211020FFF7CD
:1036C000D7FA3EE02048844209D101214804FFF79F
:1036D000AFFA00214FF40030FFF7AAFA31E01B489F
:1036E000844209D101218804FFF7A2FA00214FF496
:1036F0008020FFF79DFA24E01548844209D101217A
:10370000C804FFF795FA00214FF40020FFF790FA64
:1037100017E01048844209D101210805FFF788FA13
:1037200000214FF48010FFF783FA0AE00A48844230
:1037300007D101212020FFF79BFA00212020FFF76D
:1037400097FA10BD001001400044004000480040BE
:10375000004C0040005000400014014010B502A190
:10376000024800F0CBF810BD0D0A00000010014027
:1037700002460020B1F5007F00D100BF13880B4046
:103780000BB1012000E00020704770B50246002414
:1037900000230025002040F66A16B14200D100BF88
:1037A000C1F3421501F01F03012606FA03F3012DB0
:1037B00002D19689334006E0022D02D1168A3340A9
:1037C00001E0968A33400C12012606FA04F41688AA
:1037D000344013B10CB1012000E0002070BDF0B501
:1037E0000346002400260025002040F66A17B9424F
:1037F00000D100BF1846C1F3421401F01F06012793
:1038000007FA06F5012C01D10C3004E0022C01D19D
:10381000103000E014301AB107682F43076002E04F
:103820000768AF430760F0BD2DE9FF4705460E4628
:103830000024A14600BFA046B08900B100BF2C8A79
:1038400024F44054F08804432C82AC8941F20C608B
:103850008443B08831890843718908430443AC81AB
:10386000AC8A24F44074B0890443AC826846FFF704
:103870000FFA2048854202D01F48854202D1DDF868
:103880000C9001E0DDF80890A88900F4004040B1F8
:1038900009EBC90000EB091031684900B0FBF1F7F2
:1038A00007E009EBC90000EB091031688900B0FBA3
:1038B000F1F76420B7FBF0F004012009642101FB5B
:1038C0001078A88900F4004040B1322000EBC80015
:1038D000B0FBF1F000F00700044308E0322000EBF9
:1038E00008106421B0FBF1F000F00F0004432C81BC
:1038F000BDE8FF8700100140001401400FB470B50F
:1039000086B006460CA8019073E00B9800785C28FE
:103910001CD10B98401C0B9000786E2809D072289F
:103920000FD10D21304600F094F80B98401C0B90FD
:103930000BE00A21304600F08CF80B98401C0B90ED
:1039400003E00B98401C0B9000BF4BE00B980078F5
:10395000252840D10B98401C0B900078642818D083
:10396000732833D1019810C801900BE021783046BC
:1039700000F06FF800BF40213046FFF7F9FE002845
:10398000F9D0641C20780028F0D10B98401C0B90D3
:1039900020E0019820C801900A2202A9284600F0E0
:1039A00073FB02AC0BE02178304600F052F800BF08
:1039B00040213046FFF7DCFE0028F9D0641C207857
:1039C0000028F0D10B98401C0B9003E00B98401C92
:1039D0000B9000BF06E00B9810F8011B0B903046CF
:1039E00000F037F800BF40213046FFF7C1FE002845
:1039F000F9D00B980078002887D106B070BC5DF82C
:103A000014FB000000B52DED048B83B0B0EE408AAE
:103A1000002000900190029018EE100A01F014F8B6
:103A200041EC190B53EC192B05A16846FCF72EFC51
:103A300069460448FFF762FF03B0BDEC048B00BD8C
:103A4000256609000010014001468888C0F308007F
:103A5000704730B504460D4600BF80212046FFF771
:103A600087FE0028F9D080212046FFF7F9FD40218C
:103A70002046FFF7F5FDC5F30800A08030BD00BF6C
:103A8000FEE70000F0B589B005460F4600242B4B39
:103A90000FCB05AE0FC605F54070009001900020D9
:103AA0008DF808008DF8090008208DF80A000697A7
:103AB00000BF3FE005A810F834008DF80B0005A802
:103AC00030F83400010A8DF80C1005A850F83400C5
:103AD000010C8DF80D1005A850F83400000E8DF87B
:103AE0000E0005A800EBC40001798DF80F1005A8A1
:103AF00000EBC4008088010A8DF8101005A800EBC7
:103B0000C4004068010C8DF8111005A800EBC4003A
:103B10004068000E8DF8120069460948FEF79AFECB
:103B2000064600BF31460648FEF728FF0128F9D1B6
:103B3000601CC4B2022CBDDB09B0F0BD904C000883
:103B4000006400402DE9F04194B005460E4617464A
:103B5000002438222E4906A8FCF72BFC05F54070FE
:103B60000190029000208DF80C008DF80D000820C7
:103B70008DF80E000D960F97264911914942139129
:103B800000BF3FE006A810F834008DF80F0006A82B
:103B900030F83400010A8DF8101006A850F83400EF
:103BA000010C8DF8111006A850F83400000E8DF8A5
:103BB000120006A800EBC40001798DF8131006A8C6
:103BC00000EBC4008088010A8DF8141006A800EBF1
:103BD000C4004068010C8DF8151006A800EBC40065
:103BE0004068000E8DF8160001A90B48FEF732FE62
:103BF000804600BF41460848FEF7C0FE0128F9D1C3
:103C0000601CC4B2072CBDDB14B0BDE8F08100001D
:103C1000584C0008C0E1E4000064004003B401987F
:103C20004100009850EAC12018BF04204A0D18BF77
:103C300040F0010040F2FF72B2EB515F08BF40F06C
:103C40000200012808BF052002B0704700000000F4
:103C500030B583B00446FCF7E1FB9FED090B054648
:103C60008DED000B002221466846FCF72BFE28460E
:103C7000FCF7D9FB9DED000B03B030BD0000000048
:103C800000000000000000002DED020B019820F064
:103C9000004001909DED000B02B070470000000055
:103CA00030B540F2FF742DED048BF0EE608A18EE13
:103CB000901A85B0B0EE408A9FED2B9B05468DEDA6
:103CC000008B34EA115147D053EC192B51EC180BEF
:103CD00000F08CFC40D02A4651EC180B00F063FF3A
:103CE00041EC180B18EE900A8DED008B34EA105061
:103CF0001CD053EC192B51EC180B00F077FC2BD196
:103D00000220FCF790FB00F043F810EE901A18EE3A
:103D1000900A8DED020B8DED008B61F31E00039078
:103D20009DED020B05B0BDEC048B30BD0220FCF70D
:103D30007AFB00F01DF810EE901A18EE900A8DED47
:103D4000020B8DED008B61F31E0003909DED020BC5
:103D500005B0BDEC048B30BD05B0B0EE480AF0EE06
:103D6000680ABDEC048B30BD0000000000000000BC
:103D70009FED050B10B553EC102B51EC100B00F020
:103D80002FFD41EC100B10BD000000000000007082
:103D90009FED050B10B553EC102B51EC100B00F000
:103DA0001FFD41EC100B10BD0000000000000010D2
:103DB00030B504462DED048B81B06A4691ED008B41
:103DC00051EC180B00F0C8F800989FED239B7E3053
:103DD0000090002821DC53EC192B51EC180B00F05B
:103DE00005FC1AD0002140F608004FF000000546FF
:103DF00051EC180B00F05CFA08EE100A40F60800CF
:103E000005EA00014FF00000B5EEC08AF1EE10FAAD
:103E100004BF0220FCF707FB17E00098FF280EDB29
:103E20000220FCF700FB53EC192B51EC180B00F0AF
:103E3000D5FD8CBF9FED0A8A9FED0A8A05E051EC03
:103E4000180B00F035FA08EE100A84ED008A01B074
:103E5000BDEC048B30BD000000000000000000003D
:103E6000000080FF0000807F10B5044690ED000B3D
:103E70000846FFF715FF84ED000B10BD30380A2807
:103E800001D2012070470020704700000020054942
:103E9000086000BF03E00021034A1154401C1428AD
:103EA000F9DB7047240000206800002030B587B09F
:103EB00004461F4903C9CDE9050104F5407000908F
:103EC000019000208DF808008DF8090008208DF879
:103ED0000A000598C0B28DF80B000598010A8DF80C
:103EE0000C100598010C8DF80D100598000E8DF83A
:103EF0000E000698C1B28DF80F100698010A8DF8D1
:103F000010100698010C8DF811100698000E8DF80F
:103F1000120069460748FEF79DFC054600BF29468A
:103F20000448FEF72BFD0128F9D107B030BD000091
:103F3000484C0008006400401CB5054903C9CDE9A0
:103F4000000108236A4600210248FEF767FD1CBDF8
:103F5000404C00080064004010B582B01446CDE922
:103F600000010023009A2360194B21F00040984281
:103F70002ADA024328D0B0F5801FA8BF226810DAE1
:103F80009FED150B53EC102B9DED000B51EC100B1E
:103F900000F026FCCDE900016FF0350221F0004071
:103FA00022600F4B6FF31E5103EB20501044206032
:103FB00041F0FF5040F0005001909DED000B00BF1C
:103FC00002B051EC100B10BD9DED000BF8E70000A6
:103FD0000000F07F000000000000000000005043DF
:103FE00002FCFFFF0548017831B10020034A107040
:103FF000034A1070012070470020FCE71E000020DB
:104000001F00002008B54FF4A060FEF7E7FD002078
:10401000034640F2473240F2F31100904FF08040E7
:10402000FFF73EF84FF480704300124A4FF4FA71E4
:1040300000901148FEF758F84FF46120FFF7B6FAE8
:104040004FF46120FFF7F4F9FFF776FF0220FFF746
:104050002DFF0A4A11460220FFF774FD0220FEF7E9
:104060008BFE074800F0F2F8FEF770FD0549086086
:1040700008BD00000004024000640040E09304001A
:10408000FF3EAB0100000020F0B503460D4616468A
:10409000002729460A2E03D0002008702846F0BDCC
:1040A00033B9302001F8010B002008702846F6E7EC
:1040B000002B03DA2D2001F8010B5B4242F2107253
:1040C0000DE093FBF2F404B937B104F1300001F8CC
:1040D000010B04FB123301270A2092FBF0F2002AA5
:1040E000EFDC002008702846D9E7000070B52DED00
:1040F000068B002600BF00BFFFF784FF91E08BE036
:104100000220FEF739FE4748006847490968441A0B
:1041100000256FF000410020091BA84102DA641C51
:1041200065F1000500210846611A75EB000002DA0E
:10413000641E45F100052046294600F0C3FA9FEDB4
:104140003B0B53EC102B00F04BFB9FED3A0B53EC69
:10415000102B00F0F3F800F0ABF838490860314854
:104160000068841B002536490020091BA84103DA9A
:10417000344AA41A65F1000531494942611A75F1C2
:10418000FF3001DA2F48201800BF264806682B4868
:10419000006800F059FC41EC190BB0EE490AF0EE52
:1041A000690AFFF771FDB0EE408AF0EE608A9FED7C
:1041B0001F0B53EC102B51EC180B00F0D5FA2BD839
:1041C0002148D0ED000AB0EE600AFFF71BFC1E4844
:1041D000D0ED010AB0EE600AFFF714FC1A48D0EDEA
:1041E000020AB0EE600AFFF70DFC1748D0ED030A93
:1041F000B0EE600AFFF706FC1348D0ED040AB0EEFB
:10420000600AFFF7FFFB1048D0ED050AB0EE600A28
:10421000FFF7F8FBFFF7A2FAFFF7E4FE00287FF4B0
:104220006FAF6CE70C0000200000002000000000D1
:1042300000807640000000000088834104000020D8
:1042400000803801000071025000002000BF401EB5
:104250000028FCD17047000010B500290AD008786A
:10426000002807D005487844FCF712FF002801D049
:10427000002010BD0248784410BD0000A60B0000CD
:104280009E0B000010B500290AD00878002807D03E
:1042900005487844FCF7FCFE002801D0002010BD42
:1042A0000248784410BD0000960B00008E0B000001
:1042B00021F00042A2F16052B2F5801F01F00043EC
:1042C00028BFD2F17F6C0BD95FEA001C43EAC2021F
:1042D00042EB507018BF704728BF20F001007047B4
:1042E000B2F5801FBCBF184670474FEA410C1CF561
:1042F000001F02D2084600F01DBC70B500F01AFB8A
:1043000000000089FFF7F6BF4FF00040A0F58000E5
:104310007047000002494FF0000000F012BC00BFDF
:104320000000F87F491058BFC1F140415B1058BFF1
:10433000C3F140438B42EFF3008070472DE9C04149
:1043400030B4DFF8A0C23CEA111418BF3CEA1314E1
:1043500000F0EC8081EA03051CEA111444EAD574EC
:1043600018BF1CEA131500F0C780A4EB05044FF03A
:10437000004545EAC12145EAC32341EA505143EAD9
:10438000525304F17F74994204F500344FEAC0207F
:104390004FEAC22208BF904200F09C804FEA1365AA
:1043A0000FF24016765D4FEA134506FB05F7C7F19D
:1043B000807706FB07F74FEAD737A7FB03687642FB
:1043C000C8F58038A7FB06CE38BFA8F1010807FB67
:1043D00008E64FF0000EA6FB028CE6FB03CEDCF1F4
:1043E000000CCEF1004E38BFAEF1010EA6FB0C580A
:1043F0004FF000074FF00005E6FB0E87A1FB08C653
:10440000A0FB07CE16EB0E0645F10005E1FB0765A4
:1044100015F1E04E7EBFA4F580345FEA46066D419B
:1044200016F1800745F100054FEA17274FEA0666A7
:1044300047EA0567A6F1DE46B6F1805F4FEA15252B
:104440001FD9384624F0010C05EBC471BCF1FE6F96
:1044500001EB0C1102D8F0BCBDE8008124425CBF26
:1044600001F5801E9EEAC47F02D4F0BCBDE8008145
:10447000244238D4F0BCA1F1C041BDE8004100F0B5
:10448000A7BA4FEAD22242EA43524FEAD323A7FB0C
:1044900002864FEAD02040EA415007FB03661EEA3D
:1044A0000E0F4FEAD12105FB026658BFA6EB00565E
:1044B000B6EB00564FEA520E4EEAC37E18EB0E0ED4
:1044C00056EB530EBDD518EB02085E417F1C55F12B
:1044D0000005B6E74FF480154FF000074FF00006D7
:1044E0004FF00008ADE7F0BC4FF0000001F1C04113
:1044F00001F00041BDE8008111EA0C1F0CEA131520
:1045000000D00CE013EA0C1F00F025804FF00000F3
:10451000F0BC81EA030101F00041BDE80081F0BC7C
:10452000BDE8004181EA030100F052BAF0BCBDE8E9
:10453000004170B500F0FEF9097EFC3E00F007B8BE
:1045400081EA03014FF0000001F00041704781EA69
:10455000030100F03DBAF0BCBDE800414FF000009F
:1045600021497047FFFDFBF9F7F5F4F2F0EEEDEBB2
:10457000E9E8E6E4E3E1E0DEDDDBDAD8D7D5D4D361
:10458000D1D0CFCDCCCBCAC8C7C6C5C4C2C1C0BFAD
:10459000BEBDBCBBBAB9B8B7B6B5B4B3B2B1B0AFB3
:1045A000AEADACABAAA9A8A8A7A6A5A4A3A3A2A197
:1045B000A09F9F9E9D9C9C9B9A9999989797969552
:1045C00095949393929191908F8F8E8E8D8C8C8BEE
:1045D0008B8A898988888787868585848483838276
:1045E000828181800000FF070000F87F51EA030C00
:1045F00017D41CF5801F58BFBCF5801F00F1068042
:10460000994218BF704708BF9042704707D711F50D
:10461000801F58BF13F5801F19D4994270478942F3
:1046200070471CF5801F08D5BCF5801FF7D58B425D
:1046300018BF704708BF824270474FF4001C1CEB44
:10464000410F38BF1CEB430F01D28B42704770B54E
:1046500000F070F9922449004FF000514FF0805360
:10466000FFF760BE4FEA41034FEA5353A3F580635F
:10467000D3F11E03C8BFD3F1210C0CDD4FF0004273
:1046800042EAC12242EA505232FA03FC8CEAE17C4F
:10469000ACEBE1707047102BC4BF0020704703F5EE
:1046A000787CBCF1FF3F04D06FF0004282EA210029
:1046B000704770B500F03EF94992248000207047A1
:1046C000F2E700007FEAE17202D1101A62EB010109
:1046D000B1FA81F30B3B24D3994012D1B0FA80F3A5
:1046E00010FA03F108BF7047C3F11D0303F54063DF
:1046F00003EBC2234FEAD1224FEA415002EB0351B0
:104700007047C3F1200C20FA0CFC9840C3F132032F
:1047100003F5406303EBC22341EA0C0101EB0351B3
:10472000704710B5C3F1320CC3F10004C4F1200E80
:104730000CF5406C0CEBC22201FA0EFC21FA04F1DC
:1047400000FA0EF3E040BDE8104040EA0C0001EB37
:10475000025138BF7047401C41F100015B0008BFA7
:1047600020F001007047000051EA030C17D41CF53B
:10477000801F58BFBCF5801F00F10680994218BF0A
:10478000704708BF9042704707D711F5801F58BF88
:1047900013F5801F19D499427047894270471CF560
:1047A000801F08D5BCF5801FF7D58B4218BF704716
:1047B00008BF824270474FF4001C1CEB410F38BF0A
:1047C0001CEB430F01D28B42704770B500F0B2F87A
:1047D000922449004FF000514FF08053FFF7A2BDE3
:1047E000DFF848C170B51CEA111E1EBF1CEA131584
:1047F0009EEA0C0F95EA0C0F00F06F8081EA03042B
:1048000023EA4C134EEAD47E21EA4C1141F4801184
:1048100043F48013AE44A1FB024CA0FB0365AEF150
:104820007F7E361955EB0C05A1FB034C4CF10003C0
:10483000A0FB021C16EB0C06654153F10003094274
:1048400018BF46F0010613F4007F0BD14FEA033185
:104850004FEA0530340341EA155140EA16506FF033
:1048600003020AE04FEAC3214FEAC520F40241EAFD
:10487000555140EA56506FF0020202EB2E4201EB16
:10488000025585EACE710AD05FEA440C18BF24F0C5
:10489000004450F1000041F1000120EAD47040F2E0
:1048A000FE7C624500D270BDA84214BF4FF0804428
:1048B0004FF04044002E08BF0024BEF1806FA8BF17
:1048C000A1F1C041BDE8704080F282804FF000004D
:1048D00001F1C04101F0004170479EEA0C0F0CEA63
:1048E000131518BF95EA0C0F06D04FF0000081EAAF
:1048F000030E0EF0004170BD00F01CF88900013E6F
:1049000000F007B800F009B84FEA430C5FEA5C5CBE
:1049100008D081EA030100F05BB84FEA410C5FEA7E
:104920005C5CF6D14FF00000014970470000FF07C2
:104930000000F87F0EF1020E2EF0030E5EF8046BFD
:10494000364205D4012A43EB030515F5001F12D8A2
:10495000012841EB010C1CF5001F0CD80ED14FEAC9
:10496000D17C15F5001F0CEB4C0C0CF1020C08BFB0
:104970004CEBD37C04E04FF0080C01E04FEAD37C11
:104980000CEB4C0526FA05F606F00706B6F1040C0A
:1049900006D20EEB860CBDE870404CF0010C60476F
:1049A000DFE80CF0090B02024FF000414FF000006D
:1049B000A1F5002170BD19461046012851EB0104F4
:1049C00018BFD4F5001484BF002001F0004170BD71
:1049D0000808A0F500114FEA3101704753EA010CB5
:1049E00017D41CF5801F58BFBCF5801F00F106804E
:1049F0008B4218BF704708BF8242704707D713F534
:104A0000801F58BF11F5801F19D48B4270479B42FD
:104A100070471CF5801F08D5BCF5801FF7D599425B
:104A200018BF704708BF904270474FF4001C1CEB42
:104A3000430F38BF1CEB410F01D2994270470FB4AE
:104A40000CBC03BCFFF7C1BE43004FEAD30C4FEAD6
:104A50003C0C43401FBF40070CF1605113F0FE4F68
:104A600070471CF0006F03D100200CF0004170472C
:104A70000CF0004343EA507010B540EACC0000F05F
:104A80000EF800BF000000924FEA0001FFF7A0BF40
:104A90004FF000414FF00000A1F5002170470EF1EA
:104AA000020E2EF0030E5EF8044B244204D44FEAAB
:104AB0004102B2F17F4F11D84FEA4003B3F17F4F6B
:104AC0000CD80ED14FEAD07CB2F17F4F0CEB4C0CDE
:104AD0000CF1020C08BF4CEBD17C04E04FF0080C49
:104AE00001E04FEAD17C0CEB4C0324FA03F404F010
:104AF0000704B4F1040C06D20EEB840CBDE81040A0
:104B00004CF0010C6047DFE80CF0070802024FF0A0
:104B10000040A0F5800010BD0846420018BFD2F149
:104B2000807288BF00F0004010BD4FF04070E1EE91
:104B3000100A7047FF2141EAD050C0057047FBF7CB
:104B40004FBD0CF00F03092B08BF082000F05F8059
:104B50000A2B0BD0082B18BF704708BF1CF0400F62
:104B60000AD04FF000004FF0000170471CF0400FDA
:104B700018BF4FF0004070471CF0100F08D020F015
:104B8000704300F07F4242EAD3014FEA437070471E
:104B900000F0604021F07F4242EA000201F07F40D5
:104BA00040EA727070474FF0FF0C4CF4E06C1CEA66
:104BB00011531CBF9CEA030C9445C2BFDA4201EBBF
:104BC00002517047002B0DD0BCF1000F0FD0002A0E
:104BD00001F00041A4BF41F0E04141F07F614FF09E
:104BE0000000704701F000414FF00000704750EAAC
:104BF00001334FF09B0C18BF4CF0806C7FF48AABF4
:104C00007047FCF7E7B8FCF78BBAFCF719BC1CF44B
:104C1000801F11D01CF4E02F03D06FEACC31490083
:104C200070474FF04050EFF3008222F0704242EAAA
:104C3000000282F3008870474FF0000070470000C8
:104C400001000000000000004D4F000001000000C6
:104C50004D4F000000000000554D00000200000014
:104C600053460000000000004D4F0000010000000E
:104C70004143000000000000444300000000000029
:104C80005648020000000000564C020000000000E0
:104C90004A560000000000004247004000000000AB
:104CA000554D0000050000005346000000000000C4
:104CB000584D010000000000584D020000000000A7
:104CC0004D4F0000010000004143000000000000C3
:104CD00041430000000000004143000000000000CC
:104CE00044430000000000004443000000000000B6
:104CF000444300000000000053500000000000008A
:104D0000535000000000000053500000000000005D
:104D10005648030000000000564C0300000000004D
:104D200000000000000000004247004000000000BA
:104D300055510040000000004951004000000000B3
:104D4000505800400000000056580040000000008D
:104D500002400000000000A000000000054000002C
:104D6000000000C8000000000C4000000000409C53
:104D700000000000194000000020BCBE0000000040
:104D800034400000BFC91B8E00000004B540000085
:104D9000504BCFD06607E2CF010000006C4100000D
:104DA0003E8251AADFEEA73401000000D942000084
:104DB000DCB5A0E23A301F97FFFFFFFFB4450000CB
:104DC000FD25A0C8E9A3C14FFFFFFFFFFF3F000083
:104DD0000000008000000000FF3F00000000008095
:104DE00000000000384F00080000002050000000C4
:104DF000C4010008884F000850000020A8460000A9
:104E0000E0010008000000000000F07F1C0000002E
:104E100043000000F8FFFFFF0C0000000E00000040
:104E20000F0000002E0000001001000043000000F1
:104E3000F8FFFFFF004040404040404040404141BB
:104E4000414141404040404040404040404040405F
:104E500040404040400502020202020202020202F9
:104E600002020202022020202020202020202002F6
:104E70000202020202029090909090901010101086
:104E80001010101010101010101010101010101022
:104E900002020202020288888888888808080808B6
:104EA0000808080808080808080808080808080882
:104EB00002020202400000000000000000000000AA
:104EC00000000000000000000000000000000000E2
:104ED00000000000000000000000000000000000D2
:104EE00000000000000000000000000000000000C2
:104EF00000000000000000000000000000000000B2
:104F000000000000000000000000000000000000A1
:104F10000000000000000000000000000000000091
:104F20000000000000000000000000000000000081
:104F30000000000000000000000000000000000071
:104F40000000000000000000000000000000000061
:104F50000000000000000000000000000000000051
:104F60000000000000000000000000000000000041
:104F70000000000000000000000000010203040126
:084F8000020304060708090002
:040000050800018965
:00000001FF
