:020000040800F2
:10000000A0CF00200DA10008C5130008C9130008E7
:1000100005140008091400080D1400080000000071
:1000200000000000000000000000000011140008A3
:10003000131400080000000023A1000825A10008F7
:1000400027A1000827A1000827A1000827A1000870
:1000500027A1000827A1000827A1000827A1000860
:1000600027A1000827A1000827A1000827A1000850
:1000700027A1000827A1000827A1000827A1000840
:1000800027A1000827A1000827A1000827A1000830
:1000900027A1000827A1000827A1000827A1000820
:1000A00027A100081513000827A1000827A10008B0
:1000B0003D0C00085D1300087513000827A1000817
:1000C00027A1000827A1000827A1000827A10008F0
:1000D00027A10008D74D000827A10008A913000890
:1000E00027A1000827A1000827A1000827A10008D0
:1000F0002D13000827A1000827A1000827A1000848
:1001000027A1000827A100084513000827A100081F
:1001100027A100088D13000827A10008C3120008BA
:1001200027A1000827A1000827A1000827A100088F
:1001300027A1000827A1000827A1000827A100087F
:1001400027A1000827A1000827A1000827A100086F
:1001500027A1000827A1000827A1000827A100085F
:1001600027A1000827A1000827A1000827A100084F
:1001700027A1000827A1000827A1000827A100083F
:1001800027A1000827A1000800F002F800F06FF88E
:100190000AA090E8000C82448344AAF10107DA45E2
:1001A00001D100F064F8AFF2090EBAE80F0013F0C5
:1001B000010F18BFFB1A43F00103184748F0000075
:1001C00068F000000A444FF0000C10F8013B13F0F7
:1001D000070408BF10F8014B1D1108BF10F8015BA0
:1001E000641E05D010F8016B641E01F8016BF9D193
:1001F00013F0080F1EBF10F8014BAD1C0C1B09D1EA
:100200006D1E58BF01F801CBFAD505E014F8016B5B
:1002100001F8016B6D1EF9D59142D6D370470000ED
:100220000023002400250026103A28BF78C1FBD8FF
:10023000520728BF30C148BF0B60704766290EF0D7
:100240008981002070471FB50EF049F90AF0D4FCEF
:100250000400002000210DF073FA401C60600020B3
:1002600000210DF057FAE0601FBD10B510BD0AF077
:10027000EBFD1146FFF7E7FF00F058F80BF064F8CC
:1002800003B4FFF7F2FF03BC0BF0A4F838B54FF44A
:10029000A06007F0EDFD002003465322632100908B
:1002A0004A4805F01CFD06F015F9532140F2E730ED
:1002B00004F08BFB05F040FA05F091FA05F0C1FC63
:1002C0004FF4E13005F00CFE05F017FA0BE0404862
:1002D000D0F8F80110B9204600F07EF80021204641
:1002E00003F074FE641C032CF1DB00200123532275
:1002F00040F2E7310090980705F0F1FC082004F087
:100300001FFE022004F01CFE02F0D7FD0521012093
:1003100006F093F905E02E48D0F8F80108B103F093
:10032000BFFF03F0BAFF0028F5D038BD10B5FFF7C6
:10033000ADFF4AE045E004F0A6FE05F04AF900F002
:10034000010088BB05F045F900F0080078B10024F1
:100350000AE0204800EB8400D0ED000AB0EE600A0D
:10036000204603F0A1FF641C032CF2DB12E0002402
:100370000EE0184800EB8400D0ED000AB6EE001A3B
:1003800070EEC10AB0EE600A204603F08DFF641CD7
:10039000032CEEDB02F0F6F948B102F063FA03F049
:1003A000ABFB04F029FB02E0FFE701F041FB00207A
:1003B0000749C1F8F8010846D0F8E801401EC1F825
:1003C000E80100F071FF0028B5D1B3E70014004048
:1003D000B82B0020282D0020F0B589B00546002458
:1003E0002022FBA101A80AF024F9642005F067FD92
:1003F00025B1012D0BD0022D1BD111E080206B23E4
:100400000222FB490090FB4805F04BFA11E08020E6
:100410006B230422F6490090F64805F042FA08E002
:1004200080206B234022F4490090F24805F039FA0D
:1004300000BF00BF062005F042FD002479E0002641
:10044000FF2700BF701CC6B2EC484069405D10B188
:10045000012808D103E000208DF8090003E00820FE
:100460008DF8090000BF00BF25B1012D1DD0022D60
:1004700051D135E0012000EB440001A9085C009057
:1004800001A810F814300222D949DA4805F009FA17
:10049000304605F014FD01A810F814300222D449AA
:1004A000D44805F049FA074635E0012000EB440046
:1004B00001A9085C009001A810F814300422CC496E
:1004C000CC4805F0EEF9304605F0F9FC01A810F82B
:1004D00014300422C649C74805F02EFA07461AE030
:1004E000012000EB440001A9085C009001A810F86D
:1004F00014304022C049BF4805F0D3F9304605F01A
:10050000DEFC01A810F814304022BB49B94805F0C0
:1005100013FA074600BF00BF052E00DD06E00120EC
:1005200000EB440001A9085CB8428BD100BF601CFD
:10053000C4B20F2C83DB09B0F0BD30B52DED048BB8
:1005400087B0044600200590069024B1012C0DD000
:10055000022C21D115E0062003A943230222CDE974
:100560000010A349A34805F034FA15E0062003A9BA
:1005700043230422CDE900109D499E4805F029FA45
:100580000AE0062003A943234022CDE900109A493E
:10059000984805F01EFA00BF00BF9DF80D009DF8B9
:1005A0000C1040EA012000B2ADF814009DF80F00D5
:1005B0009DF80E1040EA012000B2ADF816009DF83B
:1005C00011009DF8101040EA012000B2ADF81800AB
:1005D0008A484069005D10B1012869D12FE0BDF95A
:1005E000161048420DF0ADFB41EC190B9FED840B4A
:1005F00053EC102B0DF0B4F9834A03C2BDF914106B
:1006000048420DF09EFB41EC190B9FED7D0B53EC26
:10061000102B0DF0A5F97C4AC2E90201BDF91810B2
:1006200048420DF08EFB41EC190B9FED750B53EC1E
:10063000102B0DF095F9744AC2E9040168E0BDF988
:100640001600404200EE100AB8EEC00ADFED6F0A55
:1006500080EE201A11EE105A28460DF0CFFE6A4A9D
:1006600003C2BDF91400404200EE100AB8EEC00A01
:10067000DFED660A80EE201A11EE105A28460DF0C2
:10068000BDFE614AC2E90201BDF91800404200EE18
:10069000100AB8EEC00ADFED5D0A80EE201A11EEF6
:1006A000105A28460DF0AAFE574AC2E904012FE06D
:1006B000BDF9161048420DF044FB41EC190B9FEDBB
:1006C000500B53EC102B0DF04BF94F4A03C2BDF900
:1006D000141048420DF035FB41EC190B9FED480B0F
:1006E00053EC102B0DF03CF9474AC2E90201BDF969
:1006F000181048420DF025FB41EC190B9FED400B03
:1007000053EC102B0DF02CF93F4AC2E9040100BF55
:1007100000BF9FED3F8A14B1022C38D11BE03A484C
:1007200090ED001BB0EE410AF0EE610A51EC100BA7
:100730000DF028F808EE100A334890ED020B80ED1A
:10074000000BB1EE480A10EE100A0DF057FE2E4ACB
:10075000C2E902011BE02C4890ED001BB0EE410AFB
:10076000F0EE610A51EC100B0DF00CF808EE100AD7
:10077000254890ED020B80ED000BB1EE480A10EE1B
:10078000100A0DF03BFE204AC2E9020100BF00BF83
:1007900007B0BDEC048B30BD1B4991ED000B80ED23
:1007A000000B91ED020B80ED020B91ED040B80ED3F
:1007B000040B704710B52DED068B86B00446002063
:1007C0000490059034B3012C2FD0022C43D137E094
:1007D0006B006C001B001A0019071C001D06680046
:1007E0006A101E0023001F00370038006900000057
:1007F000000002400030014000080240CC87002089
:10080000C3493C0773656040B82D00200000834257
:1008100000000000062002A93B230222CDE90010BF
:10082000FC49FD4805F0D5F815E0062002A93B2358
:100830000422CDE90010F749F74805F0CAF80AE0AC
:10084000062002A93B234022CDE90010F349F248DB
:1008500005F0BFF800BF00BF9DF809009DF8081023
:1008600040EA012000B2ADF810009DF80B009DF8A1
:100870000A1040EA012000B2ADF812009DF80D0008
:100880009DF80C1040EA012000B2ADF81400BDF94B
:1008900012000DF056FA41EC1A0B9FEDE10B53ECF0
:1008A000102B0DF05DF841EC190B0CF06BFFDE49DD
:1008B0000860BDF910000DF044FA41EC1A0B9FEDF1
:1008C000D80B53EC102B0DF04BF841EC190B0CF03E
:1008D00059FFD5494860BDF914000DF032FA41ECDA
:1008E0001A0B9FEDCF0B53EC102B0DF039F841ECA8
:1008F000190B0CF047FFCC4988601FED3B8A14B1FF
:10090000022C1CD10DE0C84890ED000AB0EE408AE0
:1009100090ED010A80ED000AB1EE480A80ED010A6F
:100920000DE0C14890ED000AB0EE408A90ED010A5A
:1009300080ED000AB1EE480A80ED010A00BF00BF59
:1009400006B0BDEC068B10BD10B50446B64890ED60
:10095000000A10EE101A08460DF050FDC4E900011F
:10096000B14890ED010A10EE101A08460DF046FD50
:10097000C4E90201AC4890ED020A10EE101A0846D4
:100980000DF03CFDC4E9040110BD3EB5054625B19E
:10099000012D0DD0022D21D115E0022002A9412305
:1009A0000246CDE900109B499B4805F012F815E07E
:1009B000022002A941230422CDE90010954996485E
:1009C00005F007F80AE0022002A941234022CDE900
:1009D00000109249904804F0FCFF00BF00BF9DF852
:1009E00009009DF8081040EA012004B200EE104A08
:1009F000B8EEC00A9FED8D1AC0EE010AB3EE090AE7
:100A000030EE800A8A4880ED000A3EBD884991EDAB
:100A1000000A80ED000A7047F0B52DED108B83B011
:100A2000054600200090019002900024CAE004EBEB
:100A3000440005EB800090ED000A20EE000A04EB74
:100A4000440005EB8000D0ED010A04EB440005EB07
:100A5000800090ED011A00EE810A04EB440005EBE2
:100A60008000D0ED020A04EB440005EB800090ED1D
:100A7000021A00EE810A10EE101A08460DF0BEFCB4
:100A800041EC1A0BB0EE4A0AF0EE6A0A0CF0D4F808
:100A9000B0EE409AF0EE609A51EC190B0CF072FE39
:100AA0004DF8240004EB440005EB800090ED000AB3
:100AB000684600EB8400D0ED000A80EE201A11EEAB
:100AC000106A04EB440005EB800090ED010A6846D3
:100AD00000EB8400D0ED000A80EE201A11EE107AAF
:100AE00004EB440005EB800090ED020A684600EB41
:100AF0008400D0ED000A80EE201AB0EE418AB1EEFB
:100B0000480A10EE100A0DF079FC41EC1A0B304641
:100B10000DF074FC41EC1B0BB0EE4A1AF0EE6A1AB1
:100B2000B0EE4B0AF0EE6B0A01F09EFFB0EE409A79
:100B3000F0EE609A51EC190B0CF024FE3D4901EBEC
:100B4000C40148603B4800EBC40090ED010A10EE80
:100B5000101A08460DF052FC41EC1F0BB0EE4F0A84
:100B6000F0EE6F0A0CF004F8B0EE40DAF0EE60DA66
:100B700030460DF043FC41EC1E0B53EC1D2B0CF0EA
:100B8000EFFE41EC1B0B38460DF038FC41EC1C0B22
:100B9000B0EE4B1AF0EE6B1AB0EE4C0AF0EE6C0AA7
:100BA00001F062FFB0EE40AAF0EE60AA51EC1A0B21
:100BB0000CF0DCFD41EC190B0CF0E4FD1D4941F893
:100BC0003400641C032CFFF632AF1B4890ED510A31
:100BD000D0ED530A30EE200AD0ED550A30EE200A4F
:100BE000F0EE080A80EE201A80ED571A90ED520AB6
:100BF000D0ED540A30EE200AD0ED560A30EE200A2D
:100C0000F0EE080A80EE201A80ED581A03B0BDEC11
:100C1000108BF0BD0000024000300140000802408F
:100C2000000000000000D040D02D00206666A343E5
:100C300000000020FC2C0020B82B002030B52DED4A
:100C4000088BBBB0002500240121880708F051FF64
:100C500001287CD10121800708F05CFFFC48006876
:100C6000401CFB490860FB480068401CF9490860CB
:100C7000F74890ED000AB8EE400AF1EE040AB4EE2F
:100C8000E00AF1EE10FA0CDB0020F14908600120C7
:100C9000F1490870F148D0F8E801401CEF49C1F86B
:100CA000E801002484E02046FFF747FC2046FFF7D8
:100CB00081FD2046FFF769FE13A901EB8400FFF7D1
:100CC000A5FE04EB440128AA02EBC100FFF764FD76
:100CD00004EB440116AA02EBC100FFF735FE002524
:100CE00052E004EB440028A901EBC00000EBC50072
:100CF00090ED002BB0EE420AF0EE620A04EB4400E5
:100D0000D74901EBC00000EBC50090ED002BB0EE21
:100D1000421AF0EE621A53EC102B51EC110B0CF04E
:100D200063FD04EB4402CE4B03EBC20202EBC502AF
:100D300003C204EB440016A901EBC00000EBC500A0
:100D400090ED002BB0EE420AF0EE620A00E0A0E265
:100D500004EB4400C34901EBC00000EBC50090ED7B
:100D6000002BB0EE421AF0EE621A53EC102B51EC4D
:100D7000110B0CF039FD04EB4402BA4B03EBC20239
:100D800002EBC50203C26D1C032DAADBB64800EBC3
:100D9000840090ED000A13A800EB8400D0ED000A57
:100DA00030EE200AB04800EB840080ED000A641C9D
:100DB000032CFFF678AF03F070FA10B913A803F014
:100DC0001BFAA4480068052870D14822A749684644
:100DD00009F02FFCA6480078401CA54908700020A7
:100DE0009C49086000245DE09F4800EB840090ED82
:100DF000000AF1EE040A80EE201A9E4800EB8400FF
:100E000080ED001A00254AE004EB4400944901EB10
:100E1000C00000EBC50090ED001BB0EE410AF0EE03
:100E2000610A9FED951B53EC112B51EC100B0CF04C
:100E300097FD04EB4403894A203202EBC30202EB24
:100E4000C50203C204EB4400864901EBC00000EB7D
:100E5000C50090ED001BB0EE410AF0EE610A9FED77
:100E6000861B53EC112B51EC100B0CF079FD41EC6F
:100E7000180B0CF087FC04EB44027E496C3901EB43
:100E8000820141F825009FED7E0B04EB440075497B
:100E900001EBC00000EBC50080ED000B6D1C032DC5
:100EA000B2DB641C032C9FDB002414E0F5E17148E5
:100EB00000EB8400D0ED000AB0EE600A204603F09B
:100EC000EDF8DFED710A80EE201A6A4800EB84002D
:100ED00080ED001A641C032CE9DB00242BE09FED5D
:100EE0006B0A614800EB840080ED000A00251FE0DA
:100EF00004EB44015948203000EBC10000EBC50071
:100F000090ED000B04EB44015448683000EBC10045
:100F100000EBC50080ED000B9FED590B04EB440086
:100F20004F4901EBC00000EBC50080ED000B6D1CCC
:100F3000032DDDDB641C032CD1DB00252DE0002418
:100F400028E005EB45014548683000EBC10000EBA7
:100F5000C40090ED001BB0EE410AF0EE610A0BF008
:100F600043FDB0EE408AF0EE608A9FED490B53ECF2
:100F7000102B51EC180B0CF00FFF0AD29FED400B19
:100F800005EB4500694601EBC00000EBC40080EDB5
:100F9000000B641C032CD4DB6D1C032DCFDB002560
:100FA0008DE005EB4500694601EBC00090ED022B9A
:100FB000B0EE420AF0EE620A05EB450001EBC0001C
:100FC00090ED002BB0EE421AF0EE621A53EC102BAB
:100FD00051EC110B0CF008FC41EC190B05EB450032
:100FE000694601EBC00090ED041BB0EE410AF0EE43
:100FF000610A53EC102B51EC190B0CF0F5FB41EC92
:10100000180B002458E09FED240B53EC102B51ECEF
:10101000180B0CF0FBFF43D205EB4500694601EBD2
:10102000C00000EBC40090ED001BB0EE410AF0EEF2
:10103000610A53EC182B51EC100B0CF091FC05EBF2
:1010400045026B4603EBC20202EBC40203C232E06C
:10105000040000201400002008000020B82B00200D
:10106000E02D0020282E0020702E002058E60008D9
:10107000090000201C2D002000000000000014408A
:1010800000000000000000000000C8420000000056
:101090007B14AE47E17A843FFCA9F1D24D62503F08
:1010A0001FED090B05EB4500694601EBC00000EBA5
:1010B000C40080ED000B641C032CA4DB6D1C032D0D
:1010C000FFF66FAF9DED042BB0EE420AF0EE620A20
:1010D000D04890ED262BB0EE421AF0EE621A53EC97
:1010E000102B51EC110B0CF093FE41EC180B9DED05
:1010F000022BB0EE420AF0EE620AC64890ED202BB9
:10110000B0EE421AF0EE621A53EC102B51EC110BB8
:101110000CF07EFE41EC1A0B9DED002BB0EE420A66
:10112000F0EE620ABB4890ED1A2BB0EE421AF0EED8
:10113000621A53EC102B51EC110B0CF069FE41ECD0
:101140001B0B53EC1A2B0CF04FFB41EC190B53EC1F
:10115000182B0CF049FBAF4AB03203C29DED0A2BAD
:10116000B0EE420AF0EE620AAA4890ED282BB0EEEB
:10117000421AF0EE621A53EC102B51EC110B0CF0EA
:1011800047FE41EC180B9DED082BB0EE420AF0EE45
:10119000620AA04890ED222BB0EE421AF0EE621ADD
:1011A00053EC102B51EC110B0CF032FE41EC1A0BEE
:1011B0009DED062BB0EE420AF0EE620A954890EDE6
:1011C0001C2BB0EE421AF0EE621A53EC102B51ECCD
:1011D000110B0CF01DFE41EC1B0B53EC1A2B0CF009
:1011E00003FB41EC190B53EC182B0CF0FDFA894A68
:1011F000B032C2E902019DED102BB0EE420AF0EED2
:10120000620A844890ED2A2BB0EE421AF0EE621A80
:1012100053EC102B51EC110B0CF0FAFD41EC180BB8
:101220009DED0E2BB0EE420AF0EE620A794890ED89
:10123000242BB0EE421AF0EE621A53EC102B51EC54
:10124000110B0CF0E5FD41EC1A0B9DED0C2BB0EEF3
:10125000420AF0EE620A6F4890ED1E2BB0EE421A81
:10126000F0EE621A53EC102B51EC110B0CF0D0FD88
:1012700041EC1B0B53EC1A2B0CF0B6FA41EC190B9A
:1012800053EC182B0CF0B0FA624AB032C2E90401F8
:1012900003E061A1634804F000FF3BB0BDEC088BA4
:1012A00030BD6148007870476048017821B1002066
:1012B0005E4A1070012070470020FCE75C4800681F
:1012C000704710B501215B4808F013FC01280ED1CE
:1012D00059480068012804D158480068401C574903
:1012E000086005F0BCF90121524808F013FC10BD5C
:1012F00001205149086000205049086070474F495B
:101300000968642201FB02F000214C4A11604A4A3C
:101310001160704710B50121494808F0EAFB012827
:1013200003D10121464808F0F5FB10BD10B501219D
:10133000444808F0DEFB012803D10121414808F0B0
:10134000E9FB10BD10B501213F4808F0D2FB012890
:1013500003D101213C4808F0DDFB10BD10B501218F
:101360003A4808F0C6FB012803D10121374808F0AC
:10137000D1FB10BD10B50121354808F0BAFB01289A
:1013800003D10121324808F0C5FB10BD10B540F271
:101390002551304808F073FE012804D140F2255150
:1013A0002C4808F0A3FE10BD10B540F225512A4884
:1013B00008F065FE012804D140F22551264808F0C6
:1013C00095FE10BD00BFFEE700B5FDB01148D0F896
:1013D000F001B0F5FA7F13D805F054F801200D495B
:1013E000C1F8EC010846D0F8F0014FF4F872103162
:1013F0007C90684609F01DF906480FC804F074FF98
:1014000000BFFEE700BFFEE700BFFEE700BFFEE74C
:1014100070477047B82B002054494D3220657272D6
:101420006F72000000100140090000200800002039
:1014300004000020001400400C00002010000020D8
:101440000000014000040140000C00400004004086
:10145000000800400050004000480040F8B500245B
:10146000002504F060F9064640F2051104F03BF94E
:1014700000BF43E000253EE004F0B0FEFA48C0683B
:1014800004EB44010844405D6B1C621CF7A1009012
:10149000FE4804F002FE002614E0F348006804EB66
:1014A000440101EB810100EB810005EB850100EBBC
:1014B000810000EB8600D0ED000AB0EE600A04F077
:1014C0006FFE761C052EE8DB04F088FE00260FE098
:1014D000E548006904EB440101EB8101084405EB98
:1014E00085010844825DEAA1E84804F0D6FD761C37
:1014F000052EEDDB6D1C032DBEDB641C032CB9DB5C
:1015000004F06CFE04F06AFE002408E0D64840694E
:10151000035D621CDFA1DD4804F0BFFD641C032CE9
:10152000F4DB04F05BFE002611E0721CDFA1D7485B
:1015300004F0B3FDCC48406800EB8600D0ED000A13
:10154000B0EE600A04F02CFE04F048FE761C032E78
:10155000EBDB04F043FE002611E0721CD8A1CB485F
:1015600004F09BFDC048806800EB8600D0ED000AC7
:10157000B0EE600A04F014FE04F030FE761C032E78
:10158000EBDBF8BD38B504F029FE002512E000249D
:101590000DE0B548C06805EB45010844005D631CDB
:1015A0006A1CB2A10090B94804F077FD641C032CBA
:1015B000EFDB6D1C032DEADB38BD10B504F00EFE29
:1015C000002411E0621CBEA1B04804F066FDA648EC
:1015D000806800EB8400D0ED000AB0EE600A04F0F1
:1015E000DFFD04F0FBFD641C032CEBDB10BD10B52C
:1015F00004F0F4FD002411E0621CACA1A34804F047
:101600004CFD9948406800EB8400D0ED000AB0EE34
:10161000600A04F0C5FD04F0E1FD641C032CEBDB63
:1016200010BD10B504F0DAFD002408E08E484069D2
:10163000035D621C97A1954804F02FFD641C032CE8
:10164000F4DB10BD70B5002425E0002520E004F097
:10165000C5FD6B1C621C9FA18C4804F01EFD00267A
:1016600013E08148006904EB440101EB8101084467
:1016700005EB85010844805D00EE900AF8EE600AF3
:10168000B0EE600A04F08CFD761C052EE9DB6D1CC3
:10169000032DDCDB641C032CD7DB70BD2DE9F0418E
:1016A0002DED048B06460F4692480068401C914978
:1016B00008600024002500BF33E100252DE1C4EBC4
:1016C000041000EB80008C4901EB401005EBC501D4
:1016D00001EB051100EB411090ED000ADFED870AE8
:1016E00080EE201A04EB440007EB800000EB85003D
:1016F00090ED000A30EE410A04EB440007EB800055
:1017000000EB850080ED000AC4EB041202EB8202BC
:10171000794B03EB421205EBC50303EB051302EB18
:101720004312111DC4EB041202EB8202724B03EB55
:10173000421205EBC50303EB051302EB43104FF414
:10174000477208F076FF04EB44016D4800EBC100DE
:1017500000EBC50090ED001BB0EE410AF0EE610A0F
:1017600051EC100B0CF00EF8C4EB041101EB8101ED
:10177000614A02EB411105EBC50202EB051201EBD8
:101780004211C1F81C03C4EB041202EB82025D4B50
:1017900003EB421205EBC50303EB051302EB431207
:1017A000111DC4EB041202EB8202564B03EB4212F2
:1017B00005EBC50303EB051302EB43104FF447722F
:1017C00008F037FFC4EB041000EB80004A4901EB3E
:1017D000401005EBC50101EB051100EB4110D0ED08
:1017E000C70A9FED461A80EE810A04EB440007EB1E
:1017F000800000EB8500D0ED000A30EE200A04EBFB
:10180000440007EB800000EB850080ED000A04EB4C
:10181000440007EB800000EB850090ED000A10EE1D
:10182000101A08460CF0EAFD41EC190B04EB4401D8
:10183000334800EBC10000EBC50090ED001BB0EE9B
:10184000410AF0EE610A53EC102B51EC190B0CF02D
:1018500013FC0BF097FFC4EB041101EB8101294A43
:1018600002EB411150E00000CC8700206779726FD5
:101870002025642061786973202564206368617283
:10188000744D6F64653A2025640D0A000010014014
:10189000256409006779726F202564207363616C89
:1018A000654D6F64653A2025640D0A00617869739F
:1018B000202564206D696E56616C75653A200000C4
:1018C000617869732025642076617258595A3A20EC
:1018D000000000006779726F2025642061786973C9
:1018E00020256420636861727453656C6563743A83
:1018F0000D0A0000180000209C4A00200000484308
:10190000D82B00207C2E002005EBC50202EB05122F
:1019100001EB4211C1F81C036D1C032DFFF6CFAE85
:10192000641C032CFFF6C9AEFE480068B0F5C87F02
:1019300004DA0020BDEC048BBDE8F0814FF4C870E0
:10194000F849086000245EE0002559E09FEDF60AA2
:1019500004EB440006EB800000EB850080ED000AFC
:10196000002034E004EB440106EB810101EB85012A
:1019700091ED000AC4EB041101EB8101EB4A02EB8B
:10198000411105EBC50202EB051201EB421101EB1F
:101990008001D1ED000AC4EB041101EB8101E34A9F
:1019A00002EB411105EBC50202EB051201EB4211FE
:1019B00001EB800191ED001A00EE810A04EB440175
:1019C00006EB810101EB850181ED000A401CC8286E
:1019D000C8DB04EB440006EB800000EB8500D0ED93
:1019E000000A1FED3A1A80EE810AF1EEC00A04EBFC
:1019F000440006EB800000EB8500C0ED000A6D1C82
:101A0000032DA3DB641C032C9EDB012092E7C84856
:101A10000068401CC649086008460068C5498842FD
:101A200001D200207047C448C14908600120F9E78D
:101A3000F0B52DED0C8BB5B0302128A808F02BFEA9
:101A40001822BE4922A808F0F4FD00201E901F9025
:101A500020902190B949183103C9CDE91C013021EA
:101A600010A808F018FE1822B44920310AA808F07E
:101A7000E0FD00200690079008900990AF493831AA
:101A800003C9CDE90401002700240025FFF7BFFFAB
:101A900020B9002035B0BDEC0C8BF0BDA849A94899
:101AA000FFF7FCFD08B90020F4E7002451E0002511
:101AB0004CE004EB4400A34A02EB800000EB8500FD
:101AC00090ED000AF1EE040A20EE200A10EE101A42
:101AD00008460CF093FC41EC180B04EB4400984AC8
:101AE00002EB800000EB850090ED000A10EE101A6A
:101AF00008460CF083FC41EC1B0B04EB44019248BC
:101B000000EBC10000EBC50090ED001BB0EE410AF8
:101B1000F0EE610A53EC102B51EC1B0B0CF0ACFAFD
:101B200041EC1A0BB0EE4A0AF0EE6A0A0AF05CFFCA
:101B3000B0EE409AF0EE609A53EC182B51EC190B72
:101B40000CF064FA01D20020A4E76D1C032DB0DB79
:101B5000641C032CABDB0024CEE07C4800EB84004B
:101B600090ED000A10EE101A08460CF047FC41EC0C
:101B7000180B9FED770B53EC102B0CF047FA7DD828
:101B8000724800EB840090ED000A10EE101A08462F
:101B90000CF034FC41EC180B9FED6F0B53EC102B49
:101BA0000CF0FAF86AD2694800EB840090ED000A64
:101BB00010EE101A08460CF021FC9FED650B53EC5B
:101BC000102B0CF031FB9FED660B53EC102B0CF03F
:101BD0001FF90BF0D7FD08EE100AB0EE480A0AF024
:101BE00077FFBDEEC00A10EE107AC4EB041000EBD4
:101BF00080005D4901EBC00050F82700E8B30025E4
:101C000038E004EB4401504800EBC10000EBC50094
:101C100090ED002BB0EE420AF0EE620AC4EB4410E5
:101C2000C0EB0420514901EB0010C5EB051101EB9D
:101C3000810100EB011000EBC70090ED002BB0EE2E
:101C4000421AF0EE621A53EC102B51EC110B0BF010
:101C5000CBFDC4EB4412C2EB0422444B03EB021253
:101C6000C5EB051303EB830302EB031202EBC70280
:101C700003C26D1C032DC4DB2AE000E03BE000251D
:101C80001AE004EB4401304800EBC10000EBC50052
:101C900090ED000BC4EB4410C0EB0420334901EB82
:101CA0000010C5EB051101EB810100EB011000EB09
:101CB000C70080ED000B6D1C032DE2DB0020C4EBA0
:101CC000041101EB8101284A02EBC10141F8270010
:101CD000C4EB041000EB8000234901EBC00050F876
:101CE0002700401CC4EB041101EB81011E4A02EBEA
:101CF000C10141F82700641C032CFFF62EAF1C48DD
:101D00000068401C1A49086008460068C82858D175
:101D1000002008600C482038D0ED590AB0EE600A67
:101D200028E0000018000020000000007C2E0020A9
:101D30001C000020407E050020AD0500A0E6000844
:101D4000E86D0020C46D0020D82B00201C2D002041
:101D5000666666666666D63F34A2B437F8C2DC3F74
:101D60000000000000408F40BC66002020000020E2
:101D7000502A002004F014FAFE48D0ED020AB0EE1A
:101D8000600A04F00DFAFC48D0ED5A0AB0EE600A81
:101D900004F006FAF748D0ED050AB0EE600A04F048
:101DA000FFF9F548D0ED5B0AB0EE600A04F0F8F9EF
:101DB000F048D0ED080AB0EE600A04F0F1F904F042
:101DC0000DFA0024C1E20021204602F0A0FB032806
:101DD0007DD100200190029003902246E7A1EB48BC
:101DE00004F05BF9002655E1C4EB041000EB800021
:101DF000E74901EBC00050F82600002868D03046C3
:101E00000BF09FFF9FEDE30B53EC102B0BF0ECFC62
:101E10001FED2D0B53EC102B0BF0A2FD41EC180B1A
:101E2000C4EB041101EB8101D94A02EBC10151F865
:101E300026000BF09DFF53EC182B0BF0E9FF41EC53
:101E4000190B1CA800EBC40090ED001BB0EE410A7A
:101E5000F0EE610A53EC102B51EC190B0BF0C4FCA3
:101E60001CAA02EBC40203C2C4EB041101EB810102
:101E7000C74A02EBC10151F826000BF079FF53EC81
:101E8000182B0BF0C5FF53EC182B0BF0C1FF41ECE6
:101E9000190B04A800EBC40090ED001BB0EE410A42
:101EA000F0EE610A53EC102B51EC190B0BF09CFC7B
:101EB00004AA02EBC40203C2C4EB041000EB8000CE
:101EC000B34901EBC00050F8260001A901E03BE254
:101ED000ACE051F82410084401A941F82400002581
:101EE000A0E0C4EB4410C0EB0420AC4901EB0010AF
:101EF000C5EB051101EB810100EB011000EBC60001
:101F000090ED001BB0EE410AF0EE610A53EC182B85
:101F100051EC100B0BF07CFF41EC190B04EB44006F
:101F200022A901EBC00000EBC50090ED001BB0EE54
:101F3000410AF0EE610A53EC102B51EC190B0BF037
:101F400053FC04EB440222AB03EBC20202EBC502DA
:101F500003C2C4EB4410C0EB0420904901EB001015
:101F6000C5EB051101EB810100EB011000EBC60090
:101F700090ED002BB0EE420AF0EE620A04EB440052
:101F80000AA901EBC00000EBC50090ED002BB0EEFC
:101F9000421AF0EE621A53EC102B51EC110B0BF0BD
:101FA00023FC04EB44020AAB03EBC20202EBC502C2
:101FB00003C2C4EB041101EB8101754A02EBC101BC
:101FC00051F826000BF0D4FE41EC190BC4EB441081
:101FD000C0EB0420714901EB0010C5EB051101EBCA
:101FE000810100EB011000EBC60090ED001BB0EE8C
:101FF000410AF0EE610A53EC192B51EC100B0BF077
:10200000AFFCC4EB4412C2EB0422644B03EB02129C
:10201000C5EB051303EB830302EB031202EBC602CD
:1020200003C26D1C032DFFF65CAF32E00020C4EB51
:10203000041101EB8101564A02EBC10141F826006F
:102040009FED570BC4EB4410C0EB0420534901EB48
:10205000001000EBC60080ED000B9FED510BC4EBB0
:102060004410C0EB042001EB001000F5966000EB7B
:10207000C60080ED000B9FED4A0BC4EB4410C0EB93
:10208000042001EB001000F5166000EBC60080EDA7
:10209000000B761C962EFFF6A7AE0025E7E0042184
:1020A000084637E0404A126804EB440303EB83031D
:1020B00002EB830205EB850302EB830202EB800255
:1020C00052F8041C21F00042C2F1FF42D20FFAB9CB
:1020D0003549096804EB440202EB820201EB8201FC
:1020E00005EB850201EB820101EB800111ED010A94
:1020F0002D49096804EB440202EB820201EB8201E4
:1021000005EB850201EB820101EB800181ED000A04
:10211000411E08460028C5DC1CA800EBC40090ED59
:10212000002BB0EE420AF0EE620A1CA800EBC400DD
:1021300090ED002BB0EE421AF0EE621A53EC102B29
:1021400051EC110B0BF064FE41EC1B0B01A951F893
:1021500024000BF0F6FD41EC1D0B04A800EBC400BD
:1021600090ED001BB0EE410AF0EE610A53EC102B2B
:102170001CE00000C46D0020B82B00200D0A666929
:102180006E697368202564200D0A2000001001404C
:10219000BC6600200000000000E075402000002028
:1021A0000000000000000000CC87002051EC1D0B57
:1021B0000BF02EFE41EC1C0B53EC1B2B0CF034F8F7
:1021C00041EC190B04EB44000AA901EBC00000EB41
:1021D000C50090ED002BB0EE420AF0EE620A1CA89A
:1021E00000EBC40090ED002BB0EE421AF0EE621A44
:1021F00053EC102B51EC110B0BF00AFE41EC1B0BB6
:1022000001A951F824000BF09CFD41EC1D0B04EBDF
:10221000440022A901EBC00000EBC50090ED001BBB
:10222000B0EE410AF0EE610A53EC102B51EC1D0B9D
:102230000BF0EEFD41EC1C0B53EC1B2B0BF0F4FFF1
:1022400041EC1A0B53EC192B0BF08AFB41EC180BE9
:102250000BF098FA7E49096804EB440202EB820213
:1022600001EB820105EB850241F822006D1C032D74
:10227000FFF615AF0121204602F049F903F053FAA9
:10228000064640F2051103F0EAF972A1764803F020
:1022900004FFFFF7E3F8002646E01FED3F0B1CA804
:1022A00000EBC40080ED000B1FED430B04A800EB16
:1022B000C40080ED000B0020C4EB041101EB810190
:1022C0006A4A02EBC10141F82600002529E01FED12
:1022D0004C0BC4EB4410C0EB0420654901EB00102B
:1022E000C5EB051101EB810100EB011000EBC6000D
:1022F00080ED000B1FED560B04EB440022A901EB0F
:10230000C00000EBC50080ED000B1FED5B0B04EB84
:1023100044000AA901EBC00000EBC50080ED000BF2
:102320006D1C032DD3DB761C9FED520A0AF0D0FB07
:10233000F0EE400A00EE106AB8EEC00AF4EEC00AF1
:10234000F1EE10FAA9DC00BF641C032CFFF63BADD4
:102350000120FFF79FBB70B52DED028B86B00546BF
:102360000E46B0EE408A142243A101A808F061F99C
:102370003446002059E0B0EE000AC8EE000AB6EE7E
:10238000000A30EE800ABDEEC00AB8EEC00AF0EED8
:10239000000A20EE200AB4EEC80AF1EE10FA01DDC0
:1023A000002814DCF0EE000A88EE200AF6EE000A9F
:1023B00030EE200ABDEEC00AB8EEC00AF0EE000A08
:1023C00020EE200AB4EE480AF1EE10FA15D1F0EE34
:1023D000000A88EE200AF6EE000A30EE200ABDEE72
:1023E000C00A10EE101A2944091A11F8011C01AA9A
:1023F00002EB2111097804F8011BB0EE000AC8EEC7
:10240000000AB6EE000A30EE800ABDEEC00A10EEF9
:10241000101A2944091A11F8011C01F00F0101AA30
:10242000515C04F8011B411CC8B2B0EE000AC8EEB2
:10243000000AB6EE000A30EE800ABDEEC00A10EEC9
:10244000101A814297DC06B0BDEC028B70BD000013
:10245000CC870020466C6173682055706461746598
:1024600020656E640D0A000000100140BC6600206B
:10247000200000200000C842303132333435363776
:1024800038394142434445460000000013B5DDE9B8
:1024900000200AB1012200E0002240EA020121F0FE
:1024A0000040FE4A101AC00F1CBD01460A880120D8
:1024B00006E031F81030934201DD31F81020401C65
:1024C0000528F6DB1046704701460A88012006E021
:1024D00031F81030934201DA31F81020401C052801
:1024E000F6DB1046704770B52DED028B002003F02F
:1024F00052FBEB49A1F8D801012003F04CFBE8495D
:10250000A1F8DA0100200CE0E64A411C32F8111073
:1025100022F81010E44A411C32F8111022F8101071
:10252000401C0428F0DBDE48B0F8D801DD49088102
:10253000DB48B0F8DA01DC490881DA48FFF7C4FF6C
:102540000646D848FFF7B1FF351A002D01DB2846B3
:1025500000E0684201282CDCD348FFF7B5FF0646AF
:10256000D148FFF7A2FF341A002C01DB204600E01F
:10257000604201281DDCCA4890ED361BB0EE410ACE
:10258000F0EE610A0AF030FAB0EE408AF0EE608AAE
:102590009FEDC60B53EC102B51EC180B0BF0FCFB12
:1025A00002D3C448007820B10120BD49C1F8F4012C
:1025B00003E00020BA49C1F8F401BDEC028B70BD04
:1025C00030B52DED028B87B0FFF78DFFB448D0F802
:1025D000F401002864D0B7480078012803D1B64838
:1025E0000068C8285CD0B4480068401CB249086044
:1025F00008460068C82819DC002014E0A849B0315A
:1026000001EBC00191ED000B00EBC00101EB0011EB
:10261000AA4A02EB8112A8490968491E02EBC101CE
:1026200081ED000B401C0328E8DBA7E0A24800680E
:10263000C828FADDC820A049086000202DE000214C
:1026400017E000EBC00202EB00129C4B03EB82137D
:102650004A1C03EBC20292ED000B00EBC00202EB3E
:102660000012964B03EB821202EBC10282ED000BCB
:10267000491CC729E5DB8A49B03101EBC00191ED66
:10268000000B00EBC00101EB00118C4A02EB811141
:1026900001F5806181ED8E0B401C0328CFDB6DE0DE
:1026A0001821684607F0F7FF8348006814284ADBC2
:1026B000002080490870002443E0002522E004EB5C
:1026C000C40000EB04107D4901EB801000EBC50055
:1026D00090ED002BB0EE420AF0EE620A684600EB85
:1026E000C40090ED002BB0EE421AF0EE621A53ECEB
:1026F000102B51EC110B0BF077F86A4602EBC40279
:1027000003C26D1C6C4800688542D8DB6A480068CB
:102710000BF017FB41EC180B684600EBC40090ED82
:10272000001BB0EE410AF0EE610A53EC182B51EC9D
:10273000100B0BF015F95A4AE03202EBC40203C247
:10274000641C032CB9DB002012E000210DE09FED9A
:102750005C0B00EBC00202EB0012584B03EB821241
:1027600002EBC10282ED000B491CC829EFDB401CC3
:102770000328EADB00205049086000BF07B0BDEC29
:10278000028B30BD10B5464890ED2C0B80ED320B1E
:1027900090ED2E0B80ED340B90ED300B80ED360B71
:1027A000D0F8F80118B140F6B930474908604648FA
:1027B0000068401C4449086002F00BFF00F0020072
:1027C000E8B341480068B0F5C87F49DD344890ED72
:1027D000382BB0EE420AF0EE620A90ED322BB0EEEA
:1027E000421AF0EE621A53EC102B51EC110B0BF065
:1027F0001BFD2B4AC83203C2294890ED3A2BB0EE9C
:10280000420AF0EE620A90ED342BB0EE421AF0EE7E
:10281000621A53EC102B51EC110B0BF005FD204A02
:10282000C832C2E902011E4890ED3C2BB0EE420ACC
:10283000F0EE620A90ED362BB0EE421A00E00FE0A7
:10284000F0EE621A53EC102B51EC110B0BF0ECFC78
:10285000134AC832C2E90401FFF7B2FE012010BDDD
:102860000020FCE700B52DED028B87B018216846EB
:1028700007F011FF0A4890ED320B8DED000B90ED43
:10288000340B8DED020B90ED360B8DED040B9DEDB1
:10289000001BB0EE410AF0EE610A17E00000F07F85
:1028A000B82B0020106E00201A6E0020000000409F
:1028B0003333C33F5C2A0020642A0020286E0020A6
:1028C0000000000000000000602A00200AF08CF8E0
:1028D000B0EE408AF0EE608A9FEDFE0B53EC102BB9
:1028E00051EC180B0BF058FA03D21FED0B0B8DEDCA
:1028F000000B9DED021BB0EE410AF0EE610A0AF0FA
:1029000073F8B0EE408AF0EE608A9FEDF20B53EC64
:10291000102B51EC180B0BF03FFA03D21FED180BE4
:102920008DED020B9DED041BB0EE410AF0EE610A45
:102930000AF05AF8B0EE408AF0EE608A9FEDE50B9F
:1029400053EC102B51EC180B0BF026FA03D21FEDB1
:10295000240B8DED040B9DED041BB0EE410AF0EE4F
:10296000610A9FEDDE1B53EC112B51EC100B0BF0A9
:102970004FFA41EC180BDB4890ED701BB0EE410AAA
:10298000F0EE610A53EC102B51EC180B0AF02CFFFF
:10299000D54AC2E90401D34890ED701BB0EE410A5C
:1029A000F0EE610A9FEDD11B53EC112B51EC100B93
:1029B0000BF02CFB12D2CB4890ED701BB0EE410A0D
:1029C000F0EE610A9FEDCB1B53EC112B51EC100B79
:1029D0000BF02AFCC44AC2E9040121E0C14890ED91
:1029E000701BB0EE410AF0EE610A9FEDC41B53EC80
:1029F000112B51EC100B0BF0CFF911D2B94890ED1F
:102A0000701BB0EE410AF0EE610A9FEDBA1B53EC69
:102A1000112B51EC100B0AF0E7FEB34AC2E9040196
:102A200007B0BDEC028B00BD00B52DED028B83B06D
:102A3000B0EE408A9FEDB30A8DED000A9FEDB10A1A
:102A40008DED010ADFEDB00A88EE200ADFEDAF0A56
:102A500020EE200A8DED020AA249684603F0E3FE4B
:102A600003B0BDEC028B00BD70B52DED068B82B0BE
:102A7000B0EE408AF0EE608AB0EE419AF0EE619AD4
:102A8000002651EC190BFFF701FD08B1012621E0EA
:102A900053EC192B51EC180B0AF062FF41EC1A0BA6
:102AA000FFF7F4FCB0B11FED7A0B53EC102B51EC97
:102AB000180B0BF0ABFA01D202260BE01FED800BD6
:102AC00053EC102B51EC180B0BF066F901D20326D6
:102AD00000E00426002E4ED000F0F9FF18B100F0FF
:102AE000F6FF054603E000BFEFF30880054610350A
:102AF000324687A1894803F0D0FA0020019088A2CD
:102B000088A1864803F0C9FA032416E0291901F1C7
:102B10001C00B0EE000A01A9FFF71DFC01AA81A16B
:102B20007E4803F0BAFAE11704EB91718910A4EB27
:102B3000810109B903F052FB641E14F11C0FE5DAA0
:102B400003F04CFB012E06D0022E0AD0032E0BD030
:102B5000042E0FD10BE01FEDA60B02B0BDEC068BCF
:102B600070BD9FED710BF8E79FED710BF5E71FED61
:102B7000AC0BF2E70AE0B0EE491AF0EE691AB0EEDB
:102B8000480AF0EE680A09F0B7FDE6E7B0EE491A28
:102B9000F0EE691AB0EE480AF0EE680A09F0ACFDF2
:102BA000DBE770B52DED108B84B000200190029012
:102BB00003909FED540AB0EE408A00240FE104EB2D
:102BC00044024948943800EB820090ED000A20EE60
:102BD000000A04EB44024448943800EB8200D0ED34
:102BE000010A04EB44024048943800EB820090ED67
:102BF000011A00EE810A04EB44023B48943800EBD2
:102C00008200D0ED020A04EB44023748943800EB0E
:102C1000820090ED021A00EE810A10EE101A0846AA
:102C20000BF0ECFB41EC1A0BB0EE4A0AF0EE6A0A2C
:102C30000AF002F8B0EE409AF0EE609A51EC190BEF
:102C40000AF0A0FD01A941F8240004EB4401264844
:102C5000943800EB810090ED000A01A800EB84009D
:102C6000D0ED000A80EE201A11EE105A04EB440158
:102C70001D48943800EB810090ED010A01A800EB9B
:102C80008400D0ED000A80EE201A11EE106A04EBE9
:102C900044011548943800EB810090ED020A01A828
:102CA00000EB8400D0ED000A80EE201AF0EE418A9D
:102CB000B1EE680A10EE100A0BF0A0FB41EC1A0B03
:102CC00028460BF09BFB41EC1B0BB0EE4A1AF0EED2
:102CD0006A1A31E0000000403333D33F7B14AE4723
:102CE000E17A743FB82B0020682D0020000000001E
:102CF0000080664000000000008076400000000078
:102D0000008066C00000000000003443DB0F494033
:102D100074616E4661756C7420256400001001407A
:102D200030780000257300004AD8124DFB21F93F8E
:102D30004AD8124DFB21F9BFB0EE4B0AF0EE6B0AF8
:102D4000FFF792FEB0EE409AF0EE609A51EC190B4C
:102D50000AF018FDFE4901EBC4014860FC4800EB95
:102D6000C40090ED010A10EE101A08460BF046FB65
:102D700041EC1F0BB0EE4F0AF0EE6F0A09F0F8FEBF
:102D8000B0EE40DAF0EE60DA28460BF037FB41ECAB
:102D90001E0B53EC1D2B0AF0E3FD41EC1B0B3046E0
:102DA0000BF02CFB41EC1C0BB0EE4B1AF0EE6B1A47
:102DB000B0EE4C0AF0EE6C0AFFF756FEB0EE40AAF9
:102DC000F0EE60AA51EC1A0B0AF0D0FC41EC190BA2
:102DD0000AF0D8FC0146DE4840F83410641C032C8D
:102DE000FFF6EDAEDB4890ED510AD0ED530A30EE20
:102DF000200AD0ED550A30EE200AF0EE080A80EEE7
:102E0000201A80ED571A90ED520AD0ED540A30EE98
:102E1000200AD0ED560A30EE200AF0EE080A80EEC5
:102E2000201A80ED581A00201FE000211AE000EB64
:102E30004003C74A283A02EB830202EB8102D2ED3B
:102E4000000A00EB4003C24A283A02EB830202EB7D
:102E5000810292ED001AB0EE480A00EE810AB0EE4F
:102E6000408A491C0329E2DB401C0328DDDBB9480A
:102E700090ED500A38EE400A10EE101A08460BF09A
:102E8000BDFA41EC1A0BB0EE4A0AF0EE6A0A09F0FC
:102E9000ABFDB0EE409AF0EE609A9FEDAF0B53ECB5
:102EA000102B51EC190B0AF077FF04D2012004B06B
:102EB000BDEC108B70BD0020F9E730B589B024213E
:102EC000684607F0E8FB0024A2E000259CE0A44847
:102ED000C06804EB44010844405D10B101282AD1C8
:102EE00028E004EB4400694601EB800050F825001F
:102EF000401C04EB44016A4602EB810141F82500C5
:102F000004EB4400974901EBC00000EBC50090EDD5
:102F1000001BB0EE410AF0EE610A51EC100B0AF012
:102F200031FC04EB44028A49443101EB820141F84F
:102F3000250000E000BF00BF002041E0884909698A
:102F400004EB440202EB8202114405EB85021144BA
:102F5000095CA1B304EB44016A4602EB810151F81C
:102F60002510491C04EB44026B4603EB820242F835
:102F7000251004EB44027649443101EB820101EB58
:102F8000850191ED000A7649096804EB440202EBE1
:102F9000820201EB820105EB850201EB820101EB6C
:102FA0008001D1ED000A30EE200A04EB44026849AA
:102FB000443101EB820101EB850181ED000A401CE7
:102FC0000528BBDB04EB44016148443000EB810081
:102FD00000EB8500D0ED000A04EB4400694601EBEC
:102FE000800050F8250000EE100AB8EEC00A80EE0E
:102FF000801A04EB44015648443000EB810000EB9A
:10300000850080ED001A6D1C032DFFF660AF641C77
:10301000032CFFF65AAF09B030BD70B52DED068B0D
:1030200082B0B0EE408A002618EE100A20F000416F
:10303000C1F1FF41C90F09B1012610E0B7EE000A46
:10304000B4EEC08AF1EE10FA01DB022607E0BFEE13
:10305000000AB4EEC08AF1EE10FA00D80326002E62
:103060004CD000F034FD18B100F031FD054603E00E
:1030700000BFEFF308800546103532463AA13D48BF
:1030800003F00BF800200190AFF26C32AFF26C311C
:10309000384803F002F8032417E0291901F11C0055
:1030A000B0EE000A01A9FFF756F901AAAFF28C3180
:1030B000304802F0F2FFE11704EB91718910A4EBA4
:1030C000810109B903F08AF8641E14F11C0FE4DAD7
:1030D00003F084F8012E04D0022E08D0032E0CD168
:1030E00008E01FEDF80A02B0BDEC068B70BD9FED45
:1030F000220AF8E79FED210AF5E716E018EE100A1C
:103100000BF07CF941EC1A0BB0EE4A0AF0EE6A0AB9
:1031100008F0D6FFB0EE409AF0EE609A51EC190B31
:103120000AF030FB00EE100ADDE718EE100A0BF093
:1031300065F941EC1A0BB0EE4A0AF0EE6A0A08F0A3
:10314000BFFFB0EE409AF0EE609A51EC190B17E019
:10315000FC2C0020B82B0020FA7E6ABC7493683FD8
:10316000CC870020E0E6000873696E4661756C74D8
:103170002025640000100140DA0FC93FDA0FC9BFF3
:103180000AF000FB00EE100AADE710B52DED0C8B38
:10319000B0EE408AF0EE608AFE48806890ED020A48
:1031A00010EE101A08460BF029F941EC1B0B9FEDAD
:1031B000FA0BB0EE40AAF0EE60AAF94890ED000BD1
:1031C000B0EE409AF0EE609AC422F649A1F10800F0
:1031D00007F02FFA53EC192B51EC180B0BF024F8D5
:1031E000F04A083A02F5C47203C29FEDEB0BB0EE51
:1031F00040AAF0EE60AA002422E0EA48083800EB7A
:10320000C40090ED002BB0EE420AF0EE620AE548F1
:10321000083800EBC40090ED002BB0EE421AF0EE3F
:10322000621A53EC102B51EC110B0AF0F1FD41EC3A
:103230001C0B53EC1A2B0AF0D7FA41EC1A0B641C46
:10324000322CDADB9FEDD80B53EC102B51EC1A0B20
:103250000AF086FB41EC1A0BD5480068401CD449A3
:1032600008600846006864280FD2D24890ED000B31
:1032700053EC102B51EC180B0AF0B6FACD4A03C2EE
:103280009FEDC50BBDEC0C8B10BDC94800686428D0
:103290000DD19FEDC90B53EC102BC64890ED000BE0
:1032A00051EC100B0AF05CFB41EC190B02E06520BD
:1032B000BF490860C24890ED000B53EC102BC14889
:1032C00090ED000B51EC100B0AF08EFABE4A03C2CF
:1032D00053EC1B2BBC4890ED000B51EC100B0AF08B
:1032E00083FA41EC1C0B53EC1C2BB74890ED000B00
:1032F00051EC100B0AF034FBB44A03C253EC192B07
:1033000051EC180B0AF090FF41EC1D0BAF4890ED0B
:10331000000B53EC102B51EC1D0B0AF079FD41EC26
:103320001C0B53EC192B0AF05FFA9D4A03C2A74805
:1033300090ED000B53EC102B9FEDA50B51EC100BF7
:103340000AF072FF41EC1C0B9F4890ED000B53EC10
:10335000102B51EC1C0B0AF05BFD9A4A03C29B48F0
:1033600090ED000B53EC102B90ED000B51EC100B7B
:103370000AF04EFD41EC1C0B53EC1A2B0AF048FDF1
:103380008F4A03C29FED940B53EC102B8F4890EDA6
:10339000000B51EC100B0AF039FE02D2804880ED90
:1033A000008B7F4890ED000B6CE710B52DED0C8B7A
:1033B000B0EE408AF0EE608A7648806890ED020AAE
:1033C00010EE101A08460BF019F841EC1B0B9FED9C
:1033D000720BB0EE40AAF0EE60AA814890ED000BAF
:1033E000B0EE409AF0EE609AC4227E49A1F1080046
:1033F00007F01FF953EC192B51EC180B0AF014FFCE
:10340000784A083A02F5C47203C29FED630BB0EE2E
:1034100040AAF0EE60AA002422E07248083800EBCF
:10342000C40090ED002BB0EE420AF0EE620A6D4847
:10343000083800EBC40090ED002BB0EE421AF0EE1D
:10344000621A53EC102B51EC110B0AF0E1FC41EC29
:103450001C0B53EC1A2B0AF0C7F941EC1A0B641C35
:10346000322CDADB9FED500B53EC102B51EC1A0B86
:103470000AF076FA41EC1A0B5B480068401C5A4986
:1034800008600846006864280FD2584890ED000B89
:1034900053EC102B51EC180B0AF0A6F9534A03C257
:1034A0009FED3D0BBDEC0C8B10BD4F4800686428B0
:1034B0000DD19FED410B53EC102B4C4890ED000BC0
:1034C00051EC100B0AF04CFA41EC190B02E06520AC
:1034D00045490860464890ED000B53EC102B4548D9
:1034E00090ED000B51EC100B0AF07EF9424A03C23A
:1034F00053EC1B2B404890ED000B51EC100B0AF0E5
:1035000073F941EC1C0B53EC1C2B3B4890ED000B6A
:1035100051EC100B0AF024FA384A03C253EC192B71
:1035200051EC180B0AF080FE41EC1D0B334890ED76
:10353000000B53EC102B51EC1D0B0AF069FC41EC15
:103540001C0B53EC192B0AF04FF9254A03C22B48E8
:1035500090ED000B53EC102B9FED1D0B51EC100B5D
:103560000AF062FE41EC1C0B234890ED000B53EC7B
:10357000102B51EC1C0B0AF04BFC1E4A03C21F48D7
:1035800090ED000B53EC102B90ED000B51EC100B59
:1035900036E00000CC8700200000000000000000A2
:1035A000682A0020F0800020000000000000494050
:1035B000982A0020902A00200000000000C05840F7
:1035C000882A0020702A0020782A0020802A0020E3
:1035D000000000000000F03F000000000000E03F9D
:1035E000A02A002080820020D02A0020C82A0020A3
:1035F000C02A0020A82A0020B02A0020B82A0020D3
:103600000AF006FC41EC1C0B53EC1A2B0AF000FCF0
:10361000FE4A03C21FED100B53EC102BFC4890ED3B
:10362000000B51EC100B0AF0F1FC02D2F94880EDCE
:10363000008BF84890ED000B34E710B52DED0C8BA6
:10364000B0EE408AF0EE608AF348806890ED000AA0
:1036500010EE101A08460AF0D1FE41EC1B0B1FEDCC
:10366000320BB0EE40AAF0EE60AAEC4890ED000BF1
:10367000B0EE409AF0EE609A4FF4C472E849A1F1BE
:10368000080006F0D6FF53EC192B51EC180B0AF08A
:10369000CBFDE34A083A02F5C47203C21FED420BA8
:1036A000B0EE40AAF0EE60AA002422E0DC48083820
:1036B00000EBC40090ED002BB0EE420AF0EE620A7F
:1036C000D748083800EBC40090ED002BB0EE421A4A
:1036D000F0EE621A53EC102B51EC110B0AF098FB30
:1036E00041EC1C0B53EC1A2B0AF07EF841EC1A0B40
:1036F000641C322CDADB1FED540B53EC102B51EC15
:103700001A0B0AF02DF941EC1A0BC6480068401C50
:10371000C44908600846006864280FD2C24890ED8A
:10372000000B53EC102B51EC180B0AF05DF8BE4A5D
:1037300003C21FED670BBDEC0C8B10BDB9480068D0
:1037400064280DD11FED640B53EC102BB64890ED9F
:10375000000B51EC100B0AF003F941EC190B02E0DD
:103760006520B0490860B14890ED000B53EC102B78
:10377000AF4890ED000B51EC100B0AF035F8AD4A54
:1037800003C253EC1B2BAB4890ED000B51EC100B1C
:103790000AF02AF841EC1C0B53EC1C2BA54890EDC9
:1037A000000B51EC100B0AF0DBF8A34A03C253ECF8
:1037B000192B51EC180B0AF037FD41EC1D0B9E48FC
:1037C00090ED000B53EC102B51EC1D0B0AF020FB7D
:1037D00041EC1C0B53EC192B0AF006F88F4A03C27C
:1037E000954890ED000B53EC102B1FED870B51EC1F
:1037F000100B0AF019FD41EC1C0B8E4890ED000BEC
:1038000053EC102B51EC1C0B0AF002FB884A03C24C
:10381000894890ED000B53EC102B90ED000B51EC10
:10382000100B0AF0F5FA41EC1C0B53EC1A2B0AF0C2
:10383000EFFA7E4A03C21FED980B53EC102B7E4823
:1038400090ED000B51EC100B0AF0E0FB02D2734834
:1038500080ED008B714890ED000B6CE710B52DEDFD
:103860000C8BB0EE408AF0EE608A6B48806890ED79
:10387000010A10EE101A08460AF0C0FD41EC1B0BBD
:103880001FEDBB0BB0EE40AAF0EE60AA6B4890EDC6
:10389000000BB0EE409AF0EE609AC4226849A1F1A4
:1038A000080006F0C6FE53EC192B51EC180B0AF079
:1038B000BBFC634A083A02F5C47203C21FEDCA0B8F
:1038C000B0EE40AAF0EE60AA002422E05C4808387E
:1038D00000EBC40090ED002BB0EE420AF0EE620A5D
:1038E0005748083800EBC40090ED002BB0EE421AA8
:1038F000F0EE621A53EC102B51EC110B0AF088FA1F
:1039000041EC1C0B53EC1A2B09F06EFF41EC1A0B27
:10391000641C322CDADB1FEDDC0B53EC102B51EC6A
:103920001A0B0AF01DF841EC1A0B46480068401CBF
:10393000444908600846006864280FD2424890ED68
:10394000000B53EC102B51EC180B09F04DFF3E4AC5
:1039500003C21FEDEF0BBDEC0C8B10BD39480068A6
:1039600064280DD11FEDEC0B53EC102B364890ED75
:10397000000B51EC100B09F0F3FF41EC190B02E0C6
:10398000652030490860314890ED000B53EC102B56
:103990002F4890ED000B51EC100B09F025FF2D4A3C
:1039A00003C253EC1B2B2B4890ED000B51EC100B7A
:1039B00009F01AFF41EC1C0B53EC1C2B254890ED31
:1039C000000B51EC100B09F0CBFF234A03C253EC60
:1039D000192B51EC180B0AF027FC41EC1D0B1E486B
:1039E00090ED000B53EC102B51EC1D0B0AF010FA6C
:1039F00041EC1C0B53EC192B09F0F6FE0F4A03C2E5
:103A0000154890ED000B53EC102B27E0C02A002046
:103A1000B82A0020A02A0020CC870020D82A002025
:103A200010840020082B0020002B0020F82A002002
:103A3000E02A0020E82A0020F02A0020102B002095
:103A4000A0850020402B0020382B0020302B0020A8
:103A5000182B0020202B0020282B00209FED1D0B71
:103A600051EC100B0AF0E0FB41EC1C0B1B4890EDF5
:103A7000000B53EC102B51EC1C0B0AF0C9F9184A3F
:103A800003C2184890ED000B53EC102B90ED000B87
:103A900051EC100B0AF0BCF941EC1C0B53EC1A2B47
:103AA0000AF0B6F9104A03C29FED100B53EC102B2D
:103AB0000C4890ED000B51EC100B0AF0A7FA02D263
:103AC0000C4880ED008B0B4890ED000B43E7EFF3C3
:103AD00009807047000000000000F03F202B00200C
:103AE000182B0020282B0020302B00200000000085
:103AF0000000E03F102B002000B52DED0A8B8BB0AD
:103B0000002008900990049005900690079000907E
:103B10000190029003909FEDFE0BB0EE408AF0EE14
:103B2000608AFD48D0F8F80110B10420FB49087004
:103B3000FA480078032813DCF748B0F8D801F649B2
:103B4000A1F8DC010846B0F8DA11A0F8DE11002077
:103B500008900990F1480078401CF049087019E07D
:103B6000ED48B0F8D801EC49B1F8DC11401A0890E2
:103B7000E948B0F8DA11B0F8DE01081A0990E64811
:103B8000B0F8D801E449A1F8DC010846B0F8DA1130
:103B9000A0F8DE110898B0F5006F03DD0898A0F5D5
:103BA00080500890089810F5006F03DA089800F527
:103BB000805008900998B0F5006F03DD0998A0F5D2
:103BC00080500990099810F5006F03DA099800F504
:103BD00080500990D04890ED700BB0EE408AF0EE26
:103BE000608ACF4890ED000B53EC102B51EC180B72
:103BF0000AF01AFB41EC190B9FEDCA0B53EC102B8A
:103C00000AF004FA1CD29FEDC90B53EC102B51ECB7
:103C1000180B0AF009FB41EC1A0BC14890ED000BA0
:103C200053EC102B51EC1A0B09F0DEFD41EC190B93
:103C30009FEDC00B53EC102B09F092FE41EC180BDA
:103C4000B74890ED000B53EC102B51EC180B0AF019
:103C5000EBFA41EC190B9FEDB90B53EC102B0AF06A
:103C60009BF81CD29FEDB10B53EC102B51EC180BB1
:103C700009F0BAFD41EC1A0BA94890ED000B53EC8A
:103C8000102B51EC1A0B09F0AFFD41EC190B9FED15
:103C9000A90B53EC102B09F063FE41EC180B9FEDC0
:103CA000A10B53EC102B51EC180B0AF0AFF90AD210
:103CB0009FED9E0B53EC102B51EC180B0AF0B4FA4D
:103CC00041EC180B12E09FED9D0B53EC102B51ECC7
:103CD000180B0AF061F809D29FED940B53EC102BEE
:103CE00051EC180B09F080FD41EC180B8A4890ED5F
:103CF000700B8B4880ED000B09980AF022F841EC1C
:103D00001C0B9FED900B53EC102B0AF081F841EC4B
:103D10001B0B9FED8E0B53EC102B0AF079F841EC46
:103D2000190B08980AF00DF841EC1C0B9FED890B5C
:103D300053EC102B0AF06CF841EC1B0B9FED870B3A
:103D400053EC102B0AF064F841EC1A0B53EC192BCE
:103D50000AF06AFACDE90401099809F0F2FF41EC92
:103D6000190B9FED7A0B53EC102B0AF051F8CDE9AB
:103D700006019FED7C0B53EC102B51EC180B0AF055
:103D800047F841EC1C0BB0EE4C0AF0EE6C0A08F060
:103D9000C7FDB0EE40BAF0EE60BA9DED041BB0EE88
:103DA000410AF0EE610A53EC102B51EC1B0B0AF0A8
:103DB0002FF841EC190B9FED6B0B53EC102B51ECD2
:103DC000180B0AF025F841EC1C0BB0EE4C0AF0EE93
:103DD0006C0A08F0CDFEB0EE40BAF0EE60BA9DED90
:103DE000061BB0EE410AF0EE610A53EC102B51ECC9
:103DF0001B0B0AF00DF841EC1A0B53EC192B09F0D0
:103E0000F3FCCDE900019FED570B53EC102B51EC67
:103E1000180B09F0FDFF41EC1C0BB0EE4C0AF0EE64
:103E20006C0A08F0A5FEB0EE40BAF0EE60BA9DED67
:103E3000041BB0EE410AF0EE610A53EC102B51EC7A
:103E40001B0B09F0E5FF41EC190B9FED460B53EC02
:103E5000102B51EC180B09F0DBFF41EC1C0BB0EE02
:103E60004C0AF0EE6C0A08F05BFDB0EE40BAF0EEE2
:103E700060BA9DED061BB0EE410AF0EE610A53EC0C
:103E8000102B51EC1B0B09F0C3FF41EC1A0B53EC48
:103E9000192B0AF0C9F9CDE902019DED002BB0EE16
:103EA000420AF0EE620A1C4890ED722BB0EE421A04
:103EB000F0EE621A53EC102B51EC110B09F094FC4C
:103EC000154A02F5E47203C29DED022BB0EE420AE0
:103ED000F0EE620A104890ED742BB0EE421AF0EE4C
:103EE000621A53EC102B51EC110B09F07DFC0A4ABD
:103EF00002F5E87203C29DED001BB0EE410AF0EE40
:103F0000610A9FED1A1B53EC112B51EC100B31E0A1
:103F10000000000000000000B82B0020482B00200B
:103F2000502B0020000000000080664000000000D0
:103F3000008076400000000000000040000000000B
:103F4000008066C0AD2FA5A3DC41793F72E9F4AED5
:103F50001BCAA33FB7E263EF1300F03F54B68B9F39
:103F600054C6A33FE49C52A246DF913F00000000EC
:103F70000000694009F04CFF41EC190B09F002FC0C
:103F80001149C1F8E0019DED021BB0EE410AF0EECF
:103F9000610A1FED0A1B53EC112B51EC100B09F0B9
:103FA00037FF41EC190B09F0EDFB0749C1F8E401BB
:103FB0000BB0BDEC0A8B00BD034880ED720B70475F
:103FC000014880ED740B7047B82B002070B52DEDC3
:103FD000068B04460D4624B1012C20D0022C59D169
:103FE0003BE0284609F0ADFE41EC1A0B9FEDFE0BBD
:103FF00053EC102B09F0B4FC41EC190B9FEDFC0BBA
:1040000053EC102B09F004FF41EC180B09F06CFE87
:10401000064631464FF0804005F0A5FA3AE02846C2
:1040200009F08FFE41EC1A0B9FEDEF0B53EC102BB8
:1040300009F096FC41EC190B9FEDED0B53EC102BA6
:1040400009F0E6FE41EC180B09F04EFE064631463B
:104050004FF0804005F089FA1CE0284609F071FE17
:1040600041EC1A0B9FEDE00B53EC102B09F078FCA0
:1040700041EC190B9FEDDE0B53EC102B09F0C8FE41
:1040800041EC180B09F030FE06463146DA4805F0DF
:1040900068FA00BF00BFBDEC068B70BD0EB50021F5
:1040A000009101910291D54901EB8001D1ED000A07
:1040B000F4EEC00AF1EE10FA0FDDD04901EB8001F9
:1040C000D1ED000A70EEC00A694601EB8001C1ED36
:1040D000000A0021CA4A11540EE0C84901EB8001D0
:1040E000D1ED000A70EE600A694601EB8001C1ED76
:1040F000000A0121C24A1154C149095CC14A125C3B
:10410000514059BBC049095C891CBF4A11546946DA
:1041100001EB8001D1ED000A9FEDBC1AF4EEC10A5B
:10412000F1EE10FA03DB1146095C091D1154B64982
:10413000095C642902DB6421B34A1154B249095C69
:1041400000EE901AF8EE600A9FEDB11A60EE810A57
:10415000B04901EB8001C1ED000A09E0DFEDAC0AD6
:10416000AC4901EB8001C1ED000A0021A64A1154BF
:10417000A349095CD9B9A74901EB8001D1ED000A37
:104180009E4901EB800191ED001A31EE401A60EE7C
:10419000810A9FEDA11AC0EE811A984901EB8001B6
:1041A000D1ED000A70EEE10AB0EE600A1AE099491A
:1041B00001EB8001D1ED000A904901EB800191ED06
:1041C000001A30EE411A60EE810A9FED931AC0EE9C
:1041D000811A8A4901EB8001D1ED000A71EEA00A33
:1041E000B0EE600A854901EB800181ED000A844947
:1041F000095C844A11540EBD30B5054687480068F5
:10420000401C86490860002412E005EB8400D0EDD4
:10421000000AB0EE600A2046FFF740FFDFED800A9B
:1042200080EE201A7F4800EB840080ED001A641CA9
:10423000032CEADB7948006865282CD1002024E0B3
:10424000784901EB800191ED000ADFED770A30EE4D
:10425000200A74490C3101EB800181ED000A71499B
:104260000C3101EB800191ED000ADFED700AB4EE34
:10427000E00AF1EE10FA07DD9FED6C0A69490C3196
:1042800001EB800181ED000A401C0328D8DB0120EE
:104290006749086030BD0020FCE76548006870474A
:1042A000012063490860704730B52DED028B89B05D
:1042B0000446B0EE408A5F4A07CA06AB07C35D4AB0
:1042C0000C3207CA03AB07C3002000900190029094
:1042D000544800EB840090ED000A38EE400A56483E
:1042E00000EB840080ED000A534800EB840090ED61
:1042F000000ADFED4B0A20EE200A4A48183000EB96
:10430000840080ED000A4D4800EB840090ED000A27
:10431000494800EB8400D0ED000A30EE200A4748FF
:1043200000EB840080ED000A434800EB840090ED30
:10433000000A434800EB8400D0ED000A30EE600A2A
:10434000404800EB840080ED000A3B4800EB84000D
:1043500090ED000A3A4800EB840080ED000A06A8C0
:1043600000EB840090ED000A334800EB8400D0EDB0
:10437000000A20EE200A03A800EB8400D0ED000A1A
:104380002E4800EB840090ED001A00EE810A68468A
:1043900000EB8400D0ED000A2A4800EB840090ED89
:1043A000001A00EE810A10EE101A08460AF026F8EC
:1043B000254A02EBC40203C2234800EBC40090ED7F
:1043C000001BB0EE410AF0EE610A9FED201B53EC9A
:1043D000112B51EC100B09F019FE3ED29FED020B90
:1043E000194800EBC40035E000000000000059400F
:1043F0000000000000408F4000040040AC87002017
:104400007B2B0020782B00207E2B00200AD7233C1A
:10441000CDCC4C3EA0870020000080435C2B0020C8
:104420000000C8421C2D0020CDCC4C3D3D0AD73E9B
:10443000582B002028E70008288700203487002018
:10444000408700204C870020588700200000000093
:104450000000344080ED000B30E0FE4800EBC4006B
:1044600090ED001BB0EE410AF0EE610A9FEDFA1BE1
:1044700053EC112B51EC100B09F08EFC07D29FED81
:10448000F60BF44800EBC40080ED000B16E0F44896
:1044900050F82400012811D103A800EB840090ED0E
:1044A000000ADFEDF00A80EE801AEF4800EB84008E
:1044B00080ED001A0020EA4941F82400EB4800EBA7
:1044C000840090ED000ADFEDEA0AB4EEE00AF1EEB6
:1044D00010FA06DD9FEDE00BDE4800EBC40080ED36
:1044E000000BDC4800EBC40090ED001BB0EE410A6D
:1044F000F0EE610A51EC100B09F0C6FB05462946A7
:104500002046FFF763FD09B0BDEC028B30BD70B5EE
:104510002DED028B04460D461DB10020D54941F812
:104520002400D54850F82400401CD34941F8240009
:10453000084650F8240040F6B831B0FBF1F201FB18
:10454000120000287ED1CD4850F82400B0F1FF3F82
:1045500002D0012860D160E0C44800EB840090EDF7
:10456000000AC74800EB8400D0ED000A30EE600A74
:10457000DFEDC40AB4EEE00AF1EE10FA4CDBC248FB
:1045800000EB840090ED000ADFEDC00AB4EEE00A13
:10459000F1EE10FA0EDDBC4800EB840090ED000A4D
:1045A000DFEDBA0A30EE600AB74800EB840080ED18
:1045B000000A31E0B44800EB840090ED000AB5EE4B
:1045C000C00AF1EE10FA07DD9FEDB10AAE4800EB2C
:1045D000840080ED000A1FE0AB4800EB840090ED02
:1045E000000AB5EEC00AF1EE10FA15D10120A34978
:1045F00041F82400A44800EB840090ED000ADFEDB0
:10460000A30A30EE200AA04800EB840080ED000AE7
:104610000320984941F8240059E0944800EB8400B5
:1046200090ED000A964800EB8400D0ED000A30EED1
:10463000600ADFED960AB4EEE00AF1EE10FA46D811
:10464000914800E04EE000EB840090ED000ADFEDC1
:10465000910AB4EEE00AF1EE10FA30D2834800EB92
:10466000840090ED000A10EE101A084609F0C6FE0C
:1046700041EC180B9FED880B53EC102B09F0C6FC96
:104680000ED2814800EB840090ED000ADFED7F0A36
:1046900030EE200A7C4800EB840080ED000A15E033
:1046A000794800EB840090ED000AF6EE000A30EE47
:1046B000200A754800EB840080ED000A06E01FED3B
:1046C000A80A714800EB840080ED000A00BF00BF1B
:1046D000664800EB840090ED000A694800EB840016
:1046E00080ED000A614800EB840090ED000A10EEB6
:1046F000101A084609F082FE41EC180B9FED680B7A
:1047000053EC102B09F082FC05D24FF0FF305B49CF
:1047100041F824001FE0554800EB840090ED000AAA
:1047200010EE101A084609F069FE41EC180B9FEDD7
:104730005A0B53EC102B09F02FFB0CD24F4850F8BA
:104740002400401C18B903204A4941F824000120E4
:104750004A4941F824004C4800EB840090ED000ADF
:10476000BDEEC00A10EE101A2046FFF72FFC41489C
:1047700050F82400BDEC028B70BD30B58BB0044600
:104780000D460121084604F048F90121022004F0F9
:1047900011F901220A21444803F031FF4FF48060EF
:1047A000099002208DF8280003208DF829000020B0
:1047B0008DF82A0001208DF82B0009A93A4803F052
:1047C00093FEA8B2ADF818000020ADF81A000794C7
:1047D000ADF8200006A94FF0804004F0D2FC602024
:1047E000ADF80400322003900120ADF8060000204F
:1047F000ADF8100001A94FF0804004F0DDFD082164
:10480000C80604F0F6FE0121880704F025FD012109
:10481000880704F03FFD00214FF0804004F0A3FE24
:104820000BB030BD30B58BB004460D4601210846B3
:1048300004F0F3F80121022004F0BCF801220B215E
:10484000194803F0DCFE4FF40060099002208DF857
:1048500028002BE058870020000000000000000026
:10486000602B0020B0FF0D41348700201C2D00205C
:104870006666E63E70870020948700206C2B00203F
:1048800088870020CDCCCCBD7C870020CDCCCC3D12
:1048900000000000CDCCC742666666666666D63FFD
:1048A000CDCCCCCCCCCCDC3F0004024003208DF836
:1048B000290000208DF82A0001208DF82B0009A97D
:1048C0004A4803F011FEA8B2ADF818000020ADF878
:1048D0001A000794ADF8200006A94FF0804004F0BC
:1048E00050FC6020ADF80400322003900120ADF8A8
:1048F00006000020ADF8100001A94FF0804004F040
:10490000C1FD0821C80604F07DFE0121880704F0DE
:10491000A3FC0121880704F0BDFC00214FF080407A
:1049200004F023FE0BB030BD30B58BB004460D460D
:104930000121022004F071F80121042004F03AF86A
:10494000022207212A4803F05AFE80200990022003
:104950008DF8280003208DF8290000208DF82A000A
:1049600001208DF82B0009A9214803F0BDFDA8B254
:10497000ADF818000020ADF81A000794ADF820003B
:1049800006A91C4804F0FDFB6020ADF804003220AD
:1049900003900120ADF806000020ADF8100001A939
:1049A000144804F0BCFC0821124804F015FE012153
:1049B000104804F051FC01210E4804F06BFC00216A
:1049C0000C4804F0CEFD0BB030BD70B504460D466A
:1049D00029462046FFF7D1FE29462046FFF722FF51
:1049E00029462046FFF7A0FF70BD000000040240EA
:1049F000000802400004004010B58AB00D208DF878
:104A000008000A208DF809008DF826000D208DF889
:104A10002700FE4890ED701BB0EE410AF0EE610AEF
:104A200051EC100B08F0AEFE01900198CDF80A0091
:104A3000F64890ED780A8DED010A0198CDF80E0048
:104A4000F24890ED790A8DED010A0198CDF8120037
:104A5000EE4890ED721BB0EE410AF0EE610A51ECA7
:104A6000100B08F08FFE01900198CDF81600E74872
:104A700090ED741BB0EE410AF0EE610A51EC100BA0
:104A800008F080FE01900198CDF81A00DF48B0F8D8
:104A9000D80100EE100AB8EE400A8DED010A019827
:104AA000CDF81E00D948B0F8DA0100EE100AB8EED1
:104AB000400A8DED010A0198CDF82200002405E09E
:104AC00002A8015DD24805F018FA641C202CF7DB1F
:104AD0000AB010BD10B52DED068BB0EE409AB0EEC9
:104AE000608AF0EE418AF0EE619AB0EE42AAB0EE32
:104AF000490A01F055FBB0EE480A01F051FBB0EE57
:104B0000680A01F04DFB01F069FBBDEC068B10BD9E
:104B100010B52DED068B88B0B0EE408AF0EE608ABD
:104B2000B0EE419AF0EE619AB0EE42AAF0EE62AABF
:104B30000D208DF804000A208DF805008DF81E0068
:104B40000D208DF81F008DED008A0098CDF806002D
:104B5000CDED008A0098CDF80A008DED009A0098FE
:104B6000CDF80E00CDED009A0098CDF812008DED35
:104B700000AA0098CDF81600CDED00AA0098CDF857
:104B80001A00002405E001A8015DA14805F0B5F96F
:104B9000641C1C2CF7DB08B0BDEC068B10BD00209C
:104BA0009C49086000BF03E000219B4A1154401C4F
:104BB0001428F9DB704710B596480068042809D11D
:104BC000042296A1944805F0E9FC18B90220954901
:104BD0000860FFE08F4800680A2809D10A2292A1E4
:104BE0008D4805F0DBFC18B902208E490860F1E021
:104BF000884800680D2809D10D228EA1864805F04D
:104C0000CDFC18B9032087490860E3E081480068BB
:104C10000E2809D10E228BA17F4805F0BFFC18B9E0
:104C2000042080490860D5E07A4800680E2809D140
:104C30000E2288A1784805F0B1FC18B90520794901
:104C40000860C7E073480068092809D1092285A1D6
:104C5000714805F0A3FC18B9062072490860B9E054
:104C60006C4800680A2809D10A2281A16A4805F027
:104C700095FC18B907206B490860ABE065480068EF
:104C8000082809D108227DA1634805F087FC18B9DE
:104C90000820644908609DE05E4800680A2809D140
:104CA0000A2279A15C4805F079FC18B909205D4910
:104CB00008608FE0574800680B2809D10B2275A1C6
:104CC000554805F06BFC18B90A205649086081E088
:104CD000504800680E2809D1062271A14E4805F0FF
:104CE0005DFC18B90B204F49086073E04948006823
:104CF0000A2809DB09226CA1474805F04FFC18B9C6
:104D00000C204849086065E0424800680A2809DB31
:104D1000092268A1404805F041FC18B90D2041491D
:104D2000086057E03B4800680A2809D1042264A1C2
:104D3000394805F033FC18B90E203A49086049E0BB
:104D400034480068082809D104225DA1324805F0E2
:104D500025FC18B90F20334908603BE02D48006856
:104D60000E2809D1042256A12B4805F017FC18B9CA
:104D700010202C4908602DE0264800680C2809D135
:104D80000C2251A1244805F009FC18B9112025492D
:104D900008601FE01F480068092809D109224EA1B8
:104DA0001D4805F0FBFB18B912201E49086011E0F0
:104DB000184800680B2809D10B224AA1164805F0B3
:104DC000EDFB18B913201749086003E040F29A2060
:104DD0001449086010BD10B540F225510C4805F08B
:104DE0004EF9012810D140F22551094805F07EF90D
:104DF000074805F098F8C4B20748064909684454C2
:104E000004480068401C73E095E00000B82B0020C7
:104E100000100140842B0020B887002041540D0A67
:104E200000000000882B002041542B626567696EEA
:104E30000D0A000041542B73746F7053656E640D3E
:104E40000A00000041542B626567696E53656E6409
:104E50000D0A000041542B7072696E7444617461D4
:104E60000D0A000041542B73746F700D0A0000008E
:104E700041542B72657365740D0A000041542B7305
:104E800065740D0A0000000041542B7072696E7445
:104E90000D0A000041542B7374617469630D0A009C
:104EA00041542B736574000041542B7365746D6914
:104EB0006E00000041542B7365747661720000002F
:104EC00041542B470000000041542B646566617516
:104ED0006C740D0A0000000041542B686561740D6C
:104EE0000A00000041542B6E6F686561740D0A0062
:104EF000FB49086008460068142801D100200860BA
:104F0000F748006801280FDDF5480068401EF549A4
:104F1000085C0A2808D1F2480068801E085C0D2849
:104F200002D1FFF748FE0AE0EE480078412806D09B
:104F3000FFF735FE03E0EC4804F0F5FFC4B210BD06
:104F4000012814D00CDC10F1090F41D010F1050F2D
:104F500037D010F1030F2DD010F1020F3FD122E016
:104F600002280BD0042810D0082838D114E0DF49DB
:104F7000097841F00101DD4A117030E0DB49097820
:104F800041F00201D94A117029E0D849097841F06D
:104F90000401D64A117022E0D449097841F0080191
:104FA000D24A11701BE0D149097821F00101CF4AA2
:104FB000117014E0CD49097821F00201CB4A11703B
:104FC0000DE0CA49097821F00401C84A117006E0D1
:104FD000C649097821F00801C44A117000BF00BF1A
:104FE000704770B50024002500BF1DE0002518E0C3
:104FF0000120BF49C96804EB440211444855002010
:105000000CE00121BA4A126904EB440303EB830369
:105010001A4405EB85031A441154401C0528F0DBA3
:105020006D1C032DE4DB641C032CDFDB002404E097
:105030000020AF4949690855641C032CF8DB0020A7
:1050400008E09FEDAC0AAA49496801EB800181EDB7
:10505000000A401C0328F4DB002008E09FEDA60AAC
:10506000A349896801EB800181ED000A401C0328F7
:10507000F4DB00F058FB064640F2051100F0EFFAB1
:10508000FCF7ECF970BD10B52DED048B84B09FEDED
:105090009B0AB0EE408A9A48006815286FD2DFE874
:1050A00000F00B0C11191E236F7880899098DEFC9C
:1050B000FBFAF9F8F7F6F50081E292A18A4800F0D0
:1050C000ECFF7CE20220FFF73BFF8EA1864800F058
:1050D000E4FF74E28BA1844800F0DFFF6FE289A156
:1050E000814800F0DAFF6AE28848D0ED590AB0EE54
:1050F000600A01F055F88548D0ED5A0AB0EE600A12
:1051000001F04EF88148D0ED590AB0EE600A01F086
:1051100047F87E4890ED2C1BB0EE410AF0EE610A94
:1051200051EC100B08F02EFB08EE900AB0EE680A66
:1051300001F036F8754890ED2E1BB0EE410AF0EE06
:10514000610A51EC100B08F01DFB08EE900AB0EE5E
:10515000680A01F025F86D4890ED301BB0EE410A69
:10516000F0EE610A51EC100B08F00CFB08EE900A0F
:10517000B0EE680A01F014F801F030F81FE219E20D
:105180006FF00200FFF7DCFE5EA1574800F085FFDC
:1051900015E25CA1544800F080FF0120FFF7D0FE2B
:1051A0000DE26FF00100FFF7CBFE56A14E4800F074
:1051B00074FF04E253A14C4800F06FFFFCF74EF976
:1051C000FDE150A1484800F068FF0420FFF7B8FE59
:1051D000F5E14CA1444800F060FF4248007A8DF8A8
:1051E00004004048407A8DF805003E48807A8DF8EA
:1051F00006003C48C07A8DF807003A48807961285B
:1052000024D0782802D0792827D10FE09DED010A1B
:1052100010EE101A084609F0F1F841EC190BB0EE47
:10522000490AF0EE690AFEF7C7FE16E09DED010A95
:1052300010EE101A084609F0E1F841EC190BB0EE37
:10524000490AF0EE690AFEF7BBFE06E0DDED010A51
:10525000B0EE600AFDF7E8FB00BF00BFAFE12148F8
:105260000A3007F041FBB0EE409AF0EE609A51EC44
:10527000190B08F087FA08EE100A1A48407A7828C5
:105280000CD079280FD07A2817D111E083E178E18A
:105290006EE165E108E1CCE085E049E01448406852
:1052A00080ED008A09E01248406880ED018A04E040
:1052B0000F48406880ED028A00BF00BF14A10A4871
:1052C00000F0EBFE00F02FFA044640F2051100F06A
:1052D000C6F912A1044800F0E0FEFCF788F96EE17F
:1052E000842B0020B8870020001001408C2B002068
:1052F000CC870020CDCCCC3DA69B443B00000000D9
:10530000882B00204F4B0D0A00000000B82B002016
:1053100077726974696E670D0A00000077726974AC
:10532000652066696E69736865640D0A0000000097
:10533000A94807F0D9FAB0EE409AF0EE609A51EC25
:10534000190B08F01FFA08EE100AA3480A38407A31
:10535000782804D0792807D07A280FD109E09F480F
:10536000806880ED008A09E09C48806880ED018AB1
:1053700004E09A48806880ED028A00BF00BFAFF267
:105380007001974800F089FE00F0CDF9044640F224
:10539000051100F064F9AFF27C01914800F07DFE48
:1053A000FCF70BF90BE1AFF2A4018D4800F075FE9C
:1053B00089480A38C07931280FD101218748C2684D
:1053C00085480A380079313800EB400002448248B1
:1053D0000A3880793138115418E07F480A38C0798A
:1053E00030280FD100217D48C2687B480A380079F7
:1053F000313800EB4000024477480A388079313870
:10540000115403E077A1764800F047FE7BA1744871
:1054100000F043FE00F087F9044640F2051100F069
:105420001EF9AFF208116E4800F037FEFCF7AAF83B
:10543000C5E0AFF230116A4800F02FFE66480A3826
:105440004079312809D1012064494969624A0A3A00
:105450001279114401F8310C12E05F480A384079A2
:10546000302809D100205D4949695B4A0A3A12791E
:10547000114401F8310C03E063A1594800F00DFE1E
:10548000AFF27411564800F008FE00F04CF90446E3
:1054900040F2051100F0E3F8AFF28011504800F03F
:1054A000FCFDFCF7BEF88AE0AFF2A8114C4800F012
:1054B000F4FD07243EE048480A38005D312816D143
:1054C00001214648026944480A380079313800EB26
:1054D000400000EB800002443F480A3880793138B0
:1054E00000EB80001044204400F8071C21E03A48FB
:1054F0000A38005D302816D1002138480269364844
:105500000A380079313800EB400000EB800002449B
:1055100031480A388079313800EB8000104420444B
:1055200000F8071C05E0A4F10A0241A12C4800F094
:10553000B4FD641C0C2CBEDBAFF22C21284800F01B
:10554000ACFD00F0F0F8044640F2051100F087F8D9
:10555000AFF23821224800F0A0FDFCF773F82EE0EE
:10556000AFF260211E4800F098FDFFF73AFD26E0FB
:10557000AFF270211A4800F090FD0820FFF7E0FC20
:105580001DE0AFF28021164800F087FD6FF00800A3
:10559000FFF7D6FC13E06FF00800FFF7D1FC2948B5
:1055A00004E0642102AA42F82010401C26498842E7
:1055B000F7DB04E025A10A4800F06FFD00BF00BF43
:1055C000002024490860FFF7EAFA04B0BDEC048B20
:1055D00010BD214800787047C2870020CC8700208A
:1055E000001001406D6F646520636F6D6D616E64C6
:1055F000206572726F720D0A000000007772697484
:10560000696E67200D0A000028666C61736844614A
:1056100074612E7363616C654D6F64652920636FDF
:105620006D6D616E64206572726F720D0A0000000C
:1056300073656C656374202564206572726F720DEA
:105640000A00000080380100A08601006572726FB8
:10565000720D0A00882B00208C2B0020704770B53B
:1056600005460E4602F0B2FCF32002F0C8FE02210D
:10567000302002F0F7FC02F0E4FC002405E0295D94
:105680002A4AA01802F0E9FD641CB442F7D302F0E4
:10569000AAFC70BD70B5054602F098FCF32002F03C
:1056A000AEFE0221302002F0DDFC02F0CAFC002434
:1056B00005E01E496018002102F0CFFD641CAC42D9
:1056C000F7D302F090FC70BD10B502F07FFCF32020
:1056D00002F095FE0221302002F0C4FC02F0B1FC81
:1056E00002F081FC10BD0246002003E00F4BC35CBA
:1056F0001354401C8842F9D3704710B540F205118D
:105700000B48FFF7F0FF0A480A490860B4304860C8
:105710000C3088600C30C860093008612D30486159
:10572000FFF79CFF10BD024870470000000004080E
:10573000E4870020CC87002000B587B00121080352
:1057400003F07CF90121084603F034F905221146E3
:10575000F84802F054FF05220621F64802F04FFFF8
:1057600005220721F34802F04AFFE02005900220BD
:105770008DF8180000208DF81A0001208DF81B000C
:1057800003208DF8190005A9EA4802F0ADFEEA48A9
:1057900003F04EFA0020ADF800004FF48270ADF82F
:1057A00002000020ADF80400ADF80600ADF80800D6
:1057B0004FF40070ADF80A002020ADF80C00002076
:1057C000ADF80E000720ADF810006946DA4803F086
:1057D00055FA0121D84803F034FB07B000BD00B5ED
:1057E00087B00121880303F018F90121022003F09A
:1057F000E1F805220D21D14802F001FF05220E211A
:10580000CE4802F0FCFE4FF4C040059002208DF817
:10581000180000208DF81A0001208DF81B000320CD
:105820008DF8190005A9C54802F05EFEC44803F0D2
:10583000FFF94FF48060ADF800004FF48270ADF8CE
:1058400002000020ADF80400ADF806000120ADF81C
:1058500008004002ADF80A002820ADF80C00002036
:10586000ADF80E000720ADF810006946B44803F00B
:1058700005FA0121B24803F0E4FA07B000BD10B503
:105880000446AD4800884FF6C7710840AA49088011
:1058900008460088204308800121A74803F0D1FA78
:1058A00010BD2DE9F04107460C4615461E46DDF8B1
:1058B00018800121384603F0C4FA2946204602F038
:1058C00091FE00BF0221384603F073FB0028F9D097
:1058D0003146384603F036FB00BF0121384603F05D
:1058E00068FB0028F9D0384603F029FB00BF0221ED
:1058F000384603F05EFB0028F9D04146384603F0F5
:1059000021FB00BF0121384603F053FB0028F9D0EA
:10591000384603F014FB00BF8021384603F049FBF2
:105920000128F9D00021384603F08BFA2946204699
:1059300002F056FEBDE8F0812DE9F04180460D46AB
:1059400016461C4644F080040121404603F079FAD3
:105950003146284602F046FE00BF0221404603F0D1
:1059600028FB0028F9D02146404603F0EBFA00BF9F
:105970000121404603F01DFB0028F9D0404603F00A
:10598000DEFA00BF0221404603F013FB0028F9D0E5
:105990000021404603F0D6FA00BF0121404603F043
:1059A00008FB0028F9D0404603F0C9FAC7B200BF8F
:1059B0008021404603F0FDFA0128F9D0002140463D
:1059C00003F03FFA3146284602F00AFE3846BDE8A9
:1059D000F0812DE9F04780460E4617461C46DDE96A
:1059E000089A44F080040121404603F02AFA39461F
:1059F000304602F0F7FD00BF0221404603F0D9FA1D
:105A00000028F9D02146404603F09CFA00BF01214E
:105A1000404603F0CEFA0028F9D0404603F08FFA52
:105A2000002517E000BF0221404603F0C2FA00281B
:105A3000F9D00021404603F085FA00BF012140461D
:105A400003F0B7FA0028F9D0404603F078FA09F8D5
:105A500005006D1C5545E5D300BF8021404603F08D
:105A6000A8FA0128F9D00021404603F0EAF93946A6
:105A7000304602F0B5FDBDE8F087F8B504460020D9
:105A8000009000250026012C04D121032B4802F0B0
:105A9000A9FD05E024B94FF40041284802F0A2FD19
:105AA0000121274803F0CDF900250FE000BF24486D
:105AB0000830008800F001000028F8D020480C30A1
:105AC0000088C0B20DF80500681CC5B2032DEDDBDF
:105AD000012C04D12103194802F082FD05E024B90C
