:020000040800F2
:1000000028E20020559F0008E7120008EB120008C4
:10001000271300082B1300082F130008000000000E
:100020000000000000000000000000003313000882
:1000300035130008000000006B9F00086D9F00084A
:100040006F9F00086F9F00086F9F00086F9F000858
:100050006F9F00086F9F00086F9F00086F9F000848
:100060006F9F00086F9F00086F9F00086F9F000838
:100070006F9F00086F9F00086F9F00086F9F000828
:100080006F9F00086F9F00086F9F00086F9F000818
:100090006F9F00086F9F00086F9F00086F9F000808
:1000A0006F9F0008371200086F9F00086F9F0008BD
:1000B000190C00087F120008971200086F9F0008B3
:1000C0006F9F00086F9F00086F9F00086F9F0008D8
:1000D0006F9F0008DB4D00086F9F0008CB120008DF
:1000E0006F9F00086F9F00086F9F00086F9F0008B8
:1000F0004F1200086F9F00086F9F00086F9F000855
:100100006F9F00086F9F0008671200086F9F00082C
:100110006F9F0008AF1200086F9F0008E5110008EC
:100120006F9F00086F9F00086F9F00086F9F000877
:100130006F9F00086F9F00086F9F00086F9F000867
:100140006F9F00086F9F00086F9F00086F9F000857
:100150006F9F00086F9F00086F9F00086F9F000847
:100160006F9F00086F9F00086F9F00086F9F000837
:100170006F9F00086F9F00086F9F00086F9F000827
:100180006F9F00086F9F000800F002F800F06FF802
:100190000AA090E8000C82448344AAF10107DA45E2
:1001A00001D100F064F8AFF2090EBAE80F0013F0C5
:1001B000010F18BFFB1A43F00103184790EE00002F
:1001C000B0EE00000A444FF0000C10F8013B13F0B1
:1001D000070408BF10F8014B1D1108BF10F8015BA0
:1001E000641E05D010F8016B641E01F8016BF9D193
:1001F00013F0080F1EBF10F8014BAD1C0C1B09D1EA
:100200006D1E58BF01F801CBFAD505E014F8016B5B
:1002100001F8016B6D1EF9D59142D6D370470000ED
:100220000023002400250026103A28BF78C1FBD8FF
:10023000520728BF30C148BF0B60704766290EF0D7
:10024000AD80002070471FB50EF06DF80AF0F8FB86
:100250000400002000210DF097F9401C6060002090
:1002600000210DF07BF9E0601FBD10B510BD0AF054
:100270000FFD1146FFF7E7FF00F058F80AF088FF7E
:1002800003B4FFF7F2FF03BC0AF0C8FF38B54FF420
:10029000A06007F011FD0020034653226321009067
:1002A0004A4805F040FC06F039F8532140F2E730A7
:1002B00004F0F9FA05F0C8F905F019FA05F0E4FBC5
:1002C0004FF4612005F030FD05F09FF90BE0404848
:1002D000D0F8F80110B9204600F07EF80021204641
:1002E00003F0E2FD641C032CF1DB00200123532208
:1002F00040F2E7310090980705F015FC082004F063
:10030000ACFD022004F0A9FD02F040FD0521012012
:1003100006F0B7F805E02E48D0F8F80108B103F070
:100320002DFF03F028FF0028F5D038BD10B5FFF7EA
:10033000ADFF4AE045E004F033FE05F0C1F800F0FF
:10034000010088BB05F0BCF800F0080078B100247B
:100350000AE0204800EB8400D0ED000AB0EE600A0D
:10036000204603F00FFF641C032CF2DB12E0002494
:100370000EE0184800EB8400D0ED000AB6EE001A3B
:1003800070EEC10AB0EE600A204603F0FBFE641C6A
:10039000032CEEDB02F0F7F848B102F064F903F049
:1003A00019FB04F097FA02E0FFE701F0D3FA00200E
:1003B0000749C1F8F8010846D0F8E801401EC1F825
:1003C000E80100F002FF0028B5D1B3E700140040B7
:1003D000B82B0020282D0020F0B589B00546002458
:1003E0002022FBA101A80AF048F8642005F08BFC4C
:1003F00025B1012D0BD0022D1BD111E080206B23E4
:100400000222FB490090FB4805F0D3F911E080205F
:100410006B230422F6490090F64805F0CAF908E07B
:1004200080206B234022F4490090F24805F0C1F986
:1004300000BF00BF062005F066FC002479E000261E
:10044000FF2700BF701CC6B2EC484069405D10B188
:10045000012808D103E000208DF8090003E00820FE
:100460008DF8090000BF00BF25B1012D1DD0022D60
:1004700051D135E0012000EB440001A9085C009057
:1004800001A810F814300222D949DA4805F091F990
:10049000304605F038FC01A810F814300222D44987
:1004A000D44805F0D1F9074635E0012000EB4400BF
:1004B00001A9085C009001A810F814300422CC496E
:1004C000CC4805F076F9304605F01DFC01A810F87F
:1004D00014300422C649C74805F0B6F907461AE0A9
:1004E000012000EB440001A9085C009001A810F86D
:1004F00014304022C049BF4805F05BF9304605F092
:1005000002FC01A810F814304022BB49B94805F09C
:100510009BF9074600BF00BF052E00DD06E0012065
:1005200000EB440001A9085CB8428BD100BF601CFD
:10053000C4B20F2C83DB09B0F0BD30B52DED048BB8
:1005400087B0044600200590069024B1012C0DD000
:10055000022C21D115E0062003A943230222CDE974
:100560000010A349A34805F0BCF915E0062003A933
:1005700043230422CDE900109D499E4805F0B1F9BE
:100580000AE0062003A943234022CDE900109A493E
:10059000984805F0A6F900BF00BF9DF80D009DF832
:1005A0000C1040EA012000B2ADF814009DF80F00D5
:1005B0009DF80E1040EA012000B2ADF816009DF83B
:1005C00011009DF8101040EA012000B2ADF81800AB
:1005D0008A484069005D10B1012869D12FE0BDF95A
:1005E000161048420DF0D1FA41EC190B9FED840B27
:1005F00053EC102B0DF0D8F8834A03C2BDF9141048
:1006000048420DF0C2FA41EC190B9FED7D0B53EC03
:10061000102B0DF0C9F87C4AC2E90201BDF918108F
:1006200048420DF0B2FA41EC190B9FED750B53ECFB
:10063000102B0DF0B9F8744AC2E9040168E0BDF965
:100640001600404200EE100AB8EEC00ADFED6F0A55
:1006500080EE201A11EE105A28460DF0F3FD6A4A7A
:1006600003C2BDF91400404200EE100AB8EEC00A01
:10067000DFED660A80EE201A11EE105A28460DF0C2
:10068000E1FD614AC2E90201BDF91800404200EEF5
:10069000100AB8EEC00ADFED5D0A80EE201A11EEF6
:1006A000105A28460DF0CEFD574AC2E904012FE04A
:1006B000BDF9161048420DF068FA41EC190B9FED98
:1006C000500B53EC102B0DF06FF84F4A03C2BDF9DD
:1006D000141048420DF059FA41EC190B9FED480BEC
:1006E00053EC102B0DF060F8474AC2E90201BDF946
:1006F000181048420DF049FA41EC190B9FED400BE0
:1007000053EC102B0DF050F83F4AC2E9040100BF32
:1007100000BF9FED3F8A14B1022C38D11BE03A484C
:1007200090ED001BB0EE410AF0EE610A51EC100BA7
:100730000CF04CFF08EE100A334890ED020B80EDF0
:10074000000BB1EE480A10EE100A0DF07BFD2E4AA8
:10075000C2E902011BE02C4890ED001BB0EE410AFB
:10076000F0EE610A51EC100B0CF030FF08EE100AAD
:10077000254890ED020B80ED000BB1EE480A10EE1B
:10078000100A0DF05FFD204AC2E9020100BF00BF60
:1007900007B0BDEC048B30BD1B4991ED000B80ED23
:1007A000000B91ED020B80ED020B91ED040B80ED3F
:1007B000040B704710B52DED068B86B00446002063
:1007C0000490059034B3012C2FD0022C43D137E094
:1007D0006B006C001B001A0019071C001D06680046
:1007E0006A101E0023001F00370038006900000057
:1007F000000002400030014000080240549A0020EE
:10080000C3493C0773656040B82D00200000834257
:1008100000000000062002A93B230222CDE90010BF
:10082000F349F44805F05DF815E0062002A93B23E2
:100830000422CDE90010EE49EE4805F052F80AE036
:10084000062002A93B234022CDE90010EA49E948ED
:1008500005F047F800BF00BF9DF809009DF808109B
:1008600040EA012000B2ADF810009DF80B009DF8A1
:100870000A1040EA012000B2ADF812009DF80D0008
:100880009DF80C1040EA012000B2ADF81400BDF94B
:1008900012000DF07AF941EC1A0B9FEDD80B53ECD6
:1008A000102B0CF081FF41EC190B0CF08FFED54999
:1008B0000860BDF910000DF068F941EC1A0B9FEDCE
:1008C000CF0B53EC102B0CF06FFF41EC190B0CF01D
:1008D0007DFECC494860BDF914000DF056F941EC9D
:1008E0001A0B9FEDC60B53EC102B0CF05DFF41EC87
:1008F000190B0CF06BFEC34988601FED3B8A14B1E5
:10090000022C1CD10DE0BF4890ED000AB0EE408AE9
:1009100090ED010A80ED000AB1EE480A80ED010A6F
:100920000DE0B84890ED000AB0EE408A90ED010A63
:1009300080ED000AB1EE480A80ED010A00BF00BF59
:1009400006B0BDEC068B10BDAE4991ED000A80EDFE
:10095000000A91ED010A80ED010A91ED020A80ED95
:10096000020A70473EB5054625B1012D0DD0022D76
:1009700021D115E0022002A941230246CDE9001051
:100980009B499C4804F0ADFF15E0022002A94123D9
:100990000422CDE900109649964804F0A2FF0AE02F
:1009A000022002A941234022CDE90010924991483A
:1009B00004F097FF00BF00BF9DF809009DF80810E4
:1009C00040EA012004B200EE104AB8EEC00A9FEDE2
:1009D0008E1AC0EE010AB3EE090A30EE800A8B4887
:1009E00080ED000A3EBD894991ED000A80ED000AC4
:1009F0007047F0B52DED108B83B0054600200090B8
:100A0000019002900024CAE004EB440005EB800052
:100A100090ED000A20EE000A04EB440005EB800094
:100A2000D0ED010A04EB440005EB800090ED011AC3
:100A300000EE810A04EB440005EB8000D0ED020AD1
:100A400004EB440005EB800090ED021A00EE810AF1
:100A500010EE101A08460DF0F5FB41EC1A0BB0EE43
:100A60004A0AF0EE6A0A0CF00BF8B0EE409AF0EE8B
:100A7000609A51EC190B0CF0A9FD4DF8240004EB21
:100A8000440005EB800090ED000A684600EB84000E
:100A9000D0ED000A80EE201A11EE106A04EB44003B
:100AA00005EB800090ED010A684600EB8400D0ED74
:100AB000000A80EE201A11EE107A04EB440005EBD8
:100AC000800090ED020A684600EB8400D0ED000A39
:100AD00080EE201AB0EE418AB1EE480A10EE100AFC
:100AE0000DF0B0FB41EC1A0B30460DF0ABFB41ECC6
:100AF0001B0BB0EE4A1AF0EE6A1AB0EE4B0AF0EE9B
:100B00006B0A01F0BBFEB0EE409AF0EE609A51EC39
:100B1000190B0CF05BFD3E4901EBC40148603C48F9
:100B200000EBC40090ED010A10EE101A08460DF01B
:100B300089FB41EC1F0BB0EE4F0AF0EE6F0A0BF091
:100B40003BFFB0EE40DAF0EE60DA30460DF07AFBB3
:100B500041EC1E0B53EC1D2B0CF026FE41EC1B0B45
:100B600038460DF06FFB41EC1C0BB0EE4B1AF0EE6B
:100B70006B1AB0EE4C0AF0EE6C0A01F07FFEB0EE9C
:100B800040AAF0EE60AA51EC1A0B0CF013FD41ECF8
:100B9000190B0CF01BFD1E4941F83400641C032C9A
:100BA000FFF632AF1B4890ED510AD0ED530A30EEFC
:100BB000200AD0ED550A30EE200AF0EE080A80EE49
:100BC000201A80ED571A90ED520AD0ED540A30EEFB
:100BD000200AD0ED560A30EE200AF0EE080A80EE28
:100BE000201A80ED581A03B0BDEC108BF0BD000048
:100BF00000000240003001400008024000000000F8
:100C00000000D040D02D00206666A34300000020E5
:100C1000FC2C0020B82B002030B52DED088BA9B09E
:100C2000002500240121880708F087FE01287DD1D6
:100C30000121800708F092FEFE480068401CFD4933
:100C40000860FD480068401CFB490860F94890EDC9
:100C5000000AB8EE400AF1EE040AB4EEE00AF1EE42
:100C600010FA0CDB0020F34908600120F3490870FA
:100C7000F348D0F8E801401CF149C1F8E80102F05E
:100C800035F8002450E02046FFF757FC2046FFF7D8
:100C900069FE13A901EB8400FFF7A5FE04EB4401F4
:100CA00016AA02EBC100FFF777FD002528E004EB50
:100CB000440016A901EBC00000EBC50090ED002B2D
:100CC000B0EE420AF0EE620A04EB4400DD4901EBAB
:100CD000C00000EBC50090ED002BB0EE421AF0EE24
:100CE000621A53EC102B51EC110B0CF0A1FC04EB2D
:100CF0004402D44B03EBC20202EBC50203C26D1CDB
:100D0000032DD4DBD04800EB840090ED000A13A83B
:100D100000EB8400D0ED000A30EE200ACA4800EB58
:100D2000840080ED000A641C032C00E042E2AADB90
:100D300003F021FA10B913A803F0CCF9BE480068FB
:100D400005287CD14822C149684609F096FBC04875
:100D50000078401CBE4908700020B7490860002494
:100D600031E0B94800EB840090ED000AF1EE040A8E
:100D700080EE201AB74800EB840080ED001A0025B1
:100D80001EE004EB4400AF4901EBC00000EBC500DE
:100D900090ED001BB0EE410AF0EE610A9FEDAE1B34
:100DA00053EC112B51EC100B0CF0FEFC04EB440344
:100DB000A34A203202EBC30202EBC50203C26D1C40
:100DC000032DDEDB641C032CCBDB002413E0A148E5
:100DD00000EB8400D0ED000AB0EE600A204603F07C
:100DE000CBF8DFED9F0A80EE201A9A4800EB8400D2
:100DF00080ED001A641C032CE9DB00242DE09FED3C
:100E0000990A914800EB840080ED000A002521E05A
:100E100004EB44018A48203000EBC10000EBC50020
:100E200090ED000B04EB44018548683000EBC100F5
:100E300000EBC50080ED000B9FED8B0B00E0BDE1EA
:100E400004EB44007F4901EBC00000EBC50080EDDE
:100E5000000B6D1C032DDBDB641C032CCFDB00259A
:100E60002DE0002428E005EB45017548683000EBD3
:100E7000C10000EBC40090ED001BB0EE410AF0EEA3
:100E8000610A0BF0D5FCB0EE408AF0EE608A9FED6F
:100E9000780B53EC102B51EC180B0CF0A1FE0AD27E
:100EA0009FED710B05EB4500694601EBC00000EBBF
:100EB000C40080ED000B641C032CD4DB6D1C032DDF
:100EC000CFDB002565E005EB4500694601EBC0007E
:100ED00090ED022BB0EE420AF0EE620A05EB4500FF
:100EE00001EBC00090ED002BB0EE421AF0EE621A5A
:100EF00053EC102B51EC110B0CF09AFB41EC190B3D
:100F000005EB4500694601EBC00090ED041BB0EE17
:100F1000410AF0EE610A53EC102B51EC190B0CF066
:100F200087FB41EC180B002430E09FED530B53EC92
:100F3000102B51EC180B0CF08DFF1BD205EB45006C
:100F4000694601EBC00000EBC40090ED001BB0EE61
:100F5000410AF0EE610A53EC182B51EC100B0CF027
:100F600023FC05EB45026B4603EBC20202EBC40215
:100F700003C20AE09FED3C0B05EB4500694601EB1F
:100F8000C00000EBC40080ED000B641C032CCCDB24
:100F90006D1C032D97DB9DED042BB0EE420AF0EEA5
:100FA000620A274890ED262BB0EE421AF0EE621A44
:100FB00053EC102B51EC110B0CF04EFE41EC180BC6
:100FC0009DED022BB0EE420AF0EE620A1C4890ED55
:100FD000202BB0EE421AF0EE621A53EC102B51ECBB
:100FE000110B0CF039FE41EC1A0B9DED002BB0EE0D
:100FF000420AF0EE620A124890ED1A2BB0EE421A45
:10100000F0EE621A53EC102B51EC110B0CF024FE95
:1010100041EC1B0B53EC1A2B0CF00AFB41EC190BA7
:1010200053EC182B0CF004FB054AB03203C29DEDC3
:101030000A2B25E0040000201400002008000020F6
:10104000B82B0020E02D0020282E0020A0E400086E
:10105000090000201C2D00200000000000001440AA
:101060000000C84200000000000000000000000076
:101070007B14AE47E17A843FFCA9F1D24D62503F28
:10108000B0EE420AF0EE620AA2F1B80090ED282B11
:10109000B0EE421AF0EE621A53EC102B51EC110B29
:1010A0000CF0DAFD41EC180B9DED082BB0EE420A76
:1010B000F0EE620AA04890ED222BB0EE421AF0EE5C
:1010C000621A53EC102B51EC110B0CF0C5FD41ECE6
:1010D0001A0B9DED062BB0EE420AF0EE620A96481E
:1010E00090ED1C2BB0EE421AF0EE621A53EC102B6E
:1010F00051EC110B0CF0B0FD41EC1B0B53EC1A2B17
:101100000CF096FA41EC190B53EC182B0CF090FAFA
:10111000894AB032C2E902019DED102BB0EE420ABD
:10112000F0EE620A844890ED2A2BB0EE421AF0EEFF
:10113000621A53EC102B51EC110B0CF08DFD41ECAD
:10114000180B9DED0E2BB0EE420AF0EE620A7A48C3
:1011500090ED242BB0EE421AF0EE621A53EC102BF5
:1011600051EC110B0CF078FD41EC1A0B9DED0C2BA2
:10117000B0EE420AF0EE620A6F4890ED1E2BB0EE20
:10118000421AF0EE621A53EC102B51EC110B0CF0DA
:1011900063FD41EC1B0B53EC1A2B0CF049FA41ECAC
:1011A000190B53EC182B0CF043FA634AB032C2E926
:1011B000040103E061A1644804F093FE29B0BDEC92
:1011C000088B30BD6148007870476148017821B1D3
:1011D00000205F4A1070012070470020FCE75D4846
:1011E0000068704710B501215B4808F0A6FB012894
:1011F0000ED15A480068012804D159480068401CA3
:101200005749086005F04FF90121534808F0A6FB43
:1012100010BD012051490860002051490860704705
:101220004F490968642201FB02F000214C4A116019
:101230004A4A1160704710B501214A4808F07DFB09
:10124000012803D10121474808F088FB10BD10B5E3
:101250000121454808F071FB012803D101214248D2
:1012600008F07CFB10BD10B50121404808F065FB7B
:10127000012803D101213D4808F070FB10BD10B5D5
:1012800001213B4808F059FB012803D101213848CE
:1012900008F064FB10BD10B50121364808F04DFB85
:1012A000012803D10121334808F058FB10BD10B5C7
:1012B00040F22551304808F006FE012804D140F2E2
:1012C00025512D4808F036FE10BD10B540F22551CD
:1012D0002A4808F0F8FD012804D140F2255127489A
:1012E00008F028FE10BD00BFFEE700B5FDB01248B3
:1012F000D0F8F001B0F5FA7F13D804F0E7FF012031
:101300000D49C1F8EC010846D0F8F0014FF4F8722D
:1013100010317C90684609F0B0F807480FC804F017
:1013200007FF00BFFEE700BFFEE700BFFEE700BF0C
:10133000FEE7704770470000B82B002054494D323B
:10134000206572726F7200000010014009000020D9
:101350000800002004000020001400400C000020C1
:10136000100000200000014000040140000C00407B
:1013700000040040000800400050004000480040C9
:10138000F8B50024002504F056F9064640F2051190
:1013900004F031F900BF43E000253EE004F042FED6
:1013A000FA48C06804EB44010844405D6B1C621CB1
:1013B000F7A10090FE4804F094FD002614E0F348E5
:1013C000006804EB440101EB810100EB810005EBB7
:1013D000850100EB810000EB8600D0ED000AB0EE45
:1013E000600A04F001FE761C052EE8DB04F01AFE0C
:1013F00000260FE0E548006904EB440101EB8101A0
:10140000084405EB85010844825DEAA1E84804F040
:1014100068FD761C052EEDDB6D1C032DBEDB641C08
:10142000032CB9DB04F0FEFD04F0FCFD002408E011
:10143000D6484069035D621CDFA1DD4804F051FD20
:10144000641C032CF4DB04F0EDFD002611E0721C9B
:10145000DFA1D74804F045FDCC48406800EB86008A
:10146000D0ED000AB0EE600A04F0BEFD04F0DAFD33
:10147000761C032EEBDB04F0D5FD002611E0721C78
:10148000D8A1CB4804F02DFDC048806800EB860051
:10149000D0ED000AB0EE600A04F0A6FD04F0C2FD33
:1014A000761C032EEBDBF8BD38B504F0BBFD002540
:1014B00012E000240DE0B548C06805EB4501084482
:1014C000005D631C6A1CB2A10090B94804F009FDDC
:1014D000641C032CEFDB6D1C032DEADB38BD10B55B
:1014E00004F0A0FD002411E0621CBEA1B04804F08D
:1014F000F8FCA648806800EB8400D0ED000AB0EE4E
:10150000600A04F071FD04F08DFD641C032CEBDB1C
:1015100010BD10B504F086FD002411E0621CACA1E2
:10152000A34804F0DEFC9948406800EB8400D0ED4D
:10153000000AB0EE600A04F057FD04F073FD641C6D
:10154000032CEBDB10BD10B504F06CFD002408E0AB
:101550008E484069035D621C97A1954804F0C1FC68
:10156000641C032CF4DB10BD70B5002425E00025BD
:1015700020E004F057FD6B1C621C9FA18C4804F016
:10158000B0FC002613E08148006904EB440101EB44
:101590008101084405EB85010844805D00EE900A56
:1015A000F8EE600AB0EE600A04F01EFD761C052E0F
:1015B000E9DB6D1C032DDCDB641C032CD7DB70BD69
:1015C0002DE9F0412DED048B06460F469248006848
:1015D000401C914908600024002500BF33E100252C
:1015E0002DE1C4EB041000EB80008C4901EB4010AE
:1015F00005EBC50101EB051100EB411090ED000A70
:10160000DFED870A80EE201A04EB440007EB800030
:1016100000EB850090ED000A30EE410A04EB440037
:1016200007EB800000EB850080ED000AC4EB04129C
:1016300002EB8202794B03EB421205EBC50303EB8D
:10164000051302EB4312111DC4EB041202EB8202DC
:10165000724B03EB421205EBC50303EB051302EBE0
:1016600043104FF4477208F008FF04EB44016D4843
:1016700000EBC10000EBC50090ED001BB0EE410A8D
:10168000F0EE610A51EC100B0BF0A0FFC4EB04115B
:1016900001EB8101614A02EB411105EBC50202EB4E
:1016A000051201EB4211C1F81C03C4EB041202EB5A
:1016B00082025D4B03EB421205EBC50303EB0513FE
:1016C00002EB4312111DC4EB041202EB8202564BD3
:1016D00003EB421205EBC50303EB051302EB4310CA
:1016E0004FF4477208F0C9FEC4EB041000EB800011
:1016F0004A4901EB401005EBC50101EB051100EB78
:101700004110D0EDC70A9FED461A80EE810A04EB26
:10171000440007EB800000EB8500D0ED000A30EEBE
:10172000200A04EB440007EB800000EB850080ED0D
:10173000000A04EB440007EB800000EB850090ED0D
:10174000000A10EE101A08460CF07CFD41EC190B53
:1017500004EB4401334800EBC10000EBC50090ED01
:10176000001BB0EE410AF0EE610A53EC102B51EC75
:10177000190B0CF0A5FB0BF029FFC4EB041101EBD6
:101780008101294A02EB411150E00000549A0020E7
:101790006779726F20256420617869732025642041
:1017A00063686172744D6F64653A2025640D0A00A8
:1017B00000100140256409006779726F20256420BC
:1017C0007363616C654D6F64653A2025640D0A0092
:1017D00061786973202564206D696E56616C75654A
:1017E0003A20000061786973202564207661725880
:1017F000595A3A20000000006779726F2025642052
:101800006178697320256420636861727453656C24
:101810006563743A0D0A000018000020544A002045
:1018200000004843D82B0020342E002005EBC502D1
:1018300002EB051201EB4211C1F81C036D1C032DD4
:10184000FFF6CFAE641C032CFFF6C9AEFE4800685D
:10185000B0F5C87F04DA0020BDEC048BBDE8F08150
:101860004FF4C870F849086000245EE0002559E094
:101870009FEDF60A04EB440006EB800000EB8500C8
:1018800080ED000A002034E004EB440106EB810106
:1018900001EB850191ED000AC4EB041101EB81011C
:1018A000EB4A02EB411105EBC50202EB051201EB1D
:1018B000421101EB8001D1ED000AC4EB041101EBF0
:1018C0008101E34A02EB411105EBC50202EB05126F
:1018D00001EB421101EB800191ED001A00EE810A4B
:1018E00004EB440106EB810101EB850181ED000A67
:1018F000401CC828C8DB04EB440006EB800000EB6A
:101900008500D0ED000A1FED3A1A80EE810AF1EE53
:10191000C00A04EB440006EB800000EB8500C0ED3C
:10192000000A6D1C032DA3DB641C032C9EDB01202D
:1019300092E7C8480068401CC6490860084600682D
:10194000C549884201D200207047C448C149086097
:101950000120F9E7F0B52DED0C8BB5B0302128A8AA
:1019600008F0BDFD1822BE4922A808F086FD00201F
:101970001E901F9020902190B949183103C9CDE9DC
:101980001C01302110A808F0AAFD1822B44920310A
:101990000AA808F072FD00200690079008900990B0
:1019A000AF49383103C9CDE90401002700240025DF
:1019B000FFF7BFFF20B9002035B0BDEC0C8BF0BDA8
:1019C000A849A948FFF7FCFD08B90020F4E7002466
:1019D00051E000254CE004EB4400A34A02EB8000F8
:1019E00000EB850090ED000AF1EE040A20EE200ADB
:1019F00010EE101A08460CF025FC41EC180B04EB15
:101A00004400984A02EB800000EB850090ED000A4C
:101A100010EE101A08460CF015FC41EC1B0B04EB01
:101A20004401924800EBC10000EBC50090ED001BA3
:101A3000B0EE410AF0EE610A53EC102B51EC1B0B97
:101A40000CF03EFA41EC1A0BB0EE4A0AF0EE6A0ACC
:101A50000AF0EEFEB0EE409AF0EE609A53EC182BCE
:101A600051EC190B0CF0F6F901D20020A4E76D1C23
:101A7000032DB0DB641C032CABDB0024CEE07C48E0
:101A800000EB840090ED000A10EE101A08460CF0EE
:101A9000D9FB41EC180B9FED770B53EC102B0CF09E
:101AA000D9F97DD8724800EB840090ED000A10EE61
:101AB000101A08460CF0C6FB41EC180B9FED6F0B9B
:101AC00053EC102B0CF08CF86AD2694800EB8400C0
:101AD00090ED000A10EE101A08460CF0B3FB9FEDD3
:101AE000650B53EC102B0CF0C3FA9FED660B53EC17
:101AF000102B0CF0B1F80BF069FD08EE100AB0EEF7
:101B0000480A0AF009FFBDEEC00A10EE107AC4EBD5
:101B1000041000EB80005D4901EBC00050F8270085
:101B2000E8B3002538E004EB4401504800EBC10065
:101B300000EBC50090ED002BB0EE420AF0EE620A19
:101B4000C4EB4410C0EB0420514901EB0010C5EB7D
:101B5000051101EB810100EB011000EBC70090EDD6
:101B6000002BB0EE421AF0EE621A53EC102B51EC3F
:101B7000110B0BF05DFDC4EB4412C2EB0422444B8D
:101B800003EB0212C5EB051303EB830302EB031215
:101B900002EBC70203C26D1C032DC4DB2AE000E088
:101BA0003BE000251AE004EB4401304800EBC100A3
:101BB00000EBC50090ED000BC4EB4410C0EB04201B
:101BC000334901EB0010C5EB051101EB810100EB7E
:101BD000011000EBC70080ED000B6D1C032DE2DB54
:101BE0000020C4EB041101EB8101284A02EBC10182
:101BF00041F82700C4EB041000EB8000234901EBFF
:101C0000C00050F82700401CC4EB041101EB810117
:101C10001E4A02EBC10141F82700641C032CFFF6A9
:101C20002EAF1C480068401C1A490860084600682E
:101C3000C82858D1002008600C482038D0ED590A37
:101C4000B0EE600A28E0000018000020000000004C
:101C5000342E00201C000020407E050020AD050031
:101C6000E8E40008A06D00207C6D0020D82B002047
:101C70001C2D0020666666666666D63F34A2B437C1
:101C8000F8C2DC3F0000000000408F407466002076
:101C900020000020502A002004F0A6F9FE48D0EDD4
:101CA000020AB0EE600A04F09FF9FC48D0ED5A0A2F
:101CB000B0EE600A04F098F9F748D0ED050AB0EEEE
:101CC000600A04F091F9F548D0ED5B0AB0EE600AC5
:101CD00004F08AF9F048D0ED080AB0EE600A04F08A
:101CE00083F904F09FF90024C1E20021204602F0AC
:101CF0007CFB03287DD100200190029003902246B6
:101D0000E7A1EB4804F0EDF8002655E1C4EB041020
:101D100000EB8000E74901EBC00050F826000028E6
:101D200068D030460BF031FF9FEDE30B53EC102BE6
:101D30000BF07EFC1FED2D0B53EC102B0BF034FD44
:101D400041EC180BC4EB041101EB8101D94A02EB01
:101D5000C10151F826000BF02FFF53EC182B0BF0AC
:101D60007BFF41EC190B1CA800EBC40090ED001B9D
:101D7000B0EE410AF0EE610A53EC102B51EC190B56
:101D80000BF056FC1CAA02EBC40203C2C4EB041104
:101D900001EB8101C74A02EBC10151F826000BF0AB
:101DA0000BFF53EC182B0BF057FF53EC182B0BF0D9
:101DB00053FF41EC190B04A800EBC40090ED001B8D
:101DC000B0EE410AF0EE610A53EC102B51EC190B06
:101DD0000BF02EFC04AA02EBC40203C2C4EB0410F5
:101DE00000EB8000B34901EBC00050F8260001A9C8
:101DF00001E03BE2ACE051F82410084401A941F8AD
:101E000024000025A0E0C4EB4410C0EB0420AC4942
:101E100001EB0010C5EB051101EB810100EB011096
:101E200000EBC60090ED001BB0EE410AF0EE610A37
:101E300053EC182B51EC100B0BF00EFF41EC190B6F
:101E400004EB440022A901EBC00000EBC50090EDBB
:101E5000001BB0EE410AF0EE610A53EC102B51EC7E
:101E6000190B0BF0E5FB04EB440222AB03EBC202BF
:101E700002EBC50203C2C4EB4410C0EB042090493E
:101E800001EB0010C5EB051101EB810100EB011026
:101E900000EBC60090ED002BB0EE420AF0EE620AB5
:101EA00004EB44000AA901EBC00000EBC50090ED73
:101EB000002BB0EE421AF0EE621A53EC102B51ECEC
:101EC000110B0BF0B5FB04EB44020AAB03EBC202AF
:101ED00002EBC50203C2C4EB041101EB8101754A98
:101EE00002EBC10151F826000BF066FE41EC190B24
:101EF000C4EB4410C0EB0420714901EB0010C5EBAA
:101F0000051101EB810100EB011000EBC60090ED23
:101F1000001BB0EE410AF0EE610A53EC192B51ECB4
:101F2000100B0BF041FCC4EB4412C2EB0422644BD7
:101F300003EB0212C5EB051303EB830302EB031261
:101F400002EBC60203C26D1C032DFFF65CAF32E04C
:101F50000020C4EB041101EB8101564A02EBC101E0
:101F600041F826009FED570BC4EB4410C0EB042052
:101F7000534901EB001000EBC60080ED000B9FED14
:101F8000510BC4EB4410C0EB042001EB001000F532
:101F9000966000EBC60080ED000B9FED4A0BC4EB92
:101FA0004410C0EB042001EB001000F5166000EBBC
:101FB000C60080ED000B761C962EFFF6A7AE00251E
:101FC000E7E00421084637E0404A126804EB440386
:101FD00003EB830302EB830205EB850302EB830231
:101FE00002EB800252F8041C21F00042C2F1FF42D1
:101FF000D20FFAB93549096804EB440202EB8202B8
:1020000001EB820105EB850201EB820101EB80010E
:1020100011ED010A2D49096804EB440202EB82022A
:1020200001EB820105EB850201EB820101EB8001EE
:1020300081ED000A411E08460028C5DC1CA800EB03
:10204000C40090ED002BB0EE420AF0EE620A1CA82C
:1020500000EBC40090ED002BB0EE421AF0EE621AD5
:1020600053EC102B51EC110B0BF0F6FD41EC1B0B5C
:1020700001A951F824000BF088FD41EC1D0B04A8C8
:1020800000EBC40090ED001BB0EE410AF0EE610AD7
:1020900053EC102B1CE000007C6D0020B82B0020BE
:1020A0000D0A66696E697368202564200D0A200098
:1020B00000100140746600200000000000E0754040
:1020C000200000200000000000000000549A0020C2
:1020D00051EC1D0B0BF0C0FD41EC1C0B53EC1B2B0A
:1020E0000BF0C6FF41EC190B04EB44000AA901EB0D
:1020F000C00000EBC50090ED002BB0EE420AF0EE00
:10210000620A1CA800EBC40090ED002BB0EE421A4E
:10211000F0EE621A53EC102B51EC110B0BF09CFDFE
:1021200041EC1B0B01A951F824000BF02EFD41ECF2
:102130001D0B04EB440022A901EBC00000EBC5001D
:1021400090ED001BB0EE410AF0EE610A53EC102B4B
:1021500051EC1D0B0BF080FD41EC1C0B53EC1B2BC9
:102160000BF086FF41EC1A0B53EC192B0BF01CFB08
:1021700041EC180B0BF02AFA7E49096804EB440283
:1021800002EB820201EB820105EB850241F822009D
:102190006D1C032DFFF615AF0121204602F025F935
:1021A00003F049FA064640F2051103F0E0F972A186
:1021B000764803F096FEFFF7E3F8002646E01FEDB1
:1021C0003F0B1CA800EBC40080ED000B1FED430B80
:1021D00004A800EBC40080ED000B0020C4EB041148
:1021E00001EB81016A4A02EBC10141F8260000259A
:1021F00029E01FED4C0BC4EB4410C0EB04206549F3
:1022000001EB0010C5EB051101EB810100EB0110A2
:1022100000EBC60080ED000B1FED560B04EB4400F5
:1022200022A901EBC00000EBC50080ED000B1FED03
:102230005B0B04EB44000AA901EBC00000EBC500F6
:1022400080ED000B6D1C032DD3DB761C9FED520A35
:102250000AF062FBF0EE400A00EE106AB8EEC00A27
:10226000F4EEC00AF1EE10FAA9DC00BF641C032CE6
:10227000FFF63BAD0120FFF79FBB70B52DED028B44
:1022800086B005460E46B0EE408A142243A101A84E
:1022900008F0F3F83446002059E0B0EE000AC8EE2A
:1022A000000AB6EE000A30EE800ABDEEC00AB8EEB3
:1022B000C00AF0EE000A20EE200AB4EEC80AF1EEE1
:1022C00010FA01DD002814DCF0EE000A88EE200A86
:1022D000F6EE000A30EE200ABDEEC00AB8EEC00AE3
:1022E000F0EE000A20EE200AB4EE480AF1EE10FAF1
:1022F00015D1F0EE000A88EE200AF6EE000A30EE64
:10230000200ABDEEC00A10EE101A2944091A11F86D
:10231000011C01AA02EB2111097804F8011BB0EE9F
:10232000000AC8EE000AB6EE000A30EE800ABDEEE2
:10233000C00A10EE101A2944091A11F8011C01F004
:102340000F0101AA515C04F8011B411CC8B2B0EE98
:10235000000AC8EE000AB6EE000A30EE800ABDEEB2
:10236000C00A10EE101A814297DC06B0BDEC028B59
:1023700070BD0000549A0020466C6173682055704F
:102380006461746520656E640D0A000000100140F0
:1023900074660020200000200000C8423031323333
:1023A0003435363738394142434445460000000051
:1023B00013B5DDE900200AB1012200E0002240EA65
:1023C000020121F00040FA4A101AC00F1CBD30B5BE
:1023D0002DED028B87B0F748D0F8F401002860D0CB
:1023E000F5480068401CF449086008460068B0F5EC
:1023F000C87F19DC002014E0EE49B03101EBC001C8
:1024000091ED000B00EBC00101EB0011EB4A02EB78
:10241000C112E9490968491E02EBC10181ED000BB7
:10242000401C0328E8DBAAE0E3480068B0F5C87F59
:10243000F9DD4FF4C870E049086000202EE000216B
:1024400017E000EBC00202EB0012DC4B03EBC213FF
:102450004A1C03EBC20292ED000B00EBC00202EB40
:102460000012D64B03EBC21202EBC10282ED000B4D
:10247000491CB1F5C77FE4DDCE49B03101EBC001A5
:1024800091ED000B00EBC00101EB0011CB4A02EB18
:10249000C11101F5406181ED1E0B401C0328CEDB0C
:1024A0006DE01821684608F01AF8C348006814283F
:1024B00049DB002445E0002522E004EBC40000EBEA
:1024C0000410BE4901EBC01000EBC50090ED002BDD
:1024D000B0EE420AF0EE620A684600EBC40090EDEE
:1024E000002BB0EE421AF0EE621A53EC102B51ECB6
:1024F000110B0BF09DF86A4602EBC40203C26D1C7F
:10250000AD4800688542D8DBAB4800680BF03DFB66
:1025100041EC180B684600EBC40090ED001BB0EED8
:10252000410AF0EE610A53EC182B51EC100B0BF042
:102530003BF90A4601469F48E03000EBC40006C064
:10254000641C032CB7DB002013E000210DE09FED9D
:102550009C0B00EBC00202EB0012984B03EBC21283
:1025600002EBC10282ED000B491CB1F5C87FEEDB26
:10257000401C0328E9DB00208F49086000BF07B03A
:10258000BDEC028B30BD10B58A4890ED2C0B80ED70
:10259000320B90ED2E0B80ED340B90ED300B80ED77
:1025A000360BD0F8F80118B140F6B930864908600A
:1025B000FFF70DFF84480068401C8349086002F063
:1025C0007FFF00F00200E8B37F480068B0F5C87FE5
:1025D00047DD784890ED382BB0EE420AF0EE620A03
:1025E00090ED322BB0EE421AF0EE621A53EC102B43
:1025F00051EC110B0BF03CFD6E4AC83203C26D4822
:1026000090ED3A2BB0EE420AF0EE620A90ED342BD8
:10261000B0EE421AF0EE621A53EC102B51EC110B93
:102620000BF026FD634AC832C2E90201614890ED11
:102630003C2BB0EE420AF0EE620A90ED362BB0EE83
:10264000421A00E00DE0F0EE621A53EC102B51EC50
:10265000110B0BF00DFD574AC832C2E904010120ED
:1026600010BD0020FCE700B52DED028B87B01821CE
:10267000684607F034FF4F4890ED320B8DED000BAC
:1026800090ED340B8DED020B90ED360B8DED040BC0
:102690009DED001BB0EE410AF0EE610A0AF0C8F8A9
:1026A000B0EE408AF0EE608A9FED480B53EC102BA1
:1026B00051EC180B0BF094FA03D29FED410B8DED0A
:1026C000000B9DED021BB0EE410AF0EE610A0AF02C
:1026D000AFF8B0EE408AF0EE608A9FED3C0B53EC11
:1026E000102B51EC180B0BF07BFA03D29FED340B3F
:1026F0008DED020B9DED041BB0EE410AF0EE610A78
:102700000AF096F8B0EE408AF0EE608A9FED2F0B4B
:1027100053EC102B51EC180B0BF062FA03D29FED27
:10272000280B8DED040B234890ED361BB0EE410ACB
:10273000F0EE610A9FED271B53EC112B51EC100BAF
:102740000BF08AFA41EC180B1A4890ED701BB0EEB2
:10275000410AF0EE610A53EC102B51EC180B0AF011
:1027600067FF1E4AC2E90401124890ED701BB0EEEB
:10277000410AF0EE610A9FED1A1B53EC112B51EC4C
:10278000100B0BF067FB33D20A4890ED701BB0EED4
:10279000410AF0EE610A9FED141B53EC112B51EC32
:1027A000100B0BF065FC0D4AC2E9040142E0000089
:1027B0000000F07FB82B0020602A0020F06D002080
:1027C00000000000000000005C2A00200000004023
:1027D0003333D33F7B14AE47E17A743F682D00203A
:1027E000000000000080664000000000008076408D
:1027F000FB4890ED701BB0EE410AF0EE610A9FEDD0
:10280000F91B53EC112B51EC100B0BF0E9F911D221
:10281000F34890ED701BB0EE410AF0EE610A1FED37
:102820000E1B53EC112B51EC100B0AF001FFEF4A79
:10283000C2E9040107B0BDEC028B00BD00B52DED6F
:10284000028B83B0B0EE408A9FEDE90A8DED000A5D
:102850009FEDE70A8DED010ADFEDE60A88EE200A1A
:10286000DFEDE50A20EE200A8DED020ADC4968461C
:1028700003F0FDFE03B0BDEC028B00BD70B52DED85
:10288000068B82B0B0EE408AF0EE608AB0EE419ADC
:10289000F0EE619A002651EC190BFFF789FD08B1A3
:1028A000012621E053EC192B51EC180B0AF07CFFA8
:1028B00041EC1A0BFFF77CFDB0B11FED3F0B53EC61
:1028C000102B51EC180B0BF0C5FA01D202260BE0CD
:1028D0001FED450B53EC102B51EC180B0BF080F94E
:1028E00001D2032600E00426002E4ED001F05DF850
:1028F00018B101F05AF8054603E000BFEFF3088075
:10290000054610353246BDA1BF4803F0EAFA002063
:102910000190BEA2BEA1BC4803F0E3FA032416E076
:10292000291901F11C00B0EE000A01A9FFF7A5FC6E
:1029300001AAB7A1B44803F0D4FAE11704EB9171EE
:102940008910A4EB810109B903F06CFB641E14F13A
:102950001C0FE5DA03F066FB012E06D0022E0AD02A
:10296000032E0BD0042E0FD10BE01FED6B0B02B02A
:10297000BDEC068B70BD9FEDA70BF8E79FEDA70B95
:10298000F5E71FED710BF2E70AE0B0EE491AF0EE41
:10299000691AB0EE480AF0EE680A09F0D1FDE6E7E0
:1029A000B0EE491AF0EE691AB0EE480AF0EE680A85
:1029B00009F0C6FDDBE770B52DED108B84B000206B
:1029C0000190029003909FED8A0AB0EE408A0024A5
:1029D000DFE004EB44028548943800EB820090ED80
:1029E000000A20EE000A04EB44028048943800EB11
:1029F0008200D0ED010A04EB44027C48943800EBDD
:102A0000820090ED011A00EE810A04EB440277483F
:102A1000943800EB8200D0ED020A04EB44027348C4
:102A2000943800EB820090ED021A00EE810A10EE5D
:102A3000101A08460BF006FC41EC1A0BB0EE4A0ADD
:102A4000F0EE6A0A0AF01CF8B0EE409AF0EE609AD6
:102A500051EC190B0AF0BAFD01A941F8240004EB6E
:102A600044016248943800EB810090ED000A01A80F
:102A700000EB8400D0ED000A80EE201A11EE105A0F
:102A800004EB44015948943800EB810090ED010AB1
:102A900001A800EB8400D0ED000A80EE201A11EEB0
:102AA000106A04EB44015148943800EB810090ED2A
:102AB000020A01A800EB8400D0ED000A80EE201A83
:102AC000F0EE418AB1EE680A10EE100A0BF0BAFB84
:102AD00041EC1A0B28460BF0B5FB41EC1B0BB0EE9A
:102AE0004A1AF0EE6A1AB0EE4B0AF0EE6B0AFFF7E4
:102AF000C5FEB0EE409AF0EE609A51EC190B0AF068
:102B000065FD3A496C3901EBC401486037486C38BF
:102B100000EBC40090ED010A10EE101A08460BF00D
:102B200091FB41EC1F0BB0EE4F0AF0EE6F0A09F07B
:102B300043FFB0EE40DAF0EE60DA28460BF082FB9D
:102B400041EC1E0B53EC1D2B0AF02EFE41EC1B0B2F
:102B500030460BF077FB41EC1C0BB0EE4B1AF0EE5D
:102B60006B1AB0EE4C0AF0EE6C0AFFF787FEB0EE7F
:102B700040AAF0EE60AA51EC1A0B0AF01BFD41ECE2
:102B8000190B0AF023FD014618486C3840F8341040
:102B9000641C032CFFF61DAF114890ED510AD0EDD7
:102BA000530A30EE200AD0ED550A30EE200AF0EE3E
:102BB000080A80EE201A80ED571A90ED520AD0EDE7
:102BC000540A30EE200AD0ED560A30EE200AF0EE1C
:102BD000080A80EE201A80ED581A002040E000001C
:102BE000B82B002000000000008066C0682D002087
:102BF0000000000000003443DB0F494074616E4662
:102C000061756C742025640000100140307800006C
:102C1000257300004AD8124DFB21F93F4AD8124DC6
:102C2000FB21F9BF002118E000EB4003FE4A02EB54
:102C3000830202EB8102D2ED000A00EB4003FA4A64
:102C400002EB830202EB810292ED001AB0EE480A19
:102C500000EE810AB0EE408A491C0329E4DB401CE7
:102C60000328DFDBF14890ED500A38EE400A10EE01
:102C7000101A08460BF0E6FA41EC1A0BB0EE4A0ABD
:102C8000F0EE6A0A09F0D4FDB0EE409AF0EE609AD8
:102C90009FEDE70B53EC102B51EC190B0AF0A0FF42
:102CA00004D2012004B0BDEC108B70BD0020F9E708
:102CB00001460A88012006E031F81030934201DD18
:102CC00031F81020401C0A28F6DB104670470146F8
:102CD0000A88012006E031F81030934201DA31F819
:102CE0001020401C0A28F6DB1046704770B5002003
:102CF00002F094FECD49A1F8D801012002F08EFE29
:102D0000CA49A1F8DA0100200CE0CB4A411C32F894
:102D1000111022F81010C94A411C32F8111022F883
:102D20001010401C0928F0DBC048B0F8D801C24997
:102D30004882BE48B0F8DA01C0494882BE48FFF771
:102D4000C6FF0646BC48FFF7B3FF351A002D01DB6E
:102D5000284600E06842012813DCB848FFF7B7FFB7
:102D60000646B648FFF7A4FF341A002C01DB2046C4
:102D700000E06042012804DC0120AC49C1F8F40104
:102D800003E00020A949C1F8F40170BD30B589B055
:102D90002421684607F0A3FB0024A2E000259CE064
:102DA000A748C06804EB44010844405D10B1012805
:102DB0002AD128E004EB4400694601EB800050F87A
:102DC0002500401C04EB44016A4602EB810141F8F6
:102DD000250004EB44009B4901EBC00000EBC5005B
:102DE00090ED001BB0EE410AF0EE610A51EC100BC1
:102DF0000AF0ECFB04EB44028B496C3101EB8201DD
:102E000041F8250000E000BF00BF002041E08C49F0
:102E1000096904EB440202EB8202114405EB8502CE
:102E20001144095CA1B304EB44016A4602EB810141
:102E300051F82510491C04EB44026B4603EB820257
:102E400042F8251004EB440277496C3101EB820112
:102E500001EB850191ED000A7949096804EB440210
:102E600002EB820201EB820105EB850201EB82019C
:102E700001EB8001D1ED000A30EE200A04EB4402A0
:102E800069496C3101EB820101EB850181ED000A9A
:102E9000401C0528BBDB04EB440163486C3000EBAD
:102EA000810000EB8500D0ED000A04EB4400694688
:102EB00001EB800050F8250000EE100AB8EEC00AC1
:102EC00080EE801A04EB440157486C3000EB81001F
:102ED00000EB850080ED001A6D1C032DFFF660AF3E
:102EE000641C032CFFF65AAF09B030BD70B52DED50
:102EF000068B82B0B0EE408A002618EE100A20F051
:102F00000041C1F1FF41C90F09B1012610E0B7EE40
:102F1000000AB4EEC08AF1EE10FA01DB022607E0E7
:102F2000BFEE000AB4EEC08AF1EE10FA00D8032614
:102F3000002E4CD000F039FD18B100F036FD0546EA
:102F400003E000BFEFF308800546103532463EA18E
:102F5000404802F0C6FF00200190AFF25032AFF2BD
:102F600050313C4802F0BDFF032417E0291901F15C
:102F70001C00B0EE000A01A9FFF77FF901AAAFF229
:102F80007031344802F0ADFFE11704EB9171891004
:102F9000A4EB810109B903F045F8641E14F11C0F7C
:102FA000E4DA03F03FF8012E04D0022E08D0032EFD
:102FB0000CD108E01FEDF20A02B0BDEC068B70BD2B
:102FC0009FED250AF8E79FED250AF5E716E018EED4
:102FD000100A0BF037F941EC1A0BB0EE4A0AF0EE8A
:102FE0006A0A08F091FFB0EE409AF0EE609A51EC58
:102FF000190B0AF0EBFA00EE100ADDE718EE100AE2
:103000000BF020F941EC1A0BB0EE4A0AF0EE6A0A16
:1030100008F07AFFB0EE409AF0EE609A51EC190B8E
:103020000AF0D4FA1CE00000D42C0020B82B0020B9
:10303000FA7E6ABC7493683FC86D0020DC6D002086
:10304000549A002028E5000873696E4661756C7417
:103050002025640000100140DA0FC93FDA0FC9BF14
:1030600000EE100AA8E710B52DED0C8BB0EE408AEB
:10307000F0EE608AFE48806890ED020A10EE101AA9
:1030800008460BF0DFF841EC1B0B9FEDFA0BB0EE9E
:1030900040AAF0EE60AAF94890ED000BB0EE409A1D
:1030A000F0EE609AC422F649A1F1080007F0E5F9B4
:1030B00053EC192B51EC180B0AF0DAFFF04A083ADE
:1030C00002F5C47203C29FEDEB0BB0EE40AAF0EE26
:1030D00060AA002422E0EA48083800EBC40090ED22
:1030E000002BB0EE420AF0EE620AE548083800EB29
:1030F000C40090ED002BB0EE421AF0EE621A53ECD1
:10310000102B51EC110B0AF0A7FD41EC1C0B53ECFA
:103110001A2B0AF08DFA41EC1A0B641C322CDADB04
:103120009FEDD80B53EC102B51EC1A0B0AF03CFB23
:1031300041EC1A0BD5480068401CD4490860084689
:10314000006864280FD2D24890ED000B53EC102B8E
:1031500051EC180B0AF06CFACD4A03C29FEDC50B77
:10316000BDEC0C8B10BDC948006864280DD19FEDE3
:10317000C90B53EC102BC64890ED000B51EC100B13
:103180000AF012FB41EC190B02E06520BF49086010
:10319000C24890ED000B53EC102BC14890ED000B92
:1031A00051EC100B0AF044FABE4A03C253EC1B2B3D
:1031B000BC4890ED000B51EC100B0AF039FA41ECD1
:1031C0001C0B53EC1C2BB74890ED000B51EC100B73
:1031D0000AF0EAFAB44A03C253EC192B51EC180B6B
:1031E0000AF046FF41EC1D0BAF4890ED000B53EC8D
:1031F000102B51EC1D0B0AF02FFD41EC1C0B53EC76
:10320000192B0AF015FA9D4A03C2A74890ED000B4E
:1032100053EC102B9FEDA50B51EC100B0AF028FF7F
:1032200041EC1C0B9F4890ED000B53EC102B51EC24
:103230001C0B0AF011FD9A4A03C29B4890ED000B4B
:1032400053EC102B90ED000B51EC100B0AF004FD29
:1032500041EC1C0B53EC1A2B0AF0FEFC8F4A03C204
:103260009FED940B53EC102B8F4890ED000B51EC1D
:10327000100B0AF0EFFD02D2804880ED008B7F48F2
:1032800090ED000B6CE710B52DED0C8BB0EE408A85
:10329000F0EE608A7648806890ED020A10EE101A0F
:1032A00008460AF0CFFF41EC1B0B9FED720BB0EE0E
:1032B00040AAF0EE60AA814890ED000BB0EE409A73
:1032C000F0EE609AC4227E49A1F1080007F0D5F81B
:1032D00053EC192B51EC180B0AF0CAFE784A083A45
:1032E00002F5C47203C29FED630BB0EE40AAF0EE8C
:1032F00060AA002422E07248083800EBC40090ED78
:10330000002BB0EE420AF0EE620A6D48083800EB7E
:10331000C40090ED002BB0EE421AF0EE621A53ECAE
:10332000102B51EC110B0AF097FC41EC1C0B53ECE9
:103330001A2B0AF07DF941EC1A0B641C322CDADBF3
:103340009FED500B53EC102B51EC1A0B0AF02CFA9A
:1033500041EC1A0B5B480068401C5A49086008465B
:10336000006864280FD2584890ED000B53EC102BE6
:1033700051EC180B0AF05CF9534A03C29FED3D0B68
:10338000BDEC0C8B10BD4F48006864280DD19FED3B
:10339000410B53EC102B4C4890ED000B51EC100BF3
:1033A0000AF002FA41EC190B02E065204549086079
:1033B000464890ED000B53EC102B454890ED000B68
:1033C00051EC100B0AF034F9424A03C253EC1B2BA8
:1033D000404890ED000B51EC100B0AF029F941EC3C
:1033E0001C0B53EC1C2B3B4890ED000B51EC100BCD
:1033F0000AF0DAF9384A03C253EC192B51EC180BD6
:103400000AF036FE41EC1D0B334890ED000B53ECF7
:10341000102B51EC1D0B0AF01FFC41EC1C0B53EC64
:10342000192B0AF005F9254A03C22B4890ED000B31
:1034300053EC102B9FED1D0B51EC100B0AF018FEF6
:1034400041EC1C0B234890ED000B53EC102B51EC7E
:103450001C0B0AF001FC1E4A03C21F4890ED000B32
:1034600053EC102B90ED000B51EC100B36E00000EC
:10347000549A00200000000000000000682A00208C
:10348000789300200000000000004940982A0020A6
:10349000902A00200000000000C05840882A002028
:1034A000702A0020782A0020802A002000000000D6
:1034B0000000F03F000000000000E03FA02A0020D4
:1034C00008950020D02A0020C82A0020C02A002009
:1034D000A82A0020B02A0020B82A00200AF0BCFB4D
:1034E00041EC1C0B53EC1A2B0AF0B6FBFE4A03C24C
:1034F0001FED100B53EC102BFC4890ED000B51EC22
:10350000100B0AF0A7FC02D2F94880ED008BF848B6
:1035100090ED000B34E710B52DED0C8BB0EE408A2A
:10352000F0EE608AF348806890ED000A10EE101A01
:1035300008460AF087FE41EC1B0B1FED320BB0EE84
:1035400040AAF0EE60AAEC4890ED000BB0EE409A75
:10355000F0EE609A4FF4C472E849A1F1080006F059
:103560008CFF53EC192B51EC180B0AF081FDE34A48
:10357000083A02F5C47203C21FED420BB0EE40AA36
:10358000F0EE60AA002422E0DC48083800EBC4001A
:1035900090ED002BB0EE420AF0EE620AD7480838F0
:1035A00000EBC40090ED002BB0EE421AF0EE621A70
:1035B00053EC102B51EC110B0AF04EFB41EC1C0BA1
:1035C00053EC1A2B0AF034F841EC1A0B641C322C21
:1035D000DADB1FED540B53EC102B51EC1A0B0AF0F5
:1035E000E3F841EC1A0BC6480068401CC449086067
:1035F0000846006864280FD2C24890ED000B53ECD7
:10360000102B51EC180B0AF013F8BE4A03C21FED41
:10361000670BBDEC0C8B10BDB948006864280DD158
:103620001FED640B53EC102BB64890ED000B51ECE2
:10363000100B0AF0B9F841EC190B02E06520B04913
:103640000860B14890ED000B53EC102BAF4890EDA3
:10365000000B51EC100B09F0EBFFAD4A03C253EC29
:103660001B2BAB4890ED000B51EC100B09F0E0FF69
:1036700041EC1C0B53EC1C2BA54890ED000B51ECBE
:10368000100B0AF091F8A34A03C253EC192B51EC2A
:10369000180B0AF0EDFC41EC1D0B9E4890ED000B61
:1036A00053EC102B51EC1D0B0AF0D6FA41EC1C0B1D
:1036B00053EC192B09F0BCFF8F4A03C2954890EDDB
:1036C000000B53EC102B1FED870B51EC100B0AF085
:1036D000CFFC41EC1C0B8E4890ED000B53EC102BF3
:1036E00051EC1C0B0AF0B8FA884A03C2894890EDE5
:1036F000000B53EC102B90ED000B51EC100B0AF06B
:10370000ABFA41EC1C0B53EC1A2B0AF0A5FA7E4ADB
:1037100003C21FED980B53EC102B7E4890ED000B6D
:1037200051EC100B0AF096FB02D2734880ED008B2F
:10373000714890ED000B6CE710B52DED0C8BB0EEE1
:10374000408AF0EE608A6B48806890ED010A10EEC6
:10375000101A08460AF076FD41EC1B0B1FEDBB0B5F
:10376000B0EE40AAF0EE60AA6B4890ED000BB0EE10
:10377000409AF0EE609AC4226849A1F1080006F070
:103780007CFE53EC192B51EC180B0AF071FC634AC8
:10379000083A02F5C47203C21FEDCA0BB0EE40AA8C
:1037A000F0EE60AA002422E05C48083800EBC40078
:1037B00090ED002BB0EE420AF0EE620A574808384E
:1037C00000EBC40090ED002BB0EE421AF0EE621A4E
:1037D00053EC102B51EC110B0AF03EFA41EC1C0B90
:1037E00053EC1A2B09F024FF41EC1A0B641C322C09
:1037F000DADB1FEDDC0B53EC102B51EC1A0B09F04C
:10380000D3FF41EC1A0B46480068401C444908604D
:103810000846006864280FD2424890ED000B53EC34
:10382000102B51EC180B09F003FF3E4A03C21FEDA9
:10383000EF0BBDEC0C8B10BD3948006864280DD12E
:103840001FEDEC0B53EC102B364890ED000B51ECB8
:10385000100B09F0A9FF41EC190B02E0652030497B
:103860000860314890ED000B53EC102B2F4890ED81
:10387000000B51EC100B09F0DBFE2D4A03C253EC98
:103880001B2B2B4890ED000B51EC100B09F0D0FED8
:1038900041EC1C0B53EC1C2B254890ED000B51EC1C
:1038A000100B09F081FF234A03C253EC192B51EC92
:1038B000180B0AF0DDFB41EC1D0B1E4890ED000BD0
:1038C00053EC102B51EC1D0B0AF0C6F941EC1C0B0C
:1038D00053EC192B09F0ACFE0F4A03C2154890EDCA
:1038E000000B53EC102B27E0C02A0020B82A002040
:1038F000A02A0020549A0020D82A00209896002060
:10390000082B0020002B0020F82A0020E02A0020AD
:10391000E82A0020F02A0020102B00202898002000
:10392000402B0020382B0020302B0020182B0020AB
:10393000202B0020282B00209FED1D0B51EC100B9D
:103940000AF096FB41EC1C0B1B4890ED000B53EC6E
:10395000102B51EC1C0B0AF07FF9184A03C21848CF
:1039600090ED000B53EC102B90ED000B51EC100B75
:103970000AF072F941EC1C0B53EC1A2B0AF06CF9AB
:10398000104A03C29FED100B53EC102B0C4890ED26
:10399000000B51EC100B0AF05DFA02D20C4880EDDE
:1039A000008B0B4890ED000B43E7EFF30980704765
:1039B000000000000000F03F202B0020182B00200A
:1039C000282B0020302B0020000000000000E03FEA
:1039D000102B002000B52DED0A8B8BB00020089035
:1039E0000990049005900690079000900190029035
:1039F00003909FEDFE0BB0EE408AF0EE608AFD482A
:103A0000D0F8F80110B10420FB490870FA4800789A
:103A1000032813DCF748B0F8D801F649A1F8DC0117
:103A20000846B0F8DA11A0F8DE11002008900990DD
:103A3000F1480078401CF049087019E0ED48B0F8F2
:103A4000D801EC49B1F8DC11401A0890E948B0F807
:103A5000DA11B0F8DE01081A0990E648B0F8D8018A
:103A6000E449A1F8DC010846B0F8DA11A0F8DE114B
:103A70000898B0F5006F03DD0898A0F58050089015
:103A8000089810F5006F03DA089800F58050089048
:103A90000998B0F5006F03DD0998A0F580500990F2
:103AA000099810F5006F03DA099800F58050099025
:103AB000D04890ED700BB0EE408AF0EE608ACF48AF
:103AC00090ED000B53EC102B51EC180B0AF0D0FAD0
:103AD00041EC190B9FEDCA0B53EC102B0AF0BAF90D
:103AE0001CD29FEDC90B53EC102B51EC180B0AF0B4
:103AF000BFFA41EC1A0BC14890ED000B53EC102BB0
:103B000051EC1A0B09F094FD41EC190B9FEDC00B21
:103B100053EC102B09F048FE41EC180BB74890ED20
:103B2000000B53EC102B51EC180B0AF0A1FA41ECEE
:103B3000190B9FEDB90B53EC102B0AF051F81CD266
:103B40009FEDB10B53EC102B51EC180B09F070FDED
:103B500041EC1A0BA94890ED000B53EC102B51ECE3
:103B60001A0B09F065FD41EC190B9FEDA90B53EC05
:103B7000102B09F019FE41EC180B9FEDA10B53EC33
:103B8000102B51EC180B0AF065F90AD29FED9E0B31
:103B900053EC102B51EC180B0AF06AFA41EC180B9D
:103BA00012E09FED9D0B53EC102B51EC180B0AF01B
:103BB00017F809D29FED940B53EC102B51EC180B16
:103BC00009F036FD41EC180B8A4890ED700B8B48DC
:103BD00080ED000B099809F0D8FF41EC1C0B9FED1C
:103BE000900B53EC102B0AF037F841EC1B0B9FEDB8
:103BF0008E0B53EC102B0AF02FF841EC190B0898A0
:103C000009F0C3FF41EC1C0B9FED890B53EC102B0B
:103C10000AF022F841EC1B0B9FED870B53EC102BA5
:103C20000AF01AF841EC1A0B53EC192B0AF020FA9F
:103C3000CDE90401099809F0A8FF41EC190B9FEDAB
:103C40007A0B53EC102B0AF007F8CDE906019FED33
:103C50007C0B53EC102B51EC180B09F0FDFF41ECE1
:103C60001C0BB0EE4C0AF0EE6C0A08F07DFDB0EED5
:103C700040BAF0EE60BA9DED041BB0EE410AF0EEE2
:103C8000610A53EC102B51EC1B0B09F0E5FF41ECE2
:103C9000190B9FED6B0B53EC102B51EC180B09F02B
:103CA000DBFF41EC1C0BB0EE4C0AF0EE6C0A08F0A6
:103CB00083FEB0EE40BAF0EE60BA9DED061BB0EEAA
:103CC000410AF0EE610A53EC102B51EC1B0B09F08A
:103CD000C3FF41EC1A0B53EC192B09F0A9FCCDE9F9
:103CE00000019FED570B53EC102B51EC180B09F012
:103CF000B3FF41EC1C0BB0EE4C0AF0EE6C0A08F07E
:103D00005BFEB0EE40BAF0EE60BA9DED041BB0EE83
:103D1000410AF0EE610A53EC102B51EC1B0B09F039
:103D20009BFF41EC190B9FED460B53EC102B51EC14
:103D3000180B09F091FF41EC1C0BB0EE4C0AF0EEB1
:103D40006C0A08F011FDB0EE40BAF0EE60BA9DEDDD
:103D5000061BB0EE410AF0EE610A53EC102B51EC59
:103D60001B0B09F079FF41EC1A0B53EC192B0AF0ED
:103D70007FF9CDE902019DED002BB0EE420AF0EE95
:103D8000620A1C4890ED722BB0EE421AF0EE621AF5
:103D900053EC102B51EC110B09F04AFC154A02F5BB
:103DA000E47203C29DED022BB0EE420AF0EE620A0D
:103DB000104890ED742BB0EE421AF0EE621A53ECFC
:103DC000102B51EC110B09F033FC0A4A02F5E87292
:103DD00003C29DED001BB0EE410AF0EE610A9FEDBB
:103DE0001A1B53EC112B51EC100B31E000000000BA
:103DF00000000000B82B0020482B0020502B002092
:103E00000000000000806640000000000080764056
:103E1000000000000000004000000000008066C0BC
:103E2000AD2FA5A3DC41793F72E9F4AE1BCAA33FD5
:103E3000B7E263EF1300F03F54B68B9F54C6A33F25
:103E4000E49C52A246DF913F000000000000694060
:103E500009F002FF41EC190B09F0B8FB1149C1F858
:103E6000E0019DED021BB0EE410AF0EE610A1FED8C
:103E70000A1B53EC112B51EC100B09F0EDFE41EC39
:103E8000190B09F0A3FB0749C1F8E4010BB0BDEC25
:103E90000A8B00BD034880ED720B7047014880ED2E
:103EA000740B7047B82B002070B52DED068B0446BF
:103EB0000D4624B1012C20D0022C59D13BE02846DC
:103EC00009F063FE41EC1A0B9FEDFE0B53EC102B37
:103ED00009F06AFC41EC190B9FEDFC0B53EC102B25
:103EE00009F0BAFE41EC180B09F022FE06463146F5
:103EF0004FF0804005F05BFA3AE0284609F045FEB5
:103F000041EC1A0B9FEDEF0B53EC102B09F04CFC1E
:103F100041EC190B9FEDED0B53EC102B09F09CFEBF
:103F200041EC180B09F004FE064631464FF0804084
:103F300005F03FFA1CE0284609F027FE41EC1A0B79
:103F40009FEDE00B53EC102B09F02EFC41EC190B0C
:103F50009FEDDE0B53EC102B09F07EFE41EC180BAD
:103F600009F0E6FD06463146DA4805F01EFA00BFC4
:103F700000BFBDEC068B70BD0EB500210091019114
:103F80000291D54901EB8001D1ED000AF4EEC00A9F
:103F9000F1EE10FA0FDDD04901EB8001D1ED000AFE
:103FA00070EEC00A694601EB8001C1ED000A0021F4
:103FB000CA4A11540EE0C84901EB8001D1ED000A54
:103FC00070EE600A694601EB8001C1ED000A012133
:103FD000C24A1154C149095CC14A125C514059BBE3
:103FE000C049095C891CBF4A1154694601EB800134
:103FF000D1ED000A9FEDBC1AF4EEC10AF1EE10FA01
:1040000003DB1146095C091D1154B649095C64299A
:1040100002DB6421B34A1154B249095C00EE901AE4
:10402000F8EE600A9FEDB11A60EE810AB04901EB2B
:104030008001C1ED000A09E0DFEDAC0AAC4901EBFB
:104040008001C1ED000A0021A64A1154A349095C70
:10405000D9B9A74901EB8001D1ED000A9E4901EBD6
:10406000800191ED001A31EE401A60EE810A9FED59
:10407000A11AC0EE811A984901EB8001D1ED000A26
:1040800070EEE10AB0EE600A1AE0994901EB800196
:10409000D1ED000A904901EB800191ED001A30EE5C
:1040A000411A60EE810A9FED931AC0EE811A8A4987
:1040B00001EB8001D1ED000A71EEA00AB0EE600ABA
:1040C000854901EB800181ED000A8449095C844A3D
:1040D00011540EBD30B5054687480068401C86491E
:1040E0000860002412E005EB8400D0ED000AB0EE79
:1040F000600A2046FFF740FFDFED800A80EE201ABD
:104100007F4800EB840080ED001A641C032CEADB7E
:104110007948006865282CD1002024E0784901EB1B
:10412000800191ED000ADFED770A30EE200A744934
:104130000C3101EB800181ED000A71490C3101EB7A
:10414000800191ED000ADFED700AB4EEE00AF1EEB5
:1041500010FA07DD9FED6C0A69490C3101EB800113
:1041600081ED000A401C0328D8DB01206749086064
:1041700030BD0020FCE765480068704701206349B6
:104180000860704730B52DED028B89B00446B0EE63
:10419000408A5F4A07CA06AB07C35D4A0C3207CAAA
:1041A00003AB07C30020009001900290544800EB3D
:1041B000840090ED000A38EE400A564800EB840077
:1041C00080ED000A534800EB840090ED000ADFED1B
:1041D0004B0A20EE200A4A48183000EB840080ED9C
:1041E000000A4D4800EB840090ED000A494800EBBE
:1041F0008400D0ED000A30EE200A474800EB84002E
:1042000080ED000A434800EB840090ED000A43482B
:1042100000EB8400D0ED000A30EE600A404800EB6D
:10422000840080ED000A3B4800EB840090ED000A1A
:104230003A4800EB840080ED000A06A800EB8400F9
:1042400090ED000A334800EB8400D0ED000A20EE28
:10425000200A03A800EB8400D0ED000A2E4800EBF2
:10426000840090ED001A00EE810A684600EB84009D
:10427000D0ED000A2A4800EB840090ED001A00EE11
:10428000810A10EE101A084609F0DCFF254A02EBFD
:10429000C40203C2234800EBC40090ED001BB0EE43
:1042A000410AF0EE610A9FED201B53EC112B51ECFB
:1042B000100B09F0CFFD3ED29FED020B194800EB29
:1042C000C40035E00000000000005940000000007C
:1042D00000408F4000040040349A00207B2B0020D7
:1042E000782B00207E2B00200AD7233CCDCC4C3EDF
:1042F000289A0020000080435C2B00200000C84268
:104300001C2D0020CDCC4C3D3D0AD73E582B002023
:1043100070E50008B0990020BC990020C8990020E1
:10432000D4990020E09900200000000000003440F3
:1043300080ED000B30E0FE4800EBC40090ED001B68
:10434000B0EE410AF0EE610A9FEDFA1B53EC112B1F
:1043500051EC100B09F044FC07D29FEDF60BF4482A
:1043600000EBC40080ED000B16E0F44850F8240088
:10437000012811D103A800EB840090ED000ADFEDC5
:10438000F00A80EE801AEF4800EB840080ED001AFE
:104390000020EA4941F82400EB4800EB840090ED4E
:1043A000000ADFEDEA0AB4EEE00AF1EE10FA06DDEB
:1043B0009FEDE00BDE4800EBC40080ED000BDC4815
:1043C00000EBC40090ED001BB0EE410AF0EE610A74
:1043D00051EC100B09F07CFB054629462046FFF7FF
:1043E00063FD09B0BDEC028B30BD70B52DED028BC5
:1043F00004460D461DB10020D54941F82400D5489A
:1044000050F82400401CD34941F82400084650F8D5
:10441000240040F6B831B0FBF1F201FB1200002895
:104420007ED1CD4850F82400B0F1FF3F02D00128E2
:1044300060D160E0C44800EB840090ED000AC748FA
:1044400000EB8400D0ED000A30EE600ADFEDC40A14
:10445000B4EEE00AF1EE10FA4CDBC24800EB840047
:1044600090ED000ADFEDC00AB4EEE00AF1EE10FABA
:104470000EDDBC4800EB840090ED000ADFEDBA0AC7
:1044800030EE600AB74800EB840080ED000A31E0AE
:10449000B44800EB840090ED000AB5EEC00AF1EEDE
:1044A00010FA07DD9FEDB10AAE4800EB840080ED05
:1044B000000A1FE0AB4800EB840090ED000AB5EE67
:1044C000C00AF1EE10FA15D10120A34941F82400E9
:1044D000A44800EB840090ED000ADFEDA30A30EE63
:1044E000200AA04800EB840080ED000A03209849D0
:1044F00041F8240059E0944800EB840090ED000A54
:10450000964800EB8400D0ED000A30EE600ADFED43
:10451000960AB4EEE00AF1EE10FA46D8914800E0AF
:104520004EE000EB840090ED000ADFED910AB4EE5E
:10453000E00AF1EE10FA30D2834800EB840090EDEF
:10454000000A10EE101A084609F07CFE41EC180B28
:104550009FED880B53EC102B09F07CFC0ED28148A8
:1045600000EB840090ED000ADFED7F0A30EE200AB8
:104570007C4800EB840080ED000A15E0794800EBF0
:10458000840090ED000AF6EE000A30EE200A75482D
:1045900000EB840080ED000A06E01FEDA80A7148D8
:1045A00000EB840080ED000A00BF00BF664800EB0E
:1045B000840090ED000A694800EB840080ED000A59
:1045C000614800EB840090ED000A10EE101A0846D6
:1045D00009F038FE41EC180B9FED680B53EC102BE3
:1045E00009F038FC05D24FF0FF305B4941F8240058
:1045F0001FE0554800EB840090ED000A10EE101A01
:10460000084609F01FFE41EC180B9FED5A0B53ECC6
:10461000102B09F0E5FA0CD24F4850F82400401C4A
:1046200018B903204A4941F8240001204A4941F8B9
:1046300024004C4800EB840090ED000ABDEEC00A57
:1046400010EE101A2046FFF72FFC414850F82400C6
:10465000BDEC028B70BD30B58BB004460D46012118
:10466000084604F0FEF80121022004F0C7F80122F8
:104670000A21444803F0E7FE4FF4806009900220CD
:104680008DF8280003208DF8290000208DF82A00DD
:1046900001208DF82B0009A93A4803F049FEA8B281
:1046A000ADF818000020ADF81A000794ADF820000E
:1046B00006A94FF0804004F088FC6020ADF80400AB
:1046C000322003900120ADF806000020ADF8100064
:1046D00001A94FF0804004F093FD0821C80604F0C2
:1046E000ACFE0121880704F0DBFC0121880704F0FF
:1046F000F5FC00214FF0804004F059FE0BB030BDB6
:1047000030B58BB004460D460121084604F0A9F8E7
:104710000121022004F072F801220B21194803F054
:1047200092FE4FF40060099002208DF828002BE0E3
:10473000E09900200000000000000000602B002035
:10474000B0FF0D41BC9900201C2D00206666E63E9E
:10475000F89900201C9A00206C2B0020109A002051
:10476000CDCCCCBD049A0020CDCCCC3D00000000C7
:10477000CDCCC742666666666666D63FCDCCCCCCED
:10478000CCCCDC3F0004024003208DF8290000203F
:104790008DF82A0001208DF82B0009A94A4803F062
:1047A000C7FDA8B2ADF818000020ADF81A000794B4
:1047B000ADF8200006A94FF0804004F006FC602010
:1047C000ADF80400322003900120ADF8060000206F
:1047D000ADF8100001A94FF0804004F077FD0821EA
:1047E000C80604F033FE0121880704F059FC0121BA
:1047F000880704F073FC00214FF0804004F0D9FDDD
:104800000BB030BD30B58BB004460D4601210220FF
:1048100004F027F80121042003F0F0FF0222072111
:104820002A4803F010FE8020099002208DF828000D
:1048300003208DF8290000208DF82A0001208DF832
:104840002B0009A9214803F073FDA8B2ADF81800A8
:104850000020ADF81A000794ADF8200006A91C4806
:1048600004F0B3FB6020ADF8040032200390012077
:10487000ADF806000020ADF8100001A9144804F0BE
:1048800072FC0821124804F0CBFD0121104804F00D
:1048900007FC01210E4804F021FC00210C4804F023
:1048A00084FD0BB030BD70B504460D462946204648
:1048B000FFF7D1FE29462046FFF722FF2946204672
:1048C000FFF7A0FF70BD0000000402400008024096
:1048D0000004004000B52DED028B8BB00D208DF84B
:1048E0000C000A208DF80D008DF82A000D208DF89F
:1048F0002B00FB4890ED701BB0EE410AF0EE610A10
:1049000051EC100B08F062FE02900298CDF80E00F8
:10491000F34890ED780A8DED020A0298CDF8120066
:10492000EF4890ED790A8DED020A0298CDF8160055
:10493000EB4890ED721BB0EE410AF0EE610A51ECCB
:10494000100B08F043FE02900298CDF81A00E448DC
:1049500090ED741BB0EE410AF0EE610A51EC100BC1
:1049600008F034FE02900298CDF81E00DC48B0F842
:10497000D80100EE100AB8EE400A8DED020A029846
:10498000CDF82200D648B0F8DA0100EE100AB8EEF1
:10499000400A8DED020A0298CDF82600D048B0F802
:1049A000DA010090CE48B0F8D831CEA1D0F8F42189
:1049B000CF4801F096FACA4890ED361BB0EE410A96
:1049C000F0EE610A51EC100B08F000FE08EE100A40
:1049D000B0EE480A01F008FB01F024FB0BB0BDEC7F
:1049E000028B00BD10B52DED068BB0EE409AB0EEF7
:1049F000608AF0EE418AF0EE619AB0EE42AAB0EE23
:104A0000490A01F0F1FAB0EE480A01F0EDFAB0EE11
:104A1000680A01F0E9FA01F005FBBDEC068B10BD58
:104A200010B52DED068B88B0B0EE408AF0EE608AAE
:104A3000B0EE419AF0EE619AB0EE42AAF0EE62AAB0
:104A40000D208DF804000A208DF805008DF81E0059
:104A50000D208DF81F008DED008A0098CDF806001E
:104A6000CDED008A0098CDF80A008DED009A0098EF
:104A7000CDF80E00CDED009A0098CDF812008DED26
:104A800000AA0098CDF81600CDED00AA0098CDF848
:104A90001A00002405E001A8015D954805F051F9D0
:104AA000641C1C2CF7DB08B0BDEC068B10BD00208D
:104AB0009049086000BF03E000218F4A1154401C58
:104AC0001428F9DB704710B58A480068042809D11A
:104AD00004228AA1884805F085FC18B9022089497A
:104AE000086079E1834800680A2809D10A2286A172
:104AF000814805F077FC18B90220824908606BE113
:104B00007C4800680D2809D10D2282A17A4805F061
:104B100069FC18B903207B4908605DE175480068AD
:104B20000E2809D10E227FA1734805F05BFC18B94D
:104B30000420744908604FE16E4800680E2809D1CE
:104B40000E227CA16C4805F04DFC18B905206D497A
:104B5000086041E167480068092809D1092279A164
:104B6000654805F03FFC18B906206649086033E146
:104B7000604800680A2809D10A2275A15E4805F03C
:104B800031FC18B907205F49086025E159480068E1
:104B9000082809D1082271A1574805F023FC18B94B
:104BA00008205849086017E1524800680A2809D1CE
:104BB0000A226DA1504805F015FC18B90920514989
:104BC000086009E14B4800680B2809D10B2269A154
:104BD000494805F007FC18B90A204A490860FBE07B
:104BE000444800680E2809D1062265A1424805F014
:104BF000F9FB18B90B2043490860EDE03D48006817
:104C00000A2809DB092260A13B4805F0EBFB18B933
:104C10000C203C490860DFE0364800680A2809DBC0
:104C200009225CA1344805F0DDFB18B90D20354997
:104C30000860D1E02F4800680A2809D1042258A151
:104C40002D4805F0CFFB18B90E202E490860C3E0AF
:104C500028480068082809D1042251A1264805F0F7
:104C6000C1FB18B90F2027490860B5E0214800684A
:104C70000E2809D104224AA11F4805F0B3FB18B938
:104C8000102020490860A7E01A4800680C2809D1C4
:104C90000C2245A1184805F0A5FB18B911201949A7
:104CA000086099E013480068092809D1092242A147
:104CB000114805F097FB18B91220124908608BE0E3
:104CC0000C4800680B2809D10B223EA10A4805F0C8
:104CD00089FB18B913200B4908607DE078E00000DB
:104CE000B82B00202564092564092564090000000B
:104CF00000100140842B0020409A002041540D0AEE
:104D000000000000882B002041542B626567696E0B
:104D10000D0A000041542B73746F7053656E640D5F
:104D20000A00000041542B626567696E53656E642A
:104D30000D0A000041542B7072696E7444617461F5
:104D40000D0A000041542B73746F700D0A000000AF
:104D500041542B72657365740D0A000041542B7326
:104D600065740D0A0000000041542B7072696E7466
:104D70000D0A000041542B7374617469630D0A00BD
:104D800041542B736574000041542B7365746D6935
:104D90006E00000041542B73657476617200000050
:104DA00041542B470000000041542B646566617537
:104DB0006C740D0A0000000041542B686561740D8D
:104DC0000A00000041542B6E6F686561740D0A0083
:104DD00040F29A20F849086010BD10B540F2255104
:104DE000F64805F070F8012832D140F22551F34819
:104DF00005F0A0F8F14804F0BAFFC4B2F048F14958
:104E000009684454EF480068401CEE4908600846B1
:104E10000068142801D100200860EA4800680128D1
:104E20000FDDE8480068401EE549085C0A2808D103
:104E3000E4480068801E085C0D2802D1FFF743FE9D
:104E40000AE0DF480078412806D0FFF730FE03E093
:104E5000DA4804F08CFFC4B210BD012814D00CDC79
:104E600010F1090F41D010F1050F37D010F1030FE9
:104E70002DD010F1020F3FD122E002280BD00428E0
:104E800010D0082838D114E0CF49097841F0010149
:104E9000CD4A117030E0CC49097841F00201CA4A8C
:104EA000117029E0C849097841F00401C64A11701F
:104EB00022E0C549097841F00801C34A11701BE09E
:104EC000C149097821F00101BF4A117014E0BE49BF
:104ED000097821F00201BC4A11700DE0BA49097845
:104EE00021F00401B84A117006E0B749097821F0B1
:104EF0000801B54A117000BF00BF704770B50024AB
:104F0000002500BF1DE0002518E00120AF49C96859
:104F100004EB44021144485500200CE00121AB4A47
:104F2000126904EB440303EB83031A4405EB850386
:104F30001A441154401C0528F0DB6D1C032DE4DBE2
:104F4000641C032CDFDB002404E000209F49496936
:104F50000855641C032CF8DB002008E09FED9C0A38
:104F60009A49496801EB800181ED000A401C032841
:104F7000F4DB002008E09FED970A9449896801EB73
:104F8000800181ED000A401C0328F4DB00F053FB94
:104F9000064640F2051100F0EAFAFCF7F1F970BD9F
:104FA00010B52DED048B84B09FED8B0AB0EE408AD6
:104FB0008148006815286FD2DFE800F00B0C11194A
:104FC0001E236F7880899098DEFCFBFAF9F8F7F6DB
:104FD000F5006BE281A1794800F083FF66E20220D0
:104FE000FFF73BFF7DA1754800F07BFF5EE27BA1F0
:104FF000724800F076FF59E278A1704800F071FF26
:1050000054E27848D0ED590AB0EE600A00F0ECFFA7
:105010007448D0ED5A0AB0EE600A00F0E5FF71481E
:10502000D0ED590AB0EE600A00F0DEFF6D4890ED59
:105030002C1BB0EE410AF0EE610A51EC100B08F0A7
:10504000C5FA08EE900AB0EE680A00F0CDFF654898
:1050500090ED2E1BB0EE410AF0EE610A51EC100B00
:1050600008F0B4FA08EE900AB0EE680A00F0BCFF4F
:105070005C4890ED301BB0EE410AF0EE610A51EC55
:10508000100B08F0A3FA08EE900AB0EE680A00F0E0
:10509000ABFF00F0C7FF09E203E26FF00200FFF789
:1050A000DCFE4EA1454800F01CFFFFE14BA1434848
:1050B00000F017FF0120FFF7D0FEF7E16FF00100CD
:1050C000FFF7CBFE45A13D4800F00BFFEEE143A109
:1050D0003A4800F006FFFCF753F9E7E13FA13748F3
:1050E00000F0FFFE0420FFF7B8FEDFE13BA13348EC
:1050F00000F0F7FE3248007A8DF804003048407A1C
:105100008DF805002E48807A8DF806002C48C07A6C
:105110008DF807002A488079612824D0782802D0A9
:10512000792827D10FE09DED010A10EE101A0846EC
:1051300009F088F841EC190BB0EE490AF0EE690A63
:10514000FEF7A8FE16E09DED010A10EE101A0846C3
:1051500009F078F841EC190BB0EE490AF0EE690A53
:10516000FEF79CFE06E0DDED010AB0EE600AFDF7F9
:1051700065FB00BF00BF99E111480A3007F0D8FA7B
:10518000B0EE409AF0EE609A51EC190B08F01EFA5E
:1051900008EE100A0A48407A782825D0792828D0C5
:1051A0007A2830D12AE06DE162E158E14FE1F4E084
:1051B000BAE074E03AE00000882B002000100140C3
:1051C000409A0020842B00208C2B0020549A002031
:1051D000CDCCCC3DA69B443B000000004F4B0D0ABC
:1051E00000000000B82B0020B748406880ED008A1E
:1051F00009E0B548406880ED018A04E0B2484068A3
:1052000080ED028A00BF00BFB0A1B34800F069FE84
:1052100000F011FA044640F2051100F0A8F9AFA120
:10522000AD4800F05EFEFCF774F93FE1B04807F0CE
:105230007FFAB0EE409AF0EE609A51EC190B08F04C
:10524000C5F908EE100AAA480A38407A782804D02E
:10525000792807D07A280FD109E09B48806880ED33
:10526000008A09E09848806880ED018A04E0964849
:10527000806880ED028A00BF00BF94A1964800F0CC
:1052800030FE00F0D8F9044640F2051100F06FF945
:1052900092A1914800F025FEFCF721F906E1AFF25A
:1052A000C4018D4800F01DFE91480A38C0793128AC
:1052B0000FD101218448C2688D480A3800793138FD
:1052C00000EB400002448A480A3880793138115492
:1052D00018E087480A38C07930280FD100217A4871
:1052E000C26883480A380079313800EB4000024434
:1052F0007F480A3880793138115403E07DA176481F
:1053000000F0EFFD81A1744800F0EBFD00F093F98F
:10531000044640F2051100F02AF970A16E4800F031
:10532000E0FDFCF7C1F8C1E0AFF250116A4800F0AF
:10533000D8FD6F480A384079312809D101206249E7
:1053400049696B4A0A3A1279114401F8310C12E0AA
:1053500067480A384079302809D100205A494969FC
:10536000634A0A3A1279114401F8310C03E06AA148
:10537000594800F0B6FD55A1574800F0B2FD00F0C5
:105380005AF9044640F2051100F0F1F853A15248D1
:1053900000F0A7FDFCF7D7F888E0AFF2C0114E4847
:1053A00000F09FFD07243EE051480A38005D312897
:1053B00016D10121444802694D480A380079313834
:1053C00000EB400000EB8000024449480A38807935
:1053D000313800EB80001044204400F8071C21E025
:1053E00043480A38005D302816D10021364802694A
:1053F0003F480A380079313800EB400000EB80006C
:1054000002443B480A388079313800EB8000104470
:10541000204400F8071C05E0A4F10A0248A12E4828
:1054200000F05FFD641C0C2CBEDB28A12A4800F0B4
:1054300058FD00F000F9044640F2051100F097F81D
:1054400026A1254800F04DFDFCF78EF82EE0AFF2C6
:105450007421214800F045FDFFF750FD26E0AFF232
:1054600084211D4800F03DFD0820FFF7F6FC1DE0FB
:10547000AFF29821184800F034FD6FF00800FFF7F4
:10548000ECFC13E06FF00800FFF7E7FC314804E0A4
:10549000642102AA42F82010401C2F498842F7DB01
:1054A00004E02EA10C4800F01CFD00BF00BF00204E
:1054B0002C490860FFF7FBFA04B0BDEC048B10BD6B
:1054C0002948007870470000549A00207772697468
:1054D000696E670D0A000000001001407772697460
:1054E000652066696E69736865640D0A00000000D6
:1054F0004A9A00206D6F646520636F6D6D616E6404
:10550000206572726F720D0A000000007772697474
:10551000696E67200D0A000028666C61736844613B
:1055200074612E7363616C654D6F64652920636FD0
:105530006D6D616E64206572726F720D0A000000FD
:1055400073656C656374202564206572726F720DDB
:105550000A00000080380100A08601006572726FA9
:10556000720D0A00882B00208C2B0020704770B52C
:1055700005460E4602F04EFCF32002F064FE0221C6
:10558000302002F093FC02F080FC002405E0295D4D
:105590002A4AA01802F085FD641CB442F7D302F039
:1055A00046FC70BD70B5054602F034FCF32002F0F5
:1055B0004AFE0221302002F079FC02F066FC002451
:1055C00005E01E496018002102F06BFD641CAC422E
:1055D000F7D302F02CFC70BD10B502F01BFCF320D9
:1055E00002F031FE0221302002F060FC02F04DFC9E
:1055F00002F01DFC10BD0246002003E00F4BC35C0F
:105600001354401C8842F9D3704710B540F205117D
:105610000B48FFF7F0FF0A480A490860B4304860B9
:105620000C3088600C30C860093008612D3048614A
:10563000FFF79CFF10BD02487047000000000408FF
:105640006C9A0020549A002000B587B0012108030D
:1056500003F018F90121084603F0D0F8052211469D
:10566000F84802F0F0FE05220621F64802F0EBFEB3
:1056700005220721F34802F0E6FEE0200590022013
:105680008DF8180000208DF81A0001208DF81B00FD
:1056900003208DF8190005A9EA4802F049FEEA48FE
:1056A00003F0EAF90020ADF800004FF48270ADF885
:1056B00002000020ADF80400ADF80600ADF80800C7
:1056C0004FF40070ADF80A002020ADF80C00002067
:1056D000ADF80E000720ADF810006946DA4803F077
:1056E000F1F90121D84803F0D0FA07B000BD00B5A8
:1056F00087B00121880303F0B4F80121022003F0F0
:105700007DF805220D21D14802F09DFE05220E21D3
:10571000CE4802F098FE4FF4C040059002208DF86C
:10572000180000208DF81A0001208DF81B000320BE
:105730008DF8190005A9C54802F0FAFDC44803F028
:105740009BF94FF48060ADF800004FF48270ADF823
:1057500002000020ADF80400ADF806000120ADF80D
:1057600008004002ADF80A002820ADF80C00002027
:10577000ADF80E000720ADF810006946B44803F0FC
:10578000A1F90121B24803F080FA07B000BD10B5BD
:105790000446AD4800884FF6C7710840AA49088002
:1057A00008460088204308800121A74803F06DFACD
:1057B00010BD2DE9F04107460C4615461E46DDF8A2
:1057C00018800121384603F060FA2946204602F08D
:1057D0002DFE00BF0221384603F00FFB0028F9D050
:1057E0003146384603F0D2FA00BF0121384603F0B3
:1057F00004FB0028F9D0384603F0C5FA00BF0221A7
:10580000384603F0FAFA0028F9D04146384603F04A
:10581000BDFA00BF0121384603F0EFFA0028F9D0A5
:10582000384603F0B0FA00BF8021384603F0E5FAAD
:105830000128F9D00021384603F027FA29462046EE
:1058400002F0F2FDBDE8F0812DE9F04180460D4601
:1058500016461C4644F080040121404603F015FA28
:105860003146284602F0E2FD00BF0221404603F027
:10587000C4FA0028F9D02146404603F087FA00BF59
:105880000121404603F0B9FA0028F9D0404603F060
:105890007AFA00BF0221404603F0AFFA0028F9D09F
:1058A0000021404603F072FA00BF0121404603F098
:1058B000A4FA0028F9D0404603F065FAC7B200BF49
:1058C0008021404603F099FA0128F9D00021404692
:1058D00003F0DBF93146284602F0A6FD3846BDE864
:1058E000F0812DE9F04780460E4617461C46DDE95B
:1058F000089A44F080040121404603F0C6F9394675
:10590000304602F093FD00BF0221404603F075FAD5
:105910000028F9D02146404603F038FA00BF0121A3
:10592000404603F06AFA0028F9D0404603F02BFA0B
:10593000002517E000BF0221404603F05EFA002870
:10594000F9D00021404603F021FA00BF0121404672
:1059500003F053FA0028F9D0404603F014FA09F88E
:1059600005006D1C5545E5D300BF8021404603F07E
:1059700044FA0128F9D00021404603F086F939465F
:10598000304602F051FDBDE8F087F8B5044600202E
:10599000009000250026012C04D121032B4802F0A1
:1059A00045FD05E024B94FF40041284802F03EFDD2
:1059B0000121274803F069F900250FE000BF2448C2
:1059C0000830008800F001000028F8D020480C3092
:1059D0000088C0B20DF80500681CC5B2032DEDDBD0
:1059E000012C04D12103194802F01EFD05E024B961
:1059F0004FF40041154802F017FD0021144803F050
:105A000044F99DF8000000049DF8011040EA0120CF
:105A10009DF8021040EA01063046F8BD2DE9F04736
:105A200007463846FFF7B1FF0446C4F30B38C4F30A
:105A30008019C4F3D015002620E00FE056B90120EC
:105A400009E0000000000240003001400004024074
:105A50000038004000200646681E0540002DEDD1AC
:105A60004E4500D10BE03846FFF78FFF0446C4F3E4
:105A70000B38C4F38019C4F3D0150026DDE700BF4E
:105A80001FFA88F0BDE8F0871CB50121084602F036
:105A9000B5FE0121022002F0B1FE0121042002F036
:105AA000ADFE0620009001208DF8040000208DF846
:105AB000060001208DF8070003208DF805006946D7
:105AC000134802F035FC402000906946114802F06E
:105AD0002FFC4FF41040009069460F4802F028FC5C
