:020000040800F2
:1000000068500020810200088D29000801200008A6
:1000100089290008A5180008F9520008000000000E
:10002000000000000000000000000000473B000846
:10003000C11900080000000097020008990200089A
:100040009B0200089B0200089B0200089B0200081C
:100050009B0200089B0200089B0200089B0200080C
:100060009B0200089B0200089B0200089B020008FC
:100070009B0200089B0200089B0200089B020008EC
:100080009B0200089B0200089B0200089B020008DC
:100090009B0200089B0200089B0200089B020008CC
:1000A0009B020008913D00089B0200089B0200088B
:1000B000AD3D0008C93F0008E53F00089B0200086D
:1000C0009B0200089B0200089B0200089B0200089C
:1000D0009B020008754800089B020008C9490008F7
:1000E0009B0200089B0200089B0200089B0200087C
:1000F0001D4000089B0200089B0200089B020008AC
:100100009B0200089B020008014000089B020008B7
:100110009B020008554800089B0200089B0200084B
:100120009B0200089B0200089B0200089B0200083B
:100130009B0200089B0200089B0200089B0200082B
:100140009B0200089B0200089B0200089B0200081B
:100150009B0200089B0200089B0200089B0200080B
:100160009B0200089B0200089B0200089B020008FB
:100170009B0200089B0200089B0200089B020008EB
:100180009B0200089B02000800F002F800F069F8EA
:100190000AA090E8000C82448344AAF10107DA45E2
:1001A00001D100F05EF8AFF2090EBAE80F0013F0CB
:1001B000010F18BFFB1A43F00103184730910000EC
:1001C000509100000A444FF0000C10F8013B13F06E
:1001D000070408BF10F8014B1D1108BF10F8015BA0
:1001E000641E05D010F8016B641E01F8016BF9D193
:1001F00013F0080F1EBF10F8014BAD1C0C1B09D1EA
:100200006D1E58BF01F801CBFAD505E014F8016B5B
:1002100001F8016B6D1EF9D59142D6D370470000ED
:100220000023002400250026103A28BF78C1FBD8FF
:10023000520728BF30C148BF0B607047662908F0DD
:10024000E282002070471FB508F0D3FA00F036FCB8
:1002500004000020002107F033FCE0601FBD10B552
:1002600010BD00F02BFD1146FFF7EDFF07F080F900
:1002700000F049FD03B4FFF7F2FF03BC00F08AFD74
:100280000948804709480047FEE7FEE7FEE7FEE72A
:10029000FEE7FEE7FEE7FEE7FEE7FEE70448054966
:1002A000054A064B70470000293D000889010008F7
:1002B000680A002068500020684C0020684C00202C
:1002C000DFED300AB5EEC00A60EE200ABDEEE01A9E
:1002D00011EE100AF1EE10FA38BF401E00EE100ABF
:1002E0009FED291AB8EEC00A70EEC00A20EE810A0E
:1002F000BCEEC00A10EE100A00EE100A0028B8EE9C
:10030000C00A10EE810AB8BF002004DBB0F5807F80
:10031000C8BF4FF480701D4960EE000AB6EE001AA7
:10032000DFED1C2A9FED1A2A60EE011A60EE225AB8
:1003300020EE813A20EE022A21EEA01A01EB800085
:1003400073EE655A62EE202AB7EE006A33EE003A89
:10035000D0EC043A76EE611A71EE600A35EEE20AEC
:1003600033EE413A32EEC21A70EEA10A20EE230AB1
:1003700064EE831A04EE200A45EE011A31EE800A7B
:100380007047000083F9223E00008043288800085F
:10039000ABAA2A3EABAAAA3EDFED300AB5EEC00AF0
:1003A00060EE200ABDEEE01A11EE100AF1EE10FA2E
:1003B00038BF401E00EE100A9FED291AB8EEC00AA1
:1003C00070EEC00A20EE810ABCEEC00A10EE100AE0
:1003D00000EE100A0028B8EEC00A10EE810AB8BF7D
:1003E000002004DBB0F5807FC8BF4FF480701D494A
:1003F00060EE000AB6EE001ADFED1C2A9FED1A2A05
:1004000060EE011A60EE225A20EE813A20EE022AB6
:1004100021EEA01A01EB800073EE655A62EE202AED
:10042000B7EE006A33EE003AD0EC043A76EE611A89
:1004300071EE600A35EEE20A33EE413A32EEC21A4C
:1004400070EEA10A20EE230A64EE831A04EE200A5D
:1004500045EE011A31EE800A7047000083F9223E12
:1004600000008043388C0008ABAA2A3EABAAAA3E03
:100470000FB41CB5074B06AA7B446946009005984B
:1004800000F003FB0020694600F012FB1CBC5DF885
:1004900014FB0000350600002DE9F0410E4604462D
:1004A000002020622046E168884730B3252805D027
:1004B000D4E901219047206A401CF2E7E168204618
:1004C00000278847050018D0A5F14100192802D857
:1004D00020354FF400673246294620462760FFF753
:1004E000ADFE40B1012804D0F61D26F007060836FF
:1004F000D8E7361DD6E72846DAE7206ABDE8F0815E
:1005000040EA010370B59B072ED14FF00136042A53
:100510002AD308C810C99D1B9D43121F15EAC61592
:1005200017D0D8B2E1B2401A50EA056110D198B2A2
:10053000A1B2401A50EA05410AD123F07F4024F0CD
:100540007F41401A50EA052102D1180EA0EB146039
:1005500070BDA342DBD018BA21BA884201D901206C
:1005600070BD4FF0FF3070BD0AB9002070BD10F8AB
:10057000013B11F8014B63B1A3420AD1521E08D0CE
:1005800010F8013B11F8014B1BB1A34201D1521EDF
:10059000EDD1181B70BD10B5203AC0F00B80B1E84A
:1005A0001850203AA0E81850B1E81850A0E81850A8
:1005B000BFF4F5AF5FEA027C24BFB1E81850A0E8B1
:1005C000185044BF18C918C0BDE810405FEA827CCB
:1005D00024BF51F8043B40F8043B08BF7047D207E2
:1005E00028BF31F8023B48BF11F8012B28BF20F883
:1005F000023B48BF00F8012B70474FF0000200B5E6
:10060000134694469646203922BFA0E80C50A0E835
:100610000C50B1F12001BFF4F7AF090728BFA0E8E3
:100620000C5048BF0CC05DF804EB890028BF40F8AF
:10063000042B08BF704748BF20F8022B11F0804FF1
:1006400018BF00F8012B704770477047704710B50E
:1006500000F038FA006810BD10B5044600F032FA18
:10066000046010BD70472DE9FF4F0C461E464FF049
:10067000FF378BB0D2E90001DDF860800A908A462E
:10068000C1F30A5505B93D46002108464FF0000068
:10069000BAF1000F00F4400005DA00EB80004FF4DF
:1006A000400101EA50004FEA9059B9F1010F00DD15
:1006B000B9460A9850EA4A000ED044F61050A5F206
:1006C000FF3545432F14B8F1000F1ED07542291E87
:1006D0001EDDC9F100021CE0B8F1010F4FF000006F
:1006E00001D0302103E0F24305E02154401CB04228
:1006F000FBDB30460022002121540B99C1F8088011
:10070000C1E900200FB0BDE8F08FBD1B6D1CDEE716
:100710004A4600DA694206A800F05EFA06AB93E8A2
:10072000070003AB83E8070050460A9900F039FB45
:100730008DE80700A0F500501F3800900398002DA9
:1007400009DD42F21F014A46084403A903906846A6
:1007500000F098FD08E0A0F500504A461F3803A9B4
:100760000390684600F0A2FD8DE807000004000C2D
:1007700003D04FF0FF30410800E01046B8F1000F01
:1007800003D00022009215461EE0751E05D400F02D
:100790009DF9303262556D1EF9D5B34601220843EA
:1007A00002D000227F1C04E02078302801D10022F2
:1007B0007F1E002A099786D01DE0112D07DA00F070
:1007C00085F9303262556D1C50EA0102F5D10843BB
:1007D00002D00098C8B10EE00021681E05E0235C3D
:1007E000625C63542254401E491C8142F7DBAB46D5
:1007F000A81B401E0990002004F80B000B98099AD2
:10080000C0F80880C0E9002B7CE711264FF00008F3
:1008100059E72DE9F04F88460446D21D22F0070122
:1008200091B0D1E90001CDE90A0104F067FD02466B
:100830000B98C00F01D02D2007E02068810701D55B
:100840002B2002E0202101EAC000032A099001D0F8
:10085000072A05DB03464146204600F07DF90BE1FF
:100860002078800601D5E06900E00620B8F1650F28
:10087000814606D0B8F1660F18D0B8F1670F70D175
:1008800031E00020B9F1110F009001DB112301E0EC
:1008900009F101030AAA01A90CA8FFF7E4FEDDE9AA
:1008A0000C70002609F10105834647E001204B4604
:1008B00000904FF000470AAA01A90CA8FFF7D3FE49
:1008C000DDE90DB00C995D46002610B909F1010073
:1008D0000D18B9EB050003D4C0F1FF3609F101058D
:1008E000A5EB09002BE0B9F1010F01DA4FF0010986
:1008F0000020B9F1110F0090484601DD112300E0FE
:1009000003460AAA01A90CA8FFF7ADFEDDE90C70A9
:100910004D4600268346207800070AD4AB4500DA0E
:100920005D4601A8012D04DD411911F8011C302993
:1009300007D04F4502DA17F1040F04DA012082468E
:100940000FE06D1EEEE7002F02DCED1B3E4403E0DE
:10095000781CA84200DD7D1CB81B00F1010A4FF095
:1009600000472078000703D4AA4501DB4FF0FF3A87
:100970000021B7F1004F0DF143088DF8431024D04A
:1009800002202B23002F01DA7F422D230A21021E91
:10099000A0F1010000DC5FB197FBF1FC97FBF1F2E5
:1009A00001FB1C7C17460CF1300C08F801CDEEE77A
:1009B000A8F1010003702188090501D5452100E057
:1009C0006521A0F1010800F8011C09980FA9A1EB0D
:1009D0000807FF1D00B10120411901EBEA70A16970
:1009E0003844081A401EA0612078C00602D4204670
:1009F000AFF30080099828B1D4E901219047206A1B
:100A0000401C20622078C00622D52046AFF300802B
:100A10001EE0002E04DBB34502DD01A8805D00E08E
:100A20003020D4E901219047206A401C2062761CC6
:100A3000AAF101005FEA000A0AD100F03FF8C0689D
:100A40000168405CD4E901219047206A401C206283
:100A5000281EA5F10105DCDC07E0D4E9012118F826
:100A6000010B9047206A401C2062381EA7F1010745
:100A7000F3DC2046AFF30080032011B043E6000012
:100A800001694A1C02610878704700B58FB0CDE952
:100A900001310021059105497944CDE90310114642
:100AA0006846FFF7F9FC0FB000BD0000E5FFFFFF4F
:100AB0000A6802F8010B0A6070470000004870479E
:100AC000240A002000487047040A002030B5B0F125
:100AD0000A024FEA900E71F100034EEA817EB0EBFC
:100AE0000E0061EB91014FEA101E4EEA017E10EB01
:100AF0000E0041EB11114FEA102E4EEA016E10EB81
:100B00000E0041EB11214FEA104E4EEA014E10EB60
:100B10000E0041EB1141401841F100014FEAD000B5
:100B200040EA41704FEAD10110EB80054FEA8104A1
:100B300044EA907444EB01046D1944EB0404521B25
:100B4000A3414FF0000348BF0A3200D530BD401C1E
:100B500041F1000130BD00002DE9F0411F4604467F
:100B600003260168072A01F4006004DB08B116A51A
:100B700005E016A503E008B115A500E015A521F0D4
:100B800010002060A069C01EA0610FB1401EA061CE
:100B90002046AFF300804FB1D4E901213846904799
:100BA000206A401C2062C01C206206E0206AFAE72E
:100BB000D4E9012115F8010B9047761EF8D22046A2
:100BC000AFF30080BDE8F0814E414E006E616E00D3
:100BD000494E4600696E66002DE9F047814616468B
:100BE0008AB0334878440DC88DE80D003048784409
:100BF000801C03AC0DC884E80D0041F69B3008440E
:100C0000372190FBF1F290FBF1F5A5F1800501FB96
:100C100012041B3C02D56442012000E00020DFF8F2
:100C200090A080460027FA44AAF1BE0A0DE0E00732
:100C300009D03246684607EB47010AEB810100F014
:100C400035FB8DE8070064107F1C002CEFD1184F96
:100C50007F44AC3F18E0E80714D007EB04100DF117
:100C6000180A90E80E008AE80E00C068F04201D130
:100C700098190890324606A903A800F017FB03ABA9
:100C800083E807006D10641C002DE4D132466946EC
:100C9000B8F1000F03A802D000F0F4FA01E000F070
:100CA00005FBC9E90001C9F808200AB0BDE8F087D2
:100CB000EC86000000487047040A00207546FFF7E4
:100CC000F9FFAE4605006946534620F00700854609
:100CD00018B020B5FFF7E2FABDE820404FF000065B
:100CE0004FF000074FF000084FF0000B21F0070114
:100CF000AC46ACE8C009ACE8C009ACE8C009ACE857
:100D0000C0098D4670470446AFF300802046FFF7C8
:100D1000B1FA00004FF0013C50F8042B51F8043BAD
:100D20009A4221D1A2EB0C03934313EACC1317D1BF
:100D300050F8042B51F8043B9A4215D1A2EB0C0356
:100D4000934313EACC130BD150F8042B51F8043B16
:100D50009A4209D1A2EB0C03934313EACC13DBD0E4
:100D60004FF00000704700BFD01A01BAB1FA81F10C
:100D700001F0180122FA01F0CB40C1F12001DBB2F1
:100D8000C0B2C01A2CFA01F3D11A914311EAC3116F
:100D9000E6D1704701491820ABBEFEE726000200ED
:100DA00070475FEA400C08BF91F0000F4FEA8C23B8
:100DB0004FEAC12243EA51514FEA1C5018BF00F5D7
:100DC000F0404FEA300018BF41F000415FEA6C5C30
:100DD00000F02980BCF1FF3F08BF40F08040704721
:100DE000130C06BF12044FF0100C4FF0000C130E42
:100DF00004BF12020CF1080C130F04BF12010CF116
:100E0000040C930F04BF92000CF1020CD30F04BF2B
:100E100052000CF1010C11464FF00002A0F11F002E
:100E2000A0EB0C00704711F0004F08BF704731F085
:100E300000413FF4D5AF0B0C06BF09044FF0100C76
:100E40004FF0000C0B0E04BF09020CF1080C0B0F45
:100E500004BF09010CF1040C8B0F04BF89000CF1D5
:100E6000020CCB0F04BF49000CF1010CCCF12003A4
:100E7000A0EB0C0022FA03F302FA0CF241EA0301A0
:100E800000F10100704720F07F4C80EA030023F05E
:100E90007F47ACEB070303F57C5300F0004003F100
:100EA000FF032DE980494FEA154B09B44FEA14437B
:100EB00025EA0B4E24EA03480FF2042606EB13271B
:100EC00049083E785FEA320203FB0667C7F5000770
:100ED00007FB06F64FEA54374FEAD64606F10206FC
:100EE00007FB066CCCF1005C4FEA1C472CEA074C70
:100EF00007FB06F40CFB06F504EB15464FEA9616C5
:100F000034BF00204FF000404FEAD13706FB07FC0A
:100F10004FEA1C4C0CFB0BF7D21B03FB0CF761EBED
:100F200007010CFB0EF7B0EB074072EB17420CFB0E
:100F300008F734BFA2EB0742B2EB074261EB17415F
:100F40004FEA0C444FEA910706FB07FC4FEA1C4CA2
:100F50000CFB0BF7B0EBC74072EB573203FB0CF7FF
:100F600034BFA2EBC742B2EBC74261EB57310CFB77
:100F70000EF7B0EBC70072EB57720CFB08F734BFEB
:100F8000A2EBC702B2EBC70261EB5771039F4FEAB6
:100F9000816141EA921104EBCC044FEAD1374FEA68
:100FA000826206FB07FC42EA90124FEA80604FEA39
:100FB0001C4C0CFB0BF7D21B03FB0CF761EB07017E
:100FC0000CFB0EF7B0EB074072EB17420CFB08F777
:100FD00034BFA2EB0742B2EB074261EB17414FEA85
:100FE0008C554FEA910704EB9C2406FB07FC4FEA63
:100FF0001C4C0CFB0BF7B0EBC74072EB573203FBFA
:101000000CF734BFA2EBC742B2EBC74261EB5731DA
:101010000CFB0EF7B0EBC70072EB57720CFB08F736
:1010200034BFA2EBC702B2EBC70261EB577115EBFD
:101030004C254FEA816141EA92114FEA82624FEA00
:10104000D13742EA901206FB07FC44F100044FEA54
:1010500080604FEA1C4C0CFB0BF7D21B03FB0CF718
:1010600061EB07010CFB0EF7B0EB074072EB174288
:101070000CFB08F734BFA2EB0742B2EB074261EB6F
:10108000174115EB1C154FEA813141EA92414FEAB5
:10109000823242EA90424FEA80304FEA0C7644F1C5
:1010A000000448EA03434EEA0B484FF0000EB2EB4F
:1010B000080C71EB030724BF624639464EEB0E0E57
:1010C0004FF0000B0018524149414BEB0B0BB2EBB8
:1010D000080C71EB03077BF1000B24BF6246394615
:1010E0004EEB0E0E4FF0000B0018524149414BEBF6
:1010F0000B0BB2EB080C71EB03077BF1000B24BF69
:10110000624639464EEB0E0E51EA020718BF46F012
:10111000010616EB0E7655F1000254F1000103D5DD
:10112000BDE88901BDE80088BDE88901BDE8004847
:10113000B619524141EB0101A3F1010370478080D0
:101140007F7E7D7C7B7A7978777676757473727121
:1011500071706F6E6E6D6C6C6B6A6A6968686766D9
:1011600066656464636362616160605F5F5E5E5D6B
:101170005D5C5C5B5B5A5A595958585757565655DF
:1011800055555454535352525251515050504F4F41
:101190004F4E4E4D4D4D4C4C4C4B4B4B4A4A4A4991
:1011A00049494848484747474746464645454544D4
:1011B0004444444343434342424242414141002B61
:1011C00026D4770021D01CB54FEA370703B44FF07F
:1011D00010004FF010014FF000000FBCBDE81040B0
:1011E0000BF1010BBBF1010F08BF5FEA170722BF2C
:1011F00012F1010211F101014FF0004143F100032E
:1012000000F0004043EA00007047F9D35708DAE7DE
:1012100046EA064613F1400F4FEA16461FDD13F16A
:10122000200FDFBF16430A46002120335B42C8D09F
:10123000C3F1200746EA064602FA07F74FEA1646C8
:1012400046EA0706C3F1200722FA03F201FA07F77C
:1012500021FA03F14FF0000342EA0702B1E746EA40
:10126000020646EA06464FEA164646EA0106BCBFB3
:1012700046EA0646360C4FF000034FF000024FF0EE
:1012800000019EE72DE9C048934630B491E838004C
:1012900007C831EA400C48BF34EA430C03D5FFF7D6
:1012A000F2FDFFF78CFFF0BCBDE800882DE9C048D7
:1012B000934630B491E8380007C810F0804F08BF5B
:1012C00013F0804F03D100F005F8FFF778FFF0BC72
:1012D000BDE8008820F07F4780EA030023F07F4CC0
:1012E00007EB0C03A3F57C5300F00040A3F1FE03D1
:1012F00092F0000F00F0B38095F0000F00F07780BF
:101300002DE901494FEA11404FEA144621EA00480D
:1013100000FB06FC24EA064708FB06F607FB08F874
:1013200000FB07F718EB06484CEB164C4FEA124B44
:1013300018EB07484FEA15464CEB174022EA0B4ED4
:101340000BFB06FC25EA06470EFB06F607FB0EFE26
:101350000BFB07F71EEB064E4CEB164C4FF000064E
:101360001EEB074E4CEB174B18EB0B0840F100003F
:1013700018EB0E0B58EB000840F100008F1A4FF0ED
:1013800000013CBFC943661B14BFB5EB040C002130
:101390003CBFC943F61B4FEA17444EEA8E0E27EABC
:1013A00004454FEA1C4704FB07622CEA074C05FB87
:1013B00007F70CFB05F604FB0CFC16EB074642EBAB
:1013C000174216EB0C4642EB1C421BEB060658EB91
:1013D0000202414146EA9E0601D5BDE80189B619DF
:1013E000524141EB0101A3F10103BDE801894FEA3C
:1013F00014454FEA114724EA054621EA074C05FB4C
:1014000007F406FB07F70CFB06F105FB0CFC11EBE0
:10141000074144EB17444FEA124711EB0C4144EBF0
:101420001C4422EA074C05FB07F206FB07F70CFBFE
:1014300006F605FB0CFC16EB074642EB174216EBD3
:101440000C4642EB1C456A1854F1000148BF704736
:10145000B619524141EB0101A3F10103704795F028
:10146000000F37D04FEA11424FEA144721EA0246F3
:1014700024EA074C02FB07F106FB07F70CFB06F416
:1014800002FB0CFC14EB074441EB17414FEA1547F4
:1014900014EB0C4441EB1C4125EA074C02FB07F519
:1014A00006FB07F70CFB06F602FB0CFC16EB0746E7
:1014B00045EB174516EB0C4645EB1C42121951F152
:1014C000000148BF7047B619524141EB0101A3F139
:1014D000010370474FEA14454FEA114724EA0546D5
:1014E00021EA074C05FB07F106FB07F70CFB06F2A8
:1014F0004FF0000605FB0CFC12EB074241EB1741D5
:1015000012EB0C4251EB1C4148BF7047921841EB63
:101510000101A3F10103704738B5AB480068042806
:101520000AD10422A9A1AB48FEF7EAFF20B9AAA17B
:10153000AB4803F04DFB44E1A34800680A280DD1F5
:101540000A22A8A1A348FEF7DBFF38B9022002F067
:1015500031FBA1A1A24803F03BFB32E19A480068AD
:1015600009280ED10922A2A19A48FEF7C9FF40B965
:101570006FF0020002F01EFB97A1994803F028FBD0
:101580001FE1914800680A280DD10A229BA19148C9
:10159000FEF7B6FF38B9012002F00CFB8EA190488F
:1015A00003F016FB0DE18848006808280ED10822D8
:1015B00095A18848FEF7A4FF40B96FF0010002F042
:1015C000F9FA85A1864803F003FBFAE07E4800683B
:1015D0000A280CD10A228FA17E48FEF791FF30B96C
:1015E0007DA17F4803F0F4FA02F0DCFEE9E07648E2
:1015F00000680B280DD10B2289A17648FEF780FFE9
:1016000038B975A1764803F0E3FA042002F0D2FA63
:10161000D7E06D4800680E2820D1082283A16D48CC
:10162000FEF76EFFD0B96CA16D4803F0D1FA69489E
:10163000007A8DF800006748407A8DF8010065480F
:10164000807A8DF802006348C07A8DF80300DDEDE2
:10165000000AB0EE600A02F0E5FAB2E05A4800680B
:101660000E2820D1082274A15A48FEF749FFD0B9AC
:1016700059A15B4803F0ACFA5648007A8DF8000097
:101680005448407A8DF801005248807A8DF8020063
:101690005048C07A8DF80300DDED000AB0EE600A14
:1016A00002F0C6FA8DE0484800680E2820D10822D2
:1016B00064A14848FEF724FFD0B947A1484803F089
:1016C00087FA4448007A8DF800004248407A8DF845
:1016D00001004048807A8DF802003E48C07A8DF8BB
:1016E0000300DDED000AB0EE600A02F02DFA68E0BA
:1016F000354800680B2828D1082255A13548FEF747
:10170000FFFE10BB34A1364803F062FA3148007A7C
:10171000312804D101205149096808700CE02D4896
:10172000007A302804D100204C490968087003E091
:101730004BA12B4803F04CFA00F05EFC04467E21DE
:1017400000F0C6FB02F02EFE3BE01F4800681128A7
:1017500033D10A2248A11F48FEF7D2FE68BB1EA162
:101760001F4803F035FA0A241CE01A48005D3128AE
:1017700006D10121A4F10A00424A1268115410E076
:101780001448005D302806D10021A4F10A003D4A2A
:101790001268115405E0A4F10A023BA1104803F0BD
:1017A00017FA641C0F2CE0DB00F026FC04467E21B7
:1017B00000F08EFB02F0F6FD03E038A1084803F0CC
:1017C00007FA04F011FF38BDA401002041540D0AAE
:1017D00000000000280900204F4B0D0A0000000007
:1017E0000010014041542B626567696E0D0A0000CC
:1017F00041542B73746F700D0A00000041542B721A
:10180000657365740D0A000041542B7365740D0AED
:101810000000000041542B7072696E740D0A0000C4
:1018200041542B7374617469630D0A0041542B7326
:101830006574783D0D0A000041542B736574793D41
:101840000D0A000041542B736574613D0D0A0000C0
:1018500041542B6D6F64653D00000000BC01002009
:101860006D6F646520636F6D6D616E64206572726B
:101870006F720D0A0000000041542B73656C6563A4
:10188000743D0000C001002073656C656374202501
:1018900064206572726F720D0A0000006572726FCB
:1018A000720D0A0000BFFEE71CB50121084601F0D9
:1018B00001FD0121022001F0FDFC18200090012013
:1018C0008DF8040000208DF8060001208DF8070037
:1018D00003208DF805006946104800F017FB4FF40F
:1018E0001440009069460E4800F010FB10210B4890
:1018F00000F079FB0821094800F075FB4FF4805196
:10190000074800F070FB4FF40041054800F06BFB06
:101910004FF48061024800F066FB1CBD00000240ED
:101920000004024010B58CB005F026FA8DED020AD5
:10193000CDED030A8DED041A0D208DF814000A2058
:101940008DF815008DF82E000D208DF82F009DEDDF
:10195000040A8DED010A0198CDF816009DED020AEA
:101960008DED010A0198CDF81A009DED030A8DED69
:10197000010A0198CDF81E0005F05AFB8DED010A11
:101980000198CDF8220005F059FB8DED010A019870
:10199000CDF8260005F0DEF98DED010A0198CDF8AD
:1019A0002A00002405E005A8015D044803F0BBF906
:1019B000641C1C2CF7DB0CB010BD000000100140B3
:1019C000704700B5034604E04FF47A7000F004F865
:1019D0005B1E002BF8D100BDA82141434FF0E0224F
:1019E00051610521116100BF4FF0E021096901F447
:1019F00080310029F8D004214FF0E02211617047B6
:101A000010B52DED040B2DED048B88B0DDED0D0A26
:101A1000B0EE600AFEF754FCF0EE408ADDED0E0AEF
:101A2000B0EE600AFEF74CFCB7EE008A08EE808A42
:101A3000DDED0C0AB0EE600AFEF742FCF0EE408AE3
:101A4000DDED0E0AB0EE600AFEF73AFC08EE808A81
:101A5000DDED0C0AB0EE600AFEF732FCF0EE408AD3
:101A6000DDED0D0AB0EE600AFEF72AFC08EE808A72
:101A7000DDED0C0AB0EE600AFEF78EFCF0EE408A57
:101A8000DDED0D0AB0EE600AFEF786FC68EE808A96
:101A9000DDED0E0AB0EE600AFEF77EFC08EE808AED
:101AA000B1EEC80AF6EE000A20EE200A10EE104A47
:101AB000204606F02DFECDE900019DED001BB0EEA5
:101AC000410AF0EE610A9FED851B53EC112B51EC9E
:101AD000100B06F055FA10D19FED820B8DED000B27
:101AE0009FED7E0B8DED020B9FED7C0B8DED040BBE
:101AF0009FED7A0B8DED060BE4E0DDED0C0AB0EE08
:101B0000600AFEF749FCB0EE409ADDED0D0AB0EE3A
:101B1000600AFEF741FCF0EE409ADDED0E0AB0EEF1
:101B2000600AFEF739FC09EE809ADDED0C0AB0EE92
:101B3000600AFEF731FCF0EE409ADDED0D0AB0EEE2
:101B4000600AFEF7BDFB69EE809ADDED0E0AB0EE8D
:101B5000600AFEF7B5FB09EE809AB1EE000AC9EE05
:101B6000000A10EE904A204606F0D2FD41EC180B18
:101B70009DED001BB0EE410AF0EE610A53EC102B14
:101B800006F0A6F8CDE90201DDED0D0AB0EE600A1F
:101B9000FEF702FCB0EE409ADDED0E0AB0EE600AF0
:101BA000FEF78EFB29EE009ADDED0D0AB0EE600A1D
:101BB000FEF786FBF0EE409ADDED0E0AB0EE600A0D
:101BC000FEF7EAFB69EE809ADDED0C0AB0EE600AE2
:101BD000FEF7E2FB09EEC09ADDED0D0AB0EE600AF9
:101BE000FEF7DAFBF0EE409ADDED0C0AB0EE600A8B
:101BF000FEF766FB09EE809AB1EE000AC9EE000A14
:101C000010EE904A204606F083FD41EC180B9DED46
:101C1000001BB0EE410AF0EE610A53EC102B06F007
:101C200057F8CDE90401DDED0D0AB0EE600AFEF7CC
:101C300047FBB1EE409ADDED0E0AB0EE600AFEF70A
:101C4000ABFB29EE009ADDED0D0AB0EE600AFEF75F
:101C5000A3FBF0EE409ADDED0E0AB0EE600AFEF74F
:101C60002FFB69EE809ADDED0C0AB0EE600AFEF7FC
:101C700093FB09EE809ADDED0E0AB0EE600AFEF7E6
:101C80008BFBF0EE409ADDED0C0AB0EE600AFEF739
:101C900017FB09EEC09AB1EE000AC9EE000A10EE79
:101CA000904A204606F034FD41EC180B9DED001BD8
:101CB000B0EE410AF0EE610A53EC102B06F008F882
:101CC000CDE906019DED000B9DED021B9DED042B62
:101CD0009DED063B08B0BDEC048B1FBD000000006D
:101CE00000000000000000000000F03F0149086013
:101CF000704700000C3C024070B504460A460026BE
:101D0000082502B909E0012A01D1160205E0022ADC
:101D100001D1160201E04FF4407600F097F8054635
:101D2000082D28D11548006820F440701349086038
:101D300008460068304308600846006820F0F80054
:101D400008600846006844F0020108430B49086037
:101D50000846006840F48030086000F077F80546D7
:101D60000648006820F00200044908600846006840
:101D700020F0F8000860284670BD0000103C0240CA
:101D800008201049096801F48031B1F5803F01D184
:101D9000012015E00B49096801F0100109B1052087
:101DA0000EE00849096801F0EF0109B1062007E0DB
:101DB0000449096801F0020109B1072000E0082088
:101DC000704700000C3C02400348006840F00040AF
:101DD0000149086070470000103C024030B50246DF
:101DE0000C46082500F032F80546082D17D10D489D
:101DF000006820F440700B490860084600680860DD
:101E00000846006840F001000860147000F01EF8F9
:101E100005460448006820F0010002490860284691
:101E200030BD0000103C02400548006800F0004052
:101E300028B1044802490C3908600348086070471B
:101E4000103C024023016745AB89EFCD08B508205F
:101E50000090FFF795FF009002E0FFF791FF0090E0
:101E60009DF800000128F8D09DF8000008BD7047DB
:101E700010B57E210A4800F01FF80948094908609A
:101E80002830094908602830084908602830084986
:101E90000860401C07490860FFF7E9FF10BD00001B
:101EA00084090020B0010020B4010020B801002006
:101EB000BC010020C00100200246002003E0034BCB
:101EC000C35C1354401C8842F9D3704700000408D7
:101ED00070B505460E46FFF7A7FFF320FFF706FF94
:101EE00002213020FFF708FFFFF7B0FF002405E0D4
:101EF000295D054AA018FFF771FF641CB442F7D3AF
:101F0000FFF762FF70BD000000000408F0B50A464C
:101F100000210023002400BF3DE0012505FA01F364
:101F2000156805EA03049C4234D105684F00032676
:101F3000BE40B543056015794E00B540066835438F
:101F400005601579012D02D01579022D16D185680D
:101F50004F000326BE40B543856055794E00B5401D
:101F6000866835438560456801268E40B5434560E7
:101F7000456896798E40B6B235434560C5684F00D6
:101F80000326BE40B543C560D5794E00B540C6684E
:101F90003543C560491C1029BFD3F0BDF0B50023FF
:101FA00000244D07ED0E02FA05F3CE1000F12005D6
:101FB00055F826504E07F70E0F26BE40B543CF10FA
:101FC00000F1200646F82750CE1000F1200555F804
:101FD000265045EA0304CE1000F1200545F82640BE
:101FE000F0BD4183704701837047000001480078CD
:101FF00070470000A80100200048704784090020B5
:1020000000BFFEE730B58BB00024202225A103A835
:10201000FEF7C1FA6420FFF7D4FC80206B23102266
:1020200028490090284801F043FD0120FFF7C9FC32
:102030000520FFF7C6FC00BF2FE0002523A00068A5
:10204000029000BF681CC5B2012000EB440003A948
:10205000085C009003A810F81430102219491A489F
:1020600001F026FD2846FFF7ACFC052D00DD01251B
:1020700003A810F8143010221249134801F07AFC1A
:102080008DF808009DF80800012101EB440103AA26
:10209000515C8842D6D1601CC4B20F2CCDDB0BB092
:1020A00030BD00006B006C001B081A0019071C00F3
:1020B0001D0668006A101E0023001F00370038004C
:1020C000690000000000024000300140FFFF0000F6
:1020D00000B52DED108B83B0614890ED000A20EE25
:1020E000000AD0ED010A90ED011A00EE810AD0ED50
:1020F000020A90ED021A00EE810A10EE101A08464C
:1021000006F006FB41EC1A0BB0EE4A0AF0EE6A0A42
:1021100003F006FEB0EE409AF0EE609A51EC190B17
:1021200005F0F0FC08EE100AB5EEC08AF1EE10FAE8
:102130000CD04B4890ED000AC0EE088A90ED010AE1
:1021400080EE08FA90ED020AC0EE08FAB1EE6F0ACE
:1021500010EE100A06F0DCFA41EC1A0B18EE900AA9
:1021600006F0D6FA41EC1B0BB0EE4A1AF0EE6A1AF2
:10217000B0EE4B0AF0EE6B0A05F0DEFAB0EE409AD4
:10218000F0EE609A51EC190B05F0BCFC3549486043
:10219000084690ED010A10EE101A084606F0B8FA4B
:1021A00041EC1E0BB0EE4E0AF0EE6E0A03F054FD49
:1021B000B0EE40CAF0EE60CA18EE900A06F0A8FA37
:1021C00041EC1D0B53EC1C2B05F082FD41EC1A0B6E
:1021D0001FEE100A06F09CFA41EC1B0BB0EE4A1AF7
:1021E000F0EE6A1AB0EE4B0AF0EE6B0A05F0A4FAB4
:1021F000B0EE409AF0EE609A51EC190B05F076FCC7
:10220000CDE900019DED000B51EC100B05F07AFCBF
:1022100014490860144890ED000A38EE400A10EEA8
:10222000101A084606F074FA41EC1A0BB0EE4A0A8E
:10223000F0EE6A0A03F004FDB0EE409AF0EE609A08
:102240009FED0A0B53EC102B51EC190B05F02EFFF0
:1022500004D2012003B0BDEC108B00BD0020F9E7D3
:10226000F80100209C02002088000020FCA9F1D287
:102270004D62503F10B52DED0A8BB0EE408AF0EE66
:10228000608A9FED800BB0EE40AAF0EE60AA7F4816
:1022900090ED000BB0EE409AF0EE609AC4227C49BB
:1022A000A1F10800FEF777F953EC192B51EC180B4C
:1022B00006F044F9764A083A02F5C47203C29FED6B
:1022C000710BB0EE40AAF0EE60AA002422E0704844
:1022D000083800EBC40090ED002BB0EE420AF0EE9F
:1022E000620A6B48083800EBC40090ED002BB0EE9A
:1022F000421AF0EE621A53EC102B51EC110B05F060
:1023000011FF41EC1B0B53EC1A2B05F02DFC41EC9B
:102310001A0B641C322CDADB9FED5E0B53EC102B96
:1023200051EC1A0B05F0D4FC41EC1A0B5B48006829
:10233000401C5A4908600846006864280FD2584873
:1023400090ED000B53EC102B51EC180B05F00CFC2E
:10235000534A03C29FED4B0BBDEC0A8B10BD4F4897
:10236000006864280DD19FED4F0B53EC102B4C48A7
:1023700090ED000B51EC100B05F0AAFC41EC190B91
:1023800002E0652045490860484890ED000B53EC99
:10239000102B474890ED000B51EC100B05F0E4FBBF
:1023A000444A03C2444890ED000B53EC102B4148C3
:1023B00090ED000B51EC100B05F0D6FB41EC1B0B24
:1023C00053EC1B2B3B4890ED000B51EC100B05F030
:1023D0007FFC3A4A03C253EC192B51EC180B06F060
:1023E000ADF841EC1C0B354890ED000B53EC102B75
:1023F00051EC1C0B05F096FE41EC1B0B53EC192B1A
:1024000005F0B2FB214A03C22C4890ED000B53ECBF
:10241000102B9FED2B0B51EC100B06F08FF841ECBD
:102420001B0B244890ED000B53EC102B51EC1B0BB5
:1024300005F078FE1E4A03C2204890ED000B53ECD5
:10244000102B90ED000B51EC100B05F06BFE41ECE6
:102450001B0B53EC1A2B05F065FE144A03C29FEDCB
:102460001A0B53EC102B154890ED000B51EC100B90
:1024700005F056FF02D2054880ED008B034890ED31
:10248000000B69E70000000000000000D000002001
:1024900080040020000000000000494008010020E6
:1024A000000100200000000000C05840F0000020A3
:1024B000D8000020E0000020F8000020E800002004
:1024C000000000000000F03F000000000000E03FBE
:1024D00010B52DED0A8BB0EE408AF0EE608A9FEDCC
:1024E000800BB0EE40AAF0EE60AA7F4890ED000BA2
:1024F000B0EE409AF0EE609AC4227C49A1F1080047
:10250000FEF749F853EC192B51EC180B06F016F8AE
:10251000764A083A02F5C47203C29FED710BB0EE21
:1025200040AAF0EE60AA002422E07048083800EBD0
:10253000C40090ED002BB0EE420AF0EE620A6B4848
:10254000083800EBC40090ED002BB0EE421AF0EE1C
:10255000621A53EC102B51EC110B05F0E3FD41EC2A
:102560001B0B53EC1A2B05F0FFFA41EC1A0B641C01
:10257000322CDADB9FED5E0B53EC102B51EC1A0B77
:1025800005F0A6FB41EC1A0B5B480068401C5A4959
:1025900008600846006864280FD2584890ED000B88
:1025A00053EC102B51EC180B05F0DEFA534A03C222
:1025B0009FED4B0BBDEC0A8B10BD4F4800686428A3
:1025C0000DD19FED4F0B53EC102B4C4890ED000BB1
:1025D00051EC100B05F07CFB41EC190B02E065207F
:1025E00045490860484890ED000B53EC102B4748D4
:1025F00090ED000B51EC100B05F0B6FA444A03C203
:10260000444890ED000B53EC102B414890ED000B2B
:1026100051EC100B05F0A8FA41EC1B0B53EC1B2BF3
:102620003B4890ED000B51EC100B05F051FB3A4A82
:1026300003C253EC192B51EC180B05F07FFF41EC52
:102640001C0B354890ED000B53EC102B51EC1C0B80
:1026500005F068FD41EC1B0B53EC192B05F084FAD7
:10266000214A03C22C4890ED000B53EC102B9FED38
:102670002B0B51EC100B05F061FF41EC1B0B2448B8
:1026800090ED000B53EC102B51EC1B0B05F04AFDA9
:102690001E4A03C2204890ED000B53EC102B90ED26
:1026A000000B51EC100B05F03DFD41EC1B0B53EC06
:1026B0001A2B05F037FD144A03C29FED1A0B53EC99
:1026C000102B154890ED000B51EC100B05F028FE77
:1026D00002D2054880ED008B034890ED000B69E7BE
:1026E0000000000000000000100100201006002083
:1026F0000000000000004940480100204001002087
:102700000000000000C058403001002018010020E7
:1027100020010020380100202801002000000000D6
:102720000000F03F000000000000E03F10B52DED7C
:102730000A8BB0EE408AF0EE608A9FED800BB0EE1F
:1027400040AAF0EE60AA7F4890ED000BB0EE409AF0
:10275000F0EE609AC4227C49A1F10800FDF71BFF4E
:1027600053EC192B51EC180B05F0E8FE764A083AA9
:1027700002F5C47203C29FED710BB0EE40AAF0EEF9
:1027800060AA002422E07048083800EBC40090EDF5
:10279000002BB0EE420AF0EE620A6B48083800EBFC
:1027A000C40090ED002BB0EE421AF0EE621A53EC2A
:1027B000102B51EC110B05F0B5FC41EC1B0B53EC4D
:1027C0001A2B05F0D1F941EC1A0B641C322CDADB20
:1027D0009FED5E0B53EC102B51EC1A0B05F078FAC1
:1027E00041EC1A0B5B480068401C5A4908600846D7
:1027F000006864280FD2584890ED000B53EC102B62
:1028000051EC180B05F0B0F9534A03C29FED4B0B86
:10281000BDEC0A8B10BD4F48006864280DD19FEDB8
:102820004F0B53EC102B4C4890ED000B51EC100B60
:1028300005F04EFA41EC190B02E0652045490860AD
:10284000484890ED000B53EC102B474890ED000BDF
:1028500051EC100B05F088F9444A03C2444890ED4E
:10286000000B53EC102B414890ED000B51EC100B7A
:1028700005F07AF941EC1B0B53EC1B2B3B4890ED18
:10288000000B51EC100B05F023FA3A4A03C253EC4B
:10289000192B51EC180B05F051FE41EC1C0B35487F
:1028A00090ED000B53EC102B51EC1C0B05F03AFC97
:1028B00041EC1B0B53EC192B05F056F9214A03C2CE
:1028C0002C4890ED000B53EC102B9FED2B0B51EC93
:1028D000100B05F033FE41EC1B0B244890ED000B70
:1028E00053EC102B51EC1B0B05F01CFC1E4A03C2D1
:1028F000204890ED000B53EC102B90ED000B51ECA9
:10290000100B05F00FFC41EC1B0B53EC1A2B05F0E0
:1029100009FC144A03C29FED1A0B53EC102B154807
:1029200090ED000B51EC100B05F0FAFC02D20548BB
:1029300080ED008B034890ED000B69E7000000007C
:102940000000000090000020F002002000000000C5
:1029500000004940C8000020C00000200000000026
:1029600000C05840B000002098000020A0000020C7
:10297000B8000020A8000020000000000000F03F88
:10298000000000000000E03F00BFFEE700BFFEE7E0
:1029900070B5002100230F22C4781CB3174C2468A3
:1029A00004F4E064C4F5E064C4F30721C1F1040455
:1029B000E3B20A4144789C40E1B284781440214358
:1029C0000C07210E0E4C05786155047804F01F05A4
:1029D0000124AC4005786D11AD0005F1E025C5F886
:1029E000004109E0047804F01F050124AC40054DC6
:1029F0000678761145F8264070BD00000CED00E029
:102A000000E400E080E100E002490143024A116075
:102A1000704700000000FA050CED00E010B52DED48
:102A20000E0B2DED0C8BA8B09DED3C1BB0EE410ABA
:102A3000F0EE610A9FEDFE1B53EC112B51EC100BD5
:102A400005F046F941EC180B9FEDFB0B53EC102BF6
:102A500005F068FBCDE93C019DED3E1BB0EE410A5F
:102A6000F0EE610A9FEDF21B53EC112B51EC100BB1
:102A700005F02EF941EC180B9FEDEF0B53EC102BEA
:102A800005F050FBCDE93E019DED401BB0EE410A43
:102A9000F0EE610A9FEDE61B53EC112B51EC100B8D
:102AA00005F016F941EC180B9FEDE30B53EC102BDE
:102AB00005F038FB41914090202120A8FDF79DFDB5
:102AC000202118A8FDF799FD202110A8FDF795FDFC
:102AD000202108A8FDF791FD20216846FDF78DFD16
:102AE000012494E19DED340B8DED000B9DED360B33
:102AF0008DED020B9DED380B8DED040B9DED3A0B2A
:102B00008DED060B012C06D0022C16D0032C7DD0A7
:102B1000042C11D117E19DED406B9DED3E5B9DEDC9
:102B20003C4B20A89DED063B9DED042B9DED021B2B
:102B30009DED000B03F068FD67E19DED201BB0EEFD
:102B4000410AF0EE610A9FEDBE1B53EC112B51ECD4
:102B5000100B05F0BDF841EC180B9DED001BB0EE1D
:102B6000410AF0EE610A53EC102B04F0FDFFCDE9B1
:102B700000019DED221BB0EE410AF0EE610A9FEDCF
:102B8000B01B53EC112B51EC100B05F0A1F841ECEC
:102B9000180B9DED021BB0EE410AF0EE610A53ECFA
:102BA000102B04F0E1FFCDE902019DED241BB0EEF6
:102BB000410AF0EE610A9FEDA21B53EC112B51EC80
:102BC000100B05F085F841EC180B9DED041BB0EEE1
:102BD000410AF0EE610A53EC102B04F0C5FFCDE979
:102BE00004019DED261BB0EE410AF0EE610A9FED57
:102BF000941B53EC112B51EC100B05F069F841ECD0
:102C0000180B9DED061BB0EE410A00E019E0F0EE56
:102C1000610A53EC102B04F0A7FFCDE906019DEDEE
:102C2000406B9DED3E5B9DED3C4B18A89DED063B3A
:102C30009DED042B9DED021B9DED000B03F0E4FCCC
:102C4000E3E09DED181BB0EE410AF0EE610A9FED46
:102C50007C1B53EC112B51EC100B05F039F841ECB7
:102C6000180B9DED001BB0EE410AF0EE610A53EC2B
:102C7000102B04F079FFCDE900019DED1A1BB0EE99
:102C8000410AF0EE610A9FED6E1B53EC112B51ECE3
:102C9000100B05F01DF841EC180B9DED021BB0EE7A
:102CA000410AF0EE610A53EC102B04F05DFFCDE910
:102CB00002019DED1C1BB0EE410AF0EE610A9FED92
:102CC000601B53EC112B51EC100B05F001F841EC9B
:102CD000180B9DED041BB0EE410AF0EE610A53ECB7
:102CE000102B04F041FFCDE904019DED1E1BB0EE59
:102CF000410AF0EE610A9FED521B53EC112B51EC8F
:102D0000100B04F0E5FF41EC180B9DED061BB0EE37
:102D1000410AF0EE610A53EC102B04F025FFCDE9D7
:102D200006019DED406B9DED3E5B9DED3C4B10A87B
:102D30009DED063B9DED042B9DED021B9DED000BD3
:102D400003F062FC61E09DED102BB0EE420AF0EE64
:102D5000620A9DED002BB0EE421AF0EE621A53ECBF
:102D6000102B51EC110B04F0FFFECDE900019DED9D
:102D7000122BB0EE420AF0EE620A9DED022BB0EE8D
:102D8000421AF0EE621A53EC102B51EC110B04F0C6
:102D9000EBFECDE902019DED142BB0EE420AF0EE00
:102DA000620A9DED042BB0EE421AF0EE621A53EC6B
:102DB000102B51EC110B04F0D7FECDE904019DED71
:102DC000162BB0EE420AF0EE620A9DED062BB0EE35
:102DD000421AF0EE621A53EC102B51EC110B04F076
:102DE000C3FECDE906019DED406B9DED3E5B9DED83
:102DF0003C4B08A89DED063B9DED042B9DED021B71
:102E00009DED000B03F000FC00BF00BF641C052C0F
:102E1000FFF668AE9DED101BB0EE410AF0EE610AC0
:102E200053EC102B9FED061B51EC110B0CE0000036
:102E3000000000000080664000000060FB210940A7
:102E4000000000000000004005F06CF941EC1B0B95
:102E50009DED181BB0EE410AF0EE610A53EC102B09
:102E60001FED091B51EC110B05F05CF941EC1D0B3A
:102E70009DED201BB0EE410AF0EE610A53EC102BE1
:102E800004F072FE41EC1C0B53EC1B2B04F06CFEA7
:102E900041EC1A0B9DED081BB0EE410AF0EE610A01
:102EA00053EC102B04F060FE41EC190B9FED8B0BE3
:102EB00053EC102B05F036F941EC180B9DED341B4B
:102EC000B0EE410AF0EE610A53EC102B04F04CFE18
:102ED000CDE934019DED121BB0EE410AF0EE610A1E
:102EE00053EC102B1FED2A1B51EC110B05F01AF9B6
:102EF00041EC1B0B9DED1A1BB0EE410AF0EE610A8E
:102F000053EC102B1FED321B51EC110B05F00AF99D
:102F100041EC1D0B9DED221BB0EE410AF0EE610A63
:102F200053EC102B04F020FE41EC1C0B53EC1B2B3C
:102F300004F01AFE41EC1A0B9DED0A1BB0EE410A9B
:102F4000F0EE610A53EC102B04F00EFE41EC190B6D
:102F50009FED620B53EC102B05F0E4F841EC180BDD
:102F60009DED361BB0EE410AF0EE610A53EC102BDA
:102F700004F0FAFDCDE936019DED141BB0EE410AD7
:102F8000F0EE610A53EC102B1FED531B51EC110BAB
:102F900005F0C8F841EC1B0B9DED1C1BB0EE410A7F
:102FA000F0EE610A53EC102B1FED5B1B51EC110B83
:102FB00005F0B8F841EC1D0B9DED241BB0EE410A65
:102FC000F0EE610A53EC102B04F0CEFD41EC1C0B2B
:102FD00053EC1B2B04F0C8FD41EC1A0B9DED0C1BB0
:102FE000B0EE410AF0EE610A53EC102B04F0BCFD88
:102FF00041EC190B9FED390B53EC102B05F092F8B7
:1030000041EC180B9DED381BB0EE410AF0EE610A61
:1030100053EC102B04F0A8FDCDE938019DED161BF3
:10302000B0EE410AF0EE610A53EC102B1FED7C1B51
:1030300051EC110B05F076F841EC1B0B9DED1E1BBE
:10304000B0EE410AF0EE610A53EC102B1FED841B29
:1030500051EC110B05F066F841EC1D0B9DED261BA4
:10306000B0EE410AF0EE610A53EC102B04F07CFD47
:1030700041EC1C0B53EC1B2B04F076FD41EC1A0BBE
:103080009DED0E1BB0EE410AF0EE610A53EC102BE1
:1030900004F06AFD41EC190B9FED100B53EC102B63
:1030A00005F040F841EC180B9DED3A1BB0EE410ADB
:1030B000F0EE610A53EC102B04F056FDCDE93A0115
:1030C0009DED340B9DED361B9DED382B9DED3A3B70
:1030D00028B0BDEC0C8B0EB010BD000057D4E653E9
:1030E0005555C53F10B52DED080B2DED0C8B84B05B
:1030F0009DED101BB0EE410AF0EE610A51EC100B91
:1031000004F000FD08EE900A9DED121BB0EE410A9E
:10311000F0EE610A51EC100B04F0F4FC08EE100A1A
:103120009DED141BB0EE410AF0EE610A51EC100B5C
:1031300004F0E8FC09EE100A9DED161BB0EE410A02
:10314000F0EE610A51EC100B04F0DCFC09EE900A81
:1031500028EEA80A08EE080A09EE090A09EEA90AEB
:1031600010EE101A084605F0D3FA41EC1C0BB0EE35
:103170004C0AF0EE6C0A02F0D3FDB0EE40BAF0EE6D
:1031800060BA51EC1B0B04F0BDFC0AEE100A88EE8D
:103190008A0AF0EE408A88EE0A0AB0EE408A89EE8A
:1031A0000A0AB0EE409A89EE8A0AF0EE409A69EE79
:1031B000290A48EE880AB0EE001A60EE810AB0EEE5
:1031C000600A04F055FA8DED010A29EEA90A09EE0C
:1031D000490A08EE480A08EEA80A10EE101A084636
:1031E00005F096FA41EC1C0BB8EE000A28EE000A36
:1031F00020EE290AF0EE000A68EEA00A00EE890A25
:1032000010EE101A084605F083FA41EC1D0BB0EEE3
:103210004C1AF0EE6C1AB0EE4D0AF0EE6D0A02F0A8
:10322000B3FBB0EE40BAF0EE60BA51EC1B0B04F009
:1032300069FC029029EE090A09EEE90A08EEA80ADB
:1032400008EE480A10EE101A084605F061FA41EC43
:103250001C0BB0EE000A28EE000A20EE090AF0EE80
:10326000000A68EEA00A00EEE90A10EE101A0846FD
:1032700005F04EFA41EC1D0BB0EE4C1AF0EE6C1A54
:10328000B0EE4D0AF0EE6D0A02F07EFBB0EE40BAF1
:10329000F0EE60BA51EC1B0B04F034FC03909DED92
:1032A000010ADDED020A9DED031A04B0BDEC0C8BA2
:1032B00008B010BD29B1064A12680243044B1A60D7
:1032C00004E0034A12688243014B1A607047000011
:1032D0003038024029B1064A12680243044B1A6092
:1032E00004E0034A12688243014B1A6070470000F1
:1032F0004038024029B1064A12680243044B1A6062
:1033000004E0034A12688243014B1A6070470000D0
:103310002038024029B1064A12680243044B1A6061
:1033200004E0034A12688243014B1A6070470000B0
:103330004438024029B1064A12680243044B1A601D
:1033400004E0034A12688243014B1A607047000090
:1033500024380240F0B50021002200240225002676
:103360000223324F3F6807F00C0121B1042905D038
:10337000082937D105E02E4F076036E02D4F076052
:1033800033E02A4F3F1F3F68C7F38056274F3F1F48
:103390003F6807F03F036EB1264FB7FBF3F7DFF846
:1033A0008CC0ACF1040CDCF800C0CCF3881C07FB2B
:1033B0000CF40CE01E4FB7FBF3F7DFF870C0ACF174
:1033C000040CDCF800C0CCF3881C07FB0CF4174F8E
:1033D0003F1F3F68C7F301477F1C7D00B4FBF5F733
:1033E000076002E0124F076000BF00BF0F4F3F6849
:1033F00007F0F0010909104F7A5C0768D740476071
:103400000A4F3F6807F4E051890A0B4F7A5C47681E
:10341000D7408760054F3F6807F46041490B064F6E
:103420007A5C4768D740C760F0BD000008380240AA
:103430000024F40000127A00C401002010B52DED24
:10344000028B86B018216846FDF7D7F8904890EDBA
:10345000000ADFED900A80EE201A11EE104A204695
:1034600005F056F941EC180B8B4890ED001BB0EEBF
:10347000410AF0EE610A53EC102B51EC180B04F0EA
:1034800051FECDE90001824890ED000ADFED810A8E
:1034900080EE201A11EE104A204605F039F941EC71
:1034A000180B7D4890ED021BB0EE410AF0EE610A68
:1034B00053EC102B51EC180B04F034FECDE9020153
:1034C000734890ED000ADFED730A80EE201A11EECA
:1034D000104A204605F01CF941EC180B6E4890ED9F
:1034E000041BB0EE410AF0EE610A53EC102B51ECD4
:1034F000180B04F017FECDE90401684890ED000AAE
:1035000010EE101A084605F003F941EC180B9DED7A
:10351000001BB0EE410AF0EE610A53EC102B05F0EF
:103520000DF85F4A03C25D4890ED010A10EE101AD3
:10353000084605F0EDF841EC180B9DED021BB0EECE
:10354000410AF0EE610A53EC102B04F0F7FF544AE5
:10355000C2E90201514890ED020A10EE101A084625
:1035600005F0D6F841EC180B9DED041BB0EE410AB6
:10357000F0EE610A53EC102B04F0E0FF484AC2E978
:103580000401104690ED001BB0EE410AF0EE610A16
:10359000FEF770FE424880ED000B90ED021BB0EE8E
:1035A000410AF0EE610AFEF793FF3D4880ED020B01
:1035B00090ED041BB0EE410AF0EE610AFFF7B6F899
:1035C000374880ED040B37480068401C35490860D7
:1035D0000846006840F6BA31884256D13148006842
:1035E000401E30490860304890ED000A10EE101A75
:1035F000084605F08DF841EC180B294890ED001BAA
:10360000B0EE410AF0EE610A53EC102B51EC180BAE
:1036100004F0BCFE224A03C2234890ED010A10EEDA
:10362000101A084605F074F841EC180B1C4890ED90
:10363000021BB0EE410AF0EE610A53EC102B51EC84
:10364000180B04F0A3FE164AC2E90201164890EDD9
:10365000020A10EE101A084605F05AF841EC180B51
:103660000F4890ED041BB0EE410AF0EE610A53ECF6
:10367000102B51EC180B04F089FE094AC2E9040131
:10368000012006B0BDEC028B10BD0020F9E7000060
:103690000C0000200000C842A8020020D401002035
:1036A00078020020840000209002002000B587B03E
:1036B00001210803FFF72EFE01210846FFF7FAFD5E
:1036C000052211462348FEF769FC05220621214800
:1036D000FEF764FC052207211E48FEF75FFCE02090
:1036E000059002208DF8180000208DF81A000120A6
:1036F0008DF81B0003208DF8190005A91548FEF769
:1037000005FC154800F08AF80020ADF800004FF4E1
:103710008270ADF802000020ADF804000220ADF880
:1037200006000120ADF808004002ADF80A0018209C
:10373000ADF80C000020ADF80E000720ADF8100029
:103740006946054800F0A4F80121034800F05AF842
:1037500007B000BD000002400030014000B587B056
:1037600001218803FFF7B6FD01210220FFF7A2FD2A
:1037700005220D212148FEF711FC05220E211F48CC
:10378000FEF70CFC4FF4C040059002208DF81800A5
:1037900000208DF81A0001208DF81B0003208DF801
:1037A000190005A91548FEF7B1FB154800F036F8D9
:1037B0004FF48060ADF800004FF48270ADF8020065
:1037C0000020ADF80400ADF806000120ADF80800B7
:1037D0004002ADF80A003820ADF80C000020ADF82A
:1037E0000E000720ADF810006946054800F050F8BB
:1037F0000121034800F006F807B000BD00040240B4
:103800000038004021B1028842F04002028004E00A
:1038100002884FF6BF731A400280704710B5044605
:103820001148844208D101218014FFF783FD002153
:10383000A014FFF77FFD16E00C48844208D1012157
:103840000014FFF757FD00212014FFF753FD0AE095
:103850000748844207D10121C013FFF74BFD002127
:10386000E013FFF747FD10BD003001400038004075
:10387000003C00400246002013890B400BB10120A0
:1038800000E00020704701468889704781817047B9
:1038900010B50022028802F441520B884C88234361
:1038A0008C882343CC8823430C8923434C892343AE
:1038B0008C892343CC8923431A430280838B4FF2A4
:1038C000FF74234083830B8A038210BD2DE9F047E8
:1038D00080460E4617461C46DDE9089A44F08004EF
:1038E00001214046FFF78EFF39463046FEF779FB4F
:1038F00000BF02214046FFF7BDFF0028F9D0214656
:103900004046FFF7C3FF00BF01214046FFF7B2FF6B
:103910000028F9D04046FFF7B6FF002517E000BFAA
:1039200002214046FFF7A6FF0028F9D000214046BB
:10393000FFF7ACFF00BF01214046FFF79BFF0028C7
:10394000F9D04046FFF79FFF09F805006D1C55456B
:10395000E5D300BF80214046FFF78CFF0128F9D056
:1039600000214046FFF74EFF39463046FEF73BFB4D
:10397000BDE8F0872DE9F04180460D4616461C460D
:1039800044F0800401214046FFF73CFF31462846C1
:10399000FEF727FB00BF02214046FFF76BFF002820
:1039A000F9D021464046FFF771FF00BF0121404694
:1039B000FFF760FF0028F9D04046FFF764FF00BF23
:1039C00002214046FFF756FF0028F9D0002140466B
:1039D000FFF75CFF00BF01214046FFF74BFF0028C7
:1039E000F9D04046FFF74FFFC7B200BF80214046E5
:1039F000FFF740FF0128F9D000214046FFF702FF02
:103A000031462846FEF7EFFA3846BDE8F08100005F
:103A1000F8B50446012C04D101032348FEF7E1FA6E
:103A200005E024B94FF400411F48FEF7DAFA0120FF
:103A3000FDF7D2FF01211D48FFF7E4FE00250FE04E
:103A400000BF1A480830008800F001000028F8D0B4
:103A500016480C300088C0B20DF80500681CC5B2CD
:103A6000032DEDDB012C04D121030F48FEF7BBFA37
:103A700005E024B94FF400410B48FEF7B4FA0021E9
:103A80000A48FFF7BFFE9DF8000000049DF80110F2
:103A900040EA01209DF8021040EA01063220FDF7BD
:103AA0009BFF300BF8BD00000004024000380040CE
:103AB0002DE9F04107460C4615461E46DDF81880F4
:103AC00001213846FFF79EFE29462046FEF789FA77
:103AD00000BF02213846FFF7CDFE0028F9D031465D
:103AE0003846FFF7D3FE00BF01213846FFF7C2FE7C
:103AF0000028F9D03846FFF7C6FE00BF022138463D
:103B0000FFF7B8FE0028F9D041463846FFF7BEFE61
:103B100000BF01213846FFF7ADFE0028F9D0384636
:103B2000FFF7B1FE00BF80213846FFF7A3FE012852
:103B3000F9D000213846FFF765FE29462046FEF7FA
:103B400052FABDE8F081704700B52DED028B83B0CD
:103B5000B0EE408A9FED130A8DED000A9FED110A29
:103B60008DED010ADFED100A88EE200ADFED0F0A65
:103B700020EE200A8DED020A9DED021ADDED010A0C
:103B80009DED000AFDF73CFF094880ED000B80ED3C
:103B9000021B80ED042B80ED063B03B0BDEC028BD5
:103BA00000BD00000000000000003443DB0F49406E
:103BB00060000020411D0A2930D2DFE801F0282FE3
:103BC000211A2F2F050C2F131549097841F00101F7
:103BD000134A117022E01249097841F00201104A9B
:103BE00011701BE00E49097841F004010C4A117074
:103BF00014E00B49097821F00101094A11700DE028
:103C00000749097821F00201054A117006E00449CC
:103C1000097821F00401024A117000BF00BF70470B
:103C2000A8010020014880ED000A70478C010020A7
:103C3000014880ED000A7047900100200CB500207B
:103C4000019000903448006840F4803032490860A8
:103C500000BF3148006800F4003000900198401C1B
:103C60000190009818B90198B0F5A06FF1D12A48D9
:103C7000006800F4003010B10120009001E0002045
:103C800000900098012846D123484030006840F059
:103C900080502149403108602048006840F480404D
:103CA0001E4908601C48083000681B49083108603C
:103CB0000846006840F4004008600846006840F488
:103CC000A05008601648091F0860081F006840F0EF
:103CD0008070091F086000BF0F48006800F0007086
:103CE0000028F9D040F205600E4908600A48083003
:103CF000006820F0030008490831086008460068A1
:103D000040F00200086000BF03480830006800F07F
:103D10000C000828F8D10CBD0038024000700040AB
:103D200008544007003C024010B51548006840F4B4
:103D30007000134908601348006840F00100114901
:103D4000086000200F49083108600E4800680E49DD
:103D500008400C4908600D48091D0860081F0068EC
:103D600020F48020091F0860002006490C310860FB
:103D7000FFF764FF4FF0006001498039086010BD13
:103D800088ED00E000380240FFFFF6FE103000240E
:103D900010B50121044800F06AF9012803D101217E
:103DA000014800F055F910BD0000014000B593B086
:103DB0000121880700F05BF901287CD101218007EF
:103DC00000F046F975480068401C74490860744862
:103DD0000068401C72490860704890ED000AB8EE17
:103DE000400ADFED700AB4EEE00AF1EE10FA05DBEE
:103DF00000206A49086001206B4908706848006823
:103E00001921B0FBF1F201FB120000286BD103F085
:103E10004DFA01A803F02AF9644890ED000ADDED9F
:103E2000010A30EE200A80ED000A90ED010ADDED76
:103E3000020A30EE200A80ED010A90ED020ADDED63
:103E4000030A30EE200A80ED020A03F0FDFA68460C
:103E500003F038F9564890ED000ADDED000A30EE27
:103E6000200A80ED000A4E48006832283BD14F48B6
:103E700090ED000AF0EE000A80EE201A4D4880ED29
:103E8000001A4A4890ED010AF0EE000A80EE201A6E
:103E9000484880ED011A454890ED020AF0EE000A0C
:103EA00080EE201A434880ED021A9FED430A3F48F6
:103EB00080ED000A00E06FE09FED3F0A80ED010A0F
:103EC0009FED3D0A80ED020A394890ED000AF0EEC0
:103ED000000A80EE201A394880ED001A9FED360A5C
:103EE000334880ED000A2E4800680A21B0FBF1F249
:103EF00001FB120000284FD103F048FA0AA803F092
:103F0000C5F82F4890ED000ADDED0A0A30EE200AD0
:103F100080ED000A90ED010ADDED0B0A30EE200A7B
:103F200080ED010A90ED020ADDED0C0A30EE200A68
:103F300080ED020A1A48006832282DD10020184965
:103F400008601F4890ED000AF1EE040A80EE201A86
:103F50001C4880ED001A1A4890ED010AF1EE040A9F
:103F600080EE201A174880ED011A154890ED020ADC
:103F7000F1EE040A80EE201A124880ED021A9FED3D
:103F80000E0A0F4880ED000A9FED0B0A80ED010A32
:103F90009FED090A80ED020A13B000BD0400002065
:103FA00010000020000048420800002040020020CD
:103FB00014000020F8010020000000000C00002088
:103FC0001C020020D401002010B50121044800F09B
:103FD0004EF8012803D10121014800F039F810BD45
:103FE0000004004010B50121044800F040F8012809
:103FF00003D10121014800F02BF810BD000800405A
:1040000010B50121044800F032F8012803D1012144
:10401000014800F01DF810BD000C004010B5012152
:10402000044800F024F8012803D10121014800F0E0
:104030000FF810BD0004014021B1028842F0800257
:10404000028004E002884FF67F731A4002807047B6
:10405000CA430282704721B1028842F00102028005
:1040600004E002884FF6FE731A400280704730B5B4
:104070000246002000230024158A05EA01039589E1
:1040800005EA010413B10CB1012000E0002030BDAD
:104090001AB183890B43838102E083898B43838137
:1040A000704700002DE9FF4104460D4616461F46A5
:1040B000DDF828806949601A8C4270D01ADC6849A2
:1040C000A4EB01008C426CD00ADCB4F1804F4ED0DE
:1040D00064482044002852D0B0F5806F71D156E07A
:1040E000B0F5806F65D0B0F5006F6CD0B0F5406F63
:1040F000F4D170E0B0F5923F21D009DCB0F5806FCB
:104100007AD0B0F5644F0AD0B0F5684F7CD10EE09C
:10411000B0F5943F1BD0B0F5963F75D11FE001215B
:104120000846FFF7F7F819208DF800006DE001212F
:104130000220FFF7EFF82C208DF8000065E0012148
:104140000804FFF7E7F818208DF800005DE0012172
:104150001920FFF7DFF82C208DF8000055E0012131
:104160008804FFF7D7F81A208DF800004DE00121F0
:104170000846FFF7AFF81C208DF8000045E001214C
:104180000220FFF7A7F81D208DF800003DE0012177
:104190000420FFF79FF81E208DF8000035E023E093
:1041A000FFE701210820FFF795F832208DF8000085
:1041B0002BE001211020FFF78DF836208DF800004C
:1041C00023E021E0FFE701212020FFF783F83720DB
:1041D0008DF8000019E001214020FFF77BF82B202B
:1041E0008DF8000011E007E001218020FFF772F850
:1041F0002C208DF8000008E001210802FFF76AF882
:104200002D208DF8000000E000BF00BF0295ADF842
:1042100004600020ADF80C00ADF8060001A92046AE
:1042200000F07EF801212046FFF712FF012211461F
:104230002046FFF72DFFF8B28DF8010008F0FF00CF
:104240008DF8020001208DF803006846FEF7A0FB00
:1042500001212046FFF7FFFEBDE8FF81001C004062
:10426000000C004000FCFFBF70B5002400220023BA
:10427000058C4FF6FF6635400584028C8388848B5D
:104280004FF68F752C404FF6FC752C400D882C4353
:104290004FF6FF552A408D894FF6FF7606EA052531
:1042A0002A434D8806EA05252A43154DA84202D027
:1042B000144DA8421DD14FF2FF752A40CD894FF60B
:1042C000FF7606EA05252A434FF6FF352A408D88FA
:1042D00006EA05252A434EF6FF752B404DF6FF757D
:1042E0002B400D8A06EA05152B434D8A06EA051573
:1042F0002B43838084838D68C563028470BD000076
:1043000000000140000401400A460021818B4FF665
:10431000F7731940114381837047C16370470000F0
:1043200000220288184B98420ED0184B98420BD0AE
:10433000B0F1804F08D0164B984205D0154B9842EB
:1043400002D0154B984204D14FF68F731A404B8818
:104350001A43124B984207D0114B984204D04FF6A3
:10436000FF431A400B891A4302804B68C3620B88D3
:104370000385054B984202D0044B984201D18B7AB9
:10438000038601238382704700000140000401403E
:104390000004004000080040000C004000100040F5
:1043A0000014004010B52DED028B84B0FDF724FE03
:1043B00004467E21FDF780FD3BA13E4800F008FC4D
:1043C000002414E03C48006800EBC40090ED001BA2
:1043D000B0EE410AF0EE610A51EC100B03F092FBD3
:1043E00008EE100AB0EE480A00F076FC641C052CBA
:1043F000E8DB32A12F4800F0EBFB002414E0334847
:10440000006800EBC40090ED001BB0EE410AF0EE36
:10441000610A51EC100B03F075FB08EE100AB0EEC8
:10442000480A00F059FC641C052CE8DB28A121484F
:1044300000F0CEFB002414E02948006800EBC40023
:1044400090ED001BB0EE410AF0EE610A51EC100B4A
:1044500003F058FB08EE100AB0EE480A00F03CFCEE
:10446000641C052CE8DB1F48006802781EA1114877
:1044700000F0AEFB21480068007920490968C9783E
:104480001E4A12689278CDE9002102901B4800680C
:1044900043781A480068027819A1064800F098FB92
:1044A00004B0BDEC028B10BD636861727457583A5A
:1044B0000D0A000000100140B00100200D0A6368E1
:1044C00061727457593A0D0A00000000B4010020CF
:1044D0000D0A6368617274575A3A0D0A00000000B1
:1044E000B8010020BC0100200D0A63686172744DA0
:1044F0006F64653A0D0A256400000000C0010020C9
:104500000D0A636861727453656C6563743A0D0AD1
:1045100025640925640925640925640925640D0AB3
:104520000000000010B52DED0C8BBF480068B0F501
:10453000166F7CD3BC48006840F6B831884276D20A
:10454000BA4890ED000A10EE101A084604F0E0F8A0
:1045500041EC190BB64890ED001BB0EE410AF0EEAD
:10456000610A53EC102B51EC190B03F0FDFA41ECEE
:10457000180B03F0C7FAAD490860084690ED010A30
:1045800010EE101A084604F0C3F841EC190BA848C5
:1045900090ED021BB0EE410AF0EE610A53EC102BD5
:1045A00051EC190B03F0E0FA41EC180B03F0AAFAF6
:1045B0009E494860084690ED020A10EE101A08461F
:1045C00004F0A6F841EC190B994890ED041BB0EEED
:1045D000410AF0EE610A53EC102B51EC190B03F079
:1045E000C3FA41EC180B03F08DFA904988609148AA
:1045F00090ED000A10EE101A084604F089F841EC1C
:10460000180B8D4890ED001BB0EE410AF0EE610AE8
:1046100053EC102B51EC180B03F0A6FA864A03C298
:10462000844890ED010A10EE101A084600E02EE0D2
:1046300004F06EF841EC180B7F4890ED021BB0EED1
:10464000410AF0EE610A53EC102B51EC180B03F009
:104650008BFA794AC2E90201764890ED020A10EE1F
:10466000101A084604F054F841EC180B724890ED0B
:10467000041BB0EE410AF0EE610A53EC102B51EC32
:10468000180B03F071FA6C4AC2E90401C9E06648EC
:10469000006840F6B8318842F8D163480068401C91
:1046A00061490860614890ED000ADFED640A80EE20
:1046B000201A80ED001A90ED010ADFED600A80EE0D
:1046C000201A80ED011A90ED020ADFED5C0A80EEFF
:1046D000201A80ED021A584890ED001BB0EE410AF6
:1046E000F0EE610A9FED561B53EC112B51EC100BB1
:1046F00003F0EEFA504A03C24F4890ED021BB0EEB1
:10470000410AF0EE610A9FED4E1B53EC112B51EC68
:10471000100B03F0DDFA484AC2E90201104690EDA1
:10472000041BB0EE410AF0EE610A9FED451B53EC0D
:10473000112B51EC100B03F0CBFA3F4AC2E90401F4
:10474000104690ED042BB0EE420AF0EE620A90EDB6
:10475000042BB0EE421AF0EE621A53EC102B51EC1F
:10476000110B03F0DFFC41EC1A0B334890ED022BE8
:10477000B0EE420AF0EE620A90ED022BB0EE421A61
:10478000F0EE621A53EC102B51EC110B03F0CAFC43
:1047900041EC1C0B284890ED002BB0EE420AF0EEE5
:1047A000620A90ED002BB0EE421AF0EE621A53EC62
:1047B000102B51EC110B03F0B5FC41EC1D0B53EC2D
:1047C0001C2B03F0D1F941EC1B0B53EC1A2B03F01B
:1047D000CBF941EC190BB0EE490AF0EE690A01F091
:1047E0009FFAB0EE408AF0EE608A51EC180B03F0AD
:1047F00089F91549086015490F4802F06BFC134808
:1048000090ED021AD0ED010A90ED000AFDF7F8F8DC
:104810000F4880ED000B80ED021B80ED042B80ED36
:10482000063BBDEC0C8B10BD8400002090020020E4
:1048300078020020F8010020C00200200000164489
:104840000000000000C08240880000209C02002080
:104850006000002010B540F22551054800F0FFF837
:10486000012804D140F22551014800F0C6F810BDDE
:104870000050004010B540F225511D4800F0EFF8FF
:10488000012830D140F22551194800F0B6F81848F7
:1048900000F044FAC4B2174817490968445416484E
:1048A0000068401C144908600846006801280FDDB4
:1048B00008460068401E0F49085C0A2808D10E48C7
:1048C0000068801E085C0D2802D1FCF725FE0EE072
:1048D0000848007841280AD001F086FE07A1044864
:1048E00000F076F903E0024800F018FAC4B210BDF7
:1048F0000010014028090020A40100204E4F542040
:1049000053544152542057495448202741270D0AF7
:104910000000000010B588B0044601210846FEF7EB
:10492000C9FC01211020FEF7F5FC072209212448CB
:10493000FDF734FB07220A212148FDF72FFB4FF436
:10494000C060069002208DF81C008DF81D0000202C
:104950008DF81E0001208DF81F0006A91848FDF7EC
:10496000D5FA02940020ADF80C00ADF80E00ADF8B9
:104970001000ADF814000C20ADF8120002A9114887
:1049800000F0BCF840210F4800F02EF825208DF8EB
:10499000040001208DF805008DF806008DF8070051
:1049A00001A8FDF7F5FF012240F22551054800F06E
:1049B00080F80121034800F02FF808B010BD000076
:1049C000000002400010014010B540F2255105489A
:1049D00000F045F8012804D140F22551014800F0CB
:1049E0000CF810BD0048004001F40072B2F5007FE1
:1049F00000D100BFCA430280704710B500220023D7
:104A000040F66A14A14200D100BF0A12012494406A
:104A1000A3B2DC43048010BD21B1828942F400526C
:104A2000828104E082894DF6FF731A4082817047CB
:104A300010B502A1024800F0CBF810BD0D0A00002D
:104A40000010014002460020B1F5007F00D100BFF8
:104A500013880B400BB1012000E00020704770B5B7
:104A60000246002400230025002040F66A16B142C9
:104A700000D100BFC1F3421501F01F03012606FA61
:104A800003F3012D02D19689334006E0022D02D1B5
:104A9000168A334001E0968A33400C12012606FA4A
:104AA00004F41688344013B10CB1012000E000205A
:104AB00070BDF0B50346002400260025002040F616
:104AC0006A17B94200D100BF1846C1F3421401F081
:104AD0001F06012707FA06F5012C01D10C3004E06E
:104AE000022C01D1103000E014301AB107682F43B6
:104AF000076002E00768AF430760F0BD2DE9FF479C
:104B000005460E460024A14600BFA046B08900B16C
:104B100000BF2C8A24F44054F08804432C82AC89D2
:104B200041F20C608443B08831890843718908439D
:104B30000443AC81AC8A24F44074B0890443AC8251
:104B40006846FEF707FC2048854202D01F48854290
:104B500002D1DDF80C9001E0DDF80890A88900F49E
:104B6000004040B109EBC90000EB09103168490071
:104B7000B0FBF1F707E009EBC90000EB0910316861
:104B80008900B0FBF1F76420B7FBF0F004012009C5
:104B9000642101FB1078A88900F4004040B1322064
:104BA00000EBC800B0FBF1F000F00700044308E0A0
:104BB000322000EB08106421B0FBF1F000F00F0090
:104BC00004432C81BDE8FF87001001400014014020
:104BD0000FB470B586B006460CA8019073E00B9830
:104BE00000785C281CD10B98401C0B9000786E2834
:104BF00009D072280FD10D21304600F094F80B989F
:104C0000401C0B900BE00A21304600F08CF80B980A
:104C1000401C0B9003E00B98401C0B9000BF4BE036
:104C20000B980078252840D10B98401C0B900078F9
:104C3000642818D0732833D1019810C801900BE074
:104C40002178304600F06FF800BF40213046FFF772
:104C5000F9FE0028F9D0641C20780028F0D10B98C8
:104C6000401C0B9020E0019820C801900A2202A964
:104C7000284602F04BFC02AC0BE02178304600F0F5
:104C800052F800BF40213046FFF7DCFE0028F9D083
:104C9000641C20780028F0D10B98401C0B9003E096
:104CA0000B98401C0B9000BF06E00B9810F8011BFE
:104CB0000B90304600F037F800BF40213046FFF738
:104CC000C1FE0028F9D00B980078002887D106B0E3
:104CD00070BC5DF814FB000000B52DED048B83B0B3
:104CE000B0EE408A002000900190029018EE100A69
:104CF00003F00EFD41EC190B53EC192B05A168468E
:104D0000FBF7B6FB69460448FFF762FF03B0BDEC52
:104D1000048B00BD2566090000100140014688880B
:104D2000C0F30800704730B504460D4600BF80212F
:104D30002046FFF787FE0028F9D080212046FFF7A4
:104D400053FE40212046FFF74FFEC5F30800A08028
:104D500030BD000010B52DED0A8BFE4890ED000A25
:104D6000DFEDFD0A80EE201AB0EE418AFB480068B4
:104D7000401CFA490860FA21F948FFF7CEFAF748D3
:104D8000006803F07FF941EC190B9FEDF60B53EC33
:104D9000102B03F08BF97DD8F048006803F072F90E
:104DA00041EC190B9FEDF10B53EC102B03F0B8FA0B
:104DB000F1D818EE100A03F0ABFC41EC190BED48EA
:104DC00090ED000B53EC102B51EC190B02F0CCFEC4
:104DD000E84A03C218EE100A03F09AFC41EC1A0BE1
:104DE00018EE100A03F094FC41EC1B0B53EC1A2B49
:104DF00003F098F941EC190BDF4890ED000B53ECF0
:104E0000102B51EC190B02F0AFFEDB4A03C2DB485A
:104E100090ED000A10EE101A084603F079FC41EC00
:104E2000190BD74890ED001BB0EE410AF0EE610A75
:104E300053EC102B51EC190B02F096FED04A03C232
:104E4000CE4890ED010A10EE101A084603F060FCFF
:104E500041EC190BCA4890ED021BB0EE410AF0EE8E
:104E6000610A53EC102B51EC190B02F07DFEC44A81
:104E7000C2E90201C14890ED020A10EE101A08467C
:104E800003F046FC41EC190BBD4890ED041BB0EE5D
:104E9000410A00E097E0F0EE610A53EC102B51EC70
:104EA000190B02F061FEB64AC2E9040118EE100ABD
:104EB00003F02EFC41EC1A0BB04890ED000A10EE06
:104EC000101A084603F024FC41EC1B0B53EC1A2B80
:104ED00003F028F941EC190BAA4890ED001BB0EE45
:104EE000410AF0EE610A53EC102B51EC190B02F061
:104EF0003BFEA44A03C218EE100A03F009FC41EC81
:104F00001A0B9E4890ED010A10EE101A084603F0A5
:104F1000FFFB41EC1B0B53EC1A2B03F003F941ECA4
:104F2000190B984890ED021BB0EE410AF0EE610AB1
:104F300053EC102B51EC190B02F016FE914AC2E90A
:104F4000020118EE100A03F0E3FB41EC1A0B8B4848
:104F500090ED020A10EE101A084603F0D9FB41EC5E
:104F60001B0B53EC1A2B03F0DDF841EC190B8548B1
:104F700090ED041BB0EE410AF0EE610A53EC102BE9
:104F800051EC190B02F0F0FD7E4AC2E90401B0EECB
:104F9000480AFFF7A1FE7948D0ED000AB0EE600A9A
:104FA000FFF79AFE7548D0ED010AB0EE600AFFF7F0
:104FB00093FE7248D0ED020AB0EE600AFFF78CFE55
:104FC000FFF736FD76E16548006803F05BF841ECD9
:104FD000190B9FED6D0B53EC102B02F0D1FF7CD120
:104FE000042024E06A49096801EBC00111ED020BBD
:104FF0006749096801EBC00181ED000B654909684B
:1050000001EBC00111ED020B6249096801EBC0011F
:1050100081ED000B6049096801EBC00111ED020B45
:105020005D49096801EBC00181ED000B401E0028BD
:10503000D8DC504890ED000B53EC102B90ED000B9A
:1050400051EC100B03F06EF841EC1B0B4A4890ED4D
:10505000000B53EC102B9FED510B51EC100B03F098
:1050600061F841EC1C0B53EC1B2B03F067FA41EC8D
:10507000190B434890ED001BB0EE410AF0EE610AB7
:1050800053EC102B3B4890ED001B51EC110B03F03F
:1050900049F841EC1B0B3B4890ED001BB0EE410A78
:1050A000F0EE610A53EC102B9FED3C1B51EC110B01
:1050B00003F038F841EC1C0B53EC1B2B03F03EFAC9
:1050C00041EC1A0B53EC192B02F002FE304A126825
:1050D00003C2284890ED000B00E0DBE053EC102BFE
:1050E00090ED000B51EC100B03F01CF841EC1B0B86
:1050F000214890ED000B53EC102B9FED280B51EC49
:10510000100B03F00FF841EC1C0B53EC1B2B03F0BE
:1051100015FA41EC1A0B1A4890ED021BB0EE410A49
:10512000F0EE610A53EC102B124890ED001B51EC8D
:10513000110B02F0F7FF41EC1B0B124890ED021B24
:10514000B0EE410AF0EE610A53EC102B9FED131BF9
:1051500028E000000C0000200000C8425800002099
:1051600000040040000000000082E4400000000055
:105170000070A7403000002050000020D401002023
:105180003800002018000020000000002082E440C9
:10519000B0010020B4010020B80100200000000090
:1051A000000BE34051EC110B02F0BCFF41EC1C0B77
:1051B00053EC1B2B03F0C2F941EC190B53EC1A2BE7
:1051C00002F086FD3D4A126803C23D4890ED000B97
:1051D00053EC102B90ED000B51EC100B02F0A2FFE2
:1051E00041EC1B0B374890ED000B53EC102B1FEDDF
:1051F000150B51EC100B02F095FF41EC1C0B53EC1E
:105200001B2B03F09BF941EC190B2F4890ED041B6D
:10521000B0EE410AF0EE610A53EC102B284890EDF5
:10522000001B51EC110B02F07DFF41EC1B0B2748DA
:1052300090ED041BB0EE410AF0EE610A53EC102B26
:105240001FED2A1B51EC110B02F06CFF41EC1C0B03
:1052500053EC1B2B03F072F941EC1A0B53EC192B96
:1052600002F036FD1A4A126803C2FCF7C5FE044676
:105270007E21FCF72DFE17A11B48FFF7A9FCFFF7C5
:1052800091F86FF00100FEF795FC00211748FFF739
:1052900044F80FE01648006802F0F4FE41EC190BE8
:1052A0001FED470B53EC102B03F03AF802D21148D4
:1052B0000F490860BDEC0A8B10BD0000B40100204E
:1052C000300000205000002038000020180000208E
:1052D000B8010020466C6173682055706461746584
:1052E00020656E640D0A00000010014000040040BB
:1052F000580000202A2C0A0000BFFEE703B40198E2
:105300004100009850EAC12018BF04204A0D18BF80
:1053100040F0010040F2FF72B2EB515F08BF40F075
:105320000200012808BF052002B0704713B5DDE96F
:1053300000200AB1012200E0002240EA020121F02F
:105340000040024A101AC00F1CBD00000000F07F90
:1053500070B5C1482DED020B2DED0E8B82B0119D65
:1053600025F000449FEDBEDB9FEDBFEB84423EDBAA
:10537000A4F140511098A1F17F6108430FD0BC48BF
:10538000844202DC28D1109830B39DED100B02B09E
:10539000BDEC0E8B02B0BDE8704001F0E9B89DEDA8
:1053A000100B53EC1D2B51EC100B02F0BBFE9DEDCE
:1053B000100B41EC180B53EC1E2B51EC100B02F0B0
:1053C000B1FE53EC182B02F0CFFB41EC100B02B0F6
:1053D000BDEC0E8B02B070BD0120FBF73DF902B0B1
:1053E000BDEC0E8B02B0BDE8704001F0D5B8A1480D
:1053F0009FEDA18B844256DA9DED100BB4F1795FDD
:105400000ADA51EC100BFFF779FF042808BF01F00E
:10541000D3F89DED100BDAE753EC102B51EC100B89
:1054200002F080FE41EC190B95480621B0EE490AC6
:10543000F0EE690A784400F087FF53EC192B51EC29
:10544000100B02F06FFE41EC1A0B8E48B0EE490AC9
:10545000F0EE690A0421784400F076FF53EC192B32
:1054600051EC100B02F05EFE53EC182B02F07CFBAB
:1054700041EC100B51EC1A0B53EC102B02F028FCF2
:10548000CDE900019DED000B53EC102B9DED100BB1
:1054900051EC100B02F046FE9DED101B53EC112B4E
:1054A00002F062FBD2E09DED100B51EC100B01F00D
:1054B00045FC53EC182B02F069FF9FED730BCDE90F
:1054C000000153EC102B9DED000B51EC100B02F082
:1054D00029FE41EC190B6E480621B0EE490AF0EEA8
:1054E000690A784400F030FF53EC192B51EC100B93
:1054F00002F018FE41EC1B0B6648B0EE490AF0EED4
:10550000690A0421784400F01FFF53EC192B51EC79
:10551000100B02F007FE53EC182B02F025FB41ECB8
:105520001C0B51EC190B02F083F941EC180B5A4893
:105530009FED5BABA04222DC53EC1C2B51EC1B0B10
:1055400002F0C6FBCDE900019DED000B51EC180BFC
:1055500053EC102B02F0E6FD53EC182B02F004FB89
:1055600053EC1A2B02F0DEFD53EC1D2B02F0E6FF8C
:1055700053EC1E2B02F00AFF41EC100B5FE08DEDA7
:10558000008B002000909DED000B51EC180B53ECAC
:10559000102B02F0E9FA9DED000B41EC1E0B53ECD1
:1055A000102B51EC100B02F0BDFD53EC192B02F047
:1055B000EDFE53EC1E2B02F08BFB41EC190B53EC70
:1055C0001C2B51EC1B0B02F083FB41EC1B0B53EC2F
:1055D0001A2B51EC190B02F0A5FD53EC1D2B02F018
:1055E000D5FE41EC190B53EC1A2B51EC180B02F0C1
:1055F00099FD53EC1B2B02F095FD53EC192B02F097
:105600009DFF9DED000B41EC180B53EC1A2B51EC58
:10561000100B02F087FD9FED249B53EC192B02F039
:10562000B5FE41EC100B51EC180B53EC102B02F0B3
:1056300085FF53EC192B02F0A9FE41EC100B002D55
:105640003FF7C5AE51EC100B02F050FA41EC100BD5
:10565000BDE60000000000000000F03F0000000078
:10566000075C143326A6913C182D4454FB21F93FC6
:105670000000F07F0000E03F000000000000F03F6D
:10568000103C00001E3C0000000000000000E03F55
:10569000623B0000703B00003333EF3F000000002E
:1056A0000000000000000040182D4454FB21E93F99
:1056B00070B59B482DED020B2DED068B079D25F057
:1056C0000044A04218DC9748844202DC0AD10698C4
:1056D00040B19DED060BBDEC068B02B0BDE87040FD
:1056E00000F046BF002DCCBF9FED8F0B9FED900BC0
:1056F000BDEC068B02B070BD8F48A04215DD8F480F
:10570000A042D8BF4FF0FF3458DD9DED060B51ECA1
:10571000100BFFF7F3FD042808BF00F04DFF9DEDCF
:10572000060BBDEC068B02B070BD9DED060B51EC77
:10573000100B01F003FBCDE9060181489FED828B40
:10574000A0423CDD8248A0421FDD00249FED82ABD9
:105750009DED060B53EC1A2B51EC100B02F004FAE2
:105760009DED060B41EC190B53EC1A2B51EC100B71
:1057700002F0D8FC53EC182B02F0E0FE53EC192B8E
:1057800002F0A6FACDE9060149E09DED060B0124E1
:1057900053EC182B51EC100B02F0E6F99DED060BC3
:1057A00041EC190B53EC182B51EC100B02F0C6FE18
:1057B00053EC192B02F08CFACDE906012FE0684872
:1057C000A0421FDD02249FED689B9DED060B53EC6C
:1057D000192B51EC100B02F0A5FC53EC182B02F026
:1057E000C3F99DED060B41EC180B53EC192B51EC52
:1057F000100B02F0A3FE53EC182B02F069FACDE96E
:1058000006010CE09DED060B032453EC102B9FEDDD
:10581000580B51EC100B02F05BFACDE906019DED3F
:10582000060B53EC102B51EC100B02F07BFC41ECFF
:10583000180B53EC182B02F075FC41EC190B4E4879
:105840000621B0EE490AF0EE690A784400F07CFDCA
:1058500053EC182B51EC100B02F064FC41EC180BCC
:105860004648B0EE490AF0EE690A0521784400F096
:105870006BFD53EC192B51EC100B02F053FC41EC77
:10588000100B51EC180B53EC102B002C0EDA02F01D
:105890006BF99DED061B53EC112B02F043FC9DEDC3
:1058A000061B53EC112B02F071FD35E002F05CF9A0
:1058B0009DED061B53EC112B02F034FC41EC100B58
:1058C0002F48784400EBC40090ED001B51EC100B06
:1058D00053EC112B02F032FE9DED061B53EC112B05
:1058E00002F02CFE41EC100B2648784400EBC4007B
:1058F00090ED001B51EC100B53EC112B02F046FD08
:1059000041EC100B002DA2BFBDEC068B02B070BDA8
:1059100051EC100B02F0EAF841EC100B01E700002B
:10592000000010440000F07F182D4454FB21F93F83
:10593000182D4454FB21F9BF0000DC3F0000203E3D
:105940000000F33F00000000000000000000F03FF6
:105950000000E63F000000000000000000000040E2
:105960000080034000000000000000000000F83F3D
:10597000000000000000F0BFB238000068380000EE
:10598000F2370000AA37000070B56B4E2DED040B06
:105990002DED028B82B0DDF81CC0DDE905235C42F1
:1059A0002CF000411C4341EAD474049D22F00040D5
:1059B000B44205D86C422C4340EAD474B4420BD9AB
:1059C0009DED061B9DED040B02B0BDEC028B04B0F7
:1059D000BDE8704000F0D6BDACF14054A4F17F6446
:1059E0001C430BD0022404EAAC7444EAD27405438D
:1059F0009FED538B9FED542B07D015E09DED040BCD
:105A000051EC100B00F0E8FD42E0002C11BF012C1E
:105A10009DED040B02B0BDEC028B04BF04B070BD61
:105A2000022C38D0032C3BD00B439FED491B9FED3C
:105A30004A0B0AD0B14218D1B04209D121F08041BD
:105A400020F08040079105900FE0002A15DA10E061
:105A5000434B7B44002C08BF93ED000B0DD0012C71
:105A600010D0022C17D0032C1AD0B0421DD1002A1E
:105A700003DAB0EE410AF0EE610A02B0BDEC028B2F
:105A800004B070BD93ED000B51EC100B02F02EF83A
:105A900041EC100BF1E7B0EE480AF0EE680AECE7D3
:105AA000B0EE420AF0EE620AE7E7401A00153C2821
:105AB000C8BF8DED000B19DCBCF1000FBEBF10F1AB
:105AC0003C0F9FED290B8DED000B0FDB9DED060BC1
:105AD00053EC102B9DED040B51EC100B02F0F8F879
