:020000040800F2
:10000000486600208D020008AD390008DD2F000889
:10001000A939000801290008A968000800000000AB
:10002000000000000000000000000000674B000816
:100030008129000800000000A3020008A5020008B2
:10004000A7020008A7020008A7020008A7020008EC
:10005000A7020008A7020008A7020008A7020008DC
:10006000A7020008A7020008A7020008A7020008CC
:10007000A7020008A7020008A7020008A7020008BC
:10008000A7020008A7020008A7020008A7020008AC
:10009000A7020008A7020008A7020008A70200089C
:1000A000A7020008B14D0008A7020008A702000837
:1000B000CD4D0008694F0008854F0008A7020008D1
:1000C000A7020008A7020008A7020008A70200086C
:1000D000A702000859590008A7020008AD5A0008F5
:1000E000A7020008A7020008A7020008A70200084C
:1000F000BD4F0008A7020008A7020008A7020008D9
:10010000A7020008A7020008A14F0008A7020008E4
:10011000A702000839590008A7020008A702000832
:10012000A7020008A7020008A7020008A70200080B
:10013000A7020008A7020008A7020008A7020008FB
:10014000A7020008A7020008A7020008A7020008EB
:10015000A7020008A7020008A7020008A7020008DB
:10016000A7020008A7020008A7020008A7020008CB
:10017000A7020008A7020008A7020008A7020008BB
:10018000A7020008A702000800F002F800F06FF8CC
:100190000AA090E8000C82448344AAF10107DA45E2
:1001A00001D100F064F8AFF2090EBAE80F0013F0C5
:1001B000010F18BFFB1A43F00103184700A9000004
:1001C00020A900000A444FF0000C10F8013B13F086
:1001D000070408BF10F8014B1D1108BF10F8015BA0
:1001E000641E05D010F8016B641E01F8016BF9D193
:1001F00013F0080F1EBF10F8014BAD1C0C1B09D1EA
:100200006D1E58BF01F801CBFAD505E014F8016B5B
:1002100001F8016B6D1EF9D59142D6D370470000ED
:100220000023002400250026103A28BF78C1FBD8FF
:10023000520728BF30C148BF0B607047662909F0DC
:100240004586002070471FB509F005FE00F08CFCC4
:1002500004000020002108F02FFF401C60600020F7
:10026000002108F013FFE0601FBD10B510BD00F0C5
:10027000A3FD1146FFF7E7FF08F01AFC01F01CF898
:1002800003B4FFF7F2FF03BC01F05CF809488047B4
:1002900009480047FEE7FEE7FEE7FEE7FEE7FEE768
:1002A000FEE7FEE7FEE7FEE704480549054A064B80
:1002B00070470000494D00088901000848200020CF
:1002C000486600204862002048620020DFED300AC6
:1002D000B5EEC00A60EE200ABDEEE01A11EE100A7B
:1002E000F1EE10FA38BF401E00EE100A9FED291AF9
:1002F000B8EEC00A70EEC00A20EE810ABCEEC00A59
:1003000010EE100A00EE100A0028B8EEC00A10EE37
:10031000810AB8BF002004DBB0F5807FC8BF4FF46E
:1003200080701D4960EE000AB6EE001ADFED1C2A4F
:100330009FED1A2A60EE011A60EE225A20EE813AF1
:1003400020EE022A21EEA01A01EB800073EE655A1E
:1003500062EE202AB7EE006A33EE003AD0EC043A9F
:1003600076EE611A71EE600A35EEE20A33EE413A3A
:1003700032EEC21A70EEA10A20EE230A64EE831A4E
:1003800004EE200A45EE011A31EE800A70470000A3
:1003900083F9223E00008043F89F0008ABAA2A3E62
:1003A000ABAAAA3EDFED300AB5EEC00A60EE200A25
:1003B000BDEEE01A11EE100AF1EE10FA38BF401E41
:1003C00000EE100A9FED291AB8EEC00A70EEC00ABE
:1003D00020EE810ABCEEC00A10EE100A00EE100AF0
:1003E0000028B8EEC00A10EE810AB8BF002004DB76
:1003F000B0F5807FC8BF4FF480701D4960EE000AE1
:10040000B6EE001ADFED1C2A9FED1A2A60EE011AE3
:1004100060EE225A20EE813A20EE022A21EEA01A46
:1004200001EB800073EE655A62EE202AB7EE006A97
:1004300033EE003AD0EC043A76EE611A71EE600ABF
:1004400035EEE20A33EE413A32EEC21A70EEA10AFC
:1004500020EE230A64EE831A04EE200A45EE011A08
:1004600031EE800A7047000083F9223E000080438D
:1004700008A40008ABAA2A3EABAAAA3E0FB41CB53A
:10048000074B06AA7B4469460090059800F003FBE1
:100490000020694600F012FB1CBC5DF814FB000054
:1004A000350600002DE9F0410E460446002020628A
:1004B0002046E168884730B3252805D0D4E90121DA
:1004C0009047206A401CF2E7E168204600278847F1
:1004D000050018D0A5F14100192802D820354FF4A5
:1004E00000673246294620462760FFF7A7FE40B145
:1004F000012804D0F61D26F007060836D8E7361D79
:10050000D6E72846DAE7206ABDE8F08140EA010331
:1005100070B59B072ED14FF00136042A2AD308C8A4
:1005200010C99D1B9D43121F15EAC61517D0D8B2DE
:10053000E1B2401A50EA056110D198B2A1B2401A56
:1005400050EA05410AD123F07F4024F07F41401A50
:1005500050EA052102D1180EA0EB146070BDA34231
:10056000DBD018BA21BA884201D9012070BD4FF002
:10057000FF3070BD0AB9002070BD10F8013B11F8C2
:10058000014B63B1A3420AD1521E08D010F8013BBF
:1005900011F8014B1BB1A34201D1521EEDD1181B22
:1005A00070BD10B5203AC0F00B80B1E81850203A69
:1005B000A0E81850B1E81850A0E81850BFF4F5AF03
:1005C0005FEA027C24BFB1E81850A0E8185044BF8D
:1005D00018C918C0BDE810405FEA827C24BF51F8FA
:1005E000043B40F8043B08BF7047D20728BF31F8EE
:1005F000023B48BF11F8012B28BF20F8023B48BF3F
:1006000000F8012B70474FF0000200B513469446E6
:100610009646203922BFA0E80C50A0E80C50B1F15A
:100620002001BFF4F7AF090728BFA0E80C5048BF6E
:100630000CC05DF804EB890028BF40F8042B08BF0C
:10064000704748BF20F8022B11F0804F18BF00F808
:10065000012B704770477047704710B500F088FA5B
:10066000006810BD10B5044600F082FA046010BDA9
:1006700070472DE9FF4F0C461E464FF0FF378BB0F9
:10068000D2E90001DDF860800A908A46C1F30A557C
:1006900005B93D46002108464FF00000BAF1000FB1
:1006A00000F4400005DA00EB80004FF4400101EA5D
:1006B00050004FEA9059B9F1010F00DDB9460A9890
:1006C00050EA4A000ED044F61050A5F2FF354543DB
:1006D0002F14B8F1000F1ED07542291E1EDDC9F17E
:1006E00000021CE0B8F1010F4FF0000001D03021F2
:1006F00003E0F24305E02154401CB042FBDB3046EE
:100700000022002121540B99C1F80880C1E9002082
:100710000FB0BDE8F08FBD1B6D1CDEE74A4600DA66
:10072000694206A800F0D6FA06AB93E8070003ABCF
:1007300083E8070050460A9901F053F88DE8070056
:10074000A0F500501F3800900398002D09DD42F2FB
:100750001F014A46084403A90390684601F0DDFAE8
:1007600008E0A0F500504A461F3803A903906846E8
:1007700001F0FBFA8DE807000004000C03D04FF0F5
:10078000FF30410800E01046B8F1000F03D000220E
:10079000009215461EE0751E05D400F0EDF93032CA
:1007A00062556D1EF9D5B3460122084302D00022DE
:1007B0007F1C04E02078302801D100227F1E002A0F
:1007C000099786D01DE0112D07DA00F0D5F93032F7
:1007D00062556D1C50EA0102F5D1084302D0009821
:1007E000C8B10EE00021681E05E0235C625C635422
:1007F0002254401E491C8142F7DBAB46A81B401E19
:100800000990002004F80B000B98099AC0F80880A2
:10081000C0E9002B7CE711264FF0000859E72DE9CD
:10082000F04F88460446D21D22F0070191B0D1E96D
:100830000001CDE90A0106F039F802460B98C00F15
:1008400001D02D2007E02068810701D52B2002E090
:10085000202101EAC000032A099001D0072A05DB04
:1008600003464146204600F0D5F90BE1207880068A
:1008700001D5E06900E00620B8F1650F814606D099
:10088000B8F1660F18D0B8F1670F70D131E00020D1
:10089000B9F1110F009001DB112301E009F101030F
:1008A0000AAA01A90CA8FFF7E4FEDDE90C700026F6
:1008B00009F10105834647E001204B4600904FF0C7
:1008C00000470AAA01A90CA8FFF7D3FEDDE90DB085
:1008D0000C995D46002610B909F101000D18B9EB1D
:1008E000050003D4C0F1FF3609F10105A5EB0900AD
:1008F0002BE0B9F1010F01DA4FF001090020B9F145
:10090000110F0090484601DD112300E003460AAABA
:1009100001A90CA8FFF7ADFEDDE90C704D460026DD
:100920008346207800070AD4AB4500DA5D4601A86B
:10093000012D04DD411911F8011C302907D04F4564
:1009400002DA17F1040F04DA012082460FE06D1E6F
:10095000EEE7002F02DCED1B3E4403E0781CA842CA
:1009600000DD7D1CB81B00F1010A4FF00047207824
:10097000000703D4AA4501DB4FF0FF3A0021B7F18D
:10098000004F0DF143088DF8431024D002202B2393
:10099000002F01DA7F422D230A21021EA0F101005F
:1009A00000DC5FB197FBF1FC97FBF1F201FB1C7CD3
:1009B00017460CF1300C08F801CDEEE7A8F1010064
:1009C00003702188090501D5452100E06521A0F1CA
:1009D000010800F8011C09980FA9A1EB0807FF1DE9
:1009E00000B10120411901EBEA70A1693844081AED
:1009F000401EA0612078C00602D42046AFF30080DC
:100A0000099828B1D4E901219047206A401C20624E
:100A10002078C00622D52046AFF300801EE0002ECD
:100A200004DBB34502DD01A8805D00E03020D4E99D
:100A300001219047206A401C2062761CAAF1010027
:100A40005FEA000A0AD100F08FF8C0680168405CD4
:100A5000D4E901219047206A401C2062281EA5F19C
:100A60000105DCDC07E0D4E9012118F8010B90470F
:100A7000206A401C2062381EA7F10107F3DC2046E3
:100A8000AFF30080032011B043E6000001694A1C67
:100A900002610878704700B58FB0CDE901310021BF
:100AA000059105497944CDE9031011466846FFF7E1
:100AB000F9FC0FB000BD0000E5FFFFFF0A6802F877
:100AC000010B0A60704700000FB4002300B589B025
:100AD0000CA900910B99CB60204B7B440693204BD3
:100AE0007B44079304236FF00042CDE901321D4A95
:100AF0007A446B4608920246002009F049FA09B090
:100B00005DF814FB70B506464FF0FF3015460C46F5
:100B1000324686B00091CDE901016946002004907B
:100B200004A8FFF7D1FF03460498211825B108B1A6
:100B30000A4600E022462A6000280DD0002B02DD84
:100B40000098884208D03246081B69460094CDE9D7
:100B5000010404A8FFF7B8FF06B070BDB70100009C
:100B6000CF0100000F01000000487047082000205E
:100B700000487047E81F002030B5B0F10A024FEA84
:100B8000900E71F100034EEA817EB0EB0E0061EB36
:100B900091014FEA101E4EEA017E10EB0E0041EB70
:100BA00011114FEA102E4EEA016E10EB0E0041EBD0
:100BB00011214FEA104E4EEA014E10EB0E0041EBB0
:100BC0001141401841F100014FEAD00040EA417064
:100BD0004FEAD10110EB80054FEA810444EA90749A
:100BE00044EB01046D1944EB0404521BA3414FF084
:100BF000000348BF0A3200D530BD401C41F100015E
:100C000030BD10B5044600F0FDF80068005D00F04E
:100C1000010010BD2DE9F0411F460446032601687E
:100C2000072A01F4006004DB08B116A505E016A54B
:100C300003E008B115A500E015A521F01000206023
:100C4000A069C01EA0610FB1401EA0612046AFF395
:100C500000804FB1D4E9012138469047206A401CFA
:100C60002062C01C206206E0206AFAE7D4E9012174
:100C700015F8010B9047761EF8D22046AFF300809E
:100C8000BDE8F0814E414E006E616E00494E460057
:100C9000696E6600426842B1016811F8013B23B1F8
:100CA000521EC0E90012184670470121C160881E1B
:100CB000704742685AB1C368016843B983688B4280
:100CC00005D0491E521CC0E90012002070474FF0A9
:100CD000FF3070472DE9F047814616468AB0334809
:100CE00078440DC88DE80D0030487844801C03AC72
:100CF0000DC884E80D0041F69B300844372190FB75
:100D0000F1F290FBF1F5A5F1800501FB12041B3C0B
:100D100002D56442012000E00020DFF890A0804668
:100D20000027FA44AAF1BE0A0DE0E00709D03246D6
:100D3000684607EB47010AEB810101F016F88DE8E0
:100D4000070064107F1C002CEFD1184F7F44AC3F8C
:100D500018E0E80714D007EB04100DF1180A90E82A
:100D60000E008AE80E00C068F04201D19819089080
:100D7000324606A903A800F0F8FF03AB83E807009A
:100D80006D10641C002DE4D132466946B8F1000FA5
:100D900003A802D000F0C1FF01E000F0E6FFC9E9BE
:100DA0000001C9F808200AB0BDE8F087C09D000026
:100DB00000487047E81F00207546FFF7F9FFAE4670
:100DC00005006946534620F00700854618B020B557
:100DD000FFF76AFABDE820404FF000064FF0000729
:100DE0004FF000084FF0000B21F00701AC46ACE8D3
:100DF000C009ACE8C009ACE8C009ACE8C0098D4640
:100E00007047000010B5FFF7AFFE001D10BD00BF1A
:100E1000A98200002DE9FF4F064689B00878FF2817
:100E200006D0491C2D2805D000244FF0000908E009
:100E300000200CE00124F8E709EB8903491C00EBD2
:100E400043090878FF28F7D114B1C9F100008146A1
:100E5000107800252C46AA4629462D2801D02B289B
:100E600004D1521C2D2813D0002082468B461078C6
:100E7000FF280FD04FF0000C0A21521CA5FB01786F
:100E800004FB018105FB0C11C5194BEB0104EEE7D6
:100E90000120EAE7002108464FF00000BAF1000FF8
:100EA00002D000EB80004008C0F38158B8F1010F78
:100EB00001DD4FF0FF380C9809EB000755EA0400FC
:100EC00009D04FF0020917F5FA7F0BDA4FEACA7022
:100ED000C6E900B012E04FEACA70C6E900B00DB032
:100EE000BDE8F08FB7F5FA7F0DDDF0487844D0E922
:100EF0000010C6E9001040EACA707060FFF738FEC3
:100F0000C0F80090EBE7391E02DAC8F1000200E0F9
:100F1000424600DA794206A8FFF7DCFE06AB93E80A
:100F2000070003AB83E8070044F23E005BEA0401DC
:100F30000090584604D144F21E012C465D460091B3
:100F4000210C0904014306D10099240444EA154404
:100F50002D041039009104F07F41014306D100991E
:100F6000240244EA15642D020839009104F070410E
:100F7000014306D10099240144EA15742D01091F8B
:100F8000009104F04041014306D10099A40044EAD5
:100F90009574AD00891E009104F00041084304D10E
:100FA00000986D196441401E009042466846002F2B
:100FB000CDE9014503A902DD00F0EBFE01E000F000
:100FC000C0FEBAF1000F04460D4601D084F0004483
:100FD00040F2FF7724F00040284303D0C4F30A50C6
:100FE000B84212D1FFF7C4FDC0F80090C4F30A5014
:100FF000B8420AD1AE487844D0E90010C6E90010E2
:1010000004F000410843706069E7C6E9005466E7F0
:101010002DE9FF4F1F464FF0000A4FF0FF384546BD
:1010200091B0D7E90146CDF83CA0FFF79DFDC0681F
:101030000168405C1090B96912986D1C8847396A44
:10104000814688470028F6D1B9F1FF3F0AD0002E2B
:1010500024F4D06411DDB9F12B0F08D0B9F12D0FB4
:101060000BD102E0404615B03AE744F48064B96918
:1010700012986D1C8847761E8146600504A901D52B
:101080002D2000E02B20002E01F1010B0DF1300886
:101090008DF810003FDDB9F1690F08D0B9F1490FA3
:1010A00005D0B9F16E0F02D0B9F14E0F1CD13B46FD
:1010B00001A8009580E85002DDE912126FF00200ED
:1010C00008F06AFFC11CCED10EE0B96912986D1C00
:1010D000884781461398761E44F4007405600F9883
:1010E000401C002E0F9016DDB9F1300FEDD0B9F194
:1010F000780F02D0B9F1580F0DD10F9801280AD1FD
:101100003B46CDE90054DDE91212001F029608F0BB
:1011100041FFC11CA7D1109989453ED144F08004FC
:1011200006E01399681CAAF1010A44F400740860EF
:10113000B9696D1C1298761E884730288146F0D018
:101140002BE01099894505D1200603D4761E44F082
:10115000800418E0484606F051FE08B3761E0DF1F3
:1011600023018B4544F4007408D2A9F130000BF838
:10117000010B200607D5AAF1010003E0200602D4E6
:101180000AF101008246A00502D51399681C086087
:10119000B96912986D1C88478146002ED1DC53E056
:1011A000002E51DDB9F1650F02D0B9F1450F4BD1D9
:1011B000A00549D5B9696D1C1298761E24F44074B7
:1011C0008847002E81460CDD2B2804D0B9F12D0F65
:1011D00007D144F48074B96912986D1C8847761E53
:1011E0008146E00501D52D2100E02B2108F8011BE7
:1011F000CDF8008021E0761E0DF13901884544F4D8
:1012000000740CD2A9F1300010F0FF0088F8000043
:1012100002D10099884509D908F1010806E0E005E6
:1012200001D5244801E042F20F708246B969129854
:101230006D1C8847814613980560002E04DD4846E2
:1012400006F0DCFD0028D6D1F96912988847FF2006
:1012500053468BF8000088F8000000200A900B909D
:1012600004AA0CA90AA8FFF7D5FDA00502D46FF0C7
:101270000100F8E614F0240F0AD0E00714D1386812
:10128000DDE90A12031D3B600068C0E900120BE0B3
:101290000AA9684606F04CFDE00705D13868009AB7
:1012A000011D3960006802602846DCE6EC9B000006
:1012B000E29A0000F1D8FFFF0446AFF30080204619
:1012C000FEF7DEFF4FF0013C50F8042B51F8043BD1
:1012D0009A4221D1A2EB0C03934313EACC1317D10A
:1012E00050F8042B51F8043B9A4215D1A2EB0C03A1
:1012F000934313EACC130BD150F8042B51F8043B61
:101300009A4209D1A2EB0C03934313EACC13DBD02E
:101310004FF00000704700BFD01A01BAB1FA81F156
:1013200001F0180122FA01F0CB40C1F12001DBB23B
:10133000C0B2C01A2CFA01F3D11A914311EAC311B9
:10134000E6D1704701491820ABBEFEE72600020037
:10135000704700002DE9FF4F1F464FF03C0987B052
:101360004FF00042DDE9141001F10108DDF858A04A
:1013700002EA40500390002004908346054604464C
:101380000590B969461E08988847AAF1010A02909B
:10139000BAF1000F37DD02982E2815D0102100F089
:1013A00012FA00282ADB4FF0010B0499014316D0F2
:1013B000B9F1000F0BDB4A46C11700F0F1F9054304
:1013C0000C43A9F1040905E00120059007E008B1EC
:1013D00045F0010501200490059800B9361DB96952
:1013E000089808F101088847BBF1000FAAF1010A2B
:1013F0000290CDD00999C1F80080C9E70298702801
:1014000008D0502806D0F96908988847BBF1000F2A
:1014100014D04FE0002002900120BBF1000F049097
:1014200009D0B969089808F101088847AAF10109AB
:10143000B9F1000F07DCF969089888476FF00100DF
:101440000BB0BDE8F08F2B2804D02D280CD14FF025
:10145000FF300490B969089808F101088847A9F19C
:101460000109B9F1000FE6DD411CE4D00A2100F0CA
:10147000AAF90028DFDB029908F1010801EB8101DC
:1014800000EB41000290B969089888470A2100F0F2
:101490009AF9099AA9F10109B9F1000FC2F800807F
:1014A00001DD0028E7DAF96908988847049902986D
:1014B00000FB016655EA040004D004F04041090035
:1014C00002D006E0039898E0A40044EA9574AD00C9
:1014D000B61E04F00041080002D16D196441761E69
:1014E000159810F0240F03D04FF00B095C4803E06F
:1014F0004FF028096FF07D008246564507DAAAEBC7
:1015000006018944B9F1410F01DD4FF04109012085
:101510000021A9F1010200F043F9024628400B46E0
:101520002140084301D0012100E00021501E02911A
:1015300043F1FF3128402140084301D0012000E061
:1015400000200299834651EA0B014FD00021084642
:101550004FF00000039900F4400039B100EB800027
:101560004FF4400100EBD07001EA600080150128C3
:1015700002DD4FF0FF3000E013D0401C36D002985F
:1015800060B3BBF1000F0CD14A460120002100F0EE
:1015900007F928402140084301D0012000E0002045
:1015A000E0B101204A46002100F0FAF80346401954
:1015B0000A4661412D1A8C4111D3B9F1400F09DD62
:1015C000159810F0240F02D0AAF1340603E0AAF116
:1015D000170600E0761C00254FF0004406E05B1E75
:1015E00042F1FF3220EA030521EA0204CAF10100B8
:1015F000B04206DA1B49039808430190002000908E
:101600000EE0039AC4F3D321E80A0A43164940EADC
:1016100044500A433146CDE90002684606F0E4FB37
:10162000159810F0240F0BD01598C00715D1386805
:10163000DDE90012031D3B600068C0E900120CE008
:1016400002A8694606F074FB1598C00705D13868F2
:10165000029A011D3960006802604046F0E6000011
:1016600002FCFFFF0000F07F0000F03F2DE9FF4F7C
:1016700092461D4685B04FF00041DDE9124BDDE991
:1016800014727F1E01EA4B50414940F0FF4940EA85
:101690000108002122F020004928049102D04E28A0
:1016A00028D04CE03BA0012607C88DE80700A969B7
:1016B0000698641C88477F1E014606D41DF8060064
:1016C00018B121F0200181420BD0E96906988847C2
:1016D000032E34D0082E32D06FF0010009B0BDE8DF
:1016E000F08F761C032E01D0082EE0D1601CCAF8C2
:1016F0000000DCE7A9690698641C88477F1E2AD48D
:1017000020F02000412826D1A9690698641C88474A
:101710007F1E20D420F020004E281CD1A9690698F5
:10172000641C88477F1E48F4002849F48009CAF8E1
:10173000004001D4282806D0E969069888475FEA66
:10174000CB7012D022E0A9690698641C88477F1EDE
:1017500001D4002803DAE96906988847BCE72928FC
:10176000F1D1641CCAF80040E9E71BF0240F07D050
:1017700028680499031D2B600068C0E9001805E083
:101780002868021D2A600068C0F800902046A5E77E
:101790000000F07F494E46494E4954590000000070
:1017A000B2F120030AD5C2F1200301FA02F120FAB6
:1017B00003F300FA02F041EA0301704700FA03F173
:1017C0004FF0000070473A2800D2303820F0200255
:1017D000412A01D3A2F13700884201D34FF0FF30F4
:1017E00070475FEA400C08BF91F0000F4FEA8C236E
:1017F0004FEAC12243EA51514FEA1C5018BF00F58D
:10180000F0404FEA300018BF41F000415FEA6C5CE5
:1018100000F02980BCF1FF3F08BF40F080407047D6
:10182000130C06BF12044FF0100C4FF0000C130EF7
:1018300004BF12020CF1080C130F04BF12010CF1CB
:10184000040C930F04BF92000CF1020CD30F04BFE1
:1018500052000CF1010C11464FF00002A0F11F00E4
:10186000A0EB0C00704711F0004F08BF704731F03B
:1018700000413FF4D5AF0B0C06BF09044FF0100C2C
:101880004FF0000C0B0E04BF09020CF1080C0B0FFB
:1018900004BF09010CF1040C8B0F04BF89000CF18B
:1018A000020CCB0F04BF49000CF1010CCCF120035A
:1018B000A0EB0C0022FA03F302FA0CF241EA030156
:1018C00000F10100704720F07F4C80EA030023F014
:1018D0007F47ACEB070303F57C5300F0004003F1B6
:1018E000FF032DE980494FEA154B09B44FEA144331
:1018F00025EA0B4E24EA03480FF2042606EB1327D1
:1019000049083E785FEA320203FB0667C7F5000725
:1019100007FB06F64FEA54374FEAD64606F10206B1
:1019200007FB066CCCF1005C4FEA1C472CEA074C25
:1019300007FB06F40CFB06F504EB15464FEA96167A
:1019400034BF00204FF000404FEAD13706FB07FCC0
:101950004FEA1C4C0CFB0BF7D21B03FB0CF761EBA3
:1019600007010CFB0EF7B0EB074072EB17420CFBC4
:1019700008F734BFA2EB0742B2EB074261EB174115
:101980004FEA0C444FEA910706FB07FC4FEA1C4C58
:101990000CFB0BF7B0EBC74072EB573203FB0CF7B5
:1019A00034BFA2EBC742B2EBC74261EB57310CFB2D
:1019B0000EF7B0EBC70072EB57720CFB08F734BFA1
:1019C000A2EBC702B2EBC70261EB5771039F4FEA6C
:1019D000816141EA921104EBCC044FEAD1374FEA1E
:1019E000826206FB07FC42EA90124FEA80604FEAEF
:1019F0001C4C0CFB0BF7D21B03FB0CF761EB070134
:101A00000CFB0EF7B0EB074072EB17420CFB08F72C
:101A100034BFA2EB0742B2EB074261EB17414FEA3A
:101A20008C554FEA910704EB9C2406FB07FC4FEA18
:101A30001C4C0CFB0BF7B0EBC74072EB573203FBAF
:101A40000CF734BFA2EBC742B2EBC74261EB573190
:101A50000CFB0EF7B0EBC70072EB57720CFB08F7EC
:101A600034BFA2EBC702B2EBC70261EB577115EBB3
:101A70004C254FEA816141EA92114FEA82624FEAB6
:101A8000D13742EA901206FB07FC44F100044FEA0A
:101A900080604FEA1C4C0CFB0BF7D21B03FB0CF7CE
:101AA00061EB07010CFB0EF7B0EB074072EB17423E
:101AB0000CFB08F734BFA2EB0742B2EB074261EB25
:101AC000174115EB1C154FEA813141EA92414FEA6B
:101AD000823242EA90424FEA80304FEA0C7644F17B
:101AE000000448EA03434EEA0B484FF0000EB2EB05
:101AF000080C71EB030724BF624639464EEB0E0E0D
:101B00004FF0000B0018524149414BEB0B0BB2EB6D
:101B1000080C71EB03077BF1000B24BF62463946CA
:101B20004EEB0E0E4FF0000B0018524149414BEBAB
:101B30000B0BB2EB080C71EB03077BF1000B24BF1E
:101B4000624639464EEB0E0E51EA020718BF46F0C8
:101B5000010616EB0E7655F1000254F1000103D593
:101B6000BDE88901BDE80088BDE88901BDE80048FD
:101B7000B619524141EB0101A3F101037047808086
:101B80007F7E7D7C7B7A79787776767574737271D7
:101B900071706F6E6E6D6C6C6B6A6A69686867668F
:101BA00066656464636362616160605F5F5E5E5D21
:101BB0005D5C5C5B5B5A5A59595858575756565595
:101BC00055555454535352525251515050504F4FF7
:101BD0004F4E4E4D4D4D4C4C4C4B4B4B4A4A4A4947
:101BE000494948484847474747464646454545448A
:101BF0004444444343434342424242414141000042
:101C000046EA0646A3F570534FEA164646EA4256A0
:101C10004FEAD22242EA415210B54FEAD121A3F154
:101C2000010300F017F820F0004000F1010C00F073
:101C3000004701EB00501146BCF5006F40EA070079
:101C400000D210BD02484FF0000140EA070010BD6D
:101C50000000F07F002B26D4770021D01CB54FEA7E
:101C6000370703B44FF010004FF010014FF00000A1
:101C70000FBCBDE810400BF1010BBBF1010F08BF19
:101C80005FEA170722BF12F1010211F101014FF0C3
:101C9000004143F1000300F0004043EA00007047B8
:101CA000F9D35708DAE746EA064613F1400F4FEA40
:101CB00016461FDD13F1200FDFBF16430A46002131
:101CC00020335B42C8D0C3F1200746EA064602FA39
:101CD00007F74FEA164646EA0706C3F1200722FA3D
:101CE00003F201FA07F721FA03F14FF0000342EA89
:101CF0000702B1E746EA020646EA06464FEA1646FA
:101D000046EA0106BCBF46EA0646360C4FF0000321
:101D10004FF000024FF000019EE72DE9C0489346C6
:101D200030B491E8380007C831EA400C48BF34EAC3
:101D3000430C03D5FFF7C7FDFFF78CFFF0BCBDE8F0
:101D400000882DE9C048934630B491E8380007C8B0
:101D500031EA400C48BF34EA430C03D5FFF7B3FD2A
:101D6000FFF74EFFF0BCBDE800882DE9C048934660
:101D700030B491E8380007C810F0804F08BF13F066
:101D8000804F03D100F019F8FFF764FFF0BCBDE805
:101D900000882DE9C048934630B491E8380007C860
:101DA00010F0804F08BF13F0804F03D100F005F80A
:101DB000FFF726FFF0BCBDE8008820F07F4780EAEF
:101DC000030023F07F4C07EB0C03A3F57C5300F0DA
:101DD0000040A3F1FE0392F0000F00F0B38095F0F5
:101DE000000F00F077802DE901494FEA11404FEADA
:101DF000144621EA004800FB06FC24EA064708FBDB
:101E000006F607FB08F800FB07F718EB06484CEB53
:101E1000164C4FEA124B18EB07484FEA15464CEBAD
:101E2000174022EA0B4E0BFB06FC25EA06470EFB89
:101E300006F607FB0EFE0BFB07F71EEB064E4CEB00
:101E4000164C4FF000061EEB074E4CEB174B18EBF1
:101E50000B0840F1000018EB0E0B58EB000840F1A6
:101E600000008F1A4FF000013CBFC943661B14BF2E
:101E7000B5EB040C00213CBFC943F61B4FEA1744E5
:101E80004EEA8E0E27EA04454FEA1C4704FB076220
:101E90002CEA074C05FB07F70CFB05F604FB0CFCD2
:101EA00016EB074642EB174216EB0C4642EB1C4280
:101EB0001BEB060658EB0202414146EA9E0601D59D
:101EC000BDE80189B619524141EB0101A3F10103BB
:101ED000BDE801894FEA14454FEA114724EA054657
:101EE00021EA074C05FB07F406FB07F70CFB06F19C
:101EF00005FB0CFC11EB074144EB17444FEA12477A
:101F000011EB0C4144EB1C4422EA074C05FB07F2A1
:101F100006FB07F70CFB06F605FB0CFC16EB074669
:101F200042EB174216EB0C4642EB1C456A1854F183
:101F3000000148BF7047B619524141EB0101A3F1BE
:101F40000103704795F0000F37D04FEA11424FEA76
:101F5000144721EA024624EA074C02FB07F106FB7C
:101F600007F70CFB06F402FB0CFC14EB074441EBF7
:101F700017414FEA154714EB0C4441EB1C4125EA8D
:101F8000074C02FB07F506FB07F70CFB06F602FB06
:101F90000CFC16EB074645EB174516EB0C4645EBDC
:101FA0001C42121951F1000148BF7047B619524145
:101FB00041EB0101A3F1010370474FEA14454FEAD9
:101FC000114724EA054621EA074C05FB07F106FB09
:101FD00007F70CFB06F24FF0000605FB0CFC12EBBA
:101FE000074241EB174112EB0C4251EB1C4148BF39
:101FF0007047921841EB0101A3F101037047000003
:1020000010B52DED048B82B0FA48006804280AD17F
:102010000422F9A1FA48FEF779FA20B9F9A1FB48A0
:1020200003F048FEACE2F34800680A280DD10A220A
:10203000F7A1F348FEF76AFA38B9022002F0CAFDA8
:10204000F0A1F24803F036FE9AE2EA4800680D2853
:102050000DD10D22F1A1EA48FEF758FA38B9002057
:10206000F2490870E7A1E94803F024FE88E2E1485C
:1020700000680E280DD10E22EDA1E148FEF746FAC8
:1020800038B90120E9490870DEA1E04803F012FEEA
:1020900076E2D848006809280ED10922E8A1D8487C
:1020A000FEF734FA40B96FF0020002F093FDD5A1BB
:1020B000D64803F0FFFD63E2CE4800680D282ED11C
:1020C0000922E2A1CE48FEF721FA40BB0020E249F6
:1020D0000860CB48407A39280DDCC948407A30285E
:1020E00009DBC748407A303800EB8000096801EB13
:1020F0004000D9490860C248807A39280BDCC048C2
:10210000807A302807DBBE48807A3038D2490968A7
:102110000844D1490860012002F05CFD30E2B54876
:10212000006808280ED10822CCA1B548FEF7EEF9C8
:1021300040B96FF0010002F04DFDB2A1B34803F0C9
:10214000B9FD1DE2AB4800680A280CD10A22C6A1DD
:10215000AB48FEF7DBF930B9AAA1AC4803F0AAFD01
:1021600003F05EF90CE2A34800680B280DD10B22A6
:10217000C0A1A348FEF7CAF938B9A2A1A34803F049
:1021800099FD042002F026FDFAE19A4800680E2825
:102190003AD10622BAA19A48FEF7B8F998BB99A19C
:1021A0009A4803F087FD9648007A8DF80400944819
:1021B000407A8DF805009248807A8DF806009048A4
:1021C000C07A8DF807008E488079612812D078286F
:1021D00002D0792815D106E0DDED010AB0EE600AE3
:1021E00002F030FD0DE0DDED010AB0EE600A02F014
:1021F0002FFD06E0DDED010AB0EE600A02F0B4FC4E
:1022000000BF00BFBCE1FFE77A4800680A2829DB6D
:102210000A229DA17A48FEF779F918BB79A17B487B
:1022200003F048FD76480A3004F06EFFB0EE408AB5
:10223000F0EE608A51EC180B06F060FF95490968D2
:10224000086095A1714803F035FD00F0C3FE044617
:10225000912100F02BFE93A16C4803F02BFD03F0BD
:10226000DFF88DE1634800680A283EDB092292A16D
:102270006348FEF74BF9B8BB61480A3004F044FFED
:10228000B0EE409AF0EE609A51EC190B06F036FF72
:1022900008EE100A5A48407A782804D0792807D0E6
:1022A0007A280FD109E08748006880ED008A09E0AC
:1022B0008448006880ED018A04E08248006880ED6F
:1022C000028A00BF00BF74A1504803F0F3FC00F085
:1022D00081FE0446912100F0E9FD72A14B4803F014
:1022E000E9FC03F09DF84BE1FFE7424800680B284A
:1022F00030D1082274A14248FEF708F950BB41A131
:10230000424803F0D7FC3E48007A312804D101202E
:102310007049096808700CE03948007A302804D107
:1023200000206C490968087003E06BA1374803F08E
:10233000C1FC59A1354803F0BDFC00F04BFE04463A
:10234000912100F0B3FD57A1304803F0B3FC03F036
:1023500067F815E1274800680C282ED1092264A1EE
:102360002748FEF7D3F840BB26A1284803F0A2FC7B
:102370002348407A312804D1012060490968087057
:102380000CE01F48407A302804D100205B490968DE
:10239000087003E05AA11D4803F08CFC3EA11B48C5
:1023A00003F088FC00F016FE0446912100F07EFD4B
:1023B0003CA1164803F07EFCE2E00E4800681128BC
:1023C00016D10A2255A10E48FEF7A0F880B90DA13A
:1023D0000E4803F06FFC0A24BAE00948005D31287A
:1023E00007D10121A4F10A004F4A12681154AEE04E
:1023F000C2E09BE04814002041540D0A0000000098
:10240000F81E00204F4B0D0A000000000010014094
:1024100041542B626567696E0D0A000041542B73AD
:10242000746F7053656E640D0A0000000C13002079
:1024300041542B626567696E53656E640D0A000036
:1024400041542B73746F700D0A00000041542B72BD
:10245000657365743D0D0A004C14002041542B73C4
:1024600065740D0A0000000041542B7072696E748F
:102470000D0A000041542B7374617469630D0A00E6
:1024800041542B736574000041542B7365746D695E
:102490006E3D00007014002077726974696E670DDC
:1024A0000A00000077726974652066696E69736856
:1024B00065640D0A0000000041542B736574766159
:1024C000720000007414002041542B6D6F64653D50
:1024D00000000000641400206D6F646520636F6D60
:1024E0006D616E64206572726F720D0A00000000EB
:1024F00041542B7363616C653D0000006C14002037
:102500007363616C654D6F646520636F6D6D616EA3
:1025100064206572726F720D0A00000041542B73C3
:10252000656C6563743D0000681400201748005D09
:10253000302806D10021A4F10A00154A126811546E
:1025400005E0A4F10A0213A1174803F0B3FB641CD1
:102550000F2CFFF642AFAFF2C001134803F0AAFB05
:1025600000F038FD0446912100F0A0FCAFF2CC0150
:102570000D4803F09FFB03E00CA10B4803F09AFB0E
:1025800005F04CFC02B0BDEC048B10BDF81E002021
:102590006814002073656C6563742025642065727F
:1025A000726F720D0A000000001001406572726FB8
:1025B000720D0A0070B52DED108B8CB0B0EE40AAF4
:1025C000F0EE608AB0EE418AB0EE619A04460D46A4
:1025D0002AEE0A0A08EEA80A10EE101A084607F0BA
:1025E000C9FB41EC1C0BB0EE4C0AF0EE6C0A04F097
:1025F00033FFB0EE40BAF0EE60BA51EC1B0B06F0C0
:102600007DFD06461AEE100A07F0B4FB41EC1C0BE8
:1026100018EE900A07F0AEFB41EC1D0BB0EE4C1A21
:10262000F0EE6C1AB0EE4D0AF0EE6D0A04F074FC98
:10263000B0EE40BAF0EE60BA51EC1B0B06F05EFD56
:1026400009EE900ADFEDAC0A88EE200ADFEDAB0A56
:1026500020EE200AB0EE408ADFEDA70A89EE200ABC
:10266000DFEDA60A20EE200AB0EE409A19EE900A9D
:1026700007F080FB41EC1D0BB0EE4D0AF0EE6D0A49
:1026800004F05EFDB0EE40BAF0EE60BA304607F0FE
:1026900071FB41EC1C0B53EC1B2B07F075F839EE6A
:1026A000290ACDE9060110EE101A084607F062FB70
:1026B00041EC1D0BB0EE4D0AF0EE6D0A04F040FD4A
:1026C000B0EE40BAF0EE60BA304607F053FB41EC92
:1026D0001C0B53EC1B2B07F057F8CDE9020118EE49
:1026E000100A07F047FB41EC1D0BB0EE4D0AF0EE6F
:1026F0006D0A04F04DFEB0EE40BAF0EE60BA95ED12
:10270000000A10EE101A084607F034FB41EC1C0BCF
:1027100053EC1B2B07F038F841EC1E0B18EE100A97
:1027200007F028FB41EC1D0BB0EE4D0AF0EE6D0AF0
:1027300004F006FDB0EE40BAF0EE60BA94ED000A87
:1027400010EE101A084607F015FB41EC1C0B53EC79
:102750001B2B07F019F841EC1F0B53EC1E2B06F056
:10276000FFFCCDE900019DED020B53EC102B9DED1C
:10277000000B51EC100B06F0F3FCCDE904019DEDCC
:10278000060B53EC102B9DED040B51EC100B07F0D6
:1027900007FACDE908019DED080B51EC100B06F08E
:1027A000ADFC0AEE900A19EE900A07F0E3FA41EC4C
:1027B0001D0BB0EE4D0AF0EE6D0A04F0E9FDB0EE2F
:1027C00040BAF0EE60BA304607F0D4FA41EC1C0B88
:1027D00053EC1B2B06F0D8FF39EE290ACDE9060190
:1027E00010EE101A084607F0C5FA41EC1D0BB0EECA
:1027F0004D0AF0EE6D0A04F0CBFDB0EE40BAF0EEFB
:1028000060BA304607F0B6FA41EC1C0B53EC1B2BB8
:1028100006F0BAFFCDE9020118EE100A07F0AAFA95
:1028200041EC1D0BB0EE4D0AF0EE6D0A04F088FC91
:10283000B0EE40BAF0EE60BA95ED000A10EE101A54
:10284000084607F097FA41EC1C0B53EC1B2B06F0E3
:102850009BFF41EC1E0B18EE100A07F08BFA41ECBF
:102860001D0BB0EE4D0AF0EE6D0A04F091FDB0EED6
:1028700040BAF0EE60BA94ED000AB1EE400A10EEF4
:10288000101A084607F076FA41EC1C0B53EC1B2B90
:1028900006F07AFF41EC1F0B53EC1E2B06F060FC98
:1028A000CDE900019DED020B53EC102B9DED000BCB
:1028B00051EC100B06F054FCCDE904019DED060B24
:1028C00053EC102B9DED040B51EC100B07F068F945
:1028D000CDE908019DED080B51EC100B06F00EFC44
:1028E0000A90C4ED00AA9DED0A0A85ED000A0CB01D
:1028F000BDEC108B70BD000000003443DB0F49407D
:1029000000BFFEE71CB50121084601F0E3FC0121F0
:10291000022001F0DFFC1820009001208DF8040057
:1029200000208DF8060001208DF8070003208DF8A7
:1029300005006946104800F0D7FA4FF414400090A3
:1029400069460E4800F0D0FA10210B4800F039FB20
:102950000821094800F035FB4FF48051074800F08A
:1029600030FB4FF40041054800F02BFB4FF4806131
:10297000024800F026FB1CBD00000240000402409B
:10298000704700B5034604E04FF47A7000F004F895
:102990005B1E002BF8D100BDA82141434FF0E0227F
:1029A00051610521116100BF4FF0E021096901F477
:1029B00080310029F8D004214FF0E02211617047E6
:1029C00010B52DED040B2DED048B88B0DDED0D0A57
:1029D000B0EE600AFDF77AFCF0EE408ADDED0E0AFB
:1029E000B0EE600AFDF772FCB7EE008A08EE808A4E
:1029F000DDED0C0AB0EE600AFDF768FCF0EE408AEF
:102A0000DDED0E0AB0EE600AFDF760FC08EE808A8C
:102A1000DDED0C0AB0EE600AFDF758FCF0EE408ADE
:102A2000DDED0D0AB0EE600AFDF750FC08EE808A7D
:102A3000DDED0C0AB0EE600AFDF7B4FCF0EE408A62
:102A4000DDED0D0AB0EE600AFDF7ACFC68EE808AA1
:102A5000DDED0E0AB0EE600AFDF7A4FC08EE808AF8
:102A6000B1EEC80AF6EE000A20EE200A10EE104A77
:102A7000204607F07FF9CDE900019DED001BB0EE87
:102A8000410AF0EE610A9FED851B53EC112B51ECCE
:102A9000100B06F079FD10D19FED820B8DED000B30
:102AA0009FED7E0B8DED020B9FED7C0B8DED040BEE
:102AB0009FED7A0B8DED060BE4E0DDED0C0AB0EE38
:102AC000600AFDF76FFCB0EE409ADDED0D0AB0EE46
:102AD000600AFDF767FCF0EE409ADDED0E0AB0EEFD
:102AE000600AFDF75FFC09EE809ADDED0C0AB0EE9E
:102AF000600AFDF757FCF0EE409ADDED0D0AB0EEEE
:102B0000600AFDF7E3FB69EE809ADDED0E0AB0EE98
:102B1000600AFDF7DBFB09EE809AB1EE000AC9EE10
:102B2000000A10EE904A204607F024F941EC180BF9
:102B30009DED001BB0EE410AF0EE610A53EC102B44
:102B400006F0CAFBCDE90201DDED0D0AB0EE600A28
:102B5000FDF728FCB0EE409ADDED0E0AB0EE600AFB
:102B6000FDF7B4FB29EE009ADDED0D0AB0EE600A28
:102B7000FDF7ACFBF0EE409ADDED0E0AB0EE600A18
:102B8000FDF710FC69EE809ADDED0C0AB0EE600AEC
:102B9000FDF708FC09EEC09ADDED0D0AB0EE600A03
:102BA000FDF700FCF0EE409ADDED0C0AB0EE600A95
:102BB000FDF78CFB09EE809AB1EE000AC9EE000A1F
:102BC00010EE904A204607F0D5F841EC180B9DED29
:102BD000001BB0EE410AF0EE610A53EC102B06F038
:102BE0007BFBCDE90401DDED0D0AB0EE600AFDF7D7
:102BF0006DFBB1EE409ADDED0E0AB0EE600AFDF716
:102C0000D1FB29EE009ADDED0D0AB0EE600AFDF76A
:102C1000C9FBF0EE409ADDED0E0AB0EE600AFDF75A
:102C200055FB69EE809ADDED0C0AB0EE600AFDF707
:102C3000B9FB09EE809ADDED0E0AB0EE600AFDF7F1
:102C4000B1FBF0EE409ADDED0C0AB0EE600AFDF744
:102C50003DFB09EEC09AB1EE000AC9EE000A10EE83
:102C6000904A204607F086F841EC180B9DED001BBA
:102C7000B0EE410AF0EE610A53EC102B06F02CFB8B
:102C8000CDE906019DED000B9DED021B9DED042B92
:102C90009DED063B08B0BDEC048B1FBD000000009D
:102CA00000000000000000000000F03F0149086043
:102CB000704700000C3C024070B504460A460026EE
:102CC000082502B909E0012A01D1160205E0022A0D
:102CD00001D1160201E04FF4407600F097F8054666
:102CE000082D28D11548006820F440701349086069
:102CF00008460068304308600846006820F0F80085
:102D000008600846006844F0020108430B49086067
:102D10000846006840F48030086000F077F8054607
:102D20000648006820F00200044908600846006870
:102D300020F0F8000860284670BD0000103C0240FA
:102D400008201049096801F48031B1F5803F01D1B4
:102D5000012015E00B49096801F0100109B10520B7
:102D60000EE00849096801F0EF0109B1062007E00B
:102D70000449096801F0020109B1072000E00820B8
:102D8000704700000C3C02400348006840F00040DF
:102D90000149086070470000103C024030B502460F
:102DA0000C46082500F032F80546082D17D10D48CD
:102DB000006820F440700B4908600846006808600D
:102DC0000846006840F001000860147000F01EF82A
:102DD00005460448006820F00100024908602846C2
:102DE00030BD0000103C02400548006800F0004083
:102DF00028B1044802490C3908600348086070474C
:102E0000103C024023016745AB89EFCD08B508208F
:102E10000090FFF795FF009002E0FFF791FF009010
:102E20009DF800000128F8D09DF8000008BD70470B
:102E300010B591210E4800F02DF80D480D4908609D
:102E400028300D49086028300C49086028300C49AA
:102E50000860401C0B490860401D0B490860801C3D
:102E60000A490860001D0A490860FFF7E0FF10BD2D
:102E7000541F0020581400205C140020601400200F
:102E800064140020681400206C14002070140020CA
:102E9000741400200246002003E0034BC35C13546B
:102EA000401C8842F9D370470000040870B50546FD
:102EB0000E46FFF799FFF320FFF7F8FE02213020BE
:102EC000FFF7FAFEFFF7A2FF002405E0295D054A9F
:102ED000A018FFF763FF641CB442F7D3FFF754FF59
:102EE00070BD000000000408F0B50A460021002370
:102EF000002400BF3DE0012505FA01F3156805EA4D
:102F000003049C4234D105684F000326BE40B543FC
:102F1000056015794E00B5400668354305601579A2
:102F2000012D02D01579022D16D185684F00032698
:102F3000BE40B543856055794E00B540866835433F
:102F40008560456801268E40B543456045689679A1
:102F50008E40B6B235434560C5684F000326BE407B
:102F6000B543C560D5794E00B540C6683543C560E8
:102F7000491C1029BFD3F0BDF0B5002300244D0734
:102F8000ED0E02FA05F3CE1000F1200555F826509B
:102F90004E07F70E0F26BE40B543CF1000F12006B6
:102FA00046F82750CE1000F1200555F8265045EA86
:102FB0000304CE1000F1200545F82640F0BD418302
:102FC0007047018370470000014800787047000097
:102FD0005014002000487047541F002038B500BF2F
:102FE000EFF3098028B100BFEFF3098017490860AB
:102FF00004E000BFEFF3088014490860134800683C
:1030000010301249086012A1144802F053FE00204B
:10301000009013A213A1114802F04CFE03240FE00C
:103020000A490968214401F11800B0EE000A694616
:1030300000F01AF86A460BA1084802F03BFE641E35
:10304000002CEDDA02F066FD00BFFEE71C00002058
:10305000486172644661756C7400000000100140A4
:10306000307800002573000070B52DED028B86B01E
:1030700005460E46B0EE408A142239A101A8FDF79C
:1030800090FA3446002059E0B0EE000AC8EE000A7B
:10309000B6EE000A30EE800ABDEEC00AB8EEC00AF5
:1030A000F0EE000A20EE200AB4EEC80AF1EE10FAA3
:1030B00001DD002814DCF0EE000A88EE200AF6EEAE
:1030C000000A30EE200ABDEEC00AB8EEC00AF0EEEB
:1030D000000A20EE200AB4EE480AF1EE10FA15D1EB
:1030E000F0EE000A88EE200AF6EE000A30EE200A22
:1030F000BDEEC00A10EE101A2944091A11F8011C7D
:1031000001AA02EB2111097804F8011BB0EE000AB4
:10311000C8EE000AB6EE000A30EE800ABDEEC00A24
:1031200010EE101A2944091A11F8011C01F00F01C0
:1031300001AA515C04F8011B411CC8B2B0EE000AA0
:10314000C8EE000AB6EE000A30EE800ABDEEC00AF4
:1031500010EE101A814297DC06B0BDEC028B70BDF8
:1031600030313233343536373839414243444546BD
:103170000000000030B58BB0002420222DA103A850
:10318000FDF70FFA33480068007810B1012808D124
:1031900003E000208DF8110003E008208DF81100F5
:1031A00000BF00BF6420FFF7ECFB80206B231022E0
:1031B00029490090294801F08BFC0120FFF7E1FB31
:1031C0000520FFF7DEFB00242FE0002524A0006887
:1031D000029000BF681CC5B2012000EB440003A9A7
:1031E000085C009003A810F8143010221A491B48FC
:1031F00001F06EFC2846FFF7C4FB052D00DD01251C
:1032000003A810F8143010221349144801F0C2FB2F
:103210008DF808009DF80800012101EB440103AA84
:10322000515C8842D6D1601CC4B20F2CCDDB0BB0F0
:1032300030BD00006B006C001B081A0019071C0051
:103240001D0668006A101E0023001F0037003800AA
:10325000690000006C1400200000024000300140B2
:10326000FFFF000010B52DED0C8BB0EE408AF0EEA4
:10327000608A8448006890ED000A10EE101A084633
:1032800006F078FD41EC1B0B9FED7F0BB0EE40AAE2
:10329000F0EE60AA7E4890ED000BB0EE409AF0EEA2
:1032A000609AC4227B49A1F10800FDF77AF953EC3A
:1032B000192B51EC180B06F073FC764A083A02F50C
:1032C000C47203C29FED700BB0EE40AAF0EE60AA8C
:1032D000002422E06F48083800EBC40090ED002B7A
:1032E000B0EE420AF0EE620A6A48083800EBC40009
:1032F00090ED002BB0EE421AF0EE621A53EC102B58
:1033000051EC110B06F040FA41EC1C0B53EC1A2B5C
:1033100005F026FF41EC1A0B641C322CDADB9FED22
:103320005E0B53EC102B51EC1A0B05F0D5FF41EC62
:103330001A0B5B480068401C594908600846006841
:1033400064280FD2574890ED000B53EC102B51EC32
:10335000180B05F005FF534A03C29FED4B0BBDEC64
:103360000C8B10BD4E48006864280DD19FED4E0BAC
:1033700053EC102B4B4890ED000B51EC100B05F06B
:10338000ABFF41EC190B02E0652045490860484855
:1033900090ED000B53EC102B464890ED000B51ECD8
:1033A000100B05F0DDFE444A03C253EC1B2B4248D0
:1033B00090ED000B51EC100B05F0D2FE41EC1C0B14
:1033C00053EC1C2B3C4890ED000B51EC100B05F01E
:1033D00083FF3A4A03C253EC192B51EC180B06F049
:1033E000DFFB41EC1D0B354890ED000B53EC102B2F
:1033F00051EC1D0B06F0C8F941EC1C0B53EC192BDA
:1034000005F0AEFE224A03C22C4890ED000B53ECAF
:10341000102B9FED2B0B51EC100B06F0C1FB41EC78
:103420001C0B254890ED000B53EC102B51EC1C0BA2
:1034300006F0AAF91F4A03C2204890ED000B53EC96
:10344000102B90ED000B51EC100B06F09DF941ECA8
:103450001C0B53EC1A2B06F097F9154A03C29FED8B
:103460001A0B53EC102B154890ED000B51EC100B80
:1034700006F088FA02D2064880ED008B044890EDF1
:10348000000B6CE774140020000000000000000036
:1034900048130020501A002000000000000049409E
:1034A00078130020701300200000000000C0584076
:1034B00068130020501300205813002060130020D0
:1034C000000000000000F03F000000000000E03FAE
:1034D00010B52DED0C8BB0EE408AF0EE608A84487A
:1034E000006890ED010A10EE101A084606F042FC42
:1034F00041EC1B0B9FED7F0BB0EE40AAF0EE60AAF3
:103500007E4890ED000BB0EE409AF0EE609AC42237
:103510007B49A1F10800FDF744F853EC192B51EC5D
:10352000180B06F03DFB764A083A02F5C47203C256
:103530009FED700BB0EE40AAF0EE60AA002422E0EE
:103540006F48083800EBC40090ED002BB0EE420A43
:10355000F0EE620A6A48083800EBC40090ED002BD8
:10356000B0EE421AF0EE621A53EC102B51EC110B34
:1035700006F00AF941EC1C0B53EC1A2B05F0F0FD98
:1035800041EC1A0B641C322CDADB9FED5E0B53EC22
:10359000102B51EC1A0B05F09FFE41EC1A0B5B4807
:1035A0000068401C594908600846006864280FD22A
:1035B000574890ED000B53EC102B51EC180B05F015
:1035C000CFFD534A03C29FED4B0BBDEC0C8B10BDDE
:1035D0004E48006864280DD19FED4E0B53EC102B24
:1035E0004B4890ED000B51EC100B05F075FE41ECD3
:1035F000190B02E0652045490860484890ED000B32
:1036000053EC102B464890ED000B51EC100B05F0DD
:10361000A7FD444A03C253EC1B2B424890ED000B1C
:1036200051EC100B05F09CFD41EC1C0B53EC1C2BDA
:103630003C4890ED000B51EC100B05F04DFE3A4A62
:1036400003C253EC192B51EC180B06F0A9FA41EC0C
:103650001D0B354890ED000B53EC102B51EC1D0B5E
:1036600006F092F841EC1C0B53EC192B05F078FD99
:10367000224A03C22C4890ED000B53EC102B9FED17
:103680002B0B51EC100B06F08BFA41EC1C0B254870
:1036900090ED000B53EC102B51EC1C0B06F074F862
:1036A0001F4A03C2204890ED000B53EC102B90ED05
:1036B000000B51EC100B06F067F841EC1C0B53ECBF
:1036C0001A2B06F061F8154A03C29FED1A0B53EC52
:1036D000102B154890ED000B51EC100B06F052F931
:1036E00002D2064880ED008B044890ED000B6CE799
:1036F000741400200000000000000000801300206F
:10370000E01B00200000000000004940B013002032
:10371000A81300200000000000C05840A0130020A3
:103720008813002090130020981300200000000050
:103730000000F03F000000000000E03F10B52DED5C
:103740000C8BB0EE408AF0EE608A8448006890ED01
:10375000020A10EE101A084606F00CFB41EC1B0B97
:103760009FED7F0BB0EE40AAF0EE60AA7E4890ED90
:10377000000BB0EE409AF0EE609AC4227B49A1F1B2
:103780000800FCF70EFF53EC192B51EC180B06F058
:1037900007FA764A083A02F5C47203C29FED700B2D
:1037A000B0EE40AAF0EE60AA002422E06F4808388C
:1037B00000EBC40090ED002BB0EE420AF0EE620A7E
:1037C0006A48083800EBC40090ED002BB0EE421AB6
:1037D000F0EE621A53EC102B51EC110B05F0D4FFF4
:1037E00041EC1C0B53EC1A2B05F0BAFC41EC1A0B04
:1037F000641C322CDADB9FED5E0B53EC102B51EC8A
:103800001A0B05F069FD41EC1A0B5B480068401C7F
:10381000594908600846006864280FD2574890ED5F
:10382000000B53EC102B51EC180B05F099FC534A8C
:1038300003C29FED4B0BBDEC0C8B10BD4E480068D6
:1038400064280DD19FED4E0B53EC102B4B4890ED9F
:10385000000B51EC100B05F03FFD41EC190B02E0A1
:10386000652045490860484890ED000B53EC102B4B
:10387000464890ED000B51EC100B05F071FC444AEA
:1038800003C253EC1B2B424890ED000B51EC100B84
:1038900005F066FC41EC1C0B53EC1C2B3C4890EDF6
:1038A000000B51EC100B05F017FD3A4A03C253EC24
:1038B000192B51EC180B06F073F941EC1D0B354830
:1038C00090ED000B53EC102B51EC1D0B05F05CFF41
:1038D00041EC1C0B53EC192B05F042FC224A03C2AD
:1038E0002C4890ED000B53EC102B9FED2B0B51EC63
:1038F000100B06F055F941EC1C0B254890ED000B20
:1039000053EC102B51EC1C0B05F03EFF1F4A03C279
:10391000204890ED000B53EC102B90ED000B51EC78
:10392000100B05F031FF41EC1C0B53EC1A2B05F08A
:103930002BFF154A03C29FED1A0B53EC102B1548B1
:1039400090ED000B51EC100B06F01CF802D206486B
:1039500080ED008B044890ED000B6CE774140020A0
:10396000000000000000000010130020C01800201C
:1039700000000000000049404013002038130020E0
:103980000000000000C05840301300201813002031
:103990002013002028130020000000000000F03F4A
:1039A000000000000000E03F00BFFEE700BFFEE7B0
:1039B00070B5002100230F22C4781CB3174C246873
:1039C00004F4E064C4F5E064C4F30721C1F1040425
:1039D000E3B20A4144789C40E1B284781440214328
:1039E0000C07210E0E4C05786155047804F01F0574
:1039F0000124AC4005786D11AD0005F1E025C5F856
:103A0000004109E0047804F01F050124AC40054D95
:103A10000678761145F8264070BD00000CED00E0F8
:103A200000E400E080E100E002490143024A116045
:103A3000704700000000FA050CED00E010B52DED18
:103A40000E0B2DED0C8BA8B09DED3C1BB0EE410A8A
:103A5000F0EE610A9FEDFE1B53EC112B51EC100BA5
:103A600005F03AFC41EC180B9FEDFB0B53EC102BCF
:103A700005F08AFECDE93C019DED3E1BB0EE410A0A
:103A8000F0EE610A9FEDF21B53EC112B51EC100B81
:103A900005F022FC41EC180B9FEDEF0B53EC102BC3
:103AA00005F072FECDE93E019DED401BB0EE410AEE
:103AB000F0EE610A9FEDE61B53EC112B51EC100B5D
:103AC00005F00AFC41EC180B9FEDE30B53EC102BB7
:103AD00005F05AFE41914090202120A8FCF793FD6B
:103AE000202118A8FCF78FFD202110A8FCF78BFDE2
:103AF000202108A8FCF787FD20216846FCF783FDFC
:103B0000012494E19DED340B8DED000B9DED360B02
:103B10008DED020B9DED380B8DED040B9DED3A0BF9
:103B20008DED060B012C06D0022C16D0032C7DD077
:103B3000042C11D117E19DED406B9DED3E5B9DED99
:103B40003C4B20A89DED063B9DED042B9DED021BFB
:103B50009DED000B04F072F967E19DED201BB0EEC6
:103B6000410AF0EE610A9FEDBE1B53EC112B51ECA4
:103B7000100B05F0B1FB41EC180B9DED001BB0EEF6
:103B8000410AF0EE610A53EC102B05F0E9FACDE999
:103B900000019DED221BB0EE410AF0EE610A9FED9F
:103BA000B01B53EC112B51EC100B05F095FB41ECC5
:103BB000180B9DED021BB0EE410AF0EE610A53ECCA
:103BC000102B05F0CDFACDE902019DED241BB0EEDE
:103BD000410AF0EE610A9FEDA21B53EC112B51EC50
:103BE000100B05F079FB41EC180B9DED041BB0EEBA
:103BF000410AF0EE610A53EC102B05F0B1FACDE961
:103C000004019DED261BB0EE410AF0EE610A9FED26
:103C1000941B53EC112B51EC100B05F05DFB41ECA8
:103C2000180B9DED061BB0EE410A00E019E0F0EE26
:103C3000610A53EC102B05F093FACDE906019DEDD6
:103C4000406B9DED3E5B9DED3C4B18A89DED063B0A
:103C50009DED042B9DED021B9DED000B04F0EEF895
:103C6000E3E09DED181BB0EE410AF0EE610A9FED16
:103C70007C1B53EC112B51EC100B05F02DFB41EC90
:103C8000180B9DED001BB0EE410AF0EE610A53ECFB
:103C9000102B05F065FACDE900019DED1A1BB0EE81
:103CA000410AF0EE610A9FED6E1B53EC112B51ECB3
:103CB000100B05F011FB41EC180B9DED021BB0EE53
:103CC000410AF0EE610A53EC102B05F049FACDE9F8
:103CD00002019DED1C1BB0EE410AF0EE610A9FED62
:103CE000601B53EC112B51EC100B05F0F5FA41EC75
:103CF000180B9DED041BB0EE410AF0EE610A53EC87
:103D0000102B05F02DFACDE904019DED1E1BB0EE40
:103D1000410AF0EE610A9FED521B53EC112B51EC5E
:103D2000100B05F0D9FA41EC180B9DED061BB0EE17
:103D3000410AF0EE610A53EC102B05F011FACDE9BF
:103D400006019DED406B9DED3E5B9DED3C4B10A84B
:103D50009DED063B9DED042B9DED021B9DED000BA3
:103D600004F06CF861E09DED102BB0EE420AF0EE2D
:103D7000620A9DED002BB0EE421AF0EE621A53EC8F
:103D8000102B51EC110B05F0EBF9CDE900019DED85
:103D9000122BB0EE420AF0EE620A9DED022BB0EE5D
:103DA000421AF0EE621A53EC102B51EC110B05F095
:103DB000D7F9CDE902019DED142BB0EE420AF0EEE9
:103DC000620A9DED042BB0EE421AF0EE621A53EC3B
:103DD000102B51EC110B05F0C3F9CDE904019DED59
:103DE000162BB0EE420AF0EE620A9DED062BB0EE05
:103DF000421AF0EE621A53EC102B51EC110B05F045
:103E0000AFF9CDE906019DED406B9DED3E5B9DED6B
:103E10003C4B08A89DED063B9DED042B9DED021B40
:103E20009DED000B04F00AF800BF00BF641C052CD8
:103E3000FFF668AE9DED101BB0EE410AF0EE610A90
:103E400053EC102B9FED061B51EC110B0CE0000006
:103E5000000000000080664000000060FB21094077
:103E6000000000000000004005F08EFC41EC1B0B40
:103E70009DED181BB0EE410AF0EE610A53EC102BD9
:103E80001FED091B51EC110B05F07EFC41EC1D0BE5
:103E90009DED201BB0EE410AF0EE610A53EC102BB1
:103EA00005F05EF941EC1C0B53EC1B2B05F058F9A7
:103EB00041EC1A0B9DED081BB0EE410AF0EE610AD1
:103EC00053EC102B05F04CF941EC190B9FED8B0BCB
:103ED00053EC102B05F058FC41EC180B9DED341BF6
:103EE000B0EE410AF0EE610A53EC102B05F038F900
:103EF000CDE934019DED121BB0EE410AF0EE610AEE
:103F000053EC102B1FED2A1B51EC110B05F03CFC60
:103F100041EC1B0B9DED1A1BB0EE410AF0EE610A5D
:103F200053EC102B1FED321B51EC110B05F02CFC48
:103F300041EC1D0B9DED221BB0EE410AF0EE610A33
:103F400053EC102B05F00CF941EC1C0B53EC1B2B24
:103F500005F006F941EC1A0B9DED0A1BB0EE410A83
:103F6000F0EE610A53EC102B05F0FAF841EC190B56
:103F70009FED620B53EC102B05F006FC41EC180B87
:103F80009DED361BB0EE410AF0EE610A53EC102BAA
:103F900005F0E6F8CDE936019DED141BB0EE410ABF
:103FA000F0EE610A53EC102B1FED531B51EC110B7B
:103FB00005F0EAFB41EC1B0B9DED1C1BB0EE410A2A
:103FC000F0EE610A53EC102B1FED5B1B51EC110B53
:103FD00005F0DAFB41EC1D0B9DED241BB0EE410A10
:103FE000F0EE610A53EC102B05F0BAF841EC1C0B13
:103FF00053EC1B2B05F0B4F841EC1A0B9DED0C1B98
:10400000B0EE410AF0EE610A53EC102B05F0A8F86F
:1040100041EC190B9FED390B53EC102B05F0B4FB61
:1040200041EC180B9DED381BB0EE410AF0EE610A31
:1040300053EC102B05F094F8CDE938019DED161BDB
:10404000B0EE410AF0EE610A53EC102B1FED7C1B21
:1040500051EC110B05F098FB41EC1B0B9DED1E1B69
:10406000B0EE410AF0EE610A53EC102B1FED841BF9
:1040700051EC110B05F088FB41EC1D0B9DED261B4F
:10408000B0EE410AF0EE610A53EC102B05F068F82F
:1040900041EC1C0B53EC1B2B05F062F841EC1A0BA6
:1040A0009DED0E1BB0EE410AF0EE610A53EC102BB1
:1040B00005F056F841EC190B9FED100B53EC102B4B
:1040C00005F062FB41EC180B9DED3A1BB0EE410A86
:1040D000F0EE610A53EC102B05F042F8CDE93A01FD
:1040E0009DED340B9DED361B9DED382B9DED3A3B40
:1040F00028B0BDEC0C8B0EB010BD000057D4E653B9
:104100005555C53F10B52DED080B2DED0C8B84B02A
:104110009DED101BB0EE410AF0EE610A51EC100B60
:1041200004F0ECFF08EE900A9DED121BB0EE410A80
:10413000F0EE610A51EC100B04F0E0FF08EE100AFB
:104140009DED141BB0EE410AF0EE610A51EC100B2C
:1041500004F0D4FF09EE100A9DED161BB0EE410AE3
:10416000F0EE610A51EC100B04F0C8FF09EE900A62
:1041700028EEA80A08EE080A09EE090A09EEA90ABB
:1041800010EE101A084605F0F5FD41EC1C0BB0EEE0
:104190004C0AF0EE6C0A03F05FF9B0EE40BAF0EEB4
:1041A00060BA51EC1B0B04F0A9FF0AEE100A88EE6E
:1041B0008A0AF0EE408A88EE0A0AB0EE408A89EE5A
:1041C0000A0AB0EE409A89EE8A0AF0EE409A69EE49
:1041D000290A48EE880AB0EE001A60EE810AB0EEB5
:1041E000600A04F0E7FC8DED010A29EEA90A09EE48
:1041F000490A08EE480A08EEA80A10EE101A084606
:1042000005F0B8FD41EC1C0BB8EE000A28EE000AE0
:1042100020EE290AF0EE000A68EEA00A00EE890AF4
:1042200010EE101A084605F0A5FD41EC1D0BB0EE8E
:104230004C1AF0EE6C1AB0EE4D0AF0EE6D0A02F078
:104240006BFEB0EE40BAF0EE60BA51EC1B0B04F01E
:1042500055FF029029EE090A09EEE90A08EEA80ABC
:1042600008EE480A10EE101A084605F083FD41ECEE
:104270001C0BB0EE000A28EE000A20EE090AF0EE50
:10428000000A68EEA00A00EEE90A10EE101A0846CD
:1042900005F070FD41EC1D0BB0EE4C1AF0EE6C1AFF
:1042A000B0EE4D0AF0EE6D0A02F036FEB0EE40BA06
:1042B000F0EE60BA51EC1B0B04F020FF03909DED73
:1042C000010ADDED020A9DED031A04B0BDEC0C8B72
:1042D00008B010BD29B1064A12680243044B1A60A7
:1042E00004E0034A12688243014B1A6070470000E1
:1042F0003038024029B1064A12680243044B1A6062
:1043000004E0034A12688243014B1A6070470000C0
:104310004038024029B1064A12680243044B1A6031
:1043200004E0034A12688243014B1A6070470000A0
:104330002038024029B1064A12680243044B1A6031
:1043400004E0034A12688243014B1A607047000080
:104350004438024029B1064A12680243044B1A60ED
:1043600004E0034A12688243014B1A607047000060
:1043700024380240F0B50021002200240225002646
:104380000223324F3F6807F00C0121B1042905D008
:10439000082937D105E02E4F076036E02D4F076022
:1043A00033E02A4F3F1F3F68C7F38056274F3F1F18
:1043B0003F6807F03F036EB1264FB7FBF3F7DFF816
:1043C0008CC0ACF1040CDCF800C0CCF3881C07FBFB
:1043D0000CF40CE01E4FB7FBF3F7DFF870C0ACF144
:1043E000040CDCF800C0CCF3881C07FB0CF4174F5E
:1043F0003F1F3F68C7F301477F1C7D00B4FBF5F703
:10440000076002E0124F076000BF00BF0F4F3F6818
:1044100007F0F0010909104F7A5C0768D740476040
:104420000A4F3F6807F4E051890A0B4F7A5C4768EE
:10443000D7408760054F3F6807F46041490B064F3E
:104440007A5C4768D740C760F0BD0000083802407A
:104450000024F40000127A007814002010B52DED2D
:10446000028B86B018216846FCF7CDF8904890ED95
:10447000000ADFED900A80EE201A11EE104A204665
:1044800005F078FC41EC180B8B4890ED001BB0EE6A
:10449000410AF0EE610A53EC102B51EC180B05F0B9
:1044A00073F9CDE90001824890ED000ADFED810A41
:1044B00080EE201A11EE104A204605F05BFC41EC1C
:1044C000180B7D4890ED021BB0EE410AF0EE610A38
:1044D00053EC102B51EC180B05F056F9CDE9020105
:1044E000734890ED000ADFED730A80EE201A11EE9A
:1044F000104A204605F03EFC41EC180B6E4890ED4A
:10450000041BB0EE410AF0EE610A53EC102B51ECA3
:10451000180B05F039F9CDE90401684890ED000A5F
:1045200010EE101A084605F025FC41EC180B9DED25
:10453000001BB0EE410AF0EE610A53EC102B05F0BF
:104540002FFB5F4A03C25D4890ED010A10EE101A7E
:10455000084605F00FFC41EC180B9DED021BB0EE78
:10456000410AF0EE610A53EC102B05F019FB544A96
:10457000C2E90201514890ED020A10EE101A0846F5
:1045800005F0F8FB41EC180B9DED041BB0EE410A61
:10459000F0EE610A53EC102B05F002FB484AC2E929
:1045A0000401104690ED001BB0EE410AF0EE610AE6
:1045B000FEF758FE424880ED000B90ED021BB0EE76
:1045C000410AF0EE610AFEF783FF3D4880ED020BE1
:1045D00090ED041BB0EE410AF0EE610AFFF7AEF871
:1045E000374880ED040B37480068401C35490860A7
:1045F0000846006840F6BA31884256D13148006812
:10460000401E30490860304890ED000A10EE101A44
:10461000084605F0AFFB41EC180B294890ED001B54
:10462000B0EE410AF0EE610A53EC102B51EC180B7E
:1046300005F0DEF9224A03C2234890ED010A10EE8C
:10464000101A084605F096FB41EC180B1C4890ED3B
:10465000021BB0EE410AF0EE610A53EC102B51EC54
:10466000180B05F0C5F9164AC2E90201164890ED8B
:10467000020A10EE101A084605F07CFB41EC180BFC
:104680000F4890ED041BB0EE410AF0EE610A53ECC6
:10469000102B51EC180B05F0ABF9094AC2E90401E3
:1046A000012006B0BDEC028B10BD0020F9E7000030
:1046B0000C0000200000C842781800208814002058
:1046C00048180020041300206018002000B587B0AF
:1046D00001210803FFF72EFE01210846FFF7FAFD2E
:1046E000052211462348FEF747FC052206212148F2
:1046F000FEF742FC052207211E48FEF73DFCE020A4
:10470000059002208DF8180000208DF81A00012075
:104710008DF81B0003208DF8190005A91548FEF738
:10472000E3FB154800F08AF80020ADF800004FF4D4
:104730008270ADF802000020ADF804000220ADF850
:1047400006000120ADF808004002ADF80A0018206C
:10475000ADF80C000020ADF80E000720ADF81000F9
:104760006946054800F0A4F80121034800F05AF812
:1047700007B000BD000002400030014000B587B026
:1047800001218803FFF7B6FD01210220FFF7A2FDFA
:1047900005220D212148FEF7EFFB05220E211F48BF
:1047A000FEF7EAFB4FF4C040059002208DF8180098
:1047B00000208DF81A0001208DF81B0003208DF8D1
:1047C000190005A91548FEF78FFB154800F036F8CB
:1047D0004FF48060ADF800004FF48270ADF8020035
:1047E0000020ADF80400ADF806000120ADF8080087
:1047F0004002ADF80A002020ADF80C000020ADF812
:104800000E000720ADF810006946054800F050F88A
:104810000121034800F006F807B000BD0004024083
:104820000038004021B1028842F04002028004E0DA
:1048300002884FF6BF731A400280704710B50446D5
:104840001148844208D101218014FFF783FD002123
:10485000A014FFF77FFD16E00C48844208D1012127
:104860000014FFF757FD00212014FFF753FD0AE065
:104870000748844207D10121C013FFF74BFD0021F7
:10488000E013FFF747FD10BD003001400038004045
:10489000003C00400246002013890B400BB1012070
:1048A00000E0002070470146888970478181704789
:1048B00010B50022028802F441520B884C88234331
:1048C0008C882343CC8823430C8923434C8923437E
:1048D0008C892343CC8923431A430280838B4FF274
:1048E000FF74234083830B8A038210BD2DE9F047B8
:1048F00080460E4617461C46DDE9089A44F08004BF
:1049000001214046FFF78EFF39463046FEF757FB40
:1049100000BF02214046FFF7BDFF0028F9D0214625
:104920004046FFF7C3FF00BF01214046FFF7B2FF3B
:104930000028F9D04046FFF7B6FF002517E000BF7A
:1049400002214046FFF7A6FF0028F9D0002140468B
:10495000FFF7ACFF00BF01214046FFF79BFF002897
:10496000F9D04046FFF79FFF09F805006D1C55453B
:10497000E5D300BF80214046FFF78CFF0128F9D026
:1049800000214046FFF74EFF39463046FEF719FB3F
:10499000BDE8F0872DE9F04180460D4616461C46DD
:1049A00044F0800401214046FFF73CFF3146284691
:1049B000FEF705FB00BF02214046FFF76BFF002812
:1049C000F9D021464046FFF771FF00BF0121404664
:1049D000FFF760FF0028F9D04046FFF764FF00BFF3
:1049E00002214046FFF756FF0028F9D0002140463B
:1049F000FFF75CFF00BF01214046FFF74BFF002897
:104A0000F9D04046FFF74FFFC7B200BF80214046B4
:104A1000FFF740FF0128F9D000214046FFF702FFD1
:104A200031462846FEF7CDFA3846BDE8F081000051
:104A3000F8B50446012C04D101032348FEF7BFFA60
:104A400005E024B94FF400411F48FEF7B8FA0120F1
:104A5000FDF7A2FF01211D48FFF7E4FE00250FE04E
:104A600000BF1A480830008800F001000028F8D084
:104A700016480C300088C0B20DF80500681CC5B29D
:104A8000032DEDDB012C04D121030F48FEF799FA29
:104A900005E024B94FF400410B48FEF792FA0021DB
:104AA0000A48FFF7BFFE9DF8000000049DF80110C2
:104AB00040EA01209DF8021040EA01063220FDF78D
:104AC0006BFF300BF8BD00000004024000380040CE
:104AD0002DE9F04107460C4615461E46DDF81880C4
:104AE00001213846FFF79EFE29462046FEF767FA69
:104AF00000BF02213846FFF7CDFE0028F9D031462D
:104B00003846FFF7D3FE00BF01213846FFF7C2FE4B
:104B10000028F9D03846FFF7C6FE00BF022138460C
:104B2000FFF7B8FE0028F9D041463846FFF7BEFE31
:104B300000BF01213846FFF7ADFE0028F9D0384606
:104B4000FFF7B1FE00BF80213846FFF7A3FE012822
:104B5000F9D000213846FFF765FE29462046FEF7CA
:104B600030FABDE8F081704700B52DED028B83B0BF
:104B7000B0EE408A9FED130A8DED000A9FED110AF9
:104B80008DED010ADFED100A88EE200ADFED0F0A35
:104B900020EE200A8DED020A9DED021ADDED010ADC
:104BA0009DED000AFDF70CFF094880ED000B80ED3C
:104BB000021B80ED042B80ED063B03B0BDEC028BA5
:104BC00000BD00000000000000003443DB0F49403E
:104BD000E0120020411D0A2930D2DFE801F0282F21
:104BE000211A2F2F050C2F131549097841F00101C7
:104BF000134A117022E01249097841F00201104A6B
:104C000011701BE00E49097841F004010C4A117043
:104C100014E00B49097821F00101094A11700DE0F7
:104C20000749097821F00201054A117006E004499C
:104C3000097821F00401024A117000BF00BF7047DB
:104C400050140020014880ED000A7047F413002042
:104C5000014880ED000A7047F81300200CB50020D1
:104C6000019000903448006840F480303249086078
:104C700000BF3148006800F4003000900198401CEB
:104C80000190009818B90198B0F5A06FF1D12A48A9
:104C9000006800F4003010B10120009001E0002015
:104CA00000900098012846D123484030006840F029
:104CB00080502149403108602048006840F480401D
:104CC0001E4908601C48083000681B49083108600C
:104CD0000846006840F4004008600846006840F458
:104CE000A05008601648091F0860081F006840F0BF
:104CF0008070091F086000BF0F48006800F0007056
:104D00000028F9D040F205600E4908600A480830D2
:104D1000006820F003000849083108600846006870
:104D200040F00200086000BF03480830006800F04F
:104D30000C000828F8D10CBD00380240007000407B
:104D400008544007003C024010B51548006840F484
:104D50007000134908601348006840F001001149D1
:104D6000086000200F49083108600E4800680E49AD
:104D700008400C4908600D48091D0860081F0068BC
:104D800020F48020091F0860002006490C310860CB
:104D9000FFF764FF4FF0006001498039086010BDE3
:104DA00088ED00E000380240FFFFF6FE10300024DE
:104DB00010B50121044800F02AF9012803D101218E
:104DC000014800F015F910BD0000014000B58BB09E
:104DD0000121880700F01BF901287DD101218007FE
:104DE00000F006F952480068401C514908605148DB
:104DF0000068401C4F4908604D4890ED000AB8EE2D
:104E0000400AF1EE040AB4EEE00AF1EE10FA05DB16
:104E100000204749086001204749087003F022FD3F
:104E200003F0B6FD01A803F015FD02A803F0F6FC9F
:104E3000424890ED000ADDED020A30EE200A80EDD6
:104E4000000A90ED010ADDED030A30EE200A80ED44
:104E5000010A90ED020ADDED040A30EE200A80ED31
:104E6000020A374890ED000ADDED010A30EE200A13
:104E700080ED000A2F480068042809D10020FFF7C0
:104E8000D7FD304908800120FFF7D2FD2D49488029
:104E900028480068052848D12B480078401C2A493A
:104EA0000870002023490860244890ED000AF1EEC4
:104EB000040A80EE201A254880ED001A1F4890ED64
:104EC000010AF1EE040A80EE201A204880ED011A52
:104ED0001A4890ED020A00E023E0F1EE040A80EEA9
:104EE000201A1A4880ED021A154890ED000AF1EEDA
:104EF000040A80EE201A164880ED001A9FED150A6C
:104F00000E4880ED000A9FED130A80ED010A9FED27
:104F1000110A80ED020A9FED0F0A094880ED000A90
:104F200003E00DA10F4800F0C5FE0BB000BD00006E
:104F3000040000201400002008000020D0140020ED
:104F400018000020101400201000002088140020F9
:104F50000C0000200000000054494D3220657272A0
:104F60006F7200000010014010B50121044800F0EC
:104F70004EF8012803D10121014800F039F810BD95
:104F80000004004010B50121044800F040F8012859
:104F900003D10121014800F02BF810BD00080040AA
:104FA00010B50121044800F032F8012803D1012195
:104FB000014800F01DF810BD000C004010B50121A3
:104FC000044800F024F8012803D10121014800F031
:104FD0000FF810BD0004014021B1028842F08002A8
:104FE000028004E002884FF67F731A400280704707
:104FF000CA430282704721B1028842F00102028056
:1050000004E002884FF6FE731A400280704730B504
:105010000246002000230024158A05EA0103958931
:1050200005EA010413B10CB1012000E0002030BDFD
:105030001AB183890B43838102E083898B43838187
:10504000704700002DE9FF4104460D4616461F46F5
:10505000DDF828806949601A8C4270D01ADC6849F2
:10506000A4EB01008C426CD00ADCB4F1804F4ED02E
:1050700064482044002852D0B0F5806F71D156E0CA
:10508000B0F5806F65D0B0F5006F6CD0B0F5406FB3
:10509000F4D170E0B0F5923F21D009DCB0F5806F1B
:1050A0007AD0B0F5644F0AD0B0F5684F7CD10EE0ED
:1050B000B0F5943F1BD0B0F5963F75D11FE00121AC
:1050C0000846FFF737F919208DF800006DE001213F
:1050D0000220FFF72FF92C208DF8000065E0012158
:1050E0000804FFF727F918208DF800005DE0012182
:1050F0001920FFF71FF92C208DF8000055E0012141
:105100008804FFF717F91A208DF800004DE00121FF
:105110000846FFF7EFF81C208DF8000045E001215C
:105120000220FFF7E7F81D208DF800003DE0012187
:105130000420FFF7DFF81E208DF8000035E023E0A3
:10514000FFE701210820FFF7D5F832208DF8000095
:105150002BE001211020FFF7CDF836208DF800005C
:1051600023E021E0FFE701212020FFF7C3F83720EB
:105170008DF8000019E001214020FFF7BBF82B203B
:105180008DF8000011E007E001218020FFF7B2F860
:105190002C208DF8000008E001210802FFF7AAF892
:1051A0002D208DF8000000E000BF00BF0295ADF893
:1051B00004600020ADF80C00ADF8060001A92046FF
:1051C00000F07EF801212046FFF712FF0122114670
:1051D0002046FFF72DFFF8B28DF8010008F0FF0020
:1051E0008DF8020001208DF803006846FEF7E0FB11
:1051F00001212046FFF7FFFEBDE8FF81001C0040B3
:10520000000C004000FCFFBF70B50024002200230A
:10521000058C4FF6FF6635400584028C8388848BAD
:105220004FF68F752C404FF6FC752C400D882C43A3
:105230004FF6FF552A408D894FF6FF7606EA052581
:105240002A434D8806EA05252A43154DA84202D077
:10525000144DA8421DD14FF2FF752A40CD894FF65B
:10526000FF7606EA05252A434FF6FF352A408D884A
:1052700006EA05252A434EF6FF752B404DF6FF75CD
:105280002B400D8A06EA05152B434D8A06EA0515C3
:105290002B43838084838D68C563028470BD0000C6
:1052A00000000140000401400A460021818B4FF6B6
:1052B000F7731940114381837047C1637047000041
:1052C00000220288184B98420ED0184B98420BD0FF
:1052D000B0F1804F08D0164B984205D0154B98423C
:1052E00002D0154B984204D14FF68F731A404B8869
:1052F0001A43124B984207D0114B984204D04FF6F4
:10530000FF431A400B891A4302804B68C3620B8823
:105310000385054B984202D0044B984201D18B7A09
:10532000038601238382704700000140000401408E
:105330000004004000080040000C00400010004045
:105340000014004010B52DED028B3048007810B1EC
:10535000012846D122E02E480068401C2C490860F4
:105360000846006800EB8000800000EE100AB8EEEE
:10537000400ADFED280A20EE200AB3EE0E1AC0EE36
:10538000010A9FED251A80EE810AF3EE090A30EE3C
:10539000200AB0EE408A03F089FC22E01C48006835
:1053A000401E1B4908600846006800EB8000800032
:1053B00000EE100AB8EE400ADFED160A60EE200A91
:1053C000B3EE0E1A80EE810A9FED131AC0EE010AA9
:1053D000B3EE090A30EE800AB0EE408A03F066FCB4
:1053E00000BF00BF0A4800680C49884203D1012071
:1053F0000649087005E00648006810B90320034913
:10540000087002480078BDEC028B10BD44140020E7
:10541000401400200AD7A33B00007042407E0500E4
:1054200010B52DED028B84B0FDF7D4FD044691211B
:10543000FDF730FD54A1574800F03CFC002414E077
:105440005548006800EBC40090ED001BB0EE410A27
:10545000F0EE610A51EC100B03F050FE08EE100A5A
:10546000B0EE480A00F0AAFC641C052CE8DB4BA156
:10547000484800F01FFC002414E04C48006800EB92
:10548000C40090ED001BB0EE410AF0EE610A51EC51
:10549000100B03F033FE08EE100AB0EE480A00F0DD
:1054A0008DFC641C052CE8DB41A13A4800F002FCAD
:1054B000002414E04248006800EBC40090ED001B9B
:1054C000B0EE410AF0EE610A51EC100B03F016FE4B
:1054D00008EE100AB0EE480A00F070FC641C052CBF
:1054E000E8DB38480068027837A12A4800F0E2FB80
:1054F0003A480068007939490968C978374A12681A
:105500009278CDE90021029034480068437833480E
:105510000068027832A11F4800F0CCFB39480068CF
:10552000027839A11B4800F0C5FB3BA1194800F0E7
:10553000C1FB3C480068D0ED000AB0EE600A00F004
:105540003DFC39A1134800F0B5FB3A480068D0EDA6
:10555000000AB0EE600A00F031FC36480068D0ED79
:10556000010AB0EE600A00F029FC32480068D0ED74
:10557000020AB0EE600A00F021FC00F0CBFA04B0A1
:10558000BDEC028B10BD0000636861727457583A1D
:105590000D0A000000100140581400200D0A636835
:1055A00061727457593A0D0A000000005C14002023
:1055B0000D0A6368617274575A3A0D0A00000000C0
:1055C00060140020641400200D0A63686172744D39
:1055D0006F64653A0D0A256400000000681400201D
:1055E0000D0A636861727453656C6563743A0D0AE1
:1055F00025640925640925640925640925640D0AC3
:10560000000000006C1400207363616C654D6F64D2
:10561000653A2025640D0A006D696E56616C7565EA
:105620003A0D0A00701400200D0A76617258595A1A
:105630003A2020007414002010B52DED0C8BB548D5
:105640000068B0F5166F7CD3B248006840F6B831F8
:10565000884276D2B04890ED000A10EE101A084643
:1056600004F088FB41EC190BAC4890ED001BB0EE48
:10567000410AF0EE610A53EC102B51EC190B03F0C8
:105680006FFD41EC180B03F039FDA3490860084693
:1056900090ED010A10EE101A084604F06BFB41EC85
:1056A000190B9E4890ED021BB0EE410AF0EE610A24
:1056B00053EC102B51EC190B03F052FD41EC180B7D
:1056C00003F01CFD94494860084690ED020A10EE74
:1056D000101A084604F04EFB41EC190B8F4890ED70
:1056E000041BB0EE410AF0EE610A53EC102B51ECB2
:1056F000190B03F035FD41EC180B03F0FFFC864954
:105700008860874890ED000A10EE101A084604F0F1
:1057100031FB41EC180B834890ED001BB0EE410AC1
:10572000F0EE610A53EC102B51EC180B03F018FD4E
:105730007C4A03C27A4890ED010A10EE101A08461E
:1057400000E02EE004F016FB41EC180B754890EDDC
:10575000021BB0EE410AF0EE610A53EC102B51EC43
:10576000180B03F0FDFC6F4AC2E902016C4890ED92
:10577000020A10EE101A084604F0FCFA41EC180B6D
:10578000684890ED041BB0EE410AF0EE610A53EC5C
:10579000102B51EC180B03F0E3FC624AC2E9040140
:1057A000B5E05C48006840F6B83188427ED159487F
:1057B0000068401C57490860574890ED000ADFED2B
:1057C0005A0A80EE201A80ED001A90ED010ADFEDF2
:1057D000560A80EE201A80ED011A90ED020ADFEDE4
:1057E000520A80EE201A80ED021A4E4890ED001BFE
:1057F000B0EE410AF0EE610A9FED4C1B53EC112B09
:1058000051EC100B03F068FD464A03C2454890ED89
:10581000021BB0EE410AF0EE610A9FED441B53EC0F
:10582000112B51EC100B03F057FD3E4AC2E9020167
:10583000104690ED041BB0EE410AF0EE610A9FEDB8
:105840003B1B53EC112B51EC100B03F045FD354A7B
:10585000C2E90401104690ED042BB0EE420AF0EECE
:10586000620A90ED042BB0EE421AF0EE621A53EC8D
:10587000102B51EC110B03F087FF41EC1A0B294858
:1058800090ED022BB0EE420AF0EE620A90ED022B90
:10589000B0EE421AF0EE621A53EC102B51EC110BE1
:1058A00003F072FF41EC1C0B1E4800E02FE090ED6E
:1058B000002BB0EE420AF0EE620A90ED002BB0EE43
:1058C000421AF0EE621A53EC102B51EC110B03F05C
:1058D0005BFF41EC1D0B53EC1C2B03F041FC41EC36
:1058E0001B0B53EC1A2B03F03BFC41EC190BB0EEF5
:1058F000490AF0EE690A01F0AFFDB0EE408AF0EE21
:10590000608A51EC180B03F0F9FB0A490860BDEC02
:105910000C8B10BD041300206018002048180020D4
:10592000AC14002090180020000016440000000075
:1059300000C082400813002010B540F225510548F0
:1059400000F0FFF8012804D140F22551014800F091
:10595000C6F810BD0050004010B540F225511D485A
:1059600000F0EFF8012830D140F22551194800F03D
:10597000B6F8184800F044FAC4B217481749096845
:10598000445416480068401C1449086008460068E2
:1059900001280FDD08460068401E0F49085C0A28F0
:1059A00008D10E480068801E085C0D2802D1FCF763
:1059B00027FB0EE00848007841280AD002F02EFAB2
:1059C00007A1044800F076F903E0024800F018FA55
:1059D000C4B210BD00100140F81E00204814002081
:1059E0004E4F542053544152542057495448202775
:1059F00041270D0A0000000010B588B004460121BF
:105A00000846FEF767FC01211020FEF793FC0722F1
:105A100009212448FDF7B0FA07220A212148FDF7A1
:105A2000ABFA4FF4C060069002208DF81C008DF890
:105A30001D0000208DF81E0001208DF81F0006A912
:105A40001848FDF751FA02940020ADF80C00ADF8AB
:105A50000E00ADF81000ADF814000C20ADF81200E7
:105A600002A9114800F0BCF840210F4800F02EF8C0
:105A700025208DF8040001208DF805008DF8060022
:105A80008DF8070001A8FDF793FF012240F2255190
:105A9000054800F080F80121034800F02FF808B015
:105AA00010BD0000000002400010014010B540F29F
:105AB0002551054800F045F8012804D140F2255150
:105AC000014800F00CF810BD0048004001F40072DD
:105AD000B2F5007F00D100BFCA430280704710B505
