:020000040800F2
:10000000F8B400208D0200081139000831320008D0
:100010000D390008C5280008415E000800000000F6
:100020000000000000000000000000003540000853
:10003000092C000800000000A3020008A502000827
:10004000A7020008A7020008A7020008A7020008EC
:10005000A7020008A7020008A7020008A7020008DC
:10006000A7020008A7020008A7020008A7020008CC
:10007000A7020008A7020008A7020008A7020008BC
:10008000A7020008A7020008A7020008A7020008AC
:10009000A7020008A7020008A7020008A70200089C
:1000A000A70200084D430008A7020008A7020008A5
:1000B00069430008AD460008C9460008A7020008C9
:1000C000A7020008A7020008A7020008A70200086C
:1000D000A702000841500008A70200089551000837
:1000E000A7020008A7020008A7020008A70200084C
:1000F00001470008A7020008A7020008A70200089D
:10010000A7020008A7020008E5460008A7020008A9
:10011000A702000821500008A7020008A702000853
:10012000A7020008A7020008A7020008A70200080B
:10013000A7020008A7020008A7020008A7020008FB
:10014000A7020008A7020008A7020008A7020008EB
:10015000A7020008A7020008A7020008A7020008DB
:10016000A7020008A7020008A7020008A7020008CB
:10017000A7020008A7020008A7020008A7020008BB
:10018000A7020008A702000800F002F800F06FF8CC
:100190000AA090E8000C82448344AAF10107DA45E2
:1001A00001D100F064F8AFF2090EBAE80F0013F0C5
:1001B000010F18BFFB1A43F0010318472C830000FE
:1001C0004C8300000A444FF0000C10F8013B13F080
:1001D000070408BF10F8014B1D1108BF10F8015BA0
:1001E000641E05D010F8016B641E01F8016BF9D193
:1001F00013F0080F1EBF10F8014BAD1C0C1B09D1EA
:100200006D1E58BF01F801CBFAD505E014F8016B5B
:1002100001F8016B6D1EF9D59142D6D370470000ED
:100220000023002400250026103A28BF78C1FBD8FF
:10023000520728BF30C148BF0B607047662907F0DE
:100240002884002070471FB507F0E5FB00F090FC04
:1002500004000020002106F0F3FD401C6060002037
:10026000002106F0D7FDE0601FBD10B510BD00F005
:10027000ABFD1146FFF7E7FF06F070FB01F04EF80B
:1002800003B4FFF7F2FF03BC01F092F8094880477E
:1002900009480047FEE7FEE7FEE7FEE7FEE7FEE768
:1002A000FEE7FEE7FEE7FEE704480549054A064B80
:1002B00070470000E542000889010008F86E002040
:1002C000F8B40020F8B00020F8B00020DFED300ACC
:1002D000B5EEC00A60EE200ABDEEE01A11EE100A7B
:1002E000F1EE10FA38BF401E00EE100A9FED291AF9
:1002F000B8EEC00A70EEC00A20EE810ABCEEC00A59
:1003000010EE100A00EE100A0028B8EEC00A10EE37
:10031000810AB8BF002004DBB0F5807FC8BF4FF46E
:1003200080701D4960EE000AB6EE001ADFED1C2A4F
:100330009FED1A2A60EE011A60EE225A20EE813AF1
:1003400020EE022A21EEA01A01EB800073EE655A1E
:1003500062EE202AB7EE006A33EE003AD0EC043A9F
:1003600076EE611A71EE600A35EEE20A33EE413A3A
:1003700032EEC21A70EEA10A20EE230A64EE831A4E
:1003800004EE200A45EE011A31EE800A70470000A3
:1003900083F9223E00008043387C0008ABAA2A3E45
:1003A000ABAAAA3EDFED300AB5EEC00A60EE200A25
:1003B000BDEEE01A11EE100AF1EE10FA38BF401E41
:1003C00000EE100A9FED291AB8EEC00A70EEC00ABE
:1003D00020EE810ABCEEC00A10EE100A00EE100AF0
:1003E0000028B8EEC00A10EE810AB8BF002004DB76
:1003F000B0F5807FC8BF4FF480701D4960EE000AE1
:10040000B6EE001ADFED1C2A9FED1A2A60EE011AE3
:1004100060EE225A20EE813A20EE022A21EEA01A46
:1004200001EB800073EE655A62EE202AB7EE006A97
:1004300033EE003AD0EC043A76EE611A71EE600ABF
:1004400035EEE20A33EE413A32EEC21A70EEA10AFC
:1004500020EE230A64EE831A04EE200A45EE011A08
:1004600031EE800A7047000083F9223E000080438D
:1004700048800008ABAA2A3EABAAAA3E0FB41CB51E
:10048000074B06AA7B4469460090059800F005FBDF
:100490000020694600F014FB1CBC5DF814FB000052
:1004A000390600002DE9F0410E4604460020206286
:1004B0002046E168884730B3252805D0D4E90121DA
:1004C0009047206A401CF2E7E168204600278847F1
:1004D000050018D0A5F14100192802D820354FF4A5
:1004E00000673246294620462760FFF7A7FE40B145
:1004F000012804D0F61D26F007060836D8E7361D79
:10050000D6E72846DAE7206ABDE8F08140EA010331
:1005100070B59B072ED14FF00136042A2AD308C8A4
:1005200010C99D1B9D43121F15EAC61517D0D8B2DE
:10053000E1B2401A50EA056110D198B2A1B2401A56
:1005400050EA05410AD123F07F4024F07F41401A50
:1005500050EA052102D1180EA0EB146070BDA34231
:10056000DBD018BA21BA884201D9012070BD4FF002
:10057000FF3070BD0AB9002070BD10F8013B11F8C2
:10058000014B63B1A3420AD1521E08D010F8013BBF
:1005900011F8014B1BB1A34201D1521EEDD1181B22
:1005A00070BD10B5203AC0F00B80B1E81850203A69
:1005B000A0E81850B1E81850A0E81850BFF4F5AF03
:1005C0005FEA027C24BFB1E81850A0E8185044BF8D
:1005D00018C918C0BDE810405FEA827C24BF51F8FA
:1005E000043B40F8043B08BF7047D20728BF31F8EE
:1005F000023B48BF11F8012B28BF20F8023B48BF3F
:1006000000F8012B70474FF0000200B513469446E6
:100610009646203922BFA0E80C50A0E80C50B1F15A
:100620002001BFF4F7AF090728BFA0E80C5048BF6E
:100630000CC05DF804EB890028BF40F8042B08BF0C
:10064000704748BF20F8022B11F0804F18BF00F808
:10065000012B704770477047704710B500F08CFA57
:10066000006810BD10B5044600F086FA046010BDA5
:1006700070472DE9FF4F0C461E464FF0FF378BB0F9
:10068000D2E90001DDF860800A908A46C1F30A557C
:1006900005B93D46002108464FF00000BAF1000FB1
:1006A00000F4400005DA00EB80004FF4400101EA5D
:1006B00050004FEA9059B9F1010F00DDB9460A9890
:1006C00050EA4A000ED044F61050A5F2FF354543DB
:1006D0002F14B8F1000F1ED07542291E1EDDC9F17E
:1006E00000021CE0B8F1010F4FF0000001D03021F2
:1006F00003E0F24305E02154401CB042FBDB3046EE
:100700000022002121540B99C1F80880C1E9002082
:100710000FB0BDE8F08FBD1B6D1CDEE74A4600DA66
:10072000694206A800F0DAFA06AB93E8070003ABCB
:1007300083E8070050460A9901F08DF88DE807001C
:10074000A0F500501F3800900398002D0ADD42F2FA
:100750001F014A460844002303A90390684601F09C
:1007600039FB09E0A0F500504A461F38002303A9D1
:100770000390684601F058FB8DE807000004000C68
:1007800003D04FF0FF30410800E01046B8F1000FF1
:1007900003D00022009215461EE0751E05D400F01D
:1007A000EFF9303262556D1EF9D5B3460122084388
:1007B00002D000227F1C04E02078302801D10022E2
:1007C0007F1E002A099784D01DE0112D07DA00F062
:1007D000D7F9303262556D1C50EA0102F5D1084359
:1007E00002D00098C8B10EE00021681E05E0235C2D
:1007F000625C63542254401E491C8142F7DBAB46C5
:10080000A81B401E0990002004F80B000B98099AC1
:10081000C0F80880C0E9002B7AE711264FF00008E5
:1008200057E72DE9F04F88460446D21D22F0070114
:1008300091B0D1E90001CDE90A0105F01BFB0246A8
:100840000B98C00F01D02D2007E02068810701D54B
:100850002B2002E0202101EAC000032A099001D0E8
:10086000072A05DB03464146204600F0D7F90BE195
:100870002078800601D5E06900E00620B8F1650F18
:10088000814606D0B8F1660F18D0B8F1670F70D165
:1008900031E00020B9F1110F009001DB112301E0DC
:1008A00009F101030AAA01A90CA8FFF7E2FEDDE99C
:1008B0000C70002609F10105834647E001204B46F4
:1008C00000904FF000470AAA01A90CA8FFF7D1FE3B
:1008D000DDE90DB00C995D46002610B909F1010063
:1008E0000D18B9EB050003D4C0F1FF3609F101057D
:1008F000A5EB09002BE0B9F1010F01DA4FF0010976
:100900000020B9F1110F0090484601DD112300E0ED
:1009100003460AAA01A90CA8FFF7ABFEDDE90C709B
:100920004D4600268346207800070AD4AB4500DAFE
:100930005D4601A8012D04DD411911F8011C302983
:1009400007D04F4502DA17F1040F04DA012082467E
:100950000FE06D1EEEE7002F02DCED1B3E4403E0CE
:10096000781CA84200DD7D1CB81B00F1010A4FF085
:1009700000472078000703D4AA4501DB4FF0FF3A77
:100980000021B7F1004F0DF143088DF8431024D03A
:1009900002202B23002F01DA7F422D230A21021E81
:1009A000A0F1010000DC5FB197FBF1FC97FBF1F2D5
:1009B00001FB1C7C17460CF1300C08F801CDEEE76A
:1009C000A8F1010003702188090501D5452100E047
:1009D0006521A0F1010800F8011C09980FA9A1EBFD
:1009E0000807FF1D00B10120411901EBEA70A16960
:1009F0003844081A401EA0612078C00602D4204660
:100A0000AFF30080099828B1D4E901219047206A0A
:100A1000401C20622078C00622D52046AFF300801B
:100A20001EE0002E04DBB34502DD01A8805D00E07E
:100A30003020D4E901219047206A401C2062761CB6
:100A4000AAF101005FEA000A0AD100F091F8C0683B
:100A50000168405CD4E901219047206A401C206273
:100A6000281EA5F10105DCDC07E0D4E9012118F816
:100A7000010B9047206A401C2062381EA7F1010735
:100A8000F3DC2046AFF30080032011B041E6000004
:100A900001694A1C02610878704700B58FB0CDE942
:100AA00001310021059105497944CDE90310114632
:100AB0006846FFF7F7FC0FB000BD0000E5FFFFFF41
:100AC0000A6802F8010B0A60704700000FB40023A7
:100AD00000B589B00CA900910B99CB60214B7B44E8
:100AE0000693214B7B44079304236FF00042CDE92A
:100AF00001321E4A7A446B4608920246002007F0F3
:100B00002AF809B05DF814FB70B506464FF0FF30C7
:100B100015460C46324686B00091CDE90101694682
:100B20000020049004A8FFF7D1FF02460498211882
:100B300025B108B1084600E0204628600498002846
:100B40000DD0002A02DD0098884208D03246081BEA
:100B500069460094CDE9010404A8FFF7B7FF06B089
:100B600070BD0000BB010000D301000013010000B4
:100B700000487047B46E002000487047946E002013
:100B800030B5B0F10A024FEA900E71F100034EEA5F
:100B9000817EB0EB0E0061EB91014FEA101E4EEA30
:100BA000017E10EB0E0041EB11114FEA102E4EEAC0
:100BB000016E10EB0E0041EB11214FEA104E4EEA90
:100BC000014E10EB0E0041EB1141401841F10001C4
:100BD0004FEAD00040EA41704FEAD10110EB8005A6
:100BE0004FEA810444EA907444EB01046D1944EB2C
:100BF0000404521BA3414FF0000348BF0A3200D542
:100C000030BD401C41F1000130BD10B5044600F07C
:100C100001F90068005D00F0010010BD2DE9F04110
:100C20001F46044603260168072A01F4006004DB1E
:100C300008B116A505E016A503E008B115A500E06A
:100C400015A521F010002060A069C01EA0610FB1A1
:100C5000401EA0612046AFF300804FB1D4E90121CE
:100C600038469047206A401C2062C01C206206E083
:100C7000206AFAE7D4E9012115F8010B9047761EA6
:100C8000F8D22046AFF30080BDE8F0814E414E001F
:100C90006E616E00494E4600696E6600426842B160
:100CA000016811F8013B23B1521EC0E90012184639
:100CB00070470121C160881E704742685AB1C368FD
:100CC000016843B983688B4205D0491E521CC0E9B4
:100CD0000012002070474FF0FF3070472DE9F047B9
:100CE000814616468AB0354878440DC88DE80D0017
:100CF00032487844801C03AC0DC884E80D0041F6EE
:100D00009B300844372190FBF1F290FBF1F5A5F1FF
:100D1000800501FB12041B3C02D56442012000E067
:100D20000020DFF898A080460027FA44AAF1BE0A06
:100D30000EE0E0070AD03246684607EB4701012380
:100D40000AEB810101F070F88DE8070064107F1C48
:100D5000002CEED1194F7F44AE3F19E0E80715D0C3
:100D600007EB04100DF1180A90E80E008AE80E0057
:100D7000C068F04201D1981908903246012306A9B3
:100D800003A801F051F803AB83E807006D10641C61
:100D9000002DE3D14FF0010332466946B8F1000F50
:100DA00003A802D001F016F801E001F03DF8C9E90E
:100DB0000001C9F808200AB0BDE8F087E477000018
:100DC00000487047946E00207546FFF7F9FFAE4665
:100DD00005006946534620F00700854618B020B547
:100DE000FFF762FABDE820404FF000064FF0000721
:100DF0004FF000084FF0000B21F00701AC46ACE8C3
:100E0000C009ACE8C009ACE8C009ACE8C0098D462F
:100E10007047000010B5FFF7ABFE001D10BD00BF0E
:100E2000216000002DE9FF4F06468BB00878FF28AF
:100E300006D0491C2D2805D000244FF0000908E0F9
:100E400000200CE00124F8E709EB8903491C00EBC2
:100E500043090878FF28F7D114B1C9F10000814691
:100E6000107800252C46AA4629462D2801D02B288B
:100E700004D1521C2D2813D0002082468B461078B6
:100E8000FF280FD04FF0000C0A21521CA5FB01785F
:100E900004FB018105FB0C11C5194BEB0104EEE7C6
:100EA0000120EAE7002108464FF00000BAF1000FE8
:100EB00002D000EB80004008C0F38157012F01DD14
:100EC0004FF0FF370E9955EA040009EB01080BD0EB
:100ED0004FF0020918F5FA7F16DA4FEACA70002FB0
:100EE000706008DD012007E04FEACA70C6E900B073
:100EF0000FB0BDE8F08F00203060FFF73DFEC0F876
:100F000000901821084616E0B8F5FA7F18DD002F8A
:100F100002DAF748784401E0F6487844D0E9001056
:100F2000C6E9001040EACA707060FFF725FEC0F8FD
:100F30000090142108460FB0BDE8F04F06F0A6BDA2
:100F4000002108464FF00000B8F10001099002DAD4
:100F5000C7F1000200E03A4601DAC8F1000106A834
:100F6000FFF7BCFE06AB93E8070003AB83E807007E
:100F700044F23E005BEA04010090584604D144F27A
:100F80001E012C465D460091210C0904014306D147
:100F90000099240444EA15442D041039009104F00A
:100FA0007F41014306D10099240244EA15642D02D1
:100FB0000839009104F07041014306D100992401E1
:100FC00044EA15742D01091F009104F040410143CA
:100FD00006D10099A40044EA9574AD00891E0091E1
:100FE00004F00041084304D100986D196441401E8B
:100FF00000904FF001033A466846B8F1000FCDE982
:10100000014503A902DD00F024FF01E000F0F7FE36
:10101000BAF1000F04460D4601D084F000440021CF
:1010200008464FF00000099940F2FF77484010F061
:101030000C0F07D124F00040284303D0C4F30A501A
:10104000B84212D1FFF798FDC0F80090C4F30A50DF
:10105000B8420AD1A8487844D0E90010C6E9001087
:1010600004F000410843706042E7C6E900543FE7DE
:101070002DE9FF4F1F464FF0000A4FF0FF3845465D
:1010800091B0D7E90146CDF83CA0FFF771FDC068EB
:101090000168405C1090B96912986D1C8847396AE4
:1010A000814688470028F6D1B9F1FF3F0AD0002ECB
:1010B00024F4D06411DDB9F12B0F08D0B9F12D0F54
:1010C0000BD102E0404615B013E744F48064B969DF
:1010D00012986D1C8847761E8146600504A901D5CB
:1010E0002D2000E02B20002E01F1010B0DF1300826
:1010F0008DF810003FDDB9F1690F08D0B9F1490F43
:1011000005D0B9F16E0F02D0B9F14E0F1CD13B469C
:1011100001A8009580E85002DDE912126FF002008C
:1011200006F01DFDC11CCED10EE0B96912986D1CF0
:10113000884781461398761E44F4007405600F9822
:10114000401C002E0F9016DDB9F1300FEDD0B9F133
:10115000780F02D0B9F1580F0DD10F9801280AD19C
:101160003B46CDE90054DDE91212001F029606F05D
:10117000F4FCC11CA7D1109989453ED144F08004EC
:1011800006E01399681CAAF1010A44F4007408608F
:10119000B9696D1C1298761E884730288146F0D0B8
:1011A0002BE01099894505D1200603D4761E44F022
:1011B000800418E0484605F006F808B3761E0DF1E5
:1011C00023018B4544F4007408D2A9F130000BF8D8
:1011D000010B200607D5AAF1010003E0200602D486
:1011E0000AF101008246A00502D51399681C086027
:1011F000B96912986D1C88478146002ED1DC53E0F6
:10120000002E51DDB9F1650F02D0B9F1450F4BD178
:10121000A00549D5B9696D1C1298761E24F4407456
:101220008847002E81460CDD2B2804D0B9F12D0F04
:1012300007D144F48074B96912986D1C8847761EF2
:101240008146E00501D52D2100E02B2108F8011B86
:10125000CDF8008021E0761E0DF13901884544F477
:1012600000740CD2A9F1300010F0FF0088F80000E3
:1012700002D10099884509D908F1010806E0E00586
:1012800001D51E4801E042F20F708246B9691298FA
:101290006D1C8847814613980560002E04DD484682
:1012A00004F091FF0028D6D1F96912988847FF20F1
:1012B00053468BF8000088F8000000200A900B903D
:1012C00004AA0CA90AA8FFF7ADFDA00502D46FF08F
:1012D0000100F8E614F0240F12D0E0071CD13868A2
:1012E000DDE90A12031D3B600068C0E9001213E04B
:1012F000F8750000EA750000AE740000F1D8FFFF39
:101300000AA9684604F04CFFE00705D13868009A46
:10131000011D3960006802602846D4E610B5044615
:10132000AFF300802046BDE81040FEF7A9BF0000E3
:101330004FF0013C50F8042B51F8043B9A4221D164
:10134000A2EB0C03934313EACC1317D150F8042BF0
:1013500051F8043B9A4215D1A2EB0C03934313EAD4
:10136000CC130BD150F8042B51F8043B9A4209D10D
:10137000A2EB0C03934313EACC13DBD04FF0000035
:10138000704700BFD01A01BAB1FA81F101F018011B
:1013900022FA01F0CB40C1F12001DBB2C0B2C01A89
:1013A0002CFA01F3D11A914311EAC311E6D1704727
:1013B00001491820ABBEFEE726000200704700007E
:1013C0002DE9FF4F1F464FF03C0987B04FF0004218
:1013D000DDE9141001F10108DDF858A002EA4050DF
:1013E0000390002005908346054604460490B969A1
:1013F000461E08988847AAF1010A0290BAF1000F28
:101400003BDD02982E2815D0102100F016FA002896
:101410002EDB4FF0010B0599014317D0B9F1000FF6
:101420000BDB4A46C11700F0F5F905430C43A9F15F
:10143000040905E0012004900BE008B145F0010526
:1014400001200590049820B9361D02E0049800B1EF
:10145000361FB969089808F101088847BBF1000FE9
:10146000AAF1010A0290C9D00999C1F80080C5E724
:101470000298702808D0502806D0F9690898884743
:10148000BBF1000F14D04FE0002002900120BBF10F
:10149000000F049009D0B969089808F1010888473D
:1014A000AAF10109B9F1000F07DCF969089888472A
:1014B0006FF001000BB0BDE8F08F2B2804D02D2871
:1014C0000CD14FF0FF300490B969089808F1010879
:1014D0008847A9F10109B9F1000FE6DD411CE4D00C
:1014E0000A2100F0AAF90028DFDB029908F10108BF
:1014F00001EB810100EB41000290B969089888472F
:101500000A2100F09AF9099AA9F10109B9F1000F2D
:10151000C2F8008001DD0028E7DAF96908988847F9
:101520000499029800FB016655EA040004D004F017
:101530004041090002D006E0039898E0A40044EA84
:101540009574AD00B61E04F00041080002D16D197B
:101550006441761E159810F0240F03D04FF00B094C
:101560005C4803E04FF028096FF07D008246564545
:1015700007DAAAEB06018944B9F1410F01DD4FF00A
:10158000410901200021A9F1010200F043F90246BE
:1015900028400B462140084301D0012100E00021F2
:1015A000501E029143F1FF3128402140084301D0F1
:1015B000012000E000200299834651EA0B014FD040
:1015C000002108464FF00000039900F4400039B1B3
:1015D00000EB80004FF4400100EBD07001EA6000A6
:1015E0008015012802DD4FF0FF3000E013D0401CD1
:1015F00036D0029860B3BBF1000F0CD14A460120EF
:10160000002100F007F928402140084301D00120C3
:1016100000E00020E0B101204A46002100F0FAF885
:10162000034640190A4661412D1A8C4111D3B9F184
:10163000400F09DD159810F0240F02D0AAF13406EE
:1016400003E0AAF1170600E0761C00254FF00044E5
:1016500006E05B1E42F1FF3220EA030521EA0204A4
:10166000CAF10100B04206DA1B4903980843019011
:10167000002000900EE0039AC4F3D321E80A0A4345
:10168000164940EA44500A433146CDE90002684613
:1016900004F08FFD159810F0240F0BD01598C0079B
:1016A00015D13868DDE90012031D3B600068C0E910
:1016B00000120CE002A8694604F072FD1598C007FC
:1016C00005D13868029A011D396000680260404601
:1016D000F0E6000002FCFFFF0000F07F0000F03F9A
:1016E0002DE9FF4F92461D4685B04FF00041DDE9E0
:1016F000124BDDE914727F1E01EA4B50414940F064
:10170000FF4940EA0108002122F020004928049105
:1017100002D04E2828D04CE03BA0012607C88DE817
:101720000700A9690698641C88477F1E014606D4F5
:101730001DF8060018B121F0200181420BD0E969A3
:1017400006988847032E34D0082E32D06FF001005F
:1017500009B0BDE8F08F761C032E01D0082EE0D131
:10176000601CCAF80000DCE7A9690698641C884779
:101770007F1E2AD420F02000412826D1A96906988E
:10178000641C88477F1E20D420F020004E281CD1E6
:10179000A9690698641C88477F1E48F4002849F40C
:1017A0008009CAF8004001D4282806D0E9690698C3
:1017B00088475FEACB7012D022E0A9690698641CC2
:1017C00088477F1E01D4002803DAE9690698884714
:1017D000BCE72928F1D1641CCAF80040E9E71BF0F6
:1017E000240F07D028680499031D2B600068C0E906
:1017F000001805E02868021D2A600068C0F8009003
:101800002046A5E70000F07F494E46494E4954590D
:1018100000000000B2F120030AD5C2F1200301FA52
:1018200002F120FA03F300FA02F041EA03017047E3
:1018300000FA03F14FF0000070473A2800D2303828
:1018400020F02002412A01D3A2F13700884201D3BF
:101850004FF0FF3070475FEA400C08BF91F0000F77
:101860004FEA8C234FEAC12243EA51514FEA1C5000
:1018700018BF00F5F0404FEA300018BF41F00041BA
:101880005FEA6C5C00F02980BCF1FF3F08BF40F0CC
:1018900080407047130C06BF12044FF0100C4FF03D
:1018A000000C130E04BF12020CF1080C130F04BF3E
:1018B00012010CF1040C930F04BF92000CF1020C06
:1018C000D30F04BF52000CF1010C11464FF000027F
:1018D000A0F11F00A0EB0C00704711F0004F08BFF3
:1018E000704731F000413FF4D5AF0B0C06BF09043F
:1018F0004FF0100C4FF0000C0B0E04BF09020CF15E
:10190000080C0B0F04BF09010CF1040C8B0F04BF72
:1019100089000CF1020CCB0F04BF49000CF1010C43
:10192000CCF12003A0EB0C0022FA03F302FA0CF234
:1019300041EA030100F10100704720F07F4C80EA8A
:10194000030023F07F47ACEB070303F57C5300F063
:10195000004003F1FF032DE980494FEA154B09B41C
:101960004FEA144325EA0B4E24EA03480FF20426FB
:1019700006EB132749083E785FEA320203FB06674D
:10198000C7F5000707FB06F64FEA54374FEAD6467D
:1019900006F1020607FB066CCCF1005C4FEA1C471F
:1019A0002CEA074C07FB06F40CFB06F504EB154686
:1019B0004FEA961634BF00204FF000404FEAD1376F
:1019C00006FB07FC4FEA1C4C0CFB0BF7D21B03FB7E
:1019D0000CF761EB07010CFB0EF7B0EB074072EB65
:1019E00017420CFB08F734BFA2EB0742B2EB0742E9
:1019F00061EB17414FEA0C444FEA910706FB07FCE5
:101A00004FEA1C4C0CFB0BF7B0EBC74072EB5732A4
:101A100003FB0CF734BFA2EBC742B2EBC74261EB4A
:101A200057310CFB0EF7B0EBC70072EB57720CFB93
:101A300008F734BFA2EBC702B2EBC70261EB5771E4
:101A4000039F4FEA816141EA921104EBCC044FEA13
:101A5000D1374FEA826206FB07FC42EA90124FEA56
:101A600080604FEA1C4C0CFB0BF7D21B03FB0CF7FE
:101A700061EB07010CFB0EF7B0EB074072EB17426E
:101A80000CFB08F734BFA2EB0742B2EB074261EB55
:101A900017414FEA8C554FEA910704EB9C2406FB53
:101AA00007FC4FEA1C4C0CFB0BF7B0EBC74072EB8A
:101AB000573203FB0CF734BFA2EBC742B2EBC7426D
:101AC00061EB57310CFB0EF7B0EBC70072EB5772AE
:101AD0000CFB08F734BFA2EBC702B2EBC70261EB05
:101AE000577115EB4C254FEA816141EA92114FEA9B
:101AF00082624FEAD13742EA901206FB07FC44F1BA
:101B000000044FEA80604FEA1C4C0CFB0BF7D21B21
:101B100003FB0CF761EB07010CFB0EF7B0EB074082
:101B200072EB17420CFB08F734BFA2EB0742B2EB93
:101B3000074261EB174115EB1C154FEA813141EA71
:101B400092414FEA823242EA90424FEA80304FEAB5
:101B50000C7644F1000448EA03434EEA0B484FF088
:101B6000000EB2EB080C71EB030724BF6246394646
:101B70004EEB0E0E4FF0000B0018524149414BEB5B
:101B80000B0BB2EB080C71EB03077BF1000B24BFCE
:101B9000624639464EEB0E0E4FF0000B00185241D4
:101BA00049414BEB0B0BB2EB080C71EB03077BF1DC
:101BB000000B24BF624639464EEB0E0E51EA020777
:101BC00018BF46F0010616EB0E7655F1000254F1EF
:101BD000000103D5BDE88901BDE80088BDE88901A1
:101BE000BDE80048B619524141EB0101A3F10103E0
:101BF000704780807F7E7D7C7B7A7978777676757A
:101C00007473727171706F6E6E6D6C6C6B6A6A69F1
:101C10006868676666656464636362616160605F8B
:101C20005F5E5E5D5D5C5C5B5B5A5A595958585704
:101C3000575656555555545453535252525151506C
:101C400050504F4F4F4E4E4D4D4D4C4C4C4B4B4BBF
:101C50004A4A4A4949494848484747474746464605
:101C60004545454444444443434343424242424140
:101C70004141000046EA0646A3F570534FEA164676
:101C800046EA42564FEAD22242EA415210B54FEAA2
:101C9000D121A3F1010300F02FF820F0004000F162
:101CA000020C00F0004701EB00501146BCF5006F3C
:101CB00040EA070000D210BDBAF1000F0AD01CB5EF
:101CC00003B44FF004004FF004014FF000000FBCCC
:101CD000BDE810404FF00001BBF1010FB9BF04484F
:101CE0004FF0FF310348002140EA070010BD00BF5C
:101CF000FFFFEF7F0000F07F002B9C4630D4770081
:101D00002BD01CB54FEA370703B44FF010004FF04B
:101D10001001BAF1000F06D0BCF1000FDCBF40F09B
:101D2000080040F008014FF000000FBCBDE8104073
:101D30000BF1010BBBF1010F08BF5FEA170722BFD0
:101D400012F1010211F101014FF0004143F10003D2
:101D500000F0004043EA00007047F9D35708D0E78D
:101D600046EA064613F1400F4FEA16461FDD13F10F
:101D7000200FDFBF16430A46002120335B42BED04E
:101D8000C3F1200746EA064602FA07F74FEA16466D
:101D900046EA0706C3F1200722FA03F201FA07F721
:101DA00021FA03F14FF0000342EA0702A7E746EAEF
:101DB000020646EA06464FEA164646EA0106BCBF58
:101DC00046EA0646360C4FF000034FF000024FF093
:101DD000000194E72DE9804C9A46934670B491E84F
:101DE000380007C831EA400C48BF34EA430C03D539
:101DF000FFF7A3FDFFF780FFF0BCBDE8008C2DE9E5
:101E0000804C9A46934670B491E8380007C831EA8E
:101E1000400C48BF34EA430C03D5FFF78EFDFFF7B3
:101E200029FFF0BCBDE8008C2DE9804C9A46934612
:101E300070B491E8380007C810F0804F08BF13F065
:101E4000804F03D100F01AF8FFF756FFF0BCBDE851
:101E5000008C2DE9804C9A46934670B491E8380086
:101E600007C810F0804F08BF13F0804F03D100F077
:101E700005F8FFF7FFFEF0BCBDE8008C20F07F47BF
:101E800080EA030023F07F4C07EB0C03A3F57C539F
:101E900000F00040A3F1FE0392F0000F00F0B380C9
:101EA00095F0000F00F077802DE901494FEA1140CD
:101EB0004FEA144621EA004800FB06FC24EA0647E4
:101EC00008FB06F607FB08F800FB07F718EB0648C7
:101ED0004CEB164C4FEA124B18EB07484FEA1546ED
:101EE0004CEB174022EA0B4E0BFB06FC25EA06479B
:101EF0000EFB06F607FB0EFE0BFB07F71EEB064E6E
:101F00004CEB164C4FF000061EEB074E4CEB174BFC
:101F100018EB0B0840F1000018EB0E0B58EB000813
:101F200040F100008F1A4FF000013CBFC943661B0F
:101F300014BFB5EB040C00213CBFC943F61B4FEAAC
:101F400017444EEA8E0E27EA04454FEA1C4704FB6D
:101F500007622CEA074C05FB07F70CFB05F604FBB0
:101F60000CFC16EB074642EB174216EB0C4642EB15
:101F70001C421BEB060658EB0202414146EA9E0654
:101F800001D5BDE80189B619524141EB0101A3F128
:101F90000103BDE801894FEA14454FEA114724EADD
:101FA000054621EA074C05FB07F406FB07F70CFB87
:101FB00006F105FB0CFC11EB074144EB17444FEA1B
:101FC000124711EB0C4144EB1C4422EA074C05FB81
:101FD00007F206FB07F70CFB06F605FB0CFC16EBFD
:101FE000074642EB174216EB0C4642EB1C456A18BB
:101FF00054F1000148BF7047B619524141EB01014D
:10200000A3F10103704795F0000F37D04FEA11425A
:102010004FEA144721EA024624EA074C02FB07F183
:1020200006FB07F70CFB06F402FB0CFC14EB074461
:1020300041EB17414FEA154714EB0C4441EB1C41AF
:1020400025EA074C02FB07F506FB07F70CFB06F633
:1020500002FB0CFC16EB074645EB174516EB0C464E
:1020600045EB1C42121951F1000148BF7047B619E7
:10207000524141EB0101A3F1010370474FEA1445BE
:102080004FEA114724EA054621EA074C05FB07F110
:1020900006FB07F70CFB06F24FF0000605FB0CFCF5
:1020A00012EB074241EB174112EB0C4251EB1C4182
:1020B00048BF7047921841EB0101A3F1010370473B
:1020C00010B52DED048B82B09FEDFD0AB0EE408A75
:1020D000FC480068142870D2DFE800F00A0B1018E2
:1020E0002028555E6670777FB3F3F1F0EFEEEDECEC
:1020F00058E2F5A1F64803F051F953E2022001F04D
:10210000C3FFF1A1F24803F049F94BE20020F14985
:102110000870EDA1EE4803F041F943E20120ED49DA
:102120000870E9A1EA4803F039F93BE2EA48D0ED4A
:102130003B0AB0EE600A03F0B5F9E748D0ED3C0A7F
:10214000B0EE600A03F0AEF9E348D0ED3B0AB0EE22
:10215000600A03F0A7F9E048D0ED1A0AB0EE600A71
:1021600003F0A0F9DC48D0ED1B0AB0EE600A03F0E2
:1021700099F9D948D0ED1C0AB0EE600A03F092F943
:1021800003F03CF80EE26FF0020001F07DFFCEA1FB
:10219000CF4803F003F905E2CBA1CD4803F0FEF8E8
:1021A000012001F071FFFDE16FF0010001F06CFF13
:1021B000C5A1C74803F0F2F8F4E1EEE1C2A1C448BA
:1021C00003F0ECF802F062FEECE1BFA1C04803F0BE
:1021D000E5F8042001F058FFE4E1BBA1BC4803F09E
:1021E000DDF8BE48007A8DF80400BC48407A8DF8CE
:1021F0000500BA48807A8DF80600B848C07A8DF894
:102200000700B6488079612812D0782802D0792852
:1022100015D106E0DDED010AB0EE600A01F0E0FF45
:102220000DE0DDED010AB0EE600A01F0DFFF06E02F
:10223000DDED010AB0EE600A01F0FEFE00BF00BF56
:10224000B0E1A6480A3003F0ABFEB0EE409AF0EEE3
:10225000609A51EC190B04F009FE08EE100A9F4831
:10226000407A782804D0792807D07A280FD109E05D
:102270009B48406880ED008A09E09948406880EDFD
:10228000018A04E09648406880ED028A00BF00BFE2
:1022900094A18F4803F082F800F0C6FF044640F294
:1022A000051100F02DFF92A1894803F077F801F0A5
:1022B000A7FB77E167E15DE154E1ADE078E039E06B
:1022C000FFE786480A3003F06BFEB0EE409AF0EE6E
:1022D000609A51EC190B04F0C9FD08EE100A7F4812
:1022E000407A782804D0792807D07A280FD109E0DD
:1022F0007B48806880ED008A09E07948806880ED3D
:10230000018A04E07648806880ED028A00BF00BF41
:1023100074A16F4803F042F800F086FF044640F2D3
:10232000051100F0EDFE72A1694803F037F801F0E5
:10233000B1FB37E164A1664803F030F86748C07923
:1023400031280DD101216648C268644800793138CE
:1023500000EB40000244614880793138115415E0A7
:102360005E48C07930280DD100215D48C2685B48C5
:102370000079313800EB4000024458488079313808
:10238000115403E05FA1524803F008F863A15048DC
:1023900003F004F800F048FF044640F2051100F095
:1023A000AFFE53A14A4802F0F9FF01F0F9FAF9E053
:1023B00045A1474802F0F2FF48484079312808D14A
:1023C000012047494969454A1279114401F8310C05
:1023D00010E042484079302808D10020404949693E
:1023E0003E4A1279114401F8310C03E04EA13848FD
:1023F00002F0D4FF3BA1364802F0D0FF00F014FFFA
:10240000044640F2051100F07BFE39A1304802F08D
:10241000C5FF01F01DFBC5E02BA12D4802F0BEFF5A
:10242000072438E02D48005D312814D101212C48C3
:1024300002692A480079313800EB400000EB800047
:10244000024426488079313800EB80001044204453
:1024500000F8071C1EE02148005D302814D100213F
:102460001F4802691D480079313800EB400000EB3D
:102470008000024419488079313800EB8000104414
:10248000204400F8071C05E0A4F10A0230A110481E
:1024900002F084FF641C0C2CC4DB12A10C4802F077
:1024A0007DFF00F0C1FE044640F2051100F028FE59
:1024B0000FA1074802F072FF01F014FB72E0000068
:1024C00000000000782B00204F4B0D0A0000000098
:1024D00000100140602A0020902B0020606D002039
:1024E000746D002077726974696E670D0A000000D0
:1024F00077726974652066696E69736865640D0A30
:10250000000000006D6F646520636F6D6D616E6427
:10251000206572726F720D0A000000007772697494
:10252000696E67200D0A000028666C61736844615B
:1025300074612E7363616C654D6F64652920636FF0
:102540006D6D616E64206572726F720D0A0000001D
:1025500073656C656374202564206572726F720DFB
:102560000A000000AFF2A001134802F017FF01F0CB
:10257000DFFD17E0AFF2B0010F4802F00FFF0820B7
:1025800001F082FD0EE0AFF2C0010B4802F006FF41
:102590006FF0080001F078FD04E008A1064802F0A1
:1025A000FDFE00BF00BF00200649086003F012FED8
:1025B00002B0BDEC048B10BD001001406572726F5B
:1025C000720D0A00782B002010B587480068042897
:1025D00009D1042285A18748FDF798FF18B9012089
:1025E00085490860FFE0804800680A2809D10A226E
:1025F00082A18048FDF78AFF18B902207E49086051
:10260000F1E0794800680D2809D10D227EA17948B2
:10261000FDF77CFF18B9032077490860E3E07248B2
:1026200000680E2809D10E227BA17248FDF76EFFCB
:1026300018B9042070490860D5E06B4800680E287E
:1026400009D10E2278A16B48FDF760FF18B905206B
:1026500069490860C7E064480068092809D109226F
:1026600075A16448FDF752FF18B906206249086059
:10267000B9E05D4800680A2809D10A2271A15D48C5
:10268000FDF744FF18B907205B490860ABE05648E6
:102690000068082809D108226DA15648FDF736FFC9
:1026A00018B90820544908609DE04F4800680A287E
:1026B00009D10A2269A14F48FDF728FF18B909205E
:1026C0004D4908608FE0484800680B2809D10B226B
:1026D00065A14848FDF71AFF18B90A204649086065
:1026E00081E0414800680E2809D1062261A14148D5
:1026F000FDF70CFF18B90B203F49086073E03A481A
:1027000000680A2809DB09225CA13A48FDF7FEFEB1
:1027100018B90C203849086065E0334800680A2879
:1027200009DB092258A13348FDF7F0FE18B90D2046
:102730003149086057E02C4800680A2809D1042272
:1027400054A12C48FDF7E2FE18B90E202A49086072
:1027500049E025480068082809D104224DA12548F0
:10276000FDF7D4FE18B90F20234908603BE01E484E
:1027700000680E2809D1042246A11E48FDF7C6FEB6
:1027800018B910201C4908602DE0174800680C2873
:1027900009D10C2241A11748FDF7B8FE18B9112044
:1027A000154908601FE010480068092809D10C226B
:1027B0003EA11048FDF7AAFE18B912200E49086084
:1027C00011E0094800680B2809D10C223AA10948F8
:1027D000FDF79CFE18B913200749086003E040F29A
:1027E0009A200549086010BD742B002041540D0A41
:1027F00000000000606D0020782B002041542B6207
:102800006567696E0D0A000041542B73746F705335
:10281000656E640D0A00000041542B626567696EA5
:1028200053656E640D0A000041542B7072696E741A
:10283000446174610D0A000041542B73746F700D74
:102840000A00000041542B72657365740D0A000084
:1028500041542B7365740D0A0000000041542B7025
:1028600072696E740D0A000041542B7374617469AF
:10287000630D0A0041542B736574000041542B739F
:1028800065746D696E00000041542B736574766148
:102890007200000041542B470000000041542B649B
:1028A000656661756C740D0A0000000041542B6868
:1028B0006561740D0A00000041542B6E6F686561FC
:1028C000740D0A0000BFFEE71CB50121084601F0A7
:1028D00049F90121022001F045F90121042001F00C
:1028E00041F90620009001208DF8040000208DF8A9
:1028F000060001208DF8070003208DF805006946C9
:10290000134800F01BFC402000906946114800F07D
:1029100015FC4FF41040009069460F4800F00EFC83
:1029200002210B4800F077FC0421094800F073FCF9
:102930004021084800F06FFC4FF48051064800F039
:102940006AFC4FF40041044800F065FC1CBD000027
:102950000000024000080240000402402DE9F0415E
:1029600006460F46A2480068401CA14908600024A2
:10297000002500BFC8E00025C2E0C4EB041000EB56
:1029800080009C4901EB401005EBC50101EB0511EE
:1029900000EB411090ED000ADFED970A80EE201A5F
:1029A00004EB440007EB800000EB850090ED000A8B
:1029B00030EE410A04EB440007EB800000EB850099
:1029C00080ED000AC4EB041202EB8202894B03EB98
:1029D000421205EBC50303EB051302EB4312111D75
:1029E000C4EB041202EB8202824B03EB421205EBB2
:1029F000C50303EB051302EB43104FF44772FDF7D9
:102A0000D0FD04EB44017D4800EB810000EB850024
:102A100090ED000AC4EB041000EB8000754901EB57
:102A2000401005EBC50101EB051100EB411080EDF5
:102A3000C70AC4EB041202EB8202714B03EB421291
:102A400005EBC50303EB051302EB4312111DC4EBA9
:102A5000041202EB82026A4B03EB421205EBC50340
:102A600003EB051302EB43104FF44772FDF799FD9A
:102A7000C4EB041000EB80005E4901EB401005EB55
:102A8000C50101EB051100EB4110D0EDC70A9FED28
:102A90005A1A80EE810A04EB440007EB800000EB39
:102AA0008500D0ED000A30EE200A04EB440007EB6D
:102AB000800000EB850080ED000A04EB44014F48E4
:102AC00000EB810000EB850090ED000A04EB440070
:102AD00007EB800000EB8500D0ED000A30EE600AC5
:102AE000C4EB041000EB8000454901EB401005EBFE
:102AF000C50101EB051100EB411080EDC70A6D1C0B
:102B0000032DFFF63AAF641C032CFFF634AF3848B0
:102B10000068B0F5C87F02DA0020BDE8F0814FF40C
:102B2000C8703349086000245EE0002559E09FED3D
:102B3000350A04EB440006EB800000EB850080EDD5
:102B4000000A002034E004EB440106EB810101EBB4
:102B5000850191ED000AC4EB041101EB8101284AC3
:102B600002EB411105EBC50202EB051201EB42112C
:102B700001EB8001D1ED000AC4EB041101EB8101EE
:102B80001F4A02EB411105EBC50202EB051201EBF6
:102B9000421101EB800191ED001A00EE810A04EB75
:102BA000440106EB810101EB850181ED000A401C27
:102BB000C828C8DB04EB440006EB800000EB85006E
:102BC000D0ED000A9FED0C1A80EE810AF1EEC00AEA
:102BD00004EB440006EB800000EB8500C0ED000A2A
:102BE0006D1C032DA3DB641C032C9EDB012094E7EA
:102BF000180000205C49002000004843B02B002052
:102C00003C2D002000000000704700B5034604E0A2
:102C10004FF47A7000F004F85B1E002BF8D100BD71
:102C2000A82141434FF0E02251610521116100BF0D
:102C30004FF0E021096901F480310029F8D0042126
:102C40004FF0E0221161704770B52DED048B044602
:102C50000D4694ED000AF0EE000A80EE201AB0EE68
:102C6000418AB0EE480AFDF731FBF0EE408A94ED60
:102C7000010AF0EE000A80EE201AB0EE418AB0EEB2
:102C8000480AFDF723FB68EE808A94ED020AF0EE15
:102C9000000A80EE201AB0EE418AB0EE480AFDF735
:102CA00015FB68EE808A94ED000AF0EE000A80EED3
:102CB000201AB0EE418AB0EE480AFDF773FBB0EE81
:102CC000409A94ED010AF0EE000A80EE201AB0EE70
:102CD000418AB0EE480AFDF765FB29EE009A94EDB3
:102CE000020AF0EE000A80EE201AB0EE418AB0EE41
:102CF000480AFDF757FB49EE008A18EE906A304605
:102D000004F018FEC5E9000194ED000AF0EE000A97
:102D100080EE201AB0EE418AB0EE480AFDF742FB81
:102D2000F0EE408A94ED010AF0EE000A80EE201ADF
:102D3000B0EE418AB0EE480AFDF7C8FA68EE808A24
:102D400094ED020AF0EE000A80EE201AB0EE418AFD
:102D5000B0EE480AFDF7BAFA68EE808A94ED000AF0
:102D6000F0EE000A80EE201AB0EE418AB0EE480A7A
:102D7000FDF7ACFAB0EE409A94ED010AF0EE000ACD
:102D800080EE201AB0EE418AB0EE480AFDF70AFB49
:102D900029EE009A94ED020AF0EE000A80EE201A65
:102DA000B0EE418AB0EE480AFDF7FCFA49EE408ADF
:102DB00018EE906A304604F0BDFDC5E9020194EDBD
:102DC000000AF0EE000A80EE201AB0EE418AB0EE62
:102DD000480AFDF77BFAF0EE408A94ED010AF0EE26
:102DE000000A80EE201AB0EE418AB0EE480AFDF7E4
:102DF000D9FA68EE808A94ED020AF0EE000A80EEBD
:102E0000201AB0EE418AB0EE480AFDF75FFA68EE8C
:102E1000808A94ED000AF0EE000A80EE201AB0EEEF
:102E2000418AB0EE480AFDF7BDFAB0EE409A94ED43
:102E3000010AF0EE000A80EE201AB0EE418AB0EEF0
:102E4000480AFDF743FA29EE009A94ED020AF0EEE3
:102E5000000A80EE201AB0EE418AB0EE480AFDF773
:102E6000A1FA49EE008A18EE906A304604F062FD3D
:102E7000C5E9040194ED000AF0EE000A80EE201A84
:102E8000B0EE418AB0EE480AFDF720FAF1EE408A32
:102E900094ED010AF0EE000A80EE201AB0EE418AAD
:102EA000B0EE480AFDF712FA68EE808A94ED020A45
:102EB000F0EE000A80EE201AB0EE418AB0EE480A29
:102EC000FDF770FA68EE808A94ED000AF0EE000AD1
:102ED00080EE201AB0EE418AB0EE480AFDF762FAA1
:102EE000B0EE409A94ED010AF0EE000A80EE201A4E
:102EF000B0EE418AB0EE480AFDF754FA29EE009A86
:102F000094ED020AF0EE000A80EE201AB0EE418A3B
:102F1000B0EE480AFDF7DAF949EE408A18EE906AF9
:102F2000304604F007FDC5E90601BDEC048B70BD19
:102F300001490860704700000C3C024070B504462F
:102F40000A460026082502B909E0012A01D1160225
:102F500005E0022A01D1160201E04FF4407600F0AC
:102F600097F80546082D28D11548006820F44070D0
:102F70001349086008460068304308600846006846
:102F800020F0F80008600846006844F00201084399
:102F90000B4908600846006840F48030086000F083
:102FA00077F805460648006820F0020004490860EA
:102FB0000846006820F0F8000860284670BD000050
:102FC000103C024008201049096801F48031B1F535
:102FD000803F01D1012015E00B49096801F0100183
:102FE00009B105200EE00849096801F0EF0109B1B7
:102FF000062007E00449096801F0020109B1072031
:1030000000E00820704700000C3C024003480068C4
:1030100040F000400149086070470000103C024049
:1030200030B502460C46082500F032F80546082D5A
:1030300017D10D48006820F440700B49086008461D
:10304000006808600846006840F0010008601470DD
:1030500000F01EF805460448006820F0010002490F
:103060000860284630BD0000103C0240054800685A
:1030700000F0004028B1044802490C3908600348B8
:1030800008607047103C024023016745AB89EFCDD3
:1030900008B508200090FFF795FF009002E0FFF7C9
:1030A00091FF00909DF800000128F8D09DF80000E5
:1030B00008BD704710B540F20511094800F014F83A
:1030C000074808490860B43048600C3088600C300C
:1030D000C860093008612D304861FFF7EAFF10BD74
:1030E0008C6D0020746D00200246002003E0034B2D
:1030F000C35C1354401C8842F9D370470000040895
:1031000070B505460E46FFF7B1FFF320FFF710FF3D
:1031100002213020FFF712FFFFF7BAFF002405E07D
:10312000295D054AA018FFF77BFF641CB442F7D362
:10313000FFF76CFF70BD000000000408F0B50A4600
:1031400000210023002400BF3DE0012505FA01F322
:10315000156805EA03049C4234D105684F00032634
:10316000BE40B543056015794E00B540066835434D
:1031700005601579012D02D01579022D16D18568CB
:103180004F000326BE40B543856055794E00B540DB
:10319000866835438560456801268E40B5434560A5
:1031A000456896798E40B6B235434560C5684F0094
:1031B0000326BE40B543C560D5794E00B540C6680C
:1031C0003543C560491C1029BFD3F0BDF0B50023BD
:1031D00000244D07ED0E02FA05F3CE1000F1200594
:1031E00055F826504E07F70E0F26BE40B543CF10B8
:1031F00000F1200646F82750CE1000F1200555F8C2
:10320000265045EA0304CE1000F1200545F826407B
:10321000F0BD41837047018370470000014800788A
:10322000704700007C2B0020004870478C6D002008
:1032300038B500BFEFF3098028B100BFEFF3098074
:103240001C49086004E000BFEFF3088019490860DA
:103250001848006810301749086017A1194802F093
:103260009DF80020009018A218A1164802F096F8C8
:10327000032418E00F490968214401F11C00B0EE55
:10328000000A694600F06AF86A4610A10D4802F08B
:1032900085F8E11704EB91718910A4EB810109B95C
:1032A00001F0ACFF641E14F11C0FE3DA01F0A6FF7D
:1032B00000BFFEE714000020486172644661756C2F
:1032C00074000000001001403078000025730000F9
:1032D00030B505461C480068401C1B4908600024A6
:1032E00012E005EB8400D0ED000AB0EE600A204643
:1032F00000F04EFADFED150A80EE201A144800EBBC
:10330000840080ED001A641C032CEADB0E48006880
:10331000652817D100200FE00D4901EB800191EDE8
:10332000000ADFED0C0A30EE200A09490C3101EBEE
:10333000800181ED000A401C0328EDDB01200649D5
:10334000086030BD0020FCE7582B00200000C84278
:103350007C2C0020CDCC4C3D542B002070B52DEDA5
:10336000028B86B005460E46B0EE408A142239A183
:1033700001A8FDF716F93446002059E0B0EE000A26
:10338000C8EE000AB6EE000A30EE800ABDEEC00AB2
:10339000B8EEC00AF0EE000A20EE200AB4EEC80A29
:1033A000F1EE10FA01DD002814DCF0EE000A88EEE0
:1033B000200AF6EE000A30EE200ABDEEC00AB8EE92
:1033C000C00AF0EE000A20EE200AB4EE480AF1EE40
:1033D00010FA15D1F0EE000A88EE200AF6EE000A87
:1033E00030EE200ABDEEC00A10EE101A2944091A68
:1033F00011F8011C01AA02EB2111097804F8011B44
:10340000B0EE000AC8EE000AB6EE000A30EE800AFE
:10341000BDEEC00A10EE101A2944091A11F8011C59
:1034200001F00F0101AA515C04F8011B411CC8B254
:10343000B0EE000AC8EE000AB6EE000A30EE800ACE
:10344000BDEEC00A10EE101A814297DC06B0BDEC4A
:10345000028B70BD30313233343536373839414222
:103460004344454600000000F0B589B005460024FD
:10347000202256A101A8FDF794F86420FFF7C5FBB0
:1034800025B1012D0BD0022D1BD111E080206B2323
:10349000022256490090564800F081FD11E080203C
:1034A0006B23042251490090514800F078FD08E058
:1034B00080206B2340224F4900904D4800F06FFD63
:1034C00000BF00BF0620FFF7A0FB002479E0002624
:1034D000FF2700BF701CC6B247484069405D10B16D
:1034E000012808D103E000208DF8090003E008203E
:1034F0008DF8090000BF00BF25B1012D1DD0022DA0
:1035000051D135E0012000EB440001A9085C009096
:1035100001A810F8143002223449354800F03FFD6C
:103520003046FFF772FB01A810F8143002222F4931
:103530002F4800F0E7FC074635E0012000EB44008F
:1035400001A9085C009001A810F814300422274952
:10355000274800F024FD3046FFF757FB01A810F87C
:10356000143004222149224800F0CCFC07461AE01E
:10357000012000EB440001A9085C009001A810F8AC
:10358000143040221B491A4800F009FD3046FFF76D
:103590003CFB01A810F8143040221649144800F0F2
:1035A000B1FC074600BF00BF052E00DD06E001208C
:1035B00000EB440001A9085CB8428BD100BF601C3D
:1035C000C4B20F2C83DB09B0F0BD00006B006C00AF
:1035D0001B001A0019071C001D0668006A101E0057
:1035E00023001F003700380069000000000002407F
:1035F0000030014000080240746D002070B52DEDD0
:10360000068B04460D4624B1012C20D0022C59D142
:103610003BE0284603F009FF41EC1A0B9FED2B0B12
:1036200053EC102B03F010FD41EC190B9FED290B0F
:1036300053EC102B03F060FF41EC180B03F0C8FEB5
:10364000064631464FF0804001F085FA3AE02846C0
:1036500003F0EBFE41EC1A0B9FED1C0B53EC102B0F
:1036600003F0F2FC41EC190B9FED1A0B53EC102BFD
:1036700003F042FF41EC180B03F0AAFE0646314668
:103680004FF0804001F069FA1CE0284603F0CDFEBF
:1036900041EC1A0B9FED0D0B53EC102B03F0D4FCF7
:1036A00041EC190B9FED0B0B53EC102B03F024FF97
:1036B00041EC180B03F08CFE06463146074801F03A
:1036C00048FA00BF00BFBDEC068B70BD00000000D3
:1036D000000059400000000000408F4000040040FE
:1036E00000B587B00121080300F06CFA01210846FB
:1036F00000F038FA052211462348FFF767FD05223E
:1037000006212148FFF762FD052207211E48FFF729
:103710005DFDE020059002208DF8180000208DF856
:103720001A0001208DF81B0003208DF8190005A94F
:103730001548FFF703FD154800F038FB0020ADF8F1
:1037400000004FF48270ADF802000020ADF80400D4
:10375000ADF80600ADF808004FF40070ADF80A00AF
:103760002020ADF80C000020ADF80E000720ADF8C9
:1037700010006946054800F053FB0121034800F0A2
:1037800009FB07B000BD000000000240003001400E
:103790000EB50021009101910291544901EB800185
:1037A000D1ED000AF4EEC00AF1EE10FA0FDD4F4938
:1037B00001EB8001D1ED000A70EEC00A694601EB11
:1037C0008001C1ED000A0021494A11540EE0474929
:1037D00001EB8001D1ED000A70EE600A694601EB51
:1037E0008001C1ED000A0121414A11544049095CA0
:1037F000404A125C514059BB3F49095C891C3E4A12
:103800001154694601EB8001D1ED000A9FED3B1A8E
:10381000F4EEC10AF1EE10FA03DB1146095C091D52
:1038200011543549095C642902DB6421324A115480
:103830003149095C00EE901AF8EE600A9FED301AEB
:1038400060EE810A2F4901EB8001C1ED000A09E019
:10385000DFED2B0A2B4901EB8001C1ED000A0021AD
:10386000254A11542249095CD9B9264901EB800146
:10387000D1ED000A1D4901EB800191ED001A31EEF6
:10388000401A60EE810A9FED201AC0EE811A174996
:1038900001EB8001D1ED000A70EEE10AB0EE600AA2
:1038A0001AE0184901EB8001D1ED000A0F4901EB44
:1038B000800191ED001A30EE411A60EE810A9FED11
:1038C000121AC0EE811A094901EB8001D1ED000AFC
:1038D00071EEA00AB0EE600A044901EB800181EDAF
:1038E000000A0349095C034A11540EBD546D0020BF
:1038F0006B2B0020682B00206E2B00200AD7233C66
:10390000CDCC4C3E486D00200000804300BFFEE758
:1039100000BFFEE770B5002100230F22C4781CB35E
:10392000174C246804F4E064C4F5E064C4F3072190
:10393000C1F10404E3B20A4144789C40E1B28478C6
:10394000144021430C07210E0E4C05786155047874
:1039500004F01F050124AC4005786D11AD0005F1A0
:10396000E025C5F8004109E0047804F01F050124B2
:10397000AC40054D0678761145F8264070BD000034
:103980000CED00E000E400E080E100E002490143CA
:10399000024A1160704700000000FA050CED00E0DB
:1039A00038B501F02BFC002512E000240DE00A4898
:1039B000C06805EB45010844005D631C6A1C07A153
:1039C00000900E4801F0EAFC641C032CEFDB6D1C38
:1039D000032DEADB38BD0000746D00206779726F3B
:1039E00020256420617869732025642063686172F2
:1039F000744D6F64653A2025640D0A000010014083
:103A000010B501F0FBFB002411E0621C09A10E4877
:103A100001F0C4FC0D48406800EB8400D0ED000AC2
:103A2000B0EE600A01F03EFD01F0E8FB641C032CDF
:103A3000EBDB10BD61786973202564206D696E56DB
:103A4000616C75653A20000000100140746D002023
:103A500010B501F0D3FB002408E006484069035D7F
:103A6000621C05A10A4801F099FC641C032CF4DBDC
:103A700010BD0000746D00206779726F20256420EE
:103A80007363616C654D6F64653A2025640D0A00AF
:103A90000010014010B501F0B1FB002411E0621CE0
:103AA00009A10E4801F07AFC0D48806800EB840003
:103AB000D0ED000AB0EE600A01F0F4FC01F09EFBCC
:103AC000641C032CEBDB10BD617869732025642036
:103AD00076617258595A3A200000000000100140E7
:103AE000746D002070B5002425E0002520E001F071
:103AF00085FB6B1C621C11A1184801F04FFC0026CD
:103B000013E01748006904EB440101EB810108440C
:103B100005EB85010844805D00EE900AF8EE600A2E
:103B2000B0EE600A01F0BEFC761C052EE9DB6D1CD0
:103B3000032DDCDB641C032CD7DB70BD6779726F4F
:103B40002025642061786973202564206368617290
:103B50007453656C6563743A0D0A000000100140EF
:103B6000746D002029B1064A12680243044B1A60A2
:103B700004E0034A12688243014B1A607047000058
:103B80003038024029B1064A12680243044B1A60D9
:103B900004E0034A12688243014B1A607047000038
:103BA0004038024029B1064A12680243044B1A60A9
:103BB00004E0034A12688243014B1A607047000018
:103BC0002038024029B1064A12680243044B1A60A9
:103BD00004E0034A12688243014B1A6070470000F8
:103BE0004438024029B1064A12680243044B1A6065
:103BF00004E0034A12688243014B1A6070470000D8
:103C000024380240F0B500210022002402250026BD
:103C10000223324F3F6807F00C0121B1042905D07F
:103C2000082937D105E02E4F076036E02D4F076099
:103C300033E02A4F3F1F3F68C7F38056274F3F1F8F
:103C40003F6807F03F036EB1264FB7FBF3F7DFF88D
:103C50008CC0ACF1040CDCF800C0CCF3881C07FB72
:103C60000CF40CE01E4FB7FBF3F7DFF870C0ACF1BB
:103C7000040CDCF800C0CCF3881C07FB0CF4174FD5
:103C80003F1F3F68C7F301477F1C7D00B4FBF5F77A
:103C9000076002E0124F076000BF00BF0F4F3F6890
:103CA00007F0F0010909104F7A5C0768D7404760B8
:103CB0000A4F3F6807F4E051890A0B4F7A5C476866
:103CC000D7408760054F3F6807F46041490B064FB6
:103CD0007A5C4768D740C760F0BD000008380240F2
:103CE0000024F40000127A007D2B002000B587B07C
:103CF00001218803FFF746FF01210220FFF732FF71
:103D000005220D212148FFF761FA05220E211F48E7
:103D1000FFF75CFA4FF4C040059002208DF81800C0
:103D200000208DF81A0001208DF81B0003208DF86B
:103D3000190005A91548FFF701FA154800F036F8F3
:103D40004FF48060ADF800004FF48270ADF80200CF
:103D50000020ADF80400ADF806000120ADF8080021
:103D60004002ADF80A002020ADF80C000020ADF8AC
:103D70000E000720ADF810006946054800F050F825
:103D80000121034800F006F807B000BD000402401E
:103D90000038004021B1028842F04002028004E075
:103DA00002884FF6BF731A400280704710B5044670
:103DB0001148844208D101218014FFF713FF00212C
:103DC000A014FFF70FFF16E00C48844208D1012130
:103DD0000014FFF7E7FE00212014FFF7E3FE0AE0DE
:103DE0000748844207D10121C013FFF7DBFE002101
:103DF000E013FFF7D7FE10BD00300140003800404F
:103E0000003C00400246002013890B400BB101200A
:103E100000E0002070470146888970478181704723
:103E200010B50022028802F441520B884C882343CB
:103E30008C882343CC8823430C8923434C89234318
:103E40008C892343CC8923431A430280838B4FF20E
:103E5000FF74234083830B8A038210BD2DE9F04752
:103E600080460E4617461C46DDE9089A44F0800459
:103E700001214046FFF78EFF39463046FFF7C9F96A
:103E800000BF02214046FFF7BDFF0028F9D02146C0
:103E90004046FFF7C3FF00BF01214046FFF7B2FFD6
:103EA0000028F9D04046FFF7B6FF002517E000BF15
:103EB00002214046FFF7A6FF0028F9D00021404626
:103EC000FFF7ACFF00BF01214046FFF79BFF002832
:103ED000F9D04046FFF79FFF09F805006D1C5545D6
:103EE000E5D300BF80214046FFF78CFF0128F9D0C1
:103EF00000214046FFF74EFF39463046FFF78BF969
:103F0000BDE8F0872DE9F04180460D4616461C4677
:103F100044F0800401214046FFF73CFF314628462B
:103F2000FFF777F900BF02214046FFF76BFF00283B
:103F3000F9D021464046FFF771FF00BF01214046FE
:103F4000FFF760FF0028F9D04046FFF764FF00BF8D
:103F500002214046FFF756FF0028F9D000214046D5
:103F6000FFF75CFF00BF01214046FFF74BFF002831
:103F7000F9D04046FFF74FFFC7B200BF802140464F
:103F8000FFF740FF0128F9D000214046FFF702FF6C
:103F900031462846FFF73FF93846BDE8F0812DE964
:103FA000F04107460C4615461E46DDF818800121F3
:103FB0003846FFF7EFFE29462046FFF72AF900BFF3
:103FC00002213846FFF71EFF0028F9D03146384657
:103FD000FFF724FF00BF01213846FFF713FF002839
:103FE000F9D03846FFF717FF00BF02213846FFF728
:103FF00009FF0028F9D041463846FFF70FFF00BF00
:1040000001213846FFF7FEFE0028F9D03846FFF7B9
:1040100002FF00BF80213846FFF7F4FE0128F9D0E7
:1040200000213846FFF7B6FE29462046FFF7F3F891
:10403000BDE8F0817047000000B52DED028B83B024
:10404000B0EE408A9FED0C0A8DED000A9FED0A0A42
:104050008DED010ADFED090A88EE200ADFED080A7E
:1040600020EE200A8DED020A06496846FEF7ECFDB7
:1040700003B0BDEC028B00BD000000000000344323
:10408000DB0F4940902B0020012814D00CDC10F1EC
:10409000090F41D010F1050F37D010F1030F2DD0CB
:1040A00010F1020F3FD122E002280BD0042810D0DB
:1040B000082838D114E01D49097841F001011B4A54
:1040C000117030E01949097841F00201174A117066
:1040D00029E01649097841F00401144A117022E0E0
:1040E0001249097841F00801104A11701BE00F498C
:1040F000097821F001010D4A117014E00B4909788B
:1041000021F00201094A11700DE00849097821F0F7
:104110000401064A117006E00449097821F00801FB
:10412000024A117000BF00BF704700007C2B0020C6
:1041300070B50024002500BF1DE0002518E0012017
:104140002449C96804EB44021144485500200CE09E
:104150000121204A126904EB440303EB83031A4450
:1041600005EB85031A441154401C0528F0DB6D1C37
:10417000032DE4DB641C032CDFDB002404E00020BF
:10418000144949690855641C032CF8DB002008E039
:104190009FED110A0F49496801EB800181ED000A8A
:1041A000401C0328F4DB002008E09FED0C0A0949BD
:1041B000896801EB800181ED000A401C0328F4DBD3
:1041C000FFF732F8064640F20511FEF799FF00F0BE
:1041D0005DFE70BD746D0020CDCCCC3DA69B443BF4
:1041E000014880ED000A70472C2B0020014880ED2B
:1041F000000A7047302B00200CB500200190009081
:104200003448006840F480303249086000BF3148CB
:10421000006800F4003000900198401C0190009864
:1042200018B90198B0F5A06FF1D12A48006800F4E0
:10423000003010B10120009001E0002000900098B3
:10424000012846D123484030006840F08050214981
:10425000403108602048006840F480401E490860F2
:104260001C48083000681B4908310860084600688F
:1042700040F4004008600846006840F4A050086020
:104280001648091F0860081F006840F08070091F69
:10429000086000BF0F48006800F000700028F9D0E7
:1042A00040F205600E4908600A480830006820F0B6
:1042B00003000849083108600846006840F0020021
:1042C000086000BF03480830006800F00C000828B0
:1042D000F8D10CBD0038024000700040085440077F
:1042E000003C024010B51548006840F470001349C6
:1042F00008601348006840F0010011490860002080
:104300000F49083108600E4800680E4908400C4902
:1043100008600D48091D0860081F006820F480200F
:10432000091F0860002006490C310860FFF764FF90
:104330004FF0006001498039086010BD88ED00E051
:1043400000380240FFFFF6FE1030002410B50121B6
:10435000044800F0FEF9012803D10121014800F0D2
:10436000E9F910BD0000014030B595B000250024EA
:104370000121880700F0EDF901287DD10121800796
:1043800000F0D8F9BB480068401CBA490860BA4838
:104390000068401CB8490860B64890ED000AB8EEC5
:1043A000400AF1EE040AB4EEE00AF1EE10FA05DB81
:1043B0000020B04908600120B049087000246EE078
:1043C000204602F00BF9204602F014FA204602F0D3
:1043D0004FF8694601EB840002F042F804EB440117
:1043E0000CAA02EB810002F02BF804EB440103AAB3
:1043F00002EB810002F014F800253AE004EB4400DF
:104400009F4901EB800000EB850090ED000A04EB72
:1044100044000CA901EB800000EB8500D0ED000A00
:1044200030EE200A04EB4400954901EB800000EBDC
:10443000850080ED000A04EB4400924901EB800006
:1044400000EB850090ED000A04EB440003A901EBAA
:10445000800000EB8500D0ED000A30EE200A04EB6E
:104460004400884901EB800000EB850080ED000AE4
:104470006D1C032DC2DB00E0F6E0834800EB8400F6
:1044800090ED000A684600EB8400D0ED000A30EEA3
:10449000200A7D4800EB840080ED000A641C032C98
:1044A0008EDB01F0A5FF10B96846FEF711FF7248D8
:1044B0000068052870D175480078401C7349087061
:1044C00000206D490860002441E06F4800EB840043
:1044D00090ED000AF1EE040A80EE201A6C4800EB21
:1044E000840080ED001A00252EE004EB44006449AE
:1044F00001EB800000EB850090ED000AF1EE040A6C
:1045000080EE201A04EB44016148CC3800EB8100B6
:1045100000EB850080ED001A04EB4400594901EBE3
:10452000800000EB850090ED000AF1EE040A80EEB9
:10453000201A04EB44015648483800EB810000EB98
:10454000850080ED001A6D1C032DCEDB641C032C4E
:10455000BBDB002413E04E4800EB8400D0ED000AE2
:10456000B0EE600A2046FFF713F9DFED4A0A80EE4D
:10457000201A474800EB840080ED001A641C032CCD
:10458000E9DB002448E09FED440A3F4800EB84004B
:1045900080ED000A00253CE06AE004EB44013C4861
:1045A000CC3800EB810000EB850090ED000A04EBB5
:1045B00044013748183000EB810000EB8500D0ED56
:1045C000000A334800EB840090ED001A00EEC10AA7
:1045D00004EB44012E48A83800EB810000EB850075
:1045E00080ED000A9FED2C0A04EB4400244901EB06
:1045F000800000EB850080ED000A9FED270A04EBA8
:104600004400204901EB800000EB850080ED000AAA
:104610006D1C032DC1DB641C032CB4DB002520E0E2
:104620001B48A83800EB850090ED000A18489C381C
:1046300000EB8500D0ED000A30EE200A14489038D7
:1046400000EB8500D0ED000A30EE200AF0EE080AFB
:1046500080EE201A0E48843800EB850080ED001AA9
:104660006D1C032DDCDB03E00CA10F4800F096FE6F
:1046700015B030BD08000020100000200C00002004
:10468000E82C00200C2D0020302D00200D000020F3
:104690007C2C00200000C8420000000054494D322C
:1046A000206572726F7200000010014010B5012188
:1046B000044800F04EF8012803D10121014800F020
:1046C00039F810BD0004004010B50121044800F085
:1046D00040F8012803D10121014800F02BF810BD5A
:1046E0000008004010B50121044800F032F801280C
:1046F00003D10121014800F01DF810BD000C00405D
:1047000010B50121044800F024F8012803D101214B
:10471000014800F00FF810BD0004014021B10288EB
:1047200042F08002028004E002884FF67F731A4054
:1047300002807047CA430282704721B1028842F06A
:104740000102028004E002884FF6FE731A400280E4
:10475000704730B50246002000230024158A05EA80
:104760000103958905EA010413B10CB1012000E0B1
:10477000002030BD1AB183890B43838102E0838915
:104780008B438381704700002DE9FF4104460D46AD
:1047900016461F46DDF828806949601A8C4270D0A1
:1047A0001ADC6849A4EB01008C426CD00ADCB4F13D
:1047B000804F4ED064482044002852D0B0F5806F1E
:1047C00071D156E0B0F5806F65D0B0F5006F6CD058
:1047D000B0F5406FF4D170E0B0F5923F21D009DC24
:1047E000B0F5806F7AD0B0F5644F0AD0B0F5684F5D
:1047F0007CD10EE0B0F5943F1BD0B0F5963F75D15B
:104800001FE001210846FFF7DDF919208DF80000AF
:104810006DE001210220FFF7D5F92C208DF8000072
:1048200065E001210804FFF7CDF918208DF800009C
:104830005DE001211920FFF7C5F92C208DF800005B
:1048400055E001218804FFF7BDF91A208DF800001A
:104850004DE001210846FFF795F91C208DF8000076
:1048600045E001210220FFF78DF91D208DF80000A1
:104870003DE001210420FFF785F91E208DF800009E
:1048800035E023E0FFE701210820FFF77BF9322024
:104890008DF800002BE001211020FFF773F936207E
:1048A0008DF8000023E021E0FFE701212020FFF741
:1048B00069F937208DF8000019E001214020FFF749
:1048C00061F92B208DF8000011E007E00121802024
:1048D000FFF758F92C208DF8000008E001210802AC
:1048E000FFF750F92D208DF8000000E000BF00BF59
:1048F0000295ADF804600020ADF80C00ADF806009C
:1049000001A9204600F02CF901212046FFF712FFF3
:10491000012211462046FFF72DFFF8B28DF8010065
:1049200008F0FF008DF8020001208DF803006846B2
:10493000FEF7F0FF01212046FFF7FFFEBDE8FF81F3
:10494000001C0040000C004000FCFFBF70B50024BC
:1049500000220023058C4FF6EF7635400584028C4B
:104960008388048B48F6FF752C404FF6FF452C409A
:104970000D884FF6FF7606EA05252C434FF6DF75C6
:104980002A408D8906EA05152A434D8806EA051551
:104990002A43154DA84202D0144DA8421DD14FF60E
:1049A0007F752A40CD894FF6FF7606EA05152A4322
:1049B0004FF6BF752A408D8806EA05152A434FF643
:1049C000FF352B404FF2FF752B400D8A06EA850517
:1049D0002B434D8A06EA85052B43838004838D682B
:1049E0008563028470BD00000000014000040140A6
:1049F0000A460021018B4FF2FF7319404FF6FF73F7
:104A000003EA0223194301837047000070B50024B4
:104A100000220023058C4FF6FF6635400584028C8A
:104A20008388848B4FF68F752C404FF6FC752C4095
:104A30000D882C434FF6FF552A408D894FF6FF769F
:104A400006EA05252A434D8806EA05252A43154D21
:104A5000A84202D0144DA8421DD14FF2FF752A4042
:104A6000CD894FF6FF7606EA05252A434FF6FF3536
:104A70002A408D8806EA05252A434EF6FF752B400D
:104A80004DF6FF752B400D8A06EA05152B434D8A1E
:104A900006EA05152B43838084838D68C5630284F1
:104AA00070BD000000000140000401400A460021E2
:104AB000818B4FF6F77319401143818370470000D3
:104AC00070B5002200230024058C4EF6FF76354099
:104AD0000584038C8488828B48F6FF752A404FF644
:104AE000FF452A400D884FF6FF7606EA05252A4342
:104AF0004DF6FF752B408D8906EA05352B434D8811
:104B000006EA05352B430A4DA84202D0094DA842BA
:104B100008D14BF6FF752C400D8A4FF6FF7606EA5A
:104B200085152C43848082838D680564038470BD61
:104B300000000140000401400A460021818B4FF231
:104B4000FF7319404FF6FF7303EA02231943818371
:104B5000704781637047C16370470164704700000C
:104B600000220288184B98420ED0184B98420BD066
:104B7000B0F1804F08D0164B984205D0154B9842A3
:104B800002D0154B984204D14FF68F731A404B88D0
:104B90001A43124B984207D0114B984204D04FF65B
:104BA000FF431A400B891A4302804B68C3620B888B
:104BB0000385054B984202D0044B984201D18B7A71
:104BC00003860123838270470000014000040140F6
:104BD0000004004000080040000C004000100040AD
:104BE0000014004070B52DED028B04460D461DB13A
:104BF0000020974941F82400964850F82400401CB2
:104C0000944941F82400084650F8240040F6B83191
:104C1000B0FBF1F201FB120000287DD18E4850F864
:104C20002400B0F1FF3F02D0012860D160E08B4842
:104C300000EB840090ED000A894800EB8400D0ED81
:104C4000000A30EE600ADFED870AB4EEE00AF1EE0A
:104C500010FA4CDB844800EB840090ED000ADFED95
:104C6000830AB4EEE00AF1EE10FA0EDD7E4800EBA6
:104C7000840090ED000ADFED7D0A30EE600A7A488C
:104C800000EB840080ED000A31E0774800EB8400FF
:104C900090ED000AB5EEC00AF1EE10FA07DD9FEDC7
:104CA000740A714800EB840080ED000A1FE06E4832
:104CB00000EB840090ED000AB5EEC00AF1EE10FAA8
:104CC00015D10120644941F82400674800EB8400B5
:104CD00090ED000ADFED650A30EE200A624800EB35
:104CE000840080ED000A0320594941F8240059E06E
:104CF0005A4800EB840090ED000A594800EB84000C
:104D0000D0ED000A30EE600ADFED580AB4EEE00A9A
:104D1000F1EE10FA46D800E04FE0534800EB840073
:104D200090ED000ADFED530AB4EEE00AF1EE10FA5E
:104D300030D24A4800EB840090ED000A10EE101AC1
:104D4000084602F0F7FD41EC180B9FED4B0B53ECBE
:104D5000102B02F0CFFC0ED2434800EB840090ED04
:104D6000000ADFED420A30EE200A3F4800EB8400E3
:104D700080ED000A15E03C4800EB840090ED000A4D
:104D8000F6EE000A30EE200A374800EB840080ED92
:104D9000000A06E09FED3A0A334800EB840080EDFC
:104DA000000A00BF00BF2D4800EB840090ED000A10
:104DB0002B4800EB840080ED000A284800EB8400BB
:104DC00090ED000A10EE101A084602F0B3FD41EC17
:104DD000180B9FED2C0B53EC102B02F08BFC05D223
:104DE0004FF0FF301C4941F824001FE01B4800EB46
:104DF000840090ED000A10EE101A084602F09AFDA9
:104E000041EC180B9FED1C0B53EC102B02F038FB00
:104E10000CD2114850F82400401C18B903200C494A
:104E200041F8240001200C4941F824000E4800EB11
:104E3000840090ED000ABDEEC00A10EE101A204664
:104E4000FEF7DCFB024850F82400BDEC028B70BD7D
:104E5000186D00203C6D00205C2B00207C2C002075
:104E6000306D0020CDCCCCBD246D0020CDCCCC3D10
:104E700000000000CDCCC742666666666666D63F17
:104E80000000C842CDCCCCCCCCCCDC3FF8B5002463
:104E90000025FEF7C9F9064640F20511FEF724F990
:104EA00000BF43E000253EE000F0A8F94148C0689B
:104EB00004EB44010844405D6B1C621C3EA1009061
:104EC000454800F06BFA002614E03A48006804EB0D
:104ED000440101EB810100EB810005EB850100EB52
:104EE000810000EB8600D0ED000AB0EE600A00F011
:104EF000D9FA761C052EE8DB00F080F900260FE0D9
:104F00002C48006904EB440101EB8101084405EBE6
:104F100085010844825D31A12F4800F03FFA761CDC
:104F2000052EEDDB6D1C032DBEDB641C032CB9DBF1
:104F300000F064F900F062F9002408E01D484069BF
:104F4000035D621C26A1244800F028FA641C032C8F
:104F5000F4DB00F053F9002611E0721C26A11E4874
:104F600000F01CFA1348406800EB8600D0ED000A00
:104F7000B0EE600A00F096FA00F040F9761C032EBD
:104F8000EBDB00F03BF9002611E0721C1FA1124878
:104F900000F004FA0748806800EB8600D0ED000AB4
:104FA000B0EE600A00F07EFA00F028F9761C032EBD
:104FB000EBDBF8BD746D00206779726F20256420EB
:104FC000617869732025642063686172744D6F6431
:104FD000653A2025640D0A0000100140256409008F
:104FE0006779726F202564207363616C654D6F640F
:104FF000653A2025640D0A006178697320256420D4
:105000006D696E56616C75653A2000006178697350
:105010002025642076617258595A3A200000000019
:1050200010B540F22551054800F0FFF8012804D1E1
:1050300040F22551014800F0C6F810BD0050004074
:1050400010B540F225511D4800F0EFF8012830D18D
:1050500040F22551194800F0B6F8184800F044FA1B
:10506000C4B2174817490968445416480068401CE0
:10507000144908600846006801280FDD08460068EA
:10508000401E0F49085C0A2808D10E480068801E9F
:10509000085C0D2802D1FDF797FA0EE00848007869
:1050A00041280AD001F096F807A1044800F076F9EB
:1050B00003E0024800F018FAC4B210BD001001402D
:1050C000606D0020742B00204E4F542053544152E9
:1050D000542057495448202741270D0A000000005A
:1050E00010B588B0044601210846FEF73BFD0121BA
:1050F0001020FEF767FD072209212448FEF766F815
:1051000007220A212148FEF761F84FF4C06006909B
:1051100002208DF81C008DF81D0000208DF81E0067
:1051200001208DF81F0006A91848FEF707F8029421
:105130000020ADF80C00ADF80E00ADF81000ADF891
:1051400014000C20ADF8120002A9114800F0BCF8C0
:1051500040210F4800F02EF825208DF80400012092
:105160008DF805008DF806008DF8070001A8FEF700
:10517000D1FB012240F22551054800F080F80121C1
:10518000034800F02FF808B010BD000000000240F6
:105190000010014010B540F22551054800F045F8D7
:1051A000012804D140F22551014800F00CF810BD4F
:1051B0000048004001F40072B2F5007F00D100BF4A
:1051C000CA430280704710B50022002340F66A14DB
:1051D000A14200D100BF0A1201249440A3B2DC43D3
:1051E000048010BD21B1828942F40052828104E022
:1051F00082894DF6FF731A408281704710B502A173
:10520000024800F0CBF810BD0D0A0000001001406C
:1052100002460020B1F5007F00D100BF13880B408B
:105220000BB1012000E00020704770B50246002459
:1052300000230025002040F66A16B14200D100BFCD
:10524000C1F3421501F01F03012606FA03F3012DF5
:1052500002D19689334006E0022D02D1168A3340EE
:1052600001E0968A33400C12012606FA04F41688EF
:10527000344013B10CB1012000E0002070BDF0B546
:105280000346002400260025002040F66A17B94294
:1052900000D100BF1846C1F3421401F01F060127D8
:1052A00007FA06F5012C01D10C3004E0022C01D1E3
:1052B000103000E014301AB107682F43076002E095
:1052C0000768AF430760F0BD2DE9FF4705460E466E
:1052D0000024A14600BFA046B08900B100BF2C8ABF
:1052E00024F44054F08804432C82AC8941F20C60D1
:1052F0008443B08831890843718908430443AC81F1
:10530000AC8A24F44074B0890443AC826846FEF74A
:1053100079FC2048854202D01F48854202D1DDF841
:105320000C9001E0DDF80890A88900F4004040B13D
:1053300009EBC90000EB091031684900B0FBF1F737
:1053400007E009EBC90000EB091031688900B0FBE8
:10535000F1F76420B7FBF0F004012009642101FBA0
:105360001078A88900F4004040B1322000EBC8005A
:10537000B0FBF1F000F00700044308E0322000EB3E
:1053800008106421B0FBF1F000F00F0004432C8101
:10539000BDE8FF8700100140001401400FB470B554
:1053A00086B006460CA8019073E00B9800785C2844
:1053B0001CD10B98401C0B9000786E2809D07228E5
:1053C0000FD10D21304600F094F80B98401C0B9043
:1053D0000BE00A21304600F08CF80B98401C0B9033
:1053E00003E00B98401C0B9000BF4BE00B9800783B
:1053F000252840D10B98401C0B900078642818D0C9
:10540000732833D1019810C801900BE02178304601
:1054100000F06FF800BF40213046FFF7F9FE00288A
:10542000F9D0641C20780028F0D10B98401C0B9018
:1054300020E0019820C801900A2202A9284601F024
:105440005BFA02AC0BE02178304600F052F800BF66
:1054500040213046FFF7DCFE0028F9D0641C20789C
:105460000028F0D10B98401C0B9003E00B98401CD7
:105470000B9000BF06E00B9810F8011B0B90304614
:1054800000F037F800BF40213046FFF7C1FE00288A
:10549000F9D00B980078002887D106B070BC5DF871
:1054A00014FB000000B52DED048B83B0B0EE408AF4
:1054B000002000900190029018EE100A02F03AFAD3
:1054C00041EC190B53EC192B05A16846FAF7D6FFEE
:1054D00069460448FFF762FF03B0BDEC048B00BDD2
:1054E000256609000010014001468888C0F30800C5
:1054F000704730B504460D4600BF80212046FFF7B7
:1055000087FE0028F9D080212046FFF753FE402176
:105510002046FFF74FFEC5F30800A08030BD000015
:10552000F0B52DED0C8BB5B0302128A8FBF76BF84A
:105530001822FD4922A8FBF734F800201E901F9086
:1055400020902190F849183103C9CDE91C01302180
:1055500010A8FBF758F81822F34920310AA8FBF7E6
:1055600020F800200690079008900990EE49383105
:1055700003C9CDE9040100270024002500F062FCE6
:1055800020B9002035B0BDEC0C8BF0BDE749E848F0
:10559000FDF7E4F908B90020F4E7002447E000250E
:1055A00042E004EB4400E24A02EB800000EB85009D
:1055B00090ED000AF1EE040A20EE200A10EE101A17
:1055C000084602F0B7F941EC180B04EB4402D94845
:1055D00000EB820000EB850090ED000A04EB440034
:1055E000D24A02EB800000EB8500D0ED000A30EEDD
:1055F000600A10EE101A084602F09CF941EC1A0BF2
:10560000B0EE4A0AF0EE6A0A00F0E6FCB0EE409A0C
:10561000F0EE609A53EC182B51EC190B02F06AF87B
:1056200001D20020AEE76D1C032DBADB641C032CF5
:10563000B5DB0024D9E0BF48CC3000EB840090ED0E
:10564000000A10EE101A084602F074F941EC180B2B
:105650009FEDB90B53EC102B02F04CF87ED8B548F7
:10566000CC3000EB840090ED000A10EE101A0846D2
:1056700002F060F941EC180B9FEDB10B53EC102BCD
:1056800001F0FEFE6AD2AB48CC3000EB840090ED16
:10569000000A10EE101A084602F04CF99FEDA60B16
:1056A00053EC102B02F05CF89FEDA70B53EC102B82
:1056B00001F022FF01F0DAFB08EE100AB0EE480A12
:1056C00000F0FEFCBDEEC00A10EE107AC4EB041030
:1056D00000EB80009E4901EBC00050F82700F0B3BA
:1056E00000253EE004EB4402924800EB820000EB10
:1056F000850090ED000A10EE101A084602F01AF923
:1057000041EC180BC4EB4410C0EB0420914901EBB1
:105710000010C5EB051101EB810100EB011000EB5E
:10572000C70090ED001BB0EE410AF0EE610A53ECA9
:10573000102B51EC180B01F0CBFBC4EB4412C2EB65
:105740000422844B03EB0212C5EB051303EB830326
:1057500002EB031202EBC70203C201E044E003E0E4
:105760006D1C032DBEDB2CE000251EE004EB440283
:10577000704800EB820000EB850090ED000A10EE0F
:10578000101A084602F0D6F8C4EB4412C2EB042209
:10579000704B03EB0212C5EB051303EB830302EB23
:1057A000031202EBC70203C26D1C032DDEDB0020D7
:1057B000C4EB041101EB8101654A02EBC10141F820
:1057C0002700C4EB041000EB8000614901EBC0002E
:1057D00050F82700401CC4EB041101EB81015C4A26
:1057E00002EBC10141F82700641C032CFFF623AF34
:1057F00059480068401C5849086008460068C82895
:1058000030D1002008604B482038D0ED3B0AB0EE84
:10581000600AFFF747FE4648D0ED020AB0EE600A84
:10582000FFF740FE43482038D0ED3C0AB0EE600A56
:10583000FFF738FE3E48D0ED050AB0EE600AFFF7EC
:1058400031FE3C482038D0ED3D0AB0EE600AFFF74B
:1058500029FE3748D0ED080AB0EE600AFFF722FEB5
:10586000FFF7CCFC0024E2E200212046FFF7BAF962
:10587000032858D10020019002900390224637A1BE
:105880003A48FFF78BFD00267DE1C4EB041000EBE6
:1058900080002F4901EBC00050F8260000286BD093
:1058A000304601F0C2FD9FED320B53EC102B01F09E
:1058B0000FFB9FED250B53EC102B01F0C5FB41ECCA
:1058C000180BC4EB041101EB8101214A02EBC10169
:1058D00051F8260001F0C0FD53EC182B01F00CFE2E
:1058E00041EC190B1CA800EBC40090ED001BB0EEBE
:1058F000410AF0EE610A53EC102B51EC190B01F048
:10590000E7FA1CAA02EBC40203C2C4EB041101EBC8
:1059100081010F4A02EBC10151F8260001F09CFD04
:1059200053EC182B29E081E2987B0008A86C00203A
:10593000846C0020B02B0020666666666666D63FE3
:1059400034A2B437F8C2DC3F0000000000408F40B2
:105950007C65002020000020502A00200D0A666986
:105960006E697368202564200D0A20000010014034
:105970000000000000E07540D1E001F0BDFD53ECF7
:10598000182B01F0B9FD41EC190B04A800EBC40081
:1059900090ED001BB0EE410AF0EE610A53EC102BC3
:1059A00051EC190B01F094FA04AA02EBC40203C2F1
:1059B000C4EB041000EB8000FE4901EBC00050F87E
:1059C000260001A951F82410084401A941F8240037
:1059D0000025A0E0C4EB4410C0EB0420F64901EB25
:1059E0000010C5EB051101EB810100EB011000EB8C
:1059F000C60090ED001BB0EE410AF0EE610A53ECD8
:105A0000182B51EC100B01F077FD41EC190B04EB56
:105A1000440022A901EBC00000EBC50090ED001B83
:105A2000B0EE410AF0EE610A53EC102B51EC190B69
:105A300001F04EFA04EB440222AB03EBC20202EB8C
:105A4000C50203C2C4EB4410C0EB0420DA4901EBE9
:105A50000010C5EB051101EB810100EB011000EB1B
:105A6000C60090ED002BB0EE420AF0EE620A04EBA5
:105A700044000AA901EBC00000EBC50090ED002B2B
:105A8000B0EE421AF0EE621A53EC102B51EC110BEF
:105A900001F01EFA04EB44020AAB03EBC20202EB74
:105AA000C50203C2C4EB041101EB8101C14A02EB40
:105AB000C10151F8260001F0CFFC41EC190BC4EBF9
:105AC0004410C0EB0420BC4901EB0010C5EB0511EC
:105AD00001EB810100EB011000EBC60090ED001B13
