:020000040800F2
:100000004072002081020008552600085D1B000890
:100010005126000881140008914F000800000000DC
:10002000000000000000000000000000913A0008FD
:10003000011500080000000097020008990200085E
:100040009B0200089B0200089B0200089B0200081C
:100050009B0200089B0200089B0200089B0200080C
:100060009B0200089B0200089B0200089B020008FC
:100070009B0200089B0200089B0200089B020008EC
:100080009B0200089B0200089B0200089B020008DC
:100090009B0200089B0200089B0200089B020008CC
:1000A0009B020008593C00089B0200089B020008C4
:1000B000753C0008C53C0008E13C00089B020008B4
:1000C0009B0200089B0200089B0200089B0200089C
:1000D0009B020008854600089B0200080D480008A6
:1000E0009B0200089B0200089B0200089B0200087C
:1000F000193D00089B0200089B0200089B020008B3
:100100009B0200089B020008FD3C00089B020008BF
:100110009B020008654600089B0200089B0200083D
:100120009B0200089B0200089B0200089B0200083B
:100130009B0200089B0200089B0200089B0200082B
:100140009B0200089B0200089B0200089B0200081B
:100150009B0200089B0200089B0200089B0200080B
:100160009B0200089B0200089B0200089B020008FB
:100170009B0200089B0200089B0200089B020008EB
:100180009B0200089B02000800F002F800F069F8EA
:100190000AA090E8000C82448344AAF10107DA45E2
:1001A00001D100F05EF8AFF2090EBAE80F0013F0CB
:1001B000010F18BFFB1A43F001031847C08300006A
:1001C000E08300000A444FF0000C10F8013B13F0EC
:1001D000070408BF10F8014B1D1108BF10F8015BA0
:1001E000641E05D010F8016B641E01F8016BF9D193
:1001F00013F0080F1EBF10F8014BAD1C0C1B09D1EA
:100200006D1E58BF01F801CBFAD505E014F8016B5B
:1002100001F8016B6D1EF9D59142D6D370470000ED
:100220000023002400250026103A28BF78C1FBD8FF
:10023000520728BF30C148BF0B607047662907F0DE
:100240003B84002070471FB507F0FBFB00F0EAFB82
:1002500004000020002106F02DFDE0601FBD10B558
:1002600010BD00F0DFFC1146FFF7EDFF06F056FA77
:1002700000F0FDFC03B4FFF7F2FF03BC00F03EFD0D
:100280000948804709480047FEE7FEE7FEE7FEE72A
:10029000FEE7FEE7FEE7FEE7FEE7FEE70448054966
:1002A000054A064B70470000F13B00088901000831
:1002B000402C002040720020406E0020406E002044
:1002C000DFED300AB5EEC00A60EE200ABDEEE01A9E
:1002D00011EE100AF1EE10FA38BF401E00EE100ABF
:1002E0009FED291AB8EEC00A70EEC00A20EE810A0E
:1002F000BCEEC00A10EE100A00EE100A0028B8EE9C
:10030000C00A10EE810AB8BF002004DBB0F5807F80
:10031000C8BF4FF480701D4960EE000AB6EE001AA7
:10032000DFED1C2A9FED1A2A60EE011A60EE225AB8
:1003300020EE813A20EE022A21EEA01A01EB800085
:1003400073EE655A62EE202AB7EE006A33EE003A89
:10035000D0EC043A76EE611A71EE600A35EEE20AEC
:1003600033EE413A32EEC21A70EEA10A20EE230AB1
:1003700064EE831A04EE200A45EE011A31EE800A7B
:100380007047000083F9223E00008043BC7A0008D9
:10039000ABAA2A3EABAAAA3EDFED300AB5EEC00AF0
:1003A00060EE200ABDEEE01A11EE100AF1EE10FA2E
:1003B00038BF401E00EE100A9FED291AB8EEC00AA1
:1003C00070EEC00A20EE810ABCEEC00A10EE100AE0
:1003D00000EE100A0028B8EEC00A10EE810AB8BF7D
:1003E000002004DBB0F5807FC8BF4FF480701D494A
:1003F00060EE000AB6EE001ADFED1C2A9FED1A2A05
:1004000060EE011A60EE225A20EE813A20EE022AB6
:1004100021EEA01A01EB800073EE655A62EE202AED
:10042000B7EE006A33EE003AD0EC043A76EE611A89
:1004300071EE600A35EEE20A33EE413A32EEC21A4C
:1004400070EEA10A20EE230A64EE831A04EE200A5D
:1004500045EE011A31EE800A7047000083F9223E12
:1004600000008043CC7E0008ABAA2A3EABAAAA3E7D
:100470000FB41CB5074B06AA7B446946009005984B
:1004800000F0B7FA0020694600F0C6FA1CBC5DF81F
:1004900014FB00009D0500002DE9F0410E460446C6
:1004A000002020622046E168884730B3252805D027
:1004B000D4E901219047206A401CF2E7E168204618
:1004C00000278847050018D0A5F14100192802D857
:1004D00020354FF400673246294620462760FFF753
:1004E000ADFE40B1012804D0F61D26F007060836FF
:1004F000D8E7361DD6E72846DAE7206ABDE8F0815E
:1005000010B5203AC0F00B80B1E81850203AA0E8AE
:100510001850B1E81850A0E81850BFF4F5AF5FEAE2
:10052000027C24BFB1E81850A0E8185044BF18C995
:1005300018C0BDE810405FEA827C24BF51F8043B3C
:1005400040F8043B08BF7047D20728BF31F8023B90
:1005500048BF11F8012B28BF20F8023B48BF00F824
:10056000012B70474FF0000200B5134694469646A3
:10057000203922BFA0E80C50A0E80C50B1F12001B6
:10058000BFF4F7AF090728BFA0E80C5048BF0CC064
:100590005DF804EB890028BF40F8042B08BF7047C2
:1005A00048BF20F8022B11F0804F18BF00F8012B34
:1005B000704770477047704710B500F037FA006811
:1005C00010BD10B5044600F031FA046010BD70474C
:1005D0002DE9FF4F0C461E464FF0FF378BB0D2E996
:1005E0000001DDF860800A908A46C1F30A5505B91A
:1005F0003D46002108464FF00000BAF1000F00F41C
:10060000400005DA00EB80004FF4400101EA5000A1
:100610004FEA9059B9F1010F00DDB9460A9850EA46
:100620004A000ED044F61050A5F2FF3545432F1472
:10063000B8F1000F1ED07542291E1EDDC9F100025F
:100640001CE0B8F1010F4FF0000001D0302103E0B1
:10065000F24305E02154401CB042FBDB304600224F
:10066000002121540B99C1F80880C1E900200FB086
:10067000BDE8F08FBD1B6D1CDEE74A4600DA69421B
:1006800006A800F05DFA06AB93E8070003AB83E829
:10069000070050460A9900F038FB8DE80700A0F5E6
:1006A00000501F3800900398002D09DD42F21F0111
:1006B0004A46084403A90390684600F097FD08E005
:1006C000A0F500504A461F3803A90390684600F081
:1006D000A1FD8DE807000004000C03D04FF0FF30AF
:1006E000410800E01046B8F1000F03D0002200924C
:1006F00015461EE0751E05D400F09CF93032625597
:100700006D1EF9D5B3460122084302D000227F1C9A
:1007100004E02078302801D100227F1E002A0997AA
:1007200086D01DE0112D07DA00F084F930326255D1
:100730006D1C50EA0102F5D1084302D00098C8B1FF
:100740000EE00021681E05E0235C625C63542254C5
:10075000401E491C8142F7DBAB46A81B401E099096
:10076000002004F80B000B98099AC0F80880C0E933
:10077000002B7CE711264FF0000859E72DE9F04FD8
:1007800088460446D21D22F0070191B0D1E900014C
:10079000CDE90A0104F0FEFB02460B98C00F01D020
:1007A0002D2007E02068810701D52B2002E02021C1
:1007B00001EAC000032A099001D0072A05DB03469D
:1007C0004146204600F07CF90BE12078800601D5F7
:1007D000E06900E00620B8F1650F814606D0B8F167
:1007E000660F18D0B8F1670F70D131E00020B9F171
:1007F000110F009001DB112301E009F101030AAAA6
:1008000001A90CA8FFF7E4FEDDE90C70002609F150
:100810000105834647E001204B4600904FF000471A
:100820000AAA01A90CA8FFF7D3FEDDE90DB00C99C7
:100830005D46002610B909F101000D18B9EB05005D
:1008400003D4C0F1FF3609F10105A5EB09002BE047
:10085000B9F1010F01DA4FF001090020B9F1110FD0
:100860000090484601DD112300E003460AAA01A9D1
:100870000CA8FFF7ADFEDDE90C704D46002683465F
:10088000207800070AD4AB4500DA5D4601A8012DA7
:1008900004DD411911F8011C302907D04F4502DA57
:1008A00017F1040F04DA012082460FE06D1EEEE717
:1008B000002F02DCED1B3E4403E0781CA84200DD63
:1008C0007D1CB81B00F1010A4FF00047207800079B
:1008D00003D4AA4501DB4FF0FF3A0021B7F1004FE6
:1008E0000DF143088DF8431024D002202B23002F54
:1008F00001DA7F422D230A21021EA0F1010000DC53
:100900005FB197FBF1FC97FBF1F201FB1C7C1746F2
:100910000CF1300C08F801CDEEE7A8F101000370EE
:100920002188090501D5452100E06521A0F10108D4
:1009300000F8011C09980FA9A1EB0807FF1D00B1E1
:100940000120411901EBEA70A1693844081A401EE0
:10095000A0612078C00602D42046AFF30080099839
:1009600028B1D4E901219047206A401C20622078F8
:10097000C00622D52046AFF300801EE0002E04DB27
:10098000B34502DD01A8805D00E03020D4E90121FB
:100990009047206A401C2062761CAAF101005FEAA1
:1009A000000A0AD100F03EF8C0680168405CD4E952
:1009B00001219047206A401C2062281EA5F10105F4
:1009C000DCDC07E0D4E9012118F8010B9047206A2C
:1009D000401C2062381EA7F10107F3DC2046AFF36C
:1009E0000080032011B043E601694A1C02610878C7
:1009F000704700B58FB0CDE901310021059105495F
:100A00007944CDE9031011466846FFF745FD0FB064
:100A100000BD0000E5FFFFFF0A6802F8010B0A6055
:100A20007047000000487047002C002000487047C5
:100A3000E02B002030B5B0F10A024FEA900E71F1C0
:100A400000034EEA817EB0EB0E0061EB91014FEAAC
:100A5000101E4EEA017E10EB0E0041EB11114FEA21
:100A6000102E4EEA016E10EB0E0041EB11214FEA01
:100A7000104E4EEA014E10EB0E0041EB11414018B2
:100A800041F100014FEAD00040EA41704FEAD10144
:100A900010EB80054FEA810444EA907444EB0104B2
:100AA0006D1944EB0404521BA3414FF0000348BFEF
:100AB0000A3200D530BD401C41F1000130BD0000BC
:100AC0002DE9F0411F46044603260168072A01F478
:100AD000006004DB08B116A505E016A503E008B127
:100AE00015A500E015A521F010002060A069C01E2A
:100AF000A0610FB1401EA0612046AFF300804FB14E
:100B0000D4E9012138469047206A401C2062C01C6D
:100B1000206206E0206AFAE7D4E9012115F8010B0A
:100B20009047761EF8D22046AFF30080BDE8F081F2
:100B30004E414E006E616E00494E4600696E660081
:100B40002DE9F047814616468AB0334878440DC8EF
:100B50008DE80D0030487844801C03AC0DC884E853
:100B60000D0041F69B300844372190FBF1F290FBD9
:100B7000F1F5A5F1800501FB12041B3C02D564428E
:100B8000012000E00020DFF890A080460027FA4412
:100B9000AAF1BE0A0DE0E00709D03246684607EB2D
:100BA00047010AEB810100F035FB8DE80700641076
:100BB0007F1C002CEFD1184F7F44AC3F18E0E807B2
:100BC00014D007EB04100DF1180A90E80E008AE823
:100BD0000E00C068F04201D198190890324606A96B
:100BE00003A800F017FB03AB83E807006D10641C3B
:100BF000002DE4D132466946B8F1000F03A802D0B7
:100C000000F0F4FA01E000F005FBC9E90001C9F8C1
:100C100008200AB0BDE8F087147A00000048704749
:100C2000E02B00207546FFF7F9FFAE460500694648
:100C3000534620F00700854618B020B5FFF72EFB7D
:100C4000BDE820404FF000064FF000074FF00008CD
:100C50004FF0000B21F00701AC46ACE8C009ACE84E
:100C6000C009ACE8C009ACE8C0098D46704704462D
:100C7000AFF300802046FFF7FDFA00004FF0013C83
:100C800050F8042B51F8043B9A4221D1A2EB0C03FB
:100C9000934313EACC1317D150F8042B51F8043BBB
:100CA0009A4215D1A2EB0C03934313EACC130BD158
:100CB00050F8042B51F8043B9A4209D1A2EB0C03E3
:100CC000934313EACC13DBD04FF00000704700BF12
:100CD000D01A01BAB1FA81F101F0180122FA01F03B
:100CE000CB40C1F12001DBB2C0B2C01A2CFA01F333
:100CF000D11A914311EAC311E6D170470149182076
:100D0000ABBEFEE72600020070475FEA400C08BF5A
:100D100091F0000F4FEA8C234FEAC12243EA515170
:100D20004FEA1C5018BF00F5F0404FEA300018BFE2
:100D300041F000415FEA6C5C00F02980BCF1FF3FAC
:100D400008BF40F080407047130C06BF12044FF0FC
:100D5000100C4FF0000C130E04BF12020CF1080C23
:100D6000130F04BF12010CF1040C930F04BF920087
:100D70000CF1020CD30F04BF52000CF1010C114610
:100D80004FF00002A0F11F00A0EB0C00704711F023
:100D9000004F08BF704731F000413FF4D5AF0B0C56
:100DA00006BF09044FF0100C4FF0000C0B0E04BFEF
:100DB00009020CF1080C0B0F04BF09010CF1040C23
:100DC0008B0F04BF89000CF1020CCB0F04BF49004C
:100DD0000CF1010CCCF12003A0EB0C0022FA03F380
:100DE00002FA0CF241EA030100F10100704720F021
:100DF0007F4C80EA030023F07F47ACEB070303F549
:100E00007C5300F0004003F1FF032DE980494FEAD5
:100E1000154B09B44FEA144325EA0B4E24EA034864
:100E20000FF2042606EB132749083E785FEA3202E8
:100E300003FB0667C7F5000707FB06F64FEA5437C2
:100E40004FEAD64606F1020607FB066CCCF1005CC1
:100E50004FEA1C472CEA074C07FB06F40CFB06F58F
:100E600004EB15464FEA961634BF00204FF00040C1
:100E70004FEAD13706FB07FC4FEA1C4C0CFB0BF783
:100E8000D21B03FB0CF761EB07010CFB0EF7B0EB79
:100E9000074072EB17420CFB08F734BFA2EB074286
:100EA000B2EB074261EB17414FEA0C444FEA91075E
:100EB00006FB07FC4FEA1C4C0CFB0BF7B0EBC740E2
:100EC00072EB573203FB0CF734BFA2EBC742B2EB15
:100ED000C74261EB57310CFB0EF7B0EBC70072EB6A
:100EE00057720CFB08F734BFA2EBC702B2EBC70284
:100EF00061EB5771039F4FEA816141EA921104EB64
:100F0000CC044FEAD1374FEA826206FB07FC42EA83
:100F100090124FEA80604FEA1C4C0CFB0BF7D21B7F
:100F200003FB0CF761EB07010CFB0EF7B0EB07407E
:100F300072EB17420CFB08F734BFA2EB0742B2EB8F
:100F4000074261EB17414FEA8C554FEA910704EBDA
:100F50009C2406FB07FC4FEA1C4C0CFB0BF7B0EB88
:100F6000C74072EB573203FB0CF734BFA2EBC7420A
:100F7000B2EBC74261EB57310CFB0EF7B0EBC70089
:100F800072EB57720CFB08F734BFA2EBC702B2EB4F
:100F9000C70261EB577115EB4C254FEA816141EABD
:100FA00092114FEA82624FEAD13742EA901206FB71
:100FB00007FC44F100044FEA80604FEA1C4C0CFB34
:100FC0000BF7D21B03FB0CF761EB07010CFB0EF7D1
:100FD000B0EB074072EB17420CFB08F734BFA2EBF3
:100FE0000742B2EB074261EB174115EB1C154FEAC4
:100FF000813141EA92414FEA823242EA90424FEA1D
:1010000080304FEA0C7644F1000448EA03434EEA8C
:101010000B484FF0000EB2EB080C71EB030724BF36
:10102000624639464EEB0E0E4FF0000B001852414F
:1010300049414BEB0B0BB2EB080C71EB03077BF157
:10104000000B24BF624639464EEB0E0E4FF0000BEC
:101050000018524149414BEB0B0BB2EB080C71EB02
:1010600003077BF1000B24BF624639464EEB0E0EA0
:1010700051EA020718BF46F0010616EB0E7655F14D
:10108000000254F1000103D5BDE88901BDE80088E4
:10109000BDE88901BDE80048B619524141EB0101A4
:1010A000A3F10103704780807F7E7D7C7B7A797815
:1010B000777676757473727171706F6E6E6D6C6C1D
:1010C0006B6A6A69686867666665646463636261BF
:1010D0006160605F5F5E5E5D5D5C5C5B5B5A5A5940
:1010E00059585857575656555555545453535252AC
:1010F0005251515050504F4F4F4E4E4D4D4D4C4C04
:101100004C4B4B4B4A4A4A4949494848484747474C
:101110004746464645454544444444434343434289
:10112000424242414141002B26D4770021D01CB5D8
:101130004FEA370703B44FF010004FF010014FF0A3
:1011400000000FBCBDE810400BF1010BBBF1010F1B
:1011500008BF5FEA170722BF12F1010211F1010176
:101160004FF0004143F1000300F0004043EA00006B
:101170007047F9D35708DAE746EA064613F1400FFD
:101180004FEA16461FDD13F1200FDFBF16430A4654
:10119000002120335B42C8D0C3F1200746EA06464F
:1011A00002FA07F74FEA164646EA0706C3F1200798
:1011B00022FA03F201FA07F721FA03F14FF00003D4
:1011C00042EA0702B1E746EA020646EA06464FEA65
:1011D000164646EA0106BCBF46EA0646360C4FF004
:1011E00000034FF000024FF000019EE72DE9C048D8
:1011F000934630B491E8380007C831EA400C48BF44
:1012000034EA430C03D5FFF7F2FDFFF78CFFF0BC87
:10121000BDE800882DE9C048934630B491E8380015
:1012200007C810F0804F08BF13F0804F03D100F0C3
:1012300005F8FFF778FFF0BCBDE8008820F07F4795
:1012400080EA030023F07F4C07EB0C03A3F57C53EB
:1012500000F00040A3F1FE0392F0000F00F0B38015
:1012600095F0000F00F077802DE901494FEA114019
:101270004FEA144621EA004800FB06FC24EA064730
:1012800008FB06F607FB08F800FB07F718EB064813
:101290004CEB164C4FEA124B18EB07484FEA154639
:1012A0004CEB174022EA0B4E0BFB06FC25EA0647E7
:1012B0000EFB06F607FB0EFE0BFB07F71EEB064EBA
:1012C0004CEB164C4FF000061EEB074E4CEB174B49
:1012D00018EB0B0840F1000018EB0E0B58EB000860
:1012E00040F100008F1A4FF000013CBFC943661B5C
:1012F00014BFB5EB040C00213CBFC943F61B4FEAF9
:1013000017444EEA8E0E27EA04454FEA1C4704FBB9
:1013100007622CEA074C05FB07F70CFB05F604FBFC
:101320000CFC16EB074642EB174216EB0C4642EB61
:101330001C421BEB060658EB0202414146EA9E06A0
:1013400001D5BDE80189B619524141EB0101A3F174
:101350000103BDE801894FEA14454FEA114724EA29
:10136000054621EA074C05FB07F406FB07F70CFBD3
:1013700006F105FB0CFC11EB074144EB17444FEA67
:10138000124711EB0C4144EB1C4422EA074C05FBCD
:1013900007F206FB07F70CFB06F605FB0CFC16EB49
:1013A000074642EB174216EB0C4642EB1C456A1807
:1013B00054F1000148BF7047B619524141EB010199
:1013C000A3F10103704795F0000F37D04FEA1142A7
:1013D0004FEA144721EA024624EA074C02FB07F1D0
:1013E00006FB07F70CFB06F402FB0CFC14EB0744AE
:1013F00041EB17414FEA154714EB0C4441EB1C41FC
:1014000025EA074C02FB07F506FB07F70CFB06F67F
:1014100002FB0CFC16EB074645EB174516EB0C469A
:1014200045EB1C42121951F1000148BF7047B61933
:10143000524141EB0101A3F1010370474FEA14450A
:101440004FEA114724EA054621EA074C05FB07F15C
:1014500006FB07F70CFB06F24FF0000605FB0CFC41
:1014600012EB074241EB174112EB0C4251EB1C41CE
:1014700048BF7047921841EB0101A3F10103704787
:1014800000BFFEE71CB50121084601F00FFF012156
:10149000022001F00BFF1820009001208DF80400BD
:1014A00000208DF8060001208DF8070003208DF83C
:1014B00005006946104800F0D7FA4FF41440009038
:1014C00069460E4800F0D0FA10210B4800F039FBB5
:1014D0000821094800F035FB4FF48051074800F01F
:1014E00030FB4FF40041054800F02BFB4FF48061C6
:1014F000024800F026FB1CBD000002400004024030
:10150000704700B5034604E04FF47A7000F004F829
:101510005B1E002BF8D100BDA82141434FF0E02213
:1015200051610521116100BF4FF0E021096901F40B
:1015300080310029F8D004214FF0E022116170477A
:1015400010B52DED040B2DED048B88B0DDED0D0AEB
:10155000B0EE600AFEF7B4FEF0EE408ADDED0E0A52
:10156000B0EE600AFEF7ACFEB7EE008A08EE808AA5
:10157000DDED0C0AB0EE600AFEF7A2FEF0EE408A46
:10158000DDED0E0AB0EE600AFEF79AFE08EE808AE4
:10159000DDED0C0AB0EE600AFEF792FEF0EE408A36
:1015A000DDED0D0AB0EE600AFEF78AFE08EE808AD5
:1015B000DDED0C0AB0EE600AFEF7EEFEF0EE408ABA
:1015C000DDED0D0AB0EE600AFEF7E6FE68EE808AF9
:1015D000DDED0E0AB0EE600AFEF7DEFE08EE808A50
:1015E000B1EEC80AF6EE000A20EE200A10EE104A0C
:1015F000204606F0B5F9CDE900019DED001BB0EEE7
:10160000410AF0EE610A9FED851B53EC112B51EC62
:10161000100B05F0AFFD10D19FED820B8DED000B8F
:101620009FED7E0B8DED020B9FED7C0B8DED040B82
:101630009FED7A0B8DED060BE4E0DDED0C0AB0EECC
:10164000600AFEF7A9FEB0EE409ADDED0D0AB0EE9D
:10165000600AFEF7A1FEF0EE409ADDED0E0AB0EE54
:10166000600AFEF799FE09EE809ADDED0C0AB0EEF5
:10167000600AFEF791FEF0EE409ADDED0D0AB0EE45
:10168000600AFEF71DFE69EE809ADDED0E0AB0EEEF
:10169000600AFEF715FE09EE809AB1EE000AC9EE67
:1016A000000A10EE904A204606F05AF941EC180B59
:1016B0009DED001BB0EE410AF0EE610A53EC102BD9
:1016C00005F000FCCDE90201DDED0D0AB0EE600A87
:1016D000FEF762FEB0EE409ADDED0E0AB0EE600A53
:1016E000FEF7EEFD29EE009ADDED0D0AB0EE600A80
:1016F000FEF7E6FDF0EE409ADDED0E0AB0EE600A70
:10170000FEF74AFE69EE809ADDED0C0AB0EE600A43
:10171000FEF742FE09EEC09ADDED0D0AB0EE600A5A
:10172000FEF73AFEF0EE409ADDED0C0AB0EE600AEC
:10173000FEF7C6FD09EE809AB1EE000AC9EE000A76
:1017400010EE904A204606F00BF941EC180B9DED87
:10175000001BB0EE410AF0EE610A53EC102B05F0CD
:10176000B1FBCDE90401DDED0D0AB0EE600AFEF734
:10177000A7FDB1EE409ADDED0E0AB0EE600AFEF76D
:101780000BFE29EE009ADDED0D0AB0EE600AFEF7C1
:1017900003FEF0EE409ADDED0E0AB0EE600AFEF7B1
:1017A0008FFD69EE809ADDED0C0AB0EE600AFEF75F
:1017B000F3FD09EE809ADDED0E0AB0EE600AFEF749
:1017C000EBFDF0EE409ADDED0C0AB0EE600AFEF79C
:1017D00077FD09EEC09AB1EE000AC9EE000A10EEDC
:1017E000904A204606F0BCF841EC180B9DED001B1A
:1017F000B0EE410AF0EE610A53EC102B05F062FBEB
:10180000CDE906019DED000B9DED021B9DED042B26
:101810009DED063B08B0BDEC048B1FBD0000000031
:1018200000000000000000000000F03F01490860D7
:10183000704700000C3C024070B504460A46002682
:10184000082502B909E0012A01D1160205E0022AA1
:1018500001D1160201E04FF4407600F097F80546FA
:10186000082D28D11548006820F4407013490860FD
:1018700008460068304308600846006820F0F80019
:1018800008600846006844F0020108430B490860FC
:101890000846006840F48030086000F077F805469C
:1018A0000648006820F00200044908600846006805
:1018B00020F0F8000860284670BD0000103C02408F
:1018C00008201049096801F48031B1F5803F01D149
:1018D000012015E00B49096801F0100109B105204C
:1018E0000EE00849096801F0EF0109B1062007E0A0
:1018F0000449096801F0020109B1072000E008204D
:10190000704700000C3C02400348006840F0004073
:101910000149086070470000103C024030B50246A3
:101920000C46082500F032F80546082D17D10D4861
:10193000006820F440700B490860084600680860A1
:101940000846006840F001000860147000F01EF8BE
:1019500005460448006820F0010002490860284656
:1019600030BD0000103C02400548006800F0004017
:1019700028B1044802490C390860034808607047E0
:10198000103C024023016745AB89EFCD08B5082024
:101990000090FFF795FF009002E0FFF791FF0090A5
:1019A0009DF800000128F8D09DF8000008BD7047A0
:1019B00010B54FF4C8610A4800F01CF808480949FE
:1019C000086000F5C8700849086000F5C87007494C
:1019D000086000F5C87006490860FFF7E8FF10BD11
:1019E000A025002084010020880100208C01002017
:1019F000900100200246002003E0034BC35C135417
:101A0000401C8842F9D370470000040810B5FFF766
:101A1000ABFFF320FFF70AFF02213020FFF70CFF96
:101A2000FFF7B4FFFFF770FF10BD000070B505466B
:101A30000E46FFF799FFF320FFF7F8FE0221302052
:101A4000FFF7FAFEFFF7A2FF002405E0295D054A33
:101A5000A018FFF763FF641CB442F7D3FFF754FFED
:101A600070BD000000000408F0B50A460021002304
:101A7000002400BF3DE0012505FA01F3156805EAE1
:101A800003049C4234D105684F000326BE40B54391
:101A9000056015794E00B540066835430560157937
:101AA000012D02D01579022D16D185684F0003262D
:101AB000BE40B543856055794E00B54086683543D4
:101AC0008560456801268E40B54345604568967936
:101AD0008E40B6B235434560C5684F000326BE4010
:101AE000B543C560D5794E00B540C6683543C5607D
:101AF000491C1029BFD3F0BDF0B5002300244D07C9
:101B0000ED0E02FA05F3CE1000F1200555F826502F
:101B10004E07F70E0F26BE40B543CF1000F120064A
:101B200046F82750CE1000F1200555F8265045EA1A
:101B30000304CE1000F1200545F82640F0BD418396
:101B4000704701837047000001480078704700002B
:101B50000900002000487047A025002000BFFEE7D4
:101B600030B58BB0002420222EA103A8FEF7C8FCBC
:101B70006420FFF7C6FC80206B23102231490090BF
:101B8000314801F03AFF80206B23C2002F490090BA
:101B90002F4801F032FF0120FFF7B3FC0520FFF7CB
:101BA000B0FC00BF3AE000252AA00068029000BF08
:101BB000681CC5B2012000EB440003A9085C00903A
:101BC00003A810F8143010221E491F4801F015FF19
:101BD0002846FFF796FC052D00DD012503A810F827
:101BE000143010221749184801F0BAFE8DF8080089
:101BF00003A810F814304FF480621449144801F01F
:101C0000AFFE8DF809009DF80800012101EB4401A9
:101C100003AA515C8842CBD1601CC4B20F2CC2DB3A
:101C20000BB030BD6B006C001B001A0019071C00C4
:101C30001D0668006A101E0023001F0037003800D0
:101C40006900000000000240003001400004024032
:101C500000380040FFFF000010B52DED0A8BB0EEFC
:101C6000408AF0EE608A9FED6D0BB0EE40AAF0EE78
:101C700060AA6C4890ED000BB0EE409AF0EE609ACE
:101C8000C4226949A1F10800FEF73AFC53EC192B74
:101C900051EC180B05F07AFD634A083A02F5C4725C
:101CA00003C29FED5E0BB0EE40AAF0EE60AA0024E6
:101CB00022E05D48083800EBC40090ED002BB0EE48
:101CC000420AF0EE620A5848083800EBC40090ED72
:101CD000002BB0EE421AF0EE621A53EC102B51ECCE
:101CE000110B05F047FB41EC1B0B53EC1A2B05F0D5
:101CF00035F841EC1A0B641C322CDADB9FED4B0BF0
:101D000053EC102B51EC1A0B05F0DCF841EC1A0BDC
:101D1000484890ED000B53EC102B474890ED000B1A
:101D200051EC100B05F01AF8444A03C2444890EDF8
:101D3000000B53EC102B414890ED000B51EC100BB5
:101D400005F00CF841EC1B0B53EC1B2B3B4890EDC2
:101D5000000B51EC100B05F0B5F83A4A03C253ECF6
:101D6000192B51EC180B05F011FD41EC1C0B3548FB
:101D700090ED000B53EC102B51EC1C0B05F0FAFA14
:101D800041EC1B0B53EC192B04F0E8FF254A03C26E
:101D90002C4890ED000B53EC102B9FED2B0B51ECCE
:101DA000100B05F0F3FC41EC1B0B244890ED000BED
:101DB00053EC102B51EC1B0B05F0DCFA1E4A03C24E
:101DC000204890ED000B53EC102B90ED000B51ECE4
:101DD000100B05F0CFFA41EC1B0B53EC1A2B05F05E
:101DE000C9FA144A03C29FED1A0B53EC102B154885
:101DF00090ED000B51EC100B05F0BAFB02D2094834
:101E000080ED008B074890ED000B51EC100B04F0B7
:101E100073FF00EE100ABDEC0A8B10BD000000003D
:101E20000000000028010020D02300200000000056
:101E30000000494048010020300100203801002006
:101E40005001002040010020000000000000F03F91
:101E5000000000000000E03F10B52DED0A8BB0EE51
:101E6000408AF0EE608A9FED6A0BB0EE40AAF0EE79
:101E700060AA694890ED000BB0EE409AF0EE609ACF
:101E8000C4226649A1F10800FEF73AFB53EC192B76
:101E900051EC180B05F07AFC604A083A02F5C4725E
:101EA00003C29FED5B0BB0EE40AAF0EE60AA0024E7
:101EB00022E05A48083800EBC40090ED002BB0EE49
:101EC000420AF0EE620A5548083800EBC40090ED73
:101ED000002BB0EE421AF0EE621A53EC102B51ECCC
:101EE000110B05F047FA41EC1B0B53EC1A2B04F0D5
:101EF00035FF41EC1A0B641C322CDADB9FED480BEA
:101F000053EC102B51EC1A0B04F0DCFF41EC1A0BD4
:101F1000454890ED000B53EC102B444890ED000B1E
:101F200051EC100B04F01AFF414A03C2414890EDF6
:101F3000000B53EC102B3E4890ED000B51EC100BB6
:101F400004F00CFF41EC1B0B53EC1B2B384890EDBD
:101F5000000B51EC100B04F0B5FF374A03C253ECF1
:101F6000192B51EC180B05F011FC41EC1C0B3248FD
:101F700090ED000B53EC102B51EC1C0B05F0FAF913
:101F800041EC1B0B53EC192B04F0E8FE224A03C270
:101F9000294890ED000B53EC102B9FED280B51ECD2
:101FA000100B05F0F3FB41EC1B0B214890ED000BEF
:101FB00053EC102B51EC1B0B05F0DCF91B4A03C250
:101FC0001D4890ED000B53EC102B90ED000B51ECE5
:101FD000100B05F0CFF941EC1B0B53EC1A2B05F05D
:101FE000C9F9114A03C29FED170B53EC102B12488D
:101FF00090ED000B51EC100B05F0BAFA02D2064836
:1020000080ED008B044890ED000BBDEC0A8B10BDF9
:102010000000000000000000C8000020B0200020E8
:102020000000000000004940E8000020D00000202F
:10203000D8000020F0000020E00000200000000098
:102040000000F03F000000000000E03F10B52DED63
:102050000A8BB0EE408AF0EE608A9FED6A0BB0EE1C
:1020600040AAF0EE60AA694890ED000BB0EE409AED
:10207000F0EE609AC4226649A1F10800FEF740FA2A
:1020800053EC192B51EC180B05F080FB604A083A11
:1020900002F5C47203C29FED5B0BB0EE40AAF0EEF6
:1020A00060AA002422E05A48083800EBC40090EDF2
:1020B000002BB0EE420AF0EE620A5548083800EBF9
:1020C000C40090ED002BB0EE421AF0EE621A53EC11
:1020D000102B51EC110B05F04DF941EC1B0B53EC9F
:1020E0001A2B04F03BFE41EC1A0B641C322CDADB99
:1020F0009FED480B53EC102B51EC1A0B04F0E2FE51
:1021000041EC1A0B454890ED000B53EC102B444862
:1021100090ED000B51EC100B04F020FE414A03C27D
:10212000414890ED000B53EC102B3E4890ED000B16
:1021300051EC100B04F012FE41EC1B0B53EC1B2B6B
:10214000384890ED000B51EC100B04F0BBFE374A01
:1021500003C253EC192B51EC180B05F017FB41ECA3
:102160001C0B324890ED000B53EC102B51EC1C0B68
:1021700005F000F941EC1B0B53EC192B04F0EEFDBC
:10218000224A03C2294890ED000B53EC102B9FED1F
:10219000280B51EC100B05F0F9FA41EC1B0B214810
:1021A00090ED000B53EC102B51EC1B0B05F0E2F8FB
:1021B0001B4A03C21D4890ED000B53EC102B90ED11
:1021C000000B51EC100B05F0D5F841EC1B0B53EC58
:1021D0001A2B05F0CFF8114A03C29FED170B53ECF1
:1021E000102B124890ED000B51EC100B05F0C0F9CC
:1021F00002D2064880ED008B044890ED000BBDEC48
:102200000A8B10BD0000000000000000F800002054
:10221000402200200000000000004940180100207A
:1022200000010020080100202001002010010020F2
:10223000000000000000F03F000000000000E03F50
:1022400010B52DED0A8BB0EE408AF0EE608A9FED5E
:102250006A0BB0EE40AAF0EE60AA694890ED000B60
:10226000B0EE409AF0EE609AC4226649A1F10800EF
:10227000FEF746F953EC192B51EC180B05F086FAD2
:10228000604A083A02F5C47203C29FED5B0BB0EEE0
:1022900040AAF0EE60AA002422E05A48083800EB79
:1022A000C40090ED002BB0EE420AF0EE620A5548F1
:1022B000083800EBC40090ED002BB0EE421AF0EEAF
:1022C000621A53EC102B51EC110B05F053F841EC52
:1022D0001B0B53EC1A2B04F041FD41EC1A0B641C50
:1022E000322CDADB9FED480B53EC102B51EC1A0B20
:1022F00004F0E8FD41EC1A0B454890ED000B53EC5F
:10230000102B444890ED000B51EC100B04F026FD0F
:10231000414A03C2414890ED000B53EC102B3E485C
:1023200090ED000B51EC100B04F018FD41EC1B0B71
:1023300053EC1B2B384890ED000B51EC100B04F0C4
:10234000C1FD374A03C253EC192B51EC180B05F0B1
:102350001DFA41EC1C0B324890ED000B53EC102B96
:1023600051EC1C0B05F006F841EC1B0B53EC192B40
:1023700004F0F4FC224A03C2294890ED000B53EC10
:10238000102B9FED280B51EC100B05F0FFF941ECE1
:102390001B0B214890ED000B53EC102B51EC1B0B49
:1023A00004F0E8FF1B4A03C21D4890ED000B53ECFC
:1023B000102B90ED000B51EC100B04F0DBFF41EC07
:1023C0001B0B53EC1A2B04F0D5FF114A03C29FEDEF
:1023D000170B53EC102B124890ED000B51EC100B27
:1023E00005F0C6F802D2064880ED008B044890ED57
:1023F000000BBDEC0A8B10BD0000000000000000C7
:1024000098000020201F002000000000000049402C
:10241000B8000020A0000020A8000020C00000207C
:10242000B0000020000000000000F03F00000000AD
:102430000000E03F10B52DED0C8BB0EE408A9FED13
:10244000740BB0EE40AAF0EE60AA734890ED000B5A
:10245000B0EE409AF0EE609AC4227049081FFEF771
:102460004FF818EE100A05F07BFA41EC1C0B53EC08
:10247000192B05F08BF941EC1B0B04F03DFC67496F
:10248000091FC1F8C400664801780078401C644AFE
:102490001070322904DAB0EE480ABDEC0C8B10BD86
:1024A00032205F4908709FED5A0BB0EE40AAF0EE63
:1024B00060AA002415E05948001F00EB840090ED4D
:1024C000000A20EE000A10EE101A084605F048FA3D
:1024D00041EC1B0B53EC1A2B04F040FC41EC1A0BA3
:1024E000641C322CE7DB9FED4F0B53EC102B51ECAF
:1024F0001A0B04F0E7FC41EC1A0B4C4890ED000B72
:1025000053EC102B4A4890ED000B51EC100B04F0EB
:1025100025FC484A03C2484890ED000B53EC102BB1
:10252000444890ED000B51EC100B04F017FC41EC0B
:102530001B0B53EC1B2B3F4890ED000B51EC100B89
:1025400004F0C0FC3D4A03C218EE100A05F008FA78
:1025500041EC1D0B53EC192B05F018F941EC1C0B49
:10256000364890ED000B53EC102B51EC1C0B04F093
:1025700001FF41EC1B0B53EC192B04F0EFFB264A37
:1025800003C22E4890ED000B53EC102B9FED2C0B4B
:1025900051EC100B05F0FAF841EC1B0B254890EDBF
:1025A000000B53EC102B51EC1B0B04F0E3FE204A04
:1025B00003C2224890ED000B53EC102B90ED000B62
:1025C00051EC100B04F0D6FE41EC1B0B53EC1A2B14
:1025D00004F0D0FE154A03C29FED1B0B53EC102BE9
:1025E000164890ED000B51EC100B04F0C1FF05D222
:1025F00018EE100A05F0B4F9074A03C2064890ED38
:10260000000B51EC100B04F077FB00EE100A44E7CE
:102610000000000000000000200000209C0C0020B2
:102620005000002000000000000049404000002051
:102630002800002030000020480000203800002042
:10264000000000000000F03F000000000000E03F3C
:1026500000BFFEE700BFFEE770B5002100230F2298
:10266000C4781CB3174C246804F4E064C4F5E06437
:10267000C4F30721C1F10404E3B20A4144789C4049
:10268000E1B28478144021430C07210E0E4C0578EA
:102690006155047804F01F050124AC4005786D11E4
:1026A000AD0005F1E025C5F8004109E0047804F02B
:1026B0001F050124AC40054D0678761145F82640EB
:1026C00070BD00000CED00E000E400E080E100E0FF
:1026D00002490143024A1160704700000000FA05F8
:1026E0000CED00E010B52DED0E0BA6B09DED2E0B00
:1026F0008DED0A0B9FEDFE0B53EC102B9DED0A0B9D
:1027000051EC100B04F0DEFB9FEDFB0B53EC102B98
:10271000CDE90C019DED0C0B51EC100B04F02AFEE1
:10272000CDE92E019DED300B8DED0A0B9FEDF00BE9
:1027300053EC102B9DED0A0B51EC100B04F0C2FB77
:102740009FEDED0B53EC102BCDE90C019DED0C0B27
:1027500051EC100B04F00EFECDE930019DED320B73
:102760008DED0A0B9FEDE20B53EC102B9DED0A0B48
:1027700051EC100B04F0A6FB9FEDDF0B53EC102B7C
:10278000CDE90C019DED0C0B51EC100B04F0F2FDAA
:10279000CDE932019DED320B8DED060B9DED2C0B3D
:1027A0008DED040B9DED060B53EC102B9DED040BF2
:1027B00051EC100B04F0DEFDCDE90A019DED300B6C
:1027C0008DED020B9DED2A0B8DED000B9DED020BA7
:1027D00053EC102B9DED000B51EC100B04F0CAFDD7
:1027E000CDE906019DED280B8DED000B9DED000B55
:1027F00051EC100B04F074FACDE902019DED2E0BA3
:102800008DED000B9DED000B53EC102B9DED020B9D
:1028100051EC100B04F0AEFDCDE904019DED060B6B
:1028200053EC102B9DED040B51EC100B04F0AEFF9C
:10283000CDE908019DED0A0B53EC102B9DED080B23
:1028400051EC100B04F0A2FF9FEDAD0B53EC102BDD
:10285000CDE90C019DED0C0B51EC100B04F08AFD41
:10286000CDE91E019DED300B8DED060B9DED2C0B82
:102870008DED040B9DED060B53EC102B9DED040B21
:1028800051EC100B04F076FDCDE90A019DED320B01
:102890008DED020B9DED2A0B8DED000B9DED020BD6
:1028A00053EC102B9DED000B51EC100B04F062FD6E
:1028B000CDE906019DED2E0B8DED020B9DED260B56
:1028C0008DED000B9DED020B53EC102B9DED000BDD
:1028D00051EC100B04F04EFDCDE904019DED060B0B
:1028E00053EC102B9DED040B51EC100B04F036FA59
:1028F000CDE908019DED0A0B53EC102B9DED080B63
:1029000051EC100B04F042FF9FED7D0B53EC102BAC
:10291000CDE90C019DED0C0B51EC100B04F02AFDE0
:10292000CDE920019DED2E0B8DED060B9DED2C0BC1
:102930008DED040B9DED060B53EC102B9DED040B60
:1029400051EC100B04F016FDCDE90A019DED320BA0
:102950008DED020B9DED280B8DED000B9DED020B17
:1029600053EC102B9DED000B51EC100B04F002FD0D
:10297000CDE906019DED300B8DED020B9DED260B93
:102980008DED000B9DED020B53EC102B9DED000B1C
:1029900051EC100B04F0EEFCCDE904019DED060BAB
:1029A00053EC102B9DED040B51EC100B04F0EEFEDC
:1029B000CDE908019DED0A0B53EC102B9DED080BA2
:1029C00051EC100B04F0CAF99FED4D0B53EC102B9A
:1029D000CDE90C019DED0C0B51EC100B04F0CAFC81
:1029E000CDE922019DED2E0B8DED060B9DED2A0B01
:1029F0008DED040B9DED060B53EC102B9DED040BA0
:102A000051EC100B04F0B6FCCDE90A019DED300B42
:102A10008DED020B9DED280B8DED000B9DED020B56
:102A200053EC102B9DED000B51EC100B04F0A2FCAD
:102A3000CDE906019DED320B8DED020B9DED260BD0
:102A40008DED000B9DED020B53EC102B9DED000B5B
:102A500051EC100B04F08EFCCDE904019DED060B4A
:102A600053EC102B9DED040B51EC100B04F076F998
:102A7000CDE908019DED0A0B53EC102B9DED080BE1
:102A800051EC100B04F082FE9FED1D0B53EC102B4C
:102A9000CDE90C019DED0C0B51EC100B04F06AFC20
:102AA000CDE924019DED1E0B8DED0A0B9FED160B5C
:102AB00053EC102B9DED0A0B51EC100B04F05AFC5B
:102AC000CDE90C019DED260B8DED0A0B9DED0A0B5A
:102AD00053EC102B9DED0C0B51EC100B04F03EF958
:102AE000CDE90E019DED200B8DED0A0B10E00000ED
:102AF000000000000080664000000060FB210940EB
:102B0000000000000000E03F7B14AE47E17A743F14
:102B10001FED030B53EC102B9DED0A0B51EC100B2A
:102B200004F028FCCDE90C019DED280B8DED0A0B7E
:102B30009DED0A0B53EC102B9DED0C0B51EC100B83
:102B400004F00CF9CDE910019DED220B8DED0A0B7F
:102B50001FED130B53EC102B9DED0A0B51EC100BDA
:102B600004F008FCCDE90C019DED2A0B8DED0A0B5C
:102B70009DED0A0B53EC102B9DED0C0B51EC100B43
:102B800004F0ECF8CDE912019DED240B8DED0A0B5C
:102B90001FED230B53EC102B9DED0A0B51EC100B8A
:102BA00004F0E8FBCDE90C019DED2C0B8DED0A0B3B
:102BB0009DED0A0B53EC102B9DED0C0B51EC100B03
:102BC00004F0CCF8CDE914019DED320B8DED060B30
:102BD0009DED140B8DED040B9DED060B53EC102BAE
:102BE0009DED040B51EC100B04F0C4FBCDE90A0180
:102BF0009DED300B8DED020B9DED120B8DED000B5D
:102C00009DED020B53EC102B9DED000B51EC100BC6
:102C100004F0B0FBCDE906019DED100B8DED000B2E
:102C20009DED000B51EC100B04F05AF8CDE90201B8
:102C30009DED2E0B8DED000B9DED000B53EC102B3D
:102C40009DED020B51EC100B04F094FBCDE9040157
:102C50009DED060B53EC102B9DED040B51EC100B6E
:102C600004F094FDCDE908019DED0A0B53EC102B07
:102C70009DED080B51EC100B04F088FD1FED600B6F
:102C800053EC102BCDE90C019DED0C0B51EC100B0E
:102C900004F070FBCDE916019DED300B8DED060BB8
:102CA0009DED140B8DED040B9DED060B53EC102BDD
:102CB0009DED040B51EC100B04F05CFBCDE90A0117
:102CC0009DED320B8DED020B9DED120B8DED000B8A
:102CD0009DED020B53EC102B9DED000B51EC100BF6
:102CE00004F048FBCDE906019DED2E0B8DED020BA6
:102CF0009DED0E0B8DED000B9DED020B53EC102B9B
:102D00009DED000B51EC100B04F034FBCDE90401F8
:102D10009DED060B53EC102B9DED040B51EC100BAD
:102D200004F01CF8CDE908019DED0A0B53EC102BC3
:102D30009DED080B51EC100B04F028FD1FED900BDE
:102D400053EC102BCDE90C019DED0C0B51EC100B4D
:102D500004F010FBCDE918019DED2E0B8DED060B57
:102D60009DED140B8DED040B9DED060B53EC102B1C
:102D70009DED040B51EC100B04F0FCFACDE90A01B7
:102D80009DED320B8DED020B9DED100B8DED000BCB
:102D90009DED020B53EC102B9DED000B51EC100B35
:102DA00004F0E8FACDE906019DED300B8DED020B44
:102DB0009DED0E0B8DED000B9DED020B53EC102BDA
:102DC0009DED000B51EC100B04F0D4FACDE9040199
:102DD0009DED060B53EC102B9DED040B51EC100BED
:102DE00004F0D4FCCDE908019DED0A0B53EC102B47
:102DF0009DED080B51EC100B03F0B0FF1FEDC00B65
:102E000053EC102BCDE90C019DED0C0B51EC100B8C
:102E100004F0B0FACDE91A019DED2E0B8DED060BF5
:102E20009DED120B8DED040B9DED060B53EC102B5D
:102E30009DED040B51EC100B04F09CFACDE90A0156
:102E40009DED300B8DED020B9DED100B8DED000B0C
:102E50009DED020B53EC102B9DED000B51EC100B74
:102E600004F088FACDE906019DED320B8DED020BE1
:102E70009DED0E0B8DED000B9DED020B53EC102B19
:102E80009DED000B51EC100B04F074FACDE9040138
:102E90009DED060B53EC102B9DED040B51EC100B2C
:102EA00003F05CFFCDE908019DED0A0B53EC102BFC
:102EB0009DED080B51EC100B04F068FC1FEDF00BBE
:102EC00053EC102BCDE90C019DED0C0B51EC100BCC
:102ED00004F050FACDE91C019DED160B8DED060BAB
:102EE0009DED1E0B8DED040B9DED060B53EC102B91
:102EF0009DED040B51EC100B03F030FF9FED730BB5
:102F000053EC102BCDE908019DED080B51EC100B93
:102F100004F030FA9FED6F0B53EC102BCDE90A0152
:102F20009DED0A0B51EC100B04F024FACDE90C01D5
:102F30009DED260B8DED0A0B9DED0A0B53EC102B2E
:102F40009DED0C0B51EC100B03F008FFCDE92601B1
:102F50009DED180B8DED060B9DED200B8DED040BFB
:102F60009DED060B53EC102B9DED040B51EC100B5B
:102F700003F0F4FE9FED550B53EC102BCDE9080147
:102F80009DED080B51EC100B04F0F4F99FED510B83
:102F900053EC102BCDE90A019DED0A0B51EC100BFF
:102FA00004F0E8F9CDE90C019DED280B8DED0A0B3D
:102FB0009DED0A0B53EC102B9DED0C0B51EC100BFF
:102FC00003F0CCFECDE928019DED1A0B8DED060B2B
:102FD0009DED220B8DED040B9DED060B53EC102B9C
:102FE0009DED040B51EC100B03F0B8FE9FED370B79
:102FF00053EC102BCDE908019DED080B51EC100BA3
:1030000004F0B8F99FED330B53EC102BCDE90A0116
:103010009DED0A0B51EC100B04F0ACF9CDE90C015D
:103020009DED2A0B8DED0A0B9DED0A0B53EC102B39
:103030009DED0C0B51EC100B03F090FECDE92A0135
:103040009DED1C0B8DED060B9DED240B8DED040B02
:103050009DED060B53EC102B9DED040B51EC100B6A
:1030600003F07CFE9FED190B53EC102BCDE908010A
:103070009DED080B51EC100B04F07CF99FED150B46
:1030800053EC102BCDE90A019DED0A0B51EC100B0E
:1030900004F070F9CDE90C019DED2C0B8DED0A0BC0
:1030A0009DED0A0B53EC102B9DED0C0B51EC100B0E
:1030B00003F054FECDE92C019DED260B9DED281B60
:1030C0009DED2A2B9DED2C3B34B010BD000000007F
:1030D0000000E03F7B14AE47E17A743F10B52DED60
:1030E000080B2DED0C8B84B09DED101BB0EE410A4A
:1030F000F0EE610A51EC100B03F0FEFD08EE900AB1
:103100009DED121BB0EE410AF0EE610A51EC100B7E
:1031100003F0F2FD08EE100A9DED141BB0EE410A1B
:10312000F0EE610A51EC100B03F0E6FD09EE100A17
:103130009DED161BB0EE410AF0EE610A51EC100B4A
:1031400003F0DAFD09EE900A28EEA80A08EE080A54
:1031500009EE090A09EEA90A10EE101A084604F051
:10316000FFFB41EC1C0BB0EE4C0AF0EE6C0A02F0D7
:1031700003FCB0EE40BAF0EE60BA51EC1B0B03F06A
:10318000BBFD0AEE100A88EE8A0AF0EE408A88EE4D
:103190000A0AB0EE408A89EE0A0AB0EE409A89EE39
:1031A0008A0AF0EE409A69EE290A48EE880AB0EEE3
:1031B000001A60EE810AB0EE600A03F02FFB8DED7D
:1031C000010A29EEA90A09EE490A08EE480A08EEA2
:1031D000A80A10EE101A084604F0C2FB41EC1C0BC2
:1031E000B8EE000A28EE000A20EE290AF0EE000AE6
:1031F00068EEA00A00EE890A10EE101A084604F0E4
:10320000AFFB41EC1D0BB0EE4C1AF0EE6C1AB0EEB9
:103210004D0AF0EE6D0A02F003FAB0EE40BAF0EE9D
:1032200060BA51EC1B0B03F067FD029029EE090A0E
:1032300009EEE90A08EEA80A08EE480A10EE101A8C
:10324000084604F08DFB41EC1C0BB0EE000A28EEA2
:10325000000A20EE090AF0EE000A68EEA00A00EE6D
:10326000E90A10EE101A084604F07AFB41EC1D0B37
:10327000B0EE4C1AF0EE6C1AB0EE4D0AF0EE6D0A9C
:1032800002F0CEF9B0EE40BAF0EE60BA51EC1B0B92
:1032900003F032FD03909DED010ADDED020A9DED84
:1032A000031A04B0BDEC0C8B08B010BD29B1064A5E
:1032B00012680243044B1A6004E0034A1268824316
:1032C000014B1A60704700003038024029B1064AAD
:1032D00012680243044B1A6004E0034A12688243F6
:1032E000014B1A60704700004038024029B1064A7D
:1032F00012680243044B1A6004E0034A12688243D6
:10330000014B1A60704700002038024029B1064A7C
:1033100012680243044B1A6004E0034A12688243B5
:10332000014B1A60704700004438024029B1064A38
:1033300012680243044B1A6004E0034A1268824395
:10334000014B1A607047000024380240F0B500219C
:1033500000220024022500260223324F3F6807F096
:103360000C0121B1042905D0082937D105E02E4FE1
:10337000076036E02D4F076033E02A4F3F1F3F685C
:10338000C7F38056274F3F1F3F6807F03F036EB1DA
:10339000264FB7FBF3F7DFF88CC0ACF1040CDCF878
:1033A00000C0CCF3881C07FB0CF40CE01E4FB7FBED
:1033B000F3F7DFF870C0ACF1040CDCF800C0CCF31C
:1033C000881C07FB0CF4174F3F1F3F68C7F30147EA
:1033D0007F1C7D00B4FBF5F7076002E0124F076029
:1033E00000BF00BF0F4F3F6807F0F0010909104F01
:1033F0007A5C0768D74047600A4F3F6807F4E0519E
:10340000890A0B4F7A5C4768D7408760054F3F6851
:1034100007F46041490B064F7A5C4768D740C760A4
:10342000F0BD0000083802400024F40000127A00C9
:103430009401002000B52DED028B89B0242168464F
:10344000FDF790F803F082F803F0DEF8684602F02A
:1034500025FF844802F03EFF83480068401C8249F3
:10346000086008460068322803D209B0BDEC028B20
:1034700000BD7D480068322826D1002021E07B492C
:10348000096801EB800191ED000A794901EB8001A7
:1034900081ED000A7749096801EB800191ED000A8E
:1034A000754901EB800181ED000A7449096801EB5F
:1034B000800191ED000A724901EB800181ED000A63
:1034C000401C6428DBD302E033206749086065486C
:1034D000006804F045FA41EC180BB0EE480AF0EE33
:1034E000680AFEF7B9FB5F4880ED000AD0ED000ADC
:1034F0009FED641A70EEC10AB2EE041A60EE810A02
:10350000B0EE600A02F084F9BDEEC00A5E4880EDBC
:10351000000A006800287CDB5B480068642878DAD1
:103520005A4800685849096850F82100322870D379
:10353000564800685449096850F82100401C00288A
:1035400067D0484890ED000ADFED4E0A70EE600A41
:103550004D4890ED000AB8EEC00AB2EE041A10EE23
:10356000810A4B4880ED000A4148474A126800EB47
:10357000820090ED000A4648D0ED000AB7EE001A2E
:1035800071EE600A20EE200A394A3F480068401C6C
:1035900002EB8000D0ED000A3D4890ED001A00EEED
:1035A000810ADDED000A30EEC00A10EE101A08465E
:1035B00004F0D6F9374A03C22F48334A126800EBA9
:1035C000820090ED000A3248D0ED000AB7EE001AF2
:1035D00071EE600A20EE200A27482B4A1268521C1E
:1035E00000EB8200D0ED000A294890ED001A00EEB1
:1035F000810ADDED010A30EEC00A10EE101A08460D
:1036000004F0AEF9234AC2E902011D481E4A1268BD
:1036100000E025E000EB820090ED000A1C48D0EDB0
:10362000000AB7EE001A71EE600A20EE200A144874
:10363000154A1268521C00EB8200D0ED000A1448B3
:1036400090ED001A00EE810ADDED020A30EEC00AAC
:1036500010EE101A084604F083F90E4AC2E904017C
:1036600000BF02E77C0000208800002084010020C9
:10367000AC0D0020880100203C0F00208C010020B0
:10368000CC10002000000C4280000020900100209F
:1036900084000020700D002000B587B001210803D0
:1036A000FFF734FE01210846FFF700FE0522114610
:1036B0002348FEF721FA052206212148FEF71CFACD
:1036C000052207211E48FEF717FAE0200590022088
:1036D0008DF8180000208DF81A0001208DF81B00CD
:1036E00003208DF8190005A91548FEF7BDF9154806
:1036F00000F08AF80020ADF800004FF48270ADF8B9
:1037000002000020ADF804000220ADF80600012000
:10371000ADF808004002ADF80A001820ADF80C0022
:103720000020ADF80E000720ADF8100069460548EE
:1037300000F0A4F80121034800F05AF807B000BDDA
:10374000000002400030014000B587B0012188032D
:10375000FFF7BCFD01210220FFF7A8FD05220D2186
:103760002148FEF7C9F905220E211F48FEF7C4F9CA
:103770004FF4C040059002208DF8180000208DF80D
:103780001A0001208DF81B0003208DF8190005A9EF
:103790001548FEF769F9154800F036F80020ADF835
:1037A00000004FF48270ADF802000020ADF8040074
:1037B0000220ADF806000120ADF808004002ADF887
:1037C0000A001820ADF80C000020ADF80E0007200C
:1037D000ADF810006946054800F050F80121034893
:1037E00000F006F807B000BD0004024000380040B9
:1037F00021B1028842F04002028004E002884FF6C4
:10380000BF731A400280704710B5044611488442C5
:1038100008D101218014FFF789FD0021A014FFF7D2
:1038200085FD16E00C48844208D101210014FFF701
:103830005DFD00212014FFF759FD0AE0074884428E
:1038400007D10121C013FFF751FD0021E013FFF75D
:103850004DFD10BD0030014000380040003C0040EC
:103860000246002013890B400BB1012000E000202C
:1038700070470146888970478181704710B50022E2
:10388000028802F441520B884C8823438C882343DE
:10389000CC8823430C8923434C8923438C892343BD
:1038A000CC8923431A430280838B4FF2FF74234059
:1038B00083830B8A038210BD2DE9F04780460E46B4
:1038C00017461C46DDE9089A44F080040121404671
:1038D000FFF78EFF39463046FEF731F900BF02216F
:1038E0004046FFF7BDFF0028F9D021464046FFF7CC
:1038F000C3FF00BF01214046FFF7B2FF0028F9D007
:103900004046FFF7B6FF002517E000BF0221404602
:10391000FFF7A6FF0028F9D000214046FFF7ACFFD3
:1039200000BF01214046FFF79BFF0028F9D0404629
:10393000FFF79FFF09F805006D1C5545E5D300BF53
:1039400080214046FFF78CFF0128F9D00021404636
:10395000FFF74EFF39463046FEF7F3F8BDE8F08733
:103960002DE9F04180460D4616461C4644F0800481
:1039700001214046FFF73CFF31462846FEF7DFF8BD
:1039800000BF02214046FFF76BFF0028F9D0214617
:103990004046FFF771FF00BF01214046FFF760FF7F
:1039A0000028F9D04046FFF764FF00BF02214046DF
:1039B000FFF756FF0028F9D000214046FFF75CFFD3
:1039C00000BF01214046FFF74BFF0028F9D04046D9
:1039D000FFF74FFFC7B200BF80214046FFF740FF0F
:1039E0000128F9D000214046FFF702FF3146284662
:1039F000FEF7A7F83846BDE8F0812DE9F04107460B
:103A00000C4615461E46DDF8188001213846FFF7A2
:103A1000EFFE29462046FEF792F800BF0221384605
:103A2000FFF71EFF0028F9D031463846FFF724FF84
:103A300000BF01213846FFF713FF0028F9D03846B0
:103A4000FFF717FF00BF02213846FFF709FF0028E4
:103A5000F9D041463846FFF70FFF00BF0121384635
:103A6000FFF7FEFE0028F9D03846FFF702FF00BF3F
:103A700080213846FFF7F4FE0128F9D000213846AE
:103A8000FFF7B6FE29462046FEF75BF8BDE8F08159
:103A900070470000411D0A2930D2DFE801F0282FCD
:103AA0001A0C2F2F05132F211549097841F0010118
:103AB000134A117022E01249097821F00101104ADD
:103AC00011701BE00E49097841F002010C4A117097
:103AD00014E00B49097821F00201094A11700DE048
:103AE0000749097841F00401054A117006E00449CC
:103AF000097821F00401024A117000BF00BF70472D
:103B0000090000200CB500200190009034480068A6
:103B100040F480303249086000BF3148006800F44A
:103B2000003000900198401C0190009818B901984D
:103B3000B0F5A06FF1D12A48006800F4003010B150
:103B40000120009001E0002000900098012846D15B
:103B500023484030006840F08050214940310860DF
:103B60002048006840F480401E4908601C48083026
:103B700000681B49083108600846006840F40040AE
:103B800008600846006840F4A05008601648091F05
:103B90000860081F006840F08070091F086000BFBF
:103BA0000F48006800F000700028F9D040F205606E
:103BB0000E4908600A480830006820F003000849F0
:103BC000083108600846006840F00200086000BF45
:103BD00003480830006800F00C000828F8D10CBD3C
:103BE000003802400070004008544007003C02408A
:103BF00010B51548006840F4700013490860134878
:103C0000006840F001001149086000200F490831A8
:103C100008600E4800680E4908400C4908600D48CD
:103C2000091D0860081F006820F48020091F086033
:103C3000002006490C310860FFF764FF4FF0006078
:103C400001498039086010BD88ED00E0003802406D
:103C5000FFFFF6FE1030002410B50121044800F0EB
:103C600084F8012803D10121014800F06FF810BD4C
:103C70000000014010B50121880700F076F8012806
:103C800019D10121800700F061F80B480068401C41
:103C900009490860084690ED000AB8EE400ADFEDD9
:103CA000070AB4EEE00AF1EE10FA04DB0020086027
:103CB00001200349087010BD0400002000004842A4
:103CC0000800002010B50121044800F04EF801283A
:103CD00003D10121014800F039F810BD0004004073
:103CE00010B50121044800F040F8012803D101215A
:103CF000014800F02BF810BD0008004010B501216C
:103D0000044800F032F8012803D10121014800F0F5
:103D10001DF810BD000C004010B50121044800F052
:103D200024F8012803D10121014800F00FF810BD4B
:103D30000004014021B1028842F08002028004E0C8
:103D400002884FF67F731A4002807047CA4302828E
:103D5000704721B1028842F00102028004E002882B
:103D60004FF6FE731A400280704730B502460020BD
:103D700000230024158A05EA0103958905EA010458
:103D800013B10CB1012000E0002030BD1AB18389CD
:103D90000B43838102E083898B438381704700005A
:103DA0002DE9FF4104460D4616461F46DDF82880E2
:103DB0006949601A8C4270D01ADC6849A4EB010092
:103DC0008C426CD00ADCB4F1804F4ED06448204461
:103DD000002852D0B0F5806F71D156E0B0F5806FF9
:103DE00065D0B0F5006F6CD0B0F5406FF4D170E0E5
:103DF000B0F5923F21D009DCB0F5806F7AD0B0F5F4
:103E0000644F0AD0B0F5684F7CD10EE0B0F5943F16
:103E10001BD0B0F5963F75D11FE001210846FFF792
:103E200075FA19208DF800006DE001210220FFF7DE
:103E30006DFA2C208DF8000065E001210804FFF7E1
:103E400065FA18208DF800005DE001211920FFF7C8
:103E50005DFA2C208DF8000055E001218804FFF761
:103E600055FA1A208DF800004DE001210846FFF7B1
:103E70002DFA1C208DF8000045E001210220FFF7FB
:103E800025FA1D208DF800003DE001210420FFF7F8
:103E90001DFA1E208DF8000035E023E0FFE7012128
:103EA0000820FFF713FA32208DF800002BE00121E3
:103EB0001020FFF70BFA36208DF8000023E021E0F8
:103EC000FFE701212020FFF701FA37208DF80000DD
:103ED00019E001214020FFF7F9F92B208DF80000AF
:103EE00011E007E001218020FFF7F0F92C208DF888
:103EF000000008E001210802FFF7E8F92D208DF805
:103F0000000000E000BF00BF0295ADF80460002093
:103F1000ADF80C00ADF8060001A9204600F07EF8CF
:103F200001212046FFF712FF012211462046FFF72C
:103F30002DFFF8B28DF8010008F0FF008DF80200A7
:103F400001208DF803006846FEF786FB012120461C
:103F5000FFF7FFFEBDE8FF81001C0040000C0040A1
:103F600000FCFFBF70B5002400220023058C4FF633
:103F7000FF6635400584028C8388848B4FF68F75ED
:103F80002C404FF6FC752C400D882C434FF6FF5506
:103F90002A408D894FF6FF7606EA05252A434D888B
:103FA00006EA05252A43154DA84202D0144DA84221
:103FB0001DD14FF2FF752A40CD894FF6FF7606EAF4
:103FC00005252A434FF6FF352A408D8806EA052548
:103FD0002A434EF6FF752B404DF6FF752B400D8A98
:103FE00006EA05152B434D8A06EA05152B43838007
:103FF00084838D68C563028470BD000000000140A9
:10400000000401400A460021818B4FF6F7731940E6
:10401000114381837047C16370470000002202880A
:10402000184B98420ED0184B98420BD0B0F1804FED
:1040300008D0164B984205D0154B984202D0154B2C
:10404000984204D14FF68F731A404B881A43124B93
:10405000984207D0114B984204D04FF6FF431A40C4
:104060000B891A4302804B68C3620B880385054B9A
:10407000984202D0044B984201D18B7A03860123E7
:1040800083827047000001400004014000040040AA
:1040900000080040000C00400010004000140040E8
:1040A00010B52DED048BF0EE408AB0EE609AB0EEC4
:1040B000418A3048007810B101283AD11CE02E48DE
:1040C0000068401C2C490860084690ED000AB8EED4
:1040D000400A29EE000ADFED290A60EE200A80EE90
:1040E000880A9FED271AC0EE010A30EEA80AF0EE0A
:1040F000409A02F03BFD1CE01F480068401E1E492C
:104100000860084690ED000AB8EE400A29EE000A61
:10411000DFED1A0A60EE200A80EE880A9FED181A79
:10412000C0EE010A30EEA80AF0EE409A02F01EFD41
:1041300000BF00BF9FED120A28EE000ADFED0F0A54
:1041400080EE201ABDEEC10A10EE100A0A49096875
:10415000884203D101200749087005E0064800683D
:1041600010B903200349087002480078BDEC048BA5
:1041700010BD00007C010020780100200AD7A33B7D
:104180000000704210B52DED028B9FED1C0AB0EEC1
:10419000408A00242CE0B0EE480A00F0BFFC18482A
:1041A000006800EB8400D0ED000AB0EE600A00F079
:1041B000B5FC1448006800EB8400D0ED000AB0EEB6
:1041C000600A00F0ABFC1048006800EB8400D0ED02
:1041D000000AB0EE600A00F0A1FC0CA10C4800F04F
:1041E00019FC9FED0C0A38EE000AB0EE408A641C00
:1041F000642CD0DBBDEC028B10BD000000000C4233
:1042000084010020880100208C0100200D0A00009C
:1042100000100140CDCCCC3D70B52DED048BFD4898
:1042200001680068401CFB4A1060322902D2BDECD4
:10423000048B70BD3220F7490860F748D0ED000AC2
:104240009FEDF61A70EEC10AB2EE041A60EE810A12
:10425000B0EE600A01F0DCFABDEEC00AF04880ED75
:10426000000A0068002803DBED480068642800DBD2
:10427000DDE7FDF769FC00F0020000287ED1E94887
:10428000E749096800EBC10090ED001BB0EE410A60
:10429000F0EE610A9FEDE41B53EC112B51EC100B77
:1042A00003F066F95AD2E24890ED002BB0EE420AD4
:1042B000F0EE620ADF48DA49096800EBC10090EDD0
:1042C000002BB0EE421AF0EE621A53EC102B51ECB8
:1042D000110B02F043FDD74AD14B1B6802EBC3021E
:1042E00003C2D34890ED022BB0EE420AF0EE620A10
:1042F000D148CB49096800EBC10090ED002BB0EE2E
:10430000421AF0EE621A53EC102B51EC110B02F032
:1043100025FDC94AC24B1B6802EBC30203C2C44855
:1043200090ED042BB0EE420AF0EE620AC348BC499D
:10433000096800EBC10090ED002BB0EE421AF0EEE0
:10434000621A53EC102B51EC110B02F007FDBB4A23
:10435000B34B1B6802EBC30203C21FE0B44890EDED
:10436000000BB448AE49096800EBC10080ED000BBA
:10437000AF4890ED020BB048A94900E082E009681F
:1043800000EBC10080ED000BA94890ED040BAB4899
:10439000A349096800EBC10080ED000BA148A049CA
:1043A000096800EBC10090ED001BB0EE410AF0EE91
:1043B000610A9FEDA31B53EC112B51EC100B02F083
:1043C000CDFC984A964B1B6802EBC30203C2012046
:1043D0009D49086002F04AF89C4801F04FFF9C4854
:1043E0000068401C9A490860984890ED000A10EE59
:1043F000101A084603F0B4FA41EC180B954890EDFA
:10440000001BB0EE410AF0EE610A53EC102B51ECA8
:10441000180B02F0A3FC8F4A03C28C4890ED010AEE
:1044200010EE101A084603F09BFA41EC180B89486D
:1044300090ED021BB0EE410AF0EE610A53EC102B36
:1044400051EC180B02F08AFC824AC2E902017F4853
:1044500090ED020A10EE101A084603F081FA41ECC2
:10446000180B7C4890ED041BB0EE410AF0EE610A97
:1044700053EC102B51EC180B02F070FC754AC2E99A
:104480000401C5E0704800680028FAD000206E4999
:104490000860002485E0634800EBC40090ED001B39
:1044A000B0EE410AF0EE610A9FED5F1B53EC112B59
:1044B00051EC100B02F05EFE72D0002567E005EBB8
:1044C000C50000EB05105B4901EB401000EBC40098
:1044D00090ED002BB0EE421AF0EE621A514800EB5C
:1044E000C40090ED002BB0EE420AF0EE620A53ECED
:1044F000102B51EC110B02F0E5FC05EBC50202EBB1
:1045000005124C4B03EB421202EBC40203C205EB53
:10451000C50000EB0510504A02EB001000EB8400D0
:1045200090ED000A10EE101A084603F019FA41EC5B
:10453000190B05EBC50000EB05103E4901EB4010DF
:1045400000EBC40090ED001BB0EE410AF0EE610AF2
:1045500053EC102B51EC190B02F000FC02F0CCFBD9
:1045600005EBC50101EB05113B4A02EB011141F8D6
:1045700024009FED2D0B05EBC50000EB05102D4928
:1045800001EB401000EBC40080ED000B6D1C032D0F
:1045900095D39FED250B234800EBC40080ED000B65
:1045A000641C642CFFF677AF002419E028480068EB
:1045B00002F090FE41EC180B264800EBC40090ED91
:1045C000001BB0EE410AF0EE610A53EC182B51ECDF
:1045D000100B02F077FC1F4A02EBC40203C2641CFA
:1045E000032CE3D31D491B4801F07CFE1B4890EDD2
:1045F000021AD0ED010A90ED000AFCF7A1FF18485D
:1046000080ED000B80ED021B80ED042B80ED063B5E
:1046100000BF0CE6940000207C00002000000C424B
:1046200080000020C81B00200000000000000000E7
:10463000700D00206812002088150020A8180020A6
:10464000000000000000F03F90000020880D0020D6
:104650008C000020E81E0020AC0D00205C12002021
:104660005800002010B540F22551054800F019F916
:10467000012804D140F22551014800F0E0F810BDB6
:104680000050004010B540F22551314800F009F9C2
:10469000012857D140F225512D4800F0D0F82C4880
:1046A00000F05EFAC4B22146294800F05EFA2948BB
:1046B000007830B1012810D002281AD003283CD14C
:1046C00023E0412C05D123480078401C2149087083
:1046D00002E000201F49087033E0542C05D11D482A
:1046E0000078401C1B49087002E00020194908703E
:1046F00027E02B2C05D117480078401C154908707D
:1047000002E00020134908701BE0002011490870E6
:10471000422C07D0512C09D0522C0BD10120FFF78D
:10472000B9F908E00220FFF7B5F904E00420FFF72B
:10473000B1F900E000BF00BF03E0002005490870A8
:1047400000BF03E0024800F00BFAC4B210BD000045
:10475000001001400A00002010B588B00446012175
:104760000846FEF7A3FD01211020FEF7CFFD07222A
:1047700009212448FDF7C0F907220A212148FDF745
:10478000BBF94FF4C060069002208DF81C008DF834
:104790001D0000208DF81E0001208DF81F0006A9C5
:1047A0001848FDF761F902940020ADF80C00ADF84F
:1047B0000E00ADF81000ADF814000C20ADF812009A
:1047C00002A9114800F0BCF840210F4800F02EF873
:1047D00025208DF8040001208DF805008DF80600D5
:1047E0008DF8070001A8FDF737FF012240F225519F
:1047F000054800F080F80121034800F02FF808B0C8
:1048000010BD0000000002400010014010B540F251
:104810002551054800F045F8012804D140F2255102
:10482000014800F00CF810BD0048004001F400728F
:10483000B2F5007F00D100BFCA430280704710B5B7
:104840000022002340F66A14A14200D100BF0A12E0
:1048500001249440A3B2DC43048010BD21B18289BD
:1048600042F40052828104E082894DF6FF731A40BF
:104870008281704710B502A1024800F0CBF810BD4C
:104880000D0A00000010014002460020B1F5007F33
:1048900000D100BF13880B400BB1012000E00020C5
:1048A000704770B50246002400230025002040F622
:1048B0006A16B14200D100BFC1F3421501F01F03D7
:1048C000012606FA03F3012D02D19689334006E052
:1048D000022D02D1168A334001E0968A33400C1231
:1048E000012606FA04F41688344013B10CB10120F5
:1048F00000E0002070BDF0B503460024002600252E
:10490000002040F66A17B94200D100BF1846C1F333
:10491000421401F01F06012707FA06F5012C01D108
:104920000C3004E0022C01D1103000E014301AB138
:1049300007682F43076002E00768AF430760F0BDD8
:104940002DE9FF4705460E460024A14600BFA046BC
:10495000B08900B100BF2C8A24F44054F08804438D
:104960002C82AC8941F20C608443B08831890843C1
:10497000718908430443AC81AC8A24F44074B08943
:104980000443AC826846FEF7E1FC2048854202D031
:104990001F48854202D1DDF80C9001E0DDF8089057
:1049A000A88900F4004040B109EBC90000EB0910F0
:1049B00031684900B0FBF1F707E009EBC90000EBF3
:1049C000091031688900B0FBF1F76420B7FBF0F003
:1049D00004012009642101FB1078A88900F400403B
:1049E00040B1322000EBC800B0FBF1F000F007004E
:1049F000044308E0322000EB08106421B0FBF1F022
:104A000000F00F0004432C81BDE8FF870010014037
:104A1000001401400FB470B586B006460CA8019092
:104A200073E00B9800785C281CD10B98401C0B900D
:104A300000786E2809D072280FD10D21304600F081
:104A400094F80B98401C0B900BE00A21304600F0C4
:104A50008CF80B98401C0B9003E00B98401C0B90BB
:104A600000BF4BE00B980078252840D10B98401CE4
:104A70000B900078642818D0732833D1019810C89F
:104A800001900BE02178304600F06FF800BF402124
:104A90003046FFF7F9FE0028F9D0641C2078002882
:104AA000F0D10B98401C0B9020E0019820C8019099
:104AB0000A2202A9284601F0FFFD02AC0BE0217892
:104AC000304600F052F800BF40213046FFF7DCFED0
:104AD0000028F9D0641C20780028F0D10B98401CE5
:104AE0000B9003E00B98401C0B9000BF06E00B9866
:104AF00010F8011B0B90304600F037F800BF402142
:104B00003046FFF7C1FE0028F9D00B980078002846
:104B100087D106B070BC5DF814FB000000B52DED28
:104B2000048B83B0B0EE408A002000900190029088
:104B300018EE100A02F014FF41EC190B53EC192B7C
:104B400005A16846FBF794FC69460448FFF762FF3D
:104B500003B0BDEC048B00BD2566090000100140C8
:104B600001468888C0F30800704730B504460D46FA
:104B700000BF80212046FFF787FE0028F9D0802162
:104B80002046FFF753FE40212046FFF74FFEC5F3B6
:104B90000800A08030BD000010B52DED048B8AB058
:104BA000DE480068401CDD4908600846006848F699
:104BB000A04188420BD20021D948FFF72CFAD9A195
:104BC000DB48FFF727FF0AB0BDEC048B10BDD348CC
:104BD000006848F6A041884202D1FCF717FF03E0C5
:104BE00048F6A140CD49086001F0B0FC01F00CFD91
:104BF00001A801F053FB684601F06CFB9DED000A33
:104C0000FDF718FC8DED000A9DED000ADFEDC90AE5
:104C1000B4EEE00AF1EE10FA7DDB9DED000ADFED67
:104C2000C60AB4EEE00AF1EE10FA74D2DDED000A25
:104C30009FEDC01A70EEC10AB2EE041A60EE810A4E
:104C4000B0EE600A00F0E4FDBDEEC00ABB4880EDA6
:104C5000000ABB48B949096850F8210000286AD009
:104C6000B748B649096850F82100401C002862D0B6
:104C70009DED010A10EE101A084602F071FE41EC9B
:104C8000180BB048AD49096800EBC10090ED001B5E
:104C9000B0EE410AF0EE610A53EC102B51EC180B08
:104CA00002F05CF8A74AA54B1B6802EBC30203C2E3
:104CB0009DED020A10EE101A084602F051FE41EC7A
:104CC000180BA1489D49096800EBC10090ED001B3D
:104CD000B0EE410AF0EE610A53EC102B51EC180BC8
:104CE00002F03CF8984A954B1B6802EBC30203C2E2
:104CF0009DED030A10EE101A084602F031FE41EC59
:104D0000180B92488D49096800EBC10090ED001B1B
:104D1000B0EE410A00E046E0F0EE610A53EC102BE1
:104D200051EC180B02F01AF8884A844B1B6802EB0E
:104D3000C30203C22CE09DED010A10EE101A0846D2
:104D400002F00EFE7F4A7D4B1B6802EBC30203C2DA
:104D50009DED020A10EE101A084602F001FE7A4A92
:104D6000764B1B6802EBC30203C29DED030A10EEF3
:104D7000101A084602F0F4FD744A704B1B6802EBEF
:104D8000C30203C200206E496C4A126841F8220037
:104D90006B486A49096850F82100401C6849674A15
:104DA000126841F82200DDED010AB0EE600AFFF75B
:104DB000B5FEDDED020AB0EE600AFFF7AFFEDDEDF5
:104DC000030AB0EE600AFFF7A9FE9DED000AFFF7A7
:104DD000A5FEFFF74FFD5E480068401C5C49086077
:104DE00008460068B0F5FA6F01DB00200860B2EEFB
:104DF000041AF2EE040A9FED4F0AFFF751F9032857
:104E00007ED1002469E04E4850F8240051490968D9
:104E100041F824004F48006850F82400401CE8B3D3
:104E2000474951F8240002F055FA41EC190B454866
:104E300000EBC40090ED001BB0EE410AF0EE610AF9
:104E400053EC192B51EC100B02F03CF841EC180B11
:104E500001F052FF4049096841F82400384951F8EF
:104E6000240002F037FA41EC190B374800EBC4007C
:104E700090ED001BB0EE410AF0EE610A53EC192BE5
:104E800051EC100B02F01EF841EC180B01F034FF4E
:104E90003249096841F82400294900E01CE051F832
:104EA000240002F017FA41EC190B284800EBC4006B
:104EB00090ED001BB0EE410AF0EE610A53EC192BA5
:104EC00051EC100B01F0FEFF41EC180B01F014FF48
:104ED0002349096841F82400641C642C93DB0120F9
:104EE000FEF7D8FD1FA11248FFF794FDFCF732FE34
:104EF00004464FF4C861FCF799FD20A10C4800E07E
:104F00000AE0FFF787FDFCF725FE04464FF4C86171
:104F1000FCF770FDFFF736F900BF54E618000020DB
:104F20000004004077616974696E67200D0A000013
:104F30000010014000000C4200003442100000202C
:104F4000080B0020A8010020C8040020E80700206A
:104F5000140000209001002084010020880100201E
:104F60008C010020466C6173682055706461746523
:104F700020626567696E0D0A00000000466C61736F
:104F8000682055706461746520656E640D0A0000C8
:104F900000BFFEE703B401984100009850EAC12029
:104FA00018BF04204A0D18BF40F0010040F2FF7204
:104FB000B2EB515F08BF40F00200012808BF052096
:104FC00002B0704713B5DDE900200AB1012200E00C
:104FD000002240EA020121F00040024A101AC00FEC
:104FE0001CBD00000000F07F70B5C1482DED020B24
:104FF0002DED0E8B82B0119D25F000449FEDBEDBA0
:105000009FEDBFEB84423EDBA4F140511098A1F12B
:105010007F6108430FD0BC48844202DC28D110983D
:1050200030B39DED100B02B0BDEC0E8B02B0BDE8AD
:10503000704001F0C9B89DED100B53EC1D2B51ECE5
:10504000100B02F097F99DED100B41EC180B53EC8F
:105050001E2B51EC100B02F08DF953EC182B01F0C4
:105060007DFE41EC100B02B0BDEC0E8B02B070BDAA
:105070000120FBF7A6FA02B0BDEC0E8B02B0BDE832
:10508000704001F0B5B8A1489FEDA18B844256DA7B
:105090009DED100BB4F1795F0ADA51EC100BFFF7BC
:1050A00079FF042808BF01F0B3F89DED100BDAE793
:1050B00053EC102B51EC100B02F05CF941EC190B86
:1050C00095480621B0EE490AF0EE690A784400F0EE
:1050D00067FF53EC192B51EC100B02F04BF941EC2C
:1050E0001A0B8E48B0EE490AF0EE690A04217844A2
:1050F00000F056FF53EC192B51EC100B02F03AF96B
:1051000053EC182B01F02AFE41EC100B51EC1A0B5A
:1051100053EC102B01F0D6FECDE900019DED000B04
:1051200053EC102B9DED100B51EC100B02F022F9FB
:105130009DED101B53EC112B01F010FED2E09DED04
:10514000100B51EC100B01F07BF853EC182B02F014
:1051500045FA9FED730BCDE9000153EC102B9DED4B
:10516000000B51EC100B02F005F941EC190B6E48E5
:105170000621B0EE490AF0EE690A784400F010FF0B
:1051800053EC192B51EC100B02F0F4F841EC1B0B13
:105190006648B0EE490AF0EE690A0421784400F04E
:1051A000FFFE53EC192B51EC100B02F0E3F853EC1B
:1051B000182B01F0D3FD41EC1C0B51EC190B01F045
:1051C000C3FB41EC180B5A489FED5BABA04222DCBD
:1051D00053EC1C2B51EC1B0B01F074FECDE90001CC
:1051E0009DED000B51EC180B53EC102B02F0C2F8A4
:1051F00053EC182B01F0B2FD53EC1A2B02F0BAF865
:1052000053EC1D2B02F0C2FA53EC1E2B02F0E6F910
:1052100041EC100B5FE08DED008B002000909DEDC8
:10522000000B51EC180B53EC102B01F097FD9DED8A
:10523000000B41EC1E0B53EC102B51EC100B02F049
:1052400099F853EC192B02F0C9F953EC1E2B01F01D
:1052500039FE41EC190B53EC1C2B51EC1B0B01F0EC
:1052600031FE41EC1B0B53EC1A2B51EC190B02F0E5
:1052700081F853EC1D2B02F0B1F941EC190B53EC02
:105280001A2B51EC180B02F075F853EC1B2B02F0A3
:1052900071F853EC192B02F079FA9DED000B41ECFB
:1052A000180B53EC1A2B51EC100B02F063F89FED26
:1052B000249B53EC192B02F091F941EC100B51ECAB
:1052C000180B53EC102B02F061FA53EC192B02F07F
:1052D00085F941EC100B002D3FF7C5AE51EC100BDA
:1052E00001F0FEFC41EC100BBDE6000000000000E8
:1052F0000000F03F00000000075C143326A6913C3C
:10530000182D4454FB21F93F0000F07F0000E03FDE
:10531000000000000000F03F0832000016320000DC
:10532000000000000000E03F5A310000683100003A
:105330003333EF3F00000000000000000000004099
:10534000182D4454FB21E93F70B59B482DED020B0D
:105350002DED068B079D25F00044A04218DC9748F0
:10536000844202DC0AD1069840B19DED060BBDECEB
:10537000068B02B0BDE8704000F026BF002DCCBF08
:105380009FED8F0B9FED900BBDEC068B02B070BDB7
:105390008F48A04215DD8F48A042D8BF4FF0FF34A0
:1053A00058DD9DED060B51EC100BFFF7F3FD0428C3
:1053B00008BF00F02DFF9DED060BBDEC068B02B083
:1053C00070BD9DED060B51EC100B00F039FFCDE9DF
:1053D000060181489FED828BA0423CDD8248A042BD
:1053E0001FDD00249FED82AB9DED060B53EC1A2BC5
:1053F00051EC100B01F0B2FC9DED060B41EC190BCA
:1054000053EC1A2B51EC100B01F0B4FF53EC182B9A
:1054100002F0BCF953EC192B01F054FDCDE9060163
:1054200049E09DED060B012453EC182B51EC100BB9
:1054300001F094FC9DED060B41EC190B53EC182B7D
:1054400051EC100B02F0A2F953EC192B01F03AFDCC
:10545000CDE906012FE06848A0421FDD02249FED40
:10546000689B9DED060B53EC192B51EC100B01F0D2
:1054700081FF53EC182B01F071FC9DED060B41EC04
:10548000180B53EC192B51EC100B02F07FF953EC75
:10549000182B01F017FDCDE906010CE09DED060B80
:1054A000032453EC102B9FED580B51EC100B01F023
:1054B00009FDCDE906019DED060B53EC102B51ECD7
:1054C000100B01F057FF41EC180B53EC182B01F0B7
:1054D00051FF41EC190B4E480621B0EE490AF0EE9F
:1054E000690A784400F05CFD53EC182B51EC100B6A
:1054F00001F040FF41EC180B4648B0EE490AF0EECF
:10550000690A0521784400F04BFD53EC192B51EC4E
:10551000100B01F02FFF41EC100B51EC180B53EC6A
:10552000102B002C0EDA01F019FC9DED061B53EC3C
:10553000112B01F01FFF9DED061B53EC112B02F008
:105540004DF835E001F00AFC9DED061B53EC112BE4
:1055500001F010FF41EC100B2F48784400EBC40021
:1055600090ED001B51EC100B53EC112B02F00EF9D7
:105570009DED061B53EC112B02F008F941EC100BCA
:105580002648784400EBC40090ED001B51EC100B52
:1055900053EC112B02F022F841EC100B002DA2BFAE
:1055A000BDEC068B02B070BD51EC100B01F098FB06
:1055B00041EC100B01E70000000010440000F07FF8
:1055C000182D4454FB21F93F182D4454FB21F9BFF9
:1055D0000000DC3F0000203E0000F33F0000000020
:1055E000000000000000F03F0000E63F0000000067
:1055F00000000000000000400080034000000000A8
:10560000000000000000F83F000000000000F0BFB4
:10561000AA2E0000602E0000EA2D0000A22D00003E
:1056200070B56B4E2DED040B2DED028B82B0DDF8C5
:105630001CC0DDE905235C422CF000411C4341EA1B
:10564000D474049D22F00040B44205D86C422C432F
:1056500040EAD474B4420BD99DED061B9DED040BBA
:1056600002B0BDEC028B04B0BDE8704000F0B6BDE6
:10567000ACF14054A4F17F641C430BD0022404EA33
:10568000AC7444EAD27405439FED538B9FED542BC9
:1056900007D015E09DED040B51EC100B00F0C8FD98
:1056A00042E0002C11BF012C9DED040B02B0BDECBB
:1056B000028B04BF04B070BD022C38D0032C3BD049
:1056C0000B439FED491B9FED4A0B0AD0B14218D105
:1056D000B04209D121F0804120F08040079105902F
:1056E0000FE0002A15DA10E0434B7B44002C08BF82
:1056F00093ED000B0DD0012C10D0022C17D0032CF1
:105700001AD0B0421DD1002A03DAB0EE410AF0EE01
:10571000610A02B0BDEC028B04B070BD93ED000BCA
:1057200051EC100B01F0DCFA41EC100BF1E7B0EE9C
:10573000480AF0EE680AECE7B0EE420AF0EE620AC0
:10574000E7E7401A00153C28C8BF8DED000B19DCB7
:10575000BCF1000FBEBF10F13C0F9FED290B8DED8A
:10576000000B0FDB9DED060B53EC102B9DED040B96
:1057700051EC100B01F0A6FB00F062FD00F058FDAB
:10578000CDE90001002C08BF9DED000BC1D0012C1C
:1057900010D0022C9FED1C0B53EC102B9DED000B39
:1057A00051EC100B0DD001F0F1FF53EC182B01F070
:1057B000EDFFB9E7019880F0004001909DED000BEE
:1057C000A7E701F0E3FF53EC182B01F007FFABE76D
:1057D0000000F07F00000000182D4454FB21094018
:1057E000182D4454FB2109C0182D4454FB21F9BF46
:1057F000182D4454FB21F93F022D00000000000049
:105800000000000000000000075C143326A6A13C45
:1058100010B52DED028BB0EE408A18EE100A02F0A2
:105820001BF901EE100A18EE100AB7EE000A78EE26
:10583000410A10F0004F4FF07F4010EE901A12D046
:10584000B1F13F4F24BF10EE901AB0EB410F12D2CE
:1058500010EE901AB1F17C5F1CDD10EE901AB0EBE7
:10586000410F17D314E0B1F13F4F07D910EE901A52
:10587000B0EB410F02D331EE401A0BE010EE901A5C
:10588000B1F17C5F06DB10EE901AB0EB410F01D353
:1058900031EE001A18EE100ABDEC028B11EE101A50
:1058A00061F31E0000EE100A10BD000000000000B1
:1058B00010B52F499FED2C1B2DED020B84B00598E0
:1058C00020F000408842DCBF00209DED040B32DD5B
:1058D0002849884209D1049840B94FF00100FAF7ED
:1058E00070FE00F085FC06B010BD05DB9DED040BDD
:1058F00000F06AFC06B010BD68469DED040B00F098
:105900007BF810F0030011D0012818D09DED021B88
:105910009DED000B02281AD000F08AFA51EC100B12
:1059200001F0DEF906B041EC100B10BD9DED021B3D
:105930009DED000B012000F0AFFB06B010BD9DED0A
:10594000021B9DED000B00F073FA06B010BD0120A4
:1059500000F0A2FB51EC100B01F0C2F906B041ECD3
:10596000100B10BD0000000000000000000000004F
:10597000FB21E93F0000F07F00B52DED048BB0EE78
:10598000409AF0EE609A83B051EC190B01F032FEB0
:1059900041EC180B18EE100A18EE901A8DED008BE2
:1059A000002818BF0120084320F00040C0F17F60AC
:1059B00000F1E040C00F14D019EE101A19EE900A51
:1059C0008DED009B002918BF0121084320F0004005
:1059D000C0F17F6000F1E040C00F04BF0120FAF782
:1059E000F0FDB0EE480A03B0F0EE680ABDEC048B9F
:1059F00000BD0000000000002DE9F14F04462DED30
:105A0000020B2DED088B8AB09FEDE70B80ED020BAA
:105A1000139EE74826F0004585420ADC9DED120BF7
:105A2000002084ED000B0AB0BDEC088B03B0BDE88C
:105A3000F08FE0489FEDE0AB9FEDE1BBA84247DD72
:105A4000E14F9FEDE39B9FEDE48B9DED120B53EC3B
:105A50001A2B51EC100B002E1CDD01F097FE41ECCF
:105A6000100BBD4208D053EC1B2B51EC100B01F076
:105A70008DFEC4E900010BE053EC192B51EC100B27
:105A800001F084FE53EC182B01F080FEC4E9000104
:105A90000120C8E701F062F941EC100BBD4208D0CB
:105AA00053EC1B2B51EC100B01F058F9C4E9000129
:105AB0000BE053EC192B51EC100B01F04FF953ECA8
:105AC000182B01F04BF9C4E900014FF0FF30AAE7B1
:105AD000C348A84279DB9DED120B51EC100B00F08E
