:020000040800F2
:10000000687300208D020008353900087533000838
:10001000313900084D2A0008856A000800000000F8
:100020000000000000000000000000002D48000853
:10003000452D000800000000A3020008A5020008EA
:10004000A7020008A7020008A7020008A7020008EC
:10005000A7020008A7020008A7020008A7020008DC
:10006000A7020008A7020008A7020008A7020008CC
:10007000A7020008A7020008A7020008A7020008BC
:10008000A7020008A7020008A7020008A7020008AC
:10009000A7020008A7020008A7020008A70200089C
:1000A000A70200085D4A0008A7020008A70200088E
:1000B000794A0008B54C0008D14C0008A702000896
:1000C000A7020008A7020008A7020008A70200086C
:1000D000A7020008C1570008A70200081559000828
:1000E000A7020008A7020008A7020008A70200084C
:1000F000094D0008A7020008A7020008A70200088F
:10010000A7020008A7020008ED4C0008A70200089B
:10011000A7020008A1570008A7020008A7020008CC
:10012000A7020008A7020008A7020008A70200080B
:10013000A7020008A7020008A7020008A7020008FB
:10014000A7020008A7020008A7020008A7020008EB
:10015000A7020008A7020008A7020008A7020008DB
:10016000A7020008A7020008A7020008A7020008CB
:10017000A7020008A7020008A7020008A7020008BB
:10018000A7020008A702000800F002F800F06FF8CC
:100190000AA090E8000C82448344AAF10107DA45E2
:1001A00001D100F064F8AFF2090EBAE80F0013F0C5
:1001B000010F18BFFB1A43F00103184708AD0000F8
:1001C00028AD00000A444FF0000C10F8013B13F07A
:1001D000070408BF10F8014B1D1108BF10F8015BA0
:1001E000641E05D010F8016B641E01F8016BF9D193
:1001F00013F0080F1EBF10F8014BAD1C0C1B09D1EA
:100200006D1E58BF01F801CBFAD505E014F8016B5B
:1002100001F8016B6D1EF9D59142D6D370470000ED
:100220000023002400250026103A28BF78C1FBD8FF
:10023000520728BF30C148BF0B60704766290AF0DB
:100240004980002070471FB50AF009F800F08EFCC5
:1002500004000020002109F033F9401C60600020F8
:10026000002109F017F9E0601FBD10B510BD00F0C6
:10027000A5FD1146FFF7E7FF08F09EFE01F01EF80E
:1002800003B4FFF7F2FF03BC01F062F809488047AE
:1002900009480047FEE7FEE7FEE7FEE7FEE7FEE768
:1002A000FEE7FEE7FEE7FEE704480549054A064B80
:1002B00070470000F549000889010008682D0020FA
:1002C00068730020686F0020686F0020DFED300A3F
:1002D000B5EEC00A60EE200ABDEEE01A11EE100A7B
:1002E000F1EE10FA38BF401E00EE100A9FED291AF9
:1002F000B8EEC00A70EEC00A20EE810ABCEEC00A59
:1003000010EE100A00EE100A0028B8EEC00A10EE37
:10031000810AB8BF002004DBB0F5807FC8BF4FF46E
:1003200080701D4960EE000AB6EE001ADFED1C2A4F
:100330009FED1A2A60EE011A60EE225A20EE813AF1
:1003400020EE022A21EEA01A01EB800073EE655A1E
:1003500062EE202AB7EE006A33EE003AD0EC043A9F
:1003600076EE611A71EE600A35EEE20A33EE413A3A
:1003700032EEC21A70EEA10A20EE230A64EE831A4E
:1003800004EE200A45EE011A31EE800A70470000A3
:1003900083F9223E0000804300A40008ABAA2A3E55
:1003A000ABAAAA3EDFED300AB5EEC00A60EE200A25
:1003B000BDEEE01A11EE100AF1EE10FA38BF401E41
:1003C00000EE100A9FED291AB8EEC00A70EEC00ABE
:1003D00020EE810ABCEEC00A10EE100A00EE100AF0
:1003E0000028B8EEC00A10EE810AB8BF002004DB76
:1003F000B0F5807FC8BF4FF480701D4960EE000AE1
:10040000B6EE001ADFED1C2A9FED1A2A60EE011AE3
:1004100060EE225A20EE813A20EE022A21EEA01A46
:1004200001EB800073EE655A62EE202AB7EE006A97
:1004300033EE003AD0EC043A76EE611A71EE600ABF
:1004400035EEE20A33EE413A32EEC21A70EEA10AFC
:1004500020EE230A64EE831A04EE200A45EE011A08
:1004600031EE800A7047000083F9223E000080438D
:1004700010A80008ABAA2A3EABAAAA3E0FB41CB52E
:10048000074B06AA7B4469460090059800F003FBE1
:100490000020694600F012FB1CBC5DF814FB000054
:1004A000350600002DE9F0410E460446002020628A
:1004B0002046E168884730B3252805D0D4E90121DA
:1004C0009047206A401CF2E7E168204600278847F1
:1004D000050018D0A5F14100192802D820354FF4A5
:1004E00000673246294620462760FFF7A7FE40B145
:1004F000012804D0F61D26F007060836D8E7361D79
:10050000D6E72846DAE7206ABDE8F08140EA010331
:1005100070B59B072ED14FF00136042A2AD308C8A4
:1005200010C99D1B9D43121F15EAC61517D0D8B2DE
:10053000E1B2401A50EA056110D198B2A1B2401A56
:1005400050EA05410AD123F07F4024F07F41401A50
:1005500050EA052102D1180EA0EB146070BDA34231
:10056000DBD018BA21BA884201D9012070BD4FF002
:10057000FF3070BD0AB9002070BD10F8013B11F8C2
:10058000014B63B1A3420AD1521E08D010F8013BBF
:1005900011F8014B1BB1A34201D1521EEDD1181B22
:1005A00070BD10B5203AC0F00B80B1E81850203A69
:1005B000A0E81850B1E81850A0E81850BFF4F5AF03
:1005C0005FEA027C24BFB1E81850A0E8185044BF8D
:1005D00018C918C0BDE810405FEA827C24BF51F8FA
:1005E000043B40F8043B08BF7047D20728BF31F8EE
:1005F000023B48BF11F8012B28BF20F8023B48BF3F
:1006000000F8012B70474FF0000200B513469446E6
:100610009646203922BFA0E80C50A0E80C50B1F15A
:100620002001BFF4F7AF090728BFA0E80C5048BF6E
:100630000CC05DF804EB890028BF40F8042B08BF0C
:10064000704748BF20F8022B11F0804F18BF00F808
:10065000012B704770477047704710B500F08AFA59
:10066000006810BD10B5044600F084FA046010BDA7
:1006700070472DE9FF4F0C461E464FF0FF378BB0F9
:10068000D2E90001DDF860800A908A46C1F30A557C
:1006900005B93D46002108464FF00000BAF1000FB1
:1006A00000F4400005DA00EB80004FF4400101EA5D
:1006B00050004FEA9059B9F1010F00DDB9460A9890
:1006C00050EA4A000ED044F61050A5F2FF354543DB
:1006D0002F14B8F1000F1ED07542291E1EDDC9F17E
:1006E00000021CE0B8F1010F4FF0000001D03021F2
:1006F00003E0F24305E02154401CB042FBDB3046EE
:100700000022002121540B99C1F80880C1E9002082
:100710000FB0BDE8F08FBD1B6D1CDEE74A4600DA66
:10072000694206A800F0D8FA06AB93E8070003ABCD
:1007300083E8070050460A9901F05DF88DE807004C
:10074000A0F500501F3800900398002D09DD42F2FB
:100750001F014A46084403A90390684601F0E7FADE
:1007600008E0A0F500504A461F3803A903906846E8
:1007700001F005FB8DE807000004000C03D04FF0EA
:10078000FF30410800E01046B8F1000F03D000220E
:10079000009215461EE0751E05D400F0EFF93032C8
:1007A00062556D1EF9D5B3460122084302D00022DE
:1007B0007F1C04E02078302801D100227F1E002A0F
:1007C000099786D01DE0112D07DA00F0D7F93032F5
:1007D00062556D1C50EA0102F5D1084302D0009821
:1007E000C8B10EE00021681E05E0235C625C635422
:1007F0002254401E491C8142F7DBAB46A81B401E19
:100800000990002004F80B000B98099AC0F80880A2
:10081000C0E9002B7CE711264FF0000859E72DE9CD
:10082000F04F88460446D21D22F0070191B0D1E96D
:100830000001CDE90A0106F03FF902460B98C00F0E
:1008400001D02D2007E02068810701D52B2002E090
:10085000202101EAC000032A099001D0072A05DB04
:1008600003464146204600F0D7F90BE12078800688
:1008700001D5E06900E00620B8F1650F814606D099
:10088000B8F1660F18D0B8F1670F70D131E00020D1
:10089000B9F1110F009001DB112301E009F101030F
:1008A0000AAA01A90CA8FFF7E4FEDDE90C700026F6
:1008B00009F10105834647E001204B4600904FF0C7
:1008C00000470AAA01A90CA8FFF7D3FEDDE90DB085
:1008D0000C995D46002610B909F101000D18B9EB1D
:1008E000050003D4C0F1FF3609F10105A5EB0900AD
:1008F0002BE0B9F1010F01DA4FF001090020B9F145
:10090000110F0090484601DD112300E003460AAABA
:1009100001A90CA8FFF7ADFEDDE90C704D460026DD
:100920008346207800070AD4AB4500DA5D4601A86B
:10093000012D04DD411911F8011C302907D04F4564
:1009400002DA17F1040F04DA012082460FE06D1E6F
:10095000EEE7002F02DCED1B3E4403E0781CA842CA
:1009600000DD7D1CB81B00F1010A4FF00047207824
:10097000000703D4AA4501DB4FF0FF3A0021B7F18D
:10098000004F0DF143088DF8431024D002202B2393
:10099000002F01DA7F422D230A21021EA0F101005F
:1009A00000DC5FB197FBF1FC97FBF1F201FB1C7CD3
:1009B00017460CF1300C08F801CDEEE7A8F1010064
:1009C00003702188090501D5452100E06521A0F1CA
:1009D000010800F8011C09980FA9A1EB0807FF1DE9
:1009E00000B10120411901EBEA70A1693844081AED
:1009F000401EA0612078C00602D42046AFF30080DC
:100A0000099828B1D4E901219047206A401C20624E
:100A10002078C00622D52046AFF300801EE0002ECD
:100A200004DBB34502DD01A8805D00E03020D4E99D
:100A300001219047206A401C2062761CAAF1010027
:100A40005FEA000A0AD100F091F8C0680168405CD2
:100A5000D4E901219047206A401C2062281EA5F19C
:100A60000105DCDC07E0D4E9012118F8010B90470F
:100A7000206A401C2062381EA7F10107F3DC2046E3
:100A8000AFF30080032011B043E6000001694A1C67
:100A900002610878704700B58FB0CDE901310021BF
:100AA000059105497944CDE9031011466846FFF7E1
:100AB000F9FC0FB000BD0000E5FFFFFF0A6802F877
:100AC000010B0A60704700000FB4002300B589B025
:100AD0000CA900910B99CB60214B7B440693214BD1
:100AE0007B44079304236FF00042CDE901321E4A94
:100AF0007A446B4608920246002009F04DFC09B08A
:100B00005DF814FB70B506464FF0FF3015460C46F5
:100B1000324686B00091CDE901016946002004907B
:100B200004A8FFF7D1FF02460498211825B108B1A7
:100B3000084600E020462860049800280DD0002ACE
:100B400002DD0098884208D03246081B69460094AE
:100B5000CDE9010404A8FFF7B7FF06B070BD00009F
:100B6000BB010000D30100001301000000487047E2
:100B7000282D002000487047082D002030B5B0F126
:100B80000A024FEA900E71F100034EEA817EB0EB4B
:100B90000E0061EB91014FEA101E4EEA017E10EB50
:100BA0000E0041EB11114FEA102E4EEA016E10EBD0
:100BB0000E0041EB11214FEA104E4EEA014E10EBB0
:100BC0000E0041EB1141401841F100014FEAD00005
:100BD00040EA41704FEAD10110EB80054FEA8104F1
:100BE00044EA907444EB01046D1944EB0404521B75
:100BF000A3414FF0000348BF0A3200D530BD401C6E
:100C000041F1000130BD10B5044600F0FDF8006868
:100C1000005D00F0010010BD2DE9F0411F460446C3
:100C200003260168072A01F4006004DB08B116A559
:100C300005E016A503E008B115A500E015A521F013
:100C400010002060A069C01EA0610FB1401EA0610D
:100C50002046AFF300804FB1D4E9012138469047D8
:100C6000206A401C2062C01C206206E0206AFAE76D
:100C7000D4E9012115F8010B9047761EF8D22046E1
:100C8000AFF30080BDE8F0814E414E006E616E0012
:100C9000494E4600696E6600426842B1016811F82B
:100CA000013B23B1521EC0E90012184670470121D2
:100CB000C160881E704742685AB1C368016843B971
:100CC00083688B4205D0491E521CC0E900120020E7
:100CD00070474FF0FF3070472DE9F04781461646C8
:100CE0008AB0334878440DC88DE80D003048784408
:100CF000801C03AC0DC884E80D0041F69B3008440D
:100D0000372190FBF1F290FBF1F5A5F1800501FB95
:100D100012041B3C02D56442012000E00020DFF8F1
:100D200090A080460027FA44AAF1BE0A0DE0E00731
:100D300009D03246684607EB47010AEB810101F012
:100D40001EF88DE8070064107F1C002CEFD1184FAF
:100D50007F44AC3F18E0E80714D007EB04100DF116
:100D6000180A90E80E008AE80E00C068F04201D12F
:100D700098190890324606A903A801F000F803ABC1
:100D800083E807006D10641C002DE4D132466946EB
:100D9000B8F1000F03A802D000F0C9FF01E000F095
:100DA000EEFFC9E90001C9F808200AB0BDE8F087E4
:100DB000C4A1000000487047082D00207546FFF7C9
:100DC000F9FFAE4605006946534620F00700854608
:100DD00018B020B5FFF768FABDE820404FF00006D4
:100DE0004FF000074FF000084FF0000B21F0070113
:100DF000AC46ACE8C009ACE8C009ACE8C009ACE856
:100E0000C0098D467047000010B5FFF7AFFE001D0A
:100E100010BD00BFAD8600002DE9FF4F064689B02A
:100E20000878FF2806D0491C2D2805D000244FF053
:100E3000000908E000200CE00124F8E709EB890331
:100E4000491C00EB43090878FF28F7D114B1C9F118
:100E500000008146107800252C46AA4629462D28F8
:100E600001D02B2804D1521C2D2813D000208246FB
:100E70008B461078FF280FD04FF0000C0A21521C2F
:100E8000A5FB017804FB018105FB0C11C5194BEB97
:100E90000104EEE70120EAE7002108464FF00000D8
:100EA000BAF1000F02D000EB80004008C0F3815877
:100EB000B8F1010F01DD4FF0FF380C9809EB000786
:100EC00055EA040009D04FF0020917F5FA7F0BDA52
:100ED0004FEACA70C6E900B012E04FEACA70C6E92C
:100EE00000B00DB0BDE8F08FB7F5FA7F0DDDF0482A
:100EF0007844D0E90010C6E9001040EACA7070607A
:100F0000FFF738FEC0F80090EBE7391E02DAC8F1AF
:100F1000000200E0424600DA794206A8FFF7DCFE54
:100F200006AB93E8070003AB83E8070044F23E00FA
:100F30005BEA04010090584604D144F21E012C469D
:100F40005D460091210C0904014306D10099240457
:100F500044EA15442D041039009104F07F41014307
:100F600006D10099240244EA15642D020839009143
:100F700004F07041014306D10099240144EA15743C
:100F80002D01091F009104F04041014306D1009951
:100F9000A40044EA9574AD00891E009104F000415C
:100FA000084304D100986D196441401E00904246E8
:100FB0006846002FCDE9014503A902DD00F0F3FEEC
:100FC00001E000F0C8FEBAF1000F04460D4601D062
:100FD00084F0004440F2FF7724F00040284303D01F
:100FE000C4F30A50B84212D1FFF7C4FDC0F8009014
:100FF000C4F30A50B8420AD1AE487844D0E9001090
:10100000C6E9001004F000410843706069E7C6E9D2
:10101000005466E72DE9FF4F1F464FF0000A4FF0DE
:10102000FF38454691B0D7E90146CDF83CA0FFF71F
:101030009DFDC0680168405C1090B96912986D1CF4
:101040008847396A814688470028F6D1B9F1FF3FC1
:101050000AD0002E24F4D06411DDB9F12B0F08D092
:10106000B9F12D0F0BD102E0404615B03AE744F438
:101070008064B96912986D1C8847761E81466005A8
:1010800004A901D52D2000E02B20002E01F1010B39
:101090000DF130088DF810003FDDB9F1690F08D06F
:1010A000B9F1490F05D0B9F16E0F02D0B9F14E0F69
:1010B0001CD13B4601A8009580E85002DDE91212E0
:1010C0006FF0020009F06CF9C11CCED10EE0B969D5
:1010D00012986D1C884781461398761E44F400745C
:1010E00005600F98401C002E0F9016DDB9F1300FEF
:1010F000EDD0B9F1780F02D0B9F1580F0DD10F989A
:1011000001280AD13B46CDE90054DDE91212001F47
:10111000029609F043F9C11CA7D1109989453ED127
:1011200044F0800406E01399681CAAF1010A44F413
:1011300000740860B9696D1C1298761E88473028C3
:101140008146F0D02BE01099894505D1200603D4C3
:10115000761E44F0800418E0484606F06BFF08B3A2
:10116000761E0DF123018B4544F4007408D2A9F1D9
:1011700030000BF8010B200607D5AAF1010003E0AF
:10118000200602D40AF101008246A00502D5139977
:10119000681C0860B96912986D1C88478146002E4A
:1011A000D1DC53E0002E51DDB9F1650F02D0B9F169
:1011B000450F4BD1A00549D5B9696D1C1298761E13
:1011C00024F440748847002E81460CDD2B2804D07F
:1011D000B9F12D0F07D144F48074B96912986D1CD0
:1011E0008847761E8146E00501D52D2100E02B21A0
:1011F00008F8011BCDF8008021E0761E0DF13901C1
:10120000884544F400740CD2A9F1300010F0FF00BE
:1012100088F8000002D10099884509D908F1010831
:1012200006E0E00501D5244801E042F20F70824655
:10123000B96912986D1C8847814613980560002E85
:1012400004DD484606F0F6FE0028D6D1F96912986A
:101250008847FF2053468BF8000088F800000020E4
:101260000A900B9004AA0CA90AA8FFF7D5FDA005C7
:1012700002D46FF00100F8E614F0240F0AD0E00762
:1012800014D13868DDE90A12031D3B600068C0E92B
:1012900000120BE00AA9684606F066FEE00705D1D9
:1012A0003868009A011D3960006802602846DCE653
:1012B000F09F0000E69E0000F1D8FFFF10B5044645
:1012C000AFF300802046BDE81040FEF7D9BF000014
:1012D0004FF0013C50F8042B51F8043B9A4221D1C5
:1012E000A2EB0C03934313EACC1317D150F8042B51
:1012F00051F8043B9A4215D1A2EB0C03934313EA35
:10130000CC130BD150F8042B51F8043B9A4209D16D
:10131000A2EB0C03934313EACC13DBD04FF0000095
:10132000704700BFD01A01BAB1FA81F101F018017B
:1013300022FA01F0CB40C1F12001DBB2C0B2C01AE9
:101340002CFA01F3D11A914311EAC311E6D1704787
:1013500001491820ABBEFEE72600020070470000DE
:101360002DE9FF4F1F464FF03C0987B04FF0004278
:10137000DDE9141001F10108DDF858A002EA40503F
:101380000390002005908346054604460490B96901
:10139000461E08988847AAF1010A0290BAF1000F88
:1013A0003BDD02982E2815D0102100F016FA0028F7
:1013B0002EDB4FF0010B0599014317D0B9F1000F57
:1013C0000BDB4A46C11700F0F5F905430C43A9F1C0
:1013D000040905E0012004900BE008B145F0010587
:1013E00001200590049820B9361D02E0049800B150
:1013F000361FB969089808F101088847BBF1000F4A
:10140000AAF1010A0290C9D00999C1F80080C5E784
:101410000298702808D0502806D0F96908988847A3
:10142000BBF1000F14D04FE0002002900120BBF16F
:10143000000F049009D0B969089808F1010888479D
:10144000AAF10109B9F1000F07DCF969089888478A
:101450006FF001000BB0BDE8F08F2B2804D02D28D1
:101460000CD14FF0FF300490B969089808F10108D9
:101470008847A9F10109B9F1000FE6DD411CE4D06C
:101480000A2100F0AAF90028DFDB029908F101081F
:1014900001EB810100EB41000290B969089888478F
:1014A0000A2100F09AF9099AA9F10109B9F1000F8E
:1014B000C2F8008001DD0028E7DAF969089888475A
:1014C0000499029800FB016655EA040004D004F078
:1014D0004041090002D006E0039898E0A40044EAE5
:1014E0009574AD00B61E04F00041080002D16D19DC
:1014F0006441761E159810F0240F03D04FF00B09AD
:101500005C4803E04FF028096FF07D0082465645A5
:1015100007DAAAEB06018944B9F1410F01DD4FF06A
:10152000410901200021A9F1010200F043F902461E
:1015300028400B462140084301D0012100E0002152
:10154000501E029143F1FF3128402140084301D051
:10155000012000E000200299834651EA0B014FD0A0
:10156000002108464FF00000039900F4400039B113
:1015700000EB80004FF4400100EBD07001EA600006
:101580008015012802DD4FF0FF3000E013D0401C31
:1015900036D0029860B3BBF1000F0CD14A4601204F
:1015A000002100F007F928402140084301D0012024
:1015B00000E00020E0B101204A46002100F0FAF8E6
:1015C000034640190A4661412D1A8C4111D3B9F1E5
:1015D000400F09DD159810F0240F02D0AAF134064F
:1015E00003E0AAF1170600E0761C00254FF0004446
:1015F00006E05B1E42F1FF3220EA030521EA020405
:10160000CAF10100B04206DA1B4903980843019071
:10161000002000900EE0039AC4F3D321E80A0A43A5
:10162000164940EA44500A433146CDE90002684673
:1016300006F0F6FC159810F0240F0BD01598C00793
:1016400015D13868DDE90012031D3B600068C0E970
:1016500000120CE002A8694606F086FC1598C00747
:1016600005D13868029A011D396000680260404661
:10167000F0E6000002FCFFFF0000F07F0000F03FFA
:101680002DE9FF4F92461D4685B04FF00041DDE940
:10169000124BDDE914727F1E01EA4B50414940F0C4
:1016A000FF4940EA0108002122F020004928049166
:1016B00002D04E2828D04CE03BA0012607C88DE878
:1016C0000700A9690698641C88477F1E014606D456
:1016D0001DF8060018B121F0200181420BD0E96904
:1016E00006988847032E34D0082E32D06FF00100C0
:1016F00009B0BDE8F08F761C032E01D0082EE0D192
:10170000601CCAF80000DCE7A9690698641C8847D9
:101710007F1E2AD420F02000412826D1A9690698EE
:10172000641C88477F1E20D420F020004E281CD146
:10173000A9690698641C88477F1E48F4002849F46C
:101740008009CAF8004001D4282806D0E969069823
:1017500088475FEACB7012D022E0A9690698641C22
:1017600088477F1E01D4002803DAE9690698884774
:10177000BCE72928F1D1641CCAF80040E9E71BF056
:10178000240F07D028680499031D2B600068C0E966
:10179000001805E02868021D2A600068C0F8009063
:1017A0002046A5E70000F07F494E46494E4954596E
:1017B00000000000B2F120030AD5C2F1200301FAB3
:1017C00002F120FA03F300FA02F041EA0301704744
:1017D00000FA03F14FF0000070473A2800D2303889
:1017E00020F02002412A01D3A2F13700884201D320
:1017F0004FF0FF3070475FEA400C08BF91F0000FD8
:101800004FEA8C234FEAC12243EA51514FEA1C5060
:1018100018BF00F5F0404FEA300018BF41F000411A
:101820005FEA6C5C00F02980BCF1FF3F08BF40F02C
:1018300080407047130C06BF12044FF0100C4FF09D
:10184000000C130E04BF12020CF1080C130F04BF9E
:1018500012010CF1040C930F04BF92000CF1020C66
:10186000D30F04BF52000CF1010C11464FF00002DF
:10187000A0F11F00A0EB0C00704711F0004F08BF53
:10188000704731F000413FF4D5AF0B0C06BF09049F
:101890004FF0100C4FF0000C0B0E04BF09020CF1BE
:1018A000080C0B0F04BF09010CF1040C8B0F04BFD3
:1018B00089000CF1020CCB0F04BF49000CF1010CA4
:1018C000CCF12003A0EB0C0022FA03F302FA0CF295
:1018D00041EA030100F10100704720F07F4C80EAEB
:1018E000030023F07F47ACEB070303F57C5300F0C4
:1018F000004003F1FF032DE980494FEA154B09B47D
:101900004FEA144325EA0B4E24EA03480FF204265B
:1019100006EB132749083E785FEA320203FB0667AD
:10192000C7F5000707FB06F64FEA54374FEAD646DD
:1019300006F1020607FB066CCCF1005C4FEA1C477F
:101940002CEA074C07FB06F40CFB06F504EB1546E6
:101950004FEA961634BF00204FF000404FEAD137CF
:1019600006FB07FC4FEA1C4C0CFB0BF7D21B03FBDE
:101970000CF761EB07010CFB0EF7B0EB074072EBC5
:1019800017420CFB08F734BFA2EB0742B2EB074249
:1019900061EB17414FEA0C444FEA910706FB07FC45
:1019A0004FEA1C4C0CFB0BF7B0EBC74072EB573205
:1019B00003FB0CF734BFA2EBC742B2EBC74261EBAB
:1019C00057310CFB0EF7B0EBC70072EB57720CFBF4
:1019D00008F734BFA2EBC702B2EBC70261EB577145
:1019E000039F4FEA816141EA921104EBCC044FEA74
:1019F000D1374FEA826206FB07FC42EA90124FEAB7
:101A000080604FEA1C4C0CFB0BF7D21B03FB0CF75E
:101A100061EB07010CFB0EF7B0EB074072EB1742CE
:101A20000CFB08F734BFA2EB0742B2EB074261EBB5
:101A300017414FEA8C554FEA910704EB9C2406FBB3
:101A400007FC4FEA1C4C0CFB0BF7B0EBC74072EBEA
:101A5000573203FB0CF734BFA2EBC742B2EBC742CD
:101A600061EB57310CFB0EF7B0EBC70072EB57720E
:101A70000CFB08F734BFA2EBC702B2EBC70261EB65
:101A8000577115EB4C254FEA816141EA92114FEAFB
:101A900082624FEAD13742EA901206FB07FC44F11A
:101AA00000044FEA80604FEA1C4C0CFB0BF7D21B82
:101AB00003FB0CF761EB07010CFB0EF7B0EB0740E3
:101AC00072EB17420CFB08F734BFA2EB0742B2EBF4
:101AD000074261EB174115EB1C154FEA813141EAD2
:101AE00092414FEA823242EA90424FEA80304FEA16
:101AF0000C7644F1000448EA03434EEA0B484FF0E9
:101B0000000EB2EB080C71EB030724BF62463946A6
:101B10004EEB0E0E4FF0000B0018524149414BEBBB
:101B20000B0BB2EB080C71EB03077BF1000B24BF2E
:101B3000624639464EEB0E0E4FF0000B0018524134
:101B400049414BEB0B0BB2EB080C71EB03077BF13C
:101B5000000B24BF624639464EEB0E0E51EA0207D7
:101B600018BF46F0010616EB0E7655F1000254F14F
:101B7000000103D5BDE88901BDE80088BDE8890101
:101B8000BDE80048B619524141EB0101A3F1010340
:101B9000704780807F7E7D7C7B7A797877767675DA
:101BA0007473727171706F6E6E6D6C6C6B6A6A6952
:101BB0006868676666656464636362616160605FEC
:101BC0005F5E5E5D5D5C5C5B5B5A5A595958585765
:101BD00057565655555554545353525252515150CD
:101BE00050504F4F4F4E4E4D4D4D4C4C4C4B4B4B20
:101BF0004A4A4A4949494848484747474746464666
:101C000045454544444444434343434242424241A0
:101C10004141000046EA0646A3F570534FEA1646D6
:101C200046EA42564FEAD22242EA415210B54FEA02
:101C3000D121A3F1010300F017F820F0004000F1DA
:101C4000010C00F0004701EB00501146BCF5006F9D
:101C500040EA070000D210BD02484FF0000140EA00
:101C6000070010BD0000F07F002B26D4770021D0A4
:101C70001CB54FEA370703B44FF010004FF01001C6
:101C80004FF000000FBCBDE810400BF1010BBBF1A1
:101C9000010F08BF5FEA170722BF12F1010211F11D
:101CA00001014FF0004143F1000300F0004043EA1E
:101CB00000007047F9D35708DAE746EA064613F101
:101CC000400F4FEA16461FDD13F1200FDFBF16430A
:101CD0000A46002120335B42C8D0C3F1200746EA00
:101CE000064602FA07F74FEA164646EA0706C3F128
:101CF000200722FA03F201FA07F721FA03F14FF065
:101D0000000342EA0702B1E746EA020646EA06464F
:101D10004FEA164646EA0106BCBF46EA0646360CBE
:101D20004FF000034FF000024FF000019EE72DE955
:101D3000C048934630B491E8380007C831EA400CF7
:101D400048BF34EA430C03D5FFF7C7FDFFF78CFF0C
:101D5000F0BCBDE800882DE9C048934630B491E856
:101D6000380007C831EA400C48BF34EA430C03D5B9
:101D7000FFF7B3FDFFF74EFFF0BCBDE800882DE98B
:101D8000C048934630B491E8380007C810F0804F3F
:101D900008BF13F0804F03D100F019F8FFF764FF7C
:101DA000F0BCBDE800882DE9C048934630B491E806
:101DB000380007C810F0804F08BF13F0804F03D1E0
:101DC00000F005F8FFF726FFF0BCBDE8008820F022
:101DD0007F4780EA030023F07F4C07EB0C03A3F559
:101DE0007C5300F00040A3F1FE0392F0000F00F0DE
:101DF000B38095F0000F00F077802DE901494FEA9C
:101E000011404FEA144621EA004800FB06FC24EA90
:101E1000064708FB06F607FB08F800FB07F718EB78
:101E200006484CEB164C4FEA124B18EB07484FEAAA
:101E300015464CEB174022EA0B4E0BFB06FC25EA3D
:101E400006470EFB06F607FB0EFE0BFB07F71EEB25
:101E5000064E4CEB164C4FF000061EEB074E4CEBBB
:101E6000174B18EB0B0840F1000018EB0E0B58EB6A
:101E7000000840F100008F1A4FF000013CBFC94339
:101E8000661B14BFB5EB040C00213CBFC943F61B15
:101E90004FEA17444EEA8E0E27EA04454FEA1C47E4
:101EA00004FB07622CEA074C05FB07F70CFB05F661
:101EB00004FB0CFC16EB074642EB174216EB0C46F4
:101EC00042EB1C421BEB060658EB0202414146EA7C
:101ED0009E0601D5BDE80189B619524141EB0101C9
:101EE000A3F10103BDE801894FEA14454FEA114708
:101EF00024EA054621EA074C05FB07F406FB07F731
:101F00000CFB06F105FB0CFC11EB074144EB1744FD
:101F10004FEA124711EB0C4144EB1C4422EA074CF8
:101F200005FB07F206FB07F70CFB06F605FB0CFCAE
:101F300016EB074642EB174216EB0C4642EB1C45EC
:101F40006A1854F1000148BF7047B619524141EB7D
:101F50000101A3F10103704795F0000F37D04FEA5C
:101F600011424FEA144721EA024624EA074C02FBD9
:101F700007F106FB07F70CFB06F402FB0CFC14EB65
:101F8000074441EB17414FEA154714EB0C4441EB72
:101F90001C4125EA074C02FB07F506FB07F70CFB83
:101FA00006F602FB0CFC16EB074645EB174516EB55
:101FB0000C4645EB1C42121951F1000148BF704715
:101FC000B619524141EB0101A3F1010370474FEAF9
:101FD00014454FEA114724EA054621EA074C05FB60
:101FE00007F106FB07F70CFB06F24FF0000605FBB6
:101FF0000CFC12EB074241EB174112EB0C4251EB88
:102000001C4148BF7047921841EB0101A3F1010345
:102010007047000010B52DED048B82B09FEDE80AEB
:10202000B0EE408AE748006813287DD2DFE800F070
:102030000A0B10182028475080899098CCF6F4F3AA
:10204000F2F1F000B1E1E0A1E14803F067FDACE19D
:10205000022002F015FCDCA1DD4803F05FFDA4E1E5
:102060000020DC490870D8A1D94803F057FD9CE155
:102070000120D8490870D4A1D54803F04FFD94E160
:10208000D548D0ED230AB0EE600A03F0CBFDD2486C
:10209000D0ED110AB0EE600A03F0C4FDCE48D0EDD9
:1020A000120AB0EE600A03F0BDFDCB48D0ED130A72
:1020B000B0EE600A03F0B6FD03F060FC75E16FF06E
:1020C000020002F0DDFBC0A1C14803F027FD6CE176
:1020D0000020C2490860BCA1BD4803F01FFDC048F4
:1020E000407A39280EDCBE48407A30280ADBBC48EA
:1020F000407A303800EB8000B849096801EB4000B5
:10210000B6490860B648807A39280BDCB448807A32
:10211000302807DBB248807A3038B0490968084473
:10212000AE490860012000E03AE102F0A9FB3CE181
:102130006FF0010002F0A4FBA3A1A54803F0EEFCA0
:1021400033E1A1A1A24803F0E9FC03F0CFF82CE1B0
:102150009DA19F4803F0E2FC042002F091FB24E1E2
:1021600099A19B4803F0DAFC9D48007A8DF80400A1
:102170009B48407A8DF805009948807A8DF80600D2
:102180009748C07A8DF8070095488079612812D069
:10219000782802D0792815D106E0DDED010AB0EEED
:1021A000600A02F0A5FB0DE0DDED010AB0EE600A69
:1021B00002F0A4FB06E0DDED010AB0EE600A02F0D9
:1021C00037FB00BF00BFF0E07FA1814803F0A6FC11
:1021D00083480A3005F0B4F8B0EE409AF0EE609A09
:1021E00051EC190B07F08EF97E49896908607EA1D0
:1021F000774803F093FC01F0B9F80446912101F00F
:1022000021F87CA1724803F089FC03F06FF8CCE060
:10221000C5E0C3E08EE064E038E0FFE770480A30D4
:1022200005F08EF8B0EE409AF0EE609A51EC190B82
:1022300007F068F908EE100A6948407A782804D057
:10224000792807D07A280FD109E06648C06980ED67
:10225000008A09E06348C06980ED018A04E06148B2
:10226000C06980ED028A00BF00BF5FA1584803F03B
:1022700055FC01F07BF80446912100F0E3FF5DA1DD
:10228000534803F04BFC03F031F88EE04EA1504868
:1022900003F044FC5248007A312804D1012051490E
:1022A000C96808700CE04E48007A302804D100203C
:1022B0004C49C968087003E053A1454803F02EFC5F
:1022C00049A1434803F02AFC01F050F8044691214B
:1022D00000F0B8FF47A13E4803F020FC03F006F8E9
:1022E00063E039A13A4803F019FC3D48407A3128AF
:1022F00004D101203B49496908700CE03848407A14
:10230000302804D1002037494969087003E044A10E
:102310002F4803F003FC34A12D4803F0FFFB01F02C
:1023200025F80446912100F08DFF32A1284803F0E2
:10233000F5FB3AE024A1264803F0F0FB0A241CE058
:102340002748005D312806D1012126480269A4F101
:102350000A00115410E02248005D302806D1002107
:1023600020480269A4F10A00115405E0A4F10A0210
:1023700035A1174803F0D2FB641C0F2CE0DB1AA137
:10238000134803F0CBFB00F0F1FF0446912100F06D
:1023900059FF18A10E4803F0C1FB06E005E004E078
:1023A0002EA10B4803F0BAFB00BF00BF0020054977
:1023B000086005F04FFE02B0BDEC048B10BD0000BC
:1023C00000000000840F00204F4B0D0A00000000A9
:1023D000001001403C0E0020A00F0020800F0020C4
:1023E000282C0020542C002077726974696E670DC8
:1023F0000A00000077726974652066696E69736807
:1024000065640D0A000000006D6F646520636F6DE8
:102410006D616E64206572726F720D0A00000000BB
:1024200028666C617368446174612E7363616C65C6
:102430004D6F64652920636F6D6D616E64206572F8
:10244000726F720D0A00000073656C65637420255D
:1024500064206572726F720D0A0000006572726FFF
:10246000720D0A0010B572480068042809D10422D0
:1024700070A17248FEF74AF818B901207049086047
:10248000D5E06B4800680A2809D10A226DA16B4883
:10249000FEF73CF818B9022069490860C7E06448B3
:1024A00000680D2809D10D2269A16448FEF72EF8B5
:1024B00018B9032062490860B9E05D4800680E2839
:1024C00009D10E2266A15D48FEF720F818B9042054
:1024D0005B490860ABE0564800680E2809D10E221F
:1024E00063A15648FEF712F818B905205449086050
:1024F0009DE04F480068092809D1092260A14F4892
:10250000FEF704F818B906204D4908608FE04848E6
:1025100000680D2809D109225CA14848FDF7F6FFA3
:1025200018B907204649086081E04148006808283A
:1025300009D1082258A14148FDF7E8FF18B9082041
:102540003F49086073E03A4800680A2809D10A2226
:1025500054A13A48FDF7DAFF18B909203849086054
:1025600065E0334800680B2809D10B2250A133489D
:10257000FDF7CCFF18B90A203149086057E02C4814
:1025800000680E2809D106224CA12C48FDF7BEFF99
:1025900018B90B202A49086049E0254800680A2834
:1025A00009DB0A2247A12548FDF7B0FF18B90C2026
:1025B000234908603BE01E4800680A2809DB09221D
:1025C00043A11E48FDF7A2FF18B90D201C49086061
:1025D0002DE0174800680B2809D108223FA11748B1
:1025E000FDF794FF18B90E20154908601FE0104848
:1025F00000680C2809D109223BA11048FDF786FF8D
:1026000018B90F200E49086011E009480068112828
:1026100009D10A2237A10948FDF778FF18B910201F
:102620000749086003E040F29A200549086010BDA0
:102630007C0F002041540D0A00000000282C0020CF
:10264000840F002041542B626567696E0D0A0000FB
:1026500041542B73746F7053656E640D0A00000053
:1026600041542B626567696E53656E640D0A000004
:1026700041542B7072696E74446174610D0A0000DC
:1026800041542B73746F700D0A00000041542B727B
:10269000657365743D0D0A0041542B7365740D0A12
:1026A0000000000041542B7072696E740D0A000026
:1026B00041542B7374617469630D0A0041542B7388
:1026C0006574000041542B7365746D696E3D0000A4
:1026D00041542B73657476617200000041542B6D78
:1026E0006F64653D0000000041542B7363616C65AD
:1026F0003D00000041542B73656C6563743D000020
:1027000070B52DED108B8CB0B0EE40AAF0EE608A63
:10271000B0EE418AB0EE619A04460D462AEE0A0AEE
:1027200008EEA80A10EE101A084607F027FD41EC43
:102730001C0BB0EE4C0AF0EE6C0A04F0A9FFB0EEF0
:1027400040BAF0EE60BA51EC1B0B06F0DBFE064619
:102750001AEE100A07F012FD41EC1C0B18EE900A5D
:1027600007F00CFD41EC1D0BB0EE4C1AF0EE6C1AAC
:10277000B0EE4D0AF0EE6D0A04F0EAFCB0EE40BA9D
:10278000F0EE60BA51EC1B0B06F0BCFE09EE900AAD
:10279000DFEDAC0A88EE200ADFEDAB0A20EE200A5E
:1027A000B0EE408ADFEDA70A89EE200ADFEDA60A27
:1027B00020EE200AB0EE409A19EE900A07F0DEFCF7
:1027C00041EC1D0BB0EE4D0AF0EE6D0A04F0D4FDA5
:1027D000B0EE40BAF0EE60BA304607F0CFFC41EC04
:1027E0001C0B53EC1B2B07F0D3F939EE290ACDE96A
:1027F000060110EE101A084607F0C0FC41EC1D0B54
:10280000B0EE4D0AF0EE6D0A04F0B6FDB0EE40BA3F
:10281000F0EE60BA304607F0B1FC41EC1C0B53EC13
:102820001B2B07F0B5F9CDE9020118EE100A07F0ED
:10283000A5FC41EC1D0BB0EE4D0AF0EE6D0A04F064
:10284000C3FEB0EE40BAF0EE60BA95ED000A10EEAD
:10285000101A084607F092FC41EC1C0B53EC1B2BA2
:1028600007F096F941EC1E0B18EE100A07F086FCF3
:1028700041EC1D0BB0EE4D0AF0EE6D0A04F07CFD4C
:10288000B0EE40BAF0EE60BA94ED000A10EE101A05
:10289000084607F073FC41EC1C0B53EC1B2B07F0B4
:1028A00077F941EC1F0B53EC1E2B06F05DFECDE9D2
:1028B00000019DED020B53EC102B9DED000B51EC34
:1028C000100B06F051FECDE904019DED060B53EC13
:1028D000102B9DED040B51EC100B07F065FBCDE9BF
:1028E00008019DED080B51EC100B06F00BFE0AEEF3
:1028F000900A19EE900A07F041FC41EC1D0BB0EE76
:102900004D0AF0EE6D0A04F05FFEB0EE40BAF0EE54
:1029100060BA304607F032FC41EC1C0B53EC1B2B29
:1029200007F036F939EE290ACDE9060110EE101A42
:10293000084607F023FC41EC1D0BB0EE4D0AF0EE0B
:102940006D0A04F041FEB0EE40BAF0EE60BA3046D7
:1029500007F014FC41EC1C0B53EC1B2B07F018F98F
:10296000CDE9020118EE100A07F008FC41EC1D0B3E
:10297000B0EE4D0AF0EE6D0A04F0FEFCB0EE40BA87
:10298000F0EE60BA95ED000A10EE101A084607F056
:10299000F5FB41EC1C0B53EC1B2B07F0F9F841EC59
:1029A0001E0B18EE100A07F0E9FB41EC1D0BB0EE10
:1029B0004D0AF0EE6D0A04F007FEB0EE40BAF0EEFC
:1029C00060BA94ED000AB1EE400A10EE101A084603
:1029D00007F0D4FB41EC1C0B53EC1B2B07F0D8F891
:1029E00041EC1F0B53EC1E2B06F0BEFDCDE90001A0
:1029F0009DED020B53EC102B9DED000B51EC100BD9
:102A000006F0B2FDCDE904019DED060B53EC102B51
:102A10009DED040B51EC100B07F0C6FACDE908014F
:102A20009DED080B51EC100B06F06CFD0A90C4ED07
:102A300000AA9DED0A0A85ED000A0CB0BDEC108BD2
:102A400070BD000000003443DB0F494000BFFEE7CB
:102A50001CB50121084601F097FB0121022001F07D
:102A600093FB1820009001208DF8040000208DF8C1
:102A7000060001208DF8070003208DF80500694647
:102A8000104800F0FDFB4FF41440009069460E48DA
:102A900000F0F6FB10210B4800F05FFC082109480C
:102AA00000F05BFC4FF48051074800F056FC4FF4F7
:102AB0000041054800F051FC4FF48061024800F0ED
:102AC0004CFC1CBD000002400004024070B50446EE
:102AD0000D466B480068401C69490860002612E0FA
:102AE00006EBC60202EB0612664B03EB4212111D07
:102AF00006EBC60202EB061203EB42104FF44772DC
:102B0000FDF74FFD761C032EEADB5F4890ED110ABE
:102B10005C4880EDC70A5C4890ED120A5B4880ED86
:102B2000C70A594890ED130A594880EDC70A002694
:102B300012E006EBC60202EB0612564B03EB421202
:102B4000111D06EBC60202EB061203EB42104FF416
:102B50004772FDF726FD761C032EEADB002025E0F8
:102B600000EBC00101EB0011464A02EB4111D1ED2F
:102B7000000A9FED491A80EE810A05EB8001D1ED34
:102B8000000A30EEC00A00EBC00101EB001102EBBD
:102B90004111D1EDC70A9FED401AC0EE811A30EE07
:102BA000210A05EB800181ED000A401C0328D7DBD8
:102BB000354890ED110AD5ED000A30EE600A35482F
:102BC00080EDC70A304890ED120AD5ED010A30EECB
:102BD000600A324880EDC70A2B4890ED130AD5ED04
:102BE000020A30EE600A2E4880EDC70A24480068C9
:102BF000B0F5C87F01DA002070BD4FF4C8702049DD
:102C00000860002038E09FED270A04EB800181ED89
:102C1000000A00211FE000EBC00202EB00121D4B76
:102C200003EB421202EB8102D2ED000A00EBC0027C
:102C300002EB001203EB421202EB810292ED001A4A
:102C400004EB800292ED000A00EE810A04EB8002A0
:102C500082ED000A491CC829DDDB04EB8001D1EDBF
:102C6000000A9FED0D1A80EE810AF1EEC00A04EB16
:102C70008001C1ED000A401C0328C4DB0120BBE732
:102C800018000020C8190020A00F0020E81C002018
:102C9000082000206810002000004843881300200E
:102CA000A81600200000000010B58CB002A805F0A6
:102CB00025FD0D208DF814000A208DF815008DF8E3
:102CC0002E000D208DF82F009DED040A8DED010AD8
:102CD0000198CDF816009DED020A8DED010A0198CC
:102CE000CDF81A009DED030A8DED010A0198CDF88B
:102CF0001E00124890ED200A8DED010A0198CDF8D2
:102D000022000E4890ED210A8DED010A0198CDF8C0
:102D100026000A4890ED220A8DED010A0198CDF8AF
:102D20002A00002405E005A8015D054802F0A1FF86
:102D3000641C1C2CF7DB0CB010BD0000A00F0020A1
:102D400000100140704700B5034604E04FF47A706C
:102D500000F004F85B1E002BF8D100BDA821414310
:102D60004FF0E02251610521116100BF4FF0E021D9
:102D7000096901F480310029F8D004214FF0E022E4
:102D80001161704770B52DED048B04460D4694ED2E
:102D9000000AF0EE000A80EE201AB0EE418AB0EE92
:102DA000480AFDF793FAF0EE408A94ED010AF0EE3E
:102DB000000A80EE201AB0EE418AB0EE480AFDF714
:102DC00085FA68EE808A94ED020AF0EE000A80EE41
:102DD000201AB0EE418AB0EE480AFDF777FA68EEA5
:102DE000808A94ED000AF0EE000A80EE201AB0EE20
:102DF000418AB0EE480AFDF7D5FAB0EE409A94ED5C
:102E0000010AF0EE000A80EE201AB0EE418AB0EE20
:102E1000480AFDF7C7FA29EE009A94ED020AF0EE8F
:102E2000000A80EE201AB0EE418AB0EE480AFDF7A3
:102E3000B9FA49EE008A18EE906A304607F09EF91A
:102E4000C5E9000194ED000AF0EE000A80EE201AB8
:102E5000B0EE418AB0EE480AFDF7A4FAF0EE408ADF
:102E600094ED010AF0EE000A80EE201AB0EE418ADD
:102E7000B0EE480AFDF72AFA68EE808A94ED020A5D
:102E8000F0EE000A80EE201AB0EE418AB0EE480A59
:102E9000FDF71CFA68EE808A94ED000AF0EE000A55
:102EA00080EE201AB0EE418AB0EE480AFDF70EFA25
:102EB000B0EE409A94ED010AF0EE000A80EE201A7E
:102EC000B0EE418AB0EE480AFDF76CFA29EE009A9E
:102ED00094ED020AF0EE000A80EE201AB0EE418A6C
:102EE000B0EE480AFDF75EFA49EE408A18EE906AA5
:102EF000304607F043F9C5E9020194ED000AF0EE0F
:102F0000000A80EE201AB0EE418AB0EE480AFDF7C2
:102F1000DDF9F0EE408A94ED010AF0EE000A80EE51
:102F2000201AB0EE418AB0EE480AFDF73BFA68EE8F
:102F3000808A94ED020AF0EE000A80EE201AB0EECC
:102F4000418AB0EE480AFDF7C1F968EE808A94ED37
:102F5000000AF0EE000A80EE201AB0EE418AB0EED0
:102F6000480AFDF71FFAB0EE409A94ED010AF0EE20
:102F7000000A80EE201AB0EE418AB0EE480AFDF752
:102F8000A5F929EE009A94ED020AF0EE000A80EE0F
:102F9000201AB0EE418AB0EE480AFDF703FA49EE76
:102FA000008A18EE906A304607F0E8F8C5E9040197
:102FB00094ED000AF0EE000A80EE201AB0EE418A8D
:102FC000B0EE480AFDF782F9F1EE408A94ED010A6D
:102FD000F0EE000A80EE201AB0EE418AB0EE480A08
:102FE000FDF774F968EE808A94ED020AF0EE000AAB
:102FF00080EE201AB0EE418AB0EE480AFDF7D2F911
:1030000068EE808A94ED000AF0EE000A80EE201A45
:10301000B0EE418AB0EE480AFDF7C4F9B0EE409A2E
:1030200094ED010AF0EE000A80EE201AB0EE418A1B
:10303000B0EE480AFDF7B6F929EE009A94ED020ABF
:10304000F0EE000A80EE201AB0EE418AB0EE480A97
:10305000FDF73CF949EE408A18EE906A304607F0D9
:103060008DF8C5E90601BDEC048B70BD014908600F
:10307000704700000C3C024070B504460A4600262A
:10308000082502B909E0012A01D1160205E0022A49
:1030900001D1160201E04FF4407600F097F80546A2
:1030A000082D28D11548006820F4407013490860A5
:1030B00008460068304308600846006820F0F800C1
:1030C00008600846006844F0020108430B490860A4
:1030D0000846006840F48030086000F077F8054644
:1030E0000648006820F002000449086008460068AD
:1030F00020F0F8000860284670BD0000103C024037
:1031000008201049096801F48031B1F5803F01D1F0
:10311000012015E00B49096801F0100109B10520F3
:103120000EE00849096801F0EF0109B1062007E047
:103130000449096801F0020109B1072000E00820F4
:10314000704700000C3C02400348006840F000401B
:103150000149086070470000103C024030B502464B
:103160000C46082500F032F80546082D17D10D4809
:10317000006820F440700B49086008460068086049
:103180000846006840F001000860147000F01EF866
:1031900005460448006820F00100024908602846FE
:1031A00030BD0000103C02400548006800F00040BF
:1031B00028B1044802490C39086003480860704788
:1031C000103C024023016745AB89EFCD08B50820CC
:1031D0000090FFF795FF009002E0FFF791FF00904D
:1031E0009DF800000128F8D09DF8000008BD704748
:1031F00010B591210B4800F019F80A480A490860F7
:1032000028304860283088602830C860401C086139
:10321000401D4861801C8861001DC861FFF7E7FF01
:1032200010BD0000742C0020542C00200246002009
:1032300003E0034BC35C1354401C8842F9D370472E
:103240000000040870B505460E46FFF7ADFFF320F9
:10325000FFF70CFF02213020FFF70EFFFFF7B6FF4C
:10326000002405E0295D054AA018FFF777FF641CDC
:10327000B442F7D3FFF768FF70BD000000000408F8
:10328000F0B50A4600210023002400BF3DE00125DF
:1032900005FA01F3156805EA03049C4234D1056878
:1032A0004F000326BE40B543056015794E00B5407A
:1032B0000668354305601579012D02D01579022D78
:1032C00016D185684F000326BE40B5438560557909
:1032D0004E00B540866835438560456801268E40BE
:1032E000B5434560456896798E40B6B23543456032
:1032F000C5684F000326BE40B543C560D5794E0072
:10330000B540C6683543C560491C1029BFD3F0BD20
:10331000F0B5002300244D07ED0E02FA05F3CE10A0
:1033200000F1200555F826504E07F70E0F26BE4037
:10333000B543CF1000F1200646F82750CE1000F11B
:10334000200555F8265045EA0304CE1000F120056B
:1033500045F82640F0BD4183704701837047000067
:103360000148007870470000880F0020004870472F
:10337000742C002038B500BFEFF3098028B100BFDE
:10338000EFF309801C49086004E000BFEFF30880F8
:10339000194908601848006810301749086017A1DB
:1033A000194802F0BBFB0020009018A218A1164893
:1033B00002F0B4FB032418E00F490968214401F12D
:1033C0001C00B0EE000A694600F024F86A4610A11D
:1033D0000D4802F0A3FBE11704EB91718910A4EBF7
:1033E000810109B902F0CAFA641E14F11C0FE3DA74
:1033F00002F0C4FA00BFFEE71400002048617264C6
:103400004661756C740000000010014030780000C7
:103410002573000070B52DED028B86B005460E4673
:10342000B0EE408A142239A101A8FDF7BAF834465B
:10343000002059E0B0EE000AC8EE000AB6EE000A1D
:1034400030EE800ABDEEC00AB8EEC00AF0EE000A07
:1034500020EE200AB4EEC80AF1EE10FA01DD0028D1
:1034600014DCF0EE000A88EE200AF6EE000A30EED8
:10347000200ABDEEC00AB8EEC00AF0EE000A20EE47
:10348000200AB4EE480AF1EE10FA15D1F0EE000A67
:1034900088EE200AF6EE000A30EE200ABDEEC00AE1
:1034A00010EE101A2944091A11F8011C01AA02EBA6
:1034B0002111097804F8011BB0EE000AC8EE000AD9
:1034C000B6EE000A30EE800ABDEEC00A10EE101A09
:1034D0002944091A11F8011C01F00F0101AA515CDD
:1034E00004F8011B411CC8B2B0EE000AC8EE000A85
:1034F000B6EE000A30EE800ABDEEC00A10EE101AD9
:10350000814297DC06B0BDEC028B70BD30313233A6
:1035100034353637383941424344454600000000CF
:1035200030B58BB0002420222DA103A8FDF739F877
:1035300033484069007810B1012808D103E0002029
:103540008DF8110003E008208DF8110000BF00BFC6
:103550006420FFF7F8FB80206B231022294900909C
:10356000294801F018F90120FFF7EDFB0520FFF7CE
:10357000EAFB00242FE0002524A00068029000BF91
:10358000681CC5B2012000EB440003A9085C009050
:1035900003A810F8143010221A491B4801F0FBF858
:1035A0002846FFF7D0FB052D00DD012503A810F804
:1035B000143010221349144801F0A0F88DF80800C7
:1035C0009DF80800012101EB440103AA515C8842E7
:1035D000D6D1601CC4B20F2CCDDB0BB030BD0000C7
:1035E0006B006C001B081A0019071C001D06680000
:1035F0006A101E0023001F00370038006900000019
:10360000542C00200000024000300140FFFF000069
:1036100000B587B00121080300F0E6FD012108464E
:1036200000F0B2FD052211462348FFF771FE052286
:1036300006212148FFF76CFE052207211E48FFF7EF
:1036400067FEE020059002208DF8180000208DF81C
:103650001A0001208DF81B0003208DF8190005A920
:103660001548FFF70DFE154800F09CFF0020ADF84F
:1036700000004FF48270ADF802000020ADF80400A5
:10368000ADF80600ADF808004FF40070ADF80A0080
:103690001820ADF80C000020ADF80E000720ADF8A2
:1036A00010006946054800F0B7FF0121034800F00B
:1036B0006DFF07B000BD0000000002400030014077
:1036C00010B52DED0A8BB0EE408AF0EE608A9FEDCA
:1036D000840BB0EE40AAF0EE60AA834890ED000B98
:1036E000B0EE409AF0EE609A4FF4C4727F49A1F1B7
:1036F0000800FCF756FF53EC192B51EC180B06F0A1
:1037000053FC7A4A083A02F5C47203C29FED740B67
:10371000B0EE40AAF0EE60AA002422E07348083818
:1037200000EBC40090ED002BB0EE421AF0EE621AEE
:103730006E48083800EBC40090ED002BB0EE420A52
:10374000F0EE620A53EC112B51EC100B06F020FA4C
:1037500041EC1B0B53EC1A2B05F006FF41EC1A0B46
:10376000641C322CDADB9FED620B53EC102B51EC16
:103770001A0B05F0B5FF41EC1A0B5F480068401CBE
:103780005D4908600846006864280FD25B4890EDE8
:10379000000B53EC102B51EC180B05F0E5FE574ACB
:1037A00003C29FED570ABDEC0A8B10BD524800685A
:1037B00064280DD19FED530B53EC102B4F4890ED27
:1037C000000B51EC100B05F08BFF41EC190B02E0E4
:1037D0006520494908604D4890ED000B53EC102BD3
:1037E0004B4890ED000B51EC100B05F0BDFE494A23
:1037F00003C2494890ED000B53EC102B454890ED67
:10380000000B51EC100B05F0AFFE41EC1B0B53EC21
:103810001B2B404890ED000B51EC100B05F060FFA6
:103820003E4A03C253EC192B51EC180B06F0BCFBBB
:1038300041EC1C0B394890ED000B53EC102B51EC74
:103840001C0B06F0A5F941EC1B0B53EC192B05F0F2
:103850008BFE254A03C2314890ED000B53EC102B30
:103860009FED2F0B51EC100B06F09EFB41EC1B0B58
:10387000284890ED000B53EC102B51EC1B0B06F07D
:1038800087F9234A03C2254890ED000B53EC102B17
:1038900090ED000B51EC100B06F07AF941EC1B0B8C
:1038A00053EC1A2B06F074F9184A03C29FED1E0B55
:1038B00053EC102B194890ED000B51EC100B06F057
:1038C00065FA02D2084880ED008B074890ED000BA6
:1038D00051EC100B05F016FE00EE100A63E7000035
:1038E0000000000000000000E80E0020A02A0020D8
:1038F0000000000000004940200F0020180F0020A9
:10390000000000000000000000C05840080F002028
:10391000F00E0020F80E0020100F0020000F0020F5
:10392000000000000000F03F000000000000E03F49
:1039300000BFFEE700BFFEE770B5002100230F22A5
:10394000C4781CB3174C246804F4E064C4F5E06444
:10395000C4F30721C1F10404E3B20A4144789C4056
:10396000E1B28478144021430C07210E0E4C0578F7
:103970006155047804F01F050124AC4005786D11F1
:10398000AD0005F1E025C5F8004109E0047804F038
:103990001F050124AC40054D0678761145F82640F8
:1039A00070BD00000CED00E000E400E080E100E00C
:1039B00002490143024A1160704700000000FA0505
:1039C0000CED00E070B52DED0C8BA8B004460D4653
:1039D00095ED000ADFEDFD0A80EE201A9FEDFC0A4E
:1039E00021EE000A85ED000A95ED010ADFEDF70AE8
:1039F00080EE201A9FEDF60A21EE000A85ED010AFD
:103A000095ED020ADFEDF10A80EE201A9FEDF00A33
:103A100021EE000A85ED020A202120A8FCF7F3FD23
:103A2000202118A8FCF7EFFD202110A8FCF7EBFDE2
:103A3000202108A8FCF7E7FD20216846FCF7E3FDFC
:103A4000012664E194ED000B8DED000B94ED020B6B
:103A50008DED020B94ED040B8DED040B94ED060B34
:103A60008DED060B012E06D0022E0AD0032E7CD03F
:103A7000042E05D1F3E02A4620A9684604F0FAFA9C
:103A800043E19DED201BB0EE410AF0EE610A9FED8F
:103A9000D11B53EC112B51EC100B05F021FE41EC26
:103AA000180B9DED001BB0EE410AF0EE610A53ECDD
:103AB000102B05F059FDCDE900019DED221BB0EE64
:103AC000410AF0EE610A9FEDC31B53EC112B51EC40
:103AD000100B05F005FE41EC180B9DED021BB0EE3E
:103AE000410AF0EE610A53EC102B05F03DFDCDE9E3
:103AF00002019DED241BB0EE410AF0EE610A9FED3C
:103B0000B51B53EC112B51EC100B05F0E9FD41EC0A
:103B1000180B9DED041BB0EE410AF0EE610A53EC68
:103B2000102B05F021FDCDE904019DED261BB0EE23
:103B3000410AF0EE610A9FEDA71B53EC112B51ECEB
:103B4000100B05F0CDFD41EC180B9DED061BB0EE02
:103B5000410AF0EE610A53EC102B05F005FDCDE9AA
:103B600006012A4618A9684600E002E004F082FA3D
:103B7000CBE09DED181BB0EE410AF0EE610A9FED1F
:103B8000951B53EC112B51EC100B05F0A9FD41ECEA
:103B9000180B9DED001BB0EE410AF0EE610A53ECEC
:103BA000102B05F0E1FCCDE900019DED1A1BB0EEF4
:103BB000410AF0EE610A9FED871B53EC112B51EC8B
:103BC000100B05F08DFD41EC180B9DED021BB0EEC6
:103BD000410AF0EE610A53EC102B05F0C5FCCDE96B
:103BE00002019DED1C1BB0EE410AF0EE610A9FED53
:103BF000791B53EC112B51EC100B05F071FD41ECCE
:103C0000180B9DED041BB0EE410AF0EE610A53EC77
:103C1000102B05F0A9FCCDE904019DED1E1BB0EEB3
:103C2000410AF0EE610A9FED6B1B53EC112B51EC36
:103C3000100B05F055FD41EC180B9DED061BB0EE89
:103C4000410AF0EE610A53EC102B05F08DFCCDE932
:103C500006012A4610A9684604F00CFA55E09DEDCD
:103C6000102BB0EE420AF0EE620A9DED002BB0EE92
:103C7000421AF0EE621A53EC102B51EC110B05F0C6
:103C800073FCCDE900019DED122BB0EE420AF0EE7F
:103C9000620A9DED022BB0EE421AF0EE621A53EC6E
:103CA000102B51EC110B05F05FFCCDE902019DEDED
:103CB000142BB0EE420AF0EE620A9DED042BB0EE3A
:103CC000421AF0EE621A53EC102B51EC110B05F076
:103CD0004BFCCDE904019DED162BB0EE420AF0EE4F
:103CE000620A9DED062BB0EE421AF0EE621A53EC1A
:103CF000102B51EC110B05F037FCCDE906012A46DB
:103D000008A9684604F0B6F900BF00BF761C052E6E
:103D1000FFF698AE9DED101BB0EE410AF0EE610A81
:103D200053EC102B9FED2B1B51EC110B05F030FFCA
:103D300041EC1B0B9DED181BB0EE410AF0EE610A41
:103D400053EC102B9FED231B51EC110B05F020FFC2
:103D500041EC1D0B9DED201BB0EE410AF0EE610A17
:103D600053EC102B05F000FC41EC1C0B53EC1B2B0F
:103D700005F0FAFB41EC1A0B9DED081BB0EE410A71
:103D8000F0EE610A53EC102B05F0EEFB41EC190B41
:103D90009FED120B53EC102B05F0FAFE41EC180BC3
:103DA00094ED001BB0EE410AF0EE610A53EC102BCB
:103DB00005F0DAFBC4E900019DED121BB0EE410AEB
:103DC000F0EE610A53EC102B0CE0000000003443CD
:103DD000DB0F4940000000000000004057D4E653CC
:103DE0005555C53F1FED051B51EC110B05F0D0FEDD
:103DF00041EC1B0B9DED1A1BB0EE410AF0EE610A7F
:103E000053EC102B1FED0D1B51EC110B05F0C0FEF8
:103E100041EC1D0B9DED221BB0EE410AF0EE610A54
:103E200053EC102B05F0A0FB41EC1C0B53EC1B2BAF
:103E300005F09AFB41EC1A0B9DED0A1BB0EE410A0E
:103E4000F0EE610A53EC102B05F08EFB41EC190BE0
:103E50001FED1E0B53EC102B05F09AFE41EC180BD6
:103E600094ED021BB0EE410AF0EE610A53EC102B08
:103E700005F07AFBC4E902019DED141BB0EE410A86
:103E8000F0EE610A53EC102B1FED2E1B51EC110BC1
:103E900005F07EFE41EC1B0B9DED1C1BB0EE410AB4
:103EA000F0EE610A53EC102B1FED361B51EC110B99
:103EB00005F06EFE41EC1D0B9DED241BB0EE410A9A
:103EC000F0EE610A53EC102B05F04EFB41EC1C0B9D
:103ED00053EC1B2B05F048FB41EC1A0B9DED0C1B22
:103EE000B0EE410AF0EE610A53EC102B05F03CFBFA
:103EF00041EC190B1FED470B53EC102B05F048FE5E
:103F000041EC180B94ED041BB0EE410AF0EE610A8F
:103F100053EC102B05F028FBC4E904019DED161BA2
:103F2000B0EE410AF0EE610A53EC102B1FED571B67
:103F300051EC110B05F02CFE41EC1B0B9DED1E1BF3
:103F4000B0EE410AF0EE610A53EC102B1FED5F1B3F
:103F500051EC110B05F01CFE41EC1D0B9DED261BD9
:103F6000B0EE410AF0EE610A53EC102B05F0FCFABA
:103F700041EC1C0B53EC1B2B05F0F6FA41EC1A0B31
:103F80009DED0E1BB0EE410AF0EE610A53EC102BD2
:103F900005F0EAFA41EC190B1FED700B53EC102BF6
:103FA00005F0F6FD41EC180B94ED061BB0EE410A4E
:103FB000F0EE610A53EC102B05F0D6FAC4E90601C5
:103FC00028B0BDEC0C8B70BD70B52DED0C8B04468C
:103FD0000D4694ED001BB0EE410AF0EE610A51EC83
:103FE000100B05F08FFA08EE900A94ED021BB0EE6C
:103FF000410AF0EE610A51EC100B05F083FA08EE6D
:10400000100A94ED041BB0EE410AF0EE610A51EC87
:10401000100B05F077FA09EE100A94ED061BB0EECE
:10402000410AF0EE610A51EC100B05F06BFA09EE53
:10403000900A28EEA80A08EE080A09EE090A09EE15
:10404000A90A10EE101A084606F098F841EC1C0B6D
:10405000B0EE4C0AF0EE6C0A03F01AFBB0EE40BA78
:10406000F0EE60BA51EC1B0B05F04CFA0AEE100AA8
:1040700088EE8A0AF0EE408A88EE0A0AB0EE408A9C
:1040800089EE0A0AB0EE409A89EE8A0AF0EE409A6A
:1040900069EE290A48EE880AB0EE001A60EE810A3D
:1040A000B0EE600A05F00EF885ED000A29EEA90AC7
:1040B00009EE490A08EE480A08EEA80A10EE101A9E
:1040C000084606F05BF841EC1C0BB8EE000A28EE3F
:1040D000000A20EE290AF0EE000A68EEA00A00EEBF
:1040E000890A10EE101A084606F048F841EC1D0B3C
:1040F000B0EE4C1AF0EE6C1AB0EE4D0AF0EE6D0A0E
:1041000003F026F8B0EE40BAF0EE60BA51EC1B0BAB
:1041100005F0F8F9686029EE090A09EEE90A08EEE7
:10412000A80A08EE480A10EE101A084606F026F80B
:1041300041EC1C0BB0EE000A28EE000A20EE090A42
:10414000F0EE000A68EEA00A00EEE90A10EE101A7E
:10415000084606F013F841EC1D0BB0EE4C1AF0EED9
:104160006C1AB0EE4D0AF0EE6D0A02F0F1FFB0EEFF
:1041700040BAF0EE60BA51EC1B0B05F0C3F9A86031
:10418000BDEC0C8B70BD000029B1064A12680243D9
:10419000044B1A6004E0034A12688243014B1A6020
:1041A000704700003038024029B1064A12680243C5
:1041B000044B1A6004E0034A12688243014B1A6000
:1041C000704700004038024029B1064A1268024395
:1041D000044B1A6004E0034A12688243014B1A60E0
:1041E000704700002038024029B1064A1268024395
:1041F000044B1A6004E0034A12688243014B1A60C0
:10420000704700004438024029B1064A1268024350
:10421000044B1A6004E0034A12688243014B1A609F
:104220007047000024380240F0B50021002200242D
:10423000022500260223324F3F6807F00C0121B10E
:10424000042905D0082937D105E02E4F076036E054
:104250002D4F076033E02A4F3F1F3F68C7F380565A
:10426000274F3F1F3F6807F03F036EB1264FB7FB54
:10427000F3F7DFF88CC0ACF1040CDCF800C0CCF331
:10428000881C07FB0CF40CE01E4FB7FBF3F7DFF8BC
:1042900070C0ACF1040CDCF800C0CCF3881C07FB48
:1042A0000CF4174F3F1F3F68C7F301477F1C7D0089
:1042B000B4FBF5F7076002E0124F076000BF00BFD4
:1042C0000F4F3F6807F0F0010909104F7A5C07684B
:1042D000D74047600A4F3F6807F4E051890A0B4F07
:1042E0007A5C4768D7408760054F3F6807F46041B4
:1042F000490B064F7A5C4768D740C760F0BD0000A5
:10430000083802400024F40000127A00900F0020C8
:1043100010B52DED028B86B018216846FCF773F9B5
:104320006B4890ED230ADFED6B0A80EE201A11EE48
:10433000104A204605F022FF41EC180B664890ED2C
:10434000001BB0EE410AF0EE610A53EC102B51EC69
:10435000180B05F01DFCCDE900015D4890ED230A26
:10436000DFED5C0A80EE201A11EE104A204605F0BF
:1043700005FF41EC180B584890ED021BB0EE410AC6
:10438000F0EE610A53EC102B51EC180B05F000FC19
:10439000CDE902014E4890ED230ADFED4E0A80EE92
:1043A000201A11EE104A204605F0E8FE41EC180BE9
:1043B000494890ED041BB0EE410AF0EE610A53EC5F
:1043C000102B51EC180B05F0E3FBCDE9040140483C
:1043D00090ED110A10EE101A084605F0CFFE41ECE0
:1043E000180B05F08FF83A49C1F88000084690EDA7
:1043F000120A10EE101A084605F0C0FE41EC180B28
:1044000005F080F83249C1F88400084690ED130A9F
:1044100010EE101A084605F0B1FE41EC180B05F03D
:1044200071F82B49C1F888002C480068401C2B49C2
:1044300008600846006840F6BA31884245D12748EE
:104440000068401E25490860214890ED200A244854
:10445000D0ED000A30EE600A10EE101A084605F0A2
:104460008DFE41EC180B05F04DF81949C1F880009C
:10447000084690ED210A1A48D0ED010A30EE600A94
:1044800010EE101A084605F079FE41EC180B05F005
:1044900039F80F49C1F88400084690ED220A104807
:1044A000D0ED020A30EE600A10EE101A084605F050
:1044B00065FE41EC180B05F025F80549C1F88800A8
:1044C000012006B0BDEC028B10BD0020F9E7000012
:1044D000A00F00200000C842A8250020340E0020B4
:1044E0009825002000B587B001218803FFF75CFE06
:1044F00001210220FFF748FE05220D212148FEF789
:1045000007FF05220E211F48FEF702FF4FF4C040AF
:10451000059002208DF8180000208DF81A00012067
:104520008DF81B0003208DF8190005A91548FEF72A
:10453000A7FE154800F036F84FF48060ADF8000093
:104540004FF48270ADF802000020ADF80400ADF821
:1045500006000120ADF808004002ADF80A00202056
:10456000ADF80C000020ADF80E000720ADF81000EB
:104570006946054800F050F80121034800F006F8AC
:1045800007B000BD000402400038004021B102889D
:1045900042F04002028004E002884FF6BF731A40E6
:1045A0000280704710B504461148844208D10121A9
:1045B0008014FFF729FE0021A014FFF725FE16E066
:1045C0000C48844208D101210014FFF7FDFD0021B1
:1045D0002014FFF7F9FD0AE00748844207D10121C2
:1045E000C013FFF7F1FD0021E013FFF7EDFD10BD53
:1045F0000030014000380040003C004002460020EE
:1046000013890B400BB1012000E0002070470146E8
:10461000888970478181704710B50022028802F4B2
:1046200041520B884C8823438C882343CC882343F6
:104630000C8923434C8923438C892343CC8923430E
:104640001A430280838B4FF2FF74234083830B8ACB
:10465000038210BD2DE9F04780460E4617461C46E2
:10466000DDE9089A44F0800401214046FFF78EFFFF
:1046700039463046FEF76FFE00BF02214046FFF785
:10468000BDFF0028F9D021464046FFF7C3FF00BF19
:1046900001214046FFF7B2FF0028F9D04046FFF75E
:1046A000B6FF002517E000BF02214046FFF7A6FF36
:1046B0000028F9D000214046FFF7ACFF00BF0121E0
:1046C0004046FFF79BFF0028F9D04046FFF79FFFC9
:1046D00009F805006D1C5545E5D300BF8021404613
:1046E000FFF78CFF0128F9D000214046FFF74EFF6D
:1046F00039463046FEF731FEBDE8F0872DE9F0413E
:1047000080460D4616461C4644F080040121404672
:10471000FFF73CFF31462846FEF71DFE00BF022191
:104720004046FFF76BFF0028F9D021464046FFF7CF
:1047300071FF00BF01214046FFF760FF0028F9D05C
:104740004046FFF764FF00BF02214046FFF756FFD7
:104750000028F9D000214046FFF75CFF00BF01218F
:104760004046FFF74BFF0028F9D04046FFF74FFFC8
:10477000C7B200BF80214046FFF740FF0128F9D0B3
:1047800000214046FFF702FF31462846FEF7E5FDCF
:104790003846BDE8F0812DE9F04107460C46154644
:1047A0001E46DDF8188001213846FFF7EFFE294646
:1047B0002046FEF7D0FD00BF02213846FFF71EFF5E
:1047C0000028F9D031463846FFF724FF00BF012109
:1047D0003846FFF713FF0028F9D03846FFF717FFD8
:1047E00000BF02213846FFF709FF0028F9D04146F3
:1047F0003846FFF70FFF00BF01213846FFF7FEFEE6
:104800000028F9D03846FFF702FF00BF8021384664
:10481000FFF7F4FE0128F9D000213846FFF7B6FE75
:1048200029462046FEF799FDBDE8F081704700005B
:1048300000B52DED028B83B0B0EE408A9FED0C0ADF
:104840008DED000A9FED0A0A8DED010ADFED090AE0
:1048500088EE200ADFED080A20EE200A8DED020A1C
:1048600006496846FEF78EFA03B0BDEC028B00BD28
:104870000000000000003443DB0F4940A00F00207F
:10488000411D0A2930D2DFE801F0282F211A2F2FED
:10489000050C2F131549097841F00101134A1170D5
:1048A00022E01249097841F00201104A11701BE020
:1048B0000E49097841F004010C4A117014E00B49CB
:1048C000097821F00101094A11700DE007490978C2
:1048D00021F00201054A117006E00449097821F02F
:1048E0000401024A117000BF00BF7047880F00200A
:1048F000014880ED000A7047240F0020014880ED38
:10490000000A7047280F00200CB50020019000908D
:104910003448006840F480303249086000BF3148B4
:10492000006800F4003000900198401C019000984D
:1049300018B90198B0F5A06FF1D12A48006800F4C9
:10494000003010B10120009001E00020009000989C
:10495000012846D123484030006840F0805021496A
:10496000403108602048006840F480401E490860DB
:104970001C48083000681B49083108600846006878
:1049800040F4004008600846006840F4A050086009
:104990001648091F0860081F006840F08070091F52
:1049A000086000BF0F48006800F000700028F9D0D0
:1049B00040F205600E4908600A480830006820F09F
:1049C00003000849083108600846006840F002000A
:1049D000086000BF03480830006800F00C00082899
:1049E000F8D10CBD00380240007000400854400768
:1049F000003C024010B51548006840F470001349AF
:104A000008601348006840F0010011490860002068
:104A10000F49083108600E4800680E4908400C49EB
:104A200008600D48091D0860081F006820F48020F8
:104A3000091F0860002006490C310860FFF764FF79
:104A40004FF0006001498039086010BD88ED00E03A
:104A500000380240FFFFF6FE1030002410B501219F
:104A6000044800F07AF9012803D10121014800F03F
:104A700065F910BD0000014000B52DED028B87B037
:104A80000121880700F069F901287DD10121800703
:104A900000F054F97A480068401C79490860794868
:104AA0000068401C77490860754890ED000AB8EE30
:104AB000400AF1EE040AB4EEE00AF1EE10FA05DB6A
:104AC00000206F49086001206F49087004F024F944
:104AD00004F0E4F904F0B0F8684603F0B9FF04A864
:104AE00003F0A6FF01A803F093FF684890ED000AC9
:104AF000DDED040A30EE200A80ED000A90ED010A97
:104B0000DDED050A30EE200A80ED010A90ED020A83
:104B1000DDED060A30EE200A80ED020A5C4890EDD9
:104B2000000ADDED010A30EE200A80ED000A90ED6A
:104B3000010ADDED020A30EE200A80ED010A90ED57
:104B4000020ADDED030A30EE200A80ED020A514828
:104B500090ED000ADDED000A30EE200A80ED000A3B
:104B60004848006805287CD14B480078401C4A49D9
:104B70000870002043490860444890ED000AF1EEB7
:104B8000040A80EE201A00E072E0444880ED111A19
:104B90003E4890ED010AF1EE040A80EE201A3F48EB
:104BA00080ED121A394890ED020AF1EE040A80EE07
:104BB000201A3A4880ED131A354890ED000AF1EEBC
:104BC000040A80EE201A354880ED1D1A304890ED19
:104BD000010AF1EE040A80EE201A304880ED1E1A18
:104BE0002B4890ED020AF1EE040A80EE201A2B48C1
:104BF00080ED1F1A274890ED000AF1EE040A80EEBE
:104C0000201A264880ED231A90ED230A10EE101A80
:104C1000084605F0B3FA41EC180BB0EE480AF0EE86
:104C2000680AFEF74DFD1D4880ED230A9FED1C0A22
:104C3000164880ED000A9FED1A0A80ED010A9FEDEB
:104C4000180A80ED020A9FED160A114880ED000A4D
:104C50009FED130A80ED010A9FED110A80ED020A13
:104C600000E009E09FED0E0A0A4880ED000A03E02B
:104C70000CA10F4800F052FF07B0BDEC028B00BD45
:104C80000400002010000020080000205010002028
:104C90005C1000200C00002009000020A00F002064
:104CA0000000000054494D32206572726F7200009E
:104CB0000010014010B50121044800F04EF8012811
:104CC00003D10121014800F039F810BD0004004073
:104CD00010B50121044800F040F8012803D101215A
:104CE000014800F02BF810BD0008004010B501216C
:104CF000044800F032F8012803D10121014800F0F6
:104D00001DF810BD000C004010B50121044800F052
:104D100024F8012803D10121014800F00FF810BD4B
:104D20000004014021B1028842F08002028004E0C8
:104D300002884FF67F731A4002807047CA4302828E
:104D4000704721B1028842F00102028004E002882B
:104D50004FF6FE731A400280704730B502460020BD
:104D600000230024158A05EA0103958905EA010458
:104D700013B10CB1012000E0002030BD1AB18389CD
:104D80000B43838102E083898B438381704700005A
:104D90002DE9FF4104460D4616461F46DDF82880E2
:104DA0006949601A8C4270D01ADC6849A4EB010092
:104DB0008C426CD00ADCB4F1804F4ED06448204461
:104DC000002852D0B0F5806F71D156E0B0F5806FF9
:104DD00065D0B0F5006F6CD0B0F5406FF4D170E0E5
:104DE000B0F5923F21D009DCB0F5806F7AD0B0F5F4
:104DF000644F0AD0B0F5684F7CD10EE0B0F5943F17
:104E00001BD0B0F5963F75D11FE001210846FFF792
:104E1000EBF919208DF800006DE001210220FFF769
:104E2000E3F92C208DF8000065E001210804FFF76C
:104E3000DBF918208DF800005DE001211920FFF753
:104E4000D3F92C208DF8000055E001218804FFF7EC
:104E5000CBF91A208DF800004DE001210846FFF73C
:104E6000A3F91C208DF8000045E001210220FFF786
:104E70009BF91D208DF800003DE001210420FFF783
:104E800093F91E208DF8000035E023E0FFE70121B3
:104E90000820FFF789F932208DF800002BE001216E
:104EA0001020FFF781F936208DF8000023E021E083
:104EB000FFE701212020FFF777F937208DF8000068
:104EC00019E001214020FFF76FF92B208DF8000039
:104ED00011E007E001218020FFF766F92C208DF812
:104EE000000008E001210802FFF75EF92D208DF88F
:104EF000000000E000BF00BF0295ADF80460002094
:104F0000ADF80C00ADF8060001A9204600F07EF8CF
:104F100001212046FFF712FF012211462046FFF72C
:104F20002DFFF8B28DF8010008F0FF008DF80200A7
:104F300001208DF803006846FEF7FEFC01212046A3
:104F4000FFF7FFFEBDE8FF81001C0040000C0040A1
:104F500000FCFFBF70B5002400220023058C4FF633
:104F6000FF6635400584028C8388848B4FF68F75ED
:104F70002C404FF6FC752C400D882C434FF6FF5506
:104F80002A408D894FF6FF7606EA05252A434D888B
:104F900006EA05252A43154DA84202D0144DA84221
:104FA0001DD14FF2FF752A40CD894FF6FF7606EAF4
:104FB00005252A434FF6FF352A408D8806EA052548
:104FC0002A434EF6FF752B404DF6FF752B400D8A98
:104FD00006EA05152B434D8A06EA05152B43838007
:104FE00084838D68C563028470BD000000000140A9
:104FF000000401400A460021818B4FF6F7731940E7
:10500000114381837047C16370470000002202880A
:10501000184B98420ED0184B98420BD0B0F1804FED
:1050200008D0164B984205D0154B984202D0154B2C
:10503000984204D14FF68F731A404B881A43124B93
:10504000984207D0114B984204D04FF6FF431A40C4
:105050000B891A4302804B68C3620B880385054B9A
:10506000984202D0044B984201D18B7A03860123E7
:1050700083827047000001400004014000040040AA
:1050800000080040000C00400010004000140040E8
:1050900070B52DED068B044614B100207F490860E1
:1050A0007F480068401C7E490860084600684FF44D
:1050B0007A61B0FBF1F201FB120000287CD1794843
:1050C0000068B0F1FF3F02D0012846D146E07648A3
:1050D00090ED230A7548D0ED000A30EE600ADFED4E
:1050E000740AB4EEE00AF1EE10FA36DB714890ED86
:1050F000000ADFED710AB4EEE00AF1EE10FA08DD05
:1051000090ED000ADFED6C0A30EE600A80ED000AD7
:1051100023E0684890ED000AB5EEC00AF1EE10FAFF
:1051200004DD9FED660A80ED000A16E0614890ED0F
:10513000000AB5EEC00AF1EE10FA0ED1012059496D
:1051400008605C4890ED000ADFED5B0A30EE200A53
:1051500080ED000A03205149086045E0524890ED77
:10516000230A5248D0ED000A30EE600ADFED520A01
:10517000B4EEE00AF1EE10FA36D84E4890ED000A8F
:10518000DFED4F0AB4EEE00AF1EE10FA26D24648FF
:1051900090ED230A10EE101A084604F0EFFF41ECE0
:1051A000180B9FED480B53EC102B04F0EFFD0BD2C6
:1051B000404890ED000A00E01DE0DFED3F0A30EED0
:1051C000200A80ED000A0EE03A4890ED000AF6EE63
:1051D000000A30EE200A80ED000A04E09FED3B0A51
:1051E000344880ED000A00BF00BF2F4890ED230A2D
:1051F0002E4880ED000A2C4890ED230A10EE101A7C
:10520000084604F0BBFF41EC180B9FED310B53EC4B
:10521000102B04F0BBFD04D24FF0FF302149086091
:105220001AE0214890ED230A10EE101A084604F007
:10523000A5FF41EC180B9FED230B53EC102B04F052
:105240006BFC09D217480068401C10B903201349B1
:1052500008600120134908601648006804F08EFFBA
:1052600041EC1A0B9FED1C0B53EC102B04F038FA99
:1052700041EC190B9FED1A0B53EC102B04F088FC3A
:1052800041EC180B04F0F0FB054629461648FFF7E1
:10529000BAFE02480068BDEC068B70BD680F0020A6
:1052A000780F00206C0F0020A00F0020740F00204A
:1052B000CDCCCCBD700F0020CDCCCC3D000000008B
:1052C000CDCCC74200000000000039400000C842B9
:1052D00000000000000044400000000000005940B1
:1052E0000000000000408F400004004010B52DED8C
:1052F000028B84B0FEF73AF804469121FDF796FF41
:1053000054A1584800F00AFC002414E056480068F4
:1053100000EBC40090ED001BB0EE410AF0EE610A14
:1053200051EC100B04F0EEF808EE100AB0EE480A4B
:1053300000F078FC641C052CE8DB4CA1494800F027
:10534000EDFB002414E04848406800EBC40090EDF9
:10535000001BB0EE410AF0EE610A51EC100B04F0B4
:10536000D1F808EE100AB0EE480A00F05BFC641CAD
:10537000052CE8DB41A13B4800F0D0FB002414E001
:105380003948806800EBC40090ED001BB0EE410A84
:10539000F0EE610A51EC100B04F0B4F808EE100ABC
:1053A000B0EE480A00F03EFC641C052CE8DB2E48F9
:1053B000C068027835A12B4800F0B0FB2A4800698C
:1053C000007929490969C978274A12699278CDE993
:1053D000002102902448006943782348006902783C
:1053E0002FA1204800F09AFB1F484069027835A1A0
:1053F0001C4800F093FB3AA11A4800F08FFB1A48B2
:105400008069D0ED000AB0EE600A00F00BFC3AA112
:10541000144800F083FB1448C069D0ED000AB0EED8
:10542000600A00F0FFFB1048C069D0ED010AB0EE41
:10543000600A00F0F7FB0C48C069D0ED020AB0EE3C
:10544000600A00F0EFFB00F099FA04B0BDEC028BAB
:1054500010BD00000D0A636861727457583A0D0A56
:105460000000000000100140542C00200D0A636869
:1054700061727457593A0D0A000000000D0A636802
:10548000617274575A3A0D0A000000000D0A6368F1
:105490006172744D6F64653A0D0A25640000000066
:1054A0000D0A636861727453656C6563743A0D0A22
:1054B00025640925640925640925640925640D0A04
:1054C0000000000028666C617368446174612E738B
:1054D00063616C654D6F6465293A2025640D0A008F
:1054E00028666C617368446174612E6D696E5661E3
:1054F0006C7565293A0D0A000D0A76617258595A81
:105500003A20200010B52DED0C8B9D480068B0F5B9
:10551000FA6F73D39A48006840F6B83188426DD26A
:10552000984890ED000A9848D0ED200A30EE200A05
:10553000944880ED000A90ED010A9348D0ED210ACD
:1055400030EE200A8F4880ED010A90ED020A8E4865
:10555000D0ED220A30EE200A8A4880ED020A8A48FD
:1055600090ED1D0A10EE101A084604F007FE41ECFB
:10557000180B864890ED001BB0EE410AF0EE610A70
:1055800053EC102B51EC180B03F0EEFF7F4A03C2D3
:105590007D4890ED1E0A10EE101A084604F0EEFD4C
:1055A00041EC180B794890ED021BB0EE410AF0EE89
:1055B000610A53EC102B51EC180B03F0D5FF734A22
:1055C000C2E90201704890ED1F0A10EE101A084659
:1055D00004F0D4FD41EC180B6C4890ED041BB0EEC8
:1055E000410AF0EE610A53EC102B51EC180B03F05A
:1055F000BBFF664AC2E90401BEE0FFE760480068FD
:1056000040F6B8318842F7D15D480068401C5C49DB
:1056100008605C4890ED000ADFED5D0A80EE201A1C
:1056200080ED001A90ED010ADFED590A80EE201A94
:1056300080ED011A90ED020ADFED550A80EE201A86
:1056400080ED021A514890ED001BB0EE410AF0EED9
:10565000610A9FED501B53EC112B51EC100B04F021
:105660003FF84A4A03C2494890ED021BB0EE410A96
:10567000F0EE610A9FED471B53EC112B51EC100B20
:1056800004F02EF8414AC2E90201104690ED041BD5
:10569000B0EE410AF0EE610A9FED3E1B53EC112B78
:1056A00051EC100B04F01CF8384AC2E90401104612
:1056B00090ED042BB0EE420AF0EE620A90ED042B5E
:1056C000B0EE421AF0EE621A53EC102B51EC110BB3
:1056D00004F05EFA41EC1A0B2C4890ED022BB0EE70
:1056E000420AF0EE620A90ED022BB0EE421AF0EEA2
:1056F000621A53EC102B51EC110B04F049FA41ECF7
:105700001C0B224890ED002BB0EE420AF0EE620A2C
:1057100090ED002BB0EE421AF0EE621A53EC102B13
:1057200051EC110B04F034FA41EC1D0B53EC1C2B23
:1057300003F01AFF41EC1B0B53EC1A2B03F014FF80
:1057400041EC190BB0EE490AF0EE690A01F0A0FF36
:10575000B0EE408AF0EE608A51EC180B03F0D2FEF6
:105760000E49086008499C31084803F079F9064958
:1057700001F19C00FDF706FBBDEC0C8B10BD000099
:10578000340E002098250020A00F0020C025002006
:1057900000007A440000000000408F40380E0020D6
:1057A00010B540F22551054800F0FFF8012804D15A
:1057B00040F22551014800F0C6F810BD00500040ED
:1057C00010B540F225511D4800F0EFF8012830D106
:1057D00040F22551194800F0B6F8184800F044FA94
:1057E000C4B2174817490968445416480068401C59
:1057F000144908600846006801280FDD0846006863
:10580000401E0F49085C0A2808D10E480068801E17
:10581000085C0D2802D1FCF725FE0EE00848007850
:1058200041280AD002F016FC07A1044800F076F9DE
:1058300003E0024800F018FAC4B210BD00100140A5
:10584000282C00207C0F00204E4F542053544152EE
:10585000542057495448202741270D0A00000000D2
:1058600010B588B0044601210846FEF78DFC0121E1
:105870001020FEF7B9FC072209212448FDF748FD56
:1058800007220A212148FDF743FD4FF4C06006902E
:1058900002208DF81C008DF81D0000208DF81E00E0
:1058A00001208DF81F0006A91848FDF7E9FC0294B5
:1058B0000020ADF80C00ADF80E00ADF81000ADF80A
:1058C00014000C20ADF8120002A9114800F0BCF839
:1058D00040210F4800F02EF825208DF8040001200B
:1058E0008DF805008DF806008DF8070001A8FEF779
:1058F00023F8012240F22551054800F080F80121EB
:10590000034800F02FF808B010BD0000000002406E
:105910000010014010B540F22551054800F045F84F
:10592000012804D140F22551014800F00CF810BDC7
:105930000048004001F40072B2F5007F00D100BFC2
:10594000CA430280704710B50022002340F66A1453
:10595000A14200D100BF0A1201249440A3B2DC434B
:10596000048010BD21B1828942F40052828104E09A
:1059700082894DF6FF731A408281704710B502A1EB
:10598000024800F0CBF810BD0D0A000000100140E5
:1059900002460020B1F5007F00D100BF13880B4004
:1059A0000BB1012000E00020704770B502460024D2
:1059B00000230025002040F66A16B14200D100BF46
:1059C000C1F3421501F01F03012606FA03F3012D6E
:1059D00002D19689334006E0022D02D1168A334067
:1059E00001E0968A33400C12012606FA04F4168868
:1059F000344013B10CB1012000E0002070BDF0B5BF
:105A00000346002400260025002040F66A17B9420C
:105A100000D100BF1846C1F3421401F01F06012750
:105A200007FA06F5012C01D10C3004E0022C01D15B
:105A3000103000E014301AB107682F43076002E00D
:105A40000768AF430760F0BD2DE9FF4705460E46E6
:105A50000024A14600BFA046B08900B100BF2C8A37
:105A600024F44054F08804432C82AC8941F20C6049
:105A70008443B08831890843718908430443AC8169
:105A8000AC8A24F44074B0890443AC826846FEF7C3
:105A9000CBFB2048854202D01F48854202D1DDF869
:105AA0000C9001E0DDF80890A88900F4004040B1B6
:105AB00009EBC90000EB091031684900B0FBF1F7B0
:105AC00007E009EBC90000EB091031688900B0FB61
:105AD000F1F76420B7FBF0F004012009642101FB19
