:020000040800F2
:10000000286C01206902000875100008B90A000870
:1000100071100008390700085D2A00080000000080
:10002000000000000000000000000000051B0008A8
:10003000D1070008000000007F02000881020008CC
:10004000830200088302000883020008830200087C
:10005000830200088302000883020008830200086C
:10006000830200088302000883020008830200085C
:10007000830200088302000883020008830200084C
:10008000830200088302000883020008830200083C
:10009000830200088302000883020008830200082C
:1000A00083020008051D000883020008830200087F
:1000B000211D00085920000875200008830200084F
:1000C00083020008830200088302000883020008FC
:1000D00083020008ED250008830200082D27000890
:1000E00083020008830200088302000883020008DC
:1000F000E920000883020008830200088302000848
:10010000830200088302000891200008830200088F
:1001100083020008CD25000883020008AD200008F6
:10012000830200088302000883020008830200089B
:10013000830200088302000883020008830200088B
:10014000830200088302000883020008830200087B
:10015000830200088302000883020008830200086B
:10016000830200088302000883020008830200085B
:10017000830200088302000883020008830200084B
:10018000830200088302000800F002F800F05CF827
:100190000AA090E8000C82448344AAF10107DA45E2
:1001A00001D100F051F8AFF2090EBAE80F0013F0D8
:1001B000010F18BFFB1A43F0010318471C50000041
:1001C0003C5000000A444FF0000C10F8013B13F0C3
:1001D000070408BF10F8014B1D1108BF10F8015BA0
:1001E000641E05D010F8016B641E01F8016BF9D193
:1001F00013F0080F1EBF10F8014BAD1C0C1B09D1EA
:100200006D1E58BF01F801CBFAD505E014F8016B5B
:1002100001F8016B6D1EF9D59142D6D370470000ED
:100220000023002400250026103A28BF78C1FBD8FF
:10023000520728BF30C148BF0B6070471FB504F09C
:1002400022FF1FBD10B510BD00F0C2F81146FFF728
:10025000F5FF03F0F1FE00F0E0F803B4FFF7F2FF62
:1002600003BC00F0E3F80000094880470948004754
:10027000FEE7FEE7FEE7FEE7FEE7FEE7FEE7FEE756
:10028000FEE7FEE704480549054A064B70470000B3
:100290009D1C00088901000828260120286C0120E7
:1002A000286801202868012040EA010370B59B07F7
:1002B0002ED14FF00136042A2AD308C810C99D1B3D
:1002C0009D43121F15EAC61517D0D8B2E1B2401AE5
:1002D00050EA056110D198B2A1B2401A50EA054126
:1002E0000AD123F07F4024F07F41401A50EA0521D3
:1002F00002D1180EA0EB146070BDA342DBD018BA77
:1003000021BA884201D9012070BD4FF0FF3070BD85
:100310000AB9002070BD10F8013B11F8014B63B120
:10032000A3420AD1521E08D010F8013B11F8014B2C
:100330001BB1A34201D1521EEDD1181B70BD10B5E7
:10034000203AC0F00B80B1E81850203AA0E81850CD
:10035000B1E81850A0E81850BFF4F5AF5FEA027C8E
:1003600024BFB1E81850A0E8185044BF18C918C0FD
:10037000BDE810405FEA827C24BF51F8043B40F89E
:10038000043B08BF7047D20728BF31F8023B48BF83
:1003900011F8012B28BF20F8023B48BF00F8012BC1
:1003A000704770477047704710B500F009F8006853
:1003B00010BD10B5044600F003F8046010BD000045
:1003C00000487047C425012000487047C42501201B
:1003D0007546FFF7F9FFAE4605006946534620F023
:1003E0000700854618B020B5FFF74CFFBDE8204058
:1003F0004FF000064FF000074FF000084FF0000BE1
:1004000021F00701AC46ACE8C009ACE8C009ACE893
:10041000C009ACE8C0098D46704710B50446AFF37B
:1004200000802046BDE81040FFF717BF01491820A3
:10043000ABBEFEE7260002007047000010B58748FB
:100440000068042809D1042285A18748FFF72CFF02
:1004500018B9022085490860FFE0804800680A2832
:1004600009D10A2282A18048FFF71EFF18B9022095
:100470007E490860F1E0794800680D2809D10D2215
:100480007EA17948FFF710FF18B90320774908606B
:10049000E3E0724800680E2809D10E227BA1724861
:1004A000FFF702FF18B9042070490860D5E06B48D7
:1004B00000680E2809D10E2278A16B48FFF7F4FEE0
:1004C00018B9052069490860C7E064480068092830
:1004D00009D1092275A16448FFF7E6FE18B9062084
:1004E00062490860B9E05D4800680A2809D10A221B
:1004F00071A15D48FFF7D8FE18B907205B49086075
:10050000ABE056480068082809D108226DA156487A
:10051000FFF7CAFE18B90820544908609DE04F480B
:1005200000680A2809D10A2269A14F48FFF7BCFEDA
:1005300018B909204D4908608FE0484800680B2829
:1005400009D10B2265A14848FFF7AEFE18B90A2071
:100550004649086081E0414800680E2809D106221A
:1005600061A14148FFF7A0FE18B90B203F49086080
:1005700073E03A4800680A2809DB09225CA13A487E
:10058000FFF792FE18B90C203849086065E033483F
:1005900000680A2809DB092258A13348FFF784FEC6
:1005A00018B90D203149086057E02C4800680A2826
:1005B00009D1042254A12C48FFF776FE18B90E2069
:1005C0002A49086049E025480068082809D1042222
:1005D0004DA12548FFF768FE18B90F202349086090
:1005E0003BE01E4800680E2809D1042246A11E489F
:1005F000FFF75AFE18B910201C4908602DE0174873
:1006000000680C2809D10C2241A11748FFF74CFEC5
:1006100018B91120154908601FE010480068092822
:1006200009D109223EA11048FFF73EFE18B9122059
:100630000E49086011E0094800680B2809D10B2217
:100640003AA10948FFF730FE18B91320074908609E
:1006500003E040F29A200549086010BD54010020D3
:1006600041540D0A000000005824012058010020C8
:1006700041542B626567696E0D0A000041542B736B
:10068000746F7053656E640D0A00000041542B6254
:100690006567696E53656E640D0A000041542B70E6
:1006A00072696E74446174610D0A000041542B73C9
:1006B000746F700D0A00000041542B7265736574ED
:1006C0000D0A000041542B7365740D0A00000000F0
:1006D00041542B7072696E740D0A000041542B73E3
:1006E00074617469630D0A0041542B7365740000D2
:1006F00041542B7365746D696E00000041542B7377
:10070000657476617200000041542B4700000000C0
:1007100041542B64656661756C740D0A000000001D
:1007200041542B686561740D0A00000041542B6E22
:100730006F686561740D0A0000BFFEE71CB50121FA
:10074000084600F0DFFC0121022000F0DBFC012163
:10075000042000F0D7FC0620009001208DF8040052
:1007600000208DF8060001208DF8070003208DF889
:1007700005006946134800F029F9402000906946B9
:10078000114800F023F94FF41040009069460F48DB
:1007900000F01CF902210B4800F085F904210948FA
:1007A00000F081F94021084800F07DF94FF48051B4
:1007B000064800F078F94FF40041044800F073F95E
:1007C0001CBD00000000024000080240000402407E
:1007D000704700B5034604E04FF47A7000F004F867
:1007E0005B1E002BF8D100BDA82141434FF0E02251
:1007F00051610521116100BF4FF0E021096901F449
:1008000080310029F8D004214FF0E02211617047B7
:1008100030B10749096841F48061054A116005E07B
:100820000349096821F48061014A116070470000A2
:10083000003C024008201049096801F48031B1F5FC
:10084000803F01D1012015E00B49096801F010013A
:1008500009B105200EE00849096801F0EF0109B16E
:10086000062007E00449096801F0020109B10720E8
:1008700000E00820704700000C3C0240034800687C
:1008800040F000400149086070470000103C024001
:1008900030B502460C46082500F034F80546082D10
:1008A00019D10E48006820F440700C4908600846D1
:1008B000006840F4007008600846006840F00100DD
:1008C0000860146000F01EF805460448006820F037
:1008D000010002490860284630BD0000103C02407B
:1008E0000548006800F0004028B1044802490C396E
:1008F0000860034808607047103C024023016745C8
:10090000AB89EFCD08B508200090FFF793FF00906A
:1009100002E0FFF78FFF00909DF800000128F8D05B
:100920009DF8000008BD000000B58EB000201249FF
:10093000C1F8E8010846D0F8E811684601F058F817
:1009400014E00D48D0F8E801401C0B49C1F8E8015B
:100950000846D0F8E811684601F04AF80648D0F891
:10096000E801B0F5FA7F01D30EB000BD0098401C3D
:100970000028E6D100BFF7E77001002070470000B3
:1009800010B540F20511094800F014F8074808496D
:100990000860B43048600C3088600C30C8600930A2
:1009A00008612D304861FFF7E9FF10BD8424012064
:1009B0006C2401200246002003E0034BC35C135467
:1009C000401C8842F9D3704700000408F0B50A467D
:1009D00000210023002400BF3DE0012505FA01F3BA
:1009E000156805EA03049C4234D105684F000326CC
:1009F000BE40B543056015794E00B54006683543E5
:100A000005601579012D02D01579022D16D1856862
:100A10004F000326BE40B543856055794E00B54072
:100A2000866835438560456801268E40B54345603C
:100A3000456896798E40B6B235434560C5684F002B
:100A40000326BE40B543C560D5794E00B540C668A3
:100A50003543C560491C1029BFD3F0BDF0B5002354
:100A600000244D07ED0E02FA05F3CE1000F120052B
:100A700055F826504E07F70E0F26BE40B543CF104F
:100A800000F1200646F82750CE1000F1200555F859
:100A9000265045EA0304CE1000F1200545F8264013
:100AA000F0BD418370470183704700000148007822
:100AB000704700005C01002000B5F9B00D48D0F887
:100AC000E801B0F5FA7F13D8FFF72EFF012009499E
:100AD000C1F8E4010846D0F8E8014FF4F072103193
:100AE00078906846FFF72BFC02480FC801F0B8FF6A
:100AF00000BFFEE77001002030B5054627480068BA
:100B0000401C26490860002412E005EB8400D0ED6B
:100B1000000AB0EE600A204600F0ECF9DFED200A92
:100B200080EE201A1F4800EB840080ED001A641C40
:100B3000032CEADB1948006865282CD1002024E04A
:100B4000184901EB800191ED000ADFED170A30EE44
:100B5000200A14490C3101EB800181ED000A114992
:100B60000C3101EB800191ED000ADFED100AB4EECB
:100B7000E00AF1EE10FA07DD9FED0C0A09490C318D
:100B800001EB800181ED000A401C0328D8DB012025
:100B90000749086030BD0020FCE700002C01002060
:100BA0000000C842D4020020CDCC4C3D3D0AD73EC7
:100BB00028010020F0B589B005460024202256A166
:100BC00001A8FFF7BCFB6420FFF703FE25B1012D50
:100BD0000BD0022D1BD111E080206B23022256493D
:100BE0000090564800F0B8FE11E080206B230422EC
:100BF00051490090514800F0AFFE08E080206B237F
:100C000040224F4900904D4800F0A6FE00BF00BFB3
:100C10000620FFF7DEFD002479E00026FF2700BF55
:100C2000701CC6B247484069405D10B1012808D128
:100C300003E000208DF8090003E008208DF809008A
:100C400000BF00BF25B1012D1DD0022D51D135E0CF
:100C5000012000EB440001A9085C009001A810F8F5
:100C6000143002223449354800F076FE3046FFF752
:100C7000B0FD01A810F8143002222F492F4800F0CF
:100C8000CDFD074635E0012000EB440001A9085CDA
:100C9000009001A810F8143004222749274800F0DA
:100CA0005BFE3046FFF795FD01A810F814300422D2
:100CB0002149224800F0B2FD07461AE0012000EB6E
:100CC000440001A9085C009001A810F814304022EB
:100CD0001B491A4800F040FE3046FFF77AFD01A894
:100CE00010F8143040221649144800F097FD0746CA
:100CF00000BF00BF052E00DD06E0012000EB440030
:100D000001A9085CB8428BD100BF601CC4B20F2C93
:100D100083DB09B0F0BD00006B006C001B001A0003
:100D200019071C001D0668006A101E0023001F0022
:100D30003700380069000000000002400030014028
:100D4000000802406C24012070B52DED068B04468E
:100D50000D4624B1012C20D0022C59D13BE028466D
:100D600003F08FFE41EC1A0B9FED2B0B53EC102B75
:100D700003F0D2FC41EC190B9FED290B53EC102B27
:100D800003F0E6FE41EC180B03F04EFE064631463A
:100D90004FF0804001F0D3FB3AE0284603F071FEAB
:100DA00041EC1A0B9FED1C0B53EC102B03F0B4FC21
:100DB00041EC190B9FED1A0B53EC102B03F0C8FEFE
:100DC00041EC180B03F030FE064631464FF08040F0
:100DD00001F0B7FB1CE0284603F053FE41EC1A0B70
:100DE0009FED0D0B53EC102B03F096FC41EC190B0F
:100DF0009FED0B0B53EC102B03F0AAFE41EC180BEC
:100E000003F012FE06463146074801F096FB00BF8C
:100E100000BFBDEC068B70BD000000000000594013
:100E20000000000000408F400004004000B587B083
:100E30000121080300F096F90121084600F062F94B
:100E4000052211462348FFF709FE05220621214805
:100E5000FFF704FE052207211E48FFF7FFFDE020F3
:100E6000059002208DF8180000208DF81A0001204E
:100E70008DF81B0003208DF8190005A91548FFF710
:100E8000A5FD154800F01EFC0020ADF800004FF451
:100E90008270ADF802000020ADF80400ADF8060045
:100EA000ADF808004FF40070ADF80A002020ADF84E
:100EB0000C000020ADF80E000720ADF810006946C8
:100EC000054800F039FC0121034800F0EFFB07B0B2
:100ED00000BD0000000002400030014010B500F0ED
:100EE00001F810BD4AF6AA200149086070470000C9
:100EF000003000400EB5002100910191029154494B
:100F000001EB8001D1ED000AF4EEC00AF1EE10FA17
:100F10000FDD4F4901EB8001D1ED000A70EEC00AF0
:100F2000694601EB8001C1ED000A0021494A1154D4
:100F30000EE0474901EB8001D1ED000A70EE600A36
:100F4000694601EB8001C1ED000A0121414A1154BB
:100F50004049095C404A125C514059BB3F49095C19
:100F6000891C3E4A1154694601EB8001D1ED000A0B
:100F70009FED3B1AF4EEC10AF1EE10FA03DB1146C5
:100F8000095C091D11543549095C642902DB64219F
:100F9000324A11543149095C00EE901AF8EE600AA9
:100FA0009FED301A60EE810A2F4901EB8001C1EDFF
:100FB000000A09E0DFED2B0A2B4901EB8001C1EDAE
:100FC000000A0021254A11542249095CD9B9264951
:100FD00001EB8001D1ED000A1D4901EB800191ED8B
:100FE000001A31EE401A60EE810A9FED201AC0EE21
:100FF000811A174901EB8001D1ED000A70EEE10A78
:10100000B0EE600A1AE0184901EB8001D1ED000A48
:101010000F4901EB800191ED001A30EE411A60EEAC
:10102000810A9FED121AC0EE811A094901EB800175
:10103000D1ED000A71EEA00AB0EE600A044901EB9E
:10104000800181ED000A0349095C034A11540EBD79
:101050004C2401204B010020480100204E010020BB
:101060000AD7233CCDCC4C3E4024012000008043D5
:1010700000BFFEE700BFFEE770B5002100230F228E
:10108000C4781CB3174C246804F4E064C4F5E0642D
:10109000C4F30721C1F10404E3B20A4144789C403F
:1010A000E1B28478144021430C07210E0E4C0578E0
:1010B0006155047804F01F050124AC4005786D11DA
:1010C000AD0005F1E025C5F8004109E0047804F021
:1010D0001F050124AC40054D0678761145F82640E1
:1010E00070BD00000CED00E000E400E080E100E0F5
:1010F00002490143024A1160704700000000FA05EE
:101100000CED00E029B1064A12680243044B1A6054
:1011100004E0034A12688243014B1A6070470000E2
:101120003038024029B1064A12680243044B1A6063
:1011300004E0034A12688243014B1A6070470000C2
:101140004038024029B1064A12680243044B1A6033
:1011500004E0034A12688243014B1A6070470000A2
:101160002038024029B1064A12680243044B1A6033
:1011700004E0034A12688243014B1A607047000082
:101180004438024029B1064A12680243044B1A60EF
:1011900004E0034A12688243014B1A607047000062
:1011A00024380240F0B50021002200240225002648
:1011B0000223324F3F6807F00C0121B1042905D00A
:1011C000082937D105E02E4F076036E02D4F076024
:1011D00033E02A4F3F1F3F68C7F38056274F3F1F1A
:1011E0003F6807F03F036EB1264FB7FBF3F7DFF818
:1011F0008CC0ACF1040CDCF800C0CCF3881C07FBFD
:101200000CF40CE01E4FB7FBF3F7DFF870C0ACF145
:10121000040CDCF800C0CCF3881C07FB0CF4174F5F
:101220003F1F3F68C7F301477F1C7D00B4FBF5F704
:10123000076002E0124F076000BF00BF0F4F3F681A
:1012400007F0F0010909104F7A5C0768D740476042
:101250000A4F3F6807F4E051890A0B4F7A5C4768F0
:10126000D7408760054F3F6807F46041490B064F40
:101270007A5C4768D740C760F0BD0000083802407C
:101280000024F40000127A005D01002070B52DEDFD
:10129000048BD24890ED590AD0ED5C0A30EE600A1A
:1012A00010EE101A084603F07DFE41EC190BB0EE6B
:1012B000490AF0EE690A01F0C3FCB0EE408AF0EE94
:1012C000608A9FEDC70B53EC102B51EC180B03F009
:1012D00003FC44D2C14890ED5A0AD0ED5D0A30EECD
:1012E000600A10EE101A084603F05CFE41EC190B80
:1012F000B0EE490AF0EE690A01F0A2FCB0EE408AB5
:10130000F0EE608A9FEDB60B53EC102B51EC180BEE
:1013100003F0E2FB23D2B14890ED5B0AD0ED5E0A08
:1013200030EE600A10EE101A084603F03BFE41EC66
:10133000190BB0EE490AF0EE690A01F081FCB0EE3B
:10134000408AF0EE608A9FEDA60B53EC102B51EC17
:10135000180B03F0C1FB02D20120A3490860A24888
:10136000006818B90020BDEC048B70BD002019E0A6
:10137000002114E000EB4003984A203202EBC30244
:1013800002EBC10292ED000B00EB4003934A68327E
:1013900002EBC30202EBC10282ED000B491C0329E0
:1013A000E8DB401C0328E3DBFFF780FB00F00200D2
:1013B000E8B38E480068B0F5C86F39DD002432E02C
:1013C00000252DE004EB44018448B03000EBC1005F
:1013D00000EBC50090ED002BB0EE420AF0EE620A81
:1013E00004EB44017D48683000EBC10000EBC50010
:1013F00090ED002BB0EE421AF0EE621A53EC102B77
:1014000051EC110B03F0E4FC0A46014604EB4403E3
:101410007248683000EBC30000EBC50006C06D1CCD
:10142000032DCFDB641C032CCADB01209BE7FFE705
:101430006E480068401C6D4908600024C8E0002523
:10144000C2E040F277106043694901EB801005EB80
:101450004501C1EBC51100EB811090ED001BB0EE12
:10146000410AF0EE610A9FED631B53EC112B51EC26
:10147000100B03F051F99FED610B53EC102B03F0AF
:101480004BF941EC180B04EB44015448B03000EB2D
:10149000C10000EBC50090ED001BB0EE410AF0EE7C
:1014A000610A53EC102B51EC180B03F085FC04EB94
:1014B00044034A4AB03202EBC30202EBC50203C244
:1014C000002021E040F277116143494A02EB81118B
:1014D00005EB4502C2EBC51201EB8212411C02EB87
:1014E000C10191ED000B40F277116143404A02EBDC
:1014F000811105EB4502C2EBC51201EB821101EB34
:10150000C00181ED000B401C40F2E7318842D9DB7D
:1015100004EB44013148683000EBC10000EBC5002A
:1015200090ED000B40F277106043314901EB8010E1
:1015300005EB4501C1EBC51100EB811000F5E05052
:1015400080EDCE0B40F277106043294901EB80100B
:1015500005EB4501C1EBC51100EB811000F5E05032
:1015600090EDCE1BB0EE410AF0EE610A9FED211B1B
:1015700053EC112B51EC100B03F0CEF89FED1F0B29
:1015800053EC102B03F0C8F841EC190B04EB4401A9
:101590001248B03000EBC10000EBC50090ED001B1D
:1015A000B0EE410AF0EE610A53EC102B51EC190B2E
:1015B00002F0FEFF04EB4403084AB03202EBC30220
:1015C00002EBC50203C26D1C032DFFF63AAF641C8B
:1015D000032CFFF634AF0020C5E6000070010020A8
:1015E000000000A09999B93F200000201C000020B5
:1015F00028040020000000000000694000000000F6
:101600000000144000B587B001218803FFF78AFD70
:1016100001210220FFF776FD05220D212148FFF769
:101620001DFA05220E211F48FFF718FA4FF4C0409B
:10163000059002208DF8180000208DF81A00012076
:101640008DF81B0003208DF8190005A91548FFF738
:10165000BDF9154800F036F84FF48060ADF8000091
:101660004FF48270ADF802000020ADF80400ADF830
:1016700006000120ADF808004002ADF80A0028205D
:10168000ADF80C000020ADF80E000720ADF81000FA
:101690006946054800F050F80121034800F006F8BB
:1016A00007B000BD000402400038004021B10288AC
:1016B00042F04002028004E002884FF6BF731A40F5
:1016C0000280704710B504461148844208D10121B8
:1016D0008014FFF757FD0021A014FFF753FD16E01B
:1016E0000C48844208D101210014FFF72BFD002192
:1016F0002014FFF727FD0AE00748844207D10121A3
:10170000C013FFF71FFD0021E013FFF71BFD10BD05
:101710000030014000380040003C004002460020FC
:1017200013890B400BB1012000E0002070470146F7
:10173000888970478181704710B50022028802F4C1
:1017400041520B884C8823438C882343CC88234305
:101750000C8923434C8923438C892343CC8923431D
:101760001A430280838B4FF2FF74234083830B8ADA
:10177000038210BD2DE9F04780460E4617461C46F1
:10178000DDE9089A44F0800401214046FFF78EFF0E
:1017900039463046FFF785F900BF02214046FFF782
:1017A000BDFF0028F9D021464046FFF7C3FF00BF28
:1017B00001214046FFF7B2FF0028F9D04046FFF76D
:1017C000B6FF002517E000BF02214046FFF7A6FF45
:1017D0000028F9D000214046FFF7ACFF00BF0121EF
:1017E0004046FFF79BFF0028F9D04046FFF79FFFD8
:1017F00009F805006D1C5545E5D300BF8021404622
:10180000FFF78CFF0128F9D000214046FFF74EFF7B
:1018100039463046FFF747F9BDE8F0872DE9F0413A
:1018200080460D4616461C4644F080040121404681
:10183000FFF73CFF31462846FFF733F900BF02218E
:101840004046FFF76BFF0028F9D021464046FFF7DE
:1018500071FF00BF01214046FFF760FF0028F9D06B
:101860004046FFF764FF00BF02214046FFF756FFE6
:101870000028F9D000214046FFF75CFF00BF01219E
:101880004046FFF74BFF0028F9D04046FFF74FFFD7
:10189000C7B200BF80214046FFF740FF0128F9D0C2
:1018A00000214046FFF702FF31462846FFF7FBF8CC
:1018B0003846BDE8F0810000F8B50446012C04D19B
:1018C00001032348FFF7EDF805E024B94FF4004188
:1018D0001F48FFF7E6F8372002F026FE01211D48D9
:1018E000FFF7E4FE00250FE000BF1A48083000882B
:1018F00000F001000028F8D016480C300088C0B273
:101900000DF80500681CC5B2032DEDDB012C04D1D8
:1019100021030F48FFF7C7F805E024B94FF4004151
:101920000B48FFF7C0F800210A48FFF7BFFE9DF8FB
:10193000000000049DF8011040EA01209DF802100B
:1019400040EA010640F6EF2002F0EEFD300BF8BD54
:1019500000040240003800402DE9F04107460C46E3
:1019600015461E46DDF8188001213846FFF79EFE19
:1019700029462046FFF795F800BF02213846FFF7B9
:10198000CDFE0028F9D031463846FFF7D3FE00BF20
:1019900001213846FFF7C2FE0028F9D03846FFF78C
:1019A000C6FE00BF02213846FFF7B8FE0028F9D076
:1019B00041463846FFF7BEFE00BF01213846FFF71B
:1019C000ADFE0028F9D03846FFF7B1FE00BF8021F8
:1019D0003846FFF7A3FE0128F9D000213846FFF76B
:1019E00065FE29462046FFF75EF8BDE8F08100005D
:1019F00010B502460C46C4EBC400294901EBC003F4
:101A0000184600F052F81060181D00F04BF882EDF7
:101A1000010A03F1080000F045F882ED020A03F123
:101A20000C0000F03FF882ED030A03F1100000F013
:101A300039F882ED040A03F1140000F033F882ED66
:101A4000050A03F1180000F02DF882ED060A03F1F3
:101A50001C0000F027F882ED070A03F1200000F0D7
:101A600021F882ED080A03F1240000F01BF882ED52
:101A7000090A03F1280000F015F882ED0A0A03F1C3
:101A80002C0000F00FF882ED0B0A03F1300000F09B
:101A90000CF8106303F1340000F007F8506310BD38
:101AA0000000080890ED000A70470146086870477A
:101AB0002DE9F04706460F463446C7EBC7001049EC
:101AC00001EBC00505F13808FEF70AFF0020FEF71C
:101AD0009FFE0BE0D4F8009028462168FEF7D8FE60
:101AE000082800D000BF2D1D241D00BF4545F1D39F
:101AF0000120FEF78DFEFEF7C1FEBDE8F087000075
:101B00000000080870470000012814D00CDC10F118
:101B1000090F41D010F1050F37D010F1030F2DD070
:101B200010F1020F3FD122E002280BD0042810D080
:101B3000082838D114E01D49097841F001011B4AF9
:101B4000117030E01949097841F00201174A11700B
:101B500029E01649097841F00401144A117022E085
:101B60001249097841F00801104A11701BE00F4931
:101B7000097821F001010D4A117014E00B49097830
:101B800021F00201094A11700DE00849097821F09D
:101B90000401064A117006E00449097821F00801A1
:101BA000024A117000BF00BF704700005C010020B6
:101BB0000CB50020019000903448006840F480305B
:101BC0003249086000BF3148006800F400300090DE
:101BD0000198401C0190009818B90198B0F5A06FC9
:101BE000F1D12A48006800F4003010B101200090C3
:101BF00001E0002000900098012846D123484030A1
:101C0000006840F080502149403108602048006859
:101C100040F480401E4908601C48083000681B4999
:101C2000083108600846006840F400400860084633
:101C3000006840F4A05008601648091F0860081F9B
:101C4000006840F08070091F086000BF0F480068FE
:101C500000F000700028F9D040F205600E490860DD
:101C60000A480830006820F003000849083108607D
:101C70000846006840F00200086000BF03480830D2
:101C8000006800F00C000828F8D10CBD00380240B4
:101C90000070004008544007003C024010B5154851
:101CA000006840F47000134908601348006840F071
:101CB00001001149086000200F49083108600E48F2
:101CC00000680E4908400C4908600D48091D08606D
:101CD000081F006820F48020091F086000200649C2
:101CE0000C310860FFF764FF4FF000600149803954
:101CF000086010BD88ED00E000380240FFFFF6FEEE
:101D00001030002410B50121044800F016FA012813
:101D100003D10121014800F001FA10BD000001408B
:101D200030B52DED028BA9B00025002401218807D4
:101D300000F003FA012873D10121800700F0EEF9C9
:101D4000B2480068401CB1490860B1480068401CB6
:101D5000AF490860AD4890ED000AB8EE400AF1EED8
:101D6000040AB4EEE00AF1EE10FA0CDB0020A749F9
:101D700008600120A7490870A748D0F8E001401C7E
:101D8000A549C1F8E001002488E0204601F062FF87
:101D9000204601F0A9FE204602F09EF801A901EBC1
:101DA000840001F099FE04EB440116AA02EBC10085
:101DB00001F082FE04EB440104AA02EBC10001F031
:101DC00057FE002528E004EB440016A901EBC000F3
:101DD00000EBC50090ED002BB0EE420AF0EE620A77
:101DE00004EB44008D4901EBC00000EBC50090ED11
:101DF000002BB0EE421AF0EE621A53EC102B51ECAD
:101E0000110B02F0D5FB04EB4402844B03EBC2023E
:101E100002EBC50203C26D1C032DD4DB002529E0B3
:101E2000EBE004EB440004A901EBC00000EBC500AB
:101E300090ED002BB0EE420AF0EE620A04EB440093
:101E4000774901EBC00000EBC50090ED002BB0EE30
:101E5000421AF0EE621A53EC102B51EC110B02F007
:101E6000A7FB04EB44026E4B03EBC20202EBC5027C
:101E700003C26D1C032DD4DB6A4800EB840090ED97
:101E8000000A01A800EB8400D0ED000A30EE200A21
:101E9000644800EB840080ED000A641C032CFFF60C
:101EA00074AF01F0D3FD10B901A8FEF725FE584824
:101EB000006805287DD15C480078401C5A490870AC
:101EC000002053490860FFF7F7FC5349A1F8D801F7
:101ED0000120FFF7F1FC5049A1F8DA01002471E07C
:101EE000504800EB840090ED000AF1EE040A80EE09
:101EF000201A4E4800EB840080ED001A002555E0C2
:101F000004EB4400454901EBC00000EBC50090ED37
:101F1000001BB0EE410AF0EE610A9FED451B53EC49
:101F2000112B51EC100B02F0F7FB04EB44033A4A7F
:101F3000203202EBC30202EBC50203C29FED3E0B4F
:101F400004EB4400354901EBC00000EBC50080ED17
:101F5000000B04EB4400324901EBC00000EBC5006C
:101F600090ED001BB0EE410AF0EE610A9FED301BD0
:101F700053EC112B51EC100B02F0CEFB41EC180B83
:101F800002F0E4FA04EB440228496C3901EB8201C7
:101F900041F825009FED280B04EB4400204901EB9C
:101FA000C00000EBC50080ED000B6D1C032DA7DB0E
:101FB00000E026E09FED220A1A4800EB840080ED45
:101FC000000A641C032C8BDB002413E0174800EB91
:101FD0008400D0ED000AB0EE600A2046FEF78AFFCA
:101FE000DFED180A80EE201A104800EB840080ED27
:101FF000001A641C032CE9DB03E013A1154800F070
:102000008FFC29B0BDEC028B30BD00000400002025
:102010001400002008000020700100208803002028
:10202000D00300201804002009000020D402002062
:10203000000000000000144000000000000000004C
:10204000000000000000C84254494D322065727201
:102050006F7200000010014010B50121044800F02B
:102060006CF8012803D10121014800F057F810BD98
:102070000004004010B50121044800F05EF801287A
:1020800003D10121014800F049F810BD00080040CB
:1020900010B50121044800F050F8012803D10121B6
:1020A000014800F03BF810BD000C004010B50121C4
:1020B0000A4800F042F801280ED1094800680128BA
:1020C00004D108480068401C06490860FEF706FF76
:1020D0000121024800F022F810BD00000014004069
:1020E0000C0000201000002010B50121044800F071
:1020F00024F8012803D10121014800F00FF810BD98
:102100000004014021B1028842F08002028004E014
:1021100002884FF67F731A4002807047CA430282DA
:10212000704721B1028842F00102028004E0028877
:102130004FF6FE731A400280704730B50246002009
:1021400000230024158A05EA0103958905EA0104A4
:1021500013B10CB1012000E0002030BD1AB1838919
:102160000B43838102E083898B43838170470000A6
:102170002DE9FF4104460D4616461F46DDF828802E
:102180006949601A8C4270D01ADC6849A4EB0100DE
:102190008C426CD00ADCB4F1804F4ED064482044AD
:1021A000002852D0B0F5806F71D156E0B0F5806F45
:1021B00065D0B0F5006F6CD0B0F5406FF4D170E031
:1021C000B0F5923F21D009DCB0F5806F7AD0B0F540
:1021D000644F0AD0B0F5684F7CD10EE0B0F5943F63
:1021E0001BD0B0F5963F75D11FE001210846FEF7E0
:1021F000B9FF19208DF800006DE001210220FEF7E3
:10220000B1FF2C208DF8000065E001210804FEF7E5
:10221000A9FF18208DF800005DE001211920FEF7CC
:10222000A1FF2C208DF8000055E001218804FEF765
:1022300099FF1A208DF800004DE001210846FEF7B5
:1022400071FF1C208DF8000045E001210220FEF7FF
:1022500069FF1D208DF800003DE001210420FEF7FC
:1022600061FF1E208DF8000035E023E0FFE701212B
:102270000820FEF757FF32208DF800002BE00121E7
:102280001020FEF74FFF36208DF8000023E021E0FC
:10229000FFE701212020FEF745FF37208DF80000E1
:1022A00019E001214020FEF73DFF2B208DF80000B2
:1022B00011E007E001218020FEF734FF2C208DF88B
:1022C000000008E001210802FEF72CFF2D208DF808
:1022D000000000E000BF00BF0295ADF804600020E0
:1022E000ADF80C00ADF8060001A9204600F02CF96D
:1022F00001212046FFF712FF012211462046FFF779
:102300002DFFF8B28DF8010008F0FF008DF80200F3
:1023100001208DF803006846FEF7AEFE012120463D
:10232000FFF7FFFEBDE8FF81001C0040000C0040ED
:1023300000FCFFBF70B5002400220023058C4FF67F
:10234000EF7635400584028C8388048B48F6FF7550
:102350002C404FF6FF452C400D884FF6FF7606EADD
:1023600005252C434FF6DF752A408D8906EA0515B1
:102370002A434D8806EA05152A43154DA84202D086
:10238000144DA8421DD14FF67F752A40CD894FF6D6
:10239000FF7606EA05152A434FF6BF752A408D8859
:1023A00006EA05152A434FF6FF352B404FF2FF751D
:1023B0002B400D8A06EA85052B434D8A06EA8505E2
:1023C0002B43838004838D688563028470BD000085
:1023D00000000140000401400A460021018B4FF239
:1023E000FF7319404FF6FF7303EA02231943018379
:1023F0007047000070B5002400220023058C4FF6C2
:10240000FF6635400584028C8388848B4FF68F7578
:102410002C404FF6FC752C400D882C434FF6FF5591
:102420002A408D894FF6FF7606EA05252A434D8816
:1024300006EA05252A43154DA84202D0144DA842AC
:102440001DD14FF2FF752A40CD894FF6FF7606EA7F
:1024500005252A434FF6FF352A408D8806EA0525D3
:102460002A434EF6FF752B404DF6FF752B400D8A23
:1024700006EA05152B434D8A06EA05152B43838092
:1024800084838D68C563028470BD00000000014034
:10249000000401400A460021818B4FF6F773194072
:1024A000114381837047000070B50022002300248F
:1024B000058C4EF6FF7635400584038C8488828B2C
:1024C00048F6FF752A404FF6FF452A400D884FF623
:1024D000FF7606EA05252A434DF6FF752B408D89C8
:1024E00006EA05352B434D8806EA05352B430A4D90
:1024F000A84202D0094DA84208D14BF6FF752C40E6
:102500000D8A4FF6FF7606EA85152C438480828378
:102510008D680564038470BD000001400004014023
:102520000A460021818B4FF2FF7319404FF6FF736B
:1025300003EA022319438183704781637047C163B3
:10254000704701647047000000220288184B9842CF
:102550000ED0184B98420BD0B0F1804F08D0164BDC
:10256000984205D0154B984202D0154B984204D1A1
:102570004FF68F731A404B881A43124B984207D07C
:10258000114B984204D04FF6FF431A400B891A436F
:1025900002804B68C3620B880385054B984202D0CA
:1025A000044B984201D18B7A0386012383827047C2
:1025B0000000014000040140000400400008004009
:1025C000000C0040001000400014004010B540F224
:1025D0002551054800F0EBF8012804D140F22551BF
:1025E000014800F0BCF810BD0050004010B540F2AA
:1025F00025511E4800F0DBF8012832D140F2255168
:102600001A4800F0ACF8194800F00DFAC4B21848A6
:1026100018490968445417480068401C1549086067
:1026200008460068142801D100200860114800689D
:1026300001280FDD0F480068401E0D49085C0A287C
:1026400008D10C480068801E085C0D2802D1FDF7F7
:10265000F5FE0AE006480078412806D000F074FF35
:1026600003E0024800F0DFF9C4B210BD00100140E1
:10267000582401205401002010B588B004460121DF
:102680000846FEF73FFD01211020FEF76BFD0722F3
:1026900009212448FEF7E2F907220A212148FEF722
:1026A000DDF94FF4C060069002208DF81C008DF813
:1026B0001D0000208DF81E0001208DF81F0006A9C6
:1026C0001848FEF783F902940020ADF80C00ADF82D
:1026D0000E00ADF81000ADF814000C20ADF812009B
:1026E00002A9114800F0B2F840210F4800F02EF87E
:1026F00025208DF8040001208DF805008DF80600D6
:102700008DF8070001A8FEF7B7FC012240F2255121
:10271000054800F076F80121034800F02FF808B0D2
:1027200010BD0000000002400010014010B540F252
:102730002551054800F03BF8012804D140F225510D
:10274000014800F00CF810BD0048004001F4007290
:10275000B2F5007F00D100BFCA430280704710B5B8
:102760000022002340F66A14A14200D100BF0A12E1
:1027700001249440A3B2DC43048010BD21B18289BE
:1027800042F40052828104E082894DF6FF731A40C0
:102790008281704702460020B1F5007F00D100BF62
:1027A00013880B400BB1012000E00020704770B58A
:1027B0000246002400230025002040F66A16B1429C
:1027C00000D100BFC1F3421501F01F03012606FA34
:1027D00003F3012D02D19689334006E0022D02D188
:1027E000168A334001E0968A33400C12012606FA1D
:1027F00004F41688344013B10CB1012000E000202D
:1028000070BDF0B50346002400260025002040F6E8
:102810006A17B94200D100BF1846C1F3421401F053
:102820001F06012707FA06F5012C01D10C3004E040
:10283000022C01D1103000E014301AB107682F4388
:10284000076002E00768AF430760F0BD2DE9FF476E
:1028500005460E460024A14600BFA046B08900B13F
:1028600000BF2C8A24F44054F08804432C82AC89A5
:1028700041F20C608443B088318908437189084370
:102880000443AC81AC8A24F44074B0890443AC8224
:102890006846FEF787FC2048854202D01F488542E3
:1028A00002D1DDF80C9001E0DDF80890A88900F471
:1028B000004040B109EBC90000EB09103168490044
:1028C000B0FBF1F707E009EBC90000EB0910316834
:1028D0008900B0FBF1F76420B7FBF0F00401200998
:1028E000642101FB1078A88900F4004040B1322037
:1028F00000EBC800B0FBF1F000F00700044308E073
:10290000322000EB08106421B0FBF1F000F00F0062
:1029100004432C81BDE8FF870010014000140140F2
:102920000FB470B586B006460CA8019073E00B9802
:1029300000785C281CD10B98401C0B9000786E2806
:1029400009D072280FD10D21304600F071F80B9894
:10295000401C0B900BE00A21304600F069F80B9800
:10296000401C0B9003E00B98401C0B9000BF4BE009
:102970000B980078252840D10B98401C0B900078CC
:10298000642818D0732833D1019810C801900BE047
:102990002178304600F04CF800BF40213046FFF768
:1029A000F9FE0028F9D0641C20780028F0D10B989B
:1029B000401C0B9020E0019820C801900A2202A937
:1029C000284601F007FB02AC0BE02178304600F00E
:1029D0002FF800BF40213046FFF7DCFE0028F9D079
:1029E000641C20780028F0D10B98401C0B9003E069
:1029F0000B98401C0B9000BF06E00B9810F8011BD1
:102A00000B90304600F014F800BF40213046FFF72D
:102A1000C1FE0028F9D00B980078002887D106B0B5
:102A200070BC5DF814FB01468888C0F3080070474D
:102A300030B504460D4600BF80212046FFF7AAFEB0
:102A40000028F9D080212046FFF780FE4021204653
:102A5000FFF77CFEC5F30800A08030BD00BFFEE795
:102A60000FB470B5809D00200AE060A901EB8001E1
:102A700091ED000A324901EB800181ED000A401C12
:102A80000328F2DB002411E030A800EBC40090ED35
:102A9000001BB0EE410AF0EE610A51EC100B01F0A0
:102AA00055FD2749183941F82400641C032CEBDB41
:102AB000002411E070A800EBC40090ED001BB0EE04
:102AC000410AF0EE610A51EC100B01F03FFD1C4988
:102AD0000C3941F82400641C032CEBDB002007E0D8
:102AE0007BA931F8102016490C3141F82020401CF8
:102AF0000228F5DB9DED761BB0EE410AF0EE610A8F
:102B000051EC100B01F022FD0D49243948609DED78
:102B1000781BB0EE410AF0EE610A51EC100B01F0A7
:102B200015FD0749243988607D9808600548D0F86C
:102B3000E81103482438FEF7BBFF70BC5DF814FBB6
:102B4000B02501207001002003B4019841000098D5
:102B500050EAC12018BF04204A0D18BF40F0010000
:102B600040F2FF72B2EB515F08BF40F00200012853
:102B700008BF052002B0704710B52F499FED2C1BF0
:102B80002DED020B84B0059820F000408842D8BF9C
:102B90009DED040B2DDD2949884209D1049840B9E7
:102BA0004FF00100FDF705FC00F0AEFC06B010BDD3
:102BB00005DB9DED040B00F09BFC06B010BD6846E4
:102BC0009DED040B00F0ACF810F0030004BF9DED88
:102BD000021B9DED000B0CD001280ED09DED021BB9
:102BE0009DED000B022817D0012000F0E9FB06B094
:102BF00010BD00F0B1FA06B010BD9DED021B9DEDB9
:102C0000000B012000F0DCFB51EC100B01F091FCFB
:102C100006B041EC100B10BD00F09EFA51EC100B09
:102C200001F087FC06B041EC100B10BD0000000065
:102C30000000000000000000FB21E93F0000F07FE1
:102C40002DED020B019820F0004001909DED000B4E
:102C500002B070470000000010B52F499FED2C1BFB
:102C60002DED020B84B0059820F000408842DCBFB7
:102C700000209DED040B32DD2849884209D10498DB
:102C800040B94FF00100FDF794FB00F03DFC06B0A9
:102C900010BD05DB9DED040B00F02AFC06B010BD55
:102CA00068469DED040B00F03BF810F0030011D0D6
:102CB000012818D09DED021B9DED000B02281AD0B3
:102CC00000F04AFA51EC100B01F033FC06B041EC75
:102CD000100B10BD9DED021B9DED000B012000F0BF
:102CE0006FFB06B010BD9DED021B9DED000B00F0CB
:102CF00033FA06B010BD012000F062FB51EC100B5E
:102D000001F017FC06B041EC100B10BD00000000F4
:102D10000000000000000000FB21E93F0000F07F00
:102D20002DE9F14F04462DED020B2DED088B8AB0F5
:102D30009FEDE70B80ED020B139EE74826F0004560
:102D400085420ADC9DED120B002084ED000B0AB0D9
:102D5000BDEC088B03B0BDE8F08FE0489FEDE0AB21
:102D60009FEDE1BBA84247DDE14F9FEDE39B9FED67
:102D7000E48B9DED120B53EC1A2B51EC100B002E33
:102D80001CDD02F025F841EC100BBD4208D053ECDD
:102D90001B2B51EC100B02F01BF8C4E900010BE0F7
:102DA00053EC192B51EC100B02F012F853EC182BCA
:102DB00002F00EF8C4E900010120C8E701F0F8FBB9
:102DC00041EC100BBD4208D053EC1B2B51EC100B07
:102DD00001F0EEFBC4E900010BE053EC192B51ECC0
:102DE000100B01F0E5FB53EC182B01F0E1FBC4E9FB
:102DF00000014FF0FF30AAE7C348A84279DB9DED00
:102E0000120B51EC100B00F015FE41EC180B9FED6E
:102E1000C00B53EC102B01F09BFE9FEDBF1B53EC3E
:102E2000112B01F0C5FB01F0CFFD074601F029FE93
:102E300041EC190B53EC1A2B01F08AFE53EC182BC2
:102E400001F0BAFF41EC180B53EC1B2B51EC190BA2
:102E500001F07EFEDFF8C8A241EC100B4FEA1558D6
:102E60000125FA4453EC102B51EC180B01F0B0FF84
:102E7000032DC4E900013DD0C1F30A5005EB451113
:102E8000A8EB00001139814234DA0AEB051BB0EEE1
:102E900048AA9BED000BF0EE68AA53EC102B51EC06
:102EA000190B01F055FE41EC1B0B51EC1A0B53ECC6
:102EB0001B2B01F08DFF41EC180B51EC1A0B53EC5E
:102EC000182B01F085FF53EC1B2B01F081FF9BEDCC
:102ED000020B41EC1A0B53EC102B51EC190B01F0C7
:102EE00037FE53EC1A2B01F073FF41EC100B6D1CF5
:102EF000B8E70EE0002EA8BF3846BFF628AF94ED25
:102F0000000B51EC100B01F014FBC4E900017842F6
:102F10001DE7C6F3130040F4801EC6F30A50A0F26A
:102F2000F530471100F01F05C5F12000DDF848B06D
:102F300008900020069007900520EC467949002D66
:102F400007EB0002794408BF51F8221009D051F86C
:102F5000223001EB8201AB404A68089922FA01F164
:102F60001943A1FB0E26A1FB0B131A449A4234BF4E
:102F70000123002303EB06080CEB8003D3E901A631
:102F80000E448E4234BF0121002192448A4411B183
:102F9000924502D903E0924501D2012100E00021CF
:102FA000C3E901A641444CF82010011EA0F1010024
:102FB000C4DC029800F10050850F0298DDE9036738
:102FC0008000DDF8148001F05CFD41EC1A0B304606
:102FD00001F06EFD9FED541B53EC112B01F0B8FD79
:102FE00041EC1B0B384601F063FD9FED511B53EC88
:102FF000112B01F0ADFD41EC180B404601F058FDDE
:103000009FED4D1B53EC112B01F0A2FD41EC190B70
:1030100051EC180B53EC192B01F0CAFA53EC1B2B93
:1030200001F0C6FA53EC1A2B01F0C2FACDE90801FF
:10303000002008909DED080B53EC1A2B51EC100B5F
:1030400001F0C6FE53EC1B2B01F0C2FE53EC182B13
:1030500001F0BEFE53EC192B01F0AEFE9FED381BC4
:1030600053EC112B01F074FD9FED370B41EC180B65
:1030700053EC102B9DED080B51EC100B01F068FD8B
:1030800053EC182B01F094FA9FED310B41EC180B27
:1030900053EC102B9DED080B51EC100B01F058FD7B
:1030A00053EC182B01F084FA41EC100B139810F03C
:1030B000004F06D06D4251EC100B01F03AFA41EC92
:1030C000100B284684ED000B41E6000000000000D4
:1030D0000000000000000000FB21E93F7CD9024015
:1030E00000004054FB21F93F3163621A61B4D03DC6
:1030F000FB21F93F000000000000601A61B4D03DE0
:103100007370032E8A19A33BFB2139410000000094
:1031100083C8C96D305FE43F000000000000E03F5D
:1031200082220000D0210000000000000000103EBC
:10313000000000000000103C000000000000103AF9
:10314000182D4454FB21F93D3326A611460B113CA2
:1031500000000054FB21F93D10B52DED040B2DEDC1
:10316000088B82B0B0EE419AF0EE619A0B9820F095
:1031700000449FED4BABB4F1795F11DA9DED0A0B82
:1031800051EC100B01F020FC002801BFB0EE4A0A00
:10319000F0EE6A0A02B0BDEC088B04BF04B010BDAB
:1031A0009DED0A0B53EC102B51EC100B01F0D0FCF1
:1031B00041EC180B3C480621B0EE480AF0EE680AD4
:1031C000784400F081F853EC182B51EC100B01F00F
:1031D000BFFC9DED0A0B41EC1B0B53EC192B51EC82
:1031E000100B01F0B5FC41EC190B53EC1B2B51EC0F
:1031F000180B01F0ADFC53EC192B01F0E9FD9FED2C
:103200002C0B41EC190B53EC102B51EC180B01F06B
:103210009FFC41EC100B2848844210DA53EC192B28
:1032200051EC100B01F0D4FD53EC1A2B01F0C4FD4E
:1032300041EC100B02B0BDEC088B04B010BD1F4870
:10324000A042BCBF9FED1E1B8DED001B06DBA4F54D
:1032500000100190002000909DED001B51EC100B20
:1032600053EC112B01F0B4FD9DED000B41EC180B5C
:1032700053EC102B51EC1A0B01F0AAFD41EC1A0B88
:1032800053EC192B51EC180B01F0A2FD53EC1A2B47
:1032900001F092FD41EC100BCCE7000000000000B3
:1032A000000000000000F03FF41E000000000000DD
:1032B000000000000000E03F3333D33F0000E93F4F
:1032C000000000000000D23F70B504462DED028BD7
:1032D0004D1E00EBC500B0EE408AF0EE608A90ED26
:1032E000000B35F0060017D053EC182B51EC100BE7
:1032F00001F02EFC41EC100B6D1E04EBC50090EDAF
:10330000001B51EC100B53EC112B01F051F941EC67
:10331000100B35F00600E7D1022D36D0042D1CD05D
:10332000062D1CBFBDEC028B70BD53EC182B51EC6D
:10333000100B01F00DFC94ED0A1B53EC112B01F066
:1033400037F953EC182B01F003FC94ED081B53ECF8
:10335000112B01F02DF941EC100B53EC182B51EC13
:10336000100B01F0F5FB94ED061B53EC112B01F053
:103370001FF953EC182B01F0EBFB94ED040B53EC0D
:10338000102B01F015F941EC100B53EC182B51ECFC
:10339000100B01F0DDFB94ED021B53EC112B01F03F
:1033A00007F953EC182B01F0D3FB94ED001B53EC01
:1033B000112B01F0FDF8BDEC028B41EC100B70BD40
:1033C00031B504462DED040B2DED0A8BB0EE41BA5C
:1033D000F0EE61BA0B989DED0A0B20F00040B0F1C1
:1033E000795F0DDA51EC100BFFF7AEFB042808BF34
:1033F00000F09AF89DED0A0BBDEC0A8B05B030BDCC
:1034000053EC102B51EC100B01F0A2FB41EC180B0C
:103410009DED0A0B53EC182B51EC100B01F098FBAF
:1034200041EC190B2C48B0EE480AF0EE680A052171
:103430007844FFF749FF9FED2ACBB0EE40AAF0EEAB
:1034400060AA9CB353EC1C2B51EC190B01F080FBD0
:1034500041EC1C0B53EC1A2B51EC190B01F078FBCF
:103460009FED210B41EC190B53EC102B51EC1B0B76
:1034700001F06EFB53EC192B01F0AAFC53EC182B56
:1034800001F066FB53EC1B2B01F0A2FC53EC1C2B50
:1034900001F09EFC9DED0A1B53EC112B01F08CFCFE
:1034A000BDEC0A8B05B041EC100B30BDFFE753ECCF
:1034B0001A2B51EC180B01F04BFB53EC1C2B01F0B9
:1034C00077F853EC192B01F043FB9DED0A1B53ECED
:1034D000112B01F06DF8E3E77C1D000000000000F7
:1034E000495555555555C5BF000000000000E03F47
:1034F00010B553EC102B51EC100B01F059F841ECC6
:10350000100B10BD000000009FED050B10B553EC33
:10351000102B51EC100B01F0FFF841EC100B10BD1B
:1035200000000000000000009FED050B10B553ECFB
:10353000102B51EC100B01F00BFB41EC100B10BDEC
:10354000000000000000001000200549086000BFD6
:1035500003E00021034A1154401C1428F9DB704792
:10356000540100205824012000B52DED0C8B8BB0A8
:1035700000200690079008900990FE48D0F8EC01D2
:1035800010B10420FC490870FB480078032815DCC2
:10359000F848B0F8D801F749A1F8DC010846B0F8BE
:1035A000DA11A0F8DE110020ADF81400ADF8160015
:1035B000F1480078401CF049087032E0ED48B0F85E
:1035C000D801EC49B1F8DC11401A00B2ADF8140092
:1035D000E848B0F8DA11B0F8DE01081A00B2ADF828
:1035E0001600BDF91630BDF91420E4A1E548FFF737
:1035F00097F9BDF9140001F044FAE34A03C2BDF99A
:10360000160001F03EFAE04AC2E90201D948B0F8DA
:10361000D801D849A1F8DC010846B0F8DA11A0F8C1
:10362000DE11BDF91400B0F5006F06DDBDF8140021
:10363000A0F5805000B2ADF81400BDF9140010F5EB
:10364000006F06DABDF8140000F5805000B2ADF846
:103650001400BDF91600B0F5006F06DDBDF81600C8
:10366000A0F5805000B2ADF81600BDF9160010F5B7
:10367000006F06DABDF8160000F5805000B2ADF814
:103680001600BC4890ED708BC04890ED000B53ECD9
:10369000102B51EC180B01F09BFB41EC190B9FED2B
:1036A000BC0B53EC102B01F051FB1CD29FEDBA0B5D
:1036B00053EC102B51EC180B01F08AFB41EC1A0B68
:1036C000B24890ED000B53EC102B51EC1A0B00F0AC
:1036D0006FFF41EC190B9FEDB20B53EC102B01F077
:1036E0001BF841EC180BA94890ED000B53EC102B84
:1036F00051EC180B01F06CFB41EC190B9FEDAA0B80
:1037000053EC102B01F0E8F91CD29FEDA30B53EC06
:10371000102B51EC180B00F04BFF41EC1A0B9B489F
:1037200090ED000B53EC102B51EC1A0B00F040FF06
:1037300041EC190B9FED9A0B53EC102B00F0ECFFB2
:1037400041EC180B9FED920B53EC102B51EC180B26
:1037500001F0FCFA0AD29FED900B53EC102B51ECC8
:10376000180B01F035FB41EC180B12E09FED8E0BAE
:1037700053EC102B51EC180B01F0AEF909D29FED70
:10378000860B53EC102B51EC180B00F011FF41ECA1
:10379000180B784890ED700B7C4880ED000BBDF95C
:1037A000140001F06EF941EC190B9FED810B53EC05
:1037B000102B01F0CDF9CDE90001BDF9160001F0A3
:1037C00060F941EC1C0B9FED7C0B53EC102B01F0CE
:1037D000BFF941EC1B0B9FED7A0B53EC102B01F062
:1037E000B7F941EC190BBDF9140001F04AF941ECAD
:1037F0001C0B9FED750B53EC102B01F0A9F941EC5C
:103800001B0B9FED6B0B53EC102B01F0A1F941EC5E
:103810001A0B53EC192B00F0CBFECDE902019DED04
:10382000001BB0EE410AF0EE610A51EC100B00F003
:103830008DFE674908609DED021BB0EE410AF0EE77
:10384000610A51EC100B00F081FE614948609FED68
:10385000610B53EC102B51EC180B01F079F941EC92
:103860001D0BB0EE4D0AF0EE6D0AFFF785F9B0EED4
:1038700040CAF0EE60CA9DED001BB0EE410AF0EECA
:10388000610A53EC102B51EC1C0B01F061F941EC77
:103890001A0B9FED500B53EC102B51EC180B01F051
:1038A00057F941EC1D0BB0EE4D0AF0EE6D0AFFF733
:1038B000D3F9B0EE40CAF0EE60CA9DED021BB0EE47
:1038C000410AF0EE610A53EC102B51EC1C0B01F095
:1038D0003FF941EC1B0B53EC1A2B00F069FE41EC55
:1038E000190B244890ED721BB0EE410AF0EE610A0C
:1038F00053EC102B51EC190B00F05AFE1D4A02F547
:10390000E47203C29FED330B53EC102B51EC180BF8
:1039100001F01EF941EC1D0BB0EE4D0AF0EE6D0A00
:10392000FFF79AF9B0EE40CAF0EE60CA9DED001BB9
:10393000B0EE410AF0EE610A53EC102B51EC1C0B77
:1039400001F006F941EC1B0B9FED220B53EC102B01
:1039500051EC180B01F0FCF841EC1D0BB0EE4D0AD8
:10396000F0EE6D0AFFF708F9B0EE40CAF0EE60CA5B
:1039700034E00000700100201C01002025640925AE
:10398000640D0A0000100140B8230120200100202E
:1039900000000000008066400000000000807640CB
:1039A000000000000000004000000000008066C031
:1039B000F9AFF1A3D8C2A33F83B237B70200F03FFB
:1039C000C23F295A32CFA33F372B98A2EFA462BF40
:1039D00014010020E49C52A246DF913F9DED021BA2
:1039E000B0EE410AF0EE610A53EC102B51EC1C0BC7
:1039F00001F0AEF841EC1A0B53EC1B2B01F0E8F987
:103A000041EC190B0A4890ED741BB0EE410AF0EE40
:103A1000610A53EC102B51EC190B00F0C9FD044A5C
:103A200002F5E87203C20BB0BDEC0C8B00BD0000C8
:103A30007001002082B0CDE9000121F0004001902A
:103A40009DED000B02B051EC100B7047014800686F
:103A500070470000280100200448017821B10020AF
:103A6000024A1070012070470020FCE70800002087
:103A700010B504460F4890ED000A10EE101A0846E3
:103A800001F090FAC4E900010A4890ED010A10EE35
:103A9000101A084601F086FAC4E90201054890EDC3
:103AA000020A10EE101A084601F07CFAC4E904017B
:103AB00010BD000078030020064991ED000B80ED59
:103AC000000B91ED020B80ED020B91ED040B80EDEC
:103AD000040B704760030020024991ED000A80ED5D
:103AE000000A70470000002010B52DED068B86B04F
:103AF000044600200490059024B1012C0DD0022C26
:103B000021D115E0062002A93B230222CDE90010B5
:103B100049494A48FDF72EFE15E0062002A93B233D
:103B20000422CDE9001044494448FDF723FE0AE091
:103B3000062002A93B234022CDE9001040493F481E
:103B4000FDF718FE00BF00BF9DF809009DF80810A2
:103B500040EA012000B2ADF810009DF80B009DF87E
:103B60000A1040EA012000B2ADF812009DF80D00E5
:103B70009DF80C1040EA012000B2ADF81400BDF928
:103B8000120000F07EFF41EC1A0B9FED2E0B53EC60
:103B9000102B00F0C1FD41EC190B00F0D7FC2B49B4
:103BA0000860BDF9100000F06CFF41EC1A0B9FEDAE
:103BB000250B53EC102B00F0AFFD41EC190B00F07E
:103BC000C5FC22494860BDF9140000F05AFF41ECE1
:103BD0001A0B9FED1C0B53EC102B00F09DFD41ECDC
:103BE000190B00F0B3FC194988609FED198A14B1D4
:103BF000022C1CD10DE0154890ED000AB0EE408A71
:103C000090ED010A80ED000AB1EE480A80ED010A4C
:103C10000DE00E4890ED000AB0EE408A90ED010AEA
:103C200080ED000AB1EE480A80ED010A00BF00BF36
:103C300006B0BDEC068B10BD000002400030014014
:103C400000080240000000000000D040780300207F
:103C50000000000030B52DED048B87B00446002035
:103C60000590069024B1012C0DD0022C21D115E035
:103C7000062003A943230222CDE900108D498E4876
:103C8000FDF778FD15E0062003A943230422CDE9C2
:103C9000001088498848FDF76DFD0AE0062003A959
:103CA00043234022CDE9001084498348FDF762FD9B
:103CB00000BF00BF9DF80D009DF80C1040EA0120E8
:103CC00000B2ADF814009DF80F009DF80E1040EA08
:103CD000012000B2ADF816009DF811009DF81010FB
:103CE00040EA012000B2ADF8180075484069005D57
:103CF00010B1012869D12FE0BDF91610484200F03B
:103D0000C0FE41EC190B9FED6F0B53EC102B00F034
:103D100003FD6E4A03C2BDF91410484200F0B1FE23
:103D200041EC190B9FED670B53EC102B00F0F4FCEA
:103D3000664AC2E90201BDF91810484200F0A1FE2E
:103D400041EC190B9FED5F0B53EC102B00F0E4FCE2
:103D50005E4AC2E9040168E0BDF91600404200EE87
:103D6000100AB8EEC00ADFED5A0A80EE201A11EEF2
:103D7000105A284601F016F9544A03C2BDF914003E
:103D8000404200EE100AB8EEC00ADFED510A80EEA4
:103D9000201A11EE105A284601F004F94B4AC2E9E4
:103DA0000201BDF91800404200EE100AB8EEC00A48
:103DB000DFED470A80EE201A11EE105A284601F076
:103DC000F1F8424AC2E904012FE0BDF91610484259
:103DD00000F057FE41EC190B9FED3A0B53EC102B02
:103DE00000F09AFC394A03C2BDF91410484200F0B1
:103DF00048FE41EC190B9FED330B53EC102B00F0F8
:103E00008BFC324AC2E90201BDF91810484200F0A9
:103E100038FE41EC190B9FED2B0B53EC102B00F0EF
:103E20007BFC2A4AC2E9040100BF00BF9FED298A3A
:103E300014B1022C38D11BE0244890ED001BB0EEE9
:103E4000410AF0EE610A51EC100B00F07FFB08EE26
:103E5000100A1E4890ED020B80ED000BB1EE480AEF
:103E600010EE100A01F09EF8184AC2E902011BE0A8
:103E7000164890ED001BB0EE410AF0EE610A51ECDD
:103E8000100B00F063FB08EE100A104890ED020BD7
:103E900080ED000BB1EE480A10EE100A01F082F836
:103EA0000A4AC2E9020100BF00BF07B0BDEC048BA3
:103EB00030BD000000000240003001400008024018
:103EC0006C240120EA0D7299C670604060030020E6
:103ED00000008342000000003EB5054625B1012DDB
:103EE0000DD0022D21D115E0022002A94123024666
:103EF000CDE9001019491A48FDF73CFC15E00220F5
:103F000002A941230422CDE9001014491448FDF709
:103F100031FC0AE0022002A941234022CDE9001031
:103F200010490F48FDF726FC00BF00BF9DF80900AF
:103F30009DF8081040EA012004B200EE104AB8EEE5
:103F4000C00A9FED091AC0EE010AB3EE090A30EE6D
:103F5000800A064880ED000A3EBD000000000240D5
:103F600000300140000802406666A34300000020C4
:103F700038B54FF4A060FDF7BBF8532140F2E730AD
:103F800000F0A4F9FCF752FFFDF73CFBFCF7D6FB71
:103F90004FF46120FEF770FBFCF7F2FC07E02046CF
:103FA000FCF708FE00212046FCF7CEFE641C032C23
:103FB000F5DB00200346532240F2E73100904FF03A
:103FC0008040FEF7D5F80820FDF79EFD0220FDF7A2
:103FD0009BFD38BDF0B503460D4616460027294621
:103FE0000A2E03D0002008702846F0BD33B93020D7
:103FF00001F8010B002008702846F6E7002B03DAD1
:104000002D2001F8010B5B4242F210720DE093FB90
:10401000F2F404B937B104F1300001F8010B04FBEC
:10402000123301270A2092FBF0F2002AEFDC002075
:1040300008702846D9E7000010B5FFF799FF00BFC8
:1040400038E033E0FCF732FD00F0080078B10024DE
:104050000AE0194800EB8400D0ED000AB0EE600AD7
:10406000204600F043F9641C032CF2DB12E000242C
:104070000EE0114800EB8400D0ED000AB6EE001A05
:1040800070EEC10AB0EE600A204600F02FF9641C01
:10409000032CEEDBFDF7FAF808B1FFF765FA0748E5
:1040A000D0F8E001401E0549C1F8E001FFF7D4FC5B
:1040B0000028C7D1C5E70000E00200207001002001
:1040C00030B58BB004460D4601210846FDF72AF8AD
:1040D00001210220FDF716F801220A212348FCF7EE
:1040E000BDFC4FF48060099002208DF82800032069
:1040F0008DF8290000208DF82A0001208DF82B0072
:1041000009A91A48FCF762FCA8B2ADF81800002013
:10411000ADF81A000794ADF8200006A94FF08040D2
:10412000FEF712FA6020ADF804003220039001205F
:10413000ADF806000020ADF8100001A94FF0804056
:10414000FEF758F90821C806FEF7A4F901218807EF
:10415000FDF7D8FF01218807FDF7E3FF00214FF0AD
:104160008040FEF7ECF90BB030BD000000040240C7
:1041700030B58BB004460D4601210846FCF7D2FF4E
:1041800001210220FCF7BEFF01220B212348FCF78E
:1041900065FC4FF40060099002208DF82800032090
:1041A0008DF8290000208DF82A0001208DF82B00C1
:1041B00009A91A48FCF70AFCA8B2ADF818000020BB
:1041C000ADF81A000794ADF8200006A94FF0804022
:1041D000FEF7BAF96020ADF8040032200390012008
:1041E000ADF806000020ADF8100001A94FF08040A6
:1041F000FEF75AF90821C806FEF792F9012188074F
:10420000FDF780FF01218807FDF78BFF00214FF0AC
:104210008040FEF796F90BB030BD0000000402406C
:1042200030B58BB004460D4601210220FCF77AFF21
:1042300001210420FCF766FF022207212148FCF738
:104240000DFC8020099002208DF8280003208DF8B5
:10425000290000208DF82A0001208DF82B0009A9E3
:104260001848FCF7B3FBA8B2ADF818000020ADF871
:104270001A000794ADF8200006A91348FEF764F968
:104280006020ADF80400322003900120ADF8060054
:104290000020ADF8100001A90B48FEF74BF80821EB
:1042A0000948FEF799F801210748FDF72BFF012186
:1042B0000548FDF736FF00210348FEF73EF90BB035
:1042C00030BD0000000802400004004070B5044604
:1042D0000D4629462046FFF7F3FE29462046FFF704
:1042E00047FF29462046FFF79BFF70BD30B52DEDF7
:1042F000028B89B00446B0EE408A7A4A07CA06AB00
:1043000007C3784A0C3207CA03AB07C300200090EA
:1043100001900290744800EB840090ED000A38EEA2
:10432000400A724800EB840080ED000A6F4800EB01
:10433000840090ED000ADFED6E0A20EE200A6A4844
:10434000183000EB840080ED000A6A4800EB84001E
:1043500090ED000A654800EB8400D0ED000A30EED5
:10436000200A644800EB840080ED000A5F4800EBFF
:10437000840090ED000A604800EB8400D0ED000A54
:1043800030EE600A5D4800EB840080ED000A57487B
:1043900000EB840090ED000A574800EB840080EDAC
:1043A000000A06A800EB840090ED000A4F4800EBDD
:1043B0008400D0ED000A20EE200A03A800EB840060
:1043C000D0ED000A4B4800EB840090ED001A00EE9F
:1043D000810A684600EB8400D0ED000A474800EBF4
:1043E000840090ED001A00EE810A10EE101A0846C3
:1043F00000F0D8FD424A02EBC40203C2404800EB81
:10440000C40090ED001BB0EE410AF0EE610A9FED92
:104410003D1B53EC112B51EC100B00F097FC07D215
:104420009FED3A0B364800EBC40080ED000B30E006
:10443000334800EBC40090ED001BB0EE410AF0EEF3
:10444000610A9FED341B53EC112B51EC100B00F063
:1044500043FB07D29FED2F0B294800EBC40080EDF2
:10446000000B16E02D4850F82400012811D103A8B4
:1044700000EB840090ED000ADFED290A80EE801A3F
:104480001C4800EB840080ED001A0020234941F80D
:104490002400154800EB840090ED000ADFED210AAE
:1044A000B4EEE00AF1EE10FA06DD9FED1A0B1448A7
:1044B00000EBC40080ED000B114800EBC40090ED50
:1044C000001BB0EE410AF0EE610A51EC100B00F057
:1044D0007BFA054629462046FCF736FC09B0BDECC0
:1044E000028B30BD9C500008D4020020C82301205C
:1044F0000000C842D4230120E0230120EC23012046
:10450000F8230120000000000000344000000000FB
:1045100000005940000000000000000030010020B1
:10452000B0FF0D416666E63E00BF401E0028FCD18C
:10453000704781F00041704780F00040704721F0E3
:104540000041704720F000407047000021F0004219
:10455000A2F16052B2F5801F01F0004328BFD2F1F2
:104560007F6C0BD95FEA001C43EAC20242EB507039
:1045700018BF704728BF20F001007047B2F5801FB8
:10458000BCBF184670474FEA410C1CF5001F02D211
:10459000084600F07DBD70B500F084FB0000008986
:1045A000FFF7F6BF4FF00040A0F580007047000015
:1045B00010B591EA030F48BF83F0004300F1108467
:1045C000841A71EB030C05D2121943EB0C03001B88
:1045D00061EB0C01DFF824E14FEA1154A4EB135C0A
:1045E0001EEA430F18BF9EEA445F73D023EA0E030E
:1045F000DCF1200E21EA045143F4801332D322FA75
:104600000CFE10EB0E0023FA0CFE41EB0E01CCF178
:10461000200E03FA0EFE10EB0E0051F10001B1F571
:10462000801FCCF1200E32D201EB045112FA0EF2AF
:10463000BDE8104058BF7047401C38BF5FEA4202D7
:1046400018BF7047002814BF20F0010041F100019D
:104650004FEA410313F5001F38BF7047A1F1C04175
:1046600000F06EBB012A43EB0302ACF1200CDCF13D
:104670001F0E32BF4FF0000E23FA0CF310EB0300B5
:1046800041EB0451B4EB115FD0D0A1EB045101F523
:10469000801149085FEA300001EB04510ED350F15C
:1046A000000038BF12FA0EFE08D1BDE81040C9E77D
:1046B000401C38BF5FEA4202CAD1C3E7BDE81040E0
:1046C0004FEA410313F5001F38BF7047A1F1C04105
:1046D00000F036BB9EEA445F08D011EA5E0FBDE8E9
:1046E000104004BF01F0004100207047BDE81040B9
:1046F00070B500F0D7FA00BF64FBBE3E0000E0FFDB
:10470000491058BFC1F140415B1058BFC3F140434D
:104710008B42EFF3008070472DE9C04130B4DFF8E1
:10472000A0C23CEA111418BF3CEA131400F0EC805C
:1047300081EA03051CEA111444EAD57418BF1CEA87
:10474000131500F0C780A4EB05044FF0004545EABF
:10475000C12145EAC32341EA505143EA525304F1CF
:104760007F74994204F500344FEAC0204FEAC22218
:1047700008BF904200F09C804FEA13650FF240168C
:10478000765D4FEA134506FB05F7C7F1807706FB18
:1047900007F74FEAD737A7FB03687642C8F580389A
:1047A000A7FB06CE38BFA8F1010807FB08E64FF0CB
:1047B000000EA6FB028CE6FB03CEDCF1000CCEF172
:1047C000004E38BFAEF1010EA6FB0C584FF00007AB
:1047D0004FF00005E6FB0E87A1FB08C6A0FB07CE45
:1047E00016EB0E0645F10005E1FB076515F1E04EFD
:1047F0007EBFA4F580345FEA46066D4116F180075E
:1048000045F100054FEA17274FEA066647EA0567B4
:10481000A6F1DE46B6F1805F4FEA15251FD938466E
:1048200024F0010C05EBC471BCF1FE6F01EB0C111F
:1048300002D8F0BCBDE8008124425CBF01F5801EB7
:104840009EEAC47F02D4F0BCBDE80081244238D483
:10485000F0BCA1F1C041BDE8004100F071BA4FEADF
:10486000D22242EA43524FEAD323A7FB02864FEA01
:10487000D02040EA415007FB03661EEA0E0F4FEAC4
:10488000D12105FB026658BFA6EB0056B6EB0056D9
:104890004FEA520E4EEAC37E18EB0E0E56EB530E45
:1048A000BDD518EB02085E417F1C55F10005B6E747
:1048B0004FF480154FF000074FF000064FF000084E
:1048C000ADE7F0BC4FF0000001F1C04101F0004144
:1048D000BDE8008111EA0C1F0CEA131500D00CE0B2
:1048E00013EA0C1F00F025804FF00000F0BC81EAB5
:1048F000030101F00041BDE80081F0BCBDE80041CA
:1049000081EA030100F01CBAF0BCBDE8004170B5BB
:1049100000F0C8F9097EFC3E00F007B881EA030107
:104920004FF0000001F00041704781EA030100F000
:1049300007BAF0BCBDE800414FF0000021497047C4
:10494000FFFDFBF9F7F5F4F2F0EEEDEBE9E8E6E454
:10495000E3E1E0DEDDDBDAD8D7D5D4D3D1D0CFCDDB
:10496000CCCBCAC8C7C6C5C4C2C1C0BFBEBDBCBB14
:10497000BAB9B8B7B6B5B4B3B2B1B0AFAEADACAB0F
:10498000AAA9A8A8A7A6A5A4A3A3A2A1A09F9F9EE9
:104990009D9C9C9B9A99999897979695959493939B
:1049A000929191908F8F8E8E8D8C8C8B8B8A898932
:1049B00088888787868585848483838282818180B5
:1049C0000000FF070000F87F4FEA41034FEA53530E
:1049D000A3F58063D3F11E03C8BFD3F1210C0CDD16
:1049E0004FF0004242EAC12242EA505232FA03FC3E
:1049F0008CEAE17CACEBE1707047102BC4BF002067
:104A0000704703F5787CBCF1FF3F04D06FF00042A3
:104A100082EA2100704770B500F044F94992248081
:104A200000207047F2E700004FEA1153A3F58063BE
:104A3000D3F11E03A8BFD3F1200C08DB4FF00042D6
:104A400042EAC12252EA505232FA03F07047094258
:104A50000BD4102BC4BF0020704703F5787CBCF149
:104A6000FF3F05D04FF0FF3070474FF00000704718
:104A700070B500F017F900BF4992248000207047FC
:104A8000F0E710F0004248BF4042B0FA80F310FA5D
:104A900003F10AD0C3F11D0303F580634FEA4150CF
:104AA00002EB035202EBD12170474FF00000704738
:104AB000B0FA80F310FA03F10AD0C3F11D0303F535
:104AC00080634FEA41504FEA035202EBD121704715
:104AD0004FF000007047000051EA030C17D41CF59A
:104AE000801F58BFBCF5801F00F10680994218BF97
:104AF000704708BF9042704707D711F5801F58BF15
:104B000013F5801F19D499427047894270471CF5EC
:104B1000801F08D5BCF5801FF7D58B4218BF7047A2
:104B200008BF824270474FF4001C1CEB410F38BF96
:104B30001CEB430F01D28B42704770B500F0B2F806
:104B4000922449004FF000514FF08053FFF7D8BD39
:104B5000DFF848C170B51CEA111E1EBF1CEA131510
:104B60009EEA0C0F95EA0C0F00F06F8081EA0304B7
:104B700023EA4C134EEAD47E21EA4C1141F4801111
:104B800043F48013AE44A1FB024CA0FB0365AEF1DD
:104B90007F7E361955EB0C05A1FB034C4CF100034D
:104BA000A0FB021C16EB0C06654153F10003094201
:104BB00018BF46F0010613F4007F0BD14FEA033112
:104BC0004FEA0530340341EA155140EA16506FF0C0
:104BD00003020AE04FEAC3214FEAC520F40241EA8A
:104BE000555140EA56506FF0020202EB2E4201EBA3
:104BF000025585EACE710AD05FEA440C18BF24F052
:104C0000004450F1000041F1000120EAD47040F26C
:104C1000FE7C624500D270BDA84214BF4FF08044B4
:104C20004FF04044002E08BF0024BEF1806FA8BFA3
:104C3000A1F1C041BDE8704080F282804FF00000D9
:104C400001F1C04101F0004170479EEA0C0F0CEAEF
:104C5000131518BF95EA0C0F06D04FF0000081EA3B
:104C6000030E0EF0004170BD00F01CF88900013EFB
:104C700000F007B800F009B84FEA430C5FEA5C5C4B
:104C800008D081EA030100F05BB84FEA410C5FEA0B
:104C90005C5CF6D14FF00000014970470000FF074F
:104CA0000000F87F0EF1020E2EF0030E5EF8046B8A
:104CB000364205D4012A43EB030515F5001F12D82F
:104CC000012841EB010C1CF5001F0CD80ED14FEA56
:104CD000D17C15F5001F0CEB4C0C0CF1020C08BF3D
:104CE0004CEBD37C04E04FF0080C01E04FEAD37C9E
:104CF0000CEB4C0526FA05F606F00706B6F1040C97
:104D000006D20EEB860CBDE870404CF0010C6047FB
:104D1000DFE80CF0090B02024FF000414FF00000F9
:104D2000A1F5002170BD19461046012851EB010480
:104D300018BFD4F5001484BF002001F0004170BDFD
:104D40000808A0F500114FEA3101704753EA010C41
:104D500017D41CF5801F58BFBCF5801F00F10680DA
:104D60008B4218BF704708BF8242704707D713F5C0
:104D7000801F58BF11F5801F19D48B4270479B428A
:104D800070471CF5801F08D5BCF5801FF7D59942E8
:104D900018BF704708BF904270474FF4001C1CEBCF
:104DA000430F38BF1CEB410F01D2994270470FB43B
:104DB0000CBC03BCFFF7C1BE91EA030F10B581F034
:104DC00000413FF5FDAB83F0004300F009B800005F
:104DD00010B591EA030F48BF83F000433FF5F0ABF5
:104DE000841A71EB030C07D212198CF0004C43EBC0
:104DF0000C03001B61EB0C01DFF8A4E14FEA115436
:104E0000A4EB135C1EEA430F18BF9EEA445F00F058
:104E1000B08023EA6E03524221EA0451C3EB6E03D1
:104E200038BF5B1EDCF1200E25D322FA0CFE10EBFE
:104E30000E0043FA0CFE41EB0E01CCF1200E03FAFA
:104E40000EFE10EB0E0051F10001CCF1200E29D422
:104E500012FA0EF201EB0451BDE8104058BF704742
:104E6000401C1CBFB2F1004F704700280CBF491C0A
:104E700020F00100704712EB020E43EB030218BF53
:104E80004FF0010E4EEA4202ACF1200CDCF11E0E96
:104E900054D943FA0CFE10EB0E0051F1FF31CCF166
:104EA0001E0ED5D50EF1010E12FA0EFE404141EB59
:104EB000010101EB445C5FEA5C5C10D910EBDE7031
:104EC00001EB045138BFBEF1004FBDE8104018BFE0
:104ED000704700280CBF491C20F00100704730D2F9
:104EE0004FEAD42C11F5001124F400641BD0B1FA60
:104EF00081F20B3AA41AA41ED2F12003914030FA99
:104F000003F31943904001EBCC71002C01EB0451E9
:104F1000BDE81040A8BF704701F1C0414FF000004C
:104F200001F000417047B0FA80F310FA03F100D1AC
:104F300010BDE41A173C4805C90AE4E701EB045127
:104F400010BD491001EB0451BDE810404FEA30009C
:104F500002E04FF0000170474A0008BF0042F8D05D
:104F6000B2F5001F28BF704701F000414FF000006C
:104F700070479EEA445F07D011EA5E0FBDE810401B
:104F800004BF002100207047BDE8104070B5FFF756
:104F900089FE00BF40DFF63E83F0004110467047B7
:104FA0000000E0FF43004FEAD30C4FEA3C0C4340C3
:104FB0001FBF40070CF1605113F0FE4F70471CF00B
:104FC000006F03D100200CF0004170470CF000434B
:104FD00043EA507010B540EACC0000F00EF800BF74
:104FE000000000924FEA0001FFF7AABE4FF0004117
:104FF0004FF00000A1F5002170470EF1020E2EF0D7
:10500000030E5EF8044B244204D44FEA4102B2F18D
:105010007F4F11D84FEA4003B3F17F4F0CD80ED128
:105020004FEAD07CB2F17F4F0CEB4C0C0CF1020C30
:1050300008BF4CEBD17C04E04FF0080C01E04FEAD4
:10504000D17C0CEB4C0324FA03F404F00704B4F114
:10505000040C06D20EEB840CBDE810404CF0010CA1
:105060006047DFE80CF0070802024FF00040A0F5AF
:10507000800010BD0846420018BFD2F1807288BF80
:1050800000F0004010BD4FF04070E1EE100A704794
:10509000FF2141EAD050C0057047000000601F4565
:1050A00000601F4500601F450000403F0000403F7A
:1050B0000000403F000000004C5555555555A53F98
:1050C0007751C1166CC156BF9015CB19A001FA3E9D
:1050D000AD529C804F7E92BEC4B1B4BD9EEE213EC7
:1050E000D43888BEE9FAA8BD00004054FB21F93F3E
:1050F0003163621A61B4D03D0000601A61B4D03DE2
:105100007370032E8A19A33B0000002E8A19A33B5B
:10511000C14920259A837B3900000000000000006F
:105120006E83F9A22915444ED15727FCC0DD34F512
:10513000999562DB4190433CAB6351FE61C5BBDE98
:105140003A6E24B7E0D24D42EA2E49061C92D109AC
:105150001CEB1DFE3EA729B1F53582E88444BB2E29
:1051600026709CE9417E5FB439D69139F439538376
:105170008B5F849C3B28F9BDFF97F81F0F9805DED5
:105180008B112FEF1F6D0A5ACF7E366DB709CB27D3
:10519000663F464F2DEA5F9EC7BA27757BF1E5EB68
:1051A000F739073DEA92528AB15FFB6B085D8D1FAC
:1051B000A6F810111111813FD561C119A0012ABFB4
:1051C0007DFEB157E31DC73EEB9C2B8AE6E55ABE38
:1051D0007CD5CF5A3AD9E53DF851000800000020AF
:1051E00070010000C4010008445200087001002052
:1051F000B86A010020020008810211010314803FF7
:10520000F8087B14AE47E17A841C080813FA7E6A1A
:10521000BC74936834093A380009103A7A7AF04C31
:1052200044953E08094EC75703EA47A4BB3D7001A9
:10523000200A1501040918312C020304043506075D
:045240000809000059
:040000050800018965
:00000001FF
