:020000040800F2
:10000000905201208D020008ED3B0008D935000810
:10001000E93B0008A1280008B16A000800000000C0
:10002000000000000000000000000000A9480008D7
:10003000E52E000800000000A3020008A502000849
:10004000A7020008A7020008A7020008A7020008EC
:10005000A7020008A7020008A7020008A7020008DC
:10006000A7020008A7020008A7020008A7020008CC
:10007000A7020008A7020008A7020008A7020008BC
:10008000A7020008A7020008A7020008A7020008AC
:10009000A7020008A7020008A7020008A70200089C
:1000A000A7020008F94C0008A7020008A7020008F0
:1000B000154D0008F15200080D530008A702000872
:1000C000A7020008A7020008A7020008A70200086C
:1000D000A7020008C15C0008A7020008015E000832
:1000E000A7020008A7020008A7020008A70200084C
:1000F00081530008A7020008A7020008A702000811
:10010000A7020008A702000829530008A702000858
:10011000A7020008A15C0008A702000845530008D8
:10012000A7020008A7020008A7020008A70200080B
:10013000A7020008A7020008A7020008A7020008FB
:10014000A7020008A7020008A7020008A7020008EB
:10015000A7020008A7020008A7020008A7020008DB
:10016000A7020008A7020008A7020008A7020008CB
:10017000A7020008A7020008A7020008A7020008BB
:10018000A7020008A702000800F002F800F06FF8CC
:100190000AA090E8000C82448344AAF10107DA45E2
:1001A00001D100F064F8AFF2090EBAE80F0013F0C5
:1001B000010F18BFFB1A43F00103184740A10000CC
:1001C00060A100000A444FF0000C10F8013B13F04E
:1001D000070408BF10F8014B1D1108BF10F8015BA0
:1001E000641E05D010F8016B641E01F8016BF9D193
:1001F00013F0080F1EBF10F8014BAD1C0C1B09D1EA
:100200006D1E58BF01F801CBFAD505E014F8016B5B
:1002100001F8016B6D1EF9D59142D6D370470000ED
:100220000023002400250026103A28BF78C1FBD8FF
:10023000520728BF30C148BF0B607047662909F0DC
:100240007D82002070471FB509F03DFA00F08EFC5A
:1002500004000020002108F033FC401C60600020F6
:10026000002108F017FCE0601FBD10B510BD00F0C4
:10027000A5FD1146FFF7E7FF08F0A8F801F01EF80A
:1002800003B4FFF7F2FF03BC01F062F809488047AE
:1002900009480047FEE7FEE7FEE7FEE7FEE7FEE768
:1002A000FEE7FEE7FEE7FEE704480549054A064B80
:1002B00070470000914C000889010008900C012053
:1002C00090520120904E0120904E0120DFED300A27
:1002D000B5EEC00A60EE200ABDEEE01A11EE100A7B
:1002E000F1EE10FA38BF401E00EE100A9FED291AF9
:1002F000B8EEC00A70EEC00A20EE810ABCEEC00A59
:1003000010EE100A00EE100A0028B8EEC00A10EE37
:10031000810AB8BF002004DBB0F5807FC8BF4FF46E
:1003200080701D4960EE000AB6EE001ADFED1C2A4F
:100330009FED1A2A60EE011A60EE225A20EE813AF1
:1003400020EE022A21EEA01A01EB800073EE655A1E
:1003500062EE202AB7EE006A33EE003AD0EC043A9F
:1003600076EE611A71EE600A35EEE20A33EE413A3A
:1003700032EEC21A70EEA10A20EE230A64EE831A4E
:1003800004EE200A45EE011A31EE800A70470000A3
:1003900083F9223E0000804328990008ABAA2A3E38
:1003A000ABAAAA3EDFED300AB5EEC00A60EE200A25
:1003B000BDEEE01A11EE100AF1EE10FA38BF401E41
:1003C00000EE100A9FED291AB8EEC00A70EEC00ABE
:1003D00020EE810ABCEEC00A10EE100A00EE100AF0
:1003E0000028B8EEC00A10EE810AB8BF002004DB76
:1003F000B0F5807FC8BF4FF480701D4960EE000AE1
:10040000B6EE001ADFED1C2A9FED1A2A60EE011AE3
:1004100060EE225A20EE813A20EE022A21EEA01A46
:1004200001EB800073EE655A62EE202AB7EE006A97
:1004300033EE003AD0EC043A76EE611A71EE600ABF
:1004400035EEE20A33EE413A32EEC21A70EEA10AFC
:1004500020EE230A64EE831A04EE200A45EE011A08
:1004600031EE800A7047000083F9223E000080438D
:10047000389D0008ABAA2A3EABAAAA3E0FB41CB511
:10048000074B06AA7B4469460090059800F003FBE1
:100490000020694600F012FB1CBC5DF814FB000054
:1004A000350600002DE9F0410E460446002020628A
:1004B0002046E168884730B3252805D0D4E90121DA
:1004C0009047206A401CF2E7E168204600278847F1
:1004D000050018D0A5F14100192802D820354FF4A5
:1004E00000673246294620462760FFF7A7FE40B145
:1004F000012804D0F61D26F007060836D8E7361D79
:10050000D6E72846DAE7206ABDE8F08140EA010331
:1005100070B59B072ED14FF00136042A2AD308C8A4
:1005200010C99D1B9D43121F15EAC61517D0D8B2DE
:10053000E1B2401A50EA056110D198B2A1B2401A56
:1005400050EA05410AD123F07F4024F07F41401A50
:1005500050EA052102D1180EA0EB146070BDA34231
:10056000DBD018BA21BA884201D9012070BD4FF002
:10057000FF3070BD0AB9002070BD10F8013B11F8C2
:10058000014B63B1A3420AD1521E08D010F8013BBF
:1005900011F8014B1BB1A34201D1521EEDD1181B22
:1005A00070BD10B5203AC0F00B80B1E81850203A69
:1005B000A0E81850B1E81850A0E81850BFF4F5AF03
:1005C0005FEA027C24BFB1E81850A0E8185044BF8D
:1005D00018C918C0BDE810405FEA827C24BF51F8FA
:1005E000043B40F8043B08BF7047D20728BF31F8EE
:1005F000023B48BF11F8012B28BF20F8023B48BF3F
:1006000000F8012B70474FF0000200B513469446E6
:100610009646203922BFA0E80C50A0E80C50B1F15A
:100620002001BFF4F7AF090728BFA0E80C5048BF6E
:100630000CC05DF804EB890028BF40F8042B08BF0C
:10064000704748BF20F8022B11F0804F18BF00F808
:10065000012B704770477047704710B500F08AFA59
:10066000006810BD10B5044600F084FA046010BDA7
:1006700070472DE9FF4F0C461E464FF0FF378BB0F9
:10068000D2E90001DDF860800A908A46C1F30A557C
:1006900005B93D46002108464FF00000BAF1000FB1
:1006A00000F4400005DA00EB80004FF4400101EA5D
:1006B00050004FEA9059B9F1010F00DDB9460A9890
:1006C00050EA4A000ED044F61050A5F2FF354543DB
:1006D0002F14B8F1000F1ED07542291E1EDDC9F17E
:1006E00000021CE0B8F1010F4FF0000001D03021F2
:1006F00003E0F24305E02154401CB042FBDB3046EE
:100700000022002121540B99C1F80880C1E9002082
:100710000FB0BDE8F08FBD1B6D1CDEE74A4600DA66
:10072000694206A800F0D8FA06AB93E8070003ABCD
:1007300083E8070050460A9901F05DF88DE807004C
:10074000A0F500501F3800900398002D09DD42F2FB
:100750001F014A46084403A90390684601F0E7FADE
:1007600008E0A0F500504A461F3803A903906846E8
:1007700001F005FB8DE807000004000C03D04FF0EA
:10078000FF30410800E01046B8F1000F03D000220E
:10079000009215461EE0751E05D400F0EFF93032C8
:1007A00062556D1EF9D5B3460122084302D00022DE
:1007B0007F1C04E02078302801D100227F1E002A0F
:1007C000099786D01DE0112D07DA00F0D7F93032F5
:1007D00062556D1C50EA0102F5D1084302D0009821
:1007E000C8B10EE00021681E05E0235C625C635422
:1007F0002254401E491C8142F7DBAB46A81B401E19
:100800000990002004F80B000B98099AC0F80880A2
:10081000C0E9002B7CE711264FF0000859E72DE9CD
:10082000F04F88460446D21D22F0070191B0D1E96D
:100830000001CDE90A0106F0C9F902460B98C00F84
:1008400001D02D2007E02068810701D52B2002E090
:10085000202101EAC000032A099001D0072A05DB04
:1008600003464146204600F0D7F90BE12078800688
:1008700001D5E06900E00620B8F1650F814606D099
:10088000B8F1660F18D0B8F1670F70D131E00020D1
:10089000B9F1110F009001DB112301E009F101030F
:1008A0000AAA01A90CA8FFF7E4FEDDE90C700026F6
:1008B00009F10105834647E001204B4600904FF0C7
:1008C00000470AAA01A90CA8FFF7D3FEDDE90DB085
:1008D0000C995D46002610B909F101000D18B9EB1D
:1008E000050003D4C0F1FF3609F10105A5EB0900AD
:1008F0002BE0B9F1010F01DA4FF001090020B9F145
:10090000110F0090484601DD112300E003460AAABA
:1009100001A90CA8FFF7ADFEDDE90C704D460026DD
:100920008346207800070AD4AB4500DA5D4601A86B
:10093000012D04DD411911F8011C302907D04F4564
:1009400002DA17F1040F04DA012082460FE06D1E6F
:10095000EEE7002F02DCED1B3E4403E0781CA842CA
:1009600000DD7D1CB81B00F1010A4FF00047207824
:10097000000703D4AA4501DB4FF0FF3A0021B7F18D
:10098000004F0DF143088DF8431024D002202B2393
:10099000002F01DA7F422D230A21021EA0F101005F
:1009A00000DC5FB197FBF1FC97FBF1F201FB1C7CD3
:1009B00017460CF1300C08F801CDEEE7A8F1010064
:1009C00003702188090501D5452100E06521A0F1CA
:1009D000010800F8011C09980FA9A1EB0807FF1DE9
:1009E00000B10120411901EBEA70A1693844081AED
:1009F000401EA0612078C00602D42046AFF30080DC
:100A0000099828B1D4E901219047206A401C20624E
:100A10002078C00622D52046AFF300801EE0002ECD
:100A200004DBB34502DD01A8805D00E03020D4E99D
:100A300001219047206A401C2062761CAAF1010027
:100A40005FEA000A0AD100F091F8C0680168405CD2
:100A5000D4E901219047206A401C2062281EA5F19C
:100A60000105DCDC07E0D4E9012118F8010B90470F
:100A7000206A401C2062381EA7F10107F3DC2046E3
:100A8000AFF30080032011B043E6000001694A1C67
:100A900002610878704700B58FB0CDE901310021BF
:100AA000059105497944CDE9031011466846FFF7E1
:100AB000F9FC0FB000BD0000E5FFFFFF0A6802F877
:100AC000010B0A60704700000FB4002300B589B025
:100AD0000CA900910B99CB60214B7B440693214BD1
:100AE0007B44079304236FF00042CDE901321E4A94
:100AF0007A446B4608920246002008F081FE09B055
:100B00005DF814FB70B506464FF0FF3015460C46F5
:100B1000324686B00091CDE901016946002004907B
:100B200004A8FFF7D1FF02460498211825B108B1A7
:100B3000084600E020462860049800280DD0002ACE
:100B400002DD0098884208D03246081B69460094AE
:100B5000CDE9010404A8FFF7B7FF06B070BD00009F
:100B6000BB010000D30100001301000000487047E2
:100B70004C0C0120004870472C0C012030B5B0F11E
:100B80000A024FEA900E71F100034EEA817EB0EB4B
:100B90000E0061EB91014FEA101E4EEA017E10EB50
:100BA0000E0041EB11114FEA102E4EEA016E10EBD0
:100BB0000E0041EB11214FEA104E4EEA014E10EBB0
:100BC0000E0041EB1141401841F100014FEAD00005
:100BD00040EA41704FEAD10110EB80054FEA8104F1
:100BE00044EA907444EB01046D1944EB0404521B75
:100BF000A3414FF0000348BF0A3200D530BD401C6E
:100C000041F1000130BD10B5044600F0FDF8006868
:100C1000005D00F0010010BD2DE9F0411F460446C3
:100C200003260168072A01F4006004DB08B116A559
:100C300005E016A503E008B115A500E015A521F013
:100C400010002060A069C01EA0610FB1401EA0610D
:100C50002046AFF300804FB1D4E9012138469047D8
:100C6000206A401C2062C01C206206E0206AFAE76D
:100C7000D4E9012115F8010B9047761EF8D22046E1
:100C8000AFF30080BDE8F0814E414E006E616E0012
:100C9000494E4600696E6600426842B1016811F82B
:100CA000013B23B1521EC0E90012184670470121D2
:100CB000C160881E704742685AB1C368016843B971
:100CC00083688B4205D0491E521CC0E900120020E7
:100CD00070474FF0FF3070472DE9F04781461646C8
:100CE0008AB0334878440DC88DE80D003048784408
:100CF000801C03AC0DC884E80D0041F69B3008440D
:100D0000372190FBF1F290FBF1F5A5F1800501FB95
:100D100012041B3C02D56442012000E00020DFF8F1
:100D200090A080460027FA44AAF1BE0A0DE0E00731
:100D300009D03246684607EB47010AEB810101F012
:100D40001EF88DE8070064107F1C002CEFD1184FAF
:100D50007F44AC3F18E0E80714D007EB04100DF116
:100D6000180A90E80E008AE80E00C068F04201D12F
:100D700098190890324606A903A801F000F803ABC1
:100D800083E807006D10641C002DE4D132466946EB
:100D9000B8F1000F03A802D000F0C9FF01E000F095
:100DA000EEFFC9E90001C9F808200AB0BDE8F087E4
:100DB000FC950000004870472C0C01207546FFF799
:100DC000F9FFAE4605006946534620F00700854608
:100DD00018B020B5FFF768FABDE820404FF00006D4
:100DE0004FF000074FF000084FF0000B21F0070113
:100DF000AC46ACE8C009ACE8C009ACE8C009ACE856
:100E0000C0098D467047000010B5FFF7AFFE001D0A
:100E100010BD00BFAD7C00002DE9FF4F064689B034
:100E20000878FF2806D0491C2D2805D000244FF053
:100E3000000908E000200CE00124F8E709EB890331
:100E4000491C00EB43090878FF28F7D114B1C9F118
:100E500000008146107800252C46AA4629462D28F8
:100E600001D02B2804D1521C2D2813D000208246FB
:100E70008B461078FF280FD04FF0000C0A21521C2F
:100E8000A5FB017804FB018105FB0C11C5194BEB97
:100E90000104EEE70120EAE7002108464FF00000D8
:100EA000BAF1000F02D000EB80004008C0F3815877
:100EB000B8F1010F01DD4FF0FF380C9809EB000786
:100EC00055EA040009D04FF0020917F5FA7F0BDA52
:100ED0004FEACA70C6E900B012E04FEACA70C6E92C
:100EE00000B00DB0BDE8F08FB7F5FA7F0DDDF0482A
:100EF0007844D0E90010C6E9001040EACA7070607A
:100F0000FFF738FEC0F80090EBE7391E02DAC8F1AF
:100F1000000200E0424600DA794206A8FFF7DCFE54
:100F200006AB93E8070003AB83E8070044F23E00FA
:100F30005BEA04010090584604D144F21E012C469D
:100F40005D460091210C0904014306D10099240457
:100F500044EA15442D041039009104F07F41014307
:100F600006D10099240244EA15642D020839009143
:100F700004F07041014306D10099240144EA15743C
:100F80002D01091F009104F04041014306D1009951
:100F9000A40044EA9574AD00891E009104F000415C
:100FA000084304D100986D196441401E00904246E8
:100FB0006846002FCDE9014503A902DD00F0F3FEEC
:100FC00001E000F0C8FEBAF1000F04460D4601D062
:100FD00084F0004440F2FF7724F00040284303D01F
:100FE000C4F30A50B84212D1FFF7C4FDC0F8009014
:100FF000C4F30A50B8420AD1AE487844D0E9001090
:10100000C6E9001004F000410843706069E7C6E9D2
:10101000005466E72DE9FF4F1F464FF0000A4FF0DE
:10102000FF38454691B0D7E90146CDF83CA0FFF71F
:101030009DFDC0680168405C1090B96912986D1CF4
:101040008847396A814688470028F6D1B9F1FF3FC1
:101050000AD0002E24F4D06411DDB9F12B0F08D092
:10106000B9F12D0F0BD102E0404615B03AE744F438
:101070008064B96912986D1C8847761E81466005A8
:1010800004A901D52D2000E02B20002E01F1010B39
:101090000DF130088DF810003FDDB9F1690F08D06F
:1010A000B9F1490F05D0B9F16E0F02D0B9F14E0F69
:1010B0001CD13B4601A8009580E85002DDE91212E0
:1010C0006FF0020008F0A0FBC11CCED10EE0B969A0
:1010D00012986D1C884781461398761E44F400745C
:1010E00005600F98401C002E0F9016DDB9F1300FEF
:1010F000EDD0B9F1780F02D0B9F1580F0DD10F989A
:1011000001280AD13B46CDE90054DDE91212001F47
:10111000029608F077FBC11CA7D1109989453ED1F2
:1011200044F0800406E01399681CAAF1010A44F413
:1011300000740860B9696D1C1298761E88473028C3
:101140008146F0D02BE01099894505D1200603D4C3
:10115000761E44F0800418E0484606F083FB08B38E
:10116000761E0DF123018B4544F4007408D2A9F1D9
:1011700030000BF8010B200607D5AAF1010003E0AF
:10118000200602D40AF101008246A00502D5139977
:10119000681C0860B96912986D1C88478146002E4A
:1011A000D1DC53E0002E51DDB9F1650F02D0B9F169
:1011B000450F4BD1A00549D5B9696D1C1298761E13
:1011C00024F440748847002E81460CDD2B2804D07F
:1011D000B9F12D0F07D144F48074B96912986D1CD0
:1011E0008847761E8146E00501D52D2100E02B21A0
:1011F00008F8011BCDF8008021E0761E0DF13901C1
:10120000884544F400740CD2A9F1300010F0FF00BE
:1012100088F8000002D10099884509D908F1010831
:1012200006E0E00501D5244801E042F20F70824655
:10123000B96912986D1C8847814613980560002E85
:1012400004DD484606F00EFB0028D6D1F969129855
:101250008847FF2053468BF8000088F800000020E4
:101260000A900B9004AA0CA90AA8FFF7D5FDA005C7
:1012700002D46FF00100F8E614F0240F0AD0E00762
:1012800014D13868DDE90A12031D3B600068C0E92B
:1012900000120BE00AA9684606F07EFAE00705D1C5
:1012A0003868009A011D3960006802602846DCE653
:1012B000289400001E930000F1D8FFFF10B50446EB
:1012C000AFF300802046BDE81040FEF7D9BF000014
:1012D0004FF0013C50F8042B51F8043B9A4221D1C5
:1012E000A2EB0C03934313EACC1317D150F8042B51
:1012F00051F8043B9A4215D1A2EB0C03934313EA35
:10130000CC130BD150F8042B51F8043B9A4209D16D
:10131000A2EB0C03934313EACC13DBD04FF0000095
:10132000704700BFD01A01BAB1FA81F101F018017B
:1013300022FA01F0CB40C1F12001DBB2C0B2C01AE9
:101340002CFA01F3D11A914311EAC311E6D1704787
:1013500001491820ABBEFEE72600020070470000DE
:101360002DE9FF4F1F464FF03C0987B04FF0004278
:10137000DDE9141001F10108DDF858A002EA40503F
:101380000390002005908346054604460490B96901
:10139000461E08988847AAF1010A0290BAF1000F88
:1013A0003BDD02982E2815D0102100F016FA0028F7
:1013B0002EDB4FF0010B0599014317D0B9F1000F57
:1013C0000BDB4A46C11700F0F5F905430C43A9F1C0
:1013D000040905E0012004900BE008B145F0010587
:1013E00001200590049820B9361D02E0049800B150
:1013F000361FB969089808F101088847BBF1000F4A
:10140000AAF1010A0290C9D00999C1F80080C5E784
:101410000298702808D0502806D0F96908988847A3
:10142000BBF1000F14D04FE0002002900120BBF16F
:10143000000F049009D0B969089808F1010888479D
:10144000AAF10109B9F1000F07DCF969089888478A
:101450006FF001000BB0BDE8F08F2B2804D02D28D1
:101460000CD14FF0FF300490B969089808F10108D9
:101470008847A9F10109B9F1000FE6DD411CE4D06C
:101480000A2100F0AAF90028DFDB029908F101081F
:1014900001EB810100EB41000290B969089888478F
:1014A0000A2100F09AF9099AA9F10109B9F1000F8E
:1014B000C2F8008001DD0028E7DAF969089888475A
:1014C0000499029800FB016655EA040004D004F078
:1014D0004041090002D006E0039898E0A40044EAE5
:1014E0009574AD00B61E04F00041080002D16D19DC
:1014F0006441761E159810F0240F03D04FF00B09AD
:101500005C4803E04FF028096FF07D0082465645A5
:1015100007DAAAEB06018944B9F1410F01DD4FF06A
:10152000410901200021A9F1010200F043F902461E
:1015300028400B462140084301D0012100E0002152
:10154000501E029143F1FF3128402140084301D051
:10155000012000E000200299834651EA0B014FD0A0
:10156000002108464FF00000039900F4400039B113
:1015700000EB80004FF4400100EBD07001EA600006
:101580008015012802DD4FF0FF3000E013D0401C31
:1015900036D0029860B3BBF1000F0CD14A4601204F
:1015A000002100F007F928402140084301D0012024
:1015B00000E00020E0B101204A46002100F0FAF8E6
:1015C000034640190A4661412D1A8C4111D3B9F1E5
:1015D000400F09DD159810F0240F02D0AAF134064F
:1015E00003E0AAF1170600E0761C00254FF0004446
:1015F00006E05B1E42F1FF3220EA030521EA020405
:10160000CAF10100B04206DA1B4903980843019071
:10161000002000900EE0039AC4F3D321E80A0A43A5
:10162000164940EA44500A433146CDE90002684673
:1016300006F00EF9159810F0240F0BD01598C0077E
:1016400015D13868DDE90012031D3B600068C0E970
:1016500000120CE002A8694606F09EF81598C00733
:1016600005D13868029A011D396000680260404661
:10167000F0E6000002FCFFFF0000F07F0000F03FFA
:101680002DE9FF4F92461D4685B04FF00041DDE940
:10169000124BDDE914727F1E01EA4B50414940F0C4
:1016A000FF4940EA0108002122F020004928049166
:1016B00002D04E2828D04CE03BA0012607C88DE878
:1016C0000700A9690698641C88477F1E014606D456
:1016D0001DF8060018B121F0200181420BD0E96904
:1016E00006988847032E34D0082E32D06FF00100C0
:1016F00009B0BDE8F08F761C032E01D0082EE0D192
:10170000601CCAF80000DCE7A9690698641C8847D9
:101710007F1E2AD420F02000412826D1A9690698EE
:10172000641C88477F1E20D420F020004E281CD146
:10173000A9690698641C88477F1E48F4002849F46C
:101740008009CAF8004001D4282806D0E969069823
:1017500088475FEACB7012D022E0A9690698641C22
:1017600088477F1E01D4002803DAE9690698884774
:10177000BCE72928F1D1641CCAF80040E9E71BF056
:10178000240F07D028680499031D2B600068C0E966
:10179000001805E02868021D2A600068C0F8009063
:1017A0002046A5E70000F07F494E46494E4954596E
:1017B00000000000B2F120030AD5C2F1200301FAB3
:1017C00002F120FA03F300FA02F041EA0301704744
:1017D00000FA03F14FF0000070473A2800D2303889
:1017E00020F02002412A01D3A2F13700884201D320
:1017F0004FF0FF3070475FEA400C08BF91F0000FD8
:101800004FEA8C234FEAC12243EA51514FEA1C5060
:1018100018BF00F5F0404FEA300018BF41F000411A
:101820005FEA6C5C00F02980BCF1FF3F08BF40F02C
:1018300080407047130C06BF12044FF0100C4FF09D
:10184000000C130E04BF12020CF1080C130F04BF9E
:1018500012010CF1040C930F04BF92000CF1020C66
:10186000D30F04BF52000CF1010C11464FF00002DF
:10187000A0F11F00A0EB0C00704711F0004F08BF53
:10188000704731F000413FF4D5AF0B0C06BF09049F
:101890004FF0100C4FF0000C0B0E04BF09020CF1BE
:1018A000080C0B0F04BF09010CF1040C8B0F04BFD3
:1018B00089000CF1020CCB0F04BF49000CF1010CA4
:1018C000CCF12003A0EB0C0022FA03F302FA0CF295
:1018D00041EA030100F10100704720F07F4C80EAEB
:1018E000030023F07F47ACEB070303F57C5300F0C4
:1018F000004003F1FF032DE980494FEA154B09B47D
:101900004FEA144325EA0B4E24EA03480FF204265B
:1019100006EB132749083E785FEA320203FB0667AD
:10192000C7F5000707FB06F64FEA54374FEAD646DD
:1019300006F1020607FB066CCCF1005C4FEA1C477F
:101940002CEA074C07FB06F40CFB06F504EB1546E6
:101950004FEA961634BF00204FF000404FEAD137CF
:1019600006FB07FC4FEA1C4C0CFB0BF7D21B03FBDE
:101970000CF761EB07010CFB0EF7B0EB074072EBC5
:1019800017420CFB08F734BFA2EB0742B2EB074249
:1019900061EB17414FEA0C444FEA910706FB07FC45
:1019A0004FEA1C4C0CFB0BF7B0EBC74072EB573205
:1019B00003FB0CF734BFA2EBC742B2EBC74261EBAB
:1019C00057310CFB0EF7B0EBC70072EB57720CFBF4
:1019D00008F734BFA2EBC702B2EBC70261EB577145
:1019E000039F4FEA816141EA921104EBCC044FEA74
:1019F000D1374FEA826206FB07FC42EA90124FEAB7
:101A000080604FEA1C4C0CFB0BF7D21B03FB0CF75E
:101A100061EB07010CFB0EF7B0EB074072EB1742CE
:101A20000CFB08F734BFA2EB0742B2EB074261EBB5
:101A300017414FEA8C554FEA910704EB9C2406FBB3
:101A400007FC4FEA1C4C0CFB0BF7B0EBC74072EBEA
:101A5000573203FB0CF734BFA2EBC742B2EBC742CD
:101A600061EB57310CFB0EF7B0EBC70072EB57720E
:101A70000CFB08F734BFA2EBC702B2EBC70261EB65
:101A8000577115EB4C254FEA816141EA92114FEAFB
:101A900082624FEAD13742EA901206FB07FC44F11A
:101AA00000044FEA80604FEA1C4C0CFB0BF7D21B82
:101AB00003FB0CF761EB07010CFB0EF7B0EB0740E3
:101AC00072EB17420CFB08F734BFA2EB0742B2EBF4
:101AD000074261EB174115EB1C154FEA813141EAD2
:101AE00092414FEA823242EA90424FEA80304FEA16
:101AF0000C7644F1000448EA03434EEA0B484FF0E9
:101B0000000EB2EB080C71EB030724BF62463946A6
:101B10004EEB0E0E4FF0000B0018524149414BEBBB
:101B20000B0BB2EB080C71EB03077BF1000B24BF2E
:101B3000624639464EEB0E0E4FF0000B0018524134
:101B400049414BEB0B0BB2EB080C71EB03077BF13C
:101B5000000B24BF624639464EEB0E0E51EA0207D7
:101B600018BF46F0010616EB0E7655F1000254F14F
:101B7000000103D5BDE88901BDE80088BDE8890101
:101B8000BDE80048B619524141EB0101A3F1010340
:101B9000704780807F7E7D7C7B7A797877767675DA
:101BA0007473727171706F6E6E6D6C6C6B6A6A6952
:101BB0006868676666656464636362616160605FEC
:101BC0005F5E5E5D5D5C5C5B5B5A5A595958585765
:101BD00057565655555554545353525252515150CD
:101BE00050504F4F4F4E4E4D4D4D4C4C4C4B4B4B20
:101BF0004A4A4A4949494848484747474746464666
:101C000045454544444444434343434242424241A0
:101C10004141000046EA0646A3F570534FEA1646D6
:101C200046EA42564FEAD22242EA415210B54FEA02
:101C3000D121A3F1010300F017F820F0004000F1DA
:101C4000010C00F0004701EB00501146BCF5006F9D
:101C500040EA070000D210BD02484FF0000140EA00
:101C6000070010BD0000F07F002B26D4770021D0A4
:101C70001CB54FEA370703B44FF010004FF01001C6
:101C80004FF000000FBCBDE810400BF1010BBBF1A1
:101C9000010F08BF5FEA170722BF12F1010211F11D
:101CA00001014FF0004143F1000300F0004043EA1E
:101CB00000007047F9D35708DAE746EA064613F101
:101CC000400F4FEA16461FDD13F1200FDFBF16430A
:101CD0000A46002120335B42C8D0C3F1200746EA00
:101CE000064602FA07F74FEA164646EA0706C3F128
:101CF000200722FA03F201FA07F721FA03F14FF065
:101D0000000342EA0702B1E746EA020646EA06464F
:101D10004FEA164646EA0106BCBF46EA0646360CBE
:101D20004FF000034FF000024FF000019EE72DE955
:101D3000C048934630B491E8380007C831EA400CF7
:101D400048BF34EA430C03D5FFF7C7FDFFF78CFF0C
:101D5000F0BCBDE800882DE9C048934630B491E856
:101D6000380007C831EA400C48BF34EA430C03D5B9
:101D7000FFF7B3FDFFF74EFFF0BCBDE800882DE98B
:101D8000C048934630B491E8380007C810F0804F3F
:101D900008BF13F0804F03D100F019F8FFF764FF7C
:101DA000F0BCBDE800882DE9C048934630B491E806
:101DB000380007C810F0804F08BF13F0804F03D1E0
:101DC00000F005F8FFF726FFF0BCBDE8008820F022
:101DD0007F4780EA030023F07F4C07EB0C03A3F559
:101DE0007C5300F00040A3F1FE0392F0000F00F0DE
:101DF000B38095F0000F00F077802DE901494FEA9C
:101E000011404FEA144621EA004800FB06FC24EA90
:101E1000064708FB06F607FB08F800FB07F718EB78
:101E200006484CEB164C4FEA124B18EB07484FEAAA
:101E300015464CEB174022EA0B4E0BFB06FC25EA3D
:101E400006470EFB06F607FB0EFE0BFB07F71EEB25
:101E5000064E4CEB164C4FF000061EEB074E4CEBBB
:101E6000174B18EB0B0840F1000018EB0E0B58EB6A
:101E7000000840F100008F1A4FF000013CBFC94339
:101E8000661B14BFB5EB040C00213CBFC943F61B15
:101E90004FEA17444EEA8E0E27EA04454FEA1C47E4
:101EA00004FB07622CEA074C05FB07F70CFB05F661
:101EB00004FB0CFC16EB074642EB174216EB0C46F4
:101EC00042EB1C421BEB060658EB0202414146EA7C
:101ED0009E0601D5BDE80189B619524141EB0101C9
:101EE000A3F10103BDE801894FEA14454FEA114708
:101EF00024EA054621EA074C05FB07F406FB07F731
:101F00000CFB06F105FB0CFC11EB074144EB1744FD
:101F10004FEA124711EB0C4144EB1C4422EA074CF8
:101F200005FB07F206FB07F70CFB06F605FB0CFCAE
:101F300016EB074642EB174216EB0C4642EB1C45EC
:101F40006A1854F1000148BF7047B619524141EB7D
:101F50000101A3F10103704795F0000F37D04FEA5C
:101F600011424FEA144721EA024624EA074C02FBD9
:101F700007F106FB07F70CFB06F402FB0CFC14EB65
:101F8000074441EB17414FEA154714EB0C4441EB72
:101F90001C4125EA074C02FB07F506FB07F70CFB83
:101FA00006F602FB0CFC16EB074645EB174516EB55
:101FB0000C4645EB1C42121951F1000148BF704715
:101FC000B619524141EB0101A3F1010370474FEAF9
:101FD00014454FEA114724EA054621EA074C05FB60
:101FE00007F106FB07F70CFB06F24FF0000605FBB6
:101FF0000CFC12EB074241EB174112EB0C4251EB88
:102000001C4148BF7047921841EB0101A3F1010345
:102010007047000010B52DED048B84B09FEDF90AD8
:10202000B0EE408AF848006815286FD2DFE800F06B
:102030000B0C11191E236F7880899098DEFCFBFA37
:10204000F9F8F7F6F50089E2F0A1F24803F0DCFFB9
:1020500084E2022002F052FCECA1EE4803F0D4FF2F
:102060007CE2EAA1EB4803F0CFFF77E2E7A1E94881
:1020700003F0CAFF72E2E848D0ED590AB0EE600AF8
:1020800004F046F8E448D0ED5A0AB0EE600A04F0D5
:102090003FF8E148D0ED590AB0EE600A04F038F894
:1020A000DD4890ED2C1BB0EE410AF0EE610A51ECD8
:1020B000100B06F027FD08EE900AB0EE680A04F057
:1020C00027F8D54890ED2E1BB0EE410AF0EE610ADC
:1020D00051EC100B06F016FD08EE900AB0EE680AFF
:1020E00004F016F8CC4890ED301BB0EE410AF0EE4B
:1020F000610A51EC100B06F005FD08EE900AB0EEF7
:10210000680A04F005F803F0AFFE27E221E26FF061
:10211000020002F0F3FBBDA1BE4803F075FF1DE213
:10212000BAA1BC4803F070FF012002F0E7FB15E202
:102130006FF0010002F0E2FBB4A1B64803F064FFC7
:102140000CE2B2A1B34803F05FFF03F0DFFC05E24D
:10215000AEA1B04803F058FF042002F0CFFBFDE130
:10216000AAA1AC4803F050FFAC48007A8DF80400F7
:10217000AA48407A8DF80500A848807A8DF80600B4
:10218000A648C07A8DF80700A4488079612824D039
:10219000782802D0792827D10FE09DED010A10EEB2
:1021A000101A084607F01EFA41EC190BB0EE490A66
:1021B000F0EE690A02F04EFC16E09DED010A10EE09
:1021C000101A084607F00EFA41EC190BB0EE490A56
:1021D000F0EE690A02F044FC06E0DDED010AB0EE23
:1021E000600A02F063FB00BF00BFB7E18B480A3012
:1021F00004F006FDB0EE409AF0EE609A51EC190B37
:1022000006F080FC08EE100A8448407A78280CD04A
:1022100079280FD07A2817D111E08BE180E176E19F
:102220006DE1CFE09AE05BE021E07D48406880ED21
:10223000008A09E07A48406880ED018A04E0784825
:10224000406880ED028A00BF00BF76A1714803F0AC
:10225000DBFE01F0BDF9044640F2051101F024F95E
:1022600073A16C4803F0D0FE01F038FD76E16B48B5
:102270000A3004F0C5FCB0EE409AF0EE609A51ECE2
:10228000190B06F03FFC08EE100A6448407A7828E3
:1022900004D0792807D07A280FD109E060488068F7
:1022A00080ED008A09E05E48806880ED018A04E0E4
:1022B0005B48806880ED028A00BF00BF59A1554885
:1022C00003F0A2FE01F084F9044640F2051101F08A
:1022D000EBF857A14F4803F097FE01F049FD3DE1AF
:1022E0004AA14C4803F090FE4C48C07931280DD1EA
:1022F00001214B48C26849480079313800EB400061
:102300000244464880793138115415E04348C07979
:1023100030280DD100214248C26840480079313848
:1023200000EB400002443D4880793138115403E00D
:1023300044A1384803F068FE48A1364803F064FE23
:1023400001F046F9044640F2051101F0ADF838A15C
:10235000304803F059FE01F091FCFFE02BA12D481D
:1023600003F052FE2D484079312808D101202C4934
:1023700049692A4A1279114401F8310C10E02748C2
:102380004079302808D1002025494969234A12792B
:10239000114401F8310C03E033A11E4803F034FE70
:1023A00020A11C4803F030FE01F012F9044640F26F
:1023B000051101F079F81EA1164803F025FE01F081
:1023C000B5FCCBE011A1134803F01EFE07247FE00B
:1023D0001248005D31285BD10121114802690F4884
:1023E0000079313800EB400000EB800002440B48DC
:1023F0008079313800EB80001044204400F8071C3D
:1024000065E0000000000000982B00204F4B0D0AF3
:102410000000000000100140B82B0020C00A01207D
:10242000D40A012077726974696E670D0A00000092
:1024300077726974652066696E69736865640D0AF0
:10244000000000006D6F646520636F6D6D616E64E8
:10245000206572726F720D0A000000007772697455
:10246000696E67200D0A000028666C61736844611C
:1024700074612E7363616C654D6F64652920636FB1
:102480006D6D616E64206572726F720D0A000000DE
:102490003748005D302814D100213648026934489D
:1024A0000079313800EB400000EB800002443048F6
:1024B0008079313800EB80001044204400F8071C7C
:1024C00005E0A4F10A022CA1304803F09DFD641C34
:1024D0000C2CFFF67DAFAFF2B4012C4803F094FD55
:1024E00001F076F8044640F2051100F0DDFFAFF28E
:1024F000C001264803F088FD01F062FC2EE0AFF237
:10250000F401224803F080FD02F04CFA26E0AFF21D
:1025100004111E4803F078FD082002F0EFF91DE0D9
:10252000AFF21811194803F06FFD6FF0080002F0C8
:10253000E5F913E06FF0080002F0E0F9144804E058
:10254000642102AA42F82010401C12498842F7DB9D
:1025500004E011A10D4803F057FD00BF00BF0020AB
:102560000F49086005F086F904B0BDEC048B10BD7E
:10257000C00A0120D40A012073656C6563742025AC
:1025800064206572726F720D0A0000000010014035
:1025900080380100A08601006572726F720D0A001A
:1025A000982B002010B587480068042809D1042220
:1025B00085A18748FDF7AAFF18B902208549086060
:1025C000FFE0804800680A2809D10A2282A18048D9
:1025D000FDF79CFF18B902207E490860F1E07948B8
:1025E00000680D2809D10D227EA17948FDF78EFFE4
:1025F00018B9032077490860E3E0724800680E28A4
:1026000009D10E227BA17248FDF780FF18B9042082
:1026100070490860D5E06B4800680E2809D10E2289
:1026200078A16B48FDF772FF18B905206949086069
:10263000C7E064480068092809D1092275A16448E7
:10264000FDF764FF18B9062062490860B9E05D48EB
:1026500000680A2809D10A2271A15D48FDF756FFDA
:1026600018B907205B490860ABE0564800680828A5
:1026700009D108226DA15648FDF748FF18B9082076
:10268000544908609DE04F4800680A2809D10A2291
:1026900069A14F48FDF73AFF18B909204D49086074
:1026A0008FE0484800680B2809D10B2265A14848F3
:1026B000FDF72CFF18B90A204649086081E041481F
:1026C00000680E2809D1062261A14148FDF71EFFCE
:1026D00018B90B203F49086073E03A4800680A289F
:1026E00009DB09225CA13A48FDF710FF18B90C205C
:1026F0003849086065E0334800680A2809DB092288
:1027000058A13348FDF702FF18B90D203149086080
:1027100057E02C4800680A2809D1042254A12C480B
:10272000FDF7F4FE18B90E202A49086049E0254853
:102730000068082809D104224DA12548FDF7E6FECE
:1027400018B90F20234908603BE01E4800680E2896
:1027500009D1042246A11E48FDF7D8FE18B9102061
:102760001C4908602DE0174800680C2809D10C228C
:1027700041A11748FDF7CAFE18B911201549086094
:102780001FE010480068092809D109223EA110481D
:10279000FDF7BCFE18B912200E49086011E0094887
:1027A00000680B2809D10B223AA10948FDF7AEFEBB
:1027B00018B913200749086003E040F29A20054940
:1027C000086010BD942B002041540D0A0000000049
:1027D000C00A0120982B002041542B626567696E66
:1027E0000D0A000041542B73746F7053656E640DB5
:1027F0000A00000041542B626567696E53656E6480
:102800000D0A000041542B7072696E74446174614A
:102810000D0A000041542B73746F700D0A00000004
:1028200041542B72657365740D0A000041542B737B
:1028300065740D0A0000000041542B7072696E74BB
:102840000D0A000041542B7374617469630D0A0012
:1028500041542B736574000041542B7365746D698A
:102860006E00000041542B736574766172000000A5
:1028700041542B470000000041542B64656661758C
:102880006C740D0A0000000041542B686561740DE2
:102890000A00000041542B6E6F686561740D0A00D8
:1028A00000BFFEE71CB50121084601F0C9FA01216D
:1028B000022001F0C5FA0121042001F0C1FA06202E
:1028C000009001208DF8040000208DF80600012002
:1028D0008DF8070003208DF805006946134800F0C5
:1028E00001FE402000906946114800F0FBFD4FF4C6
:1028F0001040009069460F4800F0F4FD02210B489B
:1029000000F05DFE0421094800F059FE402108480E
:1029100000F055FE4FF48051064800F050FE4FF491
:102920000041044800F04BFE1CBD000000000240C6
:1029300000080240000402402DE9F0412DED048B17
:1029400006460F46B0480068401CAF4908600024A6
:10295000002500BFE1E00025DBE0C4EB041000EB44
:102960008000AA4901EB401005EBC50101EB051100
:1029700000EB411090ED000ADFEDA50A80EE201A71
:1029800004EB440007EB800000EB850090ED000AAB
:1029900030EE410A04EB440007EB800000EB8500B9
:1029A00080ED000AC4EB041202EB8202974B03EBAA
:1029B000421205EBC50303EB051302EB4312111D95
:1029C000C4EB041202EB8202904B03EB421205EBC4
:1029D000C50303EB051302EB43104FF44772FDF7F9
:1029E000E0FD04EB44018B4800EBC10000EBC500A7
:1029F00090ED001BB0EE410AF0EE610A51EC100BB5
:102A000006F080F8C4EB041101EB81017F4A02EB70
:102A1000411105EBC50202EB051201EB4211C1F8B1
:102A20001C03C4EB041202EB82027B4B03EB421249
:102A300005EBC50303EB051302EB4312111DC4EBB9
:102A4000041202EB8202744B03EB421205EBC50346
:102A500003EB051302EB43104FF44772FDF7A1FDA2
:102A6000C4EB041000EB8000684901EB401005EB5B
:102A7000C50101EB051100EB4110D0EDC70A9FED38
:102A8000641A80EE810A04EB440007EB800000EB3F
:102A90008500D0ED000A30EE200A04EB440007EB7D
:102AA000800000EB850080ED000A04EB440007EB9A
:102AB000800000EB850090ED000A10EE101A084629
:102AC00006F090FD41EC190B04EB4401514800EB7A
:102AD000C10000EBC50090ED001BB0EE410AF0EE26
:102AE000610A53EC102B51EC190B06F085FC06F033
:102AF00009F8C4EB041101EB8101474A02EB4111D3
:102B000005EBC50202EB051201EB4211C1F81C03F3
:102B10006D1C032DFFF621AF641C032CFFF61BAFC9
:102B200039480068B0F5C87F04DA0020BDEC048B9A
:102B3000BDE8F0814FF4C8703349086000245EE0BE
:102B4000002559E09FED350A04EB440006EB8000B8
:102B500000EB850080ED000A002034E004EB440126
:102B600006EB810101EB850191ED000AC4EB041134
:102B700001EB8101284A02EB411105EBC50202EB92
:102B8000051201EB421101EB8001D1ED000AC4EB0B
:102B9000041101EB8101204A02EB411105EBC50252
:102BA00002EB051201EB421101EB800191ED001ADD
:102BB00000EE810A04EB440106EB810101EB850183
:102BC00081ED000A401CC828C8DB04EB440006EB7A
:102BD000800000EB8500D0ED000A9FED0D1A80EE1D
:102BE000810AF1EEC00A04EB440006EB800000EB22
:102BF0008500C0ED000A6D1C032DA3DB641C032CB3
:102C00009EDB012092E7000018000020444A0020CB
:102C100000004843D82B0020242E00200000000094
:102C200070B52DED048B05460E4672480068401CB9
:102C300070490860002400BF8DE004EBC40000EB85
:102C400004106D4901EB4010D0ED000A9FED6B1AA6
:102C500080EE810A06EB8400D0ED000A30EEC00A57
:102C600006EB840080ED000A04EBC40202EB0412C0
:102C70000B4603EB4212111D04EBC40202EB0412DB
:102C800003EB42104FF44772FDF78BFC5C4800EBFE
:102C9000C40090ED001BB0EE410AF0EE610A51EC69
:102CA000100B05F02FFF04EBC40101EB0411524A95
:102CB00002EB4111C1F81C0304EBC40202EB041245
:102CC000504B03EB4212111D04EBC40202EB041241
:102CD00003EB42104FF44772FDF763FC04EBC400B2
:102CE00000EB0410444901EB4010D0EDC70A9FED02
:102CF000431A80EE810A06EB8400D0ED000A30EE24
:102D0000200A06EB840080ED000A06EB840090EDBB
:102D1000000A10EE101A084606F064FC41EC190B8C
:102D2000374800EBC40090ED001BB0EE410AF0EE16
:102D3000610A53EC102B51EC190B06F05DFB05F00A
:102D4000E1FE04EBC40101EB04112E4A02EB411138
:102D5000C1F81C03641C032CFFF66FAF2548006804
:102D6000B0F5C87F03DA0020BDEC048B70BD4FF4D2
:102D7000C87020490860002438E09FED230A05EB65
:102D8000840080ED000A00201FE004EBC40101EB89
:102D900004111C4A02EB411101EB8001D1ED000A44
:102DA00004EBC40101EB041102EB411101EB8001C2
:102DB00091ED001A05EB840191ED000A00EE810A05
:102DC00005EB840181ED000A401CC828DDDB05EB22
:102DD0008400D0ED000A9FED091A80EE810AF1EE21
:102DE000C00A05EB8400C0ED000A641C032CC4DBA0
:102DF0000120B9E7602A002070FA00200000484353
:102E0000802C002010F100200000000010B588B0D8
:102E10000D208DF804000A208DF805008DF81E00A5
:102E20000D208DF81F002C4890ED701BB0EE410A6C
:102E3000F0EE610A51EC100B05F064FE0090009872
:102E4000CDF80600254890ED000A8DED000A0098A7
:102E5000CDF80A00214890ED010A8DED000A009896
:102E6000CDF80E001C4890ED721BB0EE410AF0EE5A
:102E7000610A51EC100B05F045FE00900098CDF86A
:102E80001200154890ED741BB0EE410AF0EE610A95
:102E900051EC100B05F036FE00900098CDF81600AE
:102EA0000D4890ED361BB0EE410AF0EE610A51EC90
:102EB000100B05F027FE00900098CDF81A000024B2
:102EC00005E001A8015D064803F049F9641C1C2CCB
:102ED000F7DB08B010BD0000B82B0020542B0020F9
:102EE00000100140704700B5034604E04FF47A70CB
:102EF00000F004F85B1E002BF8D100BDA82141436F
:102F00004FF0E02251610521116100BF4FF0E02137
:102F1000096901F480310029F8D004214FF0E02242
:102F20001161704770B52DED048B04460D4694ED8C
:102F3000000AF0EE000A80EE201AB0EE418AB0EEF0
:102F4000480AFDF7C3F9F0EE408A94ED010AF0EE6D
:102F5000000A80EE201AB0EE418AB0EE480AFDF772
:102F6000B5F968EE808A94ED020AF0EE000A80EE70
:102F7000201AB0EE418AB0EE480AFDF7A7F968EED4
:102F8000808A94ED000AF0EE000A80EE201AB0EE7E
:102F9000418AB0EE480AFDF705FAB0EE409A94ED8A
:102FA000010AF0EE000A80EE201AB0EE418AB0EE7F
:102FB000480AFDF7F7F929EE009A94ED020AF0EEBF
:102FC000000A80EE201AB0EE418AB0EE480AFDF702
:102FD000E9F949EE008A18EE906A304606F002FBE5
:102FE000C5E9000194ED000AF0EE000A80EE201A17
:102FF000B0EE418AB0EE480AFDF7D4F9F0EE408A0F
:1030000094ED010AF0EE000A80EE201AB0EE418A3B
:10301000B0EE480AFDF75AF968EE808A94ED020A8C
:10302000F0EE000A80EE201AB0EE418AB0EE480AB7
:10303000FDF74CF968EE808A94ED000AF0EE000A84
:1030400080EE201AB0EE418AB0EE480AFDF73EF954
:10305000B0EE409A94ED010AF0EE000A80EE201ADC
:10306000B0EE418AB0EE480AFDF79CF929EE009ACD
:1030700094ED020AF0EE000A80EE201AB0EE418ACA
:10308000B0EE480AFDF78EF949EE408A18EE906AD4
:10309000304606F0A7FAC5E9020194ED000AF0EE09
:1030A000000A80EE201AB0EE418AB0EE480AFDF721
:1030B0000DF9F0EE408A94ED010AF0EE000A80EE80
:1030C000201AB0EE418AB0EE480AFDF76BF968EEBF
:1030D000808A94ED020AF0EE000A80EE201AB0EE2B
:1030E000418AB0EE480AFDF7F1F868EE808A94ED67
:1030F000000AF0EE000A80EE201AB0EE418AB0EE2F
:10310000480AFDF74FF9B0EE409A94ED010AF0EE4F
:10311000000A80EE201AB0EE418AB0EE480AFDF7B0
:10312000D5F829EE009A94ED020AF0EE000A80EE3E
:10313000201AB0EE418AB0EE480AFDF733F949EEA5
:10314000008A18EE906A304606F04CFAC5E9040190
:1031500094ED000AF0EE000A80EE201AB0EE418AEB
:10316000B0EE480AFDF7B2F8F1EE408A94ED010A9C
:10317000F0EE000A80EE201AB0EE418AB0EE480A66
:10318000FDF7A4F868EE808A94ED020AF0EE000ADA
:1031900080EE201AB0EE418AB0EE480AFDF702F93F
:1031A00068EE808A94ED000AF0EE000A80EE201AA4
:1031B000B0EE418AB0EE480AFDF7F4F8B0EE409A5E
:1031C00094ED010AF0EE000A80EE201AB0EE418A7A
:1031D000B0EE480AFDF7E6F829EE009A94ED020AEF
:1031E000F0EE000A80EE201AB0EE418AB0EE480AF6
:1031F000FDF76CF849EE408A18EE906A304606F00A
:10320000F1F9C5E90601BDEC048B70BD0149086008
:10321000704700000C3C024030B10749096841F496
:103220008061054A116005E00349096821F4806165
:10323000014A116070470000003C024070B504462E
:103240000A460026082502B909E0012A01D1160222
:1032500005E0022A01D1160201E04FF4407600F0A9
:10326000BFF80546082D28D11548006820F44070A5
:103270001349086008460068304308600846006843
:1032800020F0F80008600846006844F00201084396
:103290000B4908600846006840F48030086000F080
:1032A0009FF805460648006820F0020004490860BF
:1032B0000846006820F0F8000860284670BD00004D
:1032C000103C024008201049096801F48031B1F532
:1032D000803F01D1012015E00B49096801F0100180
:1032E00009B105200EE00849096801F0EF0109B1B4
:1032F000062007E00449096801F0020109B107202E
:1033000000E00820704700000C3C024003480068C1
:1033100040F000400149086070470000103C024046
:1033200030B502460C46082500F05AF80546082D2F
:1033300017D10D48006820F440700B49086008461A
:10334000006808600846006840F0010008601470DA
:1033500000F046F805460448006820F001000249E4
:103360000860284630BD0000103C024030B50246DF
:103370000C46082500F034F80546082D19D10E48F2
:10338000006820F440700C4908600846006840F46A
:10339000007008600846006840F001000860146092
:1033A00000F01EF805460448006820F001000249BC
:1033B0000860284630BD0000103C02400548006807
:1033C00000F0004028B1044802490C390860034865
:1033D00008607047103C024023016745AB89EFCD80
:1033E00008B508200090FFF76DFF009002E0FFF79E
:1033F00069FF00909DF800000128F8D09DF80000BA
:1034000008BD000000B58EB000201249C1F8E801E7
:103410000846D0F8E811684601F0BCF914E00D4800
:10342000D0F8E801401C0B49C1F8E8010846D0F883
:10343000E811684601F0AEF90648D0F8E801B0F5A9
:10344000FA7F01D30EB000BD0098401C0028E6D1E1
:1034500000BFF7E7B82B00207047000010B540F21E
:103460000511094800F014F8074808490860B4300D
:1034700048600C3088600C30C860093008612D301D
:103480004861FFF7E9FF10BDEC0A0120D40A0120D2
:103490000246002003E0034BC35C1354401C8842E7
:1034A000F9D370470000040870B505460E46FFF7D3
:1034B00085FFF320FFF7AAFE02213020FFF7BEFEB2
:1034C000FFF78EFF002405E0295D054AA018FFF7ED
:1034D00027FF641CB442F7D3FFF718FF70BD00004C
:1034E00000000408F0B50A4600210023002400BFB4
:1034F0003DE0012505FA01F3156805EA03049C4245
:1035000034D105684F000326BE40B54305601579E8
:103510004E00B5400668354305601579012D02D08F
:103520001579022D16D185684F000326BE40B5439C
:10353000856055794E00B54086683543856045689D
:1035400001268E40B5434560456896798E40B6B2F7
:1035500035434560C5684F000326BE40B543C5608E
:10356000D5794E00B540C6683543C560491C102961
:10357000BFD3F0BDF0B5002300244D07ED0E02FAD5
:1035800005F3CE1000F1200555F826504E07F70E32
:103590000F26BE40B543CF1000F1200646F8275055
:1035A000CE1000F1200555F8265045EA0304CE1050
:1035B00000F1200545F82640F0BD418370470183A6
:1035C0007047000001480078704700009C2B0020E5
:1035D00000487047EC0A012000B5F9B00D48D0F85A
:1035E000E801B0F5FA7F13D8FFF70CFF0120094975
:1035F000C1F8E4010846D0F8E8014FF4F072103148
:1036000078906846FCF7CDFF02480FC803F06AFACD
:1036100000BFFEE7B82B002030B5054627480068FC
:10362000401C26490860002412E005EB8400D0ED20
:10363000000AB0EE600A204600F018FADFED200A1A
:1036400080EE201A1F4800EB840080ED001A641CF5
:10365000032CEADB1948006865282CD1002024E0FF
:10366000184901EB800191ED000ADFED170A30EEF9
:10367000200A14490C3101EB800181ED000A114947
:103680000C3101EB800191ED000ADFED100AB4EE80
:10369000E00AF1EE10FA07DD9FED0C0A09490C3142
:1036A00001EB800181ED000A401C0328D8DB0120DA
:1036B0000749086030BD0020FCE700006C2B0020AB
:1036C0000000C8421C2D0020CDCC4C3D3D0AD73E09
:1036D000682B0020F0B589B005460024202256A1B1
:1036E00001A8FCF75EFF6420FFF7FDFB25B1012D6B
:1036F0000BD0022D1BD111E080206B2302225649F2
:103700000090564800F094FF11E080206B230422C3
:1037100051490090514800F08BFF08E080206B2356
:1037200040224F4900904D4800F082FF00BF00BF8B
:103730000620FFF7D8FB002479E00026FF2700BF12
:10374000701CC6B247484069405D10B1012808D1DD
:1037500003E000208DF8090003E008208DF809003F
:1037600000BF00BF25B1012D1DD0022D51D135E084
:10377000012000EB440001A9085C009001A810F8AA
:10378000143002223449354800F052FF3046FFF72A
:10379000AAFB01A810F8143002222F492F4800F08C
:1037A00079FE074635E0012000EB440001A9085CE2
:1037B000009001A810F8143004222749274800F08F
:1037C00037FF3046FFF78FFB01A810F814300422B2
:1037D0002149224800F05EFE07461AE0012000EB76
:1037E000440001A9085C009001A810F814304022A0
:1037F0001B491A4800F01CFF3046FFF774FB01A874
:1038000010F8143040221649144800F043FE0746D1
:1038100000BF00BF052E00DD06E0012000EB4400E4
:1038200001A9085CB8428BD100BF601CC4B20F2C48
:1038300083DB09B0F0BD00006B006C001B001A00B8
:1038400019071C001D0668006A101E0023001F00D7
:1038500037003800690000000000024000300140DD
:1038600000080240D40A012070B52DED068B0446F5
:103870000D4624B1012C20D0022C59D13BE0284622
:1038800005F01FFC41EC1A0B9FED2B0B53EC102B9A
:1038900005F026FA41EC190B9FED290B53EC102B88
:1038A00005F076FC41EC180B05F0DEFB06463146D0
:1038B0004FF0804001F08FFF3AE0284605F001FC10
:1038C00041EC1A0B9FED1C0B53EC102B05F008FA82
:1038D00041EC190B9FED1A0B53EC102B05F058FC23
:1038E00041EC180B05F0C0FB064631464FF0804016
:1038F00001F073FF1CE0284605F0E3FB41EC1A0BD6
:103900009FED0D0B53EC102B05F0EAF941EC190B70
:103910009FED0B0B53EC102B05F03AFC41EC180B10
:1039200005F0A2FB06463146074801F052FF00BFF2
:1039300000BFBDEC068B70BD0000000000005940C8
:103940000000000000408F400004004000B587B038
:103950000121080300F0A4FA0121084600F070FAE2
:10396000052211462348FFF705FE052206212148BE
:10397000FFF700FE052207211E48FFF7FBFDE020B0
:10398000059002208DF8180000208DF81A00012003
:103990008DF81B0003208DF8190005A91548FFF7C5
:1039A000A1FD154800F0CAFC0020ADF800004FF45E
:1039B0008270ADF802000020ADF80400ADF80600FA
:1039C000ADF808004FF40070ADF80A002020ADF803
:1039D0000C000020ADF80E000720ADF8100069467D
:1039E000054800F0E5FC0121034800F09BFC07B00E
:1039F00000BD000000000240003001404CF6CC4009
:103A000001490860704700000030004010B500F028
:103A100013F810BD70B505460C4645F2555000F040
:103A20001FF8284600F010F8204600F013F800F0C8
:103A300003F8FFF7E3FF70BD4AF6AA2001490860CA
:103A400070470000003000400149486070470000A6
:103A5000003000400149886070470000003000409D
:103A60000149086070470000003000400EB5002199
:103A7000009101910291544901EB8001D1ED000ABE
:103A8000F4EEC00AF1EE10FA0FDD4F4901EB8001B0
:103A9000D1ED000A70EEC00A694601EB8001C1ED6C
:103AA000000A0021494A11540EE0474901EB800108
:103AB000D1ED000A70EE600A694601EB8001C1EDAC
:103AC000000A0121414A11544049095C404A125CF4
:103AD000514059BB3F49095C891C3E4A1154694613
:103AE00001EB8001D1ED000A9FED3B1AF4EEC10A13
:103AF000F1EE10FA03DB1146095C091D115435493A
:103B0000095C642902DB6421324A11543149095CA1
:103B100000EE901AF8EE600A9FED301A60EE810A0E
:103B20002F4901EB8001C1ED000A09E0DFED2B0A0E
:103B30002B4901EB8001C1ED000A0021254A1154F7
:103B40002249095CD9B9264901EB8001D1ED000A6F
:103B50001D4901EB800191ED001A31EE401A60EE33
:103B6000810A9FED201AC0EE811A174901EB8001EE
:103B7000D1ED000A70EEE10AB0EE600A1AE01849D1
:103B800001EB8001D1ED000A0F4901EB800191EDBD
:103B9000001A30EE411A60EE810A9FED121AC0EE53
:103BA000811A094901EB8001D1ED000A71EEA00AEA
:103BB000B0EE600A044901EB800181ED000A03497F
:103BC000095C034A11540EBDB40A01208B2B00205E
:103BD000882B00208E2B00200AD7233CCDCC4C3ED6
:103BE000A80A01200000804300BFFEE700BFFEE7F7
:103BF00070B5002100230F22C4781CB3174C246831
:103C000004F4E064C4F5E064C4F30721C1F10404E2
:103C1000E3B20A4144789C40E1B2847814402143E5
:103C20000C07210E0E4C05786155047804F01F0531
:103C30000124AC4005786D11AD0005F1E025C5F813
:103C4000004109E0047804F01F050124AC40054D53
:103C50000678761145F8264070BD00000CED00E0B6
:103C600000E400E080E100E002490143024A116003
:103C7000704700000000FA050CED00E038B502F0D6
:103C8000F3F8002512E000240DE00A48C06805EBB7
:103C900045010844005D631C6A1C07A100900E48A2
:103CA00002F0B2F9641C032CEFDB6D1C032DEADB80
:103CB00038BD0000D40A01206779726F2025642086
:103CC000617869732025642063686172744D6F6444
:103CD000653A2025640D0A000010014010B502F07D
:103CE000C3F8002411E0621C09A10E4802F08CF90F
:103CF0000D48406800EB8400D0ED000AB0EE600A89
:103D000002F006FA02F0B0F8641C032CEBDB10BDE5
:103D100061786973202564206D696E56616C7565E4
:103D20003A20000000100140D40A012010B502F032
:103D30009BF8002408E006484069035D621C05A169
:103D40000A4802F061F9641C032CF4DB10BD00008A
:103D5000D40A01206779726F202564207363616C37
:103D6000654D6F64653A2025640D0A00001001401E
:103D700010B502F079F8002411E0621C09A10E4888
:103D800002F042F90D48806800EB8400D0ED000A93
:103D9000B0EE600A02F0BCF902F066F8641C032C75
:103DA000EBDB10BD61786973202564207661725861
:103DB000595A3A200000000000100140D40A0120A6
:103DC00070B5002425E0002520E002F04DF86B1CC2
:103DD000621C11A1184802F017F9002613E01748D9
:103DE000006904EB440101EB8101084405EB850106
:103DF0000844805D00EE900AF8EE600AB0EE600ABA
:103E000002F086F9761C052EE9DB6D1C032DDCDB48
:103E1000641C032CD7DB70BD6779726F202564208A
:103E20006178697320256420636861727453656CDE
:103E30006563743A0D0A000000100140D40A0120A5
:103E400029B1064A12680243044B1A6004E0034A8F
:103E500012688243014B1A607047000030380240FC
:103E600029B1064A12680243044B1A6004E0034A6F
:103E700012688243014B1A607047000040380240CC
:103E800029B1064A12680243044B1A6004E0034A4F
:103E900012688243014B1A607047000020380240CC
:103EA00029B1064A12680243044B1A6004E0034A2F
:103EB00012688243014B1A60704700004438024088
:103EC00029B1064A12680243044B1A6004E0034A0F
:103ED00012688243014B1A60704700002438024088
:103EE000F0B5002100220024022500260223324FD3
:103EF0003F6807F00C0121B1042905D0082937D10A
:103F000005E02E4F076036E02D4F076033E02A4F63
:103F10003F1F3F68C7F38056274F3F1F3F6807F09A
:103F20003F036EB1264FB7FBF3F7DFF88CC0ACF15F
:103F3000040CDCF800C0CCF3881C07FB0CF40CE08C
:103F40001E4FB7FBF3F7DFF870C0ACF1040CDCF8E0
:103F500000C0CCF3881C07FB0CF4174F3F1F3F68D1
:103F6000C7F301477F1C7D00B4FBF5F7076002E053
:103F7000124F076000BF00BF0F4F3F6807F0F0010E
:103F80000909104F7A5C0768D74047600A4F3F68BD
:103F900007F4E051890A0B4F7A5C4768D740876085
:103FA000054F3F6807F46041490B064F7A5C47684C
:103FB000D740C760F0BD0000083802400024F4007C
:103FC00000127A00A82B002010B52DED088BA24816
:103FD00090ED2C0B80ED320B90ED2E0B80ED340B21
:103FE00090ED300B80ED360BD0F8EC0118B140F6B7
:103FF000B9309A490860FFF7E5FA00F00200E0B333
:104000009648006840F6B831884249DD924890ED04
:10401000382BB0EE420AF0EE620A90ED322BB0EE91
:10402000421AF0EE621A53EC102B51EC110B05F012
:10403000EFF9894AC83203C2874890ED3A2BB0EEB7
:10404000420AF0EE620A90ED342BB0EE421AF0EE26
:10405000621A53EC102B51EC110B05F0D9F97E4A82
:10406000C832C2E902017C4890ED3C2BB0EE420A16
:10407000F0EE620A90ED362B00E011E0B0EE421A4D
:10408000F0EE621A53EC102B51EC110B05F0C0F955
:10409000714AC832C2E904010120BDEC088B10BD91
:1040A0006F497048FEF7BCFD08B90020F5E7002411
:1040B00042E06C4800EB840090ED000AF0EE080A44
:1040C00020EE200A10EE101A084605F08BFA41EC9B
:1040D000180B634800EB840090ED000A10EE101AF4
:1040E000084605F07FFA41EC1B0B5B48C83000EB3B
:1040F000C40090ED001BB0EE410AF0EE610A53ECF3
:10410000102B51EC1B0B05F077F941EC1A0BB0EEBC
:104110004A0AF0EE6A0A02F0F3FDB0EE409AF0EEC1
:10412000609A53EC182B51EC190B05F02FF901D2C2
:104130000020B2E7601CC4B2032CBADB4748006819
:10414000401C46490860002481E0AF206043464996
:1041500001EB801090ED001BB0EE410AF0EE610A19
:104160009FED421B53EC112B51EC100B04F0B8FDEA
:104170009FED400B53EC102B04F0B2FD41EC180BFB
:104180003548E03000EBC40090ED001BB0EE410A72
:10419000F0EE610A53EC102B51EC180B05F02CF9E2
:1041A0002D4AE03202EBC40203C2AF2262432E4B1F
:1041B00003EB821202F10801AF22624303EB82108B
:1041C00042F6B832FCF7EDF92348C83000EBC400E2
:1041D00090ED000BAF206043234901EB801000F508
:1041E000205080EDEE0BAF20604301EB801000F516
:1041F000205090EDEE1BB0EE410AF0EE610A9FED0B
:104200001B1B53EC112B51EC100B04F069FD9FEDBF
:10421000190B53EC102B04F063FD41EC180B0E4806
:10422000E03000EBC40090ED001BB0EE410AF0EE70
:10423000610A53EC102B51EC180B04F095FC0A4664
:1042400001460548E03000EBC40006C0641C032CA6
:10425000FFF67BAF002020E7B82B00205C2A00206F
:1042600004F10020F8F00020B86D002000000000EC
:1042700000001C40000000000000694000B587B04D
:1042800001218803FFF7ECFD01210220FFF7D8FD93
:1042900005220D212148FFF76DF905220E211F4847
:1042A000FFF768F94FF4C040059002208DF8180020
:1042B00000208DF81A0001208DF81B0003208DF8D6
:1042C000190005A91548FFF70DF9154800F036F853
:1042D0004FF48060ADF800004FF48270ADF802003A
:1042E0000020ADF80400ADF806000120ADF808008C
:1042F0004002ADF80A002820ADF80C000020ADF80F
:104300000E000720ADF810006946054800F050F88F
:104310000121034800F006F807B000BD0004024088
:104320000038004021B1028842F04002028004E0DF
:1043300002884FF6BF731A400280704710B50446DA
:104340001148844208D101218014FFF7B9FD0021F2
:10435000A014FFF7B5FD16E00C48844208D10121F6
:104360000014FFF78DFD00212014FFF789FD0AE0FE
:104370000748844207D10121C013FFF781FD0021C6
:10438000E013FFF77DFD10BD003001400038004014
:10439000003C00400246002013890B400BB1012075
:1043A00000E000207047014688897047818170478E
:1043B00010B50022028802F441520B884C88234336
:1043C0008C882343CC8823430C8923434C89234383
:1043D0008C892343CC8923431A430280838B4FF279
:1043E000FF74234083830B8A038210BD2DE9F047BD
:1043F00080460E4617461C46DDE9089A44F08004C4
:1044000001214046FFF78EFF39463046FFF7D5F8C9
:1044100000BF02214046FFF7BDFF0028F9D021462A
:104420004046FFF7C3FF00BF01214046FFF7B2FF40
:104430000028F9D04046FFF7B6FF002517E000BF7F
:1044400002214046FFF7A6FF0028F9D00021404690
:10445000FFF7ACFF00BF01214046FFF79BFF00289C
:10446000F9D04046FFF79FFF09F805006D1C554540
:10447000E5D300BF80214046FFF78CFF0128F9D02B
:1044800000214046FFF74EFF39463046FFF797F8C8
:10449000BDE8F0872DE9F04180460D4616461C46E2
:1044A00044F0800401214046FFF73CFF3146284696
:1044B000FFF783F800BF02214046FFF76BFF00289B
:1044C000F9D021464046FFF771FF00BF0121404669
:1044D000FFF760FF0028F9D04046FFF764FF00BFF8
:1044E00002214046FFF756FF0028F9D00021404640
:1044F000FFF75CFF00BF01214046FFF74BFF00289C
:10450000F9D04046FFF74FFFC7B200BF80214046B9
:10451000FFF740FF0128F9D000214046FFF702FFD6
:1045200031462846FFF74BF83846BDE8F0810000D9
:10453000F8B504466BE0012C04D121033848FFF79D
:104540003CF805E024B94FF400413548FFF735F851
:104550000120FEF7D3FC01213248FFF7E3FE0026DD
:104560000FE000BF2F480830008800F0010000284D
:10457000F8D02C480C300088C0B20DF80600701C32
:10458000C6B2032EEDDB012C04D121032448FFF732
:1045900016F805E024B94FF400412148FFF70FF861
:1045A00000212048FFF7BEFE9DF8000000049DF8A2
:1045B000011040EA01209DF8021040EA01058CB983
:1045C0002F46C7F385101849086008460068202860
:1045D00007D008460068212803D00A20FEF78EFC89
:1045E00015E015E0012C11D12F46C7F385100F49B6
:1045F000086008460068202807D00846006821287F
:1046000003D00A20FEF77AFC01E001E000BF92E748
:1046100000BF3220FEF772FCC5F30F30F8BD00007A
:104620000004024000380040A02B0020A42B0020F2
:104630002DE9F04107460C4615461E46DDF8188068
:1046400001213846FFF76EFE29462046FEF7B5FFEA
:1046500000BF02213846FFF79DFE0028F9D0314601
:104660003846FFF7A3FE00BF01213846FFF792FE50
:104670000028F9D03846FFF796FE00BF02213846E1
:10468000FFF788FE0028F9D041463846FFF78EFE36
:1046900000BF01213846FFF77DFE0028F9D03846DB
:1046A000FFF781FE00BF80213846FFF773FE012827
:1046B000F9D000213846FFF735FE29462046FEF79F
:1046C0007EFFBDE8F081000010B5FEF777FE002008
:1046D000FEF7A2FD064800F00DF804460221FEF7A1
:1046E000ADFD0120FEF798FDFEF710FE10BD0000A5
:1046F0000000080801461C48814201D20020704792
:104700001A48814201D20820F9E71948814201D2B2
:104710001020F4E71748814201D21820EFE716482D
:10472000814201D22020EAE71448814201D22820A8
:10473000E5E71348814201D23020E0E71148814289
:1047400001D23820DBE71048814201D24020D6E771
:104750000E48814201D24820D1E70D48814201D262
:104760005020CCE75820CAE700400008008000082D
:1047700000C0000800000108000002080000040852
:10478000000006080000080800000A0800000C08E5
:1047900000000E0810B502460C46C4EBC4002949BF
:1047A00001EBC003184600F052F81060181D00F02D
:1047B0004BF882ED010A03F1080000F045F882EDA4
:1047C000020A03F10C0000F03FF882ED030A03F146
:1047D000100000F039F882ED040A03F1140000F033
:1047E00033F882ED050A03F1180000F02DF882ED90
:1047F000060A03F11C0000F027F882ED070A03F116
:10480000200000F021F882ED080A03F1240000F0F6
:104810001BF882ED090A03F1280000F015F882ED7B
:104820000A0A03F12C0000F00FF882ED0B0A03F1E5
:10483000300000F00CF8106303F1340000F007F8CA
:10484000506310BD0000080890ED000A7047014653
:10485000086870472DE9F04706460F463446C7EB17
:10486000C700104901EBC00505F13808FEF7A6FDA9
:104870000020FEF7D1FC0BE0D4F800902846216818
:10488000FEF774FD082800D000BF2D1D241D00BFB9
:104890004545F1D30120FEF7BFFCFEF737FDBDE82B
:1048A000F0870000000008087047000000B52DEDFB
:1048B000028B83B0B0EE408A9FED0C0A8DED000AAA
:1048C0009FED0A0A8DED010ADFED090A88EE200A44
:1048D000DFED080A20EE200A8DED020A064968463F
:1048E000FEF720FB03B0BDEC028B00BD0000000012
:1048F00000003443DB0F4940B82B0020012814D0BE
:104900000CDC10F1090F41D010F1050F37D010F178
:10491000030F2DD010F1020F3FD122E002280BD05F
:10492000042810D0082838D114E01D49097841F036
:1049300001011B4A117030E01949097841F0020168
:10494000174A117029E01649097841F00401144A08
:10495000117022E01249097841F00801104A1170E3
:104960001BE00F49097821F001010D4A117014E094
:104970000B49097821F00201094A11700DE008493C
:10498000097821F00401064A117006E0044909780B
:1049900021F00801024A117000BF00BF70470000FB
:1049A0009C2B002070B50024002500BF1DE00025D1
:1049B00018E001202449C96804EB44021144485519
:1049C00000200CE00121204A126904EB440303EBB0
:1049D00083031A4405EB85031A441154401C05282F
:1049E000F0DB6D1C032DE4DB641C032CDFDB0024F7
:1049F00004E00020144949690855641C032CF8DBC5
:104A0000002008E09FED110A0F49496801EB800181
:104A100081ED000A401C0328F4DB002008E09FED34
:104A20000C0A0949896801EB800181ED000A401CEC
:104A30000328F4DBFEF7CCFD064640F20511FEF735
:104A400033FD01F063F870BDD40A0120CDCCCC3D1C
:104A5000A69B443B014880ED720B7047B82B0020A9
:104A6000014880ED740B7047B82B00200CB5002076
:104A7000019000903448006840F48030324908606A
:104A800000BF3148006800F4003000900198401CDD
:104A90000190009818B90198B0F5A06FF1D12A489B
:104AA000006800F4003010B10120009001E0002007
:104AB00000900098012846D123484030006840F01B
:104AC00080502149403108602048006840F480400F
:104AD0001E4908601C48083000681B4908310860FE
:104AE0000846006840F4004008600846006840F44A
:104AF000A05008601648091F0860081F006840F0B1
:104B00008070091F086000BF0F48006800F0007047
:104B10000028F9D040F205600E4908600A480830C4
:104B2000006820F003000849083108600846006862
:104B300040F00200086000BF03480830006800F041
:104B40000C000828F8D10CBD00380240007000406D
:104B500008544007003C02400120014908607047AA
:104B6000682B002010B5FEF74DFC4648D0F8E80150
:104B700030B14448D0F8E801411E4348FFF70AFE2F
:104B80004048D0F8E80140B13F48006828B13D48AE
:104B9000D0F8E801B0F5FA7F02D3FFF795FD70E099
:104BA00000200BE03849243101EB800191ED000A2F
:104BB000364901EB800181ED000A401C0328F1DB3E
:104BC000002412E030480C3000EB840090ED000A25
:104BD00010EE101A084604F005FD0A4601462B485F
:104BE000903800EBC40006C0641C032CEADB0024F0
:104BF00012E02548183000EB840090ED000A10EE1A
:104C0000101A084604F0EEFC0A4601461F484030E0
:104C100000EBC40006C0641C032CEADB002009E0A2
:104C20001949303131F820108AB218496C3121F815
:104C30001020401C0228F3DB134890ED010A10EE0F
:104C4000101A084604F0CEFC0E4A02F5E47203C2C4
:104C50000D4890ED020A10EE101A084604F0C2FC4E
:104C6000084A02F5E87203C20020074908600548B7
:104C7000D0F8E8110448FFF7EDFD01200149C1F823
:104C8000EC0110BDB82B0020F40B0120282D0020D2
:104C900010B51548006840F47000134908601348C7
:104CA000006840F001001149086000200F490831F8
:104CB00008600E4800680E4908400C4908600D481D
:104CC000091D0860081F006820F48020091F086083
:104CD000002006490C310860FFF7C8FE4FF0006065
:104CE00001498039086010BD88ED00E000380240BD
:104CF000FFFFF6FE1030002410B50121044800F03B
:104D000068FB012803D10121014800F053FB10BDCD
:104D10000000014030B52DED088BA9B0002500241E
:104D20000121880700F055FB01287CD10121800773
:104D300000F040FBFE480068401CFD490860FD484B
:104D40000068401CFB490860F94890ED000AB8EE85
:104D5000400AF1EE040AB4EEE00AF1EE10FA0CDBC0
:104D60000020F34908600120F3490870F348D0F8A7
:104D7000E001401CF149C1F8E001002450E0204668
:104D800003F00EF9204603F04DFA13A901EB84005D
:104D900003F0FEF804EB440116AA02EBC10003F095
:104DA000E7F8002528E004EB440016A901EBC00059
:104DB00000EBC50090ED002BB0EE420AF0EE620A67
:104DC00004EB4400DE4901EBC00000EBC50090EDB0
:104DD000002BB0EE421AF0EE621A53EC102B51EC9D
:104DE000110B03F0C1FE04EB4402D54B03EBC202EE
:104DF00002EBC50203C26D1C032DD4DBD14800EBCE
:104E0000840090ED000A13A800EB8400D0ED000AA6
:104E100030EE200ACB4800EB840080ED000A641CD1
:104E2000032CACDB00E050E203F090F810B913A8BB
:104E3000FEF7F2FBBF480068052870D14822C2493E
:104E40006846FBF7AEFBC1480078401CBF490870BC
:104E50000020B8490860FFF76BFBB849A1F8D801FA
:104E60000120FFF765FBB549A1F8DA01002431E024
:104E7000B44800EB840090ED000AF1EE040A80EEE5
:104E8000201AB34800EB840080ED001A00251EE0D4
:104E900004EB4400AA4901EBC00000EBC50090ED13
:104EA000001BB0EE410AF0EE610A9FEDAA1B53EC25
:104EB000112B51EC100B03F013FF04EB44039F4A3A
:104EC000203202EBC30202EBC50203C26D1C032DAC
:104ED000DEDB641C032CCBDB002413E09C4800EBDE
:104EE0008400D0ED000AB0EE600A2046FEF7BEFD59
:104EF000DFED9A0A80EE201A954800EB840080EDE1
:104F0000001A641C032CE9DB00242CE09FED940ABA
:104F10008C4800EB840080ED000A002520E0D8E1F9
:104F200004EB44018548203000EBC10000EBC500D4
:104F300090ED000B04EB44018048683000EBC100A9
:104F400000EBC50080ED000B9FED860B04EB4400E9
:104F50007B4901EBC00000EBC50080ED000B6D1C30
:104F6000032DDDDB641C032CD0DB00252DE00024A9
:104F700028E005EB45017148683000EBC10000EB0B
:104F8000C40090ED001BB0EE410AF0EE610A01F0A2
:104F9000B7FEB0EE408AF0EE608A9FED740B53ECE2
:104FA000102B51EC180B04F0B7F80AD29FED6D0BE3
:104FB00005EB4500694601EBC00000EBC40080ED45
:104FC000000B641C032CD4DB6D1C032DCFDB0025F0
:104FD00065E005EB4500694601EBC00090ED022B52
:104FE000B0EE420AF0EE620A05EB450001EBC000AC
:104FF00090ED002BB0EE421AF0EE621A53EC102B3B
:1050000051EC110B03F0B0FD41EC190B05EB450021
:10501000694601EBC00090ED041BB0EE410AF0EED2
:10502000610A53EC102B51EC190B03F09DFD41EC80
:10503000180B002430E09FED4F0B53EC102B51EC7C
:10504000180B04F0A3F91BD205EB4500694601EBF0
:10505000C00000EBC40090ED001BB0EE410AF0EE82
:10506000610A53EC182B51EC100B03F039FE05EBE1
:1050700045026B4603EBC20202EBC40203C20AE024
:105080009FED380B05EB4500694601EBC00000EBD6
:10509000C40080ED000B641C032CCCDB6D1C032DC5
:1050A00097DB9DED042BB0EE420AF0EE620A234836
:1050B00090ED262BB0EE421AF0EE621A53EC102B54
:1050C00051EC110B04F064F841EC180B9DED022B30
:1050D000B0EE420AF0EE620A184890ED202BB0EED6
:1050E000421AF0EE621A53EC102B51EC110B04F043
:1050F0004FF841EC1A0B9DED002BB0EE420AF0EE9A
:10510000620A0E4890ED1A2BB0EE421AF0EE621AC7
:1051100053EC102B51EC110B04F03AF841EC1B0B43
:1051200053EC1A2B03F020FD41EC190B26E0000094
:10513000040000201400002008000020B82B0020EC
:10514000D02D0020182E00204098000809000020D3
:105150001C2D002000000000000014400000C84288
:105160000000000000000000000000007B14AE47BB
:10517000E17A843FFCA9F1D24D62503F53EC182BE9
:1051800003F0F2FC554A03C29DED0A2BB0EE420A31
:10519000F0EE620AA2F1B80090ED282BB0EE421AB0
:1051A000F0EE621A53EC102B51EC110B03F0F0FFF0
:1051B00041EC180B9DED082BB0EE420AF0EE620AAE
:1051C0004648B03890ED222BB0EE421AF0EE621A4B
:1051D00053EC102B51EC110B03F0DAFF41EC1A0BDE
:1051E0009DED062BB0EE420AF0EE620A3B48B03865
:1051F00090ED1C2BB0EE421AF0EE621A53EC102B1D
:1052000051EC110B03F0C4FF41EC1B0B53EC1A2BB8
:1052100003F0AAFC41EC190B53EC182B03F0A4FC8F
:105220002E4AC2E902019DED102BB0EE420AF0EECB
:10523000620AA2F1B00090ED2A2BB0EE421AF0EE15
:10524000621A53EC102B51EC110B03F0A1FF41EC4F
:10525000180B9DED0E2BB0EE420AF0EE620A1F48CD
:10526000B03890ED242BB0EE421AF0EE621A53ECF7
:10527000102B51EC110B03F08BFF41EC1A0B9DED41
:105280000C2BB0EE420AF0EE620A1448B03890EDF2
:105290001E2BB0EE421AF0EE621A53EC102B51ECBA
:1052A000110B03F075FF41EC1B0B53EC1A2B03F0B1
:1052B0005BFC41EC190B53EC182B03F055FC0A4630
:1052C00001460648C0E9041203E005A1074800F0C2
:1052D0009BFE29B0BDEC088B30BD0000682C00207F
:1052E00054494D32206572726F7200000010014007
:1052F00010B50121044800F06CF8012803D1012108
:10530000014800F057F810BD0004004010B501211D
:10531000044800F05EF8012803D10121014800F0A3
:1053200049F810BD0008004010B50121044800F004
:1053300050F8012803D10121014800F03BF810BDCD
:10534000000C004010B501210A4800F042F8012885
:105350000ED109480068012804D108480068401CA3
:1053600006490860FEF752FB0121024800F022F8CE
:1053700010BD0000001400400C00002010000020B0
:1053800010B50121044800F024F8012803D10121BF
:10539000014800F00FF810BD0004014021B102885F
:1053A00042F08002028004E002884FF67F731A40C8
:1053B00002807047CA430282704721B1028842F0DE
:1053C0000102028004E002884FF6FE731A40028058
:1053D000704730B50246002000230024158A05EAF4
:1053E0000103958905EA010413B10CB1012000E025
:1053F000002030BD1AB183890B43838102E0838989
:105400008B438381704700002DE9FF4104460D4620
:1054100016461F46DDF828806949601A8C4270D014
:105420001ADC6849A4EB01008C426CD00ADCB4F1B0
:10543000804F4ED064482044002852D0B0F5806F91
:1054400071D156E0B0F5806F65D0B0F5006F6CD0CB
:10545000B0F5406FF4D170E0B0F5923F21D009DC97
:10546000B0F5806F7AD0B0F5644F0AD0B0F5684FD0
:105470007CD10EE0B0F5943F1BD0B0F5963F75D1CE
:105480001FE001210846FEF70BFD19208DF80000F2
:105490006DE001210220FEF703FD2C208DF80000B5
:1054A00065E001210804FEF7FBFC18208DF80000E0
:1054B0005DE001211920FEF7F3FC2C208DF800009F
:1054C00055E001218804FEF7EBFC1A208DF800005E
:1054D0004DE001210846FEF7C3FC1C208DF80000BA
:1054E00045E001210220FEF7BBFC1D208DF80000E5
:1054F0003DE001210420FEF7B3FC1E208DF80000E2
:1055000035E023E0FFE701210820FEF7A9FC322067
:105510008DF800002BE001211020FEF7A1FC3620C1
:105520008DF8000023E021E0FFE701212020FEF7B5
:1055300097FC37208DF8000019E001214020FEF78C
:105540008FFC2B208DF8000011E007E00121802066
:10555000FEF786FC2C208DF8000008E001210802EF
:10556000FEF77EFC2D208DF8000000E000BF00BF9C
:105570000295ADF804600020ADF80C00ADF806000F
:1055800001A9204600F02CF901212046FFF712FF67
:10559000012211462046FFF72DFFF8B28DF80100D9
:1055A00008F0FF008DF8020001208DF80300684626
:1055B000FEF71EFB01212046FFF7FFFEBDE8FF813D
:1055C000001C0040000C004000FCFFBF70B5002430
:1055D00000220023058C4FF6EF7635400584028CBF
:1055E0008388048B48F6FF752C404FF6FF452C400E
:1055F0000D884FF6FF7606EA05252C434FF6DF753A
:105600002A408D8906EA05152A434D8806EA0515C4
:105610002A43154DA84202D0144DA8421DD14FF681
:105620007F752A40CD894FF6FF7606EA05152A4395
:105630004FF6BF752A408D8806EA05152A434FF6B6
:10564000FF352B404FF2FF752B400D8A06EA85058A
:105650002B434D8A06EA85052B43838004838D689E
:105660008563028470BD0000000001400004014019
:105670000A460021018B4FF2FF7319404FF6FF736A
:1056800003EA0223194301837047000070B5002428
:1056900000220023058C4FF6FF6635400584028CFE
:1056A0008388848B4FF68F752C404FF6FC752C4009
:1056B0000D882C434FF6FF552A408D894FF6FF7613
:1056C00006EA05252A434D8806EA05252A43154D95
:1056D000A84202D0144DA8421DD14FF2FF752A40B6
:1056E000CD894FF6FF7606EA05252A434FF6FF35AA
:1056F0002A408D8806EA05252A434EF6FF752B4081
:105700004DF6FF752B400D8A06EA05152B434D8A91
:1057100006EA05152B43838084838D68C563028464
:1057200070BD000000000140000401400A46002155
:10573000818B4FF6F7731940114381837047000046
:1057400070B5002200230024058C4EF6FF7635400C
:105750000584038C8488828B48F6FF752A404FF6B7
:10576000FF452A400D884FF6FF7606EA05252A43B5
:105770004DF6FF752B408D8906EA05352B434D8884
:1057800006EA05352B430A4DA84202D0094DA8422E
:1057900008D14BF6FF752C400D8A4FF6FF7606EACE
:1057A00085152C43848082838D680564038470BDD5
:1057B00000000140000401400A460021818B4FF2A5
:1057C000FF7319404FF6FF7303EA022319438183E5
:1057D000704781637047C163704701647047000080
:1057E00000220288184B98420ED0184B98420BD0DA
:1057F000B0F1804F08D0164B984205D0154B984217
:1058000002D0154B984204D14FF68F731A404B8843
:105810001A43124B984207D0114B984204D04FF6CE
:10582000FF431A400B891A4302804B68C3620B88FE
:105830000385054B984202D0044B984201D18B7AE4
:105840000386012383827047000001400004014069
:105850000004004000080040000C00400010004020
:105860000014004070B52DED028B04460D461DB1AD
:105870000020974941F82400964850F82400401C25
:10588000944941F82400084650F8240040F6B83105
:10589000B0FBF1F201FB120000287DD18E4850F8D8
:1058A0002400B0F1FF3F02D0012860D160E08B48B6
:1058B00000EB840090ED000A894800EB8400D0EDF5
:1058C000000A30EE600ADFED870AB4EEE00AF1EE7E
:1058D00010FA4CDB844800EB840090ED000ADFED09
:1058E000830AB4EEE00AF1EE10FA0EDD7E4800EB1A
:1058F000840090ED000ADFED7D0A30EE600A7A4800
:1059000000EB840080ED000A31E0774800EB840072
:1059100090ED000AB5EEC00AF1EE10FA07DD9FED3A
:10592000740A714800EB840080ED000A1FE06E48A5
:1059300000EB840090ED000AB5EEC00AF1EE10FA1B
:1059400015D10120644941F82400674800EB840028
:1059500090ED000ADFED650A30EE200A624800EBA8
:10596000840080ED000A0320594941F8240059E0E1
:105970005A4800EB840090ED000A594800EB84007F
:10598000D0ED000A30EE600ADFED580AB4EEE00A0E
:10599000F1EE10FA46D800E04FE0534800EB8400E7
:1059A00090ED000ADFED530AB4EEE00AF1EE10FAD2
:1059B00030D24A4800EB840090ED000A10EE101A35
:1059C000084603F00FFE41EC180B9FED4B0B53EC18
:1059D000102B03F0DBFC0ED2434800EB840090ED6B
:1059E000000ADFED420A30EE200A3F4800EB840057
:1059F00080ED000A15E03C4800EB840090ED000AC1
:105A0000F6EE000A30EE200A374800EB840080ED05
:105A1000000A06E09FED3A0A334800EB840080ED6F
:105A2000000A00BF00BF2D4800EB840090ED000A83
:105A30002B4800EB840080ED000A284800EB84002E
:105A400090ED000A10EE101A084603F0CBFD41EC71
:105A5000180B9FED2C0B53EC102B03F097FC05D289
:105A60004FF0FF301C4941F824001FE01B4800EBB9
:105A7000840090ED000A10EE101A084603F0B2FD03
:105A800041EC180B9FED1C0B53EC102B03F044FB67
:105A90000CD2114850F82400401C18B903200C49BE
:105AA00041F8240001200C4941F824000E4800EB85
:105AB000840090ED000ABDEEC00A10EE101A2046D8
:105AC000FDF7D2FE024850F82400BDEC028B70BDF9
:105AD000780A01209C0A01207C2B00201C2D00202C
