:020000040800F2
:10000000087900208D020008C93B0008DD31000896
:10001000C53B000815290008156B0008000000000A
:10002000000000000000000000000000834D0008F8
:10003000812B000800000000A3020008A5020008B0
:10004000A7020008A7020008A7020008A7020008EC
:10005000A7020008A7020008A7020008A7020008DC
:10006000A7020008A7020008A7020008A7020008CC
:10007000A7020008A7020008A7020008A7020008BC
:10008000A7020008A7020008A7020008A7020008AC
:10009000A7020008A7020008A7020008A70200089C
:1000A000A7020008CD4F0008A7020008A702000819
:1000B000E94F000885510008A1510008A702000877
:1000C000A7020008A7020008A7020008A70200086C
:1000D000A7020008755B0008A7020008C95C0008B9
:1000E000A7020008A7020008A7020008A70200084C
:1000F000D9510008A7020008A7020008A7020008BB
:10010000A7020008A7020008BD510008A7020008C6
:10011000A7020008555B0008A7020008A702000814
:10012000A7020008A7020008A7020008A70200080B
:10013000A7020008A7020008A7020008A7020008FB
:10014000A7020008A7020008A7020008A7020008EB
:10015000A7020008A7020008A7020008A7020008DB
:10016000A7020008A7020008A7020008A7020008CB
:10017000A7020008A7020008A7020008A7020008BB
:10018000A7020008A702000800F002F800F06FF8CC
:100190000AA090E8000C82448344AAF10107DA45E2
:1001A00001D100F064F8AFF2090EBAE80F0013F0C5
:1001B000010F18BFFB1A43F00103184780AB000082
:1001C000A0AB00000A444FF0000C10F8013B13F004
:1001D000070408BF10F8014B1D1108BF10F8015BA0
:1001E000641E05D010F8016B641E01F8016BF9D193
:1001F00013F0080F1EBF10F8014BAD1C0C1B09D1EA
:100200006D1E58BF01F801CBFAD505E014F8016B5B
:1002100001F8016B6D1EF9D59142D6D370470000ED
:100220000023002400250026103A28BF78C1FBD8FF
:10023000520728BF30C148BF0B607047662909F0DC
:100240008587002070471FB509F045FF00F08EFC40
:1002500004000020002109F06FF8401C60600020BD
:10026000002109F053F8E0601FBD10B510BD00F08B
:10027000A5FD1146FFF7E7FF08F05AFD01F01EF853
:1002800003B4FFF7F2FF03BC01F062F809488047AE
:1002900009480047FEE7FEE7FEE7FEE7FEE7FEE768
:1002A000FEE7FEE7FEE7FEE704480549054A064B80
:1002B00070470000654F00088901000808330020DE
:1002C000087900200875002008750020DFED300A4D
:1002D000B5EEC00A60EE200ABDEEE01A11EE100A7B
:1002E000F1EE10FA38BF401E00EE100A9FED291AF9
:1002F000B8EEC00A70EEC00A20EE810ABCEEC00A59
:1003000010EE100A00EE100A0028B8EEC00A10EE37
:10031000810AB8BF002004DBB0F5807FC8BF4FF46E
:1003200080701D4960EE000AB6EE001ADFED1C2A4F
:100330009FED1A2A60EE011A60EE225A20EE813AF1
:1003400020EE022A21EEA01A01EB800073EE655A1E
:1003500062EE202AB7EE006A33EE003AD0EC043A9F
:1003600076EE611A71EE600A35EEE20A33EE413A3A
:1003700032EEC21A70EEA10A20EE230A64EE831A4E
:1003800004EE200A45EE011A31EE800A70470000A3
:1003900083F9223E0000804378A20008ABAA2A3EDF
:1003A000ABAAAA3EDFED300AB5EEC00A60EE200A25
:1003B000BDEEE01A11EE100AF1EE10FA38BF401E41
:1003C00000EE100A9FED291AB8EEC00A70EEC00ABE
:1003D00020EE810ABCEEC00A10EE100A00EE100AF0
:1003E0000028B8EEC00A10EE810AB8BF002004DB76
:1003F000B0F5807FC8BF4FF480701D4960EE000AE1
:10040000B6EE001ADFED1C2A9FED1A2A60EE011AE3
:1004100060EE225A20EE813A20EE022A21EEA01A46
:1004200001EB800073EE655A62EE202AB7EE006A97
:1004300033EE003AD0EC043A76EE611A71EE600ABF
:1004400035EEE20A33EE413A32EEC21A70EEA10AFC
:1004500020EE230A64EE831A04EE200A45EE011A08
:1004600031EE800A7047000083F9223E000080438D
:1004700088A60008ABAA2A3EABAAAA3E0FB41CB5B8
:10048000074B06AA7B4469460090059800F003FBE1
:100490000020694600F012FB1CBC5DF814FB000054
:1004A000350600002DE9F0410E460446002020628A
:1004B0002046E168884730B3252805D0D4E90121DA
:1004C0009047206A401CF2E7E168204600278847F1
:1004D000050018D0A5F14100192802D820354FF4A5
:1004E00000673246294620462760FFF7A7FE40B145
:1004F000012804D0F61D26F007060836D8E7361D79
:10050000D6E72846DAE7206ABDE8F08140EA010331
:1005100070B59B072ED14FF00136042A2AD308C8A4
:1005200010C99D1B9D43121F15EAC61517D0D8B2DE
:10053000E1B2401A50EA056110D198B2A1B2401A56
:1005400050EA05410AD123F07F4024F07F41401A50
:1005500050EA052102D1180EA0EB146070BDA34231
:10056000DBD018BA21BA884201D9012070BD4FF002
:10057000FF3070BD0AB9002070BD10F8013B11F8C2
:10058000014B63B1A3420AD1521E08D010F8013BBF
:1005900011F8014B1BB1A34201D1521EEDD1181B22
:1005A00070BD10B5203AC0F00B80B1E81850203A69
:1005B000A0E81850B1E81850A0E81850BFF4F5AF03
:1005C0005FEA027C24BFB1E81850A0E8185044BF8D
:1005D00018C918C0BDE810405FEA827C24BF51F8FA
:1005E000043B40F8043B08BF7047D20728BF31F8EE
:1005F000023B48BF11F8012B28BF20F8023B48BF3F
:1006000000F8012B70474FF0000200B513469446E6
:100610009646203922BFA0E80C50A0E80C50B1F15A
:100620002001BFF4F7AF090728BFA0E80C5048BF6E
:100630000CC05DF804EB890028BF40F8042B08BF0C
:10064000704748BF20F8022B11F0804F18BF00F808
:10065000012B704770477047704710B500F08AFA59
:10066000006810BD10B5044600F084FA046010BDA7
:1006700070472DE9FF4F0C461E464FF0FF378BB0F9
:10068000D2E90001DDF860800A908A46C1F30A557C
:1006900005B93D46002108464FF00000BAF1000FB1
:1006A00000F4400005DA00EB80004FF4400101EA5D
:1006B00050004FEA9059B9F1010F00DDB9460A9890
:1006C00050EA4A000ED044F61050A5F2FF354543DB
:1006D0002F14B8F1000F1ED07542291E1EDDC9F17E
:1006E00000021CE0B8F1010F4FF0000001D03021F2
:1006F00003E0F24305E02154401CB042FBDB3046EE
:100700000022002121540B99C1F80880C1E9002082
:100710000FB0BDE8F08FBD1B6D1CDEE74A4600DA66
:10072000694206A800F0D8FA06AB93E8070003ABCD
:1007300083E8070050460A9901F05DF88DE807004C
:10074000A0F500501F3800900398002D09DD42F2FB
:100750001F014A46084403A90390684601F0E7FADE
:1007600008E0A0F500504A461F3803A903906846E8
:1007700001F005FB8DE807000004000C03D04FF0EA
:10078000FF30410800E01046B8F1000F03D000220E
:10079000009215461EE0751E05D400F0EFF93032C8
:1007A00062556D1EF9D5B3460122084302D00022DE
:1007B0007F1C04E02078302801D100227F1E002A0F
:1007C000099786D01DE0112D07DA00F0D7F93032F5
:1007D00062556D1C50EA0102F5D1084302D0009821
:1007E000C8B10EE00021681E05E0235C625C635422
:1007F0002254401E491C8142F7DBAB46A81B401E19
:100800000990002004F80B000B98099AC0F80880A2
:10081000C0E9002B7CE711264FF0000859E72DE9CD
:10082000F04F88460446D21D22F0070191B0D1E96D
:100830000001CDE90A0106F06FF902460B98C00FDE
:1008400001D02D2007E02068810701D52B2002E090
:10085000202101EAC000032A099001D0072A05DB04
:1008600003464146204600F0D7F90BE12078800688
:1008700001D5E06900E00620B8F1650F814606D099
:10088000B8F1660F18D0B8F1670F70D131E00020D1
:10089000B9F1110F009001DB112301E009F101030F
:1008A0000AAA01A90CA8FFF7E4FEDDE90C700026F6
:1008B00009F10105834647E001204B4600904FF0C7
:1008C00000470AAA01A90CA8FFF7D3FEDDE90DB085
:1008D0000C995D46002610B909F101000D18B9EB1D
:1008E000050003D4C0F1FF3609F10105A5EB0900AD
:1008F0002BE0B9F1010F01DA4FF001090020B9F145
:10090000110F0090484601DD112300E003460AAABA
:1009100001A90CA8FFF7ADFEDDE90C704D460026DD
:100920008346207800070AD4AB4500DA5D4601A86B
:10093000012D04DD411911F8011C302907D04F4564
:1009400002DA17F1040F04DA012082460FE06D1E6F
:10095000EEE7002F02DCED1B3E4403E0781CA842CA
:1009600000DD7D1CB81B00F1010A4FF00047207824
:10097000000703D4AA4501DB4FF0FF3A0021B7F18D
:10098000004F0DF143088DF8431024D002202B2393
:10099000002F01DA7F422D230A21021EA0F101005F
:1009A00000DC5FB197FBF1FC97FBF1F201FB1C7CD3
:1009B00017460CF1300C08F801CDEEE7A8F1010064
:1009C00003702188090501D5452100E06521A0F1CA
:1009D000010800F8011C09980FA9A1EB0807FF1DE9
:1009E00000B10120411901EBEA70A1693844081AED
:1009F000401EA0612078C00602D42046AFF30080DC
:100A0000099828B1D4E901219047206A401C20624E
:100A10002078C00622D52046AFF300801EE0002ECD
:100A200004DBB34502DD01A8805D00E03020D4E99D
:100A300001219047206A401C2062761CAAF1010027
:100A40005FEA000A0AD100F091F8C0680168405CD2
:100A5000D4E901219047206A401C2062281EA5F19C
:100A60000105DCDC07E0D4E9012118F8010B90470F
:100A7000206A401C2062381EA7F10107F3DC2046E3
:100A8000AFF30080032011B043E6000001694A1C67
:100A900002610878704700B58FB0CDE901310021BF
:100AA000059105497944CDE9031011466846FFF7E1
:100AB000F9FC0FB000BD0000E5FFFFFF0A6802F877
:100AC000010B0A60704700000FB4002300B589B025
:100AD0000CA900910B99CB60214B7B440693214BD1
:100AE0007B44079304236FF00042CDE901321E4A94
:100AF0007A446B4608920246002009F089FB09B04F
:100B00005DF814FB70B506464FF0FF3015460C46F5
:100B1000324686B00091CDE901016946002004907B
:100B200004A8FFF7D1FF02460498211825B108B1A7
:100B3000084600E020462860049800280DD0002ACE
:100B400002DD0098884208D03246081B69460094AE
:100B5000CDE9010404A8FFF7B7FF06B070BD00009F
:100B6000BB010000D30100001301000000487047E2
:100B7000C832002000487047A832002030B5B0F1DC
:100B80000A024FEA900E71F100034EEA817EB0EB4B
:100B90000E0061EB91014FEA101E4EEA017E10EB50
:100BA0000E0041EB11114FEA102E4EEA016E10EBD0
:100BB0000E0041EB11214FEA104E4EEA014E10EBB0
:100BC0000E0041EB1141401841F100014FEAD00005
:100BD00040EA41704FEAD10110EB80054FEA8104F1
:100BE00044EA907444EB01046D1944EB0404521B75
:100BF000A3414FF0000348BF0A3200D530BD401C6E
:100C000041F1000130BD10B5044600F0FDF8006868
:100C1000005D00F0010010BD2DE9F0411F460446C3
:100C200003260168072A01F4006004DB08B116A559
:100C300005E016A503E008B115A500E015A521F013
:100C400010002060A069C01EA0610FB1401EA0610D
:100C50002046AFF300804FB1D4E9012138469047D8
:100C6000206A401C2062C01C206206E0206AFAE76D
:100C7000D4E9012115F8010B9047761EF8D22046E1
:100C8000AFF30080BDE8F0814E414E006E616E0012
:100C9000494E4600696E6600426842B1016811F82B
:100CA000013B23B1521EC0E90012184670470121D2
:100CB000C160881E704742685AB1C368016843B971
:100CC00083688B4205D0491E521CC0E900120020E7
:100CD00070474FF0FF3070472DE9F04781461646C8
:100CE0008AB0334878440DC88DE80D003048784408
:100CF000801C03AC0DC884E80D0041F69B3008440D
:100D0000372190FBF1F290FBF1F5A5F1800501FB95
:100D100012041B3C02D56442012000E00020DFF8F1
:100D200090A080460027FA44AAF1BE0A0DE0E00731
:100D300009D03246684607EB47010AEB810101F012
:100D40001EF88DE8070064107F1C002CEFD1184FAF
:100D50007F44AC3F18E0E80714D007EB04100DF116
:100D6000180A90E80E008AE80E00C068F04201D12F
:100D700098190890324606A903A801F000F803ABC1
:100D800083E807006D10641C002DE4D132466946EB
:100D9000B8F1000F03A802D000F0C9FF01E000F095
:100DA000EEFFC9E90001C9F808200AB0BDE8F087E4
:100DB0003CA0000000487047A83200207546FFF7AD
:100DC000F9FFAE4605006946534620F00700854608
:100DD00018B020B5FFF768FABDE820404FF00006D4
:100DE0004FF000074FF000084FF0000B21F0070113
:100DF000AC46ACE8C009ACE8C009ACE8C009ACE856
:100E0000C0098D467047000010B5FFF7AFFE001D0A
:100E100010BD00BF258500002DE9FF4F064689B0B3
:100E20000878FF2806D0491C2D2805D000244FF053
:100E3000000908E000200CE00124F8E709EB890331
:100E4000491C00EB43090878FF28F7D114B1C9F118
:100E500000008146107800252C46AA4629462D28F8
:100E600001D02B2804D1521C2D2813D000208246FB
:100E70008B461078FF280FD04FF0000C0A21521C2F
:100E8000A5FB017804FB018105FB0C11C5194BEB97
:100E90000104EEE70120EAE7002108464FF00000D8
:100EA000BAF1000F02D000EB80004008C0F3815877
:100EB000B8F1010F01DD4FF0FF380C9809EB000786
:100EC00055EA040009D04FF0020917F5FA7F0BDA52
:100ED0004FEACA70C6E900B012E04FEACA70C6E92C
:100EE00000B00DB0BDE8F08FB7F5FA7F0DDDF0482A
:100EF0007844D0E90010C6E9001040EACA7070607A
:100F0000FFF738FEC0F80090EBE7391E02DAC8F1AF
:100F1000000200E0424600DA794206A8FFF7DCFE54
:100F200006AB93E8070003AB83E8070044F23E00FA
:100F30005BEA04010090584604D144F21E012C469D
:100F40005D460091210C0904014306D10099240457
:100F500044EA15442D041039009104F07F41014307
:100F600006D10099240244EA15642D020839009143
:100F700004F07041014306D10099240144EA15743C
:100F80002D01091F009104F04041014306D1009951
:100F9000A40044EA9574AD00891E009104F000415C
:100FA000084304D100986D196441401E00904246E8
:100FB0006846002FCDE9014503A902DD00F0F3FEEC
:100FC00001E000F0C8FEBAF1000F04460D4601D062
:100FD00084F0004440F2FF7724F00040284303D01F
:100FE000C4F30A50B84212D1FFF7C4FDC0F8009014
:100FF000C4F30A50B8420AD1AE487844D0E9001090
:10100000C6E9001004F000410843706069E7C6E9D2
:10101000005466E72DE9FF4F1F464FF0000A4FF0DE
:10102000FF38454691B0D7E90146CDF83CA0FFF71F
:101030009DFDC0680168405C1090B96912986D1CF4
:101040008847396A814688470028F6D1B9F1FF3FC1
:101050000AD0002E24F4D06411DDB9F12B0F08D092
:10106000B9F12D0F0BD102E0404615B03AE744F438
:101070008064B96912986D1C8847761E81466005A8
:1010800004A901D52D2000E02B20002E01F1010B39
:101090000DF130088DF810003FDDB9F1690F08D06F
:1010A000B9F1490F05D0B9F16E0F02D0B9F14E0F69
:1010B0001CD13B4601A8009580E85002DDE91212E0
:1010C0006FF0020009F0A8F8C11CCED10EE0B9699A
:1010D00012986D1C884781461398761E44F400745C
:1010E00005600F98401C002E0F9016DDB9F1300FEF
:1010F000EDD0B9F1780F02D0B9F1580F0DD10F989A
:1011000001280AD13B46CDE90054DDE91212001F47
:10111000029609F07FF8C11CA7D1109989453ED1EC
:1011200044F0800406E01399681CAAF1010A44F413
:1011300000740860B9696D1C1298761E88473028C3
:101140008146F0D02BE01099894505D1200603D4C3
:10115000761E44F0800418E0484606F083FF08B38A
:10116000761E0DF123018B4544F4007408D2A9F1D9
:1011700030000BF8010B200607D5AAF1010003E0AF
:10118000200602D40AF101008246A00502D5139977
:10119000681C0860B96912986D1C88478146002E4A
:1011A000D1DC53E0002E51DDB9F1650F02D0B9F169
:1011B000450F4BD1A00549D5B9696D1C1298761E13
:1011C00024F440748847002E81460CDD2B2804D07F
:1011D000B9F12D0F07D144F48074B96912986D1CD0
:1011E0008847761E8146E00501D52D2100E02B21A0
:1011F00008F8011BCDF8008021E0761E0DF13901C1
:10120000884544F400740CD2A9F1300010F0FF00BE
:1012100088F8000002D10099884509D908F1010831
:1012200006E0E00501D5244801E042F20F70824655
:10123000B96912986D1C8847814613980560002E85
:1012400004DD484606F00EFF0028D6D1F969129851
:101250008847FF2053468BF8000088F800000020E4
:101260000A900B9004AA0CA90AA8FFF7D5FDA005C7
:1012700002D46FF00100F8E614F0240F0AD0E00762
:1012800014D13868DDE90A12031D3B600068C0E92B
:1012900000120BE00AA9684606F07EFEE00705D1C1
:1012A0003868009A011D3960006802602846DCE653
:1012B000689E00005E9D0000F1D8FFFF10B5044657
:1012C000AFF300802046BDE81040FEF7D9BF000014
:1012D0004FF0013C50F8042B51F8043B9A4221D1C5
:1012E000A2EB0C03934313EACC1317D150F8042B51
:1012F00051F8043B9A4215D1A2EB0C03934313EA35
:10130000CC130BD150F8042B51F8043B9A4209D16D
:10131000A2EB0C03934313EACC13DBD04FF0000095
:10132000704700BFD01A01BAB1FA81F101F018017B
:1013300022FA01F0CB40C1F12001DBB2C0B2C01AE9
:101340002CFA01F3D11A914311EAC311E6D1704787
:1013500001491820ABBEFEE72600020070470000DE
:101360002DE9FF4F1F464FF03C0987B04FF0004278
:10137000DDE9141001F10108DDF858A002EA40503F
:101380000390002005908346054604460490B96901
:10139000461E08988847AAF1010A0290BAF1000F88
:1013A0003BDD02982E2815D0102100F016FA0028F7
:1013B0002EDB4FF0010B0599014317D0B9F1000F57
:1013C0000BDB4A46C11700F0F5F905430C43A9F1C0
:1013D000040905E0012004900BE008B145F0010587
:1013E00001200590049820B9361D02E0049800B150
:1013F000361FB969089808F101088847BBF1000F4A
:10140000AAF1010A0290C9D00999C1F80080C5E784
:101410000298702808D0502806D0F96908988847A3
:10142000BBF1000F14D04FE0002002900120BBF16F
:10143000000F049009D0B969089808F1010888479D
:10144000AAF10109B9F1000F07DCF969089888478A
:101450006FF001000BB0BDE8F08F2B2804D02D28D1
:101460000CD14FF0FF300490B969089808F10108D9
:101470008847A9F10109B9F1000FE6DD411CE4D06C
:101480000A2100F0AAF90028DFDB029908F101081F
:1014900001EB810100EB41000290B969089888478F
:1014A0000A2100F09AF9099AA9F10109B9F1000F8E
:1014B000C2F8008001DD0028E7DAF969089888475A
:1014C0000499029800FB016655EA040004D004F078
:1014D0004041090002D006E0039898E0A40044EAE5
:1014E0009574AD00B61E04F00041080002D16D19DC
:1014F0006441761E159810F0240F03D04FF00B09AD
:101500005C4803E04FF028096FF07D0082465645A5
:1015100007DAAAEB06018944B9F1410F01DD4FF06A
:10152000410901200021A9F1010200F043F902461E
:1015300028400B462140084301D0012100E0002152
:10154000501E029143F1FF3128402140084301D051
:10155000012000E000200299834651EA0B014FD0A0
:10156000002108464FF00000039900F4400039B113
:1015700000EB80004FF4400100EBD07001EA600006
:101580008015012802DD4FF0FF3000E013D0401C31
:1015900036D0029860B3BBF1000F0CD14A4601204F
:1015A000002100F007F928402140084301D0012024
:1015B00000E00020E0B101204A46002100F0FAF8E6
:1015C000034640190A4661412D1A8C4111D3B9F1E5
:1015D000400F09DD159810F0240F02D0AAF134064F
:1015E00003E0AAF1170600E0761C00254FF0004446
:1015F00006E05B1E42F1FF3220EA030521EA020405
:10160000CAF10100B04206DA1B4903980843019071
:10161000002000900EE0039AC4F3D321E80A0A43A5
:10162000164940EA44500A433146CDE90002684673
:1016300006F00EFD159810F0240F0BD01598C0077A
:1016400015D13868DDE90012031D3B600068C0E970
:1016500000120CE002A8694606F09EFC1598C0072F
:1016600005D13868029A011D396000680260404661
:10167000F0E6000002FCFFFF0000F07F0000F03FFA
:101680002DE9FF4F92461D4685B04FF00041DDE940
:10169000124BDDE914727F1E01EA4B50414940F0C4
:1016A000FF4940EA0108002122F020004928049166
:1016B00002D04E2828D04CE03BA0012607C88DE878
:1016C0000700A9690698641C88477F1E014606D456
:1016D0001DF8060018B121F0200181420BD0E96904
:1016E00006988847032E34D0082E32D06FF00100C0
:1016F00009B0BDE8F08F761C032E01D0082EE0D192
:10170000601CCAF80000DCE7A9690698641C8847D9
:101710007F1E2AD420F02000412826D1A9690698EE
:10172000641C88477F1E20D420F020004E281CD146
:10173000A9690698641C88477F1E48F4002849F46C
:101740008009CAF8004001D4282806D0E969069823
:1017500088475FEACB7012D022E0A9690698641C22
:1017600088477F1E01D4002803DAE9690698884774
:10177000BCE72928F1D1641CCAF80040E9E71BF056
:10178000240F07D028680499031D2B600068C0E966
:10179000001805E02868021D2A600068C0F8009063
:1017A0002046A5E70000F07F494E46494E4954596E
:1017B00000000000B2F120030AD5C2F1200301FAB3
:1017C00002F120FA03F300FA02F041EA0301704744
:1017D00000FA03F14FF0000070473A2800D2303889
:1017E00020F02002412A01D3A2F13700884201D320
:1017F0004FF0FF3070475FEA400C08BF91F0000FD8
:101800004FEA8C234FEAC12243EA51514FEA1C5060
:1018100018BF00F5F0404FEA300018BF41F000411A
:101820005FEA6C5C00F02980BCF1FF3F08BF40F02C
:1018300080407047130C06BF12044FF0100C4FF09D
:10184000000C130E04BF12020CF1080C130F04BF9E
:1018500012010CF1040C930F04BF92000CF1020C66
:10186000D30F04BF52000CF1010C11464FF00002DF
:10187000A0F11F00A0EB0C00704711F0004F08BF53
:10188000704731F000413FF4D5AF0B0C06BF09049F
:101890004FF0100C4FF0000C0B0E04BF09020CF1BE
:1018A000080C0B0F04BF09010CF1040C8B0F04BFD3
:1018B00089000CF1020CCB0F04BF49000CF1010CA4
:1018C000CCF12003A0EB0C0022FA03F302FA0CF295
:1018D00041EA030100F10100704720F07F4C80EAEB
:1018E000030023F07F47ACEB070303F57C5300F0C4
:1018F000004003F1FF032DE980494FEA154B09B47D
:101900004FEA144325EA0B4E24EA03480FF204265B
:1019100006EB132749083E785FEA320203FB0667AD
:10192000C7F5000707FB06F64FEA54374FEAD646DD
:1019300006F1020607FB066CCCF1005C4FEA1C477F
:101940002CEA074C07FB06F40CFB06F504EB1546E6
:101950004FEA961634BF00204FF000404FEAD137CF
:1019600006FB07FC4FEA1C4C0CFB0BF7D21B03FBDE
:101970000CF761EB07010CFB0EF7B0EB074072EBC5
:1019800017420CFB08F734BFA2EB0742B2EB074249
:1019900061EB17414FEA0C444FEA910706FB07FC45
:1019A0004FEA1C4C0CFB0BF7B0EBC74072EB573205
:1019B00003FB0CF734BFA2EBC742B2EBC74261EBAB
:1019C00057310CFB0EF7B0EBC70072EB57720CFBF4
:1019D00008F734BFA2EBC702B2EBC70261EB577145
:1019E000039F4FEA816141EA921104EBCC044FEA74
:1019F000D1374FEA826206FB07FC42EA90124FEAB7
:101A000080604FEA1C4C0CFB0BF7D21B03FB0CF75E
:101A100061EB07010CFB0EF7B0EB074072EB1742CE
:101A20000CFB08F734BFA2EB0742B2EB074261EBB5
:101A300017414FEA8C554FEA910704EB9C2406FBB3
:101A400007FC4FEA1C4C0CFB0BF7B0EBC74072EBEA
:101A5000573203FB0CF734BFA2EBC742B2EBC742CD
:101A600061EB57310CFB0EF7B0EBC70072EB57720E
:101A70000CFB08F734BFA2EBC702B2EBC70261EB65
:101A8000577115EB4C254FEA816141EA92114FEAFB
:101A900082624FEAD13742EA901206FB07FC44F11A
:101AA00000044FEA80604FEA1C4C0CFB0BF7D21B82
:101AB00003FB0CF761EB07010CFB0EF7B0EB0740E3
:101AC00072EB17420CFB08F734BFA2EB0742B2EBF4
:101AD000074261EB174115EB1C154FEA813141EAD2
:101AE00092414FEA823242EA90424FEA80304FEA16
:101AF0000C7644F1000448EA03434EEA0B484FF0E9
:101B0000000EB2EB080C71EB030724BF62463946A6
:101B10004EEB0E0E4FF0000B0018524149414BEBBB
:101B20000B0BB2EB080C71EB03077BF1000B24BF2E
:101B3000624639464EEB0E0E4FF0000B0018524134
:101B400049414BEB0B0BB2EB080C71EB03077BF13C
:101B5000000B24BF624639464EEB0E0E51EA0207D7
:101B600018BF46F0010616EB0E7655F1000254F14F
:101B7000000103D5BDE88901BDE80088BDE8890101
:101B8000BDE80048B619524141EB0101A3F1010340
:101B9000704780807F7E7D7C7B7A797877767675DA
:101BA0007473727171706F6E6E6D6C6C6B6A6A6952
:101BB0006868676666656464636362616160605FEC
:101BC0005F5E5E5D5D5C5C5B5B5A5A595958585765
:101BD00057565655555554545353525252515150CD
:101BE00050504F4F4F4E4E4D4D4D4C4C4C4B4B4B20
:101BF0004A4A4A4949494848484747474746464666
:101C000045454544444444434343434242424241A0
:101C10004141000046EA0646A3F570534FEA1646D6
:101C200046EA42564FEAD22242EA415210B54FEA02
:101C3000D121A3F1010300F017F820F0004000F1DA
:101C4000010C00F0004701EB00501146BCF5006F9D
:101C500040EA070000D210BD02484FF0000140EA00
:101C6000070010BD0000F07F002B26D4770021D0A4
:101C70001CB54FEA370703B44FF010004FF01001C6
:101C80004FF000000FBCBDE810400BF1010BBBF1A1
:101C9000010F08BF5FEA170722BF12F1010211F11D
:101CA00001014FF0004143F1000300F0004043EA1E
:101CB00000007047F9D35708DAE746EA064613F101
:101CC000400F4FEA16461FDD13F1200FDFBF16430A
:101CD0000A46002120335B42C8D0C3F1200746EA00
:101CE000064602FA07F74FEA164646EA0706C3F128
:101CF000200722FA03F201FA07F721FA03F14FF065
:101D0000000342EA0702B1E746EA020646EA06464F
:101D10004FEA164646EA0106BCBF46EA0646360CBE
:101D20004FF000034FF000024FF000019EE72DE955
:101D3000C048934630B491E8380007C831EA400CF7
:101D400048BF34EA430C03D5FFF7C7FDFFF78CFF0C
:101D5000F0BCBDE800882DE9C048934630B491E856
:101D6000380007C831EA400C48BF34EA430C03D5B9
:101D7000FFF7B3FDFFF74EFFF0BCBDE800882DE98B
:101D8000C048934630B491E8380007C810F0804F3F
:101D900008BF13F0804F03D100F019F8FFF764FF7C
:101DA000F0BCBDE800882DE9C048934630B491E806
:101DB000380007C810F0804F08BF13F0804F03D1E0
:101DC00000F005F8FFF726FFF0BCBDE8008820F022
:101DD0007F4780EA030023F07F4C07EB0C03A3F559
:101DE0007C5300F00040A3F1FE0392F0000F00F0DE
:101DF000B38095F0000F00F077802DE901494FEA9C
:101E000011404FEA144621EA004800FB06FC24EA90
:101E1000064708FB06F607FB08F800FB07F718EB78
:101E200006484CEB164C4FEA124B18EB07484FEAAA
:101E300015464CEB174022EA0B4E0BFB06FC25EA3D
:101E400006470EFB06F607FB0EFE0BFB07F71EEB25
:101E5000064E4CEB164C4FF000061EEB074E4CEBBB
:101E6000174B18EB0B0840F1000018EB0E0B58EB6A
:101E7000000840F100008F1A4FF000013CBFC94339
:101E8000661B14BFB5EB040C00213CBFC943F61B15
:101E90004FEA17444EEA8E0E27EA04454FEA1C47E4
:101EA00004FB07622CEA074C05FB07F70CFB05F661
:101EB00004FB0CFC16EB074642EB174216EB0C46F4
:101EC00042EB1C421BEB060658EB0202414146EA7C
:101ED0009E0601D5BDE80189B619524141EB0101C9
:101EE000A3F10103BDE801894FEA14454FEA114708
:101EF00024EA054621EA074C05FB07F406FB07F731
:101F00000CFB06F105FB0CFC11EB074144EB1744FD
:101F10004FEA124711EB0C4144EB1C4422EA074CF8
:101F200005FB07F206FB07F70CFB06F605FB0CFCAE
:101F300016EB074642EB174216EB0C4642EB1C45EC
:101F40006A1854F1000148BF7047B619524141EB7D
:101F50000101A3F10103704795F0000F37D04FEA5C
:101F600011424FEA144721EA024624EA074C02FBD9
:101F700007F106FB07F70CFB06F402FB0CFC14EB65
:101F8000074441EB17414FEA154714EB0C4441EB72
:101F90001C4125EA074C02FB07F506FB07F70CFB83
:101FA00006F602FB0CFC16EB074645EB174516EB55
:101FB0000C4645EB1C42121951F1000148BF704715
:101FC000B619524141EB0101A3F1010370474FEAF9
:101FD00014454FEA114724EA054621EA074C05FB60
:101FE00007F106FB07F70CFB06F24FF0000605FBB6
:101FF0000CFC12EB074241EB174112EB0C4251EB88
:102000001C4148BF7047921841EB0101A3F1010345
:102010007047000010B52DED048B82B0FA480068BF
:1020200004280AD10422F9A1FA48FEF76FFA20B970
:10203000F9A1FB4803F04CFFACE2F34800680A2822
:102040000DD10A22F7A1F348FEF760FA38B9022051
:1020500002F0CEFEF0A1F24803F03AFF9AE2EA481D
:1020600000680D280DD10D22F1A1EA48FEF74EFAC5
:1020700038B90020F2490870E7A1E94803F028FFC9
:1020800088E2E14800680E280DD10E22EDA1E1485A
:10209000FEF73CFA38B90120E9490870DEA1E048B2
:1020A00003F016FF76E2D848006809280ED109220D
:1020B000E8A1D848FEF72AFA40B96FF0020002F012
:1020C00097FED5A1D64803F003FF63E2CE4800682F
:1020D0000D282ED10922E2A1CE48FEF717FA40BB07
:1020E0000020E2490860CB48407A39280DDCC94815
:1020F000407A302809DBC748407A303800EB80004E
:10210000096801EB4000D9490860C248807A392843
:102110000BDCC048807A302807DBBE48807A303834
:10212000D24909680844D1490860012002F060FEE4
:1021300030E2B548006808280ED10822CCA1B54885
:10214000FEF7E4F940B96FF0010002F051FEB2A1D0
:10215000B34803F0BDFE1DE2AB4800680A280CD16D
:102160000A22C6A1AB48FEF7D1F930B9AAA1AC4802
:1021700003F0AEFE03F062FA0CE2A34800680B28FD
:102180000DD10B22C0A1A348FEF7C0F938B9A2A116
:10219000A34803F09DFE042002F02AFEFAE19A48CB
:1021A00000680E283AD10622BAA19A48FEF7AEF985
:1021B00098BB99A19A4803F08BFE9648007A8DF857
:1021C00004009448407A8DF805009248807A8DF892
:1021D00006009048C07A8DF807008E488079612803
:1021E00012D0782802D0792815D106E0DDED010A59
:1021F000B0EE600A02F034FE0DE0DDED010AB0EE53
:10220000600A02F033FE06E0DDED010AB0EE600A7E
:1022100002F0B8FD00BF00BFBCE1FFE77A480068EC
:102220000A2829DB0A229DA17A48FEF76FF918BB1C
:1022300079A17B4803F04CFE76480A3005F098F807
:10224000B0EE408AF0EE608A51EC180B07F096F879
:1022500095490968086095A1714803F039FE00F0BE
:10226000B9FF0446912100F021FF93A16C4803F0CF
:102270002FFE03F0E3F98DE1634800680A283EDB96
:10228000092292A16348FEF741F9B8BB61480A30C0
:1022900005F06EF8B0EE409AF0EE609A51EC190B32
:1022A00007F06CF808EE100A5A48407A782804D0F3
:1022B000792807D07A280FD109E08748006880ED97
:1022C000008A09E08448006880ED018A04E08248C1
:1022D000006880ED028A00BF00BF74A1504803F07F
:1022E000F7FD00F077FF0446912100F0DFFE72A1B8
:1022F0004B4803F0EDFD03F0A1F94BE1FFE7424845
:1023000000680B2830D1082274A14248FEF7FEF87D
:1023100050BB41A1424803F0DBFD3E48007A312822
:1023200004D101207049096808700CE03948007A2E
:10233000302804D100206C490968087003E06BA1C3
:10234000374803F0C5FD59A1354803F0C1FD00F041
:1023500041FF0446912100F0A9FE57A1304803F047
:10236000B7FD03F06BF915E1274800680C282ED162
:10237000092264A12748FEF7C9F840BB26A12848D6
:1023800003F0A6FD2348407A312804D1012060499A
:10239000096808700CE01F48407A302804D10020FA
:1023A0005B490968087003E05AA11D4803F090FDDD
:1023B0003EA11B4803F08CFD00F00CFF0446912168
:1023C00000F074FE3CA1164803F082FDE2E00E48E6
:1023D0000068112816D10A2255A10E48FEF796F87A
:1023E00080B90DA10E4803F073FD0A24BAE0094834
:1023F000005D312807D10121A4F10A004F4A12687B
:102400001154AEE0C2E09BE04814002041540D0A94
:1024100000000000B83100204F4B0D0A0000000002
:102420000010014041542B626567696E0D0A00007F
:1024300041542B73746F7053656E640D0A00000075
:102440000C13002041542B626567696E53656E64FE
:102450000D0A000041542B73746F700D0A000000C8
:1024600041542B72657365743D0D0A004C140020B5
:1024700041542B7365740D0A0000000041542B7009
:1024800072696E740D0A000041542B737461746993
:10249000630D0A0041542B736574000041542B7383
:1024A00065746D696E3D0000701400207772697468
:1024B000696E670D0A0000007772697465206669AD
:1024C0006E69736865640D0A0000000041542B7347
:1024D00065747661720000007414002041542B6D05
:1024E0006F64653D00000000641400206D6F64653A
:1024F00020636F6D6D616E64206572726F720D0A7C
:102500000000000041542B7363616C653D000000C6
:102510006C1400207363616C654D6F646520636F9C
:102520006D6D616E64206572726F720D0A0000003D
:1025300041542B73656C6563743D00006814002082
:102540001748005D302806D10021A4F10A00154A81
:102550001268115405E0A4F10A0213A1174803F010
:10256000B7FC641C0F2CFFF642AFAFF2C00113485A
:1025700003F0AEFC00F02EFE0446912100F096FD23
:10258000AFF2CC010D4803F0A3FC03E00CA10B4813
:1025900003F09EFC05F076FD02B0BDEC048B10BD8F
:1025A000B83100206814002073656C6563742025C1
:1025B00064206572726F720D0A0000000010014005
:1025C0006572726F720D0A0070B52DED108B8CB0B4
:1025D000B0EE40AAF0EE608AB0EE418AB0EE619AA9
:1025E00004460D462AEE0A0A08EEA80A10EE101A52
:1025F000084607F0FFFC41EC1C0BB0EE4C0AF0EE75
:102600006C0A05F05DF8B0EE40BAF0EE60BA51EC3D
:102610001B0B06F0B3FE06461AEE100A07F0EAFCA2
:1026200041EC1C0B18EE900A07F0E4FC41EC1D0B8A
:10263000B0EE4C1AF0EE6C1AB0EE4D0AF0EE6D0AE8
:1026400004F09EFDB0EE40BAF0EE60BA51EC1B0B08
:1026500006F094FE09EE900ADFEDAC0A88EE200A3F
:10266000DFEDAB0A20EE200AB0EE408ADFEDA70ACC
:1026700089EE200ADFEDA60A20EE200AB0EE409A8D
:1026800019EE900A07F0B6FC41EC1D0BB0EE4D0AB6
:10269000F0EE6D0A04F088FEB0EE40BAF0EE60BADB
:1026A000304607F0A7FC41EC1C0B53EC1B2B07F04A
:1026B000ABF939EE290ACDE9060110EE101A0846E9
:1026C00007F098FC41EC1D0BB0EE4D0AF0EE6D0AE0
:1026D00004F06AFEB0EE40BAF0EE60BA304607F0A1
:1026E00089FC41EC1C0B53EC1B2B07F08DF9CDE959
:1026F000020118EE100A07F07DFC41EC1D0BB0EE54
:102700004D0AF0EE6D0A04F077FFB0EE40BAF0EE3D
:1027100060BA95ED000A10EE101A084607F06AFC40
:1027200041EC1C0B53EC1B2B07F06EF941EC1E0B1C
:1027300018EE100A07F05EFC41EC1D0BB0EE4D0ADE
:10274000F0EE6D0A04F030FEB0EE40BAF0EE60BA82
:1027500094ED000A10EE101A084607F04BFC41EC0D
:102760001C0B53EC1B2B07F04FF941EC1F0B53ECE8
:102770001E2B06F035FECDE900019DED020B53EC5A
:10278000102B9DED000B51EC100B06F029FECDE94E
:1027900004019DED060B53EC102B9DED040B51EC49
:1027A000100B07F03DFBCDE908019DED080B51EC46
:1027B000100B06F0E3FD0AEE900A19EE900A07F0FE
:1027C00019FC41EC1D0BB0EE4D0AF0EE6D0A04F061
:1027D00013FFB0EE40BAF0EE60BA304607F00AFCE4
:1027E00041EC1C0B53EC1B2B07F00EF939EE290AB8
:1027F000CDE9060110EE101A084607F0FBFB41EC8C
:102800001D0BB0EE4D0AF0EE6D0A04F0F5FEB0EED1
:1028100040BAF0EE60BA304607F0ECFB41EC1C0B1E
:1028200053EC1B2B07F0F0F8CDE9020118EE100A6B
:1028300007F0E0FB41EC1D0BB0EE4D0AF0EE6D0A27
:1028400004F0B2FDB0EE40BAF0EE60BA95ED000AC9
:1028500010EE101A084607F0CDFB41EC1C0B53ECB0
:102860001B2B07F0D1F841EC1E0B18EE100A07F0F5
:10287000C1FB41EC1D0BB0EE4D0AF0EE6D0A04F009
:10288000BBFEB0EE40BAF0EE60BA94ED000AB1EED5
:10289000400A10EE101A084607F0ACFB41EC1C0B86
:1028A00053EC1B2B07F0B0F841EC1F0B53EC1E2B25
:1028B00006F096FDCDE900019DED020B53EC102BC7
:1028C0009DED000B51EC100B06F08AFDCDE90401E3
:1028D0009DED060B53EC102B9DED040B51EC100BF2
:1028E00007F09EFACDE908019DED080B51EC100BA5
:1028F00006F044FD0A90C4ED00AA9DED0A0A85ED9C
:10290000000A0CB0BDEC108B70BD00000000344319
:10291000DB0F494000BFFEE71CB50121084601F06E
:10292000E7FD0121022001F0E3FD182000900120C5
:102930008DF8040000208DF8060001208DF80700B6
:1029400003208DF805006946104800F0CDFB4FF4D8
:102950001440009069460E4800F0C6FB10210B4859
:1029600000F02FFC0821094800F02BFC4FF48051A7
:10297000074800F026FC4FF40041054800F021FC18
:102980004FF48061024800F01CFC1CBD00000240B6
:102990000004024070B504460D46002612E006EB26
:1029A000C60202EB06126D4B03EB4212111D06EB41
:1029B000C60202EB061203EB42104FF44772FDF71A
:1029C000F0FD761C032EEADB654890ED000A6348B3
:1029D00080EDC70A624890ED010A624880EDC70A9F
:1029E0005F4890ED020A604880EDC70A002612E0B9
:1029F00006EBC60202EB06125C4B03EB4212111D02
:102A000006EBC60202EB061203EB42104FF44772CC
:102A1000FDF7C7FD761C032EEADB002025E000EB66
:102A2000C00101EB00114D4A02EB4111D1ED000A4A
:102A30009FED4F1A80EE810A05EB8001D1ED000A6F
:102A400030EEC00A00EBC00101EB001102EB4111B6
:102A5000D1EDC70A9FED461AC0EE811A30EE210A69
:102A600005EB800181ED000A401C0328D7DB3C48C0
:102A700090ED000AD5ED000A30EE600A3B4880ED8B
:102A8000C70A374890ED010AD5ED010A30EE600A19
:102A9000384880EDC70A324890ED020AD5ED020AA7
:102AA00030EE600A344880EDC70A2C4890ED000AE9
:102AB000B5EEC00AF1EE10FA11D190EDC80AB5EEEC
:102AC000C00AF1EE10FA0AD100F5806090ED900A8C
:102AD000B5EEC00AF1EE10FA01D1002070BD002061
:102AE00038E09FED260A04EB800181ED000A002109
:102AF0001FE000EBC00202EB00121C4B03EB421282
:102B000002EB8102D2ED000A00EBC00202EB0012E0
:102B100003EB421202EB810292ED001A04EB8102F8
:102B200092ED000A00EE810A04EB810282ED000AB8
:102B3000491CC829DDDB04EB8001D1ED000A9FEDC3
:102B40000C1A80EE810AF1EEC00A04EB8001C1ED9F
:102B5000000A401C0328C4DB0120BFE7781E0020C8
:102B60008814002098210020B82400201815002087
:102B70000000484338180020581B002000000000C7
:102B8000704700B5034604E04FF47A7000F004F893
:102B90005B1E002BF8D100BDA82141434FF0E0227D
:102BA00051610521116100BF4FF0E021096901F475
:102BB00080310029F8D004214FF0E02211617047E4
:102BC00010B52DED040B2DED048B88B0DDED0D0A55
:102BD000B0EE600AFDF77AFBF0EE408ADDED0E0AFA
:102BE000B0EE600AFDF772FBB7EE008A08EE808A4D
:102BF000DDED0C0AB0EE600AFDF768FBF0EE408AEE
:102C0000DDED0E0AB0EE600AFDF760FB08EE808A8B
:102C1000DDED0C0AB0EE600AFDF758FBF0EE408ADD
:102C2000DDED0D0AB0EE600AFDF750FB08EE808A7C
:102C3000DDED0C0AB0EE600AFDF7B4FBF0EE408A61
:102C4000DDED0D0AB0EE600AFDF7ACFB68EE808AA0
:102C5000DDED0E0AB0EE600AFDF7A4FB08EE808AF7
:102C6000B1EEC80AF6EE000A20EE200A10EE104A75
:102C7000204607F0BFF9CDE900019DED001BB0EE45
:102C8000410AF0EE610A9FED851B53EC112B51ECCC
:102C9000100B06F0B9FD10D19FED820B8DED000BEE
:102CA0009FED7E0B8DED020B9FED7C0B8DED040BEC
:102CB0009FED7A0B8DED060BE4E0DDED0C0AB0EE36
:102CC000600AFDF76FFBB0EE409ADDED0D0AB0EE45
:102CD000600AFDF767FBF0EE409ADDED0E0AB0EEFC
:102CE000600AFDF75FFB09EE809ADDED0C0AB0EE9D
:102CF000600AFDF757FBF0EE409ADDED0D0AB0EEED
:102D0000600AFDF7E3FA69EE809ADDED0E0AB0EE97
:102D1000600AFDF7DBFA09EE809AB1EE000AC9EE0F
:102D2000000A10EE904A204607F064F941EC180BB7
:102D30009DED001BB0EE410AF0EE610A53EC102B42
:102D400006F00AFCCDE90201DDED0D0AB0EE600AE5
:102D5000FDF728FBB0EE409ADDED0E0AB0EE600AFA
:102D6000FDF7B4FA29EE009ADDED0D0AB0EE600A27
:102D7000FDF7ACFAF0EE409ADDED0E0AB0EE600A17
:102D8000FDF710FB69EE809ADDED0C0AB0EE600AEB
:102D9000FDF708FB09EEC09ADDED0D0AB0EE600A02
:102DA000FDF700FBF0EE409ADDED0C0AB0EE600A94
:102DB000FDF78CFA09EE809AB1EE000AC9EE000A1E
:102DC00010EE904A204607F015F941EC180B9DEDE6
:102DD000001BB0EE410AF0EE610A53EC102B06F036
:102DE000BBFBCDE90401DDED0D0AB0EE600AFDF795
:102DF0006DFAB1EE409ADDED0E0AB0EE600AFDF715
:102E0000D1FA29EE009ADDED0D0AB0EE600AFDF769
:102E1000C9FAF0EE409ADDED0E0AB0EE600AFDF759
:102E200055FA69EE809ADDED0C0AB0EE600AFDF706
:102E3000B9FA09EE809ADDED0E0AB0EE600AFDF7F0
:102E4000B1FAF0EE409ADDED0C0AB0EE600AFDF743
:102E50003DFA09EEC09AB1EE000AC9EE000A10EE82
:102E6000904A204607F0C6F841EC180B9DED001B78
:102E7000B0EE410AF0EE610A53EC102B06F06CFB49
:102E8000CDE906019DED000B9DED021B9DED042B90
:102E90009DED063B08B0BDEC048B1FBD000000009B
:102EA00000000000000000000000F03F0149086041
:102EB000704700000C3C024070B504460A460026EC
:102EC000082502B909E0012A01D1160205E0022A0B
:102ED00001D1160201E04FF4407600F097F8054664
:102EE000082D28D11548006820F440701349086067
:102EF00008460068304308600846006820F0F80083
:102F000008600846006844F0020108430B49086065
:102F10000846006840F48030086000F077F8054605
:102F20000648006820F0020004490860084600686E
:102F300020F0F8000860284670BD0000103C0240F8
:102F400008201049096801F48031B1F5803F01D1B2
:102F5000012015E00B49096801F0100109B10520B5
:102F60000EE00849096801F0EF0109B1062007E009
:102F70000449096801F0020109B1072000E00820B6
:102F8000704700000C3C02400348006840F00040DD
:102F90000149086070470000103C024030B502460D
:102FA0000C46082500F032F80546082D17D10D48CB
:102FB000006820F440700B4908600846006808600B
:102FC0000846006840F001000860147000F01EF828
:102FD00005460448006820F00100024908602846C0
:102FE00030BD0000103C02400548006800F0004081
:102FF00028B1044802490C3908600348086070474A
:10300000103C024023016745AB89EFCD08B508208D
:103010000090FFF795FF009002E0FFF791FF00900E
:103020009DF800000128F8D09DF8000008BD704709
:1030300010B591210E4800F02DF80D480D4908609B
:1030400028300D49086028300C49086028300C49A8
:103050000860401C0B490860401D0B490860801C3B
:103060000A490860001D0A490860FFF7E0FF10BD2B
:1030700014320020581400205C140020601400203A
:1030800064140020681400206C14002070140020C8
:10309000741400200246002003E0034BC35C135469
:1030A000401C8842F9D370470000040870B50546FB
:1030B0000E46FFF799FFF320FFF7F8FE02213020BC
:1030C000FFF7FAFEFFF7A2FF002405E0295D054A9D
:1030D000A018FFF763FF641CB442F7D3FFF754FF57
:1030E00070BD000000000408F0B50A46002100236E
:1030F000002400BF3DE0012505FA01F3156805EA4B
:1031000003049C4234D105684F000326BE40B543FA
:10311000056015794E00B5400668354305601579A0
:10312000012D02D01579022D16D185684F00032696
:10313000BE40B543856055794E00B540866835433D
:103140008560456801268E40B5434560456896799F
:103150008E40B6B235434560C5684F000326BE4079
:10316000B543C560D5794E00B540C6683543C560E6
:10317000491C1029BFD3F0BDF0B5002300244D0732
:10318000ED0E02FA05F3CE1000F1200555F8265099
:103190004E07F70E0F26BE40B543CF1000F12006B4
:1031A00046F82750CE1000F1200555F8265045EA84
:1031B0000304CE1000F1200545F82640F0BD418300
:1031C0007047018370470000014800787047000095
:1031D00050140020004870471432002038B500BF5A
:1031E000EFF3098028B100BFEFF309801C490860A4
:1031F00004E000BFEFF30880194908601848006830
:1032000010301749086017A1194802F061FE00202C
:10321000009018A218A1164802F05AFE032418E0E4
:103220000F490968214401F11C00B0EE000A69460B
:1032300000F024F86A4610A10D4802F049FEE1179B
:1032400004EB91718910A4EB810109B902F070FDC2
:10325000641E14F11C0FE3DA02F06AFD00BFFEE702
:103260001C000020486172644661756C74000000A7
:1032700000100140307800002573000070B52DED7E
:10328000028B86B005460E46B0EE408A142239A164
:1032900001A8FDF786F93446002059E0B0EE000A97
:1032A000C8EE000AB6EE000A30EE800ABDEEC00A93
:1032B000B8EEC00AF0EE000A20EE200AB4EEC80A0A
:1032C000F1EE10FA01DD002814DCF0EE000A88EEC1
:1032D000200AF6EE000A30EE200ABDEEC00AB8EE73
:1032E000C00AF0EE000A20EE200AB4EE480AF1EE21
:1032F00010FA15D1F0EE000A88EE200AF6EE000A68
:1033000030EE200ABDEEC00A10EE101A2944091A48
:1033100011F8011C01AA02EB2111097804F8011B24
:10332000B0EE000AC8EE000AB6EE000A30EE800ADF
:10333000BDEEC00A10EE101A2944091A11F8011C3A
:1033400001F00F0101AA515C04F8011B411CC8B235
:10335000B0EE000AC8EE000AB6EE000A30EE800AAF
:10336000BDEEC00A10EE101A814297DC06B0BDEC2B
:10337000028B70BD30313233343536373839414203
:10338000434445460000000030B58BB000242022A5
:103390002DA103A8FDF705F933480068007810B1A6
:1033A000012808D103E000208DF8110003E0082077
:1033B0008DF8110000BF00BF6420FFF7E2FB802002
:1033C0006B23102229490090294801F08FFC01202D
:1033D000FFF7D7FB0520FFF7D4FB00242FE00025E3
:1033E00024A00068029000BF681CC5B2012000EB59
:1033F000440003A9085C009003A810F814301022C0
:103400001A491B4801F072FC2846FFF7BAFB052D4C
:1034100000DD012503A810F81430102213491448C8
:1034200001F0C6FB8DF808009DF80800012101EBB2
:10343000440103AA515C8842D6D1601CC4B20F2C4F
:10344000CDDB0BB030BD00006B006C001B081A0018
:1034500019071C001D0668006A101E0023001F00CB
:1034600037003800690000006C14002000000240A2
:1034700000300140FFFF000010B52DED0C8BB0EEC9
:10348000408AF0EE608A8548006890ED000A10EEF0
:10349000101A084606F0AEFD41EC1B0B9FED800BA9
:1034A000B0EE40AAF0EE60AA7F4890ED000BB0EEBF
:1034B000409AF0EE609A4FF4C4727C49A1F1080082
:1034C000FDF76FF853EC192B51EC180B06F0A8FC24
:1034D000764A083A02F5C47203C29FED710BB0EE52
:1034E00040AAF0EE60AA002422E07048083800EB01
:1034F000C40090ED002BB0EE420AF0EE620A6B4879
:10350000083800EBC40090ED002BB0EE421AF0EE4C
:10351000621A53EC102B51EC110B06F075FA41ECCA
:103520001C0B53EC1A2B05F05BFF41EC1A0B641CCF
:10353000322CDADB9FED5E0B53EC102B51EC1A0BA7
:1035400006F00AF841EC1A0B5B480068401C5A4927
:1035500008600846006864280FD2584890ED000BB8
:1035600053EC102B51EC180B05F03AFF534A03C2F1
:103570009FED4B0BBDEC0C8B10BD4F4800686428D1
:103580000DD19FED4F0B53EC102B4C4890ED000BE1
:1035900051EC100B05F0E0FF41EC190B02E0652047
:1035A00045490860484890ED000B53EC102B474804
:1035B00090ED000B51EC100B05F012FF444A03C2D2
:1035C00053EC1B2B424890ED000B51EC100B05F017
:1035D00007FF41EC1C0B53EC1C2B3D4890ED000BFE
:1035E00051EC100B05F0B8FF3A4A03C253EC192B0B
:1035F00051EC180B06F014FC41EC1D0B354890ED16
:10360000000B53EC102B51EC1D0B06F0FDF941ECB7
:103610001C0B53EC192B05F0E3FE234A03C22D4883
:1036200090ED000B53EC102B9FED2B0B51EC100B7E
:1036300006F0F6FB41EC1C0B254890ED000B53EC1B
:10364000102B51EC1C0B06F0DFF9204A03C2214875
:1036500090ED000B53EC102B90ED000B51EC100B88
:1036600006F0D2F941EC1C0B53EC1A2B06F0CCF906
:10367000154A03C29FED1A0B53EC102B154890ED21
:10368000000B51EC100B06F0BDFA02D2064880ED9B
:10369000008B054890ED000B6CE7000074140020CF
:1036A000000000000000000048130020102D002042
:1036B0000000000000004940781300207013002033
:1036C0000000000000C05840681300205013002084
:1036D0005813002060130020000000000000F03F9D
:1036E000000000000000E03F10B52DED0C8BB0EEA7
:1036F000408AF0EE608A8548006890ED010A10EE7D
:10370000101A084606F076FC41EC1B0B9FED800B6F
:10371000B0EE40AAF0EE60AA7F4890ED000BB0EE4C
:10372000409AF0EE609A4FF4C4727C49A1F108000F
:10373000FCF737FF53EC192B51EC180B06F070FB1C
:10374000764A083A02F5C47203C29FED710BB0EEDF
:1037500040AAF0EE60AA002422E07048083800EB8E
:10376000C40090ED002BB0EE420AF0EE620A6B4806
:10377000083800EBC40090ED002BB0EE421AF0EEDA
:10378000621A53EC102B51EC110B06F03DF941EC91
:103790001C0B53EC1A2B05F023FE41EC1A0B641C96
:1037A000322CDADB9FED5E0B53EC102B51EC1A0B35
:1037B00005F0D2FE41EC1A0B5B480068401C5A49E8
:1037C00008600846006864280FD2584890ED000B46
:1037D00053EC102B51EC180B05F002FE534A03C2B8
:1037E0009FED4B0BBDEC0C8B10BD4F48006864285F
:1037F0000DD19FED4F0B53EC102B4C4890ED000B6F
:1038000051EC100B05F0A8FE41EC190B02E065200D
:1038100045490860484890ED000B53EC102B474891
:1038200090ED000B51EC100B05F0DAFD444A03C299
:1038300053EC1B2B424890ED000B51EC100B05F0A4
:10384000CFFD41EC1C0B53EC1C2B3D4890ED000BC5
:1038500051EC100B05F080FE3A4A03C253EC192BD1
:1038600051EC180B06F0DCFA41EC1D0B354890EDDD
:10387000000B53EC102B51EC1D0B06F0C5F841EC7E
:103880001C0B53EC192B05F0ABFD234A03C22D484A
:1038900090ED000B53EC102B9FED2B0B51EC100B0C
:1038A00006F0BEFA41EC1C0B254890ED000B53ECE2
:1038B000102B51EC1C0B06F0A7F8204A03C221483C
:1038C00090ED000B53EC102B90ED000B51EC100B16
:1038D00006F09AF841EC1C0B53EC1A2B06F094F806
:1038E000154A03C29FED1A0B53EC102B154890EDAF
:1038F000000B51EC100B06F085F902D2064880ED62
:10390000008B054890ED000B6CE70000741400205C
:10391000000000000000000080130020A02E002006
:103920000000000000004940B0130020A813002050
:103930000000000000C05840A013002088130020A1
:103940009013002098130020000000000000F03FBA
:10395000000000000000E03F10B52DED0C8BB0EE34
:10396000408AF0EE608A8448006890ED020A10EE0A
:10397000101A084606F03EFB41EC1B0B9FED7F0B37
:10398000B0EE40AAF0EE60AA7E4890ED000BB0EEDB
:10399000409AF0EE609AC4227B49A1F10800FCF73E
:1039A00000FE53EC192B51EC180B06F039FA764A4D
:1039B000083A02F5C47203C29FED700BB0EE40AA44
:1039C000F0EE60AA002422E06F48083800EBC40043
:1039D00090ED002BB0EE420AF0EE620A6A48083819
:1039E00000EBC40090ED002BB0EE421AF0EE621A2C
:1039F00053EC102B51EC110B06F006F841EC1C0BAC
:103A000053EC1A2B05F0ECFC41EC1A0B641C322C25
:103A1000DADB9FED5E0B53EC102B51EC1A0B05F02B
:103A20009BFD41EC1A0B5B480068401C594908603B
:103A30000846006864280FD2574890ED000B53ECFD
:103A4000102B51EC180B05F0CBFC534A03C29FED31
:103A50004B0BBDEC0C8B10BD4E48006864280DD19B
:103A60009FED4E0B53EC102B4B4890ED000B51EC9F
:103A7000100B05F071FD41EC190B02E06520454982
:103A80000860484890ED000B53EC102B464890ED31
:103A9000000B51EC100B05F0A3FC444A03C253EC9D
:103AA0001B2B424890ED000B51EC100B05F098FCDD
:103AB00041EC1C0B53EC1C2B3C4890ED000B51ECE3
:103AC000100B05F049FD3A4A03C253EC192B51EC97
:103AD000180B06F0A5F941EC1D0B354890ED000BD5
:103AE00053EC102B51EC1D0B05F08EFF41EC1C0B21
:103AF00053EC192B05F074FC224A03C22C4890EDBC
:103B0000000B53EC102B9FED2B0B51EC100B06F020
:103B100087F941EC1C0B254890ED000B53EC102B62
:103B200051EC1C0B05F070FF1F4A03C2204890EDBA
:103B3000000B53EC102B90ED000B51EC100B05F02B
:103B400063FF41EC1C0B53EC1A2B05F05DFF154A8B
:103B500003C29FED1A0B53EC102B154890ED000B90
:103B600051EC100B06F04EF802D2064880ED008BA7
:103B7000044890ED000B6CE7741400200000000076
:103B80000000000010130020802B00200000000027
:103B900000004940401300203813002000000000BE
:103BA00000C05840301300201813002020130020BC
:103BB00028130020000000000000F03F000000007B
:103BC0000000E03F00BFFEE700BFFEE770B5002148
:103BD00000230F22C4781CB3174C246804F4E0645B
:103BE000C4F5E064C4F30721C1F10404E3B20A415F
:103BF00044789C40E1B28478144021430C07210EA4
:103C00000E4C05786155047804F01F050124AC4082
:103C100005786D11AD0005F1E025C5F8004109E01A
:103C2000047804F01F050124AC40054D0678761198
:103C300045F8264070BD00000CED00E000E400E017
:103C400080E100E002490143024A11607047000030
:103C50000000FA050CED00E010B52DED0E0B2DED7A
:103C60000C8BA8B09DED3C1BB0EE410AF0EE610A52
:103C70009FEDFE1B53EC112B51EC100B05F06CFC6F
:103C800041EC180B9FEDFB0B53EC102B05F0BCFE29
:103C9000CDE93C019DED3E1BB0EE410AF0EE610A1C
:103CA0009FEDF21B53EC112B51EC100B05F054FC63
:103CB00041EC180B9FEDEF0B53EC102B05F0A4FE1D
:103CC000CDE93E019DED401BB0EE410AF0EE610AE8
:103CD0009FEDE61B53EC112B51EC100B05F03CFC57
:103CE00041EC180B9FEDE30B53EC102B05F08CFE11
:103CF00041914090202120A8FCF785FC202118A8A4
:103D0000FCF781FC202110A8FCF77DFC202108A8ED
:103D1000FCF779FC20216846FCF775FC012494E14E
:103D20009DED340B8DED000B9DED360B8DED020BF3
:103D30009DED380B8DED040B9DED3A0B8DED060BD3
:103D4000012C06D0022C16D0032C7DD0042C11D1CE
:103D500017E19DED406B9DED3E5B9DED3C4B20A83A
:103D60009DED063B9DED042B9DED021B9DED000B93
:103D700004F098F967E19DED201BB0EE410AF0EEEA
:103D8000610A9FEDBE1B53EC112B51EC100B05F09B
:103D9000E3FB41EC180B9DED001BB0EE410AF0EE89
:103DA000610A53EC102B05F01BFBCDE900019DEDE2
:103DB000221BB0EE410AF0EE610A9FEDB01B53ECFE
:103DC000112B51EC100B05F0C7FB41EC180B9DEDCE
:103DD000021BB0EE410AF0EE610A53EC102B05F025
:103DE000FFFACDE902019DED241BB0EE410AF0EE91
:103DF000610A9FEDA21B53EC112B51EC100B05F047
:103E0000ABFB41EC180B9DED041BB0EE410AF0EE4C
:103E1000610A53EC102B05F0E3FACDE904019DEDA6
:103E2000261BB0EE410AF0EE610A9FED941B53ECA5
:103E3000112B51EC100B05F08FFB41EC180B9DED95
:103E4000061BB0EE410A00E019E0F0EE610A53EC07
:103E5000102B05F0C5FACDE906019DED406B9DEDF7
:103E60003E5B9DED3C4B18A89DED063B9DED042B64
:103E70009DED021B9DED000B04F014F9E3E09DEDB8
:103E8000181BB0EE410AF0EE610A9FED7C1B53EC6B
:103E9000112B51EC100B05F05FFB41EC180B9DED65
:103EA000001BB0EE410AF0EE610A53EC102B05F056
:103EB00097FACDE900019DED1A1BB0EE410AF0EE34
:103EC000610A9FED6E1B53EC112B51EC100B05F0AA
:103ED00043FB41EC180B9DED021BB0EE410AF0EEE6
:103EE000610A53EC102B05F07BFACDE902019DED40
:103EF0001C1BB0EE410AF0EE610A9FED601B53EC13
:103F0000112B51EC100B05F027FB41EC180B9DED2C
:103F1000041BB0EE410AF0EE610A53EC102B05F0E1
:103F20005FFACDE904019DED1E1BB0EE410AF0EEF3
:103F3000610A9FED521B53EC112B51EC100B05F055
:103F40000BFB41EC180B9DED061BB0EE410AF0EEA9
:103F5000610A53EC102B05F043FACDE906019DED03
:103F6000406B9DED3E5B9DED3C4B10A89DED063BEF
:103F70009DED042B9DED021B9DED000B04F092F8CE
:103F800061E09DED102BB0EE420AF0EE620A9DED6D
:103F9000002BB0EE421AF0EE621A53EC102B51ECEB
:103FA000110B05F01DFACDE900019DED122BB0EECD
:103FB000420AF0EE620A9DED022BB0EE421AF0EEDC
:103FC000621A53EC102B51EC110B05F009FACDE9F4
:103FD00002019DED142BB0EE420AF0EE620A9DED57
:103FE000042BB0EE421AF0EE621A53EC102B51EC97
:103FF000110B05F0F5F9CDE904019DED162BB0EE9E
:10400000420AF0EE620A9DED062BB0EE421AF0EE87
:10401000621A53EC102B51EC110B05F0E1F9CDE9CC
:1040200006019DED406B9DED3E5B9DED3C4B08A870
:104030009DED063B9DED042B9DED021B9DED000BC0
:1040400004F030F800BF00BF641C052CFFF668AE1A
:104050009DED101BB0EE410AF0EE610A53EC102BFF
:104060009FED061B51EC110B0CE00000000000005E
:104070000080664000000060FB2109400000000055
:104080000000004005F0C0FC41EC1B0B9DED181B2F
:10409000B0EE410AF0EE610A53EC102B1FED091B44
:1040A00051EC110B05F0B0FC41EC1D0B9DED201BFC
:1040B000B0EE410AF0EE610A53EC102B05F090F9D6
:1040C00041EC1C0B53EC1B2B05F08AF941EC1A0B4D
:1040D0009DED081BB0EE410AF0EE610A53EC102B87
:1040E00005F07EF941EC190B9FED8B0B53EC102B77
:1040F00005F08AFC41EC180B9DED341BB0EE410A33
:10410000F0EE610A53EC102B05F06AF9CDE93401A9
:104110009DED121BB0EE410AF0EE610A53EC102B3C
:104120001FED2A1B51EC110B05F06EFC41EC1B0B33
:104130009DED1A1BB0EE410AF0EE610A53EC102B14
:104140001FED321B51EC110B05F05EFC41EC1D0B19
:104150009DED221BB0EE410AF0EE610A53EC102BEC
:1041600005F03EF941EC1C0B53EC1B2B05F038F924
:1041700041EC1A0B9DED0A1BB0EE410AF0EE610A0C
:1041800053EC102B05F02CF941EC190B9FED620B51
:1041900053EC102B05F038FC41EC180B9DED361B51
:1041A000B0EE410AF0EE610A53EC102B05F018F95D
:1041B000CDE936019DED141BB0EE410AF0EE610A27
:1041C00053EC102B1FED531B51EC110B05F01CFC95
:1041D00041EC1B0B9DED1C1BB0EE410AF0EE610A99
:1041E00053EC102B1FED5B1B51EC110B05F00CFC7D
:1041F00041EC1D0B9DED241BB0EE410AF0EE610A6F
:1042000053EC102B05F0ECF841EC1C0B53EC1B2B82
:1042100005F0E6F841EC1A0B9DED0C1BB0EE410ADF
:10422000F0EE610A53EC102B05F0DAF841EC190BB3
:104230009FED390B53EC102B05F0E6FB41EC180B0E
:104240009DED381BB0EE410AF0EE610A53EC102BE5
:1042500005F0C6F8CDE938019DED161BB0EE410A18
:10426000F0EE610A53EC102B1FED7C1B51EC110B8F
:1042700005F0CAFB41EC1B0B9DED1E1BB0EE410A85
:10428000F0EE610A53EC102B1FED841B51EC110B67
:1042900005F0BAFB41EC1D0B9DED261BB0EE410A6B
:1042A000F0EE610A53EC102B05F09AF841EC1C0B70
:1042B00053EC1B2B05F094F841EC1A0B9DED0E1BF3
:1042C000B0EE410AF0EE610A53EC102B05F088F8CD
:1042D00041EC190B9FED100B53EC102B05F094FBE8
:1042E00041EC180B9DED3A1BB0EE410AF0EE610A6D
:1042F00053EC102B05F074F8CDE93A019DED340B29
:104300009DED361B9DED382B9DED3A3B28B0BDEC65
:104310000C8B0EB010BD000057D4E6535555C53F69
:1043200010B52DED080B2DED0C8B84B09DED101B01
:10433000B0EE410AF0EE610A51EC100B05F01EF8E8
:1043400008EE900A9DED121BB0EE410AF0EE610AF4
:1043500051EC100B05F012F808EE100A9DED141B3D
:10436000B0EE410AF0EE610A51EC100B05F006F8D0
:1043700009EE100A9DED161BB0EE410AF0EE610A3F
:1043800051EC100B04F0FAFF09EE900A28EEA80A8F
:1043900008EE080A09EE090A09EEA90A10EE101A39
:1043A000084605F027FE41EC1C0BB0EE4C0AF0EE7F
:1043B0006C0A03F085F9B0EE40BAF0EE60BA51EC49
:1043C0001B0B04F0DBFF0AEE100A88EE8A0AF0EEFF
:1043D000408A88EE0A0AB0EE408A89EE0A0AB0EEF8
:1043E000409A89EE8A0AF0EE409A69EE290A48EE70
:1043F000880AB0EE001A60EE810AB0EE600A04F09E
:1044000019FD8DED010A29EEA90A09EE490A08EE07
:10441000480A08EEA80A10EE101A084605F0EAFD50
:1044200041EC1C0BB8EE000A28EE000A20EE290A27
:10443000F0EE000A68EEA00A00EE890A10EE101AEB
:10444000084605F0D7FD41EC1D0BB0EE4C1AF0EE1E
:104450006C1AB0EE4D0AF0EE6D0A02F091FEB0EE6D
:1044600040BAF0EE60BA51EC1B0B04F087FF0290EB
:1044700029EE090A09EEE90A08EEA80A08EE480A38
:1044800010EE101A084605F0B5FD41EC1C0BB0EE1D
:10449000000A28EE000A20EE090AF0EE000A68EE93
:1044A000A00A00EEE90A10EE101A084605F0A2FD77
:1044B00041EC1D0BB0EE4C1AF0EE6C1AB0EE4D0A4A
:1044C000F0EE6D0A02F05CFEB0EE40BAF0EE60BABB
:1044D00051EC1B0B04F052FF03909DED010ADDED42
:1044E000020A9DED031A04B0BDEC0C8B08B010BDA0
:1044F00029B1064A12680243044B1A6004E0034AD9
:1045000012688243014B1A60704700003038024045
:1045100029B1064A12680243044B1A6004E0034AB8
:1045200012688243014B1A60704700004038024015
:1045300029B1064A12680243044B1A6004E0034A98
:1045400012688243014B1A60704700002038024015
:1045500029B1064A12680243044B1A6004E0034A78
:1045600012688243014B1A607047000044380240D1
:1045700029B1064A12680243044B1A6004E0034A58
:1045800012688243014B1A607047000024380240D1
:10459000F0B5002100220024022500260223324F1C
:1045A0003F6807F00C0121B1042905D0082937D153
:1045B00005E02E4F076036E02D4F076033E02A4FAD
:1045C0003F1F3F68C7F38056274F3F1F3F6807F0E4
:1045D0003F036EB1264FB7FBF3F7DFF88CC0ACF1A9
:1045E000040CDCF800C0CCF3881C07FB0CF40CE0D6
:1045F0001E4FB7FBF3F7DFF870C0ACF1040CDCF82A
:1046000000C0CCF3881C07FB0CF4174F3F1F3F681A
:10461000C7F301477F1C7D00B4FBF5F7076002E09C
:10462000124F076000BF00BF0F4F3F6807F0F00157
:104630000909104F7A5C0768D74047600A4F3F6806
:1046400007F4E051890A0B4F7A5C4768D7408760CE
:10465000054F3F6807F46041490B064F7A5C476895
:10466000D740C760F0BD0000083802400024F400C5
:1046700000127A007814002010B52DED028B86B060
:1046800018216846FBF7BFFF904890ED000ADFED68
:10469000900A80EE201A11EE104A204605F0AAFC7E
:1046A00041EC180B8B4890ED001BB0EE410AF0EE88
:1046B000610A53EC102B51EC180B05F0A5F9CDE96C
:1046C0000001824890ED000ADFED810A80EE201A99
:1046D00011EE104A204605F08DFC41EC180B7D4888
:1046E00090ED021BB0EE410AF0EE610A53EC102B84
:1046F00051EC180B05F088F9CDE90201734890EDF3
:10470000000ADFED730A80EE201A11EE104A2046EF
:1047100005F070FC41EC180B6E4890ED041BB0EEF8
:10472000410AF0EE610A53EC102B51EC180B05F026
:104730006BF9CDE90401684890ED000A10EE101AFB
:10474000084605F057FC41EC180B9DED001BB0EE40
:10475000410AF0EE610A53EC102B05F061FB5F4A51
:1047600003C25D4890ED010A10EE101A084605F0EC
:1047700041FC41EC180B9DED021BB0EE410AF0EE3E
:10478000610A53EC102B05F04BFB544AC2E90201BD
:10479000514890ED020A10EE101A084605F02AFC66
:1047A00041EC180B9DED041BB0EE410AF0EE610ADE
:1047B00053EC102B05F034FB484AC2E904011046C3
:1047C00090ED001BB0EE410AF0EE610AFEF754FED8
:1047D000424880ED000B90ED021BB0EE410AF0EE76
:1047E000610AFEF781FF3D4880ED020B90ED041B4E
:1047F000B0EE410AF0EE610AFFF7AEF8374880EDFF
:10480000040B37480068401C3549086008460068BA
:1048100040F6BA31884256D131480068401E3049CE
:104820000860304890ED000A10EE101A084605F0B6
:10483000E1FB41EC180B294890ED001BB0EE410A5A
:10484000F0EE610A53EC102B51EC180B05F010FA46
:10485000224A03C2234890ED010A10EE101A0846BE
:1048600005F0C8FB41EC180B1C4890ED021BB0EEA4
:10487000410AF0EE610A53EC102B51EC180B05F0D5
:10488000F7F9164AC2E90201164890ED020A10EE45
:10489000101A084605F0AEFB41EC180B0F4890EDDE
:1048A000041BB0EE410AF0EE610A53EC102B51EC00
:1048B000180B05F0DDF9094AC2E90401012006B030
:1048C000BDEC028B10BD0020F9E700000C000020B9
:1048D0000000C842382B002088140020082B00203C
:1048E00004130020202B002000B587B0012108030D
:1048F000FFF72EFE01210846FFF7FAFD05221146BB
:104900002348FEF739FC052206212148FEF734FC36
:10491000052207211E48FEF72FFCE020059002200B
:104920008DF8180000208DF81A0001208DF81B006A
:1049300003208DF8190005A91548FEF7D5FB154889
:1049400000F08AF80020ADF800004FF48270ADF856
:1049500002000020ADF804000220ADF8060001209E
:10496000ADF808004002ADF80A001820ADF80C00C0
:104970000020ADF80E000720ADF81000694605488C
:1049800000F0A4F80121034800F05AF807B000BD78
:10499000000002400030014000B587B001218803CB
:1049A000FFF7B6FD01210220FFF7A2FD05220D2130
:1049B0002148FEF7E1FB05220E211F48FEF7DCFB34
:1049C0004FF4C040059002208DF8180000208DF8AB
:1049D0001A0001208DF81B0003208DF8190005A98D
:1049E0001548FEF781FB154800F036F84FF480605B
:1049F000ADF800004FF48270ADF802000020ADF871
:104A00000400ADF806000120ADF808004002ADF842
:104A10000A002020ADF80C000020ADF80E000720A1
:104A2000ADF810006946054800F050F80121034830
:104A300000F006F807B000BD000402400038004056
:104A400021B1028842F04002028004E002884FF661
:104A5000BF731A400280704710B504461148844263
:104A600008D101218014FFF783FD0021A014FFF776
:104A70007FFD16E00C48844208D101210014FFF7A5
:104A800057FD00212014FFF753FD0AE00748844238
:104A900007D10121C013FFF74BFD0021E013FFF701
:104AA00047FD10BD0030014000380040003C004090
:104AB0000246002013890B400BB1012000E00020CA
:104AC00070470146888970478181704710B5002280
:104AD000028802F441520B884C8823438C8823437C
:104AE000CC8823430C8923434C8923438C8923435B
:104AF000CC8923431A430280838B4FF2FF742340F7
:104B000083830B8A038210BD2DE9F04780460E4651
:104B100017461C46DDE9089A44F08004012140460E
:104B2000FFF78EFF39463046FEF749FB00BF0221F2
:104B30004046FFF7BDFF0028F9D021464046FFF769
:104B4000C3FF00BF01214046FFF7B2FF0028F9D0A4
:104B50004046FFF7B6FF002517E000BF02214046A0
:104B6000FFF7A6FF0028F9D000214046FFF7ACFF71
:104B700000BF01214046FFF79BFF0028F9D04046C7
:104B8000FFF79FFF09F805006D1C5545E5D300BFF1
:104B900080214046FFF78CFF0128F9D000214046D4
:104BA000FFF74EFF39463046FEF70BFBBDE8F087B6
:104BB0002DE9F04180460D4616461C4644F080041F
:104BC00001214046FFF73CFF31462846FEF7F7FA41
:104BD00000BF02214046FFF76BFF0028F9D02146B5
:104BE0004046FFF771FF00BF01214046FFF760FF1D
:104BF0000028F9D04046FFF764FF00BF022140467D
:104C0000FFF756FF0028F9D000214046FFF75CFF70
:104C100000BF01214046FFF74BFF0028F9D0404676
:104C2000FFF74FFFC7B200BF80214046FFF740FFAC
:104C30000128F9D000214046FFF702FF31462846FF
:104C4000FEF7BFFA3846BDE8F0810000F8B504462B
:104C5000012C04D101032348FEF7B1FA05E024B981
:104C60004FF400411F48FEF7AAFA0120FDF794FF18
:104C700001211D48FFF7E4FE00250FE000BF1A48A0
:104C80000830008800F001000028F8D016480C30E9
:104C90000088C0B20DF80500681CC5B2032DEDDB1D
:104CA000012C04D121030F48FEF78BFA05E024B94B
:104CB0004FF400410B48FEF784FA00210A48FFF741
:104CC000BFFE9DF8000000049DF8011040EA01209D
:104CD0009DF8021040EA01063220FDF75DFF300B1F
:104CE000F8BD000000040240003800402DE9F0410A
:104CF00007460C4615461E46DDF818800121384649
:104D0000FFF79EFE29462046FEF759FA00BF022112
:104D10003846FFF7CDFE0028F9D031463846FFF778
:104D2000D3FE00BF01213846FFF7C2FE0028F9D0AC
:104D30003846FFF7C6FE00BF02213846FFF7B8FE2F
:104D40000028F9D041463846FFF7BEFE00BF0121DA
:104D50003846FFF7ADFE0028F9D03846FFF7B1FE20
:104D600000BF80213846FFF7A3FE0128F9D00021BB
:104D70003846FFF765FE29462046FEF722FABDE8D1
:104D8000F081704700B52DED028B83B0B0EE408A04
:104D90009FED130A8DED000A9FED110A8DED010ABA
:104DA000DFED100A88EE200ADFED0F0A20EE200A60
:104DB0008DED020A9DED021ADDED010A9DED000A5E
:104DC000FDF7FEFE094880ED000B80ED021B80ED33
:104DD000042B80ED063B03B0BDEC028B00BD000050
:104DE0000000000000003443DB0F4940E0120020C7
:104DF000411D0A2930D2DFE801F0282F211A2F2F78
:104E0000050C2F131549097841F00101134A11705F
:104E100022E01249097841F00201104A11701BE0AA
:104E20000E49097841F004010C4A117014E00B4955
:104E3000097821F00101094A11700DE0074909784C
:104E400021F00201054A117006E00449097821F0B9
:104E50000401024A117000BF00BF704750140020C7
:104E6000014880ED000A7047F4130020014880EDEE
:104E7000000A7047F81300200CB500200190009044
:104E80003448006840F480303249086000BF31483F
:104E9000006800F4003000900198401C01900098D8
:104EA00018B90198B0F5A06FF1D12A48006800F454
:104EB000003010B10120009001E000200090009827
:104EC000012846D123484030006840F080502149F5
:104ED000403108602048006840F480401E49086066
:104EE0001C48083000681B49083108600846006803
:104EF00040F4004008600846006840F4A050086094
:104F00001648091F0860081F006840F08070091FDC
:104F1000086000BF0F48006800F000700028F9D05A
:104F200040F205600E4908600A480830006820F029
:104F300003000849083108600846006840F0020094
:104F4000086000BF03480830006800F00C00082823
:104F5000F8D10CBD003802400070004008544007F2
:104F6000003C024010B51548006840F47000134939
:104F700008601348006840F00100114908600020F3
:104F80000F49083108600E4800680E4908400C4976
:104F900008600D48091D0860081F006820F4802083
:104FA000091F0860002006490C310860FFF764FF04
:104FB0004FF0006001498039086010BD88ED00E0C5
:104FC00000380240FFFFF6FE1030002410B501212A
:104FD000044800F02AF9012803D10121014800F01A
:104FE00015F910BD0000014000B58BB00121880704
:104FF00000F01BF901287DD10121800700F006F99E
:1050000052480068401C5149086051480068401CE3
:105010004F4908604D4890ED000AB8EE400AF1EEA5
:10502000040AB4EEE00AF1EE10FA05DB002047496D
:10503000086001204749087003F054FD03F0E8FDC3
:1050400001A803F047FD02A803F028FD424890EDB7
:10505000000ADDED020A30EE200A80ED000A90ED34
:10506000010ADDED030A30EE200A80ED010A90ED21
:10507000020ADDED040A30EE200A80ED020A37480C
:1050800090ED000ADDED010A30EE200A80ED000A05
:105090002F480068042809D10020FFF7D7FD3049C8
:1050A00008800120FFF7D2FD2D494880284800687C
:1050B000052848D12B480078401C2A490870002058
:1050C00023490860244890ED000AF1EE040A80EEBE
:1050D000201A254880ED001A1F4890ED010AF1EED4
:1050E000040A80EE201A204880ED011A1A4890ED3B
:1050F000020A00E023E0F1EE040A80EE201A1A48CA
:1051000080ED021A154890ED000AF1EE040A80EED7
:10511000201A164880ED001A9FED150A0E4880ED02
:10512000000A9FED130A80ED010A9FED110A80ED40
:10513000020A9FED0F0A094880ED000A03E00DA165
:105140000F4800F0C5FE0BB000BD000004000020B9
:105150001400002008000020D014002018000020B7
:105160001014002010000020881400200C000020E3
:105170000000000054494D32206572726F720000C9
:105180000010014010B50121044800F04EF801283C
:1051900003D10121014800F039F810BD000400409E
:1051A00010B50121044800F040F8012803D1012185
:1051B000014800F02BF810BD0008004010B5012197
:1051C000044800F032F8012803D10121014800F021
:1051D0001DF810BD000C004010B50121044800F07E
:1051E00024F8012803D10121014800F00FF810BD77
:1051F0000004014021B1028842F08002028004E0F4
:1052000002884FF67F731A4002807047CA430282B9
:10521000704721B1028842F00102028004E0028856
:105220004FF6FE731A400280704730B502460020E8
:1052300000230024158A05EA0103958905EA010483
:1052400013B10CB1012000E0002030BD1AB18389F8
:105250000B43838102E083898B4383817047000085
:105260002DE9FF4104460D4616461F46DDF828800D
:105270006949601A8C4270D01ADC6849A4EB0100BD
:105280008C426CD00ADCB4F1804F4ED0644820448C
:10529000002852D0B0F5806F71D156E0B0F5806F24
:1052A00065D0B0F5006F6CD0B0F5406FF4D170E010
:1052B000B0F5923F21D009DCB0F5806F7AD0B0F51F
:1052C000644F0AD0B0F5684F7CD10EE0B0F5943F42
:1052D0001BD0B0F5963F75D11FE001210846FFF7BE
:1052E00037F919208DF800006DE001210220FFF749
:1052F0002FF92C208DF8000065E001210804FFF74C
:1053000027F918208DF800005DE001211920FFF732
:105310001FF92C208DF8000055E001218804FFF7CB
:1053200017F91A208DF800004DE001210846FFF71B
:10533000EFF81C208DF8000045E001210220FFF766
:10534000E7F81D208DF800003DE001210420FFF763
:10535000DFF81E208DF8000035E023E0FFE7012193
:105360000820FFF7D5F832208DF800002BE001214E
:105370001020FFF7CDF836208DF8000023E021E063
:10538000FFE701212020FFF7C3F837208DF8000048
:1053900019E001214020FFF7BBF82B208DF8000019
:1053A00011E007E001218020FFF7B2F82C208DF8F2
:1053B000000008E001210802FFF7AAF82D208DF86F
:1053C000000000E000BF00BF0295ADF804600020BF
:1053D000ADF80C00ADF8060001A9204600F07EF8FB
:1053E00001212046FFF712FF012211462046FFF758
:1053F0002DFFF8B28DF8010008F0FF008DF80200D3
:1054000001208DF803006846FEF7E0FB01212046ED
:10541000FFF7FFFEBDE8FF81001C0040000C0040CC
:1054200000FCFFBF70B5002400220023058C4FF65E
:10543000FF6635400584028C8388848B4FF68F7518
:105440002C404FF6FC752C400D882C434FF6FF5531
:105450002A408D894FF6FF7606EA05252A434D88B6
:1054600006EA05252A43154DA84202D0144DA8424C
:105470001DD14FF2FF752A40CD894FF6FF7606EA1F
:1054800005252A434FF6FF352A408D8806EA052573
:105490002A434EF6FF752B404DF6FF752B400D8AC3
:1054A00006EA05152B434D8A06EA05152B43838032
:1054B00084838D68C563028470BD000000000140D4
:1054C000000401400A460021818B4FF6F773194012
:1054D000114381837047C163704700000022028836
:1054E000184B98420ED0184B98420BD0B0F1804F19
:1054F00008D0164B984205D0154B984202D0154B58
:10550000984204D14FF68F731A404B881A43124BBE
:10551000984207D0114B984204D04FF6FF431A40EF
:105520000B891A4302804B68C3620B880385054BC5
:10553000984202D0044B984201D18B7A0386012312
:1055400083827047000001400004014000040040D5
:1055500000080040000C0040001000400014004013
:1055600010B52DED028B3048007810B1012846D1DE
:1055700022E02E480068401C2C490860084600685C
:1055800000EB8000800000EE100AB8EE400ADFED6C
:10559000280A20EE200AB3EE0E1AC0EE010A9FED93
:1055A000251A80EE810AF3EE090A30EE200AB0EEE9
:1055B000408A03F0BBFC22E01C480068401E1B49E7
:1055C00008600846006800EB8000800000EE100ACA
:1055D000B8EE400ADFED160A60EE200AB3EE0E1AAE
:1055E00080EE810A9FED131AC0EE010AB3EE090A9C
:1055F00030EE800AB0EE408A03F098FC00BF00BF96
:105600000A4800680C49884203D101200649087005
:1056100005E00648006810B90320034908700248F5
:105620000078BDEC028B10BD441400204014002013
:105630000AD7A33B00007042407E050010B52DED57
:10564000028B84B0FDF7C6FD04469121FDF722FDD3
:1056500054A1574800F03CFC002414E05548006871
:1056600000EBC40090ED001BB0EE410AF0EE610AC1
:1056700051EC100B03F082FE08EE100AB0EE480A5F
:1056800000F0AAFC641C052CE8DB4BA1484800F0A4
:105690001FFC002414E04C48006800EBC40090EDAF
:1056A000001BB0EE410AF0EE610A51EC100B03F062
:1056B00065FE08EE100AB0EE480A00F08DFC641C8E
:1056C000052CE8DB41A13A4800F002FC002414E07C
:1056D0004248006800EBC40090ED001BB0EE410AA8
:1056E000F0EE610A51EC100B03F048FE08EE100AD0
:1056F000B0EE480A00F070FC641C052CE8DB38486A
:105700000068027837A12A4800F0E2FB3A480068B6
:10571000007939490968C978374A12689278CDE921
:1057200000210290344800684378334800680278CA
:1057300032A11F4800F0CCFB39480068027839A13B
:105740001B4800F0C5FB3BA1194800F0C1FB3C48D9
:105750000068D0ED000AB0EE600A00F03DFC39A10F
:10576000134800F0B5FB3A480068D0ED000AB0EEEF
:10577000600A00F031FC36480068D0ED010AB0EE56
:10578000600A00F029FC32480068D0ED020AB0EE51
:10579000600A00F021FC00F0CBFA04B0BDEC028BF3
:1057A00010BD0000636861727457583A0D0A00001A
:1057B00000100140581400200D0A6368617274578C
:1057C000593A0D0A000000005C1400200D0A6368BD
:1057D000617274575A3A0D0A0000000060140020EC
:1057E000641400200D0A63686172744D6F64653A39
:1057F0000D0A256400000000681400200D0A63688B
:1058000061727453656C6563743A0D0A25640925E9
:10581000640925640925640925640D0A0000000057
:105820006C1400207363616C654D6F64653A2025CC
:10583000640D0A006D696E56616C75653A0D0A005B
:10584000701400200D0A76617258595A3A202000CF
:105850007414002010B52DED0C8BB5480068B0F520
:10586000166F7CD3B248006840F6B831884276D2D1
:10587000B04890ED000A10EE101A084604F0BAFB8A
:1058800041EC190BAC4890ED001BB0EE410AF0EE74
:10589000610A53EC102B51EC190B03F0A1FD41EC04
:1058A000180B03F06BFDA3490860084690ED010A50
:1058B00010EE101A084604F09DFB41EC190B9E48AF
:1058C00090ED021BB0EE410AF0EE610A53EC102B92
:1058D00051EC190B03F084FD41EC180B03F04EFD65
:1058E00094494860084690ED020A10EE101A0846E6
:1058F00004F080FB41EC190B8F4890ED041BB0EED7
:10590000410AF0EE610A53EC102B51EC190B03F035
:1059100067FD41EC180B03F031FD8649886087482C
:1059200090ED000A10EE101A084604F063FB41ECFB
:10593000180B834890ED001BB0EE410AF0EE610AAF
:1059400053EC102B51EC180B03F04AFD7C4A03C2B8
:105950007A4890ED010A10EE101A084600E02EE099
:1059600004F048FB41EC180B754890ED021BB0EEBB
:10597000410AF0EE610A53EC102B51EC180B03F0C6
:105980002FFD6F4AC2E902016C4890ED020A10EE49
:10599000101A084604F02EFB41EC180B684890EDF5
:1059A000041BB0EE410AF0EE610A53EC102B51ECEF
:1059B000180B03F015FD624AC2E90401B5E05C482A
:1059C000006840F6B83188427ED159480068401CD2
:1059D00057490860574890ED000ADFED5A0A80EEFB
:1059E000201A80ED001A90ED010ADFED560A80EED4
:1059F000201A80ED011A90ED020ADFED520A80EEC6
:105A0000201A80ED021A4E4890ED001BB0EE410ABC
:105A1000F0EE610A9FED4C1B53EC112B51EC100B77
:105A200003F09AFD464A03C2454890ED021BB0EED2
:105A3000410AF0EE610A9FED441B53EC112B51EC2F
:105A4000100B03F089FD3E4AC2E90201104690EDB9
:105A5000041BB0EE410AF0EE610A9FED3B1B53ECD4
:105A6000112B51EC100B03F077FD354AC2E904010C
:105A7000104690ED042BB0EE420AF0EE620A90ED73
:105A8000042BB0EE421AF0EE621A53EC102B51ECDC
:105A9000110B03F0B9FF41EC1A0B294890ED022BD2
:105AA000B0EE420AF0EE620A90ED022BB0EE421A1E
:105AB000F0EE621A53EC102B51EC110B03F0A4FF23
:105AC00041EC1C0B1E4800E02FE090ED002BB0EEE7
:105AD000420AF0EE620A90ED002BB0EE421AF0EEB0
