:020000040800F2
:10000000C87300208D020008114000080533000865
:100010000D4000084D2A0008D96A000800000000C1
:100020000000000000000000000000008F480008F1
:10003000A92C000800000000A3020008A502000887
:10004000A7020008A7020008A7020008A7020008EC
:10005000A7020008A7020008A7020008A7020008DC
:10006000A7020008A7020008A7020008A7020008CC
:10007000A7020008A7020008A7020008A7020008BC
:10008000A7020008A7020008A7020008A7020008AC
:10009000A7020008A7020008A7020008A70200089C
:1000A000A7020008D94A0008A7020008A702000812
:1000B000F54A0008B54C0008D14C0008A70200081A
:1000C000A7020008A7020008A7020008A70200086C
:1000D000A702000815580008A7020008B558000834
:1000E000A7020008A7020008A7020008A70200084C
:1000F000094D0008A7020008A7020008A70200088F
:10010000A7020008A7020008ED4C0008A70200089B
:10011000A7020008F5570008A7020008A702000878
:10012000A7020008A7020008A7020008A70200080B
:10013000A7020008A7020008A7020008A7020008FB
:10014000A7020008A7020008A7020008A7020008EB
:10015000A7020008A7020008A7020008A7020008DB
:10016000A7020008A7020008A7020008A7020008CB
:10017000A7020008A7020008A7020008A7020008BB
:10018000A7020008A702000800F002F800F06FF8CC
:100190000AA090E8000C82448344AAF10107DA45E2
:1001A00001D100F064F8AFF2090EBAE80F0013F0C5
:1001B000010F18BFFB1A43F00103184760A30000AA
:1001C00080A300000A444FF0000C10F8013B13F02C
:1001D000070408BF10F8014B1D1108BF10F8015BA0
:1001E000641E05D010F8016B641E01F8016BF9D193
:1001F00013F0080F1EBF10F8014BAD1C0C1B09D1EA
:100200006D1E58BF01F801CBFAD505E014F8016B5B
:1002100001F8016B6D1EF9D59142D6D370470000ED
:100220000023002400250026103A28BF78C1FBD8FF
:10023000520728BF30C148BF0B607047662909F0DC
:100240009D83002070471FB509F05DFB00F08EFC18
:1002500004000020002108F087FC401C60600020A2
:10026000002108F06BFCE0601FBD10B510BD00F070
:10027000A5FD1146FFF7E7FF08F022FA01F01EF88E
:1002800003B4FFF7F2FF03BC01F062F809488047AE
:1002900009480047FEE7FEE7FEE7FEE7FEE7FEE768
:1002A000FEE7FEE7FEE7FEE704480549054A064B80
:1002B00070470000714A000889010008C82D00201D
:1002C000C8730020C86F0020C86F0020DFED300A1F
:1002D000B5EEC00A60EE200ABDEEE01A11EE100A7B
:1002E000F1EE10FA38BF401E00EE100A9FED291AF9
:1002F000B8EEC00A70EEC00A20EE810ABCEEC00A59
:1003000010EE100A00EE100A0028B8EEC00A10EE37
:10031000810AB8BF002004DBB0F5807FC8BF4FF46E
:1003200080701D4960EE000AB6EE001ADFED1C2A4F
:100330009FED1A2A60EE011A60EE225A20EE813AF1
:1003400020EE022A21EEA01A01EB800073EE655A1E
:1003500062EE202AB7EE006A33EE003AD0EC043A9F
:1003600076EE611A71EE600A35EEE20A33EE413A3A
:1003700032EEC21A70EEA10A20EE230A64EE831A4E
:1003800004EE200A45EE011A31EE800A70470000A3
:1003900083F9223E00008043A89A0008ABAA2A3EB7
:1003A000ABAAAA3EDFED300AB5EEC00A60EE200A25
:1003B000BDEEE01A11EE100AF1EE10FA38BF401E41
:1003C00000EE100A9FED291AB8EEC00A70EEC00ABE
:1003D00020EE810ABCEEC00A10EE100A00EE100AF0
:1003E0000028B8EEC00A10EE810AB8BF002004DB76
:1003F000B0F5807FC8BF4FF480701D4960EE000AE1
:10040000B6EE001ADFED1C2A9FED1A2A60EE011AE3
:1004100060EE225A20EE813A20EE022A21EEA01A46
:1004200001EB800073EE655A62EE202AB7EE006A97
:1004300033EE003AD0EC043A76EE611A71EE600ABF
:1004400035EEE20A33EE413A32EEC21A70EEA10AFC
:1004500020EE230A64EE831A04EE200A45EE011A08
:1004600031EE800A7047000083F9223E000080438D
:10047000B89E0008ABAA2A3EABAAAA3E0FB41CB590
:10048000074B06AA7B4469460090059800F003FBE1
:100490000020694600F012FB1CBC5DF814FB000054
:1004A000350600002DE9F0410E460446002020628A
:1004B0002046E168884730B3252805D0D4E90121DA
:1004C0009047206A401CF2E7E168204600278847F1
:1004D000050018D0A5F14100192802D820354FF4A5
:1004E00000673246294620462760FFF7A7FE40B145
:1004F000012804D0F61D26F007060836D8E7361D79
:10050000D6E72846DAE7206ABDE8F08140EA010331
:1005100070B59B072ED14FF00136042A2AD308C8A4
:1005200010C99D1B9D43121F15EAC61517D0D8B2DE
:10053000E1B2401A50EA056110D198B2A1B2401A56
:1005400050EA05410AD123F07F4024F07F41401A50
:1005500050EA052102D1180EA0EB146070BDA34231
:10056000DBD018BA21BA884201D9012070BD4FF002
:10057000FF3070BD0AB9002070BD10F8013B11F8C2
:10058000014B63B1A3420AD1521E08D010F8013BBF
:1005900011F8014B1BB1A34201D1521EEDD1181B22
:1005A00070BD10B5203AC0F00B80B1E81850203A69
:1005B000A0E81850B1E81850A0E81850BFF4F5AF03
:1005C0005FEA027C24BFB1E81850A0E8185044BF8D
:1005D00018C918C0BDE810405FEA827C24BF51F8FA
:1005E000043B40F8043B08BF7047D20728BF31F8EE
:1005F000023B48BF11F8012B28BF20F8023B48BF3F
:1006000000F8012B70474FF0000200B513469446E6
:100610009646203922BFA0E80C50A0E80C50B1F15A
:100620002001BFF4F7AF090728BFA0E80C5048BF6E
:100630000CC05DF804EB890028BF40F8042B08BF0C
:10064000704748BF20F8022B11F0804F18BF00F808
:10065000012B704770477047704710B500F08AFA59
:10066000006810BD10B5044600F084FA046010BDA7
:1006700070472DE9FF4F0C461E464FF0FF378BB0F9
:10068000D2E90001DDF860800A908A46C1F30A557C
:1006900005B93D46002108464FF00000BAF1000FB1
:1006A00000F4400005DA00EB80004FF4400101EA5D
:1006B00050004FEA9059B9F1010F00DDB9460A9890
:1006C00050EA4A000ED044F61050A5F2FF354543DB
:1006D0002F14B8F1000F1ED07542291E1EDDC9F17E
:1006E00000021CE0B8F1010F4FF0000001D03021F2
:1006F00003E0F24305E02154401CB042FBDB3046EE
:100700000022002121540B99C1F80880C1E9002082
:100710000FB0BDE8F08FBD1B6D1CDEE74A4600DA66
:10072000694206A800F0D8FA06AB93E8070003ABCD
:1007300083E8070050460A9901F05DF88DE807004C
:10074000A0F500501F3800900398002D09DD42F2FB
:100750001F014A46084403A90390684601F0E7FADE
:1007600008E0A0F500504A461F3803A903906846E8
:1007700001F005FB8DE807000004000C03D04FF0EA
:10078000FF30410800E01046B8F1000F03D000220E
:10079000009215461EE0751E05D400F0EFF93032C8
:1007A00062556D1EF9D5B3460122084302D00022DE
:1007B0007F1C04E02078302801D100227F1E002A0F
:1007C000099786D01DE0112D07DA00F0D7F93032F5
:1007D00062556D1C50EA0102F5D1084302D0009821
:1007E000C8B10EE00021681E05E0235C625C635422
:1007F0002254401E491C8142F7DBAB46A81B401E19
:100800000990002004F80B000B98099AC0F80880A2
:10081000C0E9002B7CE711264FF0000859E72DE9CD
:10082000F04F88460446D21D22F0070191B0D1E96D
:100830000001CDE90A0106F069F902460B98C00FE4
:1008400001D02D2007E02068810701D52B2002E090
:10085000202101EAC000032A099001D0072A05DB04
:1008600003464146204600F0D7F90BE12078800688
:1008700001D5E06900E00620B8F1650F814606D099
:10088000B8F1660F18D0B8F1670F70D131E00020D1
:10089000B9F1110F009001DB112301E009F101030F
:1008A0000AAA01A90CA8FFF7E4FEDDE90C700026F6
:1008B00009F10105834647E001204B4600904FF0C7
:1008C00000470AAA01A90CA8FFF7D3FEDDE90DB085
:1008D0000C995D46002610B909F101000D18B9EB1D
:1008E000050003D4C0F1FF3609F10105A5EB0900AD
:1008F0002BE0B9F1010F01DA4FF001090020B9F145
:10090000110F0090484601DD112300E003460AAABA
:1009100001A90CA8FFF7ADFEDDE90C704D460026DD
:100920008346207800070AD4AB4500DA5D4601A86B
:10093000012D04DD411911F8011C302907D04F4564
:1009400002DA17F1040F04DA012082460FE06D1E6F
:10095000EEE7002F02DCED1B3E4403E0781CA842CA
:1009600000DD7D1CB81B00F1010A4FF00047207824
:10097000000703D4AA4501DB4FF0FF3A0021B7F18D
:10098000004F0DF143088DF8431024D002202B2393
:10099000002F01DA7F422D230A21021EA0F101005F
:1009A00000DC5FB197FBF1FC97FBF1F201FB1C7CD3
:1009B00017460CF1300C08F801CDEEE7A8F1010064
:1009C00003702188090501D5452100E06521A0F1CA
:1009D000010800F8011C09980FA9A1EB0807FF1DE9
:1009E00000B10120411901EBEA70A1693844081AED
:1009F000401EA0612078C00602D42046AFF30080DC
:100A0000099828B1D4E901219047206A401C20624E
:100A10002078C00622D52046AFF300801EE0002ECD
:100A200004DBB34502DD01A8805D00E03020D4E99D
:100A300001219047206A401C2062761CAAF1010027
:100A40005FEA000A0AD100F091F8C0680168405CD2
:100A5000D4E901219047206A401C2062281EA5F19C
:100A60000105DCDC07E0D4E9012118F8010B90470F
:100A7000206A401C2062381EA7F10107F3DC2046E3
:100A8000AFF30080032011B043E6000001694A1C67
:100A900002610878704700B58FB0CDE901310021BF
:100AA000059105497944CDE9031011466846FFF7E1
:100AB000F9FC0FB000BD0000E5FFFFFF0A6802F877
:100AC000010B0A60704700000FB4002300B589B025
:100AD0000CA900910B99CB60214B7B440693214BD1
:100AE0007B44079304236FF00042CDE901321E4A94
:100AF0007A446B4608920246002008F0A1FF09B034
:100B00005DF814FB70B506464FF0FF3015460C46F5
:100B1000324686B00091CDE901016946002004907B
:100B200004A8FFF7D1FF02460498211825B108B1A7
:100B3000084600E020462860049800280DD0002ACE
:100B400002DD0098884208D03246081B69460094AE
:100B5000CDE9010404A8FFF7B7FF06B070BD00009F
:100B6000BB010000D30100001301000000487047E2
:100B7000882D002000487047682D002030B5B0F166
:100B80000A024FEA900E71F100034EEA817EB0EB4B
:100B90000E0061EB91014FEA101E4EEA017E10EB50
:100BA0000E0041EB11114FEA102E4EEA016E10EBD0
:100BB0000E0041EB11214FEA104E4EEA014E10EBB0
:100BC0000E0041EB1141401841F100014FEAD00005
:100BD00040EA41704FEAD10110EB80054FEA8104F1
:100BE00044EA907444EB01046D1944EB0404521B75
:100BF000A3414FF0000348BF0A3200D530BD401C6E
:100C000041F1000130BD10B5044600F0FDF8006868
:100C1000005D00F0010010BD2DE9F0411F460446C3
:100C200003260168072A01F4006004DB08B116A559
:100C300005E016A503E008B115A500E015A521F013
:100C400010002060A069C01EA0610FB1401EA0610D
:100C50002046AFF300804FB1D4E9012138469047D8
:100C6000206A401C2062C01C206206E0206AFAE76D
:100C7000D4E9012115F8010B9047761EF8D22046E1
:100C8000AFF30080BDE8F0814E414E006E616E0012
:100C9000494E4600696E6600426842B1016811F82B
:100CA000013B23B1521EC0E90012184670470121D2
:100CB000C160881E704742685AB1C368016843B971
:100CC00083688B4205D0491E521CC0E900120020E7
:100CD00070474FF0FF3070472DE9F04781461646C8
:100CE0008AB0334878440DC88DE80D003048784408
:100CF000801C03AC0DC884E80D0041F69B3008440D
:100D0000372190FBF1F290FBF1F5A5F1800501FB95
:100D100012041B3C02D56442012000E00020DFF8F1
:100D200090A080460027FA44AAF1BE0A0DE0E00731
:100D300009D03246684607EB47010AEB810101F012
:100D40001EF88DE8070064107F1C002CEFD1184FAF
:100D50007F44AC3F18E0E80714D007EB04100DF116
:100D6000180A90E80E008AE80E00C068F04201D12F
:100D700098190890324606A903A801F000F803ABC1
:100D800083E807006D10641C002DE4D132466946EB
:100D9000B8F1000F03A802D000F0C9FF01E000F095
:100DA000EEFFC9E90001C9F808200AB0BDE8F087E4
:100DB0001C98000000487047682D00207546FFF71A
:100DC000F9FFAE4605006946534620F00700854608
:100DD00018B020B5FFF768FABDE820404FF00006D4
:100DE0004FF000074FF000084FF0000B21F0070113
:100DF000AC46ACE8C009ACE8C009ACE8C009ACE856
:100E0000C0098D467047000010B5FFF7AFFE001D0A
:100E100010BD00BF557D00002DE9FF4F064689B08B
:100E20000878FF2806D0491C2D2805D000244FF053
:100E3000000908E000200CE00124F8E709EB890331
:100E4000491C00EB43090878FF28F7D114B1C9F118
:100E500000008146107800252C46AA4629462D28F8
:100E600001D02B2804D1521C2D2813D000208246FB
:100E70008B461078FF280FD04FF0000C0A21521C2F
:100E8000A5FB017804FB018105FB0C11C5194BEB97
:100E90000104EEE70120EAE7002108464FF00000D8
:100EA000BAF1000F02D000EB80004008C0F3815877
:100EB000B8F1010F01DD4FF0FF380C9809EB000786
:100EC00055EA040009D04FF0020917F5FA7F0BDA52
:100ED0004FEACA70C6E900B012E04FEACA70C6E92C
:100EE00000B00DB0BDE8F08FB7F5FA7F0DDDF0482A
:100EF0007844D0E90010C6E9001040EACA7070607A
:100F0000FFF738FEC0F80090EBE7391E02DAC8F1AF
:100F1000000200E0424600DA794206A8FFF7DCFE54
:100F200006AB93E8070003AB83E8070044F23E00FA
:100F30005BEA04010090584604D144F21E012C469D
:100F40005D460091210C0904014306D10099240457
:100F500044EA15442D041039009104F07F41014307
:100F600006D10099240244EA15642D020839009143
:100F700004F07041014306D10099240144EA15743C
:100F80002D01091F009104F04041014306D1009951
:100F9000A40044EA9574AD00891E009104F000415C
:100FA000084304D100986D196441401E00904246E8
:100FB0006846002FCDE9014503A902DD00F0F3FEEC
:100FC00001E000F0C8FEBAF1000F04460D4601D062
:100FD00084F0004440F2FF7724F00040284303D01F
:100FE000C4F30A50B84212D1FFF7C4FDC0F8009014
:100FF000C4F30A50B8420AD1AE487844D0E9001090
:10100000C6E9001004F000410843706069E7C6E9D2
:10101000005466E72DE9FF4F1F464FF0000A4FF0DE
:10102000FF38454691B0D7E90146CDF83CA0FFF71F
:101030009DFDC0680168405C1090B96912986D1CF4
:101040008847396A814688470028F6D1B9F1FF3FC1
:101050000AD0002E24F4D06411DDB9F12B0F08D092
:10106000B9F12D0F0BD102E0404615B03AE744F438
:101070008064B96912986D1C8847761E81466005A8
:1010800004A901D52D2000E02B20002E01F1010B39
:101090000DF130088DF810003FDDB9F1690F08D06F
:1010A000B9F1490F05D0B9F16E0F02D0B9F14E0F69
:1010B0001CD13B4601A8009580E85002DDE91212E0
:1010C0006FF0020008F0C0FCC11CCED10EE0B9697F
:1010D00012986D1C884781461398761E44F400745C
:1010E00005600F98401C002E0F9016DDB9F1300FEF
:1010F000EDD0B9F1780F02D0B9F1580F0DD10F989A
:1011000001280AD13B46CDE90054DDE91212001F47
:10111000029608F097FCC11CA7D1109989453ED1D1
:1011200044F0800406E01399681CAAF1010A44F413
:1011300000740860B9696D1C1298761E88473028C3
:101140008146F0D02BE01099894505D1200603D4C3
:10115000761E44F0800418E0484606F0CFFD08B340
:10116000761E0DF123018B4544F4007408D2A9F1D9
:1011700030000BF8010B200607D5AAF1010003E0AF
:10118000200602D40AF101008246A00502D5139977
:10119000681C0860B96912986D1C88478146002E4A
:1011A000D1DC53E0002E51DDB9F1650F02D0B9F169
:1011B000450F4BD1A00549D5B9696D1C1298761E13
:1011C00024F440748847002E81460CDD2B2804D07F
:1011D000B9F12D0F07D144F48074B96912986D1CD0
:1011E0008847761E8146E00501D52D2100E02B21A0
:1011F00008F8011BCDF8008021E0761E0DF13901C1
:10120000884544F400740CD2A9F1300010F0FF00BE
:1012100088F8000002D10099884509D908F1010831
:1012200006E0E00501D5244801E042F20F70824655
:10123000B96912986D1C8847814613980560002E85
:1012400004DD484606F05AFD0028D6D1F969129807
:101250008847FF2053468BF8000088F800000020E4
:101260000A900B9004AA0CA90AA8FFF7D5FDA005C7
:1012700002D46FF00100F8E614F0240F0AD0E00762
:1012800014D13868DDE90A12031D3B600068C0E92B
:1012900000120BE00AA9684606F0CAFCE00705D177
:1012A0003868009A011D3960006802602846DCE653
:1012B000489600003E950000F1D8FFFF10B50446A7
:1012C000AFF300802046BDE81040FEF7D9BF000014
:1012D0004FF0013C50F8042B51F8043B9A4221D1C5
:1012E000A2EB0C03934313EACC1317D150F8042B51
:1012F00051F8043B9A4215D1A2EB0C03934313EA35
:10130000CC130BD150F8042B51F8043B9A4209D16D
:10131000A2EB0C03934313EACC13DBD04FF0000095
:10132000704700BFD01A01BAB1FA81F101F018017B
:1013300022FA01F0CB40C1F12001DBB2C0B2C01AE9
:101340002CFA01F3D11A914311EAC311E6D1704787
:1013500001491820ABBEFEE72600020070470000DE
:101360002DE9FF4F1F464FF03C0987B04FF0004278
:10137000DDE9141001F10108DDF858A002EA40503F
:101380000390002005908346054604460490B96901
:10139000461E08988847AAF1010A0290BAF1000F88
:1013A0003BDD02982E2815D0102100F016FA0028F7
:1013B0002EDB4FF0010B0599014317D0B9F1000F57
:1013C0000BDB4A46C11700F0F5F905430C43A9F1C0
:1013D000040905E0012004900BE008B145F0010587
:1013E00001200590049820B9361D02E0049800B150
:1013F000361FB969089808F101088847BBF1000F4A
:10140000AAF1010A0290C9D00999C1F80080C5E784
:101410000298702808D0502806D0F96908988847A3
:10142000BBF1000F14D04FE0002002900120BBF16F
:10143000000F049009D0B969089808F1010888479D
:10144000AAF10109B9F1000F07DCF969089888478A
:101450006FF001000BB0BDE8F08F2B2804D02D28D1
:101460000CD14FF0FF300490B969089808F10108D9
:101470008847A9F10109B9F1000FE6DD411CE4D06C
:101480000A2100F0AAF90028DFDB029908F101081F
:1014900001EB810100EB41000290B969089888478F
:1014A0000A2100F09AF9099AA9F10109B9F1000F8E
:1014B000C2F8008001DD0028E7DAF969089888475A
:1014C0000499029800FB016655EA040004D004F078
:1014D0004041090002D006E0039898E0A40044EAE5
:1014E0009574AD00B61E04F00041080002D16D19DC
:1014F0006441761E159810F0240F03D04FF00B09AD
:101500005C4803E04FF028096FF07D0082465645A5
:1015100007DAAAEB06018944B9F1410F01DD4FF06A
:10152000410901200021A9F1010200F043F902461E
:1015300028400B462140084301D0012100E0002152
:10154000501E029143F1FF3128402140084301D051
:10155000012000E000200299834651EA0B014FD0A0
:10156000002108464FF00000039900F4400039B113
:1015700000EB80004FF4400100EBD07001EA600006
:101580008015012802DD4FF0FF3000E013D0401C31
:1015900036D0029860B3BBF1000F0CD14A4601204F
:1015A000002100F007F928402140084301D0012024
:1015B00000E00020E0B101204A46002100F0FAF8E6
:1015C000034640190A4661412D1A8C4111D3B9F1E5
:1015D000400F09DD159810F0240F02D0AAF134064F
:1015E00003E0AAF1170600E0761C00254FF0004446
:1015F00006E05B1E42F1FF3220EA030521EA020405
:10160000CAF10100B04206DA1B4903980843019071
:10161000002000900EE0039AC4F3D321E80A0A43A5
:10162000164940EA44500A433146CDE90002684673
:1016300006F05AFB159810F0240F0BD01598C00730
:1016400015D13868DDE90012031D3B600068C0E970
:1016500000120CE002A8694606F0EAFA1598C007E5
:1016600005D13868029A011D396000680260404661
:10167000F0E6000002FCFFFF0000F07F0000F03FFA
:101680002DE9FF4F92461D4685B04FF00041DDE940
:10169000124BDDE914727F1E01EA4B50414940F0C4
:1016A000FF4940EA0108002122F020004928049166
:1016B00002D04E2828D04CE03BA0012607C88DE878
:1016C0000700A9690698641C88477F1E014606D456
:1016D0001DF8060018B121F0200181420BD0E96904
:1016E00006988847032E34D0082E32D06FF00100C0
:1016F00009B0BDE8F08F761C032E01D0082EE0D192
:10170000601CCAF80000DCE7A9690698641C8847D9
:101710007F1E2AD420F02000412826D1A9690698EE
:10172000641C88477F1E20D420F020004E281CD146
:10173000A9690698641C88477F1E48F4002849F46C
:101740008009CAF8004001D4282806D0E969069823
:1017500088475FEACB7012D022E0A9690698641C22
:1017600088477F1E01D4002803DAE9690698884774
:10177000BCE72928F1D1641CCAF80040E9E71BF056
:10178000240F07D028680499031D2B600068C0E966
:10179000001805E02868021D2A600068C0F8009063
:1017A0002046A5E70000F07F494E46494E4954596E
:1017B00000000000B2F120030AD5C2F1200301FAB3
:1017C00002F120FA03F300FA02F041EA0301704744
:1017D00000FA03F14FF0000070473A2800D2303889
:1017E00020F02002412A01D3A2F13700884201D320
:1017F0004FF0FF3070475FEA400C08BF91F0000FD8
:101800004FEA8C234FEAC12243EA51514FEA1C5060
:1018100018BF00F5F0404FEA300018BF41F000411A
:101820005FEA6C5C00F02980BCF1FF3F08BF40F02C
:1018300080407047130C06BF12044FF0100C4FF09D
:10184000000C130E04BF12020CF1080C130F04BF9E
:1018500012010CF1040C930F04BF92000CF1020C66
:10186000D30F04BF52000CF1010C11464FF00002DF
:10187000A0F11F00A0EB0C00704711F0004F08BF53
:10188000704731F000413FF4D5AF0B0C06BF09049F
:101890004FF0100C4FF0000C0B0E04BF09020CF1BE
:1018A000080C0B0F04BF09010CF1040C8B0F04BFD3
:1018B00089000CF1020CCB0F04BF49000CF1010CA4
:1018C000CCF12003A0EB0C0022FA03F302FA0CF295
:1018D00041EA030100F10100704720F07F4C80EAEB
:1018E000030023F07F47ACEB070303F57C5300F0C4
:1018F000004003F1FF032DE980494FEA154B09B47D
:101900004FEA144325EA0B4E24EA03480FF204265B
:1019100006EB132749083E785FEA320203FB0667AD
:10192000C7F5000707FB06F64FEA54374FEAD646DD
:1019300006F1020607FB066CCCF1005C4FEA1C477F
:101940002CEA074C07FB06F40CFB06F504EB1546E6
:101950004FEA961634BF00204FF000404FEAD137CF
:1019600006FB07FC4FEA1C4C0CFB0BF7D21B03FBDE
:101970000CF761EB07010CFB0EF7B0EB074072EBC5
:1019800017420CFB08F734BFA2EB0742B2EB074249
:1019900061EB17414FEA0C444FEA910706FB07FC45
:1019A0004FEA1C4C0CFB0BF7B0EBC74072EB573205
:1019B00003FB0CF734BFA2EBC742B2EBC74261EBAB
:1019C00057310CFB0EF7B0EBC70072EB57720CFBF4
:1019D00008F734BFA2EBC702B2EBC70261EB577145
:1019E000039F4FEA816141EA921104EBCC044FEA74
:1019F000D1374FEA826206FB07FC42EA90124FEAB7
:101A000080604FEA1C4C0CFB0BF7D21B03FB0CF75E
:101A100061EB07010CFB0EF7B0EB074072EB1742CE
:101A20000CFB08F734BFA2EB0742B2EB074261EBB5
:101A300017414FEA8C554FEA910704EB9C2406FBB3
:101A400007FC4FEA1C4C0CFB0BF7B0EBC74072EBEA
:101A5000573203FB0CF734BFA2EBC742B2EBC742CD
:101A600061EB57310CFB0EF7B0EBC70072EB57720E
:101A70000CFB08F734BFA2EBC702B2EBC70261EB65
:101A8000577115EB4C254FEA816141EA92114FEAFB
:101A900082624FEAD13742EA901206FB07FC44F11A
:101AA00000044FEA80604FEA1C4C0CFB0BF7D21B82
:101AB00003FB0CF761EB07010CFB0EF7B0EB0740E3
:101AC00072EB17420CFB08F734BFA2EB0742B2EBF4
:101AD000074261EB174115EB1C154FEA813141EAD2
:101AE00092414FEA823242EA90424FEA80304FEA16
:101AF0000C7644F1000448EA03434EEA0B484FF0E9
:101B0000000EB2EB080C71EB030724BF62463946A6
:101B10004EEB0E0E4FF0000B0018524149414BEBBB
:101B20000B0BB2EB080C71EB03077BF1000B24BF2E
:101B3000624639464EEB0E0E4FF0000B0018524134
:101B400049414BEB0B0BB2EB080C71EB03077BF13C
:101B5000000B24BF624639464EEB0E0E51EA0207D7
:101B600018BF46F0010616EB0E7655F1000254F14F
:101B7000000103D5BDE88901BDE80088BDE8890101
:101B8000BDE80048B619524141EB0101A3F1010340
:101B9000704780807F7E7D7C7B7A797877767675DA
:101BA0007473727171706F6E6E6D6C6C6B6A6A6952
:101BB0006868676666656464636362616160605FEC
:101BC0005F5E5E5D5D5C5C5B5B5A5A595958585765
:101BD00057565655555554545353525252515150CD
:101BE00050504F4F4F4E4E4D4D4D4C4C4C4B4B4B20
:101BF0004A4A4A4949494848484747474746464666
:101C000045454544444444434343434242424241A0
:101C10004141000046EA0646A3F570534FEA1646D6
:101C200046EA42564FEAD22242EA415210B54FEA02
:101C3000D121A3F1010300F017F820F0004000F1DA
:101C4000010C00F0004701EB00501146BCF5006F9D
:101C500040EA070000D210BD02484FF0000140EA00
:101C6000070010BD0000F07F002B26D4770021D0A4
:101C70001CB54FEA370703B44FF010004FF01001C6
:101C80004FF000000FBCBDE810400BF1010BBBF1A1
:101C9000010F08BF5FEA170722BF12F1010211F11D
:101CA00001014FF0004143F1000300F0004043EA1E
:101CB00000007047F9D35708DAE746EA064613F101
:101CC000400F4FEA16461FDD13F1200FDFBF16430A
:101CD0000A46002120335B42C8D0C3F1200746EA00
:101CE000064602FA07F74FEA164646EA0706C3F128
:101CF000200722FA03F201FA07F721FA03F14FF065
:101D0000000342EA0702B1E746EA020646EA06464F
:101D10004FEA164646EA0106BCBF46EA0646360CBE
:101D20004FF000034FF000024FF000019EE72DE955
:101D3000C048934630B491E8380007C831EA400CF7
:101D400048BF34EA430C03D5FFF7C7FDFFF78CFF0C
:101D5000F0BCBDE800882DE9C048934630B491E856
:101D6000380007C831EA400C48BF34EA430C03D5B9
:101D7000FFF7B3FDFFF74EFFF0BCBDE800882DE98B
:101D8000C048934630B491E8380007C810F0804F3F
:101D900008BF13F0804F03D100F019F8FFF764FF7C
:101DA000F0BCBDE800882DE9C048934630B491E806
:101DB000380007C810F0804F08BF13F0804F03D1E0
:101DC00000F005F8FFF726FFF0BCBDE8008820F022
:101DD0007F4780EA030023F07F4C07EB0C03A3F559
:101DE0007C5300F00040A3F1FE0392F0000F00F0DE
:101DF000B38095F0000F00F077802DE901494FEA9C
:101E000011404FEA144621EA004800FB06FC24EA90
:101E1000064708FB06F607FB08F800FB07F718EB78
:101E200006484CEB164C4FEA124B18EB07484FEAAA
:101E300015464CEB174022EA0B4E0BFB06FC25EA3D
:101E400006470EFB06F607FB0EFE0BFB07F71EEB25
:101E5000064E4CEB164C4FF000061EEB074E4CEBBB
:101E6000174B18EB0B0840F1000018EB0E0B58EB6A
:101E7000000840F100008F1A4FF000013CBFC94339
:101E8000661B14BFB5EB040C00213CBFC943F61B15
:101E90004FEA17444EEA8E0E27EA04454FEA1C47E4
:101EA00004FB07622CEA074C05FB07F70CFB05F661
:101EB00004FB0CFC16EB074642EB174216EB0C46F4
:101EC00042EB1C421BEB060658EB0202414146EA7C
:101ED0009E0601D5BDE80189B619524141EB0101C9
:101EE000A3F10103BDE801894FEA14454FEA114708
:101EF00024EA054621EA074C05FB07F406FB07F731
:101F00000CFB06F105FB0CFC11EB074144EB1744FD
:101F10004FEA124711EB0C4144EB1C4422EA074CF8
:101F200005FB07F206FB07F70CFB06F605FB0CFCAE
:101F300016EB074642EB174216EB0C4642EB1C45EC
:101F40006A1854F1000148BF7047B619524141EB7D
:101F50000101A3F10103704795F0000F37D04FEA5C
:101F600011424FEA144721EA024624EA074C02FBD9
:101F700007F106FB07F70CFB06F402FB0CFC14EB65
:101F8000074441EB17414FEA154714EB0C4441EB72
:101F90001C4125EA074C02FB07F506FB07F70CFB83
:101FA00006F602FB0CFC16EB074645EB174516EB55
:101FB0000C4645EB1C42121951F1000148BF704715
:101FC000B619524141EB0101A3F1010370474FEAF9
:101FD00014454FEA114724EA054621EA074C05FB60
:101FE00007F106FB07F70CFB06F24FF0000605FBB6
:101FF0000CFC12EB074241EB174112EB0C4251EB88
:102000001C4148BF7047921841EB0101A3F1010345
:102010007047000010B52DED048B82B09FEDE60AED
:10202000B0EE408AE548006813287DD2DFE800F072
:102030000A0B10182028454E7D868D95C9F3F1F0C6
:10204000EFEEED00AEE1DEA1DF4803F093FDA9E184
:10205000022002F053FCDAA1DB4803F08BFDA1E182
:102060000020DA490870D6A1D74803F083FD99E132
:102070000120D6490870D2A1D34803F07BFD91E13D
:10208000D34890ED000A03F0F9FDD248D0ED000AE4
:10209000B0EE600A03F0F2FDCE48D0ED010AB0EEDA
:1020A000600A03F0EBFDCB48D0ED020AB0EE600A07
:1020B00003F0E4FD03F08EFC74E16FF0020002F027
:1020C0001DFCBFA1C04803F055FD6BE10020C249D3
:1020D0000860BBA1BC4803F04DFDC048407A3928D8
:1020E0000EDCBE48407A30280ADBBC48407A3038E3
:1020F00000EB8000B849096801EB4000B649086070
:10210000B648807A39280BDCB448807A302807DB5F
:10211000B248807A3038B04909680844AE4908604E
:10212000012002F0EBFB3DE137E16FF0010002F02E
:10213000E5FBA3A1A44803F01DFD33E1A0A1A24843
:1021400003F018FD03F0CAF82CE19DA19E4803F0AE
:1021500011FD042002F0D2FB24E199A19A4803F07A
:1021600009FD9E48007A8DF804009C48407A8DF85D
:1021700005009A48807A8DF806009848C07A8DF854
:10218000070096488079612812D0782802D07928F3
:1021900015D106E0DDED010AB0EE600A02F0E6FBC3
:1021A0000DE0DDED010AB0EE600A02F0E5FB06E0AD
:1021B000DDED010AB0EE600A02F06AFB00BF00BF6D
:1021C000F0E07FA1804803F0D5FC84480A3004F099
:1021D0001BFFB0EE409AF0EE609A51EC190B06F03E
:1021E000E5FC7F49096808607EA1774803F0C2FCDE
:1021F00001F084F80446912100F0ECFF7CA17248C4
:1022000003F0B8FC03F06AF8CCE0C5E0C3E08EE070
:1022100064E038E0FFE771480A3004F0F5FEB0EE04
:10222000409AF0EE609A51EC190B06F0BFFC08EEF4
:10223000100A6A48407A782804D0792807D07A288A
:102240000FD109E06F48006880ED008A09E06D4811
:10225000006880ED018A04E06A48006880ED028A27
:1022600000BF00BF5FA1584803F084FC01F046F8AE
:102270000446912100F0AEFF5DA1534803F07AFCC3
:1022800003F02CF88EE04EA14F4803F073FC534846
:10229000007A312804D101205B49096808700CE0FC
:1022A0004E48007A302804D1002057490968087048
:1022B00003E056A1444803F05DFC4AA1424803F004
:1022C00059FC01F01BF80446912100F083FF48A15E
:1022D0003D4803F04FFC03F001F863E038A13A48B1
:1022E00003F048FC3D48407A312804D101204D4993
:1022F000096808700CE03948407A302804D1002081
:1023000048490968087003E047A12F4803F032FCF0
:1023100034A12D4803F02EFC00F0F0FF044691217B
:1023200000F058FF32A1284803F024FC3AE024A131
:10233000254803F01FFC0A241CE02848005D3128D2
:1023400006D10121A4F10A003E4A1268115410E09E
:102350002248005D302806D10021A4F10A00394A44
:102360001268115405E0A4F10A0237A1164803F0DF
:1023700001FC641C0F2CE0DB1AA1134803F0FAFBEC
:1023800000F0BCFF0446912100F024FF18A10E4884
:1023900003F0F0FB06E005E004E030A10A4803F09A
:1023A000E9FB00BF00BF00200449086005F0B6FC4F
:1023B00002B0BDEC048B10BD00000000B40F002083
:1023C0004F4B0D0A0000000000140140640E002075
:1023D0000C000020F00F0020B00F0020782C00200F
:1023E000D80F002077726974696E670D0A000000CB
:1023F00077726974652066696E69736865640D0A31
:1024000000000000DC0F0020CC0F00206D6F646521
:1024100020636F6D6D616E64206572726F720D0A5C
:1024200000000000D40F00207363616C654D6F6481
:102430006520636F6D6D616E64206572726F720DE1
:102440000A000000D00F002073656C6563742025BE
:1024500064206572726F720D0A0000006572726FFF
:10246000720D0A0010B572480068042809D10422D0
:1024700070A17248FEF74AF818B901207049086047
:10248000D5E06B4800680A2809D10A226DA16B4883
:10249000FEF73CF818B9022069490860C7E06448B3
:1024A00000680D2809D10D2269A16448FEF72EF8B5
:1024B00018B9032062490860B9E05D4800680E2839
:1024C00009D10E2266A15D48FEF720F818B9042054
:1024D0005B490860ABE0564800680E2809D10E221F
:1024E00063A15648FEF712F818B905205449086050
:1024F0009DE04F480068092809D1092260A14F4892
:10250000FEF704F818B906204D4908608FE04848E6
:1025100000680D2809D109225CA14848FDF7F6FFA3
:1025200018B907204649086081E04148006808283A
:1025300009D1082258A14148FDF7E8FF18B9082041
:102540003F49086073E03A4800680A2809D10A2226
:1025500054A13A48FDF7DAFF18B909203849086054
:1025600065E0334800680B2809D10B2250A133489D
:10257000FDF7CCFF18B90A203149086057E02C4814
:1025800000680E2809D106224CA12C48FDF7BEFF99
:1025900018B90B202A49086049E0254800680A2834
:1025A00009DB0A2247A12548FDF7B0FF18B90C2026
:1025B000234908603BE01E4800680A2809DB09221D
:1025C00043A11E48FDF7A2FF18B90D201C49086061
:1025D0002DE0174800680B2809D108223FA11748B1
:1025E000FDF794FF18B90E20154908601FE0104848
:1025F00000680C2809D109223BA11048FDF786FF8D
:1026000018B90F200E49086011E009480068112828
:1026100009D10A2237A10948FDF778FF18B910201F
:102620000749086003E040F29A200549086010BDA0
:10263000AC0F002041540D0A00000000782C00204F
:10264000B40F002041542B626567696E0D0A0000CB
:1026500041542B73746F7053656E640D0A00000053
:1026600041542B626567696E53656E640D0A000004
:1026700041542B7072696E74446174610D0A0000DC
:1026800041542B73746F700D0A00000041542B727B
:10269000657365743D0D0A0041542B7365740D0A12
:1026A0000000000041542B7072696E740D0A000026
:1026B00041542B7374617469630D0A0041542B7388
:1026C0006574000041542B7365746D696E3D0000A4
:1026D00041542B73657476617200000041542B6D78
:1026E0006F64653D0000000041542B7363616C65AD
:1026F0003D00000041542B73656C6563743D000020
:1027000070B52DED108B8CB0B0EE40AAF0EE608A63
:10271000B0EE418AB0EE619A04460D462AEE0A0AEE
:1027200008EEA80A10EE101A084607F07BF841ECF4
:102730001C0BB0EE4C0AF0EE6C0A04F00DFEB0EE8D
:1027400040BAF0EE60BA51EC1B0B06F02FFA0646C9
:102750001AEE100A07F066F841EC1C0B18EE900A0E
:1027600007F060F841EC1D0BB0EE4C1AF0EE6C1A5D
:10277000B0EE4D0AF0EE6D0A04F04EFBB0EE40BA3A
:10278000F0EE60BA51EC1B0B06F010FA09EE900A5D
:10279000DFEDAC0A88EE200ADFEDAB0A20EE200A5E
:1027A000B0EE408ADFEDA70A89EE200ADFEDA60A27
:1027B00020EE200AB0EE409A19EE900A07F032F8A7
:1027C00041EC1D0BB0EE4D0AF0EE6D0A04F038FC42
:1027D000B0EE40BAF0EE60BA304607F023F841ECB4
:1027E0001C0B53EC1B2B06F027FD39EE290ACDE913
:1027F000060110EE101A084607F014F841EC1D0B04
:10280000B0EE4D0AF0EE6D0A04F01AFCB0EE40BADC
:10281000F0EE60BA304607F005F841EC1C0B53ECC3
:102820001B2B06F009FDCDE9020118EE100A06F097
:10283000F9FF41EC1D0BB0EE4D0AF0EE6D0A04F00D
:1028400027FDB0EE40BAF0EE60BA95ED000A10EE4A
:10285000101A084606F0E6FF41EC1C0B53EC1B2B4C
:1028600006F0EAFC41EC1E0B18EE100A06F0DAFF47
:1028700041EC1D0BB0EE4D0AF0EE6D0A04F0E0FBEA
:10288000B0EE40BAF0EE60BA94ED000A10EE101A05
:10289000084606F0C7FF41EC1C0B53EC1B2B06F05F
:1028A000CBFC41EC1F0B53EC1E2B06F0B1F9CDE92C
:1028B00000019DED020B53EC102B9DED000B51EC34
:1028C000100B06F0A5F9CDE904019DED060B53ECC4
:1028D000102B9DED040B51EC100B06F0B9FECDE969
:1028E00008019DED080B51EC100B06F05FF90AEEA4
:1028F000900A19EE900A06F095FF41EC1D0BB0EE20
:102900004D0AF0EE6D0A04F0C3FCB0EE40BAF0EEF2
:1029100060BA304606F086FF41EC1C0B53EC1B2BD3
:1029200006F08AFC39EE290ACDE9060110EE101AEC
:10293000084606F077FF41EC1D0BB0EE4D0AF0EEB5
:102940006D0A04F0A5FCB0EE40BAF0EE60BA304675
:1029500006F068FF41EC1C0B53EC1B2B06F06CFCE3
:10296000CDE9020118EE100A06F05CFF41EC1D0BE8
:10297000B0EE4D0AF0EE6D0A04F062FBB0EE40BA24
:10298000F0EE60BA95ED000A10EE101A084606F057
:1029900049FF41EC1C0B53EC1B2B06F04DFC41ECAA
:1029A0001E0B18EE100A06F03DFF41EC1D0BB0EEB9
:1029B0004D0AF0EE6D0A04F06BFCB0EE40BAF0EE9A
:1029C00060BA94ED000AB1EE400A10EE101A084603
:1029D00006F028FF41EC1C0B53EC1B2B06F02CFCE3
:1029E00041EC1F0B53EC1E2B06F012F9CDE9000150
:1029F0009DED020B53EC102B9DED000B51EC100BD9
:102A000006F006F9CDE904019DED060B53EC102B01
:102A10009DED040B51EC100B06F01AFECDE90801F8
:102A20009DED080B51EC100B06F0C0F80A90C4EDB8
:102A300000AA9DED0A0A85ED000A0CB0BDEC108BD2
:102A400070BD000000003443DB0F494000BFFEE7CB
:102A50001CB50121084601F023FB0121022001F0F1
:102A60001FFB1820009001208DF8040000208DF835
:102A7000060001208DF8070003208DF80500694647
:102A8000104800F0C5FB4FF41440009069460E4812
:102A900000F0BEFB10210B4800F027FC082109487C
:102AA00000F023FC4FF48051074800F01EFC4FF467
:102AB0000041054800F019FC4FF48061024800F025
:102AC00014FC1CBD000002400004024070B5044626
:102AD0000D466B480068401C69490860002612E0FA
:102AE00006EBC60202EB0612664B03EB4212111D07
:102AF00006EBC60202EB061203EB42104FF44772DC
:102B0000FDF74FFD761C032EEADB5F4890ED000ACF
:102B10005C4880EDC70A5C4890ED010A5B4880ED97
:102B2000C70A594890ED020A594880EDC70A0026A5
:102B300012E006EBC60202EB0612564B03EB421202
:102B4000111D06EBC60202EB061203EB42104FF416
:102B50004772FDF726FD761C032EEADB002025E0F8
:102B600000EBC00101EB0011464A02EB4111D1ED2F
:102B7000000A9FED491A80EE810A05EB8001D1ED34
:102B8000000A30EEC00A00EBC00101EB001102EBBD
:102B90004111D1EDC70A9FED401AC0EE811A30EE07
:102BA000210A05EB800181ED000A401C0328D7DBD8
:102BB000354890ED000AD5ED000A30EE600A354840
:102BC00080EDC70A304890ED010AD5ED010A30EEDC
:102BD000600A324880EDC70A2B4890ED020AD5ED15
:102BE000020A30EE600A2E4880EDC70A24480068C9
:102BF000B0F5C87F01DA002070BD4FF4C8702049DD
:102C00000860002038E09FED270A04EB800181ED89
:102C1000000A00211FE000EBC00202EB00121D4B76
:102C200003EB421202EB8102D2ED000A00EBC0027C
:102C300002EB001203EB421202EB810292ED001A4A
:102C400004EB800292ED000A00EE810A04EB8002A0
:102C500082ED000A491CC829DDDB04EB8001D1EDBF
:102C6000000A9FED0D1A80EE810AF1EEC00A04EB16
:102C70008001C1ED000A401C0328C4DB0120BBE732
:102C800020000020E0190020F00F0020001D00208F
:102C9000202000208010002000004843A0130020C6
:102CA000C016002000000000704700B5034604E095
:102CB0004FF47A7000F004F85B1E002BF8D100BDD1
:102CC000A82141434FF0E02251610521116100BF6D
:102CD0004FF0E021096901F480310029F8D0042186
:102CE0004FF0E0221161704710B52DED040B2DED72
:102CF000048B88B0DDED0D0AB0EE600AFDF7E6FA50
:102D0000F0EE408ADDED0E0AB0EE600AFDF7DEFA65
:102D1000B7EE008A08EE808ADDED0C0AB0EE600A9C
:102D2000FDF7D4FAF0EE408ADDED0E0AB0EE600A4F
:102D3000FDF7CCFA08EE808ADDED0C0AB0EE600AF1
:102D4000FDF7C4FAF0EE408ADDED0D0AB0EE600A40
:102D5000FDF7BCFA08EE808ADDED0C0AB0EE600AE1
:102D6000FDF720FBF0EE408ADDED0D0AB0EE600AC3
:102D7000FDF718FB68EE808ADDED0E0AB0EE600A02
:102D8000FDF710FB08EE808AB1EEC80AF6EE000AE5
:102D900020EE200A10EE104A204606F043FDCDE951
:102DA00000019DED001BB0EE410AF0EE610A9FEDBF
:102DB000851B53EC112B51EC100B06F03DF910D193
:102DC0009FED820B8DED000B9FED7E0B8DED020BC9
:102DD0009FED7C0B8DED040B9FED7A0B8DED060BBB
:102DE000E4E0DDED0C0AB0EE600AFDF7DBFAB0EED0
:102DF000409ADDED0D0AB0EE600AFDF7D3FAF0EE71
:102E0000409ADDED0E0AB0EE600AFDF7CBFA09EE4E
:102E1000809ADDED0C0AB0EE600AFDF7C3FAF0EE21
:102E2000409ADDED0D0AB0EE600AFDF74FFA69EE4B
:102E3000809ADDED0E0AB0EE600AFDF747FA09EE62
:102E4000809AB1EE000AC9EE000A10EE904A2046C0
:102E500006F0E8FC41EC180B9DED001BB0EE410ABA
:102E6000F0EE610A53EC102B05F08EFFCDE9020164
:102E7000DDED0D0AB0EE600AFDF794FAB0EE409A6F
:102E8000DDED0E0AB0EE600AFDF720FA29EE009A99
:102E9000DDED0D0AB0EE600AFDF718FAF0EE409A8B
:102EA000DDED0E0AB0EE600AFDF77CFA69EE809A5D
:102EB000DDED0C0AB0EE600AFDF774FA09EEC09A77
:102EC000DDED0D0AB0EE600AFDF76CFAF0EE409A07
:102ED000DDED0C0AB0EE600AFDF7F8F909EE809A14
:102EE000B1EE000AC9EE000A10EE904A204606F044
:102EF00099FC41EC180B9DED001BB0EE410AF0EE81
:102F0000610A53EC102B05F03FFFCDE90401DDED24
:102F10000D0AB0EE600AFDF7D9F9B1EE409ADDED89
:102F20000E0AB0EE600AFDF73DFA29EE009ADDEDDB
:102F30000D0AB0EE600AFDF735FAF0EE409ADDEDCD
:102F40000E0AB0EE600AFDF7C1F969EE809ADDED78
:102F50000C0AB0EE600AFDF725FA09EE809ADDED65
:102F60000E0AB0EE600AFDF71DFAF0EE409ADDEDB4
:102F70000C0AB0EE600AFDF7A9F909EEC09AB1EEAD
:102F8000000AC9EE000A10EE904A204606F04AFCFC
:102F900041EC180B9DED001BB0EE410AF0EE610A0A
:102FA00053EC102B05F0F0FECDE906019DED000B72
:102FB0009DED021B9DED042B9DED063B08B0BDEC85
:102FC000048B1FBD00000000000000000000000096
:102FD0000000F03F01490860704700000C3C0240CF
:102FE00070B504460A460026082502B909E0012A00
:102FF00001D1160205E0022A01D1160201E04FF4C8
:10300000407600F097F80546082D28D1154800684D
:1030100020F4407013490860084600683043086097
:103020000846006820F0F80008600846006844F090
:10303000020108430B4908600846006840F48030EC
:10304000086000F077F805460648006820F00200A6
:10305000044908600846006820F0F8000860284627
:1030600070BD0000103C024008201049096801F4BE
:103070008031B1F5803F01D1012015E00B4909688D
:1030800001F0100109B105200EE00849096801F0BE
:10309000EF0109B1062007E00449096801F00201C7
:1030A00009B1072000E00820704700000C3C0240F6
:1030B0000348006840F00040014908607047000084
:1030C000103C024030B502460C46082500F032F8AC
:1030D0000546082D17D10D48006820F440700B49B3
:1030E00008600846006808600846006840F0010073
:1030F0000860147000F01EF805460448006820F0CF
:10310000010002490860284630BD0000103C024022
:103110000548006800F0004028B1044802490C3915
:103120000860034808607047103C0240230167456F
:10313000AB89EFCD08B508200090FFF795FF009010
:1031400002E0FFF791FF00909DF800000128F8D001
:103150009DF8000008BD704710B591210E4800F0A1
:103160002DF80D480D49086028300D4908602830B9
:103170000C49086028300C490860401C0B49086065
:10318000401D0B490860801C0A490860001D0A495F
:103190000860FFF7E0FF10BDD42C0020C00F002016
:1031A000C40F0020C80F0020CC0F0020D00F00203B
:1031B000D40F0020D80F0020DC0F00200246002092
:1031C00003E0034BC35C1354401C8842F9D370479F
:1031D0000000040870B505460E46FFF799FFF3207E
:1031E000FFF7F8FE02213020FFF7FAFEFFF7A2FFFB
:1031F000002405E0295D054AA018FFF763FF641C61
:10320000B442F7D3FFF754FF70BD0000000004087C
:10321000F0B50A4600210023002400BF3DE001254F
:1032200005FA01F3156805EA03049C4234D10568E8
:103230004F000326BE40B543056015794E00B540EA
:103240000668354305601579012D02D01579022DE8
:1032500016D185684F000326BE40B5438560557979
:103260004E00B540866835438560456801268E402E
:10327000B5434560456896798E40B6B235434560A2
:10328000C5684F000326BE40B543C560D5794E00E2
:10329000B540C6683543C560491C1029BFD3F0BD91
:1032A000F0B5002300244D07ED0E02FA05F3CE1011
:1032B00000F1200555F826504E07F70E0F26BE40A8
:1032C000B543CF1000F1200646F82750CE1000F18C
:1032D000200555F8265045EA0304CE1000F12005DC
:1032E00045F82640F0BD41837047018370470000D8
:1032F0000148007870470000B80F00200048704770
:10330000D42C002038B500BFEFF3098028B100BFEE
:10331000EFF309801C49086004E000BFEFF3088068
:10332000194908601848006810301749086017A14B
:10333000194802F01FFC0020009018A218A116489E
:1033400002F018FC032418E00F490968214401F138
:103350001C00B0EE000A694600F024F86A4610A18D
:103360000D4802F007FCE11704EB91718910A4EB02
:10337000810109B902F02EFB641E14F11C0FE3DA7F
:1033800002F028FB00BFFEE71C00002048617264C9
:103390004661756C74000000001401403078000034
:1033A0002573000070B52DED028B86B005460E46E4
:1033B000B0EE408A142239A101A8FDF7F2F8344694
:1033C000002059E0B0EE000AC8EE000AB6EE000A8E
:1033D00030EE800ABDEEC00AB8EEC00AF0EE000A78
:1033E00020EE200AB4EEC80AF1EE10FA01DD002842
:1033F00014DCF0EE000A88EE200AF6EE000A30EE49
:10340000200ABDEEC00AB8EEC00AF0EE000A20EEB7
:10341000200AB4EE480AF1EE10FA15D1F0EE000AD7
:1034200088EE200AF6EE000A30EE200ABDEEC00A51
:1034300010EE101A2944091A11F8011C01AA02EB16
:103440002111097804F8011BB0EE000AC8EE000A49
:10345000B6EE000A30EE800ABDEEC00A10EE101A79
:103460002944091A11F8011C01F00F0101AA515C4D
:1034700004F8011B411CC8B2B0EE000AC8EE000AF5
:10348000B6EE000A30EE800ABDEEC00A10EE101A49
:10349000814297DC06B0BDEC028B70BD3031323317
:1034A0003435363738394142434445460000000040
:1034B00030B58BB0002420222DA103A8FDF771F8B0
:1034C00033480068007810B1012808D103E00020DB
:1034D0008DF8110003E008208DF8110000BF00BF37
:1034E0006420FFF7E2FB80206B2310222949009023
:1034F000294801F081F90120FFF7D7FB0520FFF7EC
:10350000D4FB00242FE0002524A00068029000BF17
:10351000681CC5B2012000EB440003A9085C0090C0
:1035200003A810F8143010221A491B4801F064F95E
:103530002846FFF7BAFB052D00DD012503A810F88A
:10354000143010221349144801F0B8F88DF808001F
:103550009DF80800012101EB440103AA515C884257
:10356000D6D1601CC4B20F2CCDDB0BB030BD000037
:103570006B006C001B081A0019071C001D06680070
:103580006A101E0023001F00370038006900000089
:10359000D40F00200000024000300140FFFF000077
:1035A00000B587B00121080300F0AAFD01210846FB
:1035B00000F076FD052211462348FFF771FE052233
:1035C00006212148FFF76CFE052207211E48FFF760
:1035D00067FEE020059002208DF8180000208DF88D
:1035E0001A0001208DF81B0003208DF8190005A991
:1035F0001548FFF70DFE154800F0B4FF0020ADF8A8
:1036000000004FF48270ADF802000020ADF8040015
:10361000ADF80600ADF808004FF40070ADF80A00F0
:103620001820ADF80C000020ADF80E000720ADF812
:1036300010006946054800F0CFFF0121034800F063
:1036400085FF07B000BD00000000024000300140CF
:1036500010B52DED0A8BB0EE408AF0EE608A9FED3A
:10366000840BB0EE40AAF0EE60AA834890ED000B08
:10367000B0EE409AF0EE609A4FF4C4727F49A1F127
:103680000800FCF78EFF53EC192B51EC180B05F0DA
:10369000DFFF7A4A083A02F5C47203C29FED740B49
:1036A000B0EE40AAF0EE60AA002422E07348083889
:1036B00000EBC40090ED002BB0EE421AF0EE621A5F
:1036C0006E48083800EBC40090ED002BB0EE420AC3
:1036D000F0EE620A53EC112B51EC100B05F0ACFD2F
:1036E00041EC1B0B53EC1A2B05F092FA41EC1A0B30
:1036F000641C322CDADB9FED620B53EC102B51EC87
:103700001A0B05F041FB41EC1A0B5F480068401CA6
:103710005D4908600846006864280FD25B4890ED58
:10372000000B53EC102B51EC180B05F071FA574AB3
:1037300003C29FED570ABDEC0A8B10BD52480068CA
:1037400064280DD19FED530B53EC102B4F4890ED97
:10375000000B51EC100B05F017FB41EC190B02E0CC
:103760006520494908604D4890ED000B53EC102B43
:103770004B4890ED000B51EC100B05F049FA494A0B
:1037800003C2494890ED000B53EC102B454890EDD7
:10379000000B51EC100B05F03BFA41EC1B0B53EC0A
:1037A0001B2B404890ED000B51EC100B05F0ECFA90
:1037B0003E4A03C253EC192B51EC180B05F048FF9D
:1037C00041EC1C0B394890ED000B53EC102B51ECE5
:1037D0001C0B05F031FD41EC1B0B53EC192B05F0D4
:1037E00017FA254A03C2314890ED000B53EC102B19
:1037F0009FED2F0B51EC100B05F02AFF41EC1B0B3A
:10380000284890ED000B53EC102B51EC1B0B05F0EE
:1038100013FD234A03C2254890ED000B53EC102BF7
:1038200090ED000B51EC100B05F006FD41EC1B0B6D
:1038300053EC1A2B05F000FD184A03C29FED1E0B36
:1038400053EC102B194890ED000B51EC100B05F0C8
:10385000F1FD02D2084880ED008B074890ED000B87
:1038600051EC100B05F0A2F900EE100A63E700001E
:103870000000000000000000180F0020F02A0020C7
:103880000000000000004940500F0020480F0020B9
:10389000000000000000000000C05840380F002069
:1038A000200F0020280F0020400F0020300F0020A4
:1038B000000000000000F03F000000000000E03FBA
:1038C00010B52DED0C8BB0EE408AF0EE608A854885
:1038D000006890ED000A10EE101A084605F0A2FFED
:1038E00041EC1B0B9FED800BB0EE40AAF0EE60AAFE
:1038F0007F4890ED000BB0EE409AF0EE609A4FF4E6
:10390000C4727C49A1F10800FCF74BFE53EC192B63
:1039100051EC180B05F09CFE764A083A02F5C47289
:1039200003C29FED710BB0EE40AAF0EE60AA002436
:1039300022E07048083800EBC40090ED002BB0EE98
:10394000420AF0EE620A6B48083800EBC40090EDC2
:10395000002BB0EE421AF0EE621A53EC102B51EC31
:10396000110B05F069FC41EC1C0B53EC1A2B05F014
:103970004FF941EC1A0B641C322CDADB9FED5E0B25
:1039800053EC102B51EC1A0B05F0FEF941EC1A0B1D
:103990005B480068401C5A49086008460068642873
:1039A0000FD2584890ED000B53EC102B51EC180B34
:1039B00005F02EF9534A03C29FED4B0BBDEC0C8B67
:1039C00010BD4F48006864280DD19FED4F0B53EC9C
:1039D000102B4C4890ED000B51EC100B05F0D4F976
:1039E00041EC190B02E0652045490860484890ED1C
:1039F000000B53EC102B474890ED000B51EC100BD3
:103A000005F006F9444A03C253EC1B2B424890EDE3
:103A1000000B51EC100B05F0FBF841EC1C0B53ECC8
:103A20001C2B3D4890ED000B51EC100B05F0ACF950
:103A30003A4A03C253EC192B51EC180B05F008FE5F
:103A400041EC1D0B354890ED000B53EC102B51EC65
:103A50001D0B05F0F1FB41EC1C0B53EC192B05F091
:103A6000D7F8234A03C22D4890ED000B53EC102BDE
:103A70009FED2B0B51EC100B05F0EAFD41EC1C0BFC
:103A8000254890ED000B53EC102B51EC1C0B05F06E
:103A9000D3FB204A03C2214890ED000B53EC102BBE
:103AA00090ED000B51EC100B05F0C6FB41EC1C0B2C
:103AB00053EC1A2B05F0C0FB154A03C29FED1A0BFD
:103AC00053EC102B154890ED000B51EC100B05F04A
:103AD000B1FC02D2064880ED008B054890ED000B4A
:103AE0006CE70000DC0F0020000000000000000078
:103AF000A80E0020D0270020000000000000494050
:103B0000D80E0020D00E00200000000000C0584059
:103B1000C80E0020B00E0020B80E0020C00E0020FD
:103B2000000000000000F03F000000000000E03F47
:103B300010B52DED0C8BB0EE408AF0EE608A854812
:103B4000006890ED010A10EE101A084605F06AFEB2
:103B500041EC1B0B9FED800BB0EE40AAF0EE60AA8B
:103B60007F4890ED000BB0EE409AF0EE609A4FF473
:103B7000C4727C49A1F10800FCF713FD53EC192B2A
:103B800051EC180B05F064FD764A083A02F5C47250
:103B900003C29FED710BB0EE40AAF0EE60AA0024C4
:103BA00022E07048083800EBC40090ED002BB0EE26
:103BB000420AF0EE620A6B48083800EBC40090ED50
:103BC000002BB0EE421AF0EE621A53EC102B51ECBF
:103BD000110B05F031FB41EC1C0B53EC1A2B05F0DB
:103BE00017F841EC1A0B641C322CDADB9FED5E0BEC
:103BF00053EC102B51EC1A0B05F0C6F841EC1A0BE4
:103C00005B480068401C5A49086008460068642800
:103C10000FD2584890ED000B53EC102B51EC180BC1
:103C200004F0F6FF534A03C29FED4B0BBDEC0C8B27
:103C300010BD4F48006864280DD19FED4F0B53EC29
:103C4000102B4C4890ED000B51EC100B05F09CF83C
:103C500041EC190B02E0652045490860484890EDA9
:103C6000000B53EC102B474890ED000B51EC100B60
:103C700004F0CEFF444A03C253EC1B2B424890EDA4
:103C8000000B51EC100B04F0C3FF41EC1C0B53EC88
:103C90001C2B3D4890ED000B51EC100B05F074F817
:103CA0003A4A03C253EC192B51EC180B05F0D0FC27
:103CB00041EC1D0B354890ED000B53EC102B51ECF3
:103CC0001D0B05F0B9FA41EC1C0B53EC192B04F059
:103CD0009FFF234A03C22D4890ED000B53EC102B9D
:103CE0009FED2B0B51EC100B05F0B2FC41EC1C0BC3
:103CF000254890ED000B53EC102B51EC1C0B05F0FC
:103D00009BFA204A03C2214890ED000B53EC102B84
:103D100090ED000B51EC100B05F08EFA41EC1C0BF2
:103D200053EC1A2B05F088FA154A03C29FED1A0BC3
:103D300053EC102B154890ED000B51EC100B05F0D7
:103D400079FB02D2064880ED008B054890ED000B10
:103D50006CE70000DC0F0020000000000000000005
:103D6000E00E002060290020000000000000494013
:103D7000100F0020080F00200000000000C0584075
:103D8000000F0020E80E0020F00E0020F80E0020AA
:103D9000000000000000F03F000000000000E03FD5
:103DA00010B52DED0C8BB0EE408AF0EE608A8448A1
:103DB000006890ED020A10EE101A084605F032FD78
:103DC00041EC1B0B9FED7F0BB0EE40AAF0EE60AA1A
:103DD0007E4890ED000BB0EE409AF0EE609AC4225F
:103DE0007B49A1F10800FCF7DCFB53EC192B51ECEB
:103DF000180B05F02DFC764A083A02F5C47203C28E
:103E00009FED700BB0EE40AAF0EE60AA002422E015
:103E10006F48083800EBC40090ED002BB0EE420A6A
:103E2000F0EE620A6A48083800EBC40090ED002BFF
:103E3000B0EE421AF0EE621A53EC102B51EC110B5B
:103E400005F0FAF941EC1C0B53EC1A2B04F0E0FEE0
:103E500041EC1A0B641C322CDADB9FED5E0B53EC49
:103E6000102B51EC1A0B04F08FFF41EC1A0B5B483E
:103E70000068401C594908600846006864280FD251
:103E8000574890ED000B53EC102B51EC180B04F03D
:103E9000BFFE534A03C29FED4B0BBDEC0C8B10BD14
:103EA0004E48006864280DD19FED4E0B53EC102B4B
:103EB0004B4890ED000B51EC100B04F065FF41EC0A
:103EC000190B02E0652045490860484890ED000B59
:103ED00053EC102B464890ED000B51EC100B04F006
:103EE00097FE444A03C253EC1B2B424890ED000B53
:103EF00051EC100B04F08CFE41EC1C0B53EC1C2B12
:103F00003C4890ED000B51EC100B04F03DFF3A4A99
:103F100003C253EC192B51EC180B05F099FB41EC43
:103F20001D0B354890ED000B53EC102B51EC1D0B85
:103F300005F082F941EC1C0B53EC192B04F068FEE0
:103F4000224A03C22C4890ED000B53EC102B9FED3E
:103F50002B0B51EC100B05F07BFB41EC1C0B2548A7
:103F600090ED000B53EC102B51EC1C0B05F064F999
:103F70001F4A03C2204890ED000B53EC102B90ED2C
:103F8000000B51EC100B05F057F941EC1C0B53ECF6
:103F90001A2B05F051F9154A03C29FED1A0B53EC89
:103FA000102B154890ED000B51EC100B05F042FA68
:103FB00002D2064880ED008B044890ED000B6CE7C0
:103FC000DC0F00200000000000000000700E002048
:103FD000402600200000000000004940A00E002004
:103FE000980E00200000000000C05840900E0020F5
:103FF000780E0020800E0020880E002000000000B7
:104000000000F03F000000000000E03F00BFFEE7BE
:1040100000BFFEE770B5002100230F22C4781CB357
:10402000174C246804F4E064C4F5E064C4F3072189
:10403000C1F10404E3B20A4144789C40E1B28478BF
:10404000144021430C07210E0E4C0578615504786D
:1040500004F01F050124AC4005786D11AD0005F199
:10406000E025C5F8004109E0047804F01F050124AB
:10407000AC40054D0678761145F8264070BD00002D
:104080000CED00E000E400E080E100E002490143C3
:10409000024A1160704700000000FA050CED00E0D4
:1040A00029B1064A12680243044B1A6004E0034A2D
:1040B00012688243014B1A6070470000303802409A
:1040C00029B1064A12680243044B1A6004E0034A0D
:1040D00012688243014B1A6070470000403802406A
:1040E00029B1064A12680243044B1A6004E0034AED
:1040F00012688243014B1A6070470000203802406A
:1041000029B1064A12680243044B1A6004E0034ACC
:1041100012688243014B1A60704700004438024025
:1041200029B1064A12680243044B1A6004E0034AAC
:1041300012688243014B1A60704700002438024025
:10414000F0B5002100220024022500260223324F70
:104150003F6807F00C0121B1042905D0082937D1A7
:1041600005E02E4F076036E02D4F076033E02A4F01
:104170003F1F3F68C7F38056274F3F1F3F6807F038
:104180003F036EB1264FB7FBF3F7DFF88CC0ACF1FD
:10419000040CDCF800C0CCF3881C07FB0CF40CE02A
:1041A0001E4FB7FBF3F7DFF870C0ACF1040CDCF87E
:1041B00000C0CCF3881C07FB0CF4174F3F1F3F686F
:1041C000C7F301477F1C7D00B4FBF5F7076002E0F1
:1041D000124F076000BF00BF0F4F3F6807F0F001AC
:1041E0000909104F7A5C0768D74047600A4F3F685B
:1041F00007F4E051890A0B4F7A5C4768D740876023
:10420000054F3F6807F46041490B064F7A5C4768E9
:10421000D740C760F0BD0000083802400024F40019
:1042200000127A00E00F002010B52DED028B86B051
:1042300018216846FCF7E7F9934890ED000ADFED96
:10424000930A80EE201A11EE104A204605F0EAFA91
:1042500041EC180B8E4890ED001BB0EE410AF0EED9
:10426000610A53EC102B51EC180B04F0E5FFCDE97B
:104270000001854890ED000ADFED840A80EE201AE7
:1042800011EE104A204605F0CDFA41EC180B80489B
:1042900090ED021BB0EE410AF0EE610A53EC102BD8
:1042A00051EC180B04F0C8FFCDE90201764890EDFF
:1042B000000ADFED760A80EE201A11EE104A204641
:1042C00005F0B0FA41EC180B714890ED041BB0EE0C
:1042D000410AF0EE610A53EC102B51EC180B04F07C
:1042E000ABFFCDE904016B4890ED000A10EE101A07
:1042F000084605F097FA41EC180B9DED001BB0EE57
:10430000410AF0EE610A53EC102B05F0A1F9624A64
:1043100003C2604890ED010A10EE101A084605F03D
:1043200081FA41EC180B9DED021BB0EE410AF0EE54
:10433000610A53EC102B05F08BF9574AC2E90201D0
:10434000544890ED020A10EE101A084605F06AFA79
:1043500041EC180B9DED041BB0EE410AF0EE610A32
:1043600053EC102B05F074F94B4AC2E904011046D6
:1043700090ED001BB0EE410AF0EE610AFFF7A0FAE3
:10438000454880ED000B90ED021BB0EE410AF0EEC7
:10439000610AFFF7CDFB404880ED020B90ED041B56
:1043A000B0EE410AF0EE610AFFF7FAFC3A4880ED00
:1043B000040B3A480068401C38490860324890EDC8
:1043C000000A01F05BFC01F005FB3448006840F690
:1043D000BA31884256D131480068401E2F490860E2
:1043E0002F4890ED000A10EE101A084605F01AFA50
:1043F00041EC180B284890ED001BB0EE410AF0EE9E
:10440000610A53EC102B51EC180B05F049F8224AC5
:1044100003C2234890ED010A10EE101A084605F079
:1044200001FA41EC180B1C4890ED021BB0EE410A5A
:10443000F0EE610A53EC102B51EC180B05F030F83C
:10444000154AC2E90201164890ED020A10EE101A50
:10445000084605F0E7F941EC180B0F4890ED041BF6
:10446000B0EE410AF0EE610A53EC102B51EC180B40
:1044700005F016F8084AC2E90401012006B0BDECB7
:10448000028B10BD0020F9E70C0000200000C8429C
:10449000F0250020F00F0020C02500205C0E002039
:1044A000D825002000B587B001218803FFF708FE5A
:1044B00001210220FFF7F4FD05220D212148FEF71E
:1044C000EFFE05220E211F48FEF7EAFE4FF4C04022
:1044D000059002208DF8180000208DF81A000120A8
:1044E0008DF81B0003208DF8190005A91548FEF76B
:1044F0008FFE154800F036F84FF48060ADF80000EC
:104500004FF48270ADF802000020ADF80400ADF861
:1045100006000120ADF808004002ADF80A00202096
:10452000ADF80C000020ADF80E000720ADF810002B
:104530006946054800F050F80121034800F006F8EC
:1045400007B000BD000402400038004021B10288DD
:1045500042F04002028004E002884FF6BF731A4026
:104560000280704710B504461148844208D10121E9
:104570008014FFF7D5FD0021A014FFF7D1FD16E050
:104580000C48844208D101210014FFF7A9FD002145
:104590002014FFF7A5FD0AE00748844207D1012156
:1045A000C013FFF79DFD0021E013FFF799FD10BD3B
:1045B0000030014000380040003C0040024600202E
:1045C00013890B400BB1012000E000207047014629
:1045D000888970478181704710B50022028802F4F3
:1045E00041520B884C8823438C882343CC88234337
:1045F0000C8923434C8923438C892343CC8923434F
:104600001A430280838B4FF2FF74234083830B8A0B
:10461000038210BD2DE9F04780460E4617461C4622
:10462000DDE9089A44F0800401214046FFF78EFF3F
:1046300039463046FEF757FE00BF02214046FFF7DD
:10464000BDFF0028F9D021464046FFF7C3FF00BF59
:1046500001214046FFF7B2FF0028F9D04046FFF79E
:10466000B6FF002517E000BF02214046FFF7A6FF76
:104670000028F9D000214046FFF7ACFF00BF012120
:104680004046FFF79BFF0028F9D04046FFF79FFF09
:1046900009F805006D1C5545E5D300BF8021404653
:1046A000FFF78CFF0128F9D000214046FFF74EFFAD
:1046B00039463046FEF719FEBDE8F0872DE9F04196
:1046C00080460D4616461C4644F0800401214046B3
:1046D000FFF73CFF31462846FEF705FE00BF0221EA
:1046E0004046FFF76BFF0028F9D021464046FFF710
:1046F00071FF00BF01214046FFF760FF0028F9D09D
:104700004046FFF764FF00BF02214046FFF756FF17
:104710000028F9D000214046FFF75CFF00BF0121CF
:104720004046FFF74BFF0028F9D04046FFF74FFF08
:10473000C7B200BF80214046FFF740FF0128F9D0F3
:1047400000214046FFF702FF31462846FEF7CDFD27
:104750003846BDE8F0810000F8B50446012C04D1CC
:1047600001032348FEF7BFFD05E024B94FF40041E3
:104770001F48FEF7B8FD0120FEF7A2FA01211D48EF
:10478000FFF7E4FE00250FE000BF1A48083000885C
:1047900000F001000028F8D016480C300088C0B2A4
:1047A0000DF80500681CC5B2032DEDDB012C04D10A
:1047B00021030F48FEF799FD05E024B94FF40041AD
:1047C0000B48FEF792FD00210A48FFF7BFFE9DF857
:1047D000000000049DF8011040EA01209DF802103D
:1047E00040EA01063220FEF76BFA300BF8BD0000FC
:1047F00000040240003800402DE9F04107460C4615
:1048000015461E46DDF8188001213846FFF79EFE4A
:1048100029462046FEF767FD00BF02213846FFF714
:10482000CDFE0028F9D031463846FFF7D3FE00BF51
:1048300001213846FFF7C2FE0028F9D03846FFF7BD
:10484000C6FE00BF02213846FFF7B8FE0028F9D0A7
:1048500041463846FFF7BEFE00BF01213846FFF74C
:10486000ADFE0028F9D03846FFF7B1FE00BF802129
:104870003846FFF7A3FE0128F9D000213846FFF79C
:1048800065FE29462046FEF730FDBDE8F081704701
:1048900000B52DED028B83B0B0EE408A9FED130A78
:1048A0008DED000A9FED110A8DED010ADFED100A72
:1048B00088EE200ADFED0F0A20EE200A8DED020AB5
:1048C0009DED021ADDED010A9DED000AFEF70CFADE
:1048D000094880ED000B80ED021B80ED042B80ED7C
:1048E000063B03B0BDEC028B00BD000000000000E1
:1048F00000003443DB0F4940380E0020411D0A29D7
:1049000030D2DFE801F0282F211A2F2F050C2F13AA
:104910001549097841F00101134A117022E012494A
:10492000097841F00201104A11701BE00E49097824
:1049300041F004010C4A117014E00B49097821F090
:104940000101094A11700DE00749097821F00201BF
:10495000054A117006E00449097821F00401024A71
:10496000117000BF00BF7047B80F0020014880EDF4
:10497000000A7047540F0020014880ED000A70477C
:10498000580F00200CB500200190009034480068BA
:1049900040F480303249086000BF3148006800F4BC
:1049A000003000900198401C0190009818B90198BF
:1049B000B0F5A06FF1D12A48006800F4003010B1C2
:1049C0000120009001E0002000900098012846D1CD
:1049D00023484030006840F0805021494031086051
:1049E0002048006840F480401E4908601C48083098
:1049F00000681B49083108600846006840F4004020
:104A000008600846006840F4A05008601648091F76
:104A10000860081F006840F08070091F086000BF30
:104A20000F48006800F000700028F9D040F20560DF
:104A30000E4908600A480830006820F00300084961
:104A4000083108600846006840F00200086000BFB6
:104A500003480830006800F00C000828F8D10CBDAD
:104A6000003802400070004008544007003C0240FB
:104A700010B51548006840F47000134908601348E9
:104A8000006840F001001149086000200F4908311A
:104A900008600E4800680E4908400C4908600D483F
:104AA000091D0860081F006820F48020091F0860A5
:104AB000002006490C310860FFF764FF4FF00060EA
:104AC00001498039086010BD88ED00E000380240DF
:104AD000FFFFF6FE1030002410B50121044800F05D
:104AE0003CF9012803D10121014800F027F910BD4C
:104AF0000000014000B52DED028B8BB0012188072D
:104B000000F02BF901287DD10121800700F016F972
:104B10005A480068401C5949086059480068401CC0
:104B200057490860554890ED000AB8EE400AF1EE8A
:104B3000040AB4EEE00AF1EE10FA05DB00204F495A
:104B4000086001204F49087003F06AFC03F02AFD59
:104B500001A803F05DFC02A803F03EFC4A4890ED7A
:104B6000000ADDED020A30EE200A80ED000A90ED29
:104B7000010ADDED030A30EE200A80ED010A90ED16
:104B8000020ADDED040A30EE200A80ED020A3F48F9
:104B900090ED000ADDED010A30EE200A80ED000AFA
:104BA00037480068042809D10020FFF7D5FD3849AF
:104BB00008800120FFF7D0FD354948803048006863
:104BC000052856D133480078401C3249087000202F
:104BD0002B4908602C4890ED000AF1EE040A80EEA3
:104BE000201A2D4880ED001A274890ED010AF1EEB9
:104BF000040A80EE201A284880ED011A224890ED20
:104C0000020A00E031E0F1EE040A80EE201A2248A8
:104C100080ED021A1D4890ED000AF1EE040A80EEC4
:104C2000201A1E4880ED001A006804F0FBFD41ECDC
:104C3000180BB0EE480AF0EE680AFEF709FD1748B7
:104C400080ED000A9FED160A0F4880ED000A9FEDE7
:104C5000140A80ED010A9FED120A80ED020A9FED11
:104C6000100A0A4880ED000A03E00EA1104800F087
:104C700081FF0BB0BDEC028B00BD000004000020E2
:104C800014000020080000205C1000201800002004
:104C9000700F002010000020F00F00200C000020FA
:104CA0000000000054494D32206572726F7200009E
:104CB0000014014010B50121044800F04EF801280D
:104CC00003D10121014800F039F810BD0004004073
:104CD00010B50121044800F040F8012803D101215A
:104CE000014800F02BF810BD0008004010B501216C
:104CF000044800F032F8012803D10121014800F0F6
:104D00001DF810BD000C004010B50121044800F052
:104D100024F8012803D10121014800F00FF810BD4B
:104D20000004014021B1028842F08002028004E0C8
:104D300002884FF67F731A4002807047CA4302828E
:104D4000704721B1028842F00102028004E002882B
:104D50004FF6FE731A400280704730B502460020BD
:104D600000230024158A05EA0103958905EA010458
:104D700013B10CB1012000E0002030BD1AB18389CD
:104D80000B43838102E083898B438381704700005A
:104D90002DE9FF4104460D4616461F46DDF82880E2
:104DA0006949601A8C4270D01ADC6849A4EB010092
:104DB0008C426CD00ADCB4F1804F4ED06448204461
:104DC000002852D0B0F5806F71D156E0B0F5806FF9
:104DD00065D0B0F5006F6CD0B0F5406FF4D170E0E5
:104DE000B0F5923F21D009DCB0F5806F7AD0B0F5F4
:104DF000644F0AD0B0F5684F7CD10EE0B0F5943F17
:104E00001BD0B0F5963F75D11FE001210846FFF792
:104E100077F919208DF800006DE001210220FFF7DD
:104E20006FF92C208DF8000065E001210804FFF7E0
:104E300067F918208DF800005DE001211920FFF7C7
:104E40005FF92C208DF8000055E001218804FFF760
:104E500057F91A208DF800004DE001210846FFF7B0
:104E60002FF91C208DF8000045E001210220FFF7FA
:104E700027F91D208DF800003DE001210420FFF7F7
:104E80001FF91E208DF8000035E023E0FFE7012127
:104E90000820FFF715F932208DF800002BE00121E2
:104EA0001020FFF70DF936208DF8000023E021E0F7
:104EB000FFE701212020FFF703F937208DF80000DC
:104EC00019E001214020FFF7FBF82B208DF80000AE
:104ED00011E007E001218020FFF7F2F82C208DF887
:104EE000000008E001210802FFF7EAF82D208DF804
:104EF000000000E000BF00BF0295ADF80460002094
:104F0000ADF80C00ADF8060001A9204600F084F8C9
:104F100001212046FFF712FF012211462046FFF72C
:104F20002DFFF8B28DF8010008F0FF008DF80200A7
:104F300001208DF803006846FFF76CF80121204638
:104F4000FFF7FFFEBDE8FF81001C0040000C0040A1
:104F500000FCFFBF70B5002400220023058C4FF633
:104F6000EF7635400584028C8388048B48F6FF7504
:104F70002C404FF6FF452C400D884FF6FF7606EA91
:104F800005252C434FF6DF752A408D8906EA051565
:104F90002A434D8806EA05152A43154DA84202D03A
:104FA000144DA8421DD14FF67F752A40CD894FF68A
:104FB000FF7606EA05152A434FF6BF752A408D880D
:104FC00006EA05152A434FF6FF352B404FF2FF75D1
:104FD0002B400D8A06EA85052B434D8A06EA850596
:104FE0002B43838004838D688563028470BD000039
:104FF00000000140000401400A460021018B4FF2ED
:10500000FF7319404FF6FF7303EA0223194301832C
:10501000704781637047000000220288184B984255
:105020000ED0184B98420BD0B0F1804F08D0164BE1
:10503000984205D0154B984202D0154B984204D1A6
:105040004FF68F731A404B881A43124B984207D081
:10505000114B984204D04FF6FF431A400B891A4374
:1050600002804B68C3620B880385054B984202D0CF
:10507000044B984201D18B7A0386012383827047C7
:10508000000001400004014000040040000800400E
:10509000000C0040001000400014004070B52DEDE1
:1050A000068B044614B100207949086079480068ED
:1050B000401C78490860084600684FF47A61B0FBEC
:1050C000F1F201FB120000287ED173480068B0F1B4
:1050D000FF3F02D0012846D146E0704890ED000A1B
:1050E0006F48D0ED000A30EE600ADFED6E0AB4EED4
:1050F000E00AF1EE10FA36DB6B4890ED000ADFEDC6
:105100006B0AB4EEE00AF1EE10FA08DD90ED000A49
:10511000DFED660A30EE600A80ED000A23E06248A7
:1051200090ED000AB5EEC00AF1EE10FA04DD9FED35
:10513000600A80ED000A16E05B4890ED000AB5EECB
:10514000C00AF1EE10FA0ED101205349086056480A
:1051500090ED000ADFED550A30EE200A80ED000ADE
:1051600003204B49086040E04C4890ED000A4C4851
:10517000D0ED000A30EE600ADFED4C0AB4EEE00A32
:10518000F1EE10FA31D8484890ED000ADFED490AF7
:10519000B4EEE00AF1EE10FA21D24048006804F0C3
:1051A00041FB41EC180B9FED440B53EC102B04F02A
:1051B00041F90AD23C4890ED000ADFED3C0A30EE9E
:1051C000200A80ED000A0FE016E0374890ED000A53
:1051D000F6EE000A30EE200A80ED000A04E09FEDB2
:1051E000380A314880ED000A00BF00BF2B4890ED1F
:1051F000000A2B4880ED000A2848006804F012FBE2
:1052000041EC180B9FED2F0B53EC102B04F012F90F
:1052100004D24FF0FF302049086016E01F480068B4
:1052200004F000FB41EC180B9FED230B53EC102B0B
:1052300003F0C6FF09D218480068401C10B90320CB
:10524000134908600120144908601748006804F0F9
:10525000E9FA41EC1A0B9FED1D0B53EC102B03F0F8
:1052600093FD41EC190B9FED1B0B53EC102B03F03E
:10527000E3FF41EC180B03F04BFF054629464FF0C6
:105280008040FFF7C6FE02480068BDEC068B70BD8B
:10529000980F0020A80F00209C0F00200C00002079
:1052A000A40F0020CDCCCCBDA00F0020CDCCCC3D98
:1052B00000000000CDCCC7420000000000003940D3
:1052C0000000C84200000000000044400000000050
:1052D000000059400000000000408F4010B52DED47
:1052E000028B84B0FEF70AF804469121FDF766FFB1
:1052F00054A1574800F03EFC002414E055480068D3
:1053000000EBC40090ED001BB0EE410AF0EE610A24
:1053100051EC100B03F04AFC08EE100AB0EE480AFC
:1053200000F0ACFC641C052CE8DB4BA1484800F005
:1053300021FC002414E04C48006800EBC40090ED10
:10534000001BB0EE410AF0EE610A51EC100B03F0C5
:105350002DFC08EE100AB0EE480A00F08FFC641C29
:10536000052CE8DB41A13A4800F004FC002414E0DD
:105370004248006800EBC40090ED001BB0EE410A0B
:10538000F0EE610A51EC100B03F010FC08EE100A6D
:10539000B0EE480A00F072FC641C052CE8DB3848CB
:1053A0000068027837A12A4800F0E4FB3A48006818
:1053B000007939490968C978374A12689278CDE985
:1053C000002102903448006843783348006802782E
:1053D00032A11F4800F0CEFB39480068027839A19D
:1053E0001B4800F0C7FB3BA1194800F0C3FB3C4839
:1053F0000068D0ED000AB0EE600A00F03FFC39A171
:10540000134800F0B7FB3A480068D0ED000AB0EE50
:10541000600A00F033FC36480068D0ED010AB0EEB7
:10542000600A00F02BFC32480068D0ED020AB0EEB2
:10543000600A00F023FC00F0CDFA04B0BDEC028B52
:1054400010BD0000636861727457583A0D0A00007D
:1054500000140140C00F00200D0A63686172745788
:10546000593A0D0A00000000C40F00200D0A6368BD
:10547000617274575A3A0D0A00000000C80F0020EC
:10548000CC0F00200D0A63686172744D6F64653A39
:105490000D0A256400000000D00F00200D0A63688B
:1054A00061727453656C6563743A0D0A256409254D
:1054B000640925640925640925640D0A00000000BB
:1054C000D40F00207363616C654D6F64653A2025CD
:1054D000640D0A006D696E56616C75653A0D0A00BF
:1054E000D80F00200D0A76617258595A3A202000D0
:1054F000DC0F002010B52DED0C8BB5480068B0F521
:10550000FA6F7CD3B248006840F6B831884276D250
:10551000B04890ED000A10EE101A084604F082F927
:1055200041EC190BAC4890ED001BB0EE410AF0EED7
:10553000610A53EC102B51EC190B03F069FB41ECA1
:10554000180B03F033FBA3490860084690ED010AED
:1055500010EE101A084604F065F941EC190B9E484C
:1055600090ED021BB0EE410AF0EE610A53EC102BF5
:1055700051EC190B03F04CFB41EC180B03F016FB3C
:1055800094494860084690ED020A10EE101A084649
:1055900004F048F941EC190B8F4890ED041BB0EE74
:1055A000410AF0EE610A53EC102B51EC190B03F099
:1055B0002FFB41EC180B03F0F9FA86498860874805
:1055C00090ED000A10EE101A084604F02BF941EC99
:1055D000180B834890ED001BB0EE410AF0EE610A13
:1055E00053EC102B51EC180B03F012FB7C4A03C256
:1055F0007A4890ED010A10EE101A084600E02EE0FD
:1056000004F010F941EC180B754890ED021BB0EE58
:10561000410AF0EE610A53EC102B51EC180B03F029
:10562000F7FA6F4AC2E902016C4890ED020A10EEE7
:10563000101A084604F0F6F841EC180B684890ED93
:10564000041BB0EE410AF0EE610A53EC102B51EC52
:10565000180B03F0DDFA624AC2E90401B5E05C48C8
:10566000006840F6B83188427ED159480068401C35
:1056700057490860574890ED000ADFED5A0A80EE5E
:10568000201A80ED001A90ED010ADFED560A80EE37
:10569000201A80ED011A90ED020ADFED520A80EE29
:1056A000201A80ED021A4E4890ED001BB0EE410A20
:1056B000F0EE610A9FED4C1B53EC112B51EC100BDB
:1056C00003F062FB464A03C2454890ED021BB0EE70
:1056D000410AF0EE610A9FED441B53EC112B51EC93
:1056E000100B03F051FB3E4AC2E90201104690ED57
:1056F000041BB0EE410AF0EE610A9FED3B1B53EC38
:10570000112B51EC100B03F03FFB354AC2E90401A9
:10571000104690ED042BB0EE420AF0EE620A90EDD6
:10572000042BB0EE421AF0EE621A53EC102B51EC3F
:10573000110B03F081FD41EC1A0B294890ED022B6F
:10574000B0EE420AF0EE620A90ED022BB0EE421A81
:10575000F0EE621A53EC102B51EC110B03F06CFDC0
:1057600041EC1C0B1E4800E02FE090ED002BB0EE4A
:10577000420AF0EE620A90ED002BB0EE421AF0EE13
:10578000621A53EC102B51EC110B03F055FD41EC58
:105790001D0B53EC1C2B03F03BFA41EC1B0B53ECA1
:1057A0001A2B03F035FA41EC190BB0EE490AF0EE72
:1057B000690A01F0D1FDB0EE408AF0EE608A51EC4A
:1057C000180B03F0F3F90A490860BDEC0C8B10BD0F
:1057D0005C0E0020D8250020C025002014100020D9
:1057E0000826002000007A440000000000408F409E
:1057F000600E002010B540F22551054800F001F977
:10580000012804D140F22551014800F0C8F810BD2C
:105810000050004010B540F225511D4800F0F1F84D
:10582000012830D140F22551194800F0B8F8184845
:1058300000F046FAC4B2174817490968445416489C
:105840000068401C144908600846006801280FDD04
:1058500008460068401E0F49085C0A2808D10E4817
:105860000068801E085C0D2802D1FCF7FBFD0EE0ED
:105870000848007841280AD002F050FA07A10448ED
:1058800000F078F903E0024800F01AFAC4B210BD43
:1058900000140140782C0020AC0F00204E4F542003
:1058A00053544152542057495448202741270D0A48
:1058B0000000000010B540F22551054800F0A1F8A5
:1058C000012804D140F22551014800F068F810BDCC
:1058D0000048004010B588B0044601210420FEF7BE
:1058E000DFFB01212020FEF70BFC082206212548C2
:1058F000FDF7D6FC082207212248FDF7D1FCC02085
:10590000069002208DF81C0003208DF81D00002059
:105910008DF81E0001208DF81F0006A91948FDF71B
:1059200077FC02940020ADF80C00ADF80E00ADF845
:105930001000ADF814000C20ADF8120002A91248B6
:1059400000F0AEF80121104800F038F840210E4870
:1059500000F01CF8012240F225510B4800F07BF8C2
:1059600047208DF8040001208DF8050002208DF8F5
:10597000060001208DF8070001A8FEF74BFB08B0D8
:1059800010BD0000000802400014014001F4007244
:10599000B2F5007F00D100BFCA430280704710B546
:1059A0000022002340F66A14A14200D100BF0A126F
:1059B00001249440A3B2DC43048010BD21B182894C
:1059C00042F40052828104E082894DF6FF731A404E
:1059D0008281704710B502A1024800F0CBF810BDDB
:1059E0000D0A00000014014002460020B1F5007FBE
:1059F00000D100BF13880B400BB1012000E0002054
:105A0000704770B50246002400230025002040F6B0
:105A10006A16B14200D100BFC1F3421501F01F0365
:105A2000012606FA03F3012D02D19689334006E0E0
:105A3000022D02D1168A334001E0968A33400C12BF
:105A4000012606FA04F41688344013B10CB1012083
:105A500000E0002070BDF0B50346002400260025BC
:105A6000002040F66A17B94200D100BF1846C1F3C2
:105A7000421401F01F06012707FA06F5012C01D197
:105A80000C3004E0022C01D1103000E014301AB1C7
:105A900007682F43076002E00768AF430760F0BD67
:105AA0002DE9FF4705460E460024A14600BFA0464B
:105AB000B08900B100BF2C8A24F44054F08804431C
:105AC0002C82AC8941F20C608443B0883189084350
:105AD000718908430443AC81AC8A24F44074B089D2
