:020000040800F2
:1000000010D70020A51A0008A5060008A9060008B8
:10001000AD060008B1060008B506000800000000A3
:10002000000000000000000000000000B906000809
:10003000BB06000800000000B31C0008151C0008E7
:10004000C91A0008C91A0008C91A0008C91A000804
:10005000C91A0008C91A0008C91A0008C91A0008F4
:10006000C91A0008C91A0008C91A0008C91A0008E4
:10007000C91A0008C91A0008C91A0008C91A0008D4
:10008000C91A0008C91A0008C91A0008C91A0008C4
:1000900045030008C91A0008C91A0008C91A00084F
:1000A000C91A0008EB040008C91A0008C91A000898
:1000B000B104000881050008B3050008C91A00084A
:1000C000C91A0008C91A0008C91A0008C91A000884
:1000D000C91A0008E5050008C91A00086F060008DB
:1000E000C91A0008C91A0008C91A0008C91A000864
:1000F0001D050008C91A0008C91A0008C91A000815
:10010000C91A0008C91A00084F050008C91A0008D2
:100110002D060008C91A0008C91A0008C91A0008E3
:10012000C91A0008C91A0008C91A0008C91A000823
:10013000C91A0008C91A0008C91A0008C91A000813
:10014000C91A0008C91A0008C91A0008C91A000803
:10015000C91A0008C91A0008C91A0008C91A0008F3
:10016000C91A0008C91A0008C91A0008C91A0008E3
:10017000C91A0008C91A0008C91A0008C91A0008D3
:10018000C91A0008C91A000800F002F800F03CF88B
:100190000AA090E8000C82448344AAF10107DA45E2
:1001A00001D100F031F8AFF2090EBAE80F0013F0F8
:1001B000010F18BFFB1A43F00103184764760000D3
:1001C00084760000103A24BF78C878C1FAD8520764
:1001D00024BF30C830C144BF04680C6070470000C1
:1001E0000023002400250026103A28BF78C1FBD840
:1001F000520728BF30C148BF0B6070471FB507F0DA
:100200004EFA1FBD10B510BD07F00FFA1146FFF7EB
:10021000F5FF00F01DF807F02DFA03B4FFF7F2FF29
:1002200003BC07F035FA0000184800686421B0FBF1
:10023000F1F4204601F0FFFC02F0DEFA00F061F874
:1002400000BF00231A460121184604F0EDFBF8E731
:1002500010B586B000BF01F04DFD02F0C8F90320D3
:1002600000214FF480720A4BCDE90132CDE9031031
:100270000A200346074A0090074804F049F804465C
:1002800002F0A2FA002006B010BD00003C000020E1
:10029000C8000020C40400202902000808B59DF809
:1002A000000000906A4600212148006803F0D4FE57
:1002B00007E06A4600211E48006803F0B7FD01F020
:1002C000A1FAF6E708B500BF4FF4A06005F0D0FB37
:1002D0000020034640F2473240F2E73100904FF0F1
:1002E000804000F028FA4FF4E13000F0E8FE4FF4CF
:1002F000E13000F035FF00F077FEFF2004F068FAEF
:1003000008BD10B500BF002003F0FEFC08490860DE
:100310000B23084A0021084803F09FFF04460C23E2
:10032000064A0021064803F098FF044610BD00006D
:1003300000000020C4140020C5020008C49400205E
:100340009D0200081CB501F093FC0446DB480078D0
:10035000401CDA490870204601F08EFC0823D84A78
:10036000D849D94801F026FAD8480068401CD74936
:100370000860002005E0D249095C0DF80010411C1E
:10038000C8B20828F7DBCF480068162815D1CC483A
:100390000078CF490870CA484078487008460088FD
:1003A000CC490880C6488078CB490870C448C078DA
:1003B000487008460088C9490880C2480068182863
:1003C00015D1BF480078C2490870BD4840784870D0
:1003D00008460088BF490880B9488078BE4908703F
:1003E000B748C078487008460088BD49088045F67F
:1003F00050010098884229D1B248006840F281211A
:10040000884207D1B7490198086008460068B64994
:1004100009680860AB48006840F28221884207D131
:10042000B0490198486008464068AF49096848608B
:10043000A448006840F28321884207D1A949019865
:10044000886008468068A84909688860A7499E486E
:1004500006F0D7FFA549491C9B4806F0D2FFA349E7
:10046000C91C994806F0CDFFA149974806F0C9FF7D
:10047000A049954806F0C5FF9F49934806F0C1FF83
:100480009D490831904806F0BCFF9C498E4806F013
:10049000B8FF9B498C4806F0B4FF994908318A4857
:1004A00006F0AFFF02F0CDF81CBD8F480068704722
:1004B00010B501F0DDFB044680480078401C7F4900
:1004C0000870204601F0D8FB0121880706F0A5F846
:1004D000012807D18B48006803F063FD01218807DC
:1004E00006F0ACF802F0ADF810BD10B501F0C0FB9D
:1004F000044672480078401C70490870204601F09C
:10050000BBFB0121804806F088F8012803D10121B6
:100510007D4806F093F802F094F810BD10B501F094
:10052000A7FB044665480078401C644908702046D3
:1005300001F0A2FB0121754806F06FF8012803D1F4
:100540000121724806F07AF802F07BF810BD10B570
:1005500001F08EFB044659480078401C574908704A
:10056000204601F089FB0121694806F056F8012870
:1005700003D10121664806F061F802F062F810BD6F
:1005800010B501F075FB04464C480078401C4B49FF
:100590000870204601F070FB01215E4806F03DF82E
:1005A000012803D101215B4806F048F802F049F820
:1005B00010BD10B501F05CFB044640480078401CBB
:1005C0003E490870204601F057FB0121524806F0D1
:1005D00024F8012803D101214F4806F02FF802F03A
:1005E00030F810BD70B501F043FB05463348007884
:1005F000401C32490870284601F03EFB40F225516C
:10060000464806F0D0FA01280DD140F22551434862
:1006100006F000FB414806F01AFAC4B221463F48F2
:1006200006F0FFF900BF02F00CF870BD10B501F044
:100630001FFB044621480078401C204908702046D2
:1006400001F01AFB40F22551354806F0ACFA0128BA
:1006500004D140F22551324806F0DCFA01F0F1FFF6
:1006600010BD3049086070472E480068704710B5CB
:1006700001F0FEFA044611480078401C0F4908704A
:10068000204601F0F9FA40F22551274806F08BFA8E
:10069000012804D140F22551234806F0BBFA01F0AD
:1006A000D0FF10BD00BFFEE700BFFEE700BFFEE7C2
:1006B00000BFFEE700BFFEE77047704771000020F3
:1006C00018000020200000200064004010000020DE
:1006D0000400002008000020060000200C0000207C
:1006E0000E000020C8940020A87600080100F01039
:1006F0007000F03003000012080000320300001404
:100700000800003400000020000001400004014007
:10071000000C0040000400400008004000100140B0
:10072000004C0040140000200048004000BF401E64
:100730000028FCD170472DE9FF4104460D461646BE
:100740001F46DDF82880F949601A8C4270D01ADC07
:10075000F749A4EB01008C426CD00ADCB4F1804F65
:100760004ED0F4482044002852D0B0F5806F71D1AB
:1007700056E0B0F5806F65D0B0F5006F6CD0B0F585
:10078000406FF4D170E0B0F5923F21D009DCB0F5B4
:10079000806F7AD0B0F5644F0AD0B0F5684F7CD145
:1007A0000EE0B0F5943F1BD0B0F5963F75D11FE039
:1007B0000121084605F062F819208DF800006DE06F
:1007C0000121022005F05AF82C208DF8000065E088
:1007D0000121080405F052F818208DF800005DE0B2
:1007E0000121192005F04AF82C208DF8000055E071
:1007F0000121880405F042F81A208DF800004DE030
:100800000121084605F029F81C208DF8000045E07C
:100810000121022005F021F81D208DF800003DE0A7
:100820000121042005F019F81E208DF8000035E0A4
:1008300023E0FFE70121082005F00FF832208DF8B2
:1008400000002BE00121102005F007F836208DF87C
:10085000000023E021E0FFE70121202004F0FDFF5C
:1008600037208DF8000019E00121402004F0F5FF49
:100870002B208DF8000011E007E00121802004F01A
:10088000ECFF2C208DF8000008E00121080204F0A4
:10089000E4FF2D208DF8000000E000BF00BF0295AE
:1008A000ADF804600020ADF80C00ADF8060001A919
:1008B000204605F0FAF90121204605F0BFFE01228D
:1008C0001146204605F092FEF8B28DF8010008F0BE
:1008D000FF008DF8020001208DF80300684605F046
:1008E000CCF80121204605F069FABDE8FF81FEB58C
:1008F00004460D462E468D49601A8C4270D01ADC93
:100900008B49A4EB01008C426CD00ADCB4F1804F1F
:100910004ED088482044002852D0B0F5806F71D165
:1009200056E0B0F5806F65D0B0F5006F6CD0B0F5D3
:10093000406FF4D170E0B0F5923F21D009DCB0F502
:10094000806F7AD0B0F5644F0AD0B0F5684F7CD193
:100950000EE0B0F5943F1BD0B0F5963F75D11FE087
:100960000121084604F08AFFA820ADF800006DE0E0
:100970000121022004F082FFA820ADF8000065E00C
:100980000121080404F07AFFA820ADF800005DE022
:100990000121480404F072FFA820ADF8000055E0E2
:1009A0000121880404F06AFFA820ADF800004DE0A2
:1009B0000121084604F051FF5420ADF8000045E045
:1009C0000121022004F049FF5420ADF800003DE071
:1009D0000121042004F041FF5420ADF8000035E06F
:1009E00023E0FFE70121082004F037FF5420ADF891
:1009F00000002BE00121102004F02FFF5420ADF85F
:100A0000000023E021E0FFE70121202004F025FF82
:100A10005420ADF8000019E00121402004F01DFF32
:100A20005420ADF8000011E007E00121802004F01F
:100A300014FF5420ADF8000008E00121080204F082
:100A40000CFF5420ADF8000000E000BF00BF012003
:100A500001900020ADF80800ADF80200694620467C
:100A600005F023F90121204605F0A8F94FF6FF70A3
:100A7000811B204605F062F903E0204605F062F98B
:100A800086B24FF6FF708642F7DB0021204605F064
:100A900095F9FEBDFEB504460D462E462349601A63
:100AA0008C4276D01ADC2249A4EB01008C427CD027
:100AB0000ADCB4F1804F5AD01E48204400285FD091
:100AC000B0F5806F67D167E0B0F5806F79D0B0F591
:100AD000006F7FD0B0F5406FF4D184E0B0F5923F65
:100AE0002AD009DCB0F5806F6AD0B0F5644F0AD027
:100AF000B0F5684F4FD10FE0B0F5943F25D0B0F579
:100B0000963F48D12AE00121084604F0B7FE44F29E
:100B1000A010ADF8000082E00121022004F0AEFE3A
:100B200044F2A010ADF8000079E00000001C004085
:100B3000000C004000FCFFBF0121080404F09EFEF1
:100B400044F2A010ADF8000069E00121480404F06F
:100B500095FE44F2A010ADF8000060E00121880489
:100B600004F08CFE44F2A010ADF8000057E0012123
:100B7000084604F072FE42F2D000ADF800004EE0EC
:100B80000121022004F069FE42F2D000ADF800001D
:100B900045E031E009E041E00121042004F05DFE80
:100BA00042F2D000ADF8000039E00121082004F045
:100BB00054FE42F2D000ADF8000030E001E009E060
:100BC00023E00121102004F048FE42F2D000ADF8ED
:100BD000000024E00121202004F03FFE42F2D0007A
:100BE000ADF800001BE00121402004F036FE42F287
:100BF000D000ADF8000012E00121802004F02DFEAD
:100C000042F2D000ADF8000009E00121080204F032
:100C100024FE42F2D000ADF8000000E000BF00BFAB
:100C2000012001900020ADF80800ADF802006946EF
:100C3000204605F03AF80121204605F0BFF84FF6AE
:100C4000FF70811B204605F079F803E0204605F08F
:100C500079F886B24FF6FF708642F7DB0021204616
:100C600005F0ACF8FEBD70B506460C46002500BF89
:100C700004E00A213046FFF70DFF6D1CA542F8D3B2
:100C800070BD30B58BB004460D460121022004F042
:100C9000E4FD0121022004F0ADFD022205219E4861
:100CA00004F0EDFB2020099002208DF8280003209D
:100CB0008DF8290000208DF82A0001208DF82B00E6
:100CC00009A9954804F050FBA8B2ADF8180000201F
:100CD000ADF81A000794ADF8200006A98F4804F07B
:100CE000E4FF6020ADF804000120ADF8060000200C
:100CF000ADF8100001A9894805F0A5F8082187483A
:100D000005F0FEF90121854805F03AF801218348F4
:100D100005F054F86421814805F0B7F90BB030BDF7
:100D200030B58BB004460D460121042004F095FD3A
:100D30000121082004F05EFD02220C21784804F015
:100D40009EFB02220E21764804F099FB4FF4A0404E
:100D5000099002208DF8280003208DF8290000203A
:100D60008DF82A0001208DF82B0009A96C4804F0A9
:100D7000FBFAA8B2ADF818000020ADF81A000794ED
:100D8000ADF8200006A9674804F08FFF6020ADF899
:100D900004000120ADF806000020ADF8100001A904
:100DA000604805F017F801A95E4805F099F8082198
:100DB0005C4805F09CF908215A4805F0AEF901217C
:100DC000584804F0DDFF0121564804F0F7FF642184
:100DD000544805F058F96421524805F058F90BB011
:100DE00030BD10B52DED028B0446F0EE408A9FED2C
:100DF0004E0AB0EE408A9FED4D0AC8EE800A9FED84
:100E00004C1A9FED4B0A00EE810AB0EE408A9FED2E
:100E1000490AB4EEC08AF1EE10FA03DD9FED450AEF
:100E2000B0EE408AB5EEC08AF1EE10FA03D29FED23
:100E30003E0AB0EE408A012C0AD19FED3F0A28EE0F
:100E4000000ABCEEC00A10EE101A364805F01BF975
:100E5000022C0AD19FED380A28EE000ABCEEC00A27
:100E600010EE101A2F4805F012F9BDEC028B10BDE0
:100E700010B52DED028B0446B0EE408A2F4800EBF2
:100E8000840080ED008A2D4800EB8400D0ED000A3C
:100E9000B0EE600A2046FFF7A4FFBDEC028B10BD48
:100EA000264901EB800191ED000A704710B5044618
:100EB000224800EB840090ED000AF0EE080A30EEC4
:100EC000200A1E4800EB840080ED000A1B4800EB5E
:100ED0008400D0ED000AB0EE600A2046FFF781FFE3
:100EE00010BD10B50446154800EB840090ED000AD3
:100EF000F0EE080A30EE600A104800EB840080ED46
:100F0000000A0E4800EB8400D0ED000AB0EE600A43
:100F10002046FFF766FF10BD0004024000040040B9
:100F2000000C024000080040000000000000C84221
:100F3000CDCC4C3D000002430000FA44D494002084
:100F40007CB504460D461646C4F30900002839D185
:100F5000A012A0F580108038092833D2DFE800F015
:100F6000050A0F14191E23282D000121084604F03C
:100F700041FC28E00121022004F03CFC23E0012197
:100F8000042004F037FC1EE00121082004F032FCAC
:100F900019E00121102004F02DFC14E00121202093
:100FA00004F028FC0FE00121402004F023FC0AE0BB
:100FB0000121802004F01EFC05E00121080204F05C
:100FC00019FC00E000BF00BF00958DF80460002010
:100FD0008DF806008DF8070002208DF8050069469F
:100FE000204604F0C1F97CBD10B50122114602482B
:100FF000FFF7A6FF10BD00000010024070B50446C8
:101000000D46E1B2E34805F00CFD00BF4021E14888
:1010100005F0FAFC0028F9D0204670BD10B588B064
:1010200004460121022004F0E5FB0121102004F018
:1010300025FC07220621D84804F021FA0722114690
:10104000D54804F01CFAC020069002208DF81C0040
:101050008DF81D0000208DF81E0001208DF81F0066
:1010600006A9CD4804F080F902940020ADF80C00E8
:10107000ADF80E00ADF81000ADF814000C20ADF87E
:10108000120002A9C54805F003FC25208DF80400D4
:1010900000208DF8050001208DF806008DF807006E
:1010A00001A804F0EAFC012240F22551BB4805F0FA
:1010B00055FD0121B94805F073FC08B010BD10B50D
:1010C00088B004460121082004F094FB0121880423
:1010D00004F0C3FB07220921B14804F0D0F907222C
:1010E0000821AF4804F0CBF94FF44070069002207D
:1010F0008DF81C008DF81D0000208DF81E000120C9
:101100008DF81F0006A9A64804F02EF902940020CD
:10111000ADF80C00ADF80E00ADF81000ADF81400FD
:101120000C20ADF8120002A99E4805F0B1FB012188
:101130009C4805F035FC012240F22551994805F004
:101140000DFD27208DF8040001208DF805008DF895
:1011500006008DF8070001A804F08FFC08B010BD50
:1011600010B588B0044604940020ADF81400ADF822
:101170001600ADF81800ADF81C000C20ADF81A00F0
:10118000012104F037FB0121080504F066FB082269
:101190000C21854804F073F908220221804804F0EC
:1011A0006EF900208DF80A0001208DF80B00022056
:1011B0008DF80800C002019002208DF8090001A9F5
:1011C000794804F0D1F802208DF80800042001903D
:1011D00001A9734804F0C8F804A96E4805F058FB4B
:1011E00035208DF80C0001208DF80F008DF80D00D2
:1011F0008DF80E004FF4A06004F03AFC03A804F050
:101200003CFC012240F22551624805F0A7FC012177
:10121000604805F0C5FB08B010BD644880ED000AC9
:101220007047624890ED000A7047F0B503460D46DE
:101230001646002729460A2E03D0002008702846AB
:10124000F0BD33B9302001F8010B002008702846AA
:10125000F6E7002B03DA2D2001F8010B5B4242F286
:1012600010720DE093FBF2F404B937B104F13000D1
:1012700001F8010B04FB123301270A2092FBF0F264
:10128000002AEFDC002008702846D9E70FB470B5BB
:1012900086B006460CA8019073E00B9800785C2895
:1012A0001CD10B98401C0B9000786E2809D0722836
:1012B0000FD10D21304605F0B4FB0B98401C0B906C
:1012C0000BE00A21304605F0ACFB0B98401C0B905C
:1012D00003E00B98401C0B9000BF4BE00B9800788C
:1012E000252840D10B98401C0B900078642818D01A
:1012F000732833D1019810C801900BE02178304653
:1013000005F08FFB00BF4021304605F07DFB002833
:10131000F9D0641C20780028F0D10B98401C0B9069
:1013200020E0019820C801900A2202A92846FFF770
:101330007CFF02AC0BE02178304605F072FB00BF69
:101340004021304605F060FB0028F9D0641C20786D
:101350000028F0D10B98401C0B9003E00B98401C28
:101360000B9000BF06E00B9810F8011B0B90304665
:1013700005F057FB00BF4021304605F045FB002833
:10138000F9D00B980078002887D106B070BC5DF8C2
:1013900014FB000000500040000402400010014017
:1013A000000C0240004800400008024028000020D5
:1013B0002DE9F04F8BB006460F4614461D46DDF86A
:1013C00050804FF00009CA46CB46B5F5807F43D028
:1013D00012DC102D34D008DC012D25D0022D26D0B2
:1013E000042D27D0082D4FD127E0202D2BD0402DC4
:1013F0002CD0802D48D12CE0B5F5805F38D009DCA9
:10140000B5F5007F2BD0B5F5806F2BD0B5F5006F0B
:101410003AD12AE0B5F5005F2DD0B5F5804F2DD03B
:10142000B5F5004F30D12CE04FF000092DE04FF022
:1014300001092AE04FF0020927E04FF0030924E0F8
:101440004FF0040921E04FF005091EE04FF00609B6
:101450001BE04FF0070918E04FF0080915E04FF0C6
:10146000090912E04FF00A090FE04FF00B090CE0F8
:101470004FF00C0909E04FF00D0906E04FF00E099E
:1014800003E04FF00F0900E000BF00BFB8F5807F18
:101490004BD01ADCB8F1100F3BD00CDCB8F1010FC7
:1014A0002BD0B8F1020F2BD0B8F1040F2BD0B8F12C
:1014B000080F52D12AE0B8F1200F2DD0B8F1400F1B
:1014C0002DD0B8F1800F48D12CE0B8F5805F38D02E
:1014D00009DCB8F5007F2BD0B8F5806F2BD0B8F5BC
:1014E000006F3AD12AE0B8F5005F2DD0B8F5804FF3
:1014F0002DD0B8F5004F30D12CE04FF0000A2DE090
:101500004FF0010A2AE04FF0020A27E04FF0030AE9
:1015100024E04FF0040A21E04FF0050A1EE04FF0EE
:10152000060A1BE04FF0070A18E04FF0080A15E022
:101530004FF0090A12E04FF00A0A0FE04FF00B0AD1
:101540000CE04FF00C0A09E04FF00D0A06E04FF0F6
:101550000E0A03E04FF00F0A00E000BF00BFA748EB
:10156000304418B1B0F5806F1AD10CE04FF0090B80
:1015700000208DF8120014208DF804000121480687
:1015800004F06BF90DE04FF0090B0E208DF81200FE
:1015900040208DF804000121000504F05EF900E010
:1015A00000BF00BFC4F3090078BBA012A0F58010F3
:1015B0008038092834D2DFE800F0050A0F14191E1C
:1015C00023292E000121084604F014F929E0012105
:1015D000022004F00FF924E00121042004F00AF9AC
:1015E0001FE00121082004F005F91AE00121102074
:1015F00004F000F915E00121202004F0FBF810E0D0
:101600000121402004F0F6F80BE009E001218020E0
:1016100004F0F0F805E00121080204F0EBF800E026
:1016200000BF00BF5A464946204603F028FF5A46ED
:101630005146204603F023FF45EA080009900220A6
:101640008DF828008DF8290000208DF82A0001204F
:101650008DF82B0009A9204603F086FE304605F0E0
:10166000E9FA00208DF81E008DF81F008DF820008B
:101670008DF821008DF822008DF823008DF81A00D6
:101680008DF81B000B208DF81C0007208DF81D0025
:101690007D2F22D008DC0A2F0FD0142F11D0322F2B
:1016A00013D0642F29D114E0FA2F1AD0B7F5FA7F9E
:1016B0001BD0B7F57A7F20D11BE0C820ADF8180009
:1016C0001CE06420ADF8180018E02820ADF81800E0
:1016D00014E01420ADF8180010E01020ADF8180048
:1016E0000CE00820ADF8180008E00420ADF8180060
:1016F00004E00220ADF8180000E000BF00BF06A91A
:10170000304605F0B0FA00208DF8130001208DF866
:1017100014000020ADF80800ADF80A00ADF80C0088
:10172000ADF80E00ADF8100001208DF8150002A8EC
:1017300005F023FB00208DF8050003208DF806003E
:1017400001208DF8070001A804F097F90122022179
:10175000304605F011FE0BB0BDE8F08F2DE9F043E7
:1017600085B081460D4690461E46002400950195A1
:1017700000208DF808008DF809008DF80A6000BF80
:1017800006E018F804100DF10B000155601C84B23E
:10179000B442F6DB6946484605F0DEFB0746002406
:1017A00000BF3946484605F06FFC0128F9D105B065
:1017B000BDE8F0832DE9F04186B080460D4616461F
:1017C0001F4600240021404605F03EFD18B90020C8
:1017D00006B0BDE8F08101AA0021404605F0B1FC49
:1017E000002405E00DF10F00005D3055601CC4B20F
:1017F000BC42F7DB019828600120E9E7009CFFBFAD
:10180000401C704700B5FFF7FBFF00200CE01B49B0
:1018100051F820101A4A127802EB42020244194B86
:1018200043F82210411CC8B20328F0DB14480078AA
:10183000401C1349087008460078042801DD002088
:10184000087000BD704710B501210F4803F0EEFD90
:101850000E4908700E48007848B9084600780128FB
:1018600005D1084600780A490870012010BD0748D4
:101870000078074908700020F8E70000E094002095
:1018800038000020EC9400200010024039000020B5
:101890003A0000200CB500200190009076480068C6
:1018A00040F480307449086000BF7348006800F459
:1018B000003000900198401C0190009818B90198E0
:1018C000B0F5A06FF1D16C48006800F4003010B1A1
:1018D0000120009001E0002000900098012846D1EE
:1018E00065484030006840F08050634940310860EE
:1018F0006248006840F48040604908605E480830F3
:1019000000685D49083108600846006840F40040FE
:1019100008600846006840F4A05008605848091F55
:101920000860081F006840F08070091F086000BF51
:101930005148006800F000700028F9D040F20560BE
:10194000504908604C480830006820F003004A49BC
:10195000083108600846006840F00200086000BFD7
:1019600045480830006800F00C000828F8D10CBD8C
:1019700010B54548006840F47000434908603E488F
:10198000006840F001003C49086000203A490831F5
:101990000860394800683D490840374908603C48BC
:1019A000091D0860081F006820F48020091F0860D6
:1019B000002031490C310860FFF76CFF4FF00060E8
:1019C00031498039086010BD70B500200022022323
:1019D00000240221284D08352D6805F00C0020B1A7
:1019E000042806D0082834D107E02A4D2A4E356055
:1019F00033E02A4D284E35602FE01F4D2D1D2D68F8
:101A0000C5F380541C4D2D1D2D6805F03F0154B1C8
:101A1000224DB5FBF1F5184E361D3668C6F3881613
:101A200005FB06F209E01B4DB5FBF1F5124E361D24
:101A30003668C6F3881605FB06F20F4D2D1D2D687E
:101A4000C5F301456D1C6B00B2FBF3F5124E35601A
:101A500003E0104D104E356000BF00BF064D083545
:101A60002D68C5F303150E4E705D0B4D2D68C540F6
:101A7000094E356070BD0000003802400070004023
:101A800008544007003C024088ED00E0FFFFF6FEEE
:101A9000103000240024F4003C00002000127A00E2
:101AA000400000200C48016841F4700101600B48BF
:101AB00080470B480047FEE7FEE7FEE7FEE7FEE74C
:101AC000FEE7FEE7FEE7FEE7FEE700000548064901
:101AD000064A074B7047000088ED00E071190008C6
:101AE0008901000810B3002010D7002010D3002077
:101AF00010D300205748802102E0491E002204C074
:101B00000029FAD1544A554B1A601A46126822F03D
:101B100007021A600022524B1A807047704710B5B6
:101B20000446204603F0A9FB10BD10B5044620462C
:101B300003F0A4FB10BD10B503F0A1FB10BD10B560
:101B400003F09FFB10BD70B5044610464FF0807542
:101B50000560051F28462C60424E051F28462E6052
:101B60004FF01236051F28462E604FF00336051F32
:101B700028462E604FF00236051F28462E6076104C
:101B8000051F28462E60051F284629604FF0113694
:101B9000051F28462E604FF01036051F28462E6080
:101BA0004FF00936051F28462E604FF00836051FF6
:101BB00028462E604FF00736051F28462E604FF04E
:101BC0000636051F28462E604FF00536051F2846AD
:101BD0002E604FF00436051F28462E6070BD10B5EC
:101BE00003F050FB10BD10B50446204603F04BFB3C
:101BF00010BD10B503F048FB19480088401C184977
:101C00000880084600880A2803D30020088003F0D3
:101C10004FFA10BD10B500F02BF8044612480078BA
:101C2000401C11490870204600F026F800F003FE21
:101C300000F007FD10BD411E4FF0E0225161FF2270
:101C40000A49CA7200214FF0E02291610721116117
:101C500070470000289500202897002050000020A1
:101C600054000020AB4900087100002018ED00E08E
:101C7000EFF3108072B6704780F3108870471F48EA
:101C80004FF0FF010170002080F309881C480121FA
:101C900001701C484FF08051016062B6FEE71948A0
:101CA0004FF080510160704716484FF0805101603D
:101CB000704772B6EFF3098028B1203880E8F00F42
:101CC00011490968086000B5104880475DF804EBC9
:101CD0000F4810490A7802700B480F490A680260E1
:101CE000106890E8F00F203080F309884EF0040E61
:101CF00062B6704772B6704762B6704722ED00E078
:101D00007E00002004ED00E084000020DF1B0008BE
:101D100073000020740000208C0000201D481E4825
:101D20001E481F481F482048204821482148224873
:101D30002248234823482448244825482548264843
:101D400026482748274828482848294829482A4813
:101D50002A482B482B482C482C482D482D482E48E3
:101D60002E482F482F4830483048314831483248B3
:101D70003248334833483448344835483548364883
:101D8000364837483748384838483948394800BF16
:101D900070470000AC760008B0760008B676000800
:101DA000B8760008B4760008BA760008BC76000859
:101DB000BE760008C0760008C2760008C476000827
:101DC000C6760008C8760008CA760008CC760008F7
:101DD000CE760008D0760008D2760008D4760008C7
:101DE000D6760008D8760008DA760008DC76000897
:101DF000DE760008E0760008E2760008E476000867
:101E0000E6760008E8760008EA760008EC76000836
:101E1000EE760008F0760008F2760008F476000806
:101E2000F6760008F8760008FA760008FC760008D6
:101E3000FE7600080277000804770008067700089D
:101E400008770008F0AD002070B200200C77000881
:101E50000E77000810770008127700081477000842
:101E600016770008187700081A7700081C77000812
:101E70000A7700081E7700080146002002E0491C8E
:101E8000421CD0B20A78002AF9D170472DE9F041FE
:101E900005460E461446002725B904202070002070
:101EA000BDE8F0811EB90C2020700020F8E7F7484B
:101EB000007818B1112020700020F1E7287801285F
:101EC00008D0022807D0032802D0042804D100E05B
:101ED00000BF00BF00BF03E0012020700020DFE74B
:101EE00000BFFFF7C5FE0746686930603068FFF73E
:101EF000C3FF80463846FFF7BFFE002020704046F3
:101F0000CEE72DE9F04105460E46144600271DB9DF
:101F100004202070BDE8F08116B90C202070F9E78C
:101F2000DA48007810B112202070F3E728780128F1
:101F300008D0022807D0032802D0042804D100E0EA
:101F400000BF00BF00BF02E001202070E2E700BF39
:101F5000FFF78EFE07466E613846FFF78DFE0020C4
:101F6000207000BFD6E7F0B5024612F8384F9578DA
:101F70005678383A0B4618680FE000F10B073F5DC2
:101F8000B74300F10B0C0CF8047067463F5D17B9BE
:101F9000877AAF4387721B1D18680028EDD1F0BD0A
:101FA000BB49BC4A1278885CBB49095CB84A515CA1
:101FB00001EBC001B94A1170704710B50024FFF75A
:101FC00057FE0446B1480078F8B9B5480078E0B942
:101FD000FFF7E6FFB348B149097850F82100B2494C
:101FE0000860AE480078B149097888420DD0AE4803
:101FF0000068C06B401CAC490968C863AC48006805
:10200000401CAB490860FFF74AFE2046FFF734FE4C
:1020100010BD70B501460024A64D2D68EC61A54C9D
:10202000246821620B4618681BE0A24C246894F8CF
:10203000385000F10B04645D9E4D2D6895F83950C1
:102040002C439C4D2D6895F8386000F10B05AC557C
:10205000847A984D2D6895F83A502C4384721B1D54
:1020600018680028E1D1934C246894F838208A4CF1
:10207000A45C904D2D6895F83950AC43864DAC5416
:102080002C46A45C44B98B4C246894F83A50814C9B
:102090002478AC437F4D2C7070BD2DE9FF4F83B089
:1020A00081460E461546109F00200090B9F1000FA2
:1020B00005D104203870002007B0BDE8F08FD9F8B2
:1020C000000018B9042038700020F5E71EB904207C
:1020D00038700020F0E71DB9042038700020EBE7CD
:1020E00000203060CA46DAF8004015E02078062863
:1020F00007D2DFE800F006040503070807E006E062
:1021000005E000BF00BF012038700020D4E700BF09
:102110000AF1040ADAF80040002CE7D15B480078A5
:1021200018B1022038700020C6E75D48007818B169
:102130000D2038700020BFE7FFF79AFD00900020C7
:10214000029083460190CA46DAF8004066E02078A3
:10215000062853D2DFE800F052172A03535420898F
:1021600060B12089401E208110C60120029000200D
:1021700001C50BF101001FFA80FB03E0019840F05C
:102180000100019045E0606858B1606801C5002019
:10219000606010C6012002900BF101001FFA80FB65
:1021A00003E0019840F00200019032E0D4F804808E
:1021B000B8F81600E8B1D8F81010081DC8F81000DB
:1021C000086801C5D8F80810D8F81000884203D173
:1021D000D8F80400C8F81000B8F81600401EA8F897
:1021E000160010C6012002900BF101001FFA80FBBF
:1021F00003E0019840F0040001900AE000BF00BF36
:102200000098FFF739FD00203060012038705846F3
:1022100052E700BF0AF1040ADAF80040002C96D118
:102220000298012808D1002030600098FFF724FDB3
:102230000020387058463FE71E48006890F8340088
:10224000019941F0800108431A49096881F8340076
:1022500000201849096881F8350016490698096870
:1022600008634846FFF7D5FE0098FFF705FDFFF726
:10227000A4FEFFF7FDFC00900E48006890F83500C2
:10228000D0B1012831D002282ED116E071000020F3
:1022900020770008750000207600002074000020E0
:1022A0007200002018A100208C0000207300002084
:1022B000580000208400002000BFFE480068C46968
:1022C0003CB110C6002030600BF101001FFA80FB0A
:1022D00009E00120F749096881F835004946F548C9
:1022E0000068FFF740FE06E000BF4946F14800687D
:1022F000FFF739FE00BF00BFEE48006890F83500D8
:1023000020B1012828D0022825D11FE020780628F6
:102310000DD2DFE800F00C0607030D0E002001C50A
:1023200010E000BFE3480068406A01C50AE000BF52
:1023300000BF0098FFF7A0FC00203060012038703B
:102340005846B9E600BF002038700AE0002001C5F9
:102350000E20387005E000BF002001C50A2038704B
:1023600000BF00BF0020D349096881F83400D1497B
:10237000096881F83500CF490968C861CD49096805
:102380000862CC49096848620098FFF775FC584616
:1023900092E67CB5002514E06946284602F0CDF9A6
:1023A000064666B9C44850F8254044B1012C06D011
:1023B000D4E9020100EB8100A0640198E064681C8C
:1023C000C5B23F2DE8D97CBD002400BF02E0142037
:1023D00002F0F8FAB94800780028F8D0B848006848
:1023E0006421B0FBF1F0B64908600846006828B9DE
:1023F0000020B4490870FF2002F0EAF900BFFFF79F
:1024000037FC0446B0480068B04908600020AE4977
:1024100008602046FFF730FCAC480068A84909680E
:10242000B0FBF1F0C0F16400A6490870FFF787FB2C
:10243000FFF7AFFF0A2002F0C5FAE0E700B587B06A
:10244000032000218022A24BCDE90132CDE9031007
:102450004FF6FE703E239F4A0090AFF2930001F0CA
:1024600057FF06AA9CA13E2002F0DAF807B000BD93
:10247000002400BF00BFFFF7FBFB04469248006842
:10248000401C914908602046FFF7F6FBFFF753FB1D
:10249000F1E700B587B0032000218022924BCDE9FF
:1024A0000132CDE903104FF6FF703F238F4A0090B1
:1024B000AFF2430001F02CFF06AA8DA13F2002F0ED
:1024C000AFF807B000BD04E0002200F8012B4A1E5F
:1024D00091B20029F8D1704770B54FF4B4618848C3
:1024E000FFF7F1FF002411E0601C85B204EB44000B
:1024F000834901EBC00305EB450001EBC00600205A
:1025000018705E607FA05861601C84B23B2CEBD3D6
:1025100004EB44007A4901EBC003002018705860B6
:1025200078A0586108467849086070BD70B54FF4CE
:1025300030617648FFF7C7FF4FF480715E48FFF7C0
:10254000C2FF002413E0601CC5B204EB440000EBA2
:10255000C4006E4901EBC00305EB450000EBC5006C
:1025600001EBC0065E6167A01865601CC4B21F2C39
:10257000E9D304EB440000EBC400644901EBC00361
:10258000002058615FA018650020614908605F481D
:102590006049086070BD00215F4A1170002004E0AE
:1025A00000215E4A1154411CC8B20828F8D300210A
:1025B0005B4A11705B4A11705B4A11603D4A1160C1
:1025C00070470020594908605949087059490870F6
:1025D0005949087059490870594908603A490860D2
:1025E0003A4908603649086034490870704710B5A8
:1025F000FFF780FAFFF7E5FFFFF7CDFFFFF796FF44
:10260000FFF76AFF00F0E4FE01F00FF801F03BFB7A
:10261000FFF73FFFFFF712FF02F0A4FDFFF77EFA7E
:10262000FFF77CFB10BD45480078012808D14048E1
:102630000078FF2804D23E480078401C3C490870CE
:10264000704710B500243D480078012830D1FFF7CD
:102650000FFB04463648007820B135480078401E0C
:102660003349087032480078F8B932480078E0B948
:10267000FFF796FC10482B49097850F821002A49A9
:102680000860284800782649097888420DD02648F5
:102690000068C06B401C24490968C863284800686A
:1026A000401C27490860FFF7FFFA2046FFF7E4FACD
:1026B00010BD00008400002018A100207000002040
:1026C0006800002064000020800000206C000020D2
:1026D000189D0020149F002075432F4F532D49490A
:1026E0002053746174000000189F002014A1002082
:1026F00075432F4F532D49492049646C65000000F4
:10270000289700203F0000005C00002018A2002055
:102710009000002088000020750000207600002036
:1027200073000020740000208C000020A000002016
:1027300071000020720000207F0000207E00002039
:102740005800002010B50024FE480078012811D15F
:10275000FFF78EFA0446FC48007840B9FB48007841
:10276000FF2804D2F9480078401CF8490870204638
:10277000FFF782FA10BD10B50024F2480078012856
:1027800021D1FFF775FA0446F0480078C0B1EF4850
:102790000078401EED4908700846007860B9EA48A4
:1027A000007828B92046FFF767FAFFF706FC0AE031
:1027B0002046FFF761FA06E02046FFF75DFA02E0E7
:1027C0002046FFF759FA10BD10B5DE48007890B9E1
:1027D000FFF7E6FBDE480078DE490870DE48DC499A
:1027E000097850F82100DD49086008460068DC4996
:1027F0000860FFF744FA10BD10B50024022002F073
:10280000E1F8FFF735FA04460020D6490860204673
:10281000FFF732FA0A2002F0D5F8FFF729FA04464A
:10282000D0480068D04908600120D049087020468F
:10283000FFF722FA10BD70B50026FFF7DAF9FFF7AF
:1028400017FA0646CA480068401CC9490860304665
:10285000FFF712FABB480078012853D1C548007829
:1028600020B1012804D0022809D103E001250BE0A2
:10287000002509E001250120BE49087004E001257A
:102880000020BC49087000BF00BF05B970BDBA4840
:10289000046833E0FFF7ECF90646206B50B3206B79
:1028A000401E2063206B28BB94F8340000F03700F2
:1028B00040B114F8340F00F0C8002070012060709F
:1028C000343C02E0002084F8350094F8340000F035
:1028D000080078B93834A078A84909780843A7498E
:1028E00008702078A649085C6178084314F8381904
:1028F000A34A505464693046FFF7BEF994F8360095
:102900003F28C7D100BFC1E740F22310704770478E
:1029100010B590F8382001F10B039B5C90F839401A
:10292000A34301F10B04A35423469B5C23B98B7A88
:1029300090F83A40A3438B7210BD2DE9F04F054645
:102940000F4690469946A87A8E490E5C05F10B0019
:10295000805D11F800B00BEBC60000F0FF0A7E4866
:1029600050F82A4000202434E0602760207C20EAD0
:102970000800207484F81190207C243C00F00800AA
:1029800068B994F83A007D49097808437B49087092
:102990007B48805D94F83910084379498855294669
:1029A0002046FFF7B5FF206A20B12046216AFFF7D5
:1029B000DAFAE5615046BDE8F08F10B5684A126852
:1029C000D061674A126892F8383000F10B02D25C8D
:1029D000634B1B6893F839301A43614B1B6893F8BB
:1029E000384000F10B031A55827A5D4B1B6893F84F
:1029F0003A301A4382725A4A126892F83810604A82
:102A0000525C574B1B6893F839309A435C4B5A54CD
:102A10001A46525C42B9524A126892F83A30574A02
:102A200012789A43554B1A7010BD014600228A72E3
:102A3000002005E0002301F10B021354421CD0B228
:102A40000828F7D3704705E011F8013B00F8013B77
:102A5000531E9AB2002AF7D170472DE9F84F054668
:102A60000F4690469946DDE90AAB00200090FFF73B
:102A7000FFF8009044480468002C61D01C3454F8DE
:102A8000080C414908600098FFF7F6F844F81C7CF0
:102A9000A576002020766076606144F818BC44F882
:102AA00010AC44F8148C0C9824F80C0C24F80A9CF4
:102AB0000020E077E810207705F00700E076217F1E
:102AC00001208840A077E17E0120884060770020C7
:102AD00020606060E060A0602062A0626062E062EE
:102AE0002063AFF2E03060631C3C002606E000216A
:102AF00004F1540040F82610701CC6B2002EF6D027
:102B00002046FFF770F82046FFF709F8FFF7B0F806
:102B10000090114840F82540174800686061002087
:102B2000A0611548006810B113480068846112481C
:102B300004603834A0781149097808430F4925E02A
:102B400039E000007E0000207100002072000020AB
:102B5000740000207300002018A100208C000020C9
:102B60008400002080000020680000207000002009
:102B7000A00000209400002090000020750000209C
:102B80007600002020770008880000200870207858
:102B90000B49085C6178084314F83819084A505406
:102BA00008480078401C074908700098FFF764F84F
:102BB0000020BDE8F88F0098FFF75EF84220F8E7A4
:102BC000760000207F0000202DE9F05F04460F46CC
:102BD00091461E464FF0000B24B96E203070002045
:102BE000BDE8F09F2078052803D001203070002038
:102BF000F6E709F0800ABAF1000F04D029F0800945
:102C00004FF0010801E04FF0000800203070FFF79E
:102C10002FF88346B9F1000F2CD0B9F1010F3BD04A
:102C2000B9F1020F03D0B9F1030F46D111E02089A9
:102C300000EA0705BD4206D1B8F1010F05D1208990
:102C4000A843208101E0702030705846FFF714F847
:102C50003AE0208900EA070535B1B8F1010F05D146
:102C60002089A843208101E0702030705846FFF78A
:102C700003F829E0208927EA0005BD4206D1B8F112
:102C8000010F05D120892843208101E07020307098
:102C90005846FEF7F1FF17E0208927EA000535B115
:102CA000B8F1010F05D120892843208101E070206F
:102CB00030705846FEF7E0FF06E05846FEF7DCFFAE
:102CC00000256F20307000BF00BF284688E72DE93F
:102CD000F04106460D460027F748007820B1102045
:102CE00028700020BDE8F081FEF7C2FF0746F348D8
:102CF000046884B100684068F049086005202070CD
:102D0000268100206060EEA0E0603846FEF7B4FF48
:102D10000020287004E03846FEF7AEFF72202870CD
:102D20002046DFE730B501464A6808682AB9CC6812
:102D3000606028B10025456002E0106000B142608B
:102D40008B6800259D6230BDF0B506460F46B4681D
:102D500000202C3460602780207A00F0DF00207291
:102D600000206072207A2C3C88B93834A078D5498C
:102D700009780843D34908702078D349085C617802
:102D8000084314F83819D04A5054012500E00025B2
:102D90003046FFF7C7FF2846F0BD2DE9F04704464F
:102DA000894615464FF0000A24B96E202870204647
:102DB000BDE8F087C048007818B10F202870204681
:102DC000F6E72078052803D0012028702046EFE799
:102DD000FEF74EFF8246606808B1012700E0002739
:102DE000B9F1000F03D0B9F1010F3CD119E08FB94F
:102DF000B3A0E06000202070B04800686060002050
:102E00002081AE4804605046FEF736FF002028704F
:102E1000002605E05046FEF72FFF49202870264681
:102E200028E0D4F8048005E000214046FFF78CFF3D
:102E3000D8F80080B8F1000FF6D1A1A0E060002022
:102E400020709E4800686060002020819B480460DC
:102E50005046FEF711FF012F01D1FFF7AEF8002019
:102E60002870002606E05046FEF706FF072028706F
:102E7000264600BF00BF30469AE72DE9F0410546DF
:102E80000E461446002725B96E2020700020BDE8AC
:102E9000F0811EB90C2020700020F8E786480078E9
:102EA00018B1112020700020F1E7FEF7E1FE07467F
:102EB0002878052806D03846FEF7DEFE012020706F
:102EC0000020E4E7E86830603068FEF7D5FF804610
:102ED0003846FEF7D1FE002020704046D7E72DE9A6
:102EE000F04105460E46144600271DB96E2020709D
:102EF000BDE8F08116B90C202070F9E76E48007823
:102F000010B112202070F3E7FEF7B2FE07462878D2
:102F1000052805D03846FEF7AFFE01202070E7E710
:102F2000EE603846FEF7A8FE0020207000BFDFE705
:102F3000F0B51446059E654F3F6897F8347047F02A
:102F40002007DFF888C1DCF800C08CF83470002757
:102F5000DFF878C1DCF800C08CF835705B4F3F6853
:102F60003E635A4F3F68B9620C828B74574F3F687B
:102F70008F6047680F6000274F60C860456805B1E3
:102F800069604160514F3F6897F838204E4FBF5CF1
:102F9000DFF838C1DCF800C09CF839C027EA0C071C
:102FA000DFF824C10CF802706746BF5C5FB9474F79
:102FB0003F6897F83AC0434F3F7827EA0C07DFF89D
:102FC00004C18CF80070F0BD2DE9F04F89B00546C2
:102FD0000F4691469A46129E002002902DB96E200F
:102FE0003070002009B0BDE8F08F3348007818B188
:102FF000022030700020F5E73548007818B10D2028
:1030000030700020EEE72878052803D001203070CA
:103010000020E7E709F0800BBBF1000F04D009F0B6
:103020007F094FF0010801E04FF00008FEF720FE95
:103030000290B9F1000F59D0B9F1010F79D0B9F16F
:10304000020F03D0B9F1030F72D120E0288900EA02
:103050000704BC420FD1B8F1010F02D12889A04367
:1030600028811A48006884850298FEF705FE002032
:1030700030702046B6E74B463A4604A92846CDF8BC
:1030800000A0FFF755FF0298FEF7F6FD79E02889CA
:1030900000EA0704F4B1B8F1010F02D12889A04376
:1030A00028810A48006884850298FEF7E5FD002023
:1030B0003070204696E7000071000020600000207C
:1030C0003F000000750000207600002084000020F2
:1030D000720000204B463A4604A92846CDF800A0CD
:1030E000FFF726FF0298FEF7C7FD4AE0288927EA86
:1030F0000004BC420FD1B8F1010F02D1288920434E
:103100002881C748006884850298FEF7B5FD002035
:103110003070204666E74B463A4604A92846CDF86B
:1031200000A0FFF705FF0298FEF7A6FD29E000E0EA
:103130001FE0288927EA00047CB1B8F1010F02D111
:10314000288920432881B648006884850298FEF7C4
:1031500093FD00203070204644E74B463A4604A9D0
:103160002846CDF800A0FFF7E3FE0298FEF784FDA5
:1031700007E00298FEF780FD00246F2030702046A3
:1031800030E700BFFEF719FFFEF772FD0290A4487A
:10319000006890F8350020B3A148006890F8350029
:1031A000039000209E49096881F8350004A8FFF7C4
:1031B000B9FD00209A49096881F834000298FEF7A9
:1031C0005BFD00240398012805D0022802D10E20BF
:1031D000307003E000BF0A20307000BF00BF2046FF
:1031E00000E78F480068848DB8F1010F1ED1B9F156
:1031F000000F0ED0B9F1010F0CD0B9F1020F03D0BE
:10320000B9F1030F0AD100E000BF2889A04328814B
:103210000BE000BF28892043288106E00298FEF7D2
:103220002BFD6F2030700020DCE600BF0298FEF717
:1032300023FD002030702046D4E670B50025FEF74F
:1032400017FD054676480068848D2846FEF714FD74
:10325000204670BD2DE9FC5F0446894692461E4615
:103260000020009024B96E2030700020BDE8FC9F43
:103270002078052803D0012030700020F6E7FEF703
:10328000F7FC0090BAF1000F03D0BAF1010F0AD198
:1032900004E0208920EA090020810BE0208940EA2F
:1032A0000900208106E00098FEF7E6FC71203070EE
:1032B0000020DBE700BF4FF0000B656855E0A87CFD
:1032C00040B3012838D0022802D0032844D111E0AD
:1032D0002089298A00EA0107288AB84209D139469B
:1032E0002846FFF731FD8046B8F1010F01D14FF0BC
:1032F000010B38E02089298A00EA01074FB13946DD
:103300002846FFF721FD8046B8F1010F01D14FF0AB
:10331000010B28E0288A218920EA0107288AB8427F
:1033200009D139462846FFF70FFD8046B8F1010F55
:1033300001D14FF0010B16E0288A218920EA01070C
:103340004FB139462846FFF7FFFC8046B8F1010F20
:1033500001D14FF0010B06E00098FEF78DFC6F20C5
:103360003070002082E700BF2D68002DA7D10098A3
:10337000FEF782FCBBF1010F01D1FEF71EFEFEF746
:1033800077FC0090208901900098FEF775FC0020E2
:10339000307001986AE72DE9F04104460D46002798
:1033A00024B96E2028700020BDE8F081207805281F
:1033B00003D0012028700020F6E7FEF759FC0746ED
:1033C00026893846FEF758FC002028703046EBE787
:1033D0002DE9F04150211348FFF775F800250EE064
:1033E000681C86B20F4800EB051400EB061700209E
:1033F00020706760AFF23830E060681C85B2042D41
:10340000EED3084800EB0514002020706060AFF296
:103410005030E060034804490860BDE8F0810000D6
:1034200084000020C89C0020600000202DE9FC5F83
:1034300005460F4691461E460020009025B96220A1
:1034400030700020BDE8FC9F05F0030018B1622039
:1034500030700020F6E7022F03D25B20307000208E
:10346000F0E7B9F1040F03D25C2030700020E9E7E7
:10347000FEF7FEFB00907F480468006820B17D489D
:10348000006840687B4908600098FEF7F5FB1CB9AE
:103490005A2030700020D5E7AA46A846781E019031
:1034A0004FF0000B05E0C844CAF80080C2460BF19B
:1034B000010B01988345F6D30020CAF8000025606F
:1034C00065602761E760C4F8089030702046B9E76E
:1034D0002DE9F04104460D46002724B960202870EC
:1034E0000020BDE8F081FEF7C3FB0746206960B10C
:1034F0006668306860602069401E20613846FEF7CB
:10350000BBFB002028703046EBE73846FEF7B4FBE3
:103510005D2028700020E4E72DE9F04106460D46C5
:103520001446002726B9602020700020BDE8F081F5
:103530001DB90C2020700020F8E74F48007818B122
:10354000112020700020F1E7FEF792FB074670691A
:1035500028602868FEF790FC80463846FEF78CFB12
:10356000002020704046E1E72DE9F04105460E4677
:10357000144600271DB960202070BDE8F08116B9FF
:103580000C202070F9E73C48007810B11220207020
:10359000F3E7FEF76DFB07466E613846FEF76CFBFE
:1035A0000020207000BFE8E770B504460D460026F5
:1035B0000CB9602070BD0DB95F20FBE7FEF758FB2A
:1035C0000646D4E90310884204D33046FEF754FB84
:1035D0005E20EFE76068286065602069401C20611C
:1035E0003046FEF749FB0020E4E770B505460C467F
:1035F00000260DB9602070BD0CB96120FBE7FEF715
:1036000037FB06462868206068686060A868A0608C
:10361000E868E060286920613046FEF72DFBD4E9B8
:103620000301401A60610020E5E770B57821134876
:10363000FEF749FF00240EE004EB44000F4901EBC4
:10364000C005601C00EB400001EBC00068600CA0EE
:103650006861601C84B2042CEED304EB440007497B
:1036600001EBC0050020686005A0686108460149BB
:10367000086070BD980000207100002018AD002087
:103680003F0000002DE9F04106460D464FF00008CE
:1036900026B9042028700020BDE8F0813078022887
:1036A00003D0012028700020F6E7FEF7E1FA8046FB
:1036B0007468E08A78B12169081D20610F68E08A8A
:1036C000401EE082A1682069884201D160682061C3
:1036D0000020287002E01F20287000274046FEF7D7
:1036E000CBFA3846D8E72DE9F04106460F464FF0B1
:1036F0000008FA48007810B10020BDE8F081FEF71C
:10370000B7FA8046F6480468006820B1F4480068BB
:103710004068F34908604046FEF7AEFAFCB1FEF798
:10372000A7FA8046EF480568D5B100680068ED4902
:1037300008604046FEF7A0FA6E6006EB8700A860BE
:10374000EE602E61AF820020E8820220207000200F
:1037500020816560E4A060612046FFF766F908E01B
:10376000DF4800686060DE4804604046FEF784FA87
:1037700000242046C1E72DE9F04704468946154656
:103780004FF0000A24B9042028702046BDE8F087D5
:103790002078022803D0012028702046F6E7CF4881
:1037A000007818B10F2028702046EFE7FEF760FA86
:1037B0008246A07A10B14FF0010801E04FF00008F6
:1037C000B9F1000F03D0B9F1010F49D121E0B8F1EF
:1037D000000F17D1C4A060616668C24800683060FD
:1037E000C048066000202070BD480068606000206E
:1037F0002081BB4804605046FEF73EFA0020287046
:10380000002705E05046FEF737FA49202870274682
:103810002DE005E00023042219462046FFF78DF82D
:10382000A07A0028F6D1B0A060616668AD48006853
:103830003060AC48066000202070A94800686060D5
:1038400000202081A64804605046FEF715FAB8F122
:10385000010F01D1FEF7B1FB00202870002706E020
:103860005046FEF709FA07202870274600BF00BF20
:1038700038468BE770B5054600260DB9042070BDAB
:103880002878022801D00120F9E7FEF7F1F9064671
:103890006C686068E060606820610020E08230460B
:1038A000FEF7EAF90020EAE72DE9F04706468846E8
:1038B00015464FF0000926B9042028700020BDE805
:1038C000F0873078022803D0012028700020F6E726
:1038D0008248007818B1022028700020EFE7834862
:1038E000007818B10D2028700020E8E7FEF7C0F935
:1038F00081467468E08A98B12169081D20610F68CB
:10390000E08A401EE082A1682069884201D1606897
:1039100020614846FEF7B0F9002028703846CEE70F
:103920007348006890F8340040F00400704909685A
:1039300081F8340000206E49096881F835006C4830
:103940000068C0F830803046FFF737F84846FEF789
:1039500093F9FEF732FBFEF78BF981466448006865
:1039600090F8350020B101280DD002280AD105E0D9
:103970005F480068476A002028700DE000270E208D
:10398000287009E000BF314659480068FEF7C0FFC3
:1039900000270A20287000BF00BF00205449096892
:1039A00081F834005249096881F8350050490968A6
:1039B000C8614F49096808624D490968486248462C
:1039C000FEF75AF938467AE72DE9F04104460F46EA
:1039D00015464FF0000824B9042028700020BDE8E7
:1039E000F0812078022803D0012028700020F6E71B
:1039F000FEF73EF98046A07A20B300267FB1012F62
:103A00000CD107E00223042200212046FEF795FF97
:103A1000701CC6B2A07A0028F4D109E000BF0223CE
:103A2000042200212046FEF788FF701CC6B200BFAA
:103A300000BF4046FEF720F9FEF7BFFA0E202870BF
:103A40003046CCE74046FEF717F90020287000BF4B
:103A5000C5E72DE9F04105460E46002715B90420BB
:103A6000BDE8F0812878022801D00120F8E7FEF7B0
:103A7000FFF80746A87A60B10023042231462846A1
:103A8000FEF75BFF3846FEF7F7F8FEF796FA0020E0
:103A9000E6E76C68E08AA18A884204DB3846FEF7D4
:103AA000EBF81E20DCE7E168081DE0600E60E08AAC
:103AB000401CE082D4E90210884201D16068E060D5
:103AC0003846FEF7D9F80020CAE72DE9F04105464F
:103AD0000E46002775B90420BDE8F0817100002072
:103AE0005C0000209C0000203F00000072000020CD
:103AF000840000202878022801D00120ECE7FEF79E
:103B0000B7F80746A87A60B1002304223146284658
:103B1000FEF713FF3846FEF7AFF8FEF74EFA002027
:103B2000DAE76C68E08AA18A884204DB3846FEF74F
:103B3000A3F81E20D0E761682069884201D1A068FF
:103B400020612069001F206120690660E08A401C16
:103B5000E0823846FEF790F80020BDE72DE9F041FD
:103B600005460F4616464FF0000815B90420BDE87B
:103B7000F0812878022801D00120F8E7FEF778F8D4
:103B80008046A87AE8B106F0010050B105E00023B4
:103B9000042239462846FEF7D0FEA87A0028F6D13E
:103BA00005E00023042239462846FEF7C6FE4046BB
:103BB000FEF762F806F0040008B9FEF7FEF90020EF
:103BC000D5E76C68E08AA18A884204DB4046FEF7AC
:103BD00053F81E20CBE706F0020058B16168206957
:103BE000884201D1A06820612069001F20612069FE
:103BF000076009E0E168081DE0600F60D4E9021089
:103C0000884201D16068E060E08A401CE082404662
:103C1000FEF732F80020AAE72DE9F04705460C46EA
:103C20004FF0000A15B90420BDE8F0870CB909204F
:103C3000FAE72878022801D00120F5E7FEF718F806
:103C40008246A87A207405F10B0804F108090027C0
:103C500005E018F8010B09F8010B781CC7B2082F12
:103C6000F7D36E68F08A18B130690068206001E00F
:103C700000202060F08AA080B08AE0805046FDF7E6
:103C8000FBFF0020D0E72DE9F04160211048FEF74E
:103C90001AFC00240DE0601C86B204EB44000C49C1
:103CA00001EBC00506EB460001EBC0072F60601C6E
:103CB00084B2032CEFD304EB4400054901EBC005AB
:103CC00000202860084603490860BDE8F081000034
:103CD00090AD00209C00002070B5044600260CB971
:103CE000002070BD2078032801D00020F9E7FDF7FF
:103CF000BFFF0646258915B12089401E2081304628
:103D0000FDF7BAFF2846ECE770B505460026E54802
:103D1000007808B1002070BDFDF7AAFF0646E24812
:103D20000468006820B1E04800684068DE49086027
:103D30003046FDF7A1FF4CB1032020702581002003
:103D40006060DAA060612046FEF76FFE2046E2E781
:103D50002DE9F0470446884615464FF0000924B97E
:103D6000042028702046BDE8F0872078032803D07F
:103D7000012028702046F6E7CA48007818B10F20C5
:103D800028702046EFE7FDF773FF8146A07A08B15F
:103D9000012700E00027B8F1000F03D0B8F1010FB0
:103DA0003AD119E08FB9C1A0606100202070BE48EF
:103DB0000068606000202081BB4804604846FDF731
:103DC0005BFF00202870002605E04846FDF754FF01
:103DD00049202870264626E005E0002301221946E6
:103DE0002046FEF7AAFDA07A0028F6D1AFA06061B8
:103DF00000202070AC480068606000202081AA4844
:103E000004604846FDF738FF012F01D1FEF7D5F8D1
:103E100000202870002606E04846FDF72DFF072009
:103E20002870264600BF00BF30469CE72DE9F041D0
:103E300005460E46144600271DB904202070BDE833
:103E4000F0812878032802D001202070F7E79548F8
:103E5000007810B102202070F1E79548007810B189
:103E60000D202070EBE7FDF703FF0746288940B1DE
:103E70002889401E28813846FDF7FEFE002020706C
:103E8000DDE78C48006890F8340040F00100894973
:103E9000096881F8340000208649096881F83500F6
:103EA0008448006806632846FEF787FD3846FDF71C
:103EB000E3FEFEF782F8FDF7DBFE07467D4800686B
:103EC00090F8350020B1012809D0022806D102E07F
:103ED000002020700BE00E20207008E000BF294673
:103EE00074480068FEF714FD0A20207000BF00BF70
:103EF00000207049096881F834006E49096881F82A
:103F000035006C490968C8616A4909680862384621
:103F1000FDF7B2FE00BF92E72DE9F04104460F46DF
:103F200015464FF0000824B9042028700020BDE891
:103F3000F0812078032803D0012028700020F6E7C4
:103F4000FDF796FE8046A07A20B300267FB1012FB0
:103F50000CD107E00223012200212046FEF7EDFCF0
:103F6000701CC6B2A07A0028F4D109E000BF022379
:103F7000012200212046FEF7E0FC701CC6B200BF03
:103F800000BF4046FDF778FEFEF717F80E202870B8
:103F90003046CCE74046FDF76FFE0020287000BF9A
:103FA000C5E770B5044600250CB9042070BD207823
:103FB000032801D00120F9E7FDF75AFE0546A07A53
:103FC00060B10023012219462046FEF7B6FC2846C0
:103FD000FDF752FEFDF7F1FF0020E7E720894FF6DD
:103FE000FF71884207D22089401C20812846FDF7B6
:103FF00043FE0020DAE72846FDF73EFE3320D5E7F2
:104000002DE9F04704460D464FF0000914B904208D
:10401000BDE8F0870DB90920FAE72078032801D020
:104020000120F5E7FDF724FE8146A07AA87204F18D
:104030000B0705F10208002605E017F8010B08F848
:10404000010B701CC6B2082EF7D320892880484681
:10405000FDF712FE0020DBE72DE9F04104460E4695
:10406000154600271CB904202870BDE8F08120788F
:10407000032802D001202870F7E7FDF7F9FD074675
:1040800000202870208908B1268105E0A07A08B9AF
:10409000268101E0492028703846FDF7EDFD00BF7C
:1040A000E3E70000710000205C0000203F000000FA
:1040B00072000020840000202DE9F04F85B0814679
:1040C000884600200090B9F13F0F06D3B9F1FF0FE9
:1040D00003D02A2005B0BDE8F08FB8F13F0F01D31F
:1040E0002A20F7E7FDF7C4FD0090F94850F82800B2
:1040F00020B10098FDF7C0FD2820EBE7B9F1FF0FD4
:1041000003D1F448006890F83690F14850F82950EF
:1041100025B90098FDF7B0FD2920DBE7012D04D17A
:104120000098FDF7A9FD4320D4E74FEAE80708F01F
:10413000070003900120B84000F0FF0A0121039816
:10414000814001F0FF0B0020E14941F829000846B9
:1041500040F8285015F8386FA87802906878383DF4
:104160000190DD48815D01980140D1B1DA48805D60
:1041700001998843D84988550846805D28B9D748B1
:10418000007802998843D5490870D448007840EAFD
:104190000A00D2490870D048C05D40EA0B00CE4901
:1041A000C855EC69D4B104F10B00805D01998843D6
:1041B00004F10B0188550846805D18B9A07A029970
:1041C0008843A072A07A40EA0A00A07204F10B00B2
:1041D000C05D40EA0B0004F10B01C855286A30B3FA
:1041E000286A0490049804681FE004F10B00805DC5
:1041F0000199884304F10B0188550846805D18B980
:10420000A07A02998843A072A07A40EA0A00A072BC
:1042100004F10B00C05D40EA0B0004F10B01C8552E
:104220000498001D049004980468002CDDD185F8E2
:10423000368085F83870039885F8370085F83AA0FD
:1042400085F839B00098FDF717FDA54800780128DA
:1042500001D1FDF7B2FE00203CE72DE9FE4F0646F6
:104260000F4690461C464FF000093F2C02D92A20E9
:10427000BDE8FE8FFDF7FCFC81469A48007820B12E
:104280004846FDF7F9FC3C20F2E7914850F824003D
:1042900060BB01208E4941F824004846FDF7ECFC44
:1042A0000023424639463046FDF74DFC8246002049
:1042B0000090019003460246514602902046FEF7C8
:1042C000CCFB054635B98648007801280CD1FDF7AE
:1042D00074FE09E0FDF7CCFC814600207C4941F8E2
:1042E00024004846FDF7C8FC2846C1E74846FDF7CC
:1042F000C3FC2820BCE702F0010343B102F0020333
:104300002BB102E0491E002308C00029FAD17047F2
:104310002DE9F04F85B081468A4693461C46DDE97B
:104320000F78129D002003903F2C03D92A2005B05E
:10433000BDE8F08FFDF79CFC03906A48007820B13F
:104340000398FDF799FC3C20F1E7614850F8240000
:1043500088BB01205E4941F824000398FDF78CFCDE
:104360002A4641463846FFF7C6FF2B465A46514675
:104370004846FDF7E8FB04901198CDE900800295CE
:104380003A4620460E9B0499FEF767FB064636B96F
:104390005348007801280CD1FDF70FFE09E0FDF726
:1043A00067FC039000204A4941F824000398FDF778
:1043B00063FC3046BBE7FFE70398FDF75DFC282070
:1043C000B5E72DE9F041054600274648007810B1D1
:1043D0004020BDE8F0813F2D01D13E20F9E73F2D7F
:1043E00003D3FF2D01D02A20F3E7FDF741FC074658
:1043F000FF2D03D13748006890F83650344850F804
:10440000254024B93846FDF737FC4320E1E7012C6D
:1044100004D13846FDF730FC3D20DAE714F8380FB8
:104420002D49085C6178884321782B4A505414F850
:1044300038091146085C30B994F83A1027480078DA
:10444000884326490870E06918B12046E169FEF703
:104450005FFA206A18B12046216AFDF784FDA66A3A
:1044600016B13046FEF75EFC0020206384F834006D
:1044700084F835001C480078FF2804D21A480078D8
:10448000401C194908703846FDF7F6FBFEF73FFA65
:10449000FDF7EEFB07461448007820B1124800787B
:1044A000401E114908702046FDF73FFB0F48007879
:1044B000401E0E4908700020054941F82500A069FA
:1044C000C0B900206169886109496069086017E026
:1044D00018A1002084000020760000207500002034
:1044E0007E00002071000020720000207F0000206C
:1044F00090000020D4E905014861D4E905108861E5
:10450000F74800686061F6480460F6A02065384608
:10451000FDF7B2FBF4480078012801D1FDF74DFD0D
:10452000002056E72DE9F041044600273F2C02D138
:104530003E20BDE8F0813F2C03D3FF2C01D02A2080
:10454000F7E7FF2C0BD1FDF793FB0746E748006820
:1045500090F83B603846FDF78FFB3046E9E7FDF702
:1045600087FB0746E24850F8245025B93846FDF746
:1045700083FB4320DDE7012D04D13846FDF77CFBAA
:104580003D20D6E73F2085F83B003846FDF774FB19
:104590000020CEE72DE9F04705460E4614464FF0C1
:1045A00000083F2D06D9FF2D04D02A2020700020BE
:1045B000BDE8F0871EB90C2020700020F8E7CD4838
:1045C000007818B1112020700020F1E7FDF750FBB2
:1045D0008046FF2D03D1C548006890F83650C44886
:1045E00050F8257037B94046FDF746FB4320207050
:1045F0000020DDE7012F06D14046FDF73DFB4320BB
:1046000020700020D4E7386D30603068FDF734FC4E
:1046100081464046FDF730FB002020704846C7E742
:104620002DE9F04105460F4614464FF000083F2D96
:1046300005D9FF2D03D02A202070BDE8F08117B9DD
:104640000C202070F9E7AB48007810B112202070E0
:10465000F3E7FDF70DFB8046FF2D03D1A34800686B
:1046600090F83650A24850F825602EB94046FDF724
:1046700003FB43202070E0E7012E05D14046FDF703
:10468000FBFA43202070D8E737654046FDF7F4FA7F
:104690000020207000BFD0E770B5054600263F2DF2
:1046A00001D32A2070BDFDF7E3FA0646904850F882
:1046B000254024B93046FDF7DFFA4620F2E7012C09
:1046C00004D13046FDF7D8FA4320EBE794F83400E4
:1046D00000F0080060B314F8340F00F0F700207009
:1046E00014F83409F8B9206BC8B93834A078824975
:1046F000097808438049087020788049085C61780F
:10470000084314F838197D4A50543046FDF7B4FA7E
:1047100075480078012809D1FDF74FFC06E03046C6
:10472000FDF7AAFA02E03046FDF7A6FA0020B9E745
:104730003046FDF7A1FA4420B4E72DE9F0470646DC
:104740000C464FF0000A3F2E04D9FF2E02D02A203B
:10475000BDE8F0870CB90920FAE70020206060600E
:10476000FDF786FA8246FF2E03D16048006890F874
:1047700036605F4850F8265025B95046FDF77CFA60
:104780004320E5E7012D04D15046FDF775FA43209B
:10479000DEE7287C00F0010020B95046FDF76CFAF6
:1047A0004520D5E70027D5F80C90D5F8088050466D
:1047B000FDF762FA00E07F1C58F8041B0029FAD0CC
:1047C000B8002060A9EB0700800060600020BFE710
:1047D0002DE9F04105464FF000083F2D02D147205A
:1047E000BDE8F0813F2D03D3FF2D01D02A20F7E74C
:1047F000FDF73EFA8046FF2D05D13C48006890F851
:104800003650012608E03948006890F83600A84282
:1048100001D1012600E00026354850F8254024B992
:104820004046FDF729FA4820DAE7012C04D140463A
:10483000FDF722FA4320D3E794F838702F48C05D83
:1048400094F8391088432D49C8550846C05D30B9E1
:1048500094F83A102848007888432749087094F85B
:10486000340040F0080084F834004046FDF704FAB4
:10487000012E01D1FDF7A1FB0020B1E72DE9F041A8
:1048800004460E4600273F2C04D9FF2C02D02A20D4
:10489000BDE8F0810EB90920FAE7FDF7E9F907460E
:1048A000FF2C03D11148006890F83640104850F8AA
:1048B000245025B93846FDF7DFF92920E8E7012D16
:1048C00004D13846FDF7D8F94320E1E758222946BC
:1048D0003046FEF7B8F83846FDF7CEF90020D7E7A6
:1048E000880000203F0000007E000020840000209F
:1048F00018A1002071000020750000207600002023
:104900002DE9F04704460E4615464FF000093F2CAE
:1049100006D3FF2C04D02A2028700020BDE8F087A1
:104920001EB1082028700020F8E7FDF7A1F98146A4
:10493000FF2C02D12148076802E0214850F824707A
:1049400007F1540050F826804846FDF795F90020FD
:1049500028704046E2E72DE9F04704460E469046AF
:104960001D464FF000093F2C05D3FF2C03D02A2011
:104970002870BDE8F08716B108202870F9E7FDF728
:1049800077F98146FF2C02D10C48076802E00C48F9
:1049900050F8247007F1540040F826804846FDF78F
:1049A0006BF90020287000BFE3E710B503480068EA
:1049B00000F062FCFF20FFF704FD10BD8400002022
:1049C00018A1002070B5054600266C48007800B19B
:1049D00070BD6B48007800B1FAE71DB3FDF748F9E8
:1049E00006466848006890F838406748005D6549A9
:1049F000096891F839108843634908550846005DF5
:104A000040B96048006890F83A10604800788843E0
:104A10005E4908705B48006805633046FDF72CF975
:104A2000FDF7CBFA00BFD3E72DE9F04107460C466E
:104A300015461E465148007810B15520BDE8F0815A
:104A40004F48007808B13220F8E727B91CB915B9EA
:104A50000EB95420F2E73B2C01D95120EEE73B2D53
:104A600001D95220EAE7B6F57A7F01D35320E5E772
:104A7000701D642148434FF47A71B0FBF1F14FF49B
:104A800061607843C4EB041200EB8200284400EB21
:104A9000C00202EB001001EB80084046FFF792FFD6
:104AA0000020CBE770B5054600263F2D01D32A2014
:104AB00070BDFDF7DDF80646354850F8254024B9AD
:104AC0003046FDF7D9F84320F2E7012C04D13046F7
:104AD000FDF7D2F84320EBE7206B20B93046FDF715
:104AE000CBF85020E4E70020206394F8340000F075
:104AF000370040B114F8340F20F037002070012047
:104B00006070343C02E0002084F8350094F83400F2
:104B100000F00800A8B93834A0781C490978084387
:104B20001A49087020781849085C6178084314F81D
:104B30003819154A50543046FDF79EF8FDF73DFAF6
:104B400002E03046FDF798F80020B1E770B5002587
:104B5000FDF78EF805460F4804682846FDF78CF8E7
:104B6000204670BD70B504460025FDF781F8054666
:104B7000084804602846FDF77FF870BD71000020EA
:104B800072000020840000207600002075000020C4
:104B900018A10020A0000020F748006808B90020F4
:104BA0007047F5480168F44AC86810600020C86082
:104BB0000861F2480088401CF04A1080F0480088E4
:104BC000401EEF4A10800846EAE72DE9F05F0646EE
:104BD0000F4690469946DDE90AAB0C9DB8F1010FEE
:104BE00009D0B8F1020F0CD127B98320287000201A
:104BF000BDE8F09F09E01EB9822028700020F7E789
:104C000003E0842028700020F2E700BFDD48007830
:104C100018B18B2028700020EAE7FDF793FDFFF71D
:104C2000BBFF04462CB9FDF7A6FD862028700020A6
:104C3000DEE7012084F82500A661E76184F824807E
:104C4000C4F80490C4F808A0C4F820B0FDF793FDA0
:104C5000002028702046CBE7002180F8251080F83E
:104C60002410C161416141608160C7A101620021DE
:104C70000161C1490968C160BF490860BF4909882D
:104C8000491EBE4A1180BE490988491CBC4A118090
:104C9000704730B5057D05F00704BC4D05EBC40336
:104CA0001D68854205D1C168196039B100250D61C3
:104CB00004E00169C268CA6002B11161012580F88F
:104CC00025500025C56005619D886D1E9D8030BD05
:104CD00070B505460C461DB98A202070002070BDB5
:104CE0002878642803D0892020700020F7E7A548A1
:104CF000007818B18B2020700020F0E7FDF722FD2E
:104D000095F82500D8B101280FD002280ED003282D
:104D10001BD12846FFF7BDFF2846FFF79DFFFDF793
:104D20002AFD002020700120D9E700BF2846FFF7A8
:104D300093FFFDF720FD002020700120CFE7FDF755
:104D40001AFD872020700020C9E7FDF714FD8D2093
:104D500020700020C3E72DE9F04105460E461446B9
:104D600026B9882020700020BDE8F0811DB98A2076
:104D700020700020F8E72878642803D0892020706C
:104D80000020F1E77F48007818B111202070002042
:104D9000EAE7FDF7D7FC95F8250098B1012804D083
:104DA000022803D0032813D100BF00BF286A306057
:104DB0003068FDF761F80746FDF7DDFC0020207044
:104DC0003846D1E7FDF7D7FC872020700020CBE7DD
:104DD000FDF7D1FC8D2020700020C5E770B504469A
:104DE0000D461CB98A202870002070BD20786428E8
:104DF00003D0892028700020F7E76248007818B1B6
:104E00008B2028700020F0E7FDF79CFC94F825002B
:104E100070B301280DD0022825D003282ED15C497B
:104E200060690968461AFDF7A6FC00202870304624
:104E3000DBE794F8240001280CD0022809D1A069EE
:104E400008B9E66900E0A669FDF795FC0020287026
:104E500006E000BFA669FDF78EFC0020287000BFA9
:104E600000BF3046C1E7FDF786FC00202870BCE794
:104E7000FDF781FC872028700020B6E7FDF77BFC5A
:104E80008D2028700020B0E770B505460C461DB98E
:104E90008A202070002070BD2878642803D08920E3
:104EA00020700020F7E73748007818B18B20207079
:104EB0000020F0E7FDF746FC95F8256036B1012E9D
:104EC00005D0022E04D0032E06D102E000BF00BFA1
:104ED00000BF0020207002E08D20207000BF00BFC6
:104EE000FDF749FC3046D6E770B50B46032580F840
:104EF0002550012B05D1264EC569366835444561DC
:104F00000CE085692DB9224EC56936683544456186
:104F100004E01F4E8569366835444561057D05F01E
:104F200007041A4D05EBC4010D682DB90860002572
:104F3000C56001258D8006E00A680860C2601061C6
:104F40008D886D1C8D800025056170BD70B505468E
:104F50000C461DB98A202070002070BD2878642876
:104F600003D0892020700020F7E70648007888B138
:104F70008B2020700020F0E7B4000020A600002065
:104F8000A4000020710000203F00000070B200204B
:104F9000A8000020FDF7D6FB95F82500E8B1012810
:104FA00010D002280FD003281DD12846FFF771FE2C
:104FB00000212846FFF798FFFDF7DDFB0020207059
:104FC0000120CAE700BF00212846FFF78DFFFDF74B
:104FD000D2FB002020700120BFE7FDF7CCFB87202B
:104FE00020700020B9E7FDF7C6FB8D20207000205F
:104FF000B3E72DE9F04105460F4690461C4625B91A
:105000008A2020700020BDE8F0812878642803D031
:10501000892020700020F6E77D48007818B18B20A9
:1050200020700020EFE7FDF78DFB95F8250090B389
:1050300001282AD0022827D0032833D12846FFF799
:1050400028FE00202070B7B1032F02D0042F13D107
:1050500008E06E681EB12846A968B04701E08F20BD
:1050600020700CE06E681EB141462846B04701E052
:105070008F20207003E002E08420207000BF00BF7A
:10508000FDF779FB0120BEE700BFFDF774FB8E2022
:1050900020700120B7E7FFE7FDF76DFB8720207048
:1050A0000020B0E7FDF767FB8D2020700020AAE705
:1050B00010B558480068FEF774FF0446204610BD3E
:1050C00008B500BF00BF6A46002152480068FEF7DD
:1050D000ADFEFDF737FB50480068401C4E490860A4
:1050E0000846007800F007084C4800EBC8073C6809
:1050F0001AE0E668484960690968884213D1204689
:10510000FFF7C7FD94F82400022804D101212046AE
:10511000FFF7EAFE02E0022084F82500656815B179
:105120002046A168A8473446002CE2D1FDF723FBB6
:10513000C9E700B587B0032000218022384BCDE9B4
:105140000132CDE903104FF6FD703D23354A009042
:105150003548FFF7DDF806AA34A13D20FFF760FAD5
:1051600007B000BDF8B54FF420713448FDF7ABF936
:1051700040212A48FDF7A7F9002515E0681C86B2F2
:1051800005EB85002D4901EBC00406EB860001EB21
:10519000C00764202070002084F82500E760AFF28B
:1051A00018202062681C85B20F2DE7D305EB85001F
:1051B000224901EBC00464202070002084F82500FF
:1051C000E060AFF23C2020620020134908601C49D7
:1051D000088010201B49088018481B4908600120DE
:1051E000FEF792FD194908600020FEF78DFD094980
:1051F00008606A4616A115480068FCF782FE6A46F8
:1052000018A104480068FCF77CFEFFF792FFF8BD88
:1052100071000020B0000020A800002070B2002023
:1052200070B000206CB20020C150000875432F4FB1
:10523000532D494920546D7200000000F0AD00204C
:10524000A6000020A4000020B4000020AC00002034
:1052500075432F4F532D494920546D724C6F636B2A
:105260000000000075432F4F532D494920546D72A3
:105270005369676E616C00007047704770477047F4
:1052800070477047704770477047000010B504467C
:105290008C48844208D10121084600F000FB00211F
:1052A000012000F0FCFA5EE08748844208D1012129
:1052B000022000F0F4FA0021022000F0F0FA52E09F
:1052C0008248844208D10121042000F0E8FA00213C
:1052D000042000F0E4FA46E07D48844208D1012130
:1052E000082000F0DCFA0021082000F0D8FA3AE0AB
:1052F0007848844208D10121102000F0D0FA002122
:10530000102000F0CCFA2EE07348844208D101212D
:10531000202000F0C4FA0021202000F0C0FA22E092
:105320006E48844208D10121402000F0B8FA0021E3
:10533000402000F0B4FA16E06948844208D1012107
:10534000802000F0ACFA0021802000F0A8FA0AE0EA
:105350006448844207D10121801500F0A0FA0021A1
:10536000A01500F09CFA10BDF0B50A4600210023FC
:10537000002400BF3DE0012505FA01F3156805EAA8
:1053800003049C4234D105684F000326BE40B54358
:10539000056015794E00B5400668354305601579FE
:1053A000012D02D01579022D16D185684F000326F4
:1053B000BE40B543856055794E00B540866835439B
:1053C0008560456801268E40B543456045689679FD
:1053D0008E40B6B235434560C5684F000326BE40D7
:1053E000B543C560D5794E00B540C6683543C56044
:1053F000491C1029BFD3F0BD4FF6FF710160002199
:10540000017141718171C171704708B54FF48032EB
:105410000092009A0A430092009AC261C161009A08
:10542000C261C2690092C269009208BD02460020B2
:1054300013690B400BB1012000E0002070470146CA
:10544000086980B270470246002053690B400BB1D7
:10545000012000E0002070470146486980B2704793
:1054600001837047418370470AB1018300E04183A3
:1054700070474161704742694A4042617047F0B5E8
:10548000002300244D07ED0E02FA05F3CE1000F1C3
:10549000200555F826504E07F70E0F26BE40B5439F
:1054A000CF1000F1200646F82750CE1000F120055D
:1054B00055F8265045EA0304CE1000F1200545F8C2
:1054C0002640F0BD000002400004024000080240F7
:1054D000000C02400010024000140240001802407C
:1054E000001C024000200240FA48006840F0010021
:1054F000F84908600020F74908310860F54800685D
:10550000F5490840F3490860F448091D0860081F80
:10551000006820F48020091F08600020ED490C314C
:10552000086070470021EB4A921C11701146087008
:10553000704710B501460022002300204A11012ABD
:1055400002D1E44C236808E0022A03D1E14C703414
:10555000236802E0DF4C7434236801F01F02012449
:1055600094401C400CB1012000E0002010BD38B573
:10557000002000900024002500BF3120FFF7D9FF54
:1055800005460098401C00900098B0F5A06F01D02F
:10559000002DF2D03120FFF7CCFF08B1012400E04C
:1055A0000024204638BD01460020CA4A106820F079
:1055B000F80040EAC10010607047C94908607047B0
:1055C0000021C44A703211701170012802D00428E1
:1055D0000AD104E00121BF4A7032117005E00521B3
:1055E000BC4A7032117000E000BF00BF7047BD4977
:1055F0000860704770B5049C41EA82150126C6EB2D
:10560000530645EA0645054345EA0465B14E361D95
:10561000356070BDB24908667047820142EA017286
:10562000AC4B84331A607047AD4988667047AC490B
:10563000C864704702460020A64B0833186820F063
:10564000EC6042EA01031843A24B0833186070472C
:10565000024600209F4B0833186820F0784042EA49
:10566000010318439B4B0833186070470146002024
:10567000984A0832106820F0030008431060704711
:1056800094480830006800F00C0070470146002084
:10569000904A0832106820F0F0000843106070470C
:1056A000014600208B4A0832106820F4E05008437D
:1056B0001060704701460020864A0832106820F4C6
:1056C000604040EAC10010607047F0B50021002240
:1056D00000240225002602237E4F08373F6807F08A
:1056E0000C0121B1042905D0082937D105E07E4FEE
:1056F000076036E07D4F076033E0764F3F1D3F681F
:10570000C7F38056734F3F1D3F6807F03F036EB1EC
:10571000764FB7FBF3F7DFF8BCC10CF1040CDCF8F3
:1057200000C0CCF3881C07FB0CF40CE06E4FB7FBF9
:10573000F3F7DFF8A0C10CF1040CDCF800C0CCF3E7
:10574000881C07FB0CF4634F3F1D3F68C7F30147FC
:105750007F1C7D00B4FBF5F7076002E0624F076035
:1057600000BF00BF5B4F08373F6807F0F001090931
:105770005F4F7A5C0768D7404760564F08373F68ED
:1057800007F4E051890A5A4F7A5C4768D74087602E
:10579000504F08373F6807F46041490B544F7A5C1B
:1057A0004768D740C760F0BD002100F44072B2F5F1
:1057B000407F0AD1474A0832116821F4F8114D4A56
:1057C00002401143434A08321160424A7032126863
:1057D000C0F30B031A433F4B70331A6070474149C3
:1057E0004439086070473F49403908607047424972
:1057F0000860704739B1374A303212680243354B7E
:1058000030331A6006E0334A303212688243314B3B
:1058100030331A60704739B12E4A3432126802436D
:105820002C4B34331A6006E02A4A34321268824321
:10583000284B34331A60704739B1264A383212681F
:105840000243244B38331A6006E0224A3832126889
:105850008243204B38331A60704739B11D4A4032B9
:10586000126802431B4B40331A6006E0194A40326B
:1058700012688243174B40331A60704739B1154A9A
:10588000443212680243134B44331A6006E0114A53
:105890004432126882430F4B44331A60704739B167
:1058A0000C4A1032126802430A4B10331A6006E0A9
:1058B000084A103212688243064B10331A60704750
:1058C000E1B1044A143212680243024B14331A60E5
:1058D00019E0000000380240FFFFF6FE10300024FF
:1058E00000004742800E47420024F40000127A0074
:1058F000B8000020FFFCFF0F5C0147425B4A1268C2
:1059000082435A4B1A60704739B1584A121D1268C7
:105910000243564B1B1D1A6006E0544A121D1268C2
:105920008243524B1B1D1A60704739B14F4A0C32EB
:10593000126802434D4B0C331A6006E04B4A0C329E
:1059400012688243494B0C331A60704739B1474A99
:10595000103212680243454B10331A6006E0434A86
:10596000103212688243414B10331A60704739B1CC
:105970003E4A3C32126802433C4B3C331A6006E01C
:105980003A4A3C3212688243384B3C331A607047C3
:1059900039B1364A403212680243344B40331A6000
:1059A00006E0324A403212688243304B40331A607C
:1059B000704739B12D4A4432126802432B4B4433AD
:1059C0001A6006E0294A443212688243274B443366
:1059D0001A60704739B1254A4C3212680243234B92
:1059E0004C331A6006E0214A4C32126882431F4B46
:1059F0004C331A60704739B11C4A50321268024366
:105A00001A4B50331A6006E0184A5032126882432B
:105A1000164B50331A60704739B1144AD21F1278AE
:105A20000243124BDB1F1A7006E0104AD21F127895
:105A300082430E4BDB1F1A7070470C4860300068C1
:105A400040F08070094960310860704701460020CD
:105A5000064A083A12680A400AB1012000E0002014
:105A600070470249891F08707047000014380240CF
:105A700032490143324A1160704770B5002100235A
:105A80000F22C4781CB32E4C246804F4E064C4F5DF
:105A9000E064C4F30721C1F10404E3B20A4144788D
:105AA0009C40E1B28478144021430C07210E254C20
:105AB00005786155047804F01F050124AC40057891
:105AC0006D11AD0005F1E025C5F8004109E004784D
:105AD00004F01F050124AC401B4D0678761145F8F3
