:020000040800F2
:1000000010470020290200080D1100087510000893
:1000100079100008E30200085F1C000800000000DF
:100020000000000000000000000000002513000890
:10003000C50E0008000000003F0200084102000851
:10004000430200084302000843020008430200087C
:10005000430200084302000843020008430200086C
:10006000430200084302000843020008430200085C
:10007000430200084302000843020008430200084C
:10008000430200084302000843020008430200083C
:10009000E902000843020008430200084302000886
:1000A000430200087D1400084302000843020008D0
:1000B00099140008E9140008051500084302000817
:1000C00043020008430200084302000843020008FC
:1000D00043020008151800083D1800085D180008C4
:1000E00043020008430200084302000843020008DC
:1000F0003D150008430200084302000843020008BF
:1001000043020008430200082115000843020008CA
:1001100043020008F51700084302000843020008E4
:10012000430200084302000843020008430200089B
:10013000430200084302000843020008430200088B
:10014000430200084302000843020008430200087B
:10015000430200084302000843020008430200086B
:10016000430200084302000843020008430200085B
:10017000430200084302000843020008430200084B
:10018000430200084302000800F002F800F03CF8C7
:100190000AA090E8000C82448344AAF10107DA45E2
:1001A00001D100F031F8AFF2090EBAE80F0013F0F8
:1001B000010F18BFFB1A43F001031847241C00006D
:1001C000441C0000103A24BF78C878C1FAD85207FE
:1001D00024BF30C830C144BF04680C6070470000C1
:1001E0000023002400250026103A28BF78C1FBD840
:1001F000520728BF30C148BF0B6070471FB501F0E0
:1002000079FD1FBD10B510BD00F031F81146FFF7A4
:10021000F5FF01F065FD00F04FF803B4FFF7F2FFC2
:1002200003BC00F057F80000094880470948004720
:10023000FEE7FEE7FEE7FEE7FEE7FEE7FEE7FEE796
:10024000FEE7FEE704480549054A064B70470000F3
:100250001514000889010008100100201047002033
:1002600010430020104300207047704770477546C8
:1002700000F02CF8AE4605006946534620F0070012
:10028000854618B020B5FFF7DDFFBDE820404FF0F0
:1002900000064FF000074FF000084FF0000B21F070
:1002A0000701AC46ACE8C009ACE8C009ACE8C0093D
:1002B000ACE8C0098D46704710B50446AFF3008026
:1002C0002046BDE81040FFF7A8BF00000048704777
:1002D000B000002001491820ABBEFEE72600020056
:1002E000704700BFFEE700001CB50823444A45499B
:1002F000454800F04BFC002005E04149095C0DF841
:100300000010411CC8B20828F7DB40490098884219
:1003100021D13F480078401C3D49087039480068A9
:10032000A0F2812030B1012808D002280AD0032889
:1003300010D10BE03749019808600BE0354901986E
:10034000486007E033490198886003E0314901982B
:10035000C86000BF26E045F650010098884221D1D0
:100360002B480078401C2A49087026480068A0F2F3
:10037000812030B1012808D002280AD0032810D1EA
:100380000BE02549019808600BE02349019848607B
:1003900007E021490198886003E01F490198C8607F
:1003A00000BF00BF1D49184800F044F81B49491C14
:1003B000154800F03FF81949C91C134800F03AF8F5
:1003C0001749114800F036F816490F4800F032F886
:1003D00015490D4800F02EF8134908310A4800F07D
:1003E00029F81249084800F025F81149064800F09C
:1003F00021F80F490831044800F01CF81CBD00002A
:1004000009000020140000200064004056580040FD
:100410000400002078000020880000200100F01077
:100420007000F030030000120800003203000014D6
:100430000800003400220C4B994202D10023836152
:1004400011E0C1F3130201F000730BB1C2600AE0C6
:1004500001F080630BB1026105E001F000630BB1B4
:10046000826000E0426070477000F0302DE9F04F8C
:100470008BB006460F4614461D46DDF850804FF0FF
:100480000009CA46CB46B5F5807F43D012DC102D5B
:1004900034D008DC012D25D0022D26D0042D27D004
:1004A000082D4FD127E0202D2BD0402D2CD0802D92
:1004B00048D12CE0B5F5805F38D009DCB5F5007F78
:1004C0002BD0B5F5806F2BD0B5F5006F3AD12AE06F
:1004D000B5F5005F2DD0B5F5804F2DD0B5F5004FA7
:1004E00030D12CE04FF000092DE04FF001092AE057
:1004F0004FF0020927E04FF0030924E04FF0040910
:1005000021E04FF005091EE04FF006091BE04FF017
:10051000070918E04FF0080915E04FF0090912E04B
:100520004FF00A090FE04FF00B090CE04FF00C09F7
:1005300009E04FF00D0906E04FF00E0903E04FF01F
:100540000F0900E000BF00BFB8F5807F4BD01ADC78
:10055000B8F1100F3BD00CDCB8F1010F2BD0B8F183
:10056000020F2BD0B8F1040F2BD0B8F1080F52D1E5
:100570002AE0B8F1200F2DD0B8F1400F2DD0B8F1FE
:10058000800F48D12CE0B8F5805F38D009DCB8F591
:10059000007F2BD0B8F5806F2BD0B8F5006F3AD123
:1005A0002AE0B8F5005F2DD0B8F5804F2DD0B8F512
:1005B000004F30D12CE04FF0000A2DE04FF0010A3F
:1005C0002AE04FF0020A27E04FF0030A24E04FF040
:1005D000040A21E04FF0050A1EE04FF0060A1BE076
:1005E0004FF0070A18E04FF0080A15E04FF0090A2B
:1005F00012E04FF00A0A0FE04FF00B0A0CE04FF048
:100600000C0A09E04FF00D0A06E04FF00E0A03E075
:100610004FF00F0A00E000BF00BF7E48304418B121
:10062000B0F5806F1AD10CE04FF0090B00208DF867
:10063000120014208DF804000121480600F0BEFDD0
:100640000DE04FF0090B0E208DF8120040208DF8C0
:1006500004000121000500F0B1FD00E000BF00BF73
:10066000C4F3090078BBA012A0F5801080380928D7
:1006700034D2DFE800F0050A0F14191E23292E00DA
:100680000121084600F08AFD29E00121022000F046
:1006900085FD24E00121042000F080FD1FE0012100
:1006A000082000F07BFD1AE00121102000F076FD0B
:1006B00015E00121202000F071FD10E00121402013
:1006C00000F06CFD0BE009E00121802000F066FDE8
:1006D00005E00121080200F061FD00E000BF00BF5D
:1006E0005A464946204600F047FC5A4651462046A5
:1006F00000F042FC45EA0800099002208DF828002D
:100700008DF8290000208DF82A0001208DF82B009B
:1007100009A9204600F0E8FB304600F07DF80020F3
:100720008DF81E008DF81F008DF820008DF8210037
:100730008DF822008DF823008DF81A008DF81B002B
:100740000B208DF81C0007208DF81D007D2F22D076
:1007500008DC0A2F0FD0142F11D0322F13D0642FA2
:1007600029D114E0FA2F1AD0B7F5FA7F1BD0B7F5CC
:100770007A7F20D11BE0C820ADF818001CE064206F
:10078000ADF8180018E02820ADF8180014E0142087
:10079000ADF8180010E01020ADF818000CE00820AB
:1007A000ADF8180008E00420ADF8180004E00220BD
:1007B000ADF8180000E000BF00BF06A9304600F009
:1007C000D4F800208DF8130001208DF814000020CB
:1007D000ADF80800ADF80A00ADF80C00ADF80E0059
:1007E000ADF8100001208DF8150002A800F030F8D7
:1007F00001208DF805008DF806008DF8070001A88E
:1008000000F086FC01220221304600F0A5F80BB072
:10081000BDE8F08F009CFFBF10B504460B48844232
:1008200009D10121480600F0D9FC00214FF00070E9
:1008300000F0D4FC08E00121880600F0CFFC002184
:100840004FF0806000F0CAFC10BD00000064004062
:1008500010B50021837A012202FA03F13D4A1268A1
:1008600042F001023B4B1A603A4A1C3212688A433A
:10087000384B1C331A60027BCAB9364A0C321268F4
:100880008A43344B0C331A604288C38842EA0343DC
:10089000304A4032847A42F834300288838842EA0F
:1008A00003432C4A4032847A02EBC4025360027B39
:1008B000012A19D1274A0C3212680A43254B0C33FE
:1008C0001A604288038842EA0343224A4032847A0B
:1008D00042F83430C288838842EA03431D4A4032DA
:1008E000847A02EBC4025360C27A3AB9194A121DE3
:1008F00012688A43174B1B1D1A6006E0154A121D29
:1009000012680A43134B1B1D1A60028932B9114A3F
:10091000143212688A430F4B14331A600289012A79
:1009200006D10C4A143212680A430A4B14331A6077
:10093000427B012A06D1074A1C3212680A43054B42
:100940001C331A60034A126822F00102014B1A603C
:1009500010BD0000006600401AB143690B434361BB
:1009600002E043698B434361704730B50246002083
:100970000023146824F002041460146844F0010495
:10098000146000E05B1C546804F001041CB94FF6CD
:10099000FF74A342F6D1546804F001040CB900209E
:1009A0006CE08C79012C04D1146844F0800414604C
:1009B00003E0146824F080041460CC79012C04D185
:1009C000146844F04004146003E0146824F0400408
:1009D00014600C7A012C04D1146844F020041460D3
:1009E00003E0146824F0200414604C7A012C04D134
:1009F000146844F01004146003E0146824F0100438
:100A000014608C7A012C04D1146844F0080414603A
:100A100003E0146824F008041460CC7A012C04D19B
:100A2000146844F00404146003E0146824F004041F
:100A300014608C78A407CD7844EA05640D7944EA03
:100A400005444D7944EA05540D886D1E2C43D4614C
:100A5000146824F001041460002300E05B1C546857
:100A600004F001041CB14FF6FF74A342F6D15468A0
:100A700004F001040CB1002000E0012030BD02466A
:100A8000002019B9D36803F0030006E0012903D15F
:100A9000136903F0030000E00020704710B500F573
:100AA000D87303EB01131B6803F004031372137A6A
:100AB00053B900F5D87303EB01131B6840F2FF74C0
:100AC00004EA5353136009E000F5D87303EB0113F4
:100AD0001B686FF0604404EAD303536000F5D873D9
:100AE00003EB01131B6803F00203537200F5D87384
:100AF00003EB01135B6803F00F03937200F5D873E7
:100B000003EB01135B681B0AD37400F5D87303EB86
:100B100001139B68D37200F5D87303EB01139B6834
:100B20001C0A147300F5D87303EB01139B681C0CAB
:100B3000547300F5D87303EB01139B681B0E93737A
:100B400000F5D87303EB0113DB68D37300F5D8739A
:100B500003EB0113DB681C0A147400F5D87303EB74
:100B60000113DB681C0C547400F5D87303EB0113FC
:100B7000DB681B0E937421B9C36843F02003C36084
:100B800003E0036943F02003036110BD2DE9F04148
:100B900086B080460D4616461F460024002140467A
:100BA000FFF76DFF18B9002006B0BDE8F08101AA7B
:100BB00000214046FFF772FF002405E00DF10F0011
:100BC000005D3055601CC4B2BC42F7DB0198286060
:100BD0000120E9E710B502460020936803F0806326
:100BE000B3F1806F00D110E0936803F00063B3F1BC
:100BF000006F01D1012008E0936803F08053B3F146
:100C0000805F01D1022000E00420042874D002F5A6
:100C1000C07303EB00131B6803F0010402F5C073FB
:100C200003EB00131C600B7A7BB94B7A0C8843EA08
:100C3000445302F5C07404EB00142468234302F506
:100C4000C07404EB0014236010E00B7A4C6843EA94
:100C5000C4034C7A234302F5C07404EB00142468E7
:100C6000234302F5C07404EB001423608B7A03F075
:100C70000F038B7202F5C07303EB00135B6823F064
:100C80000F0402F5C07303EB00135C6002F5C07340
:100C900003EB00135B688C7A234302F5C07404EB0A
:100CA000001463608B7B1C064B7B44EA03440B7B84
:100CB00044EA0323CC7A234302F5C07404EB001406
:100CC000A3608B7C1C064B7C44EA03440B7C44EA07
:100CD0000323CC7B234302F5C07404EB0014E360D0
:100CE00002F5C07303EB00131B6843F0010402F527
:100CF000C07303EB00131C6010BD000010B502466A
:100D0000002321B1012907D002290FD109E0906801
:100D10001D4C00EA04030BE090681C4C00EA04033D
:100D200006E090681A4C00EA040301E0002300BFCB
:100D300000BF184C181BA34216D007DC83B16FF01C
:100D40008060184470B1022818D111E0B0F5007F1E
:100D500010D0114C204448B1B0F5003F0ED10BE04B
:100D600002230DE000230BE0002309E0002307E04D
:100D7000012305E0012303E0012301E0002300BF7C
:100D800000BFD8B210BD000003000004000300083B
:100D900000000310000100080001FFF72DE9F043F7
:100DA00085B081460D4690461E460024009501956B
:100DB00000208DF808008DF809008DF80A6000BF4A
:100DC00006E018F804100DF10B000155601C84B208
:100DD000B442F6DB69464846FFF7FCFE07460024AE
:100DE00000BF39464846FFF789FF0128F9D105B011
:100DF000BDE8F08310B588B0044601940020ADF83A
:100E00000800ADF80A00ADF80C00ADF810000C2099
:100E1000ADF80E000121084600F0C0F901211020B4
:100E200000F0ECF9254800F0DFFD07220A212448F4
:100E300000F0A2F807220921214800F09DF80020C7
:100E40008DF81A0001208DF81B0002208DF8180083
:100E50004002059002208DF8190005A9184800F0FD
:100E600043F802208DF818000002059005A91448E7
:100E700000F03AF801A9114800F06CFE35208DF819
:100E80001C0001208DF81F0000208DF81D0002209D
:100E90008DF81E004FF4A06000F076F907A800F06E
:100EA00037F9012240F22551044800F02EFE0121BD
:100EB000024800F08DFD08B010BD00000010014098
:100EC00000000240704700001CB50446054903C9F4
:100ED000CDE9000108236A4600212046FFF75EFFA6
:100EE0001CBD0000001D0008F0B50A4600210023CB
:100EF000002400BF3DE0012505FA01F3156805EA6D
:100F000003049C4234D105684F000326BE40B5431C
:100F1000056015794E00B5400668354305601579C2
:100F2000012D02D01579022D16D185684F000326B8
:100F3000BE40B543856055794E00B540866835435F
:100F40008560456801268E40B543456045689679C1
:100F50008E40B6B235434560C5684F000326BE409B
:100F6000B543C560D5794E00B540C6683543C56008
:100F7000491C1029BFD3F0BDF0B5002300244D0754
:100F8000ED0E02FA05F3CE1000F1200555F82650BB
:100F90004E07F70E0F26BE40B543CF1000F12006D6
:100FA00046F82750CE1000F1200555F8265045EAA6
:100FB0000304CE1000F1200545F82640F0BD0000E6
:100FC00010B588B004460121082000F0E7F801219F
:100FD000880400F0F3F8072208212448FFF7CCFF2B
:100FE000072209212148FFF7C7FF4FF44070069000
:100FF00002208DF81C008DF81D0000208DF81E00C9
:1010000001208DF81F0006A91848FFF76DFF029414
:101010000020ADF80C00ADF80E00ADF81000ADF8F2
:1010200014000C20ADF8120002A9114800F092FD46
:1010300001210F4800F0CCFC40210D4800F0B0FC2D
:10104000012240F225510A4800F05FFD27208DF86B
:10105000040000208DF8050001208DF806008DF8B1
:10106000070001A800F054F808B010BD000C0240C1
:101070000048004000BFFEE700BFFEE7F0B587B0C4
:1010800005460C46204903C9CDE9050104F5407029
:101090000090019000208DF808008DF809000820CC
:1010A0008DF80A000598C0B28DF80B000598010A6A
:1010B0008DF80C100598010C8DF80D100598000E98
:1010C0008DF80E000698C1B28DF80F100698010A2F
:1010D0008DF810100698010C8DF811100698000E6E
:1010E0008DF8120069462846FFF774FD0646002772
:1010F00002E0781C87B200BF31462846FFF7FEFDAC
:101100000128F6D107B0F0BD101D000800BFFEE7B2
:1011100070B5002100230F22C4781CB3174C24683B
:1011200004F4E064C4F5E064C4F30721C1F10404ED
:10113000E3B20A4144789C40E1B2847814402143F0
:101140000C07210E0E4C05786155047804F01F053C
:101150000124AC4005786D11AD0005F1E025C5F81E
:10116000004109E0047804F01F050124AC40054D5E
:101170000678761145F8264070BD00000CED00E0C1
:1011800000E400E080E100E002490143024A11600E
:10119000704700000000FA050CED00E029B1064A96
:1011A00012680243044B1A6004E0034A1268824347
:1011B000014B1A60704700003038024029B1064ADE
:1011C00012680243044B1A6004E0034A1268824327
:1011D000014B1A60704700004038024029B1064AAE
:1011E00012680243044B1A6004E0034A1268824307
:1011F000014B1A60704700002038024029B1064AAE
:1012000012680243044B1A6004E0034A12688243E6
:10121000014B1A60704700004438024029B1064A69
:1012200012680243044B1A6004E0034A12688243C6
:10123000014B1A607047000024380240F0B50021CD
:1012400000220024022500260223324F3F6807F0C7
:101250000C0121B1042905D0082937D105E02E4F12
:10126000076036E02D4F076033E02A4F3F1F3F688D
:10127000C7F38056274F3F1F3F6807F03F036EB10B
:10128000264FB7FBF3F7DFF88CC0ACF1040CDCF8A9
:1012900000C0CCF3881C07FB0CF40CE01E4FB7FB1E
:1012A000F3F7DFF870C0ACF1040CDCF800C0CCF34D
:1012B000881C07FB0CF4174F3F1F3F68C7F301471B
:1012C0007F1C7D00B4FBF5F7076002E0124F07605A
:1012D00000BF00BF0F4F3F6807F0F0010909104F32
:1012E0007A5C0768D74047600A4F3F6807F4E051CF
:1012F000890A0B4F7A5C4768D7408760054F3F6883
:1013000007F46041490B064F7A5C4768D740C760D5
:10131000F0BD0000083802400024F40000127A00FA
:101320001B000020704700000CB5002001900090C9
:101330003448006840F480303249086000BF3148CA
:10134000006800F4003000900198401C0190009863
:1013500018B90198B0F5A06FF1D12A48006800F4DF
:10136000003010B10120009001E0002000900098B2
:10137000012846D123484030006840F08050214980
:10138000403108602048006840F480401E490860F1
:101390001C48083000681B4908310860084600688E
:1013A00040F4004008600846006840F4A05008601F
:1013B0001648091F0860081F006840F08070091F68
:1013C000086000BF0F48006800F000700028F9D0E6
:1013D00040F205600E4908600A480830006820F0B5
:1013E00003000849083108600846006840F0020020
:1013F000086000BF03480830006800F00C000828AF
:10140000F8D10CBD0038024000700040085440077D
:10141000003C024010B51548006840F470001349C4
:1014200008601348006840F001001149086000207E
:101430000F49083108600E4800680E4908400C4901
:1014400008600D48091D0860081F006820F480200E
:10145000091F0860002006490C310860FFF764FF8F
:101460004FF0006001498039086010BD88ED00E050
:1014700000380240FFFFF6FE1030002410B50121B5
:10148000044800F078F8012803D10121014800F058
:1014900063F810BD0000014010B50121880700F07D
:1014A0006AF8012818D10121800700F055F80B488F
:1014B0000088401C094908800846008800EE100A90
:1014C000B8EE400ADFED060AB4EEE00AF1EE10FADB
:1014D00002DB01200349087010BD00000600002057
:1014E0000000C8420800002010B50121044800F0A7
:1014F00042F8012803D10121014800F02DF810BD68
:101500000004004010B50121044800F034F801281F
:1015100003D10121014800F01FF810BD0008004070
:1015200010B50121044800F026F8012803D101215B
:10153000014800F011F810BD000C004010B5012169
:10154000044800F018F8012803D10121014800F0F7
:1015500003F810BD00040140CA430282704721B164
:10156000028842F00102028004E002884FF6FE7316
:101570001A400280704730B5024600200023002444
:10158000158A05EA0103958905EA010413B10CB136
:10159000012000E0002030BD1AB183890B43838114
:1015A00002E083898B438381704700002DE9FF416E
:1015B00004460D4616461F46DDF828806949601A24
:1015C0008C4270D01ADC6849A4EB01008C426CD0CC
:1015D0000ADCB4F1804F4ED064482044002852D039
:1015E000B0F5806F71D156E0B0F5806F65D0B0F581
:1015F000006F6CD0B0F5406FF4D170E0B0F5923F61
:1016000021D009DCB0F5806F7AD0B0F5644F0AD0F4
:10161000B0F5684F7CD10EE0B0F5943F1BD0B0F52B
:10162000963F75D11FE001210846FFF7E7FD19201D
:101630008DF800006DE001210220FFF7DFFD2C2076
:101640008DF8000065E001210804FFF7D7FD1820A0
:101650008DF800005DE001211920FFF7CFFD2C205F
:101660008DF8000055E001218804FFF7C7FD1A201E
:101670008DF800004DE001210846FFF79FFD1C207A
:101680008DF8000045E001210220FFF797FD1D20A5
:101690008DF800003DE001210420FFF78FFD1E20A2
:1016A0008DF8000035E023E0FFE701210820FFF777
:1016B00085FD32208DF800002BE001211020FFF77E
:1016C0007DFD36208DF8000023E021E0FFE70121B9
:1016D0002020FFF773FD37208DF8000019E001216D
:1016E0004020FFF76BFD2B208DF8000011E007E094
:1016F00001218020FFF762FD2C208DF8000008E01A
:1017000001210802FFF75AFD2D208DF8000000E0AE
:1017100000BF00BF0295ADF804600020ADF80C00DA
:10172000ADF8060001A9204600F022F8012120466C
:10173000FFF712FF012211462046FFF72DFFF8B2F6
:101740008DF8010008F0FF008DF8020001208DF8EF
:1017500003006846FFF7DCFC01212046FFF7FFFE8F
:10176000BDE8FF81001C0040000C004000FCFFBFF2
:1017700000220288184B98420ED0184B98420BD08A
:10178000B0F1804F08D0164B984205D0154B9842C7
:1017900002D0154B984204D14FF68F731A404B88F4
:1017A0001A43124B984207D0114B984204D04FF67F
:1017B000FF431A400B891A4302804B68C3620B88AF
:1017C0000385054B984202D0044B984201D18B7A95
:1017D000038601238382704700000140000401401A
:1017E0000004004000080040000C004000100040D1
:1017F0000014004010B540F22551054800F05BF997
:10180000012804D140F22551014800F0D2F810BD62
:101810000050004010B540F22551074800F04BF948
:10182000012805D140F22551034800F0C2F802E03A
:10183000014800F0F9F910BD0010014010B540F268
:101840002551054800F037F9012804D140F225510F
:10185000014800F0AEF810BD0044004010B540F261
:101860002551484800F027F901287CD140F2255144
:10187000444800F09EF8434800F0D6F94249087009
:1018800008460178414800F0D4F94148007805281D
:1018900071D2DFE800F00311263D4B003A48007892
:1018A0000D2805D13A480078401C3949087002E0FB
:1018B00000203749087062E0334800780A2808D1D0
:1018C00000203449087032480078401C30490870C4
:1018D00006E02D4800780D2802D000202C49087021
:1018E0004DE0294800782C492A4A12788854294822
:1018F0000078401C2749087008460078182806DB45
:101900000020087022480078401C2149087036E009
:101910001D4800780A2805D11D480078401C1C4944
:10192000087002E000201A49087028E01648007884
:101930000D281CD1184890ED000A184880ED0E0AB9
:10194000154890ED030AB1EE400A144880ED0F0AE5
:10195000114890ED040AB1EE400A104880ED100ADB
:1019600001200E4901E00BE005E0A1F8460000204F
:101970000749087003E000200549087000BF00BF58
:1019800010BD000000480040180000200010014079
:10199000190000201A000020980000202C000020D0
:1019A00001F40072B2F5007F00D100BFCA4302808B
:1019B000704710B50022002340F66A14A14200D1FE
:1019C00000BF0A1201249440A3B2DC43048010BD7E
:1019D00021B1828942F40052828104E082894DF66D
:1019E000FF731A408281704710B50446254884422F
:1019F00008D101211020FFF711FC00211020FFF772
:101A00000DFC3EE02048844209D101214804FFF743
:101A1000E5FB00214FF40030FFF7E0FB31E01B480D
:101A2000844209D101218804FFF7D8FB00214FF43B
:101A30008020FFF7D3FB24E01548844209D101211F
:101A4000C804FFF7CBFB00214FF40020FFF7C6FBD3
:101A500017E01048844209D101210805FFF7BEFBB9
:101A600000214FF48010FFF7B9FB0AE00A488442D6
:101A700007D101212020FFF7D1FB00212020FFF713
:101A8000CDFB10BD00100140004400400048004064
:101A9000004C00400050004000140140024600206D
:101AA000B1F5007F00D100BF13880B400BB10120BE
:101AB00000E00020704770B5024600240023002596
:101AC000002040F66A16B14200D100BFC1F34215B2
:101AD00001F01F03012606FA03F3012D02D19689B6
:101AE000334006E0022D02D1168A334001E0968A87
:101AF00033400C12012606FA04F41688344013B160
:101B00000CB1012000E0002070BDF0B503460024B8
:101B100000260025002040F66A17B94200D100BF18
:101B20001846C1F3421401F01F06012707FA06F513
:101B3000012C01D10C3004E0022C01D1103000E066
:101B400014301AB107682F43076002E00768AF43FB
:101B50000760F0BD2DE9FF4705460E460024A1466B
:101B600000BFA046B08900B100BF2C8A24F44054C5
:101B7000F08804432C82AC8941F20C608443B08825
:101B800031890843718908430443AC81AC8A24F449
:101B90004074B0890443AC826846FFF74FFB20488D
:101BA000854202D01F48854202D1DDF80C9001E049
:101BB000DDF80890A88900F4004040B109EBC900A5
:101BC00000EB091031684900B0FBF1F707E009EBC1
:101BD000C90000EB091031688900B0FBF1F76420FF
:101BE000B7FBF0F004012009642101FB1078A889FB
:101BF00000F4004040B1322000EBC800B0FBF1F02F
:101C000000F00700044308E0322000EB08106421D4
:101C1000B0FBF1F000F00F0004432C81BDE8FF871A
:101C2000001001400014014001468888C0F30800FC
:101C3000704730B504460D4600BF80212046FFF7AF
:101C40002DFF0028F9D080212046FFF7A9FE402172
:101C50002046FFF7A5FEC5F30800A08030BD00BFF9
:101C6000FEE70000014800887047000006000020E1
:101C700008B54FF4A060FFF787FA0020034653220F
:101C8000632100904FF08040FFF790FC4FF46120FB
:101C9000FFF796F94FF46120FFF7ACF84FF40070AE
:101CA00043100D4A4FF4FA7100900C48FEF7DEFB2A
:101CB0000A48FFF709F901210848FFF7DFF9022177
:101CC0000648FFF7DBF903210448FFF7D7F90421A1
:101CD0000248FFF7D3F908BD000402400064004049
:101CE000FFF7C6FF03E0FFF7BDFF01490870FAE701
:101CF000000000204FF04070E1EE100A7047000035
:101D000001000000000000004D4F00000100000035
:101D10004D4F000000000000554D00000000000085
:101D20005346000000000000414300000000000096
:101D3000444300000000000056480200000000007C
:101D4000564C02000000000056480300000000004E
:101D5000564C030000000000584D02000000000037
:101D6000584D01000000000053500000000000002A
:101D70004A560000000000004247004000000000FA
:101D80005551004000000000495100400000000093
:101D9000505800400000000056580040000000006D
:101DA00054490140000000004C4300400000000086
:101DB000564500400000000044560240000000006C
:101DC0004A56004000000000554D00400000000051
:101DD000524D0040000000004D4600400000000051
:101DE000001E0008000000202C000000C4010008B4
:101DF0002C1E00082C000020E4460000E001000832
:101E000000000000000000000000000000000000D2
:101E100000000000000000000000000000000001C1
:0C1E200002030401020304060708090085
:040000050800018965
:00000001FF
