:020000040800F2
:100000001847002029020008690800086108000854
:1000100065080008E3020008D11400080000000091
:10002000000000000000000000000000810A00083D
:1000300095060008000000003F0200084102000889
:10004000430200084302000843020008430200087C
:10005000430200084302000843020008430200086C
:10006000430200084302000843020008430200085C
:10007000430200084302000843020008430200084C
:10008000430200084302000843020008430200083C
:10009000E902000843020008430200084302000886
:1000A00043020008D90B000843020008430200087D
:1000B000F50B0008450C0008610C0008430200081D
:1000C00043020008430200084302000843020008FC
:1000D00043020008710F0008990F0008B90F0008CB
:1000E00043020008430200084302000843020008DC
:1000F000990C00084302000843020008430200086C
:1001000043020008430200087D0C00084302000877
:1001100043020008510F0008430200084302000890
:10012000430200084302000843020008430200089B
:10013000430200084302000843020008430200088B
:10014000430200084302000843020008430200087B
:10015000430200084302000843020008430200086B
:10016000430200084302000843020008430200085B
:10017000430200084302000843020008430200084B
:10018000430200084302000800F002F800F03CF8C7
:100190000AA090E8000C82448344AAF10107DA45E2
:1001A00001D100F031F8AFF2090EBAE80F0013F0F8
:1001B000010F18BFFB1A43F0010318470C1400008D
:1001C0002C140000103A24BF78C878C1FAD852071E
:1001D00024BF30C830C144BF04680C6070470000C1
:1001E0000023002400250026103A28BF78C1FBD840
:1001F000520728BF30C148BF0B6070471FB501F0E0
:10020000DDF91FBD10B510BD00F031F81146FFF744
:10021000F5FF01F0C9F900F04FF803B4FFF7F2FF62
:1002200003BC00F057F80000094880470948004720
:10023000FEE7FEE7FEE7FEE7FEE7FEE7FEE7FEE796
:10024000FEE7FEE704480549054A064B70470000F3
:10025000710B0008890100081801002018470020D0
:1002600018430020184300207047704770477546B8
:1002700000F02CF8AE4605006946534620F0070012
:10028000854618B020B5FFF7DDFFBDE820404FF0F0
:1002900000064FF000074FF000084FF0000B21F070
:1002A0000701AC46ACE8C009ACE8C009ACE8C0093D
:1002B000ACE8C0098D46704710B50446AFF3008026
:1002C0002046BDE81040FFF7A8BF00000048704777
:1002D000B400002001491820ABBEFEE72600020052
:1002E000704700BFFEE700001CB50823444A45499B
:1002F000454800F042F9002005E04149095C0DF84D
:100300000010411CC8B20828F7DB40490098884219
:1003100021D13F480078401C3D49087039480068A9
:10032000A0F2812030B1012808D002280AD0032889
:1003300010D10BE03749019808600BE0354901986E
:10034000486007E033490198886003E0314901982B
:10035000C86000BF26E045F650010098884221D1D0
:100360002B480078401C2A49087026480068A0F2F3
:10037000812030B1012808D002280AD0032810D1EA
:100380000BE02549019808600BE02349019848607B
:1003900007E021490198886003E01F490198C8607F
:1003A00000BF00BF1D49184800F044F81B49491C14
:1003B000154800F03FF81949C91C134800F03AF8F5
:1003C0001749114800F036F816490F4800F032F886
:1003D00015490D4800F02EF8134908310A4800F07D
:1003E00029F81249084800F025F81149064800F09C
:1003F00021F80F490831044800F01CF81CBD00002A
:1004000010000020180000200064004056580040F2
:10041000040000207C0000208C0000200100F0106F
:100420007000F030030000120800003203000014D6
:100430000800003400220C4B994202D10023836152
:1004400011E0C1F3130201F000730BB1C2600AE0C6
:1004500001F080630BB1026105E001F000630BB1B4
:10046000826000E0426070477000F0300246002079
:1004700019B9D36803F0030006E0012903D1136919
:1004800003F0030000E00020704710B500F5D873BA
:1004900003EB01131B6803F004031372137A53B9BF
:1004A00000F5D87303EB01131B6840F2FF7404EAF4
:1004B0005353136009E000F5D87303EB01131B6875
:1004C0006FF0604404EAD303536000F5D87303EB84
:1004D00001131B6803F00203537200F5D87303EB9A
:1004E00001135B6803F00F03937200F5D87303EBFD
:1004F00001135B681B0AD37400F5D87303EB011377
:100500009B68D37200F5D87303EB01139B681C0A38
:10051000147300F5D87303EB01139B681C0C547320
:1005200000F5D87303EB01139B681B0E937300F562
:10053000D87303EB0113DB68D37300F5D87303EBB7
:100540000113DB681C0A147400F5D87303EB011364
:10055000DB681C0C547400F5D87303EB0113DB68E3
:100560001B0E937421B9C36843F02003C36003E0FA
:10057000036943F02003036110BD2DE9F04186B00B
:1005800080460D4616461F46002400214046FFF7D0
:100590006DFF18B9002006B0BDE8F08101AA002166
:1005A0004046FFF772FF002405E00DF10F00005DEB
:1005B0003055601CC4B2BC42F7DB019828600120B2
:1005C000E9E7000010B588B0044601940020ADF8BA
:1005D0000800ADF80A00ADF80C00ADF810000C20D2
:1005E000ADF80E000121084600F086F90121102027
:1005F00000F0B2F9254800F0ADFD07220A21244899
:1006000000F0B0F807220921214800F0ABF80020E3
:100610008DF81A0001208DF81B0002208DF81800BB
:100620004002059002208DF8190005A9184800F035
:1006300051F802208DF818000002059005A9144811
:1006400000F048F801A9114800F03AFE35208DF875
:100650001C0001208DF81F0000208DF81D000220D5
:100660008DF81E004FF4A06000F03CF907A800F0E0
:10067000FDF8012240F22551044800F0FCFD012163
:10068000024800F05BFD08B010BD00000010014002
:1006900000000240704700B5034604E04FF47A7052
:1006A00000F004F85B1E002BF8D100BDA8214143E7
:1006B0004FF0E02251610521116100BF4FF0E021B0
:1006C000096901F480310029F8D004214FF0E022BB
:1006D00011617047F0B50A4600210023002400BFD5
:1006E0003DE0012505FA01F3156805EA03049C4283
:1006F00034D105684F000326BE40B5430560157927
:100700004E00B5400668354305601579012D02D0CD
:100710001579022D16D185684F000326BE40B543DA
:10072000856055794E00B5408668354385604568DB
:1007300001268E40B5434560456896798E40B6B235
:1007400035434560C5684F000326BE40B543C560CC
:10075000D5794E00B540C6683543C560491C10299F
:10076000BFD3F0BDF0B5002300244D07ED0E02FA13
:1007700005F3CE1000F1200555F826504E07F70E70
:100780000F26BE40B543CF1000F1200646F8275093
:10079000CE1000F1200555F8265045EA0304CE108E
:1007A00000F1200545F82640F0BD000010B588B0E6
:1007B00004460121082000F09FF80121880400F080
:1007C000ABF8072208212448FFF7CCFF07220921B4
:1007D0002148FFF7C7FF4FF44070069002208DF8C4
:1007E0001C008DF81D0000208DF81E0001208DF8E2
:1007F0001F0006A91848FFF76DFF02940020ADF80E
:100800000C00ADF80E00ADF81000ADF814000C208F
:10081000ADF8120002A9114800F052FD01210F4865
:1008200000F08CFC40210D4800F070FC012240F2E9
:1008300025510A4800F01FFD27208DF804000020F4
:100840008DF8050001208DF806008DF8070001A83D
:1008500000F00CF808B010BD000C02400048004049
:1008600000BFFEE700BFFEE700BFFEE770B5002156
:1008700000230F22C4781CB3174C246804F4E064EE
:10088000C4F5E064C4F30721C1F10404E3B20A41F2
:1008900044789C40E1B28478144021430C07210E37
:1008A0000E4C05786155047804F01F050124AC4016
:1008B00005786D11AD0005F1E025C5F8004109E0AE
:1008C000047804F01F050124AC40054D067876112C
:1008D00045F8264070BD00000CED00E000E400E0AB
:1008E00080E100E002490143024A116070470000C4
:1008F0000000FA050CED00E029B1064A1268024337
:10090000044B1A6004E0034A12688243014B1A60E8
:10091000704700003038024029B1064A126802438D
:10092000044B1A6004E0034A12688243014B1A60C8
:10093000704700004038024029B1064A126802435D
:10094000044B1A6004E0034A12688243014B1A60A8
:10095000704700002038024029B1064A126802435D
:10096000044B1A6004E0034A12688243014B1A6088
:10097000704700004438024029B1064A1268024319
:10098000044B1A6004E0034A12688243014B1A6068
:100990007047000024380240F0B5002100220024F6
:1009A000022500260223324F3F6807F00C0121B1D7
:1009B000042905D0082937D105E02E4F076036E01D
:1009C0002D4F076033E02A4F3F1F3F68C7F3805623
:1009D000274F3F1F3F6807F03F036EB1264FB7FB1D
:1009E000F3F7DFF88CC0ACF1040CDCF800C0CCF3FA
:1009F000881C07FB0CF40CE01E4FB7FBF3F7DFF885
:100A000070C0ACF1040CDCF800C0CCF3881C07FB10
:100A10000CF4174F3F1F3F68C7F301477F1C7D0051
:100A2000B4FBF5F7076002E0124F076000BF00BF9C
:100A30000F4F3F6807F0F0010909104F7A5C076813
:100A4000D74047600A4F3F6807F4E051890A0B4FCF
:100A50007A5C4768D7408760054F3F6807F460417C
:100A6000490B064F7A5C4768D740C760F0BD00006D
:100A7000083802400024F40000127A001F00002011
:100A8000704700000CB500200190009034480068C9
:100A900040F480303249086000BF3148006800F4FB
:100AA000003000900198401C0190009818B90198FE
:100AB000B0F5A06FF1D12A48006800F4003010B101
:100AC0000120009001E0002000900098012846D10C
:100AD00023484030006840F0805021494031086090
:100AE0002048006840F480401E4908601C480830D7
:100AF00000681B49083108600846006840F400405F
:100B000008600846006840F4A05008601648091FB5
:100B10000860081F006840F08070091F086000BF6F
:100B20000F48006800F000700028F9D040F205601E
:100B30000E4908600A480830006820F003000849A0
:100B4000083108600846006840F00200086000BFF5
:100B500003480830006800F00C000828F8D10CBDEC
:100B6000003802400070004008544007003C02403A
:100B700010B51548006840F4700013490860134828
:100B8000006840F001001149086000200F49083159
:100B900008600E4800680E4908400C4908600D487E
:100BA000091D0860081F006820F48020091F0860E4
:100BB000002006490C310860FFF764FF4FF0006029
:100BC00001498039086010BD88ED00E0003802401E
:100BD000FFFFF6FE1030002410B50121044800F09C
:100BE00078F8012803D10121014800F063F810BD15
:100BF0000000014010B50121880700F06AF80128C3
:100C000018D10121800700F055F80B480088401CDE
:100C1000094908800846008800EE100AB8EE400A2C
:100C2000DFED060AB4EEE00AF1EE10FA02DB012075
:100C30000349087010BD0000060000200000C842F3
:100C40000800002010B50121044800F042F80128F6
:100C500003D10121014800F02DF810BD000400402F
:100C600010B50121044800F034F8012803D1012116
:100C7000014800F01FF810BD0008004010B5012128
:100C8000044800F026F8012803D10121014800F0B2
:100C900011F810BD000C004010B50121044800F00F
:100CA00018F8012803D10121014800F003F810BD14
:100CB00000040140CA430282704721B1028842F019
:100CC0000102028004E002884FF6FE731A4002809F
:100CD000704730B50246002000230024158A05EA3B
:100CE0000103958905EA010413B10CB1012000E06C
:100CF000002030BD1AB183890B43838102E08389D0
:100D00008B438381704700002DE9FF4104460D4667
:100D100016461F46DDF828806949601A8C4270D05B
:100D20001ADC6849A4EB01008C426CD00ADCB4F1F7
:100D3000804F4ED064482044002852D0B0F5806FD8
:100D400071D156E0B0F5806F65D0B0F5006F6CD012
:100D5000B0F5406FF4D170E0B0F5923F21D009DCDE
:100D6000B0F5806F7AD0B0F5644F0AD0B0F5684F17
:100D70007CD10EE0B0F5943F1BD0B0F5963F75D115
:100D80001FE001210846FFF7E7FD19208DF800005C
:100D90006DE001210220FFF7DFFD2C208DF800001F
:100DA00065E001210804FFF7D7FD18208DF8000049
:100DB0005DE001211920FFF7CFFD2C208DF8000008
:100DC00055E001218804FFF7C7FD1A208DF80000C7
:100DD0004DE001210846FFF79FFD1C208DF8000023
:100DE00045E001210220FFF797FD1D208DF800004E
:100DF0003DE001210420FFF78FFD1E208DF800004B
:100E000035E023E0FFE701210820FFF785FD3220D0
:100E10008DF800002BE001211020FFF77DFD36202A
:100E20008DF8000023E021E0FFE701212020FFF7FB
:100E300073FD37208DF8000019E001214020FFF7F5
:100E40006BFD2B208DF8000011E007E001218020D0
:100E5000FFF762FD2C208DF8000008E00121080258
:100E6000FFF75AFD2D208DF8000000E000BF00BF05
:100E70000295ADF804600020ADF80C00ADF8060056
:100E800001A9204600F022F801212046FFF712FFB9
:100E9000012211462046FFF72DFFF8B28DF8010020
:100EA00008F0FF008DF8020001208DF8030068466D
:100EB000FFF7DCFC01212046FFF7FFFEBDE8FF81C4
:100EC000001C0040000C004000FCFFBF0022028814
:100ED000184B98420ED0184B98420BD0B0F1804F6F
:100EE00008D0164B984205D0154B984202D0154BAE
:100EF000984204D14FF68F731A404B881A43124B15
:100F0000984207D0114B984204D04FF6FF431A4045
:100F10000B891A4302804B68C3620B880385054B1B
:100F2000984202D0044B984201D18B7A0386012368
:100F3000838270470000014000040140000400402B
:100F400000080040000C0040001000400014004069
:100F500010B540F22551054800F063F9012804D18D
:100F600040F22551014800F0DAF810BD0050004071
:100F700010B540F22551074800F053F9012805D17A
:100F800040F22551034800F0CAF802E0014800F0A1
:100F900084FA10BD0010014010B540F225510548FB
:100FA00000F03FF9012804D140F22551014800F03A
:100FB000B6F810BD0044004010B540F225514B4832
:100FC00000F02FF901287CD140F22551474800F06C
:100FD000A6F8464800F061FA4549087008460178CD
:100FE000444800F05FFA424800784F2802D10120BF
:100FF0004149086041480078052871D2DFE800F0D7
:101000000311263D4B003A4800780D2805D13B4896
:101010000078401C3949087002E000203749087008
:1010200062E0334800780A2808D10020344908706B
:1010300032480078401C3149087006E02C4800789E
:101040000D2802D000202D4908704DE02848007876
:101050002C492B4A1278885429480078401C28498A
:10106000087008460078182806DB0020087023481E
:101070000078401C2149087036E01D4800780A2895
:1010800005D11E480078401C1C49087002E0002071
:101090001A49087028E0164800780D281BD1194815
:1010A00090ED000A184880ED0E0A164890ED030AEC
:1010B000B1EE400A144880ED0F0A124890ED040A80
:1010C00000E012E0B1EE400A0F4880ED100A012066
:1010D0000D49A1F8460000200849087004E0FFE728
:1010E00000200649087000BF00BF10BD0048004046
:1010F0001C000020001001400C0000201D000020FA
:101100001E0000209C0000203000002001F400722E
:10111000B2F5007F00D100BFCA430280704710B50E
:101120000022002340F66A14A14200D100BF0A1237
:1011300001249440A3B2DC43048010BD21B1828914
:1011400042F40052828104E082894DF6FF731A4016
:101150008281704710B504462548844208D1012198
:101160001020FFF709FC00211020FFF705FC3EE0EE
:101170002048844209D101214804FFF7DDFB00210A
:101180004FF40030FFF7D8FB31E01B48844209D10F
:1011900001218804FFF7D0FB00214FF48020FFF7E6
:1011A000CBFB24E01548844209D10121C804FFF794
:1011B000C3FB00214FF40020FFF7BEFB17E01048EF
:1011C000844209D101210805FFF7B6FB00214FF445
:1011D0008010FFF7B1FB0AE00A48844207D10121E1
:1011E0002020FFF7C9FB00212020FFF7C5FB10BD21
:1011F000001001400044004000480040004C004006
:10120000005000400014014002460020B1F5007F6C
:1012100000D100BF13880B400BB1012000E000207B
:10122000704770B50246002400230025002040F6D8
:101230006A16B14200D100BFC1F3421501F01F038D
:10124000012606FA03F3012D02D19689334006E008
:10125000022D02D1168A334001E0968A33400C12E7
:10126000012606FA04F41688344013B10CB10120AB
:1012700000E0002070BDF0B50346002400260025E4
:10128000002040F66A17B94200D100BF1846C1F3EA
:10129000421401F01F06012707FA06F5012C01D1BF
:1012A0000C3004E0022C01D1103000E014301AB1EF
:1012B00007682F43076002E00768AF430760F0BD8F
:1012C0002DE9FF4705460E460024A14600BFA04673
:1012D000B08900B100BF2C8A24F44054F088044344
:1012E0002C82AC8941F20C608443B0883189084378
:1012F000718908430443AC81AC8A24F44074B089FA
:101300000443AC826846FFF747FB2048854202D081
:101310001F48854202D1DDF80C9001E0DDF808900D
:10132000A88900F4004040B109EBC90000EB0910A6
:1013300031684900B0FBF1F707E009EBC90000EBA9
:10134000091031688900B0FBF1F76420B7FBF0F0B9
:1013500004012009642101FB1078A88900F40040F1
:1013600040B1322000EBC800B0FBF1F000F0070004
:10137000044308E0322000EB08106421B0FBF1F0D8
:1013800000F00F0004432C81BDE8FF8700100140EE
:10139000001401400FB470B586B006460CA8019049
:1013A00073E00B9800785C281CD10B98401C0B90C4
:1013B00000786E2809D072280FD10D21304600F038
:1013C00071F80B98401C0B900BE00A21304600F09E
:1013D00069F80B98401C0B9003E00B98401C0B9095
:1013E00000BF4BE00B980078252840D10B98401C9B
:1013F0000B900078642818D0732833D1019810C856
:1014000001900BE02178304600F04CF800BF4021FD
:101410003046FFF7F9FE0028F9D0641C2078002838
:10142000F0D10B98401C0B9020E0019820C801904F
:101430000A2202A9284600F085F802AC0BE02178C8
:10144000304600F02FF800BF40213046FFF7DCFEA9
:101450000028F9D0641C20780028F0D10B98401C9B
:101460000B9003E00B98401C0B9000BF06E00B981C
:1014700010F8011B0B90304600F014F800BF40211B
:101480003046FFF7C1FE0028F9D00B9800780028FD
:1014900087D106B070BC5DF814FB01468888C0F3A4
:1014A0000800704730B504460D4600BF8021204635
:1014B000FFF7AAFE0028F9D080212046FFF726FE7C
:1014C00040212046FFF722FEC5F30800A08030BD72
:1014D00000BFFEE7014800887047000006000020BA
:1014E00008B54FF4A060FFF7FDF900200346532232
:1014F000632100904FF08040FFF706FC4FF461201D
:10150000FFF754F94FF46120FFF75CF84FF47A705D
:10151000FFF7C1F806E00520FFF7BDF804A1074872
:10152000FFF738FF064800680028F4D008BD000027
:1015300041542B626567696E0D0A00000048004047
:101540000C000020F0B503460D461646002729463C
:101550000A2E03D0002008702846F0BD33B9302091
:1015600001F8010B002008702846F6E7002B03DA8B
:101570002D2001F8010B5B4242F210720DE093FB4B
:10158000F2F404B937B104F1300001F8010B04FBA7
:10159000123301270A2092FBF0F2002AEFDC002030
:1015A00008702846D9E70000FFF79AFF03E0FFF72D
:1015B00091FF01490870FAE7000000204FF04070E9
:1015C000E1EE100A70470000E81500080000002056
:1015D00030000000C4010008181600083000002088
:1015E000E8460000E00100080000000000000000E4
:1015F00000000000000000000000000000000000EB
:1016000000000000000000000000000102030401CF
:081610000203040607080900AB
:040000050800018965
:00000001FF
